{
  "contractName": "Allowances",
  "abi": [
    {
      "anonymous": false,
      "inputs": [
        {
          "indexed": true,
          "internalType": "address",
          "name": "previousOwner",
          "type": "address"
        },
        {
          "indexed": true,
          "internalType": "address",
          "name": "newOwner",
          "type": "address"
        }
      ],
      "name": "OwnershipTransferred",
      "type": "event"
    },
    {
      "constant": true,
      "inputs": [],
      "name": "isOwner",
      "outputs": [
        {
          "internalType": "bool",
          "name": "",
          "type": "bool"
        }
      ],
      "payable": false,
      "stateMutability": "view",
      "type": "function"
    },
    {
      "constant": true,
      "inputs": [],
      "name": "owner",
      "outputs": [
        {
          "internalType": "address",
          "name": "",
          "type": "address"
        }
      ],
      "payable": false,
      "stateMutability": "view",
      "type": "function"
    },
    {
      "constant": false,
      "inputs": [],
      "name": "renounceOwnership",
      "outputs": [],
      "payable": false,
      "stateMutability": "nonpayable",
      "type": "function"
    },
    {
      "constant": false,
      "inputs": [
        {
          "internalType": "address",
          "name": "newOwner",
          "type": "address"
        }
      ],
      "name": "transferOwnership",
      "outputs": [],
      "payable": false,
      "stateMutability": "nonpayable",
      "type": "function"
    },
    {
      "constant": false,
      "inputs": [
        {
          "internalType": "address",
          "name": "spender",
          "type": "address"
        },
        {
          "internalType": "uint256",
          "name": "amount",
          "type": "uint256"
        }
      ],
      "name": "approve",
      "outputs": [],
      "payable": false,
      "stateMutability": "nonpayable",
      "type": "function"
    },
    {
      "constant": true,
      "inputs": [
        {
          "internalType": "address",
          "name": "spender",
          "type": "address"
        }
      ],
      "name": "allowance",
      "outputs": [
        {
          "internalType": "uint256",
          "name": "",
          "type": "uint256"
        }
      ],
      "payable": false,
      "stateMutability": "view",
      "type": "function"
    },
    {
      "constant": false,
      "inputs": [
        {
          "internalType": "bool",
          "name": "_bValid",
          "type": "bool"
        }
      ],
      "name": "setValid",
      "outputs": [],
      "payable": false,
      "stateMutability": "nonpayable",
      "type": "function"
    },
    {
      "constant": true,
      "inputs": [
        {
          "internalType": "address",
          "name": "spender",
          "type": "address"
        },
        {
          "internalType": "uint256",
          "name": "amount",
          "type": "uint256"
        }
      ],
      "name": "checkAllowance",
      "outputs": [
        {
          "internalType": "bool",
          "name": "",
          "type": "bool"
        }
      ],
      "payable": false,
      "stateMutability": "view",
      "type": "function"
    }
  ],
  "bytecode": "0x608060408190526002805460ff1916600117905560008054600160a060020a0319163317808255600160a060020a0316917f8be0079c531659141344cd1fd0a4f28419497f9722a3daafe3b4186f6b6457e0908290a361051d806100646000396000f3fe608060405234801561001057600080fd5b50600436106100a5576000357c010000000000000000000000000000000000000000000000000000000090048063715018a611610078578063715018a61461016f5780638da5cb5b146101775780638f32d59b1461019b578063f2fde38b146101a3576100a5565b8063095ea7b3146100aa5780633daba0d7146100d85780633e5beab9146101185780636c64edee14610150575b600080fd5b6100d6600480360360408110156100c057600080fd5b50600160a060020a0381351690602001356101c9565b005b610104600480360360408110156100ee57600080fd5b50600160a060020a03813516906020013561022f565b604080519115158252519081900360200190f35b61013e6004803603602081101561012e57600080fd5b5035600160a060020a0316610263565b60408051918252519081900360200190f35b6100d66004803603602081101561016657600080fd5b5035151561027e565b6100d66102db565b61017f61037c565b60408051600160a060020a039092168252519081900360200190f35b61010461038b565b6100d6600480360360208110156101b957600080fd5b5035600160a060020a031661039c565b6101d161038b565b610213576040805160e560020a62461bcd02815260206004820181905260248201526000805160206104c9833981519152604482015290519081900360640190fd5b600160a060020a03909116600090815260016020526040902055565b60025460009060ff16158061025c5750600160a060020a0383166000908152600160205260409020548211155b9392505050565b600160a060020a031660009081526001602052604090205490565b61028661038b565b6102c8576040805160e560020a62461bcd02815260206004820181905260248201526000805160206104c9833981519152604482015290519081900360640190fd5b6002805460ff1916911515919091179055565b6102e361038b565b610325576040805160e560020a62461bcd02815260206004820181905260248201526000805160206104c9833981519152604482015290519081900360640190fd5b60008054604051600160a060020a03909116907f8be0079c531659141344cd1fd0a4f28419497f9722a3daafe3b4186f6b6457e0908390a36000805473ffffffffffffffffffffffffffffffffffffffff19169055565b600054600160a060020a031690565b600054600160a060020a0316331490565b6103a461038b565b6103e6576040805160e560020a62461bcd02815260206004820181905260248201526000805160206104c9833981519152604482015290519081900360640190fd5b6103ef816103f2565b50565b600160a060020a03811661043a5760405160e560020a62461bcd0281526004018080602001828103825260268152602001806104a36026913960400191505060405180910390fd5b60008054604051600160a060020a03808516939216917f8be0079c531659141344cd1fd0a4f28419497f9722a3daafe3b4186f6b6457e091a36000805473ffffffffffffffffffffffffffffffffffffffff1916600160a060020a039290921691909117905556fe4f776e61626c653a206e6577206f776e657220697320746865207a65726f20616464726573734f776e61626c653a2063616c6c6572206973206e6f7420746865206f776e6572a265627a7a72315820748a117cd61a4532da4f07df6a1744771582668581f0fab1105a3b73a761d3fc64736f6c63430005100032",
  "source": "pragma solidity =0.5.16;\r\nimport './Ownable.sol';\r\n/**\r\n * @dev Contract module which provides a basic access control mechanism, where\r\n * each operator can be granted exclusive access to specific functions.\r\n *\r\n */\r\ncontract Allowances is Ownable {\r\n    mapping (address => uint256) internal allowances;\r\n    bool internal bValid = true;\r\n    /**\r\n     *\r\n     * Requirements:\r\n     *\r\n     * - `spender` cannot be the zero address.\r\n     */\r\n    function approve(address spender, uint256 amount) public onlyOwner{\r\n        allowances[spender] = amount;\r\n    }\r\n    function allowance(address spender) public view returns (uint256) {\r\n        return allowances[spender];\r\n    }\r\n    function setValid(bool _bValid) public onlyOwner{\r\n        bValid = _bValid;\r\n    }\r\n    function checkAllowance(address spender, uint256 amount) public view returns(bool){\r\n        return (!bValid) || (allowances[spender] >= amount);\r\n    }\r\n    modifier sufficientAllowance(address spender, uint256 amount){\r\n        require((!bValid) || (allowances[spender] >= amount),\"Allowances : user's allowance is unsufficient!\");\r\n        _;\r\n    }\r\n}",
  "sourcePath": "C:\\work\\solidity\\finnexusOptions_V2.1\\contracts\\modules\\Allowances.sol",
  "compiler": {
    "name": "solc",
    "version": "0.5.16+commit.9c3226ce.Emscripten.clang"
  },
  "schemaVersion": "3.1.0",
  "updatedAt": "2020-10-24T10:45:23.441Z",
  "devdoc": {
    "details": "Contract module which provides a basic access control mechanism, where each operator can be granted exclusive access to specific functions.  ",
    "methods": {
      "isOwner()": {
        "details": "Returns true if the caller is the current owner."
      },
      "owner()": {
        "details": "Returns the address of the current owner."
      },
      "renounceOwnership()": {
        "details": "Leaves the contract without owner. It will not be possible to call `onlyOwner` functions anymore. Can only be called by the current owner.      * NOTE: Renouncing ownership will leave the contract without an owner, thereby removing any functionality that is only available to the owner."
      },
      "transferOwnership(address)": {
        "details": "Transfers ownership of the contract to a new account (`newOwner`). Can only be called by the current owner."
      }
    }
  },
  "userdoc": {
    "methods": {
      "approve(address,uint256)": {
        "notice": "     * Requirements:      * - `spender` cannot be the zero address."
      }
    }
  }
}