{
  "contractName": "baseProxy",
  "abi": [
    {
      "inputs": [
        {
          "internalType": "address",
          "name": "implementation_",
          "type": "address"
        }
      ],
      "payable": false,
      "stateMutability": "nonpayable",
      "type": "constructor"
    },
    {
      "anonymous": false,
      "inputs": [
        {
          "indexed": true,
          "internalType": "address",
          "name": "previousOwner",
          "type": "address"
        },
        {
          "indexed": true,
          "internalType": "address",
          "name": "newOwner",
          "type": "address"
        }
      ],
      "name": "OwnershipTransferred",
      "type": "event"
    },
    {
      "constant": true,
      "inputs": [],
      "name": "implementation",
      "outputs": [
        {
          "internalType": "address",
          "name": "",
          "type": "address"
        }
      ],
      "payable": false,
      "stateMutability": "view",
      "type": "function"
    },
    {
      "constant": true,
      "inputs": [],
      "name": "isOwner",
      "outputs": [
        {
          "internalType": "bool",
          "name": "",
          "type": "bool"
        }
      ],
      "payable": false,
      "stateMutability": "view",
      "type": "function"
    },
    {
      "constant": true,
      "inputs": [],
      "name": "owner",
      "outputs": [
        {
          "internalType": "address",
          "name": "",
          "type": "address"
        }
      ],
      "payable": false,
      "stateMutability": "view",
      "type": "function"
    },
    {
      "constant": false,
      "inputs": [],
      "name": "renounceOwnership",
      "outputs": [],
      "payable": false,
      "stateMutability": "nonpayable",
      "type": "function"
    },
    {
      "constant": false,
      "inputs": [
        {
          "internalType": "address",
          "name": "newOwner",
          "type": "address"
        }
      ],
      "name": "transferOwnership",
      "outputs": [],
      "payable": false,
      "stateMutability": "nonpayable",
      "type": "function"
    },
    {
      "constant": true,
      "inputs": [],
      "name": "getImplementation",
      "outputs": [
        {
          "internalType": "address",
          "name": "",
          "type": "address"
        }
      ],
      "payable": false,
      "stateMutability": "view",
      "type": "function"
    },
    {
      "constant": false,
      "inputs": [
        {
          "internalType": "address",
          "name": "implementation_",
          "type": "address"
        }
      ],
      "name": "setImplementation",
      "outputs": [],
      "payable": false,
      "stateMutability": "nonpayable",
      "type": "function"
    },
    {
      "constant": false,
      "inputs": [
        {
          "internalType": "bytes",
          "name": "data",
          "type": "bytes"
        }
      ],
      "name": "delegateToImplementation",
      "outputs": [
        {
          "internalType": "bytes",
          "name": "",
          "type": "bytes"
        }
      ],
      "payable": false,
      "stateMutability": "nonpayable",
      "type": "function"
    },
    {
      "constant": true,
      "inputs": [
        {
          "internalType": "bytes",
          "name": "data",
          "type": "bytes"
        }
      ],
      "name": "delegateToViewImplementation",
      "outputs": [
        {
          "internalType": "bytes",
          "name": "",
          "type": "bytes"
        }
      ],
      "payable": false,
      "stateMutability": "view",
      "type": "function"
    }
  ],
  "bytecode": "0x608060405234801561001057600080fd5b50604051610baa380380610baa8339818101604052602081101561003357600080fd5b505160008054600160a060020a0319163317808255604051600160a060020a039190911691907f8be0079c531659141344cd1fd0a4f28419497f9722a3daafe3b4186f6b6457e0908290a360018054600160a060020a038316600160a060020a031990911681179091556040805160048152602481018252602081018051600160e060020a03167f8129fc1c00000000000000000000000000000000000000000000000000000000178152915181516000949382918083835b6020831061010b5780518252601f1990920191602091820191016100ec565b6001836020036101000a038019825116818451168082178552505050505050905001915050600060405180830381855af49150503d806000811461016b576040519150601f19603f3d011682016040523d82523d6000602084013e610170565b606091505b505090508061017e57600080fd5b5050610a1b8061018f6000396000f3fe608060405234801561001057600080fd5b50600436106100b0576000357c0100000000000000000000000000000000000000000000000000000000900480638da5cb5b116100835780638da5cb5b146102a45780638f32d59b146102ac578063aaf10f42146102c8578063d784d426146102d0578063f2fde38b146102f6576100b0565b80630933c1ed146100b55780634487152f146101d05780635c60da1b14610276578063715018a61461029a575b600080fd5b61015b600480360360208110156100cb57600080fd5b8101906020810181356401000000008111156100e657600080fd5b8201836020820111156100f857600080fd5b8035906020019184600183028401116401000000008311171561011a57600080fd5b91908080601f01602080910402602001604051908101604052809392919081815260200183838082843760009201919091525092955061031c945050505050565b6040805160208082528351818301528351919283929083019185019080838360005b8381101561019557818101518382015260200161017d565b50505050905090810190601f1680156101c25780820380516001836020036101000a031916815260200191505b509250505060405180910390f35b61015b600480360360208110156101e657600080fd5b81019060208101813564010000000081111561020157600080fd5b82018360208201111561021357600080fd5b8035906020019184600183028401116401000000008311171561023557600080fd5b91908080601f0160208091040260200160405190810160405280939291908181526020018383808284376000920191909152509295506103e6945050505050565b61027e610635565b60408051600160a060020a039092168252519081900360200190f35b6102a2610644565b005b61027e6106f7565b6102b4610706565b604080519115158252519081900360200190f35b61027e610717565b6102a2600480360360208110156102e657600080fd5b5035600160a060020a0316610726565b6102a26004803603602081101561030c57600080fd5b5035600160a060020a03166108a8565b60015460405182516060926000928492600160a060020a0390921691869190819060208401908083835b602083106103655780518252601f199092019160209182019101610346565b6001836020036101000a038019825116818451168082178552505050505050905001915050600060405180830381855af49150503d80600081146103c5576040519150601f19603f3d011682016040523d82523d6000602084013e6103ca565b606091505b509150915060008214156103df573d60208201fd5b9392505050565b60606000606030600160a060020a0316846040516024018080602001828103825283818151815260200191508051906020019080838360005b8381101561043757818101518382015260200161041f565b50505050905090810190601f1680156104645780820380516001836020036101000a031916815260200191505b5060408051601f198184030181529181526020820180517bffffffffffffffffffffffffffffffffffffffffffffffffffffffff167f0933c1ed00000000000000000000000000000000000000000000000000000000178152905182519295509350839250908083835b602083106104ed5780518252601f1990920191602091820191016104ce565b6001836020036101000a038019825116818451168082178552505050505050905001915050600060405180830381855afa9150503d806000811461054d576040519150601f19603f3d011682016040523d82523d6000602084013e610552565b606091505b50915091506000821415610567573d60208201fd5b80806020019051602081101561057c57600080fd5b810190808051604051939291908464010000000082111561059c57600080fd5b9083019060208201858111156105b157600080fd5b82516401000000008111828201881017156105cb57600080fd5b82525081516020918201929091019080838360005b838110156105f85781810151838201526020016105e0565b50505050905090810190601f1680156106255780820380516001836020036101000a031916815260200191505b5060405250505092505050919050565b600154600160a060020a031681565b61064c610706565b6106a0576040805160e560020a62461bcd02815260206004820181905260248201527f4f776e61626c653a2063616c6c6572206973206e6f7420746865206f776e6572604482015290519081900360640190fd5b60008054604051600160a060020a03909116907f8be0079c531659141344cd1fd0a4f28419497f9722a3daafe3b4186f6b6457e0908390a36000805473ffffffffffffffffffffffffffffffffffffffff19169055565b600054600160a060020a031690565b600054600160a060020a0316331490565b600154600160a060020a031690565b61072e610706565b610782576040805160e560020a62461bcd02815260206004820181905260248201527f4f776e61626c653a2063616c6c6572206973206e6f7420746865206f776e6572604482015290519081900360640190fd5b60018054600160a060020a03831673ffffffffffffffffffffffffffffffffffffffff19909116811790915560408051600481526024810182526020810180517bffffffffffffffffffffffffffffffffffffffffffffffffffffffff167fa2e6204500000000000000000000000000000000000000000000000000000000178152915181516000949382918083835b602083106108315780518252601f199092019160209182019101610812565b6001836020036101000a038019825116818451168082178552505050505050905001915050600060405180830381855af49150503d8060008114610891576040519150601f19603f3d011682016040523d82523d6000602084013e610896565b606091505b50509050806108a457600080fd5b5050565b6108b0610706565b610904576040805160e560020a62461bcd02815260206004820181905260248201527f4f776e61626c653a2063616c6c6572206973206e6f7420746865206f776e6572604482015290519081900360640190fd5b61090d81610910565b50565b600160a060020a0381166109585760405160e560020a62461bcd0281526004018080602001828103825260268152602001806109c16026913960400191505060405180910390fd5b60008054604051600160a060020a03808516939216917f8be0079c531659141344cd1fd0a4f28419497f9722a3daafe3b4186f6b6457e091a36000805473ffffffffffffffffffffffffffffffffffffffff1916600160a060020a039290921691909117905556fe4f776e61626c653a206e6577206f776e657220697320746865207a65726f2061646472657373a265627a7a7231582002f80d7c864b981d345c5b8fb10de3df7bb98c0ff0f625d22952f977de74a7ed64736f6c63430005100032",
  "source": "pragma solidity =0.5.16;\r\nimport \"../modules/Ownable.sol\";\r\n/**\r\n * @title  baseProxy Contract\r\n\r\n */\r\ncontract baseProxy is Ownable {\r\n    address public implementation;\r\n    constructor(address implementation_) public {\r\n        // Creator of the contract is admin during initialization\r\n        implementation = implementation_; \r\n        (bool success,) = implementation_.delegatecall(abi.encodeWithSignature(\"initialize()\"));\r\n        require(success);\r\n    }\r\n    function getImplementation()public view returns(address){\r\n        return implementation;\r\n    }\r\n    function setImplementation(address implementation_)public onlyOwner{\r\n        implementation = implementation_; \r\n        (bool success,) = implementation_.delegatecall(abi.encodeWithSignature(\"update()\"));\r\n        require(success);\r\n    }\r\n\r\n    /**\r\n     * @notice Delegates execution to the implementation contract\r\n     * @dev It returns to the external caller whatever the implementation returns or forwards reverts\r\n     * @param data The raw data to delegatecall\r\n     * @return The returned bytes from the delegatecall\r\n     */\r\n    function delegateToImplementation(bytes memory data) public returns (bytes memory) {\r\n        (bool success, bytes memory returnData) = implementation.delegatecall(data);\r\n        assembly {\r\n            if eq(success, 0) {\r\n                revert(add(returnData, 0x20), returndatasize)\r\n            }\r\n        }\r\n        return returnData;\r\n    }\r\n\r\n    /**\r\n     * @notice Delegates execution to an implementation contract\r\n     * @dev It returns to the external caller whatever the implementation returns or forwards reverts\r\n     *  There are an additional 2 prefix uints from the wrapper returndata, which we ignore since we make an extra hop.\r\n     * @param data The raw data to delegatecall\r\n     * @return The returned bytes from the delegatecall\r\n     */\r\n    function delegateToViewImplementation(bytes memory data) public view returns (bytes memory) {\r\n        (bool success, bytes memory returnData) = address(this).staticcall(abi.encodeWithSignature(\"delegateToImplementation(bytes)\", data));\r\n        assembly {\r\n            if eq(success, 0) {\r\n                revert(add(returnData, 0x20), returndatasize)\r\n            }\r\n        }\r\n        return abi.decode(returnData, (bytes));\r\n    }\r\n\r\n    function delegateToViewAndReturn() internal view returns (bytes memory) {\r\n        (bool success, ) = address(this).staticcall(abi.encodeWithSignature(\"delegateToImplementation(bytes)\", msg.data));\r\n\r\n        assembly {\r\n            let free_mem_ptr := mload(0x40)\r\n            returndatacopy(free_mem_ptr, 0, returndatasize)\r\n\r\n            switch success\r\n            case 0 { revert(free_mem_ptr, returndatasize) }\r\n            default { return(add(free_mem_ptr, 0x40), returndatasize) }\r\n        }\r\n    }\r\n\r\n    function delegateAndReturn() internal returns (bytes memory) {\r\n        (bool success, ) = implementation.delegatecall(msg.data);\r\n\r\n        assembly {\r\n            let free_mem_ptr := mload(0x40)\r\n            returndatacopy(free_mem_ptr, 0, returndatasize)\r\n\r\n            switch success\r\n            case 0 { revert(free_mem_ptr, returndatasize) }\r\n            default { return(free_mem_ptr, returndatasize) }\r\n        }\r\n    }\r\n}\r\n",
  "sourcePath": "C:\\work\\solidity\\finnexusOptions_V2.1\\contracts\\Proxy\\baseProxy.sol",
  "compiler": {
    "name": "solc",
    "version": "0.5.16+commit.9c3226ce.Emscripten.clang"
  },
  "schemaVersion": "3.1.0",
  "updatedAt": "2020-10-24T10:45:23.369Z",
  "devdoc": {
    "methods": {
      "delegateToImplementation(bytes)": {
        "details": "It returns to the external caller whatever the implementation returns or forwards reverts",
        "params": {
          "data": "The raw data to delegatecall"
        },
        "return": "The returned bytes from the delegatecall"
      },
      "delegateToViewImplementation(bytes)": {
        "details": "It returns to the external caller whatever the implementation returns or forwards reverts There are an additional 2 prefix uints from the wrapper returndata, which we ignore since we make an extra hop.",
        "params": {
          "data": "The raw data to delegatecall"
        },
        "return": "The returned bytes from the delegatecall"
      },
      "isOwner()": {
        "details": "Returns true if the caller is the current owner."
      },
      "owner()": {
        "details": "Returns the address of the current owner."
      },
      "renounceOwnership()": {
        "details": "Leaves the contract without owner. It will not be possible to call `onlyOwner` functions anymore. Can only be called by the current owner.      * NOTE: Renouncing ownership will leave the contract without an owner, thereby removing any functionality that is only available to the owner."
      },
      "transferOwnership(address)": {
        "details": "Transfers ownership of the contract to a new account (`newOwner`). Can only be called by the current owner."
      }
    },
    "title": "baseProxy Contract"
  },
  "userdoc": {
    "methods": {
      "delegateToImplementation(bytes)": {
        "notice": "Delegates execution to the implementation contract"
      },
      "delegateToViewImplementation(bytes)": {
        "notice": "Delegates execution to an implementation contract"
      }
    }
  }
}