{
  "contractName": "CollateralProxy",
  "abi": [
    {
      "inputs": [
        {
          "internalType": "address",
          "name": "implementation_",
          "type": "address"
        },
        {
          "internalType": "address",
          "name": "optionsPool",
          "type": "address"
        }
      ],
      "payable": false,
      "stateMutability": "nonpayable",
      "type": "constructor"
    },
    {
      "anonymous": false,
      "inputs": [
        {
          "indexed": false,
          "internalType": "uint256",
          "name": "payback",
          "type": "uint256"
        }
      ],
      "name": "AddFee",
      "type": "event"
    },
    {
      "anonymous": false,
      "inputs": [
        {
          "indexed": true,
          "internalType": "address",
          "name": "previousOwner",
          "type": "address"
        },
        {
          "indexed": true,
          "internalType": "address",
          "name": "newOwner",
          "type": "address"
        }
      ],
      "name": "OwnershipTransferred",
      "type": "event"
    },
    {
      "anonymous": false,
      "inputs": [
        {
          "indexed": true,
          "internalType": "address",
          "name": "recieptor",
          "type": "address"
        },
        {
          "indexed": false,
          "internalType": "uint256",
          "name": "payback",
          "type": "uint256"
        }
      ],
      "name": "RedeemFee",
      "type": "event"
    },
    {
      "anonymous": false,
      "inputs": [
        {
          "indexed": true,
          "internalType": "address",
          "name": "recieptor",
          "type": "address"
        },
        {
          "indexed": false,
          "internalType": "uint256",
          "name": "payback",
          "type": "uint256"
        }
      ],
      "name": "TransferPayback",
      "type": "event"
    },
    {
      "payable": true,
      "stateMutability": "payable",
      "type": "fallback"
    },
    {
      "constant": false,
      "inputs": [
        {
          "internalType": "address",
          "name": "addAddress",
          "type": "address"
        }
      ],
      "name": "addOperator",
      "outputs": [],
      "payable": false,
      "stateMutability": "nonpayable",
      "type": "function"
    },
    {
      "constant": false,
      "inputs": [
        {
          "internalType": "bytes",
          "name": "data",
          "type": "bytes"
        }
      ],
      "name": "delegateToImplementation",
      "outputs": [
        {
          "internalType": "bytes",
          "name": "",
          "type": "bytes"
        }
      ],
      "payable": false,
      "stateMutability": "nonpayable",
      "type": "function"
    },
    {
      "constant": true,
      "inputs": [
        {
          "internalType": "bytes",
          "name": "data",
          "type": "bytes"
        }
      ],
      "name": "delegateToViewImplementation",
      "outputs": [
        {
          "internalType": "bytes",
          "name": "",
          "type": "bytes"
        }
      ],
      "payable": false,
      "stateMutability": "view",
      "type": "function"
    },
    {
      "constant": true,
      "inputs": [],
      "name": "getImplementation",
      "outputs": [
        {
          "internalType": "address",
          "name": "",
          "type": "address"
        }
      ],
      "payable": false,
      "stateMutability": "view",
      "type": "function"
    },
    {
      "constant": true,
      "inputs": [],
      "name": "getManager",
      "outputs": [
        {
          "internalType": "address",
          "name": "",
          "type": "address"
        }
      ],
      "payable": false,
      "stateMutability": "view",
      "type": "function"
    },
    {
      "constant": true,
      "inputs": [],
      "name": "getOperator",
      "outputs": [
        {
          "internalType": "address[]",
          "name": "",
          "type": "address[]"
        }
      ],
      "payable": false,
      "stateMutability": "view",
      "type": "function"
    },
    {
      "constant": true,
      "inputs": [],
      "name": "getOptionsPoolAddress",
      "outputs": [
        {
          "internalType": "address",
          "name": "",
          "type": "address"
        }
      ],
      "payable": false,
      "stateMutability": "view",
      "type": "function"
    },
    {
      "constant": true,
      "inputs": [],
      "name": "implementation",
      "outputs": [
        {
          "internalType": "address",
          "name": "",
          "type": "address"
        }
      ],
      "payable": false,
      "stateMutability": "view",
      "type": "function"
    },
    {
      "constant": true,
      "inputs": [],
      "name": "isOwner",
      "outputs": [
        {
          "internalType": "bool",
          "name": "",
          "type": "bool"
        }
      ],
      "payable": false,
      "stateMutability": "view",
      "type": "function"
    },
    {
      "constant": true,
      "inputs": [],
      "name": "owner",
      "outputs": [
        {
          "internalType": "address",
          "name": "",
          "type": "address"
        }
      ],
      "payable": false,
      "stateMutability": "view",
      "type": "function"
    },
    {
      "constant": false,
      "inputs": [
        {
          "internalType": "address",
          "name": "removeAddress",
          "type": "address"
        }
      ],
      "name": "removeOperator",
      "outputs": [
        {
          "internalType": "bool",
          "name": "",
          "type": "bool"
        }
      ],
      "payable": false,
      "stateMutability": "nonpayable",
      "type": "function"
    },
    {
      "constant": false,
      "inputs": [],
      "name": "renounceOwnership",
      "outputs": [],
      "payable": false,
      "stateMutability": "nonpayable",
      "type": "function"
    },
    {
      "constant": false,
      "inputs": [
        {
          "internalType": "address",
          "name": "implementation_",
          "type": "address"
        }
      ],
      "name": "setImplementation",
      "outputs": [],
      "payable": false,
      "stateMutability": "nonpayable",
      "type": "function"
    },
    {
      "constant": false,
      "inputs": [
        {
          "internalType": "address",
          "name": "managerAddress",
          "type": "address"
        }
      ],
      "name": "setManager",
      "outputs": [],
      "payable": false,
      "stateMutability": "nonpayable",
      "type": "function"
    },
    {
      "constant": false,
      "inputs": [
        {
          "internalType": "uint256",
          "name": "index",
          "type": "uint256"
        },
        {
          "internalType": "address",
          "name": "addAddress",
          "type": "address"
        }
      ],
      "name": "setOperator",
      "outputs": [],
      "payable": false,
      "stateMutability": "nonpayable",
      "type": "function"
    },
    {
      "constant": false,
      "inputs": [
        {
          "internalType": "address[]",
          "name": "operators",
          "type": "address[]"
        }
      ],
      "name": "setOperators",
      "outputs": [],
      "payable": false,
      "stateMutability": "nonpayable",
      "type": "function"
    },
    {
      "constant": false,
      "inputs": [
        {
          "internalType": "address",
          "name": "optionsPool",
          "type": "address"
        }
      ],
      "name": "setOptionsPoolAddress",
      "outputs": [],
      "payable": false,
      "stateMutability": "nonpayable",
      "type": "function"
    },
    {
      "constant": false,
      "inputs": [
        {
          "internalType": "address",
          "name": "newOwner",
          "type": "address"
        }
      ],
      "name": "transferOwnership",
      "outputs": [],
      "payable": false,
      "stateMutability": "nonpayable",
      "type": "function"
    },
    {
      "constant": true,
      "inputs": [
        {
          "internalType": "uint256",
          "name": "",
          "type": "uint256"
        }
      ],
      "name": "getFeeRate",
      "outputs": [
        {
          "internalType": "uint256",
          "name": "",
          "type": "uint256"
        },
        {
          "internalType": "uint256",
          "name": "",
          "type": "uint256"
        }
      ],
      "payable": false,
      "stateMutability": "view",
      "type": "function"
    },
    {
      "constant": false,
      "inputs": [
        {
          "internalType": "uint256",
          "name": "",
          "type": "uint256"
        },
        {
          "internalType": "uint256",
          "name": "",
          "type": "uint256"
        },
        {
          "internalType": "uint256",
          "name": "",
          "type": "uint256"
        }
      ],
      "name": "setTransactionFee",
      "outputs": [],
      "payable": false,
      "stateMutability": "nonpayable",
      "type": "function"
    },
    {
      "constant": true,
      "inputs": [
        {
          "internalType": "address",
          "name": "",
          "type": "address"
        }
      ],
      "name": "getFeeBalance",
      "outputs": [
        {
          "internalType": "uint256",
          "name": "",
          "type": "uint256"
        }
      ],
      "payable": false,
      "stateMutability": "view",
      "type": "function"
    },
    {
      "constant": true,
      "inputs": [],
      "name": "getAllFeeBalances",
      "outputs": [
        {
          "internalType": "address[]",
          "name": "",
          "type": "address[]"
        },
        {
          "internalType": "uint256[]",
          "name": "",
          "type": "uint256[]"
        }
      ],
      "payable": false,
      "stateMutability": "view",
      "type": "function"
    },
    {
      "constant": false,
      "inputs": [
        {
          "internalType": "address",
          "name": "",
          "type": "address"
        }
      ],
      "name": "redeem",
      "outputs": [],
      "payable": false,
      "stateMutability": "nonpayable",
      "type": "function"
    },
    {
      "constant": false,
      "inputs": [],
      "name": "redeemAll",
      "outputs": [],
      "payable": false,
      "stateMutability": "nonpayable",
      "type": "function"
    },
    {
      "constant": true,
      "inputs": [
        {
          "internalType": "uint256",
          "name": "",
          "type": "uint256"
        },
        {
          "internalType": "uint256",
          "name": "",
          "type": "uint256"
        }
      ],
      "name": "calculateFee",
      "outputs": [
        {
          "internalType": "uint256",
          "name": "",
          "type": "uint256"
        }
      ],
      "payable": false,
      "stateMutability": "view",
      "type": "function"
    },
    {
      "constant": false,
      "inputs": [
        {
          "internalType": "uint256",
          "name": "",
          "type": "uint256"
        },
        {
          "internalType": "uint256",
          "name": "",
          "type": "uint256"
        }
      ],
      "name": "addTransactionFee",
      "outputs": [
        {
          "internalType": "uint256",
          "name": "",
          "type": "uint256"
        }
      ],
      "payable": false,
      "stateMutability": "nonpayable",
      "type": "function"
    },
    {
      "constant": true,
      "inputs": [
        {
          "internalType": "address",
          "name": "",
          "type": "address"
        }
      ],
      "name": "getUserPayingUsd",
      "outputs": [
        {
          "internalType": "uint256",
          "name": "",
          "type": "uint256"
        }
      ],
      "payable": false,
      "stateMutability": "view",
      "type": "function"
    },
    {
      "constant": true,
      "inputs": [
        {
          "internalType": "address",
          "name": "",
          "type": "address"
        },
        {
          "internalType": "address",
          "name": "",
          "type": "address"
        }
      ],
      "name": "getUserInputCollateral",
      "outputs": [
        {
          "internalType": "uint256",
          "name": "",
          "type": "uint256"
        }
      ],
      "payable": false,
      "stateMutability": "view",
      "type": "function"
    },
    {
      "constant": true,
      "inputs": [
        {
          "internalType": "address",
          "name": "",
          "type": "address"
        }
      ],
      "name": "getCollateralBalance",
      "outputs": [
        {
          "internalType": "uint256",
          "name": "",
          "type": "uint256"
        }
      ],
      "payable": false,
      "stateMutability": "view",
      "type": "function"
    },
    {
      "constant": false,
      "inputs": [
        {
          "internalType": "address",
          "name": "",
          "type": "address"
        },
        {
          "internalType": "uint256",
          "name": "",
          "type": "uint256"
        }
      ],
      "name": "addUserPayingUsd",
      "outputs": [],
      "payable": false,
      "stateMutability": "nonpayable",
      "type": "function"
    },
    {
      "constant": false,
      "inputs": [
        {
          "internalType": "address",
          "name": "",
          "type": "address"
        },
        {
          "internalType": "uint256",
          "name": "",
          "type": "uint256"
        }
      ],
      "name": "addUserInputCollateral",
      "outputs": [],
      "payable": false,
      "stateMutability": "nonpayable",
      "type": "function"
    },
    {
      "constant": false,
      "inputs": [
        {
          "internalType": "int256",
          "name": "",
          "type": "int256"
        }
      ],
      "name": "addNetWorthBalance",
      "outputs": [],
      "payable": false,
      "stateMutability": "nonpayable",
      "type": "function"
    },
    {
      "constant": false,
      "inputs": [
        {
          "internalType": "uint256",
          "name": "",
          "type": "uint256"
        }
      ],
      "name": "addCollateralBalance",
      "outputs": [],
      "payable": false,
      "stateMutability": "nonpayable",
      "type": "function"
    },
    {
      "constant": false,
      "inputs": [
        {
          "internalType": "address",
          "name": "",
          "type": "address"
        },
        {
          "internalType": "uint256",
          "name": "",
          "type": "uint256"
        }
      ],
      "name": "subUserPayingUsd",
      "outputs": [],
      "payable": false,
      "stateMutability": "nonpayable",
      "type": "function"
    },
    {
      "constant": false,
      "inputs": [
        {
          "internalType": "address",
          "name": "",
          "type": "address"
        },
        {
          "internalType": "uint256",
          "name": "",
          "type": "uint256"
        }
      ],
      "name": "subUserInputCollateral",
      "outputs": [],
      "payable": false,
      "stateMutability": "nonpayable",
      "type": "function"
    },
    {
      "constant": false,
      "inputs": [
        {
          "internalType": "int256",
          "name": "",
          "type": "int256"
        }
      ],
      "name": "subNetWorthBalance",
      "outputs": [],
      "payable": false,
      "stateMutability": "nonpayable",
      "type": "function"
    },
    {
      "constant": false,
      "inputs": [
        {
          "internalType": "uint256",
          "name": "",
          "type": "uint256"
        }
      ],
      "name": "subCollateralBalance",
      "outputs": [],
      "payable": false,
      "stateMutability": "nonpayable",
      "type": "function"
    },
    {
      "constant": false,
      "inputs": [
        {
          "internalType": "address",
          "name": "",
          "type": "address"
        },
        {
          "internalType": "uint256",
          "name": "",
          "type": "uint256"
        }
      ],
      "name": "setUserPayingUsd",
      "outputs": [],
      "payable": false,
      "stateMutability": "nonpayable",
      "type": "function"
    },
    {
      "constant": false,
      "inputs": [
        {
          "internalType": "address",
          "name": "",
          "type": "address"
        },
        {
          "internalType": "uint256",
          "name": "",
          "type": "uint256"
        }
      ],
      "name": "setUserInputCollateral",
      "outputs": [],
      "payable": false,
      "stateMutability": "nonpayable",
      "type": "function"
    },
    {
      "constant": false,
      "inputs": [
        {
          "internalType": "int256",
          "name": "",
          "type": "int256"
        }
      ],
      "name": "setNetWorthBalance",
      "outputs": [],
      "payable": false,
      "stateMutability": "nonpayable",
      "type": "function"
    },
    {
      "constant": false,
      "inputs": [
        {
          "internalType": "uint256",
          "name": "",
          "type": "uint256"
        }
      ],
      "name": "setCollateralBalance",
      "outputs": [],
      "payable": false,
      "stateMutability": "nonpayable",
      "type": "function"
    },
    {
      "constant": false,
      "inputs": [
        {
          "internalType": "address payable",
          "name": "",
          "type": "address"
        },
        {
          "internalType": "uint256",
          "name": "",
          "type": "uint256"
        },
        {
          "internalType": "uint256",
          "name": "",
          "type": "uint256"
        }
      ],
      "name": "transferPaybackAndFee",
      "outputs": [],
      "payable": false,
      "stateMutability": "nonpayable",
      "type": "function"
    },
    {
      "constant": false,
      "inputs": [
        {
          "internalType": "address payable",
          "name": "",
          "type": "address"
        },
        {
          "internalType": "uint256",
          "name": "",
          "type": "uint256"
        }
      ],
      "name": "transferPayback",
      "outputs": [],
      "payable": false,
      "stateMutability": "nonpayable",
      "type": "function"
    },
    {
      "constant": true,
      "inputs": [],
      "name": "getRealBalance",
      "outputs": [
        {
          "internalType": "int256",
          "name": "",
          "type": "int256"
        }
      ],
      "payable": false,
      "stateMutability": "view",
      "type": "function"
    },
    {
      "constant": true,
      "inputs": [],
      "name": "getNetWorthBalance",
      "outputs": [
        {
          "internalType": "uint256",
          "name": "",
          "type": "uint256"
        }
      ],
      "payable": false,
      "stateMutability": "view",
      "type": "function"
    },
    {
      "constant": false,
      "inputs": [
        {
          "internalType": "address",
          "name": "",
          "type": "address"
        },
        {
          "internalType": "uint256",
          "name": "",
          "type": "uint256"
        }
      ],
      "name": "addNetBalance",
      "outputs": [],
      "payable": true,
      "stateMutability": "payable",
      "type": "function"
    },
    {
      "constant": false,
      "inputs": [
        {
          "internalType": "address[]",
          "name": "",
          "type": "address[]"
        }
      ],
      "name": "calSharedPayment",
      "outputs": [],
      "payable": false,
      "stateMutability": "nonpayable",
      "type": "function"
    },
    {
      "constant": false,
      "inputs": [
        {
          "internalType": "address[]",
          "name": "",
          "type": "address[]"
        },
        {
          "internalType": "int256[]",
          "name": "",
          "type": "int256[]"
        },
        {
          "internalType": "int256[]",
          "name": "",
          "type": "int256[]"
        },
        {
          "internalType": "uint256",
          "name": "",
          "type": "uint256"
        }
      ],
      "name": "setSharedPayment",
      "outputs": [],
      "payable": false,
      "stateMutability": "nonpayable",
      "type": "function"
    }
  ],
  "bytecode": "0x608060405234801561001057600080fd5b50604051611e43380380611e438339818101604052604081101561003357600080fd5b50805160209091015160008054600160a060020a03191633178082556040518492600160a060020a039290921691907f8be0079c531659141344cd1fd0a4f28419497f9722a3daafe3b4186f6b6457e0908290a3600b8054600160a060020a038316600160a060020a031990911681179091556040805160048152602481018252602081018051600160e060020a03167f8129fc1c00000000000000000000000000000000000000000000000000000000178152915181516000949382918083835b602083106101145780518252601f1990920191602091820191016100f5565b6001836020036101000a038019825116818451168082178552505050505050905001915050600060405180830381855af49150503d8060008114610174576040519150601f19603f3d011682016040523d82523d6000602084013e610179565b606091505b505090508061018757600080fd5b505060038054600160a060020a031916600160a060020a039290921691909117905550611c8a806101b96000396000f3fe6080604052600436106102b0576000357c01000000000000000000000000000000000000000000000000000000009004806395a2251f11610177578063cdefb7ae116100de578063ddf71cd511610097578063ddf71cd514610b73578063e7a1c1c014610c23578063e7f43c6814610c5c578063f20568cd14610cc1578063f2fde38b14610d6f578063f97cf55514610426576102b0565b8063cdefb7ae146108fb578063d0ebdbe714610ab5578063d2aaef4e14610ae8578063d500958414610b2b578063d6c3c88614610426578063d784d42614610b40576102b0565b8063ac8a584a11610130578063ac8a584a146107cd578063b89b4c3214610800578063bf36b110146108b0578063c040725a146108e6578063c78f6803146104bc578063cc4027fd14610426576102b0565b806395a2251f146107135780639864b1fe146104835780639870d7fe146107465780639f5fdc9f14610779578063aa68e11e14610483578063aaf10f42146107b8576102b0565b80635d052f181161021b578063715018a6116101d4578063715018a6146106aa57806374c43e57146104265780638691a8c5146106bf5780638da5cb5b146106d55780638f10ad94146106955780638f32d59b146106ea576102b0565b80635d052f181461048357806361cfbca1146104265780636560a9e714610483578063692a76a7146104835780636ba170b51461065a5780636f1d7b3314610695576102b0565b80632f4350c21161026d5780632f4350c21461053157806334e731221461054657806342049a72146104bc5780634487152f146105765780635af107c5146104835780635c60da1b14610629576102b0565b80630933c1ed146102fe5780630e92f2fb146104265780631a5a3fce1461045057806326dd86ee146104835780632703ee85146104bc57806329a4541a14610501575b600154600160a060020a031633146102fc5760405160e560020a62461bcd028152600401808060200182810382526026815260200180611bea6026913960400191505060405180910390fd5b005b34801561030a57600080fd5b506103b16004803603602081101561032157600080fd5b81019060208101813564010000000081111561033c57600080fd5b82018360208201111561034e57600080fd5b8035906020019184600183028401116401000000008311171561037057600080fd5b91908080601f016020809104026020016040519081016040528093929190818152602001838380828437600092019190915250929550610da2945050505050565b6040805160208082528351818301528351919283929083019185019080838360005b838110156103eb5781810151838201526020016103d3565b50505050905090810190601f1680156104185780820380516001836020036101000a031916815260200191505b509250505060405180910390f35b34801561043257600080fd5b506102fc6004803603602081101561044957600080fd5b5035610e6c565b34801561045c57600080fd5b506102fc6004803603602081101561047357600080fd5b5035600160a060020a0316610e78565b34801561048f57600080fd5b506102fc600480360360408110156104a657600080fd5b50600160a060020a038135169060200135610ee4565b3480156104c857600080fd5b506104ef600480360360208110156104df57600080fd5b5035600160a060020a0316610ef1565b60408051918252519081900360200190f35b34801561050d57600080fd5b506104ef6004803603604081101561052457600080fd5b5080359060200135610f01565b34801561053d57600080fd5b506102fc610f12565b34801561055257600080fd5b506104ef6004803603604081101561056957600080fd5b5080359060200135610f1d565b34801561058257600080fd5b506103b16004803603602081101561059957600080fd5b8101906020810181356401000000008111156105b457600080fd5b8201836020820111156105c657600080fd5b803590602001918460018302840111640100000000831117156105e857600080fd5b91908080601f016020809104026020016040519081016040528093929190818152602001838380828437600092019190915250929550610f27945050505050565b34801561063557600080fd5b5061063e611176565b60408051600160a060020a039092168252519081900360200190f35b34801561066657600080fd5b506104ef6004803603604081101561067d57600080fd5b50600160a060020a0381358116916020013516610f1d565b3480156106a157600080fd5b506104ef611185565b3480156106b657600080fd5b506102fc611193565b6102fc600480360360408110156104a657600080fd5b3480156106e157600080fd5b5061063e611227565b3480156106f657600080fd5b506106ff611237565b604080519115158252519081900360200190f35b34801561071f57600080fd5b506102fc6004803603602081101561073657600080fd5b5035600160a060020a0316610e6c565b34801561075257600080fd5b506102fc6004803603602081101561076957600080fd5b5035600160a060020a0316611248565b34801561078557600080fd5b506102fc6004803603606081101561079c57600080fd5b50600160a060020a0381351690602081013590604001356112a3565b3480156107c457600080fd5b5061063e6112b1565b3480156107d957600080fd5b506106ff600480360360208110156107f057600080fd5b5035600160a060020a03166112c0565b34801561080c57600080fd5b506102fc6004803603602081101561082357600080fd5b81019060208101813564010000000081111561083e57600080fd5b82018360208201111561085057600080fd5b8035906020019184602083028401116401000000008311171561087257600080fd5b919080806020026020016040519081016040528093929190818152602001838360200280828437600092019190915250929550610e6c945050505050565b3480156108bc57600080fd5b506102fc600480360360608110156108d357600080fd5b50803590602081013590604001356112a3565b3480156108f257600080fd5b5061063e611323565b34801561090757600080fd5b506102fc6004803603608081101561091e57600080fd5b81019060208101813564010000000081111561093957600080fd5b82018360208201111561094b57600080fd5b8035906020019184602083028401116401000000008311171561096d57600080fd5b91908080602002602001604051908101604052809392919081815260200183836020028082843760009201919091525092959493602081019350359150506401000000008111156109bd57600080fd5b8201836020820111156109cf57600080fd5b803590602001918460208302840111640100000000831117156109f157600080fd5b9190808060200260200160405190810160405280939291908181526020018383602002808284376000920191909152509295949360208101935035915050640100000000811115610a4157600080fd5b820183602082011115610a5357600080fd5b80359060200191846020830284011164010000000083111715610a7557600080fd5b9190808060200260200160405190810160405280939291908181526020018383602002808284376000920191909152509295505091359250611332915050565b348015610ac157600080fd5b506102fc60048036036020811015610ad857600080fd5b5035600160a060020a0316611341565b348015610af457600080fd5b50610b1260048036036020811015610b0b57600080fd5b50356113ad565b6040805192835260208301919091528051918290030190f35b348015610b3757600080fd5b5061063e6113be565b348015610b4c57600080fd5b506102fc60048036036020811015610b6357600080fd5b5035600160a060020a03166113cd565b348015610b7f57600080fd5b506102fc60048036036020811015610b9657600080fd5b810190602081018135640100000000811115610bb157600080fd5b820183602082011115610bc357600080fd5b80359060200191846020830284011164010000000083111715610be557600080fd5b91908080602002602001604051908101604052809392919081815260200183836020028082843760009201919091525092955061152c945050505050565b348015610c2f57600080fd5b506102fc60048036036040811015610c4657600080fd5b5080359060200135600160a060020a0316611589565b348015610c6857600080fd5b50610c71611613565b60408051602080825283518183015283519192839290830191858101910280838360005b83811015610cad578181015183820152602001610c95565b505050509050019250505060405180910390f35b348015610ccd57600080fd5b50610cd6611675565b604051808060200180602001838103835285818151815260200191508051906020019060200280838360005b83811015610d1a578181015183820152602001610d02565b50505050905001838103825284818151815260200191508051906020019060200280838360005b83811015610d59578181015183820152602001610d41565b5050505090500194505050505060405180910390f35b348015610d7b57600080fd5b506102fc60048036036020811015610d9257600080fd5b5035600160a060020a0316611685565b600b5460405182516060926000928492600160a060020a0390921691869190819060208401908083835b60208310610deb5780518252601f199092019160209182019101610dcc565b6001836020036101000a038019825116818451168082178552505050505050905001915050600060405180830381855af49150503d8060008114610e4b576040519150601f19603f3d011682016040523d82523d6000602084013e610e50565b606091505b50915091506000821415610e65573d60208201fd5b9392505050565b610e746116d8565b5050565b610e80611237565b610ec2576040805160e560020a62461bcd0281526020600482018190526024820152600080516020611c36833981519152604482015290519081900360640190fd5b60038054600160a060020a031916600160a060020a0392909216919091179055565b610eec6116d8565b505050565b6000610efb611760565b50919050565b6000610f0b6116d8565b5092915050565b610f1a6116d8565b50565b6000610f0b611760565b60606000606030600160a060020a0316846040516024018080602001828103825283818151815260200191508051906020019080838360005b83811015610f78578181015183820152602001610f60565b50505050905090810190601f168015610fa55780820380516001836020036101000a031916815260200191505b5060408051601f198184030181529181526020820180517bffffffffffffffffffffffffffffffffffffffffffffffffffffffff167f0933c1ed00000000000000000000000000000000000000000000000000000000178152905182519295509350839250908083835b6020831061102e5780518252601f19909201916020918201910161100f565b6001836020036101000a038019825116818451168082178552505050505050905001915050600060405180830381855afa9150503d806000811461108e576040519150601f19603f3d011682016040523d82523d6000602084013e611093565b606091505b509150915060008214156110a8573d60208201fd5b8080602001905160208110156110bd57600080fd5b81019080805160405193929190846401000000008211156110dd57600080fd5b9083019060208201858111156110f257600080fd5b825164010000000081118282018810171561110c57600080fd5b82525081516020918201929091019080838360005b83811015611139578181015183820152602001611121565b50505050905090810190601f1680156111665780820380516001836020036101000a031916815260200191505b5060405250505092505050919050565b600b54600160a060020a031681565b600061118f611760565b5090565b61119b611237565b6111dd576040805160e560020a62461bcd0281526020600482018190526024820152600080516020611c36833981519152604482015290519081900360640190fd5b60008054604051600160a060020a03909116907f8be0079c531659141344cd1fd0a4f28419497f9722a3daafe3b4186f6b6457e0908390a360008054600160a060020a0319169055565b600054600160a060020a03165b90565b600054600160a060020a0316331490565b611250611237565b611292576040805160e560020a62461bcd0281526020600482018190526024820152600080516020611c36833981519152604482015290519081900360640190fd5b610f1a60028263ffffffff6118ae16565b6112ab6116d8565b50505050565b600b54600160a060020a031690565b60006112ca611237565b61130c576040805160e560020a62461bcd0281526020600482018190526024820152600080516020611c36833981519152604482015290519081900360640190fd5b61131d60028363ffffffff61194616565b92915050565b600354600160a060020a031690565b61133a6116d8565b5050505050565b611349611237565b61138b576040805160e560020a62461bcd0281526020600482018190526024820152600080516020611c36833981519152604482015290519081900360640190fd5b60018054600160a060020a031916600160a060020a0392909216919091179055565b6000806113b8611760565b50915091565b600154600160a060020a031690565b6113d5611237565b611417576040805160e560020a62461bcd0281526020600482018190526024820152600080516020611c36833981519152604482015290519081900360640190fd5b600b8054600160a060020a038316600160a060020a0319909116811790915560408051600481526024810182526020810180517bffffffffffffffffffffffffffffffffffffffffffffffffffffffff167fa2e6204500000000000000000000000000000000000000000000000000000000178152915181516000949382918083835b602083106114b95780518252601f19909201916020918201910161149a565b6001836020036101000a038019825116818451168082178552505050505050905001915050600060405180830381855af49150503d8060008114611519576040519150601f19603f3d011682016040523d82523d6000602084013e61151e565b606091505b5050905080610e7457600080fd5b611534611237565b611576576040805160e560020a62461bcd0281526020600482018190526024820152600080516020611c36833981519152604482015290519081900360640190fd5b8051610e74906002906020840190611b26565b611591611237565b6115d3576040805160e560020a62461bcd0281526020600482018190526024820152600080516020611c36833981519152604482015290519081900360640190fd5b80600283815481106115e157fe5b9060005260206000200160006101000a815481600160a060020a030219169083600160a060020a031602179055505050565b6060600280548060200260200160405190810160405280929190818152602001828054801561166b57602002820191906000526020600020905b8154600160a060020a0316815260019091019060200180831161164d575b5050505050905090565b606080611680611760565b509091565b61168d611237565b6116cf576040805160e560020a62461bcd0281526020600482018190526024820152600080516020611c36833981519152604482015290519081900360640190fd5b610f1a81611a34565b600b54604051606091600091600160a060020a0390911690829036908083838082843760405192019450600093509091505080830381855af49150503d8060008114611740576040519150601f19603f3d011682016040523d82523d6000602084013e611745565b606091505b505090506040513d6000823e81801561175c573d82f35b3d82fd5b6060600030600160a060020a03166000366040516024018080602001828103825284848281815260200192508082843760008382015260408051601f909201601f1990811690940182810390940182529283526020810180517bffffffffffffffffffffffffffffffffffffffffffffffffffffffff167f0933c1ed0000000000000000000000000000000000000000000000000000000017815292518151919750955085945091925081905083835b6020831061182f5780518252601f199092019160209182019101611810565b6001836020036101000a038019825116818451168082178552505050505050905001915050600060405180830381855afa9150503d806000811461188f576040519150601f19603f3d011682016040523d82523d6000602084013e611894565b606091505b505090506040513d6000823e81801561175c573d60408301f35b6119118280548060200260200160405190810160405280929190818152602001828054801561190657602002820191906000526020600020905b8154600160a060020a031681526001909101906020018083116118e8575b505050505082611ad7565b610e74578154600181018355600083815260209020018054600160a060020a038316600160a060020a03199091161790555050565b8154600090815b818110156119935783600160a060020a031685828154811061196b57fe5b600091825260209091200154600160a060020a0316141561198b57611993565b60010161194d565b81811015611a2957600182038114611a0d578460018303815481106119b457fe5b9060005260206000200160009054906101000a9004600160a060020a03168582815481106119de57fe5b9060005260206000200160006101000a815481600160a060020a030219169083600160a060020a031602179055505b8454611a1d866000198301611b87565b5060019250505061131d565b506000949350505050565b600160a060020a038116611a7c5760405160e560020a62461bcd028152600401808060200182810382526026815260200180611c106026913960400191505060405180910390fd5b60008054604051600160a060020a03808516939216917f8be0079c531659141344cd1fd0a4f28419497f9722a3daafe3b4186f6b6457e091a360008054600160a060020a031916600160a060020a0392909216919091179055565b8151600090815b81811015611a295783600160a060020a0316858281518110611afc57fe5b6020026020010151600160a060020a03161415611b1e5760019250505061131d565b600101611ade565b828054828255906000526020600020908101928215611b7b579160200282015b82811115611b7b5782518254600160a060020a031916600160a060020a03909116178255602090920191600190910190611b46565b5061118f929150611bab565b815481835581811115610eec57600083815260209020610eec918101908301611bcf565b61123491905b8082111561118f578054600160a060020a0319168155600101611bb1565b61123491905b8082111561118f5760008155600101611bd556fe4d616e6167657261626c653a2063616c6c6572206973206e6f7420746865204d616e616765724f776e61626c653a206e6577206f776e657220697320746865207a65726f20616464726573734f776e61626c653a2063616c6c6572206973206e6f7420746865206f776e6572a265627a7a7231582055ef3c2c87bee98b4e5c08a5055afa96e1c76d174995ced3e4fe53e7456a6b7564736f6c63430005100032",
  "source": "pragma solidity =0.5.16;\r\nimport \"./CollateralData.sol\";\r\nimport \"../Proxy/baseProxy.sol\";\r\n/**\r\n * @title  Erc20Delegator Contract\r\n\r\n */\r\ncontract CollateralProxy is CollateralData,baseProxy{\r\n        /**\r\n     * @dev constructor function , setting contract address.\r\n     *  oracleAddr FNX oracle contract address\r\n     *  optionsPriceAddr options price contract address\r\n     *  ivAddress implied volatility contract address\r\n     */  \r\n\r\n    constructor(address implementation_,address optionsPool)\r\n         baseProxy(implementation_) public  {\r\n        _optionsPool = IOptionsPool(optionsPool);\r\n    }\r\n        /**\r\n     * @dev Transfer colleteral from manager contract to this contract.\r\n     *  Only manager contract can invoke this function.\r\n     */\r\n    function () external payable onlyManager{\r\n\r\n    }\r\n    function getFeeRate(uint256 /*feeType*/)public view returns (uint256,uint256){\r\n        delegateToViewAndReturn();\r\n    }\r\n    /**\r\n     * @dev set the rate of trasaction fee.\r\n     *  feeType the transaction fee type\r\n     *  numerator the numerator of transaction fee .\r\n     *  denominator thedenominator of transaction fee.\r\n     * transaction fee = numerator/denominator;\r\n     */   \r\n    function setTransactionFee(uint256 /*feeType*/,uint256 /*numerator*/,uint256 /*denominator*/)public{\r\n        delegateAndReturn();\r\n    }\r\n\r\n    function getFeeBalance(address /*settlement*/)public view returns(uint256){\r\n        delegateToViewAndReturn();\r\n    }\r\n    function getAllFeeBalances()public view returns(address[] memory,uint256[] memory){\r\n        delegateToViewAndReturn();\r\n    }\r\n    function redeem(address /*currency*/)public{\r\n        delegateAndReturn();\r\n    }\r\n    function redeemAll()public{\r\n        delegateAndReturn();\r\n    }\r\n    function calculateFee(uint256 /*feeType*/,uint256 /*amount*/)public view returns (uint256){\r\n        delegateToViewAndReturn();\r\n    }\r\n        /**\r\n     * @dev An interface for add transaction fee.\r\n     *  Only manager contract can invoke this function.\r\n     *  collateral collateral address, also is the coin for fee.\r\n     *  amount total transaction amount.\r\n     *  feeType transaction fee type. see TransactionFee contract\r\n     */\r\n    function addTransactionFee(uint256 /*amount*/,uint256 /*feeType*/)public returns (uint256) {\r\n        delegateAndReturn();\r\n    }\r\n    /**\r\n     * @dev Retrieve user's cost of collateral, priced in USD.\r\n     *  user input retrieved account \r\n     */\r\n    function getUserPayingUsd(address /*user*/)public view returns (uint256){\r\n        delegateToViewAndReturn();\r\n    }\r\n    /**\r\n     * @dev Retrieve user's amount of the specified collateral.\r\n     *  user input retrieved account \r\n     *  collateral input retrieved collateral coin address \r\n     */\r\n    function getUserInputCollateral(address /*user*/,address /*collateral*/)public view returns (uint256){\r\n        delegateToViewAndReturn();\r\n    }\r\n    /**\r\n     * @dev Retrieve collateral balance data.\r\n     *  collateral input retrieved collateral coin address \r\n     */\r\n    function getCollateralBalance(address /*collateral*/)public view returns (uint256){\r\n        delegateToViewAndReturn();\r\n    }\r\n    /**\r\n     * @dev Opterator user paying data, priced in USD. Only manager contract can modify database.\r\n     *  user input user account which need add paying amount.\r\n     *  amount the input paying amount.\r\n     */\r\n    function addUserPayingUsd(address /*user*/,uint256 /*amount*/)public{\r\n        delegateAndReturn();\r\n    }\r\n    /**\r\n     * @dev Opterator user input collateral data. Only manager contract can modify database.\r\n     *  user input user account which need add input collateral.\r\n     *  collateral the collateral address.\r\n     *  amount the input collateral amount.\r\n     */\r\n    function addUserInputCollateral(address /*user*/,uint256 /*amount*/)public{\r\n        delegateAndReturn();\r\n    }\r\n    /**\r\n     * @dev Opterator net worth balance data. Only manager contract can modify database.\r\n     *  collateral available colleteral address.\r\n     *  amount collateral net worth increase amount.\r\n     */\r\n    function addNetWorthBalance(int256 /*amount*/)public{\r\n        delegateAndReturn();\r\n    }\r\n    /**\r\n     * @dev Opterator collateral balance data. Only manager contract can modify database.\r\n     *  collateral available colleteral address.\r\n     *  amount collateral colleteral increase amount.\r\n     */\r\n    function addCollateralBalance(uint256 /*amount*/)public{\r\n        delegateAndReturn();\r\n    }\r\n    /**\r\n     * @dev Substract user paying data,priced in USD. Only manager contract can modify database.\r\n     *  user user's account.\r\n     *  amount user's decrease amount.\r\n     */\r\n    function subUserPayingUsd(address /*user*/,uint256 /*amount*/)public{\r\n        delegateAndReturn();\r\n    }\r\n    /**\r\n     * @dev Substract user's collateral balance. Only manager contract can modify database.\r\n     *  user user's account.\r\n     *  collateral collateral address.\r\n     *  amount user's decrease amount.\r\n     */\r\n    function subUserInputCollateral(address /*user*/,uint256 /*amount*/)public{\r\n        delegateAndReturn();\r\n    }\r\n    /**\r\n     * @dev Substract net worth balance. Only manager contract can modify database.\r\n     *  collateral collateral address.\r\n     *  amount the decrease amount.\r\n     */\r\n    function subNetWorthBalance(int256 /*amount*/)public{\r\n        delegateAndReturn();\r\n    }\r\n    /**\r\n     * @dev Substract collateral balance. Only manager contract can modify database.\r\n     *  collateral collateral address.\r\n     *  amount the decrease amount.\r\n     */\r\n    function subCollateralBalance(uint256 /*amount*/)public{\r\n        delegateAndReturn();\r\n    }\r\n    /**\r\n     * @dev set user paying data,priced in USD. Only manager contract can modify database.\r\n     *  user user's account.\r\n     *  amount user's new amount.\r\n     */\r\n    function setUserPayingUsd(address /*user*/,uint256 /*amount*/)public{\r\n        delegateAndReturn();\r\n    }\r\n    /**\r\n     * @dev set user's collateral balance. Only manager contract can modify database.\r\n     *  user user's account.\r\n     *  collateral collateral address.\r\n     *  amount user's new amount.\r\n     */\r\n    function setUserInputCollateral(address /*user*/,uint256 /*amount*/)public{\r\n        delegateAndReturn();\r\n    }\r\n    /**\r\n     * @dev set net worth balance. Only manager contract can modify database.\r\n     *  collateral collateral address.\r\n     *  amount the new amount.\r\n     */\r\n    function setNetWorthBalance(int256 /*amount*/)public{\r\n        delegateAndReturn();\r\n    }\r\n    /**\r\n     * @dev set collateral balance. Only manager contract can modify database.\r\n     *  collateral collateral address.\r\n     *  amount the new amount.\r\n     */\r\n    function setCollateralBalance(uint256 /*amount*/)public{\r\n        delegateAndReturn();\r\n    }\r\n    /**\r\n     * @dev Operation for transfer user's payback and deduct transaction fee. Only manager contract can invoke this function.\r\n     *  recieptor the recieptor account.\r\n     *  settlement the settlement coin address.\r\n     *  payback the payback amount\r\n     *  feeType the transaction fee type. see transactionFee contract\r\n     */\r\n    function transferPaybackAndFee(address payable /*recieptor*/,uint256 /*payback*/,\r\n            uint256 /*feeType*/)public{\r\n        delegateAndReturn();\r\n    }\r\n    /**\r\n     * @dev Operation for transfer user's payback. Only manager contract can invoke this function.\r\n     *  recieptor the recieptor account.\r\n     *  settlement the settlement coin address.\r\n     *  payback the payback amount\r\n     */\r\n    function transferPayback(address payable /*recieptor*/,uint256 /*payback*/)public{\r\n        delegateAndReturn();\r\n    }\r\n\r\n    function getRealBalance()public view returns(int256){\r\n        delegateToViewAndReturn();\r\n    }\r\n    function getNetWorthBalance()public view returns(uint256){\r\n        delegateToViewAndReturn();\r\n    }\r\n    /**\r\n     * @dev  The foundation operator want to add some coin to netbalance, which can increase the FPTCoin net worth.\r\n     *  settlement the settlement coin address which the foundation operator want to transfer in this contract address.\r\n     *  amount the amount of the settlement coin which the foundation operator want to transfer in this contract address.\r\n     */\r\n    function addNetBalance(address /*settlement*/,uint256 /*amount*/) public payable{\r\n        delegateAndReturn();\r\n    }\r\n    /**\r\n     * @dev Calculate the collateral pool shared worth.\r\n     * The foundation operator will invoke this function frequently\r\n     */\r\n    function calSharedPayment(address[] memory /*_whiteList*/) public{\r\n        delegateAndReturn();\r\n    }\r\n    /**\r\n     * @dev Set the calculation results of the collateral pool shared worth.\r\n     * The foundation operator will invoke this function frequently\r\n     *  newNetworth Current expired options' net worth \r\n     *  sharedBalances All unexpired options' shared balance distributed by time.\r\n     *  firstOption The new first unexpired option's index.\r\n     */\r\n    function setSharedPayment(address[] memory /*_whiteList*/,int256[] memory /*newNetworth*/,\r\n            int256[] memory /*sharedBalances*/,uint256 /*firstOption*/) public{\r\n        delegateAndReturn();\r\n    }\r\n\r\n}\r\n",
  "sourcePath": "C:\\work\\solidity\\finnexusOptions_V2.1\\contracts\\CollateralPool\\CollateralProxy.sol",
  "compiler": {
    "name": "solc",
    "version": "0.5.16+commit.9c3226ce.Emscripten.clang"
  },
  "schemaVersion": "3.1.0",
  "updatedAt": "2020-10-24T10:45:23.189Z",
  "devdoc": {
    "methods": {
      "addCollateralBalance(uint256)": {
        "details": "Opterator collateral balance data. Only manager contract can modify database. collateral available colleteral address. amount collateral colleteral increase amount."
      },
      "addNetBalance(address,uint256)": {
        "details": "The foundation operator want to add some coin to netbalance, which can increase the FPTCoin net worth. settlement the settlement coin address which the foundation operator want to transfer in this contract address. amount the amount of the settlement coin which the foundation operator want to transfer in this contract address."
      },
      "addNetWorthBalance(int256)": {
        "details": "Opterator net worth balance data. Only manager contract can modify database. collateral available colleteral address. amount collateral net worth increase amount."
      },
      "addOperator(address)": {
        "details": "add a new operator by owner.       "
      },
      "addTransactionFee(uint256,uint256)": {
        "details": "An interface for add transaction fee. Only manager contract can invoke this function. collateral collateral address, also is the coin for fee. amount total transaction amount. feeType transaction fee type. see TransactionFee contract"
      },
      "addUserInputCollateral(address,uint256)": {
        "details": "Opterator user input collateral data. Only manager contract can modify database. user input user account which need add input collateral. collateral the collateral address. amount the input collateral amount."
      },
      "addUserPayingUsd(address,uint256)": {
        "details": "Opterator user paying data, priced in USD. Only manager contract can modify database. user input user account which need add paying amount. amount the input paying amount."
      },
      "calSharedPayment(address[])": {
        "details": "Calculate the collateral pool shared worth. The foundation operator will invoke this function frequently"
      },
      "constructor": {
        "details": "constructor function , setting contract address. oracleAddr FNX oracle contract address optionsPriceAddr options price contract address ivAddress implied volatility contract address"
      },
      "delegateToImplementation(bytes)": {
        "details": "It returns to the external caller whatever the implementation returns or forwards reverts",
        "params": {
          "data": "The raw data to delegatecall"
        },
        "return": "The returned bytes from the delegatecall"
      },
      "delegateToViewImplementation(bytes)": {
        "details": "It returns to the external caller whatever the implementation returns or forwards reverts There are an additional 2 prefix uints from the wrapper returndata, which we ignore since we make an extra hop.",
        "params": {
          "data": "The raw data to delegatecall"
        },
        "return": "The returned bytes from the delegatecall"
      },
      "getCollateralBalance(address)": {
        "details": "Retrieve collateral balance data. collateral input retrieved collateral coin address "
      },
      "getManager()": {
        "details": "get manager address.       "
      },
      "getOperator()": {
        "details": "get all operators.       "
      },
      "getUserInputCollateral(address,address)": {
        "details": "Retrieve user's amount of the specified collateral. user input retrieved account  collateral input retrieved collateral coin address "
      },
      "getUserPayingUsd(address)": {
        "details": "Retrieve user's cost of collateral, priced in USD. user input retrieved account "
      },
      "isOwner()": {
        "details": "Returns true if the caller is the current owner."
      },
      "owner()": {
        "details": "Returns the address of the current owner."
      },
      "removeOperator(address)": {
        "details": "remove operator by owner.       "
      },
      "renounceOwnership()": {
        "details": "Leaves the contract without owner. It will not be possible to call `onlyOwner` functions anymore. Can only be called by the current owner.      * NOTE: Renouncing ownership will leave the contract without an owner, thereby removing any functionality that is only available to the owner."
      },
      "setCollateralBalance(uint256)": {
        "details": "set collateral balance. Only manager contract can modify database. collateral collateral address. amount the new amount."
      },
      "setManager(address)": {
        "details": "set manager by owner.       "
      },
      "setNetWorthBalance(int256)": {
        "details": "set net worth balance. Only manager contract can modify database. collateral collateral address. amount the new amount."
      },
      "setOperator(uint256,address)": {
        "details": "modify indexed operator by owner.       "
      },
      "setOperators(address[])": {
        "details": "set all operators by owner.       "
      },
      "setSharedPayment(address[],int256[],int256[],uint256)": {
        "details": "Set the calculation results of the collateral pool shared worth. The foundation operator will invoke this function frequently newNetworth Current expired options' net worth  sharedBalances All unexpired options' shared balance distributed by time. firstOption The new first unexpired option's index."
      },
      "setTransactionFee(uint256,uint256,uint256)": {
        "details": "set the rate of trasaction fee. feeType the transaction fee type numerator the numerator of transaction fee . denominator thedenominator of transaction fee. transaction fee = numerator/denominator;"
      },
      "setUserInputCollateral(address,uint256)": {
        "details": "set user's collateral balance. Only manager contract can modify database. user user's account. collateral collateral address. amount user's new amount."
      },
      "setUserPayingUsd(address,uint256)": {
        "details": "set user paying data,priced in USD. Only manager contract can modify database. user user's account. amount user's new amount."
      },
      "subCollateralBalance(uint256)": {
        "details": "Substract collateral balance. Only manager contract can modify database. collateral collateral address. amount the decrease amount."
      },
      "subNetWorthBalance(int256)": {
        "details": "Substract net worth balance. Only manager contract can modify database. collateral collateral address. amount the decrease amount."
      },
      "subUserInputCollateral(address,uint256)": {
        "details": "Substract user's collateral balance. Only manager contract can modify database. user user's account. collateral collateral address. amount user's decrease amount."
      },
      "subUserPayingUsd(address,uint256)": {
        "details": "Substract user paying data,priced in USD. Only manager contract can modify database. user user's account. amount user's decrease amount."
      },
      "transferOwnership(address)": {
        "details": "Transfers ownership of the contract to a new account (`newOwner`). Can only be called by the current owner."
      },
      "transferPayback(address,uint256)": {
        "details": "Operation for transfer user's payback. Only manager contract can invoke this function. recieptor the recieptor account. settlement the settlement coin address. payback the payback amount"
      },
      "transferPaybackAndFee(address,uint256,uint256)": {
        "details": "Operation for transfer user's payback and deduct transaction fee. Only manager contract can invoke this function. recieptor the recieptor account. settlement the settlement coin address. payback the payback amount feeType the transaction fee type. see transactionFee contract"
      }
    },
    "title": "Erc20Delegator Contract"
  },
  "userdoc": {
    "methods": {
      "delegateToImplementation(bytes)": {
        "notice": "Delegates execution to the implementation contract"
      },
      "delegateToViewImplementation(bytes)": {
        "notice": "Delegates execution to an implementation contract"
      }
    }
  }
}