{
  "contractName": "CollateralPool",
  "abi": [
    {
      "inputs": [
        {
          "internalType": "address",
          "name": "optionsPool",
          "type": "address"
        }
      ],
      "payable": false,
      "stateMutability": "nonpayable",
      "type": "constructor"
    },
    {
      "anonymous": false,
      "inputs": [
        {
          "indexed": false,
          "internalType": "uint256",
          "name": "payback",
          "type": "uint256"
        }
      ],
      "name": "AddFee",
      "type": "event"
    },
    {
      "anonymous": false,
      "inputs": [
        {
          "indexed": true,
          "internalType": "address",
          "name": "previousOwner",
          "type": "address"
        },
        {
          "indexed": true,
          "internalType": "address",
          "name": "newOwner",
          "type": "address"
        }
      ],
      "name": "OwnershipTransferred",
      "type": "event"
    },
    {
      "anonymous": false,
      "inputs": [
        {
          "indexed": true,
          "internalType": "address",
          "name": "recieptor",
          "type": "address"
        },
        {
          "indexed": false,
          "internalType": "uint256",
          "name": "payback",
          "type": "uint256"
        }
      ],
      "name": "RedeemFee",
      "type": "event"
    },
    {
      "anonymous": false,
      "inputs": [
        {
          "indexed": true,
          "internalType": "address",
          "name": "recieptor",
          "type": "address"
        },
        {
          "indexed": false,
          "internalType": "uint256",
          "name": "payback",
          "type": "uint256"
        }
      ],
      "name": "TransferPayback",
      "type": "event"
    },
    {
      "payable": true,
      "stateMutability": "payable",
      "type": "fallback"
    },
    {
      "constant": false,
      "inputs": [
        {
          "internalType": "address",
          "name": "addAddress",
          "type": "address"
        }
      ],
      "name": "addOperator",
      "outputs": [],
      "payable": false,
      "stateMutability": "nonpayable",
      "type": "function"
    },
    {
      "constant": true,
      "inputs": [],
      "name": "getFeeBalance",
      "outputs": [
        {
          "internalType": "uint256",
          "name": "",
          "type": "uint256"
        }
      ],
      "payable": false,
      "stateMutability": "view",
      "type": "function"
    },
    {
      "constant": true,
      "inputs": [
        {
          "internalType": "uint256",
          "name": "feeType",
          "type": "uint256"
        }
      ],
      "name": "getFeeRate",
      "outputs": [
        {
          "internalType": "uint32",
          "name": "",
          "type": "uint32"
        }
      ],
      "payable": false,
      "stateMutability": "view",
      "type": "function"
    },
    {
      "constant": true,
      "inputs": [],
      "name": "getManager",
      "outputs": [
        {
          "internalType": "address",
          "name": "",
          "type": "address"
        }
      ],
      "payable": false,
      "stateMutability": "view",
      "type": "function"
    },
    {
      "constant": true,
      "inputs": [],
      "name": "getOperator",
      "outputs": [
        {
          "internalType": "address[]",
          "name": "",
          "type": "address[]"
        }
      ],
      "payable": false,
      "stateMutability": "view",
      "type": "function"
    },
    {
      "constant": true,
      "inputs": [],
      "name": "getOptionsPoolAddress",
      "outputs": [
        {
          "internalType": "address",
          "name": "",
          "type": "address"
        }
      ],
      "payable": false,
      "stateMutability": "view",
      "type": "function"
    },
    {
      "constant": true,
      "inputs": [],
      "name": "isOwner",
      "outputs": [
        {
          "internalType": "bool",
          "name": "",
          "type": "bool"
        }
      ],
      "payable": false,
      "stateMutability": "view",
      "type": "function"
    },
    {
      "constant": true,
      "inputs": [],
      "name": "owner",
      "outputs": [
        {
          "internalType": "address",
          "name": "",
          "type": "address"
        }
      ],
      "payable": false,
      "stateMutability": "view",
      "type": "function"
    },
    {
      "constant": false,
      "inputs": [],
      "name": "redeem",
      "outputs": [],
      "payable": false,
      "stateMutability": "nonpayable",
      "type": "function"
    },
    {
      "constant": false,
      "inputs": [
        {
          "internalType": "address",
          "name": "removeAddress",
          "type": "address"
        }
      ],
      "name": "removeOperator",
      "outputs": [
        {
          "internalType": "bool",
          "name": "",
          "type": "bool"
        }
      ],
      "payable": false,
      "stateMutability": "nonpayable",
      "type": "function"
    },
    {
      "constant": false,
      "inputs": [],
      "name": "renounceOwnership",
      "outputs": [],
      "payable": false,
      "stateMutability": "nonpayable",
      "type": "function"
    },
    {
      "constant": false,
      "inputs": [
        {
          "internalType": "address",
          "name": "managerAddress",
          "type": "address"
        }
      ],
      "name": "setManager",
      "outputs": [],
      "payable": false,
      "stateMutability": "nonpayable",
      "type": "function"
    },
    {
      "constant": false,
      "inputs": [
        {
          "internalType": "uint256",
          "name": "index",
          "type": "uint256"
        },
        {
          "internalType": "address",
          "name": "addAddress",
          "type": "address"
        }
      ],
      "name": "setOperator",
      "outputs": [],
      "payable": false,
      "stateMutability": "nonpayable",
      "type": "function"
    },
    {
      "constant": false,
      "inputs": [
        {
          "internalType": "address[]",
          "name": "operators",
          "type": "address[]"
        }
      ],
      "name": "setOperators",
      "outputs": [],
      "payable": false,
      "stateMutability": "nonpayable",
      "type": "function"
    },
    {
      "constant": false,
      "inputs": [
        {
          "internalType": "address",
          "name": "optionsPool",
          "type": "address"
        }
      ],
      "name": "setOptionsPoolAddress",
      "outputs": [],
      "payable": false,
      "stateMutability": "nonpayable",
      "type": "function"
    },
    {
      "constant": false,
      "inputs": [
        {
          "internalType": "uint256",
          "name": "feeType",
          "type": "uint256"
        },
        {
          "internalType": "uint32",
          "name": "thousandth",
          "type": "uint32"
        }
      ],
      "name": "setTransactionFee",
      "outputs": [],
      "payable": false,
      "stateMutability": "nonpayable",
      "type": "function"
    },
    {
      "constant": false,
      "inputs": [
        {
          "internalType": "address",
          "name": "newOwner",
          "type": "address"
        }
      ],
      "name": "transferOwnership",
      "outputs": [],
      "payable": false,
      "stateMutability": "nonpayable",
      "type": "function"
    },
    {
      "constant": false,
      "inputs": [],
      "name": "initialize",
      "outputs": [],
      "payable": false,
      "stateMutability": "nonpayable",
      "type": "function"
    },
    {
      "constant": false,
      "inputs": [],
      "name": "update",
      "outputs": [],
      "payable": false,
      "stateMutability": "nonpayable",
      "type": "function"
    },
    {
      "constant": false,
      "inputs": [
        {
          "internalType": "uint256",
          "name": "amount",
          "type": "uint256"
        },
        {
          "internalType": "uint256",
          "name": "feeType",
          "type": "uint256"
        }
      ],
      "name": "addTransactionFee",
      "outputs": [
        {
          "internalType": "uint256",
          "name": "",
          "type": "uint256"
        }
      ],
      "payable": false,
      "stateMutability": "nonpayable",
      "type": "function"
    },
    {
      "constant": true,
      "inputs": [
        {
          "internalType": "address",
          "name": "user",
          "type": "address"
        }
      ],
      "name": "getUserPayingUsd",
      "outputs": [
        {
          "internalType": "uint256",
          "name": "",
          "type": "uint256"
        }
      ],
      "payable": false,
      "stateMutability": "view",
      "type": "function"
    },
    {
      "constant": true,
      "inputs": [
        {
          "internalType": "address",
          "name": "user",
          "type": "address"
        }
      ],
      "name": "getUserInputCollateral",
      "outputs": [
        {
          "internalType": "uint256",
          "name": "",
          "type": "uint256"
        }
      ],
      "payable": false,
      "stateMutability": "view",
      "type": "function"
    },
    {
      "constant": true,
      "inputs": [],
      "name": "getCollateralBalance",
      "outputs": [
        {
          "internalType": "uint256",
          "name": "",
          "type": "uint256"
        }
      ],
      "payable": false,
      "stateMutability": "view",
      "type": "function"
    },
    {
      "constant": false,
      "inputs": [
        {
          "internalType": "address",
          "name": "user",
          "type": "address"
        },
        {
          "internalType": "uint256",
          "name": "amount",
          "type": "uint256"
        }
      ],
      "name": "addUserPayingUsd",
      "outputs": [],
      "payable": false,
      "stateMutability": "nonpayable",
      "type": "function"
    },
    {
      "constant": false,
      "inputs": [
        {
          "internalType": "address",
          "name": "user",
          "type": "address"
        },
        {
          "internalType": "uint256",
          "name": "amount",
          "type": "uint256"
        }
      ],
      "name": "addUserInputCollateral",
      "outputs": [],
      "payable": false,
      "stateMutability": "nonpayable",
      "type": "function"
    },
    {
      "constant": false,
      "inputs": [
        {
          "internalType": "int256",
          "name": "newworth",
          "type": "int256"
        }
      ],
      "name": "addNetWorthBalance",
      "outputs": [],
      "payable": false,
      "stateMutability": "nonpayable",
      "type": "function"
    },
    {
      "constant": false,
      "inputs": [
        {
          "internalType": "uint256",
          "name": "amount",
          "type": "uint256"
        }
      ],
      "name": "addCollateralBalance",
      "outputs": [],
      "payable": false,
      "stateMutability": "nonpayable",
      "type": "function"
    },
    {
      "constant": false,
      "inputs": [
        {
          "internalType": "address",
          "name": "user",
          "type": "address"
        },
        {
          "internalType": "uint256",
          "name": "amount",
          "type": "uint256"
        }
      ],
      "name": "subUserPayingUsd",
      "outputs": [],
      "payable": false,
      "stateMutability": "nonpayable",
      "type": "function"
    },
    {
      "constant": false,
      "inputs": [
        {
          "internalType": "address",
          "name": "user",
          "type": "address"
        },
        {
          "internalType": "uint256",
          "name": "amount",
          "type": "uint256"
        }
      ],
      "name": "subUserInputCollateral",
      "outputs": [],
      "payable": false,
      "stateMutability": "nonpayable",
      "type": "function"
    },
    {
      "constant": false,
      "inputs": [
        {
          "internalType": "int256",
          "name": "amount",
          "type": "int256"
        }
      ],
      "name": "subNetWorthBalance",
      "outputs": [],
      "payable": false,
      "stateMutability": "nonpayable",
      "type": "function"
    },
    {
      "constant": false,
      "inputs": [
        {
          "internalType": "uint256",
          "name": "amount",
          "type": "uint256"
        }
      ],
      "name": "subCollateralBalance",
      "outputs": [],
      "payable": false,
      "stateMutability": "nonpayable",
      "type": "function"
    },
    {
      "constant": false,
      "inputs": [
        {
          "internalType": "address",
          "name": "user",
          "type": "address"
        },
        {
          "internalType": "uint256",
          "name": "amount",
          "type": "uint256"
        }
      ],
      "name": "setUserPayingUsd",
      "outputs": [],
      "payable": false,
      "stateMutability": "nonpayable",
      "type": "function"
    },
    {
      "constant": false,
      "inputs": [
        {
          "internalType": "address",
          "name": "user",
          "type": "address"
        },
        {
          "internalType": "uint256",
          "name": "amount",
          "type": "uint256"
        }
      ],
      "name": "setUserInputCollateral",
      "outputs": [],
      "payable": false,
      "stateMutability": "nonpayable",
      "type": "function"
    },
    {
      "constant": false,
      "inputs": [
        {
          "internalType": "int256",
          "name": "amount",
          "type": "int256"
        }
      ],
      "name": "setNetWorthBalance",
      "outputs": [],
      "payable": false,
      "stateMutability": "nonpayable",
      "type": "function"
    },
    {
      "constant": false,
      "inputs": [
        {
          "internalType": "uint256",
          "name": "amount",
          "type": "uint256"
        }
      ],
      "name": "setCollateralBalance",
      "outputs": [],
      "payable": false,
      "stateMutability": "nonpayable",
      "type": "function"
    },
    {
      "constant": false,
      "inputs": [
        {
          "internalType": "address payable",
          "name": "recieptor",
          "type": "address"
        },
        {
          "internalType": "uint256",
          "name": "payback",
          "type": "uint256"
        },
        {
          "internalType": "uint256",
          "name": "feeType",
          "type": "uint256"
        }
      ],
      "name": "transferPaybackAndFee",
      "outputs": [],
      "payable": false,
      "stateMutability": "nonpayable",
      "type": "function"
    },
    {
      "constant": false,
      "inputs": [
        {
          "internalType": "address payable",
          "name": "recieptor",
          "type": "address"
        },
        {
          "internalType": "uint256",
          "name": "payback",
          "type": "uint256"
        }
      ],
      "name": "transferPayback",
      "outputs": [],
      "payable": false,
      "stateMutability": "nonpayable",
      "type": "function"
    },
    {
      "constant": true,
      "inputs": [],
      "name": "getRealBalance",
      "outputs": [
        {
          "internalType": "int256",
          "name": "",
          "type": "int256"
        }
      ],
      "payable": false,
      "stateMutability": "view",
      "type": "function"
    },
    {
      "constant": true,
      "inputs": [],
      "name": "getNetWorthBalance",
      "outputs": [
        {
          "internalType": "uint256",
          "name": "",
          "type": "uint256"
        }
      ],
      "payable": false,
      "stateMutability": "view",
      "type": "function"
    },
    {
      "constant": false,
      "inputs": [
        {
          "internalType": "uint256",
          "name": "amount",
          "type": "uint256"
        }
      ],
      "name": "addNetBalance",
      "outputs": [],
      "payable": true,
      "stateMutability": "payable",
      "type": "function"
    },
    {
      "constant": false,
      "inputs": [],
      "name": "calSharedPayment",
      "outputs": [],
      "payable": false,
      "stateMutability": "nonpayable",
      "type": "function"
    },
    {
      "constant": false,
      "inputs": [
        {
          "internalType": "int256",
          "name": "newNetworth",
          "type": "int256"
        },
        {
          "internalType": "int256",
          "name": "sharedBalance",
          "type": "int256"
        },
        {
          "internalType": "uint256",
          "name": "firstOption",
          "type": "uint256"
        }
      ],
      "name": "setSharedPayment",
      "outputs": [],
      "payable": false,
      "stateMutability": "nonpayable",
      "type": "function"
    }
  ],
  "bytecode": "0x60806040523480156200001157600080fd5b5060405162002bb138038062002bb1833981810160405260208110156200003757600080fd5b505160008054600160a060020a0319163317808255604051600160a060020a039190911691907f8be0079c531659141344cd1fd0a4f28419497f9722a3daafe3b4186f6b6457e0908290a362000095640100000000620000bb810204565b60038054600160a060020a031916600160a060020a03929092169190911790556200029c565b620000ce64010000000062000143810204565b6200012957604080517f08c379a0000000000000000000000000000000000000000000000000000000008152602060048201819052602482015260008051602062002b91833981519152604482015290519081900360640190fd5b62000141640100000000620021206200015482021704565b565b600054600160a060020a0316331490565b6200016764010000000062000143810204565b620001c257604080517f08c379a0000000000000000000000000000000000000000000000000000000008152602060048201819052602482015260008051602062002b91833981519152604482015290519081900360640190fd5b6006805460018181018355600083905260088083047ff652222313e28459528d920b65115c16c04f3efc82aaedc97be59f3f377c0d3f908101805463ffffffff60046007978816810261010090810a83021990931690935587548087018955858104850180549189168502840a603281029084021990921691909117905587548087018955858104850180549189168502840a830219909116905587548087018955858104850180549189168502840a8302199091169055875495860190975592840490910180549390941602900a909202199091169055565b6128e580620002ac6000396000f3fe6080604052600436106102555760003560e060020a900480639870d7fe1161013d578063d0c9550e116100ba578063d6c3c8861161007e578063d6c3c8861461089a578063ddf71cd5146108c4578063e7a1c1c014610974578063e7f43c68146109ad578063f2fde38b14610a12578063f97cf55514610a4557610255565b8063d0c9550e146107dd578063d0ebdbe7146107fa578063d2aaef4e1461082d578063d4c30ceb14610870578063d50095841461088557610255565b8063baf7b17911610101578063baf7b1791461073e578063bc2c300214610774578063be040fb014610789578063c040725a1461079e578063cc4027fd146107b357610255565b80639870d7fe1461064b5780639f5fdc9f1461067e578063a2e62045146106bd578063aa68e11e146106d2578063ac8a584a1461070b57610255565b806361cfbca1116101d657806374c43e571161019a57806374c43e57146105645780638129fc1c1461058e5780638da5cb5b146105a35780638f10ad94146105d45780638f32d59b146105e95780639864b1fe1461061257610255565b806361cfbca11461049e5780636560a9e7146104c8578063692a76a7146105015780636f1d7b331461053a578063715018a61461054f57610255565b8063391b962a1161021d578063391b962a146103905780633b9c4e10146103c657806342049a72146103f95780635af107c51461042c5780635d052f181461046557610255565b80630e92f2fb146102a35780631529a639146102cd5780631a5a3fce146102f457806326dd86ee1461032757806329a4541a14610360575b600154600160a060020a031633146102a15760405160e560020a62461bcd0281526004018080602001828103825260268152602001806127f66026913960400191505060405180910390fd5b005b3480156102af57600080fd5b506102a1600480360360208110156102c657600080fd5b5035610a6f565b3480156102d957600080fd5b506102e2610ad4565b60408051918252519081900360200190f35b34801561030057600080fd5b506102a16004803603602081101561031757600080fd5b5035600160a060020a0316610adb565b34801561033357600080fd5b506102a16004803603604081101561034a57600080fd5b50600160a060020a038135169060200135610b47565b34801561036c57600080fd5b506102e26004803603604081101561038357600080fd5b5080359060200135610ba1565b34801561039c57600080fd5b506102a1600480360360408110156103b357600080fd5b508035906020013563ffffffff16610c39565b3480156103d257600080fd5b506102e2600480360360208110156103e957600080fd5b5035600160a060020a0316610cc8565b34801561040557600080fd5b506102e26004803603602081101561041c57600080fd5b5035600160a060020a0316610ce3565b34801561043857600080fd5b506102a16004803603604081101561044f57600080fd5b50600160a060020a038135169060200135610cfe565b34801561047157600080fd5b506102a16004803603604081101561048857600080fd5b50600160a060020a038135169060200135610d66565b3480156104aa57600080fd5b506102a1600480360360208110156104c157600080fd5b5035610dce565b3480156104d457600080fd5b506102a1600480360360408110156104eb57600080fd5b50600160a060020a038135169060200135610e1f565b34801561050d57600080fd5b506102a16004803603604081101561052457600080fd5b50600160a060020a038135169060200135610eb4565b34801561054657600080fd5b506102e2610f29565b34801561055b57600080fd5b506102a1610fc5565b34801561057057600080fd5b506102a16004803603602081101561058757600080fd5b5035611059565b34801561059a57600080fd5b506102a16110b8565b3480156105af57600080fd5b506105b861110c565b60408051600160a060020a039092168252519081900360200190f35b3480156105e057600080fd5b506102e261111b565b3480156105f557600080fd5b506105fe6111d1565b604080519115158252519081900360200190f35b34801561061e57600080fd5b506102a16004803603604081101561063557600080fd5b50600160a060020a0381351690602001356111e2565b34801561065757600080fd5b506102a16004803603602081101561066e57600080fd5b5035600160a060020a0316611277565b34801561068a57600080fd5b506102a1600480360360608110156106a157600080fd5b50600160a060020a0381351690602081013590604001356112d5565b3480156106c957600080fd5b506102a1611347565b3480156106de57600080fd5b506102a1600480360360408110156106f557600080fd5b50600160a060020a038135169060200135611391565b34801561071757600080fd5b506105fe6004803603602081101561072e57600080fd5b5035600160a060020a0316611406565b34801561074a57600080fd5b506102a16004803603606081101561076157600080fd5b5080359060208101359060400135611463565b34801561078057600080fd5b506102a1611572565b34801561079557600080fd5b506102a16118a1565b3480156107aa57600080fd5b506105b8611952565b3480156107bf57600080fd5b506102a1600480360360208110156107d657600080fd5b5035611961565b6102a1600480360360208110156107f357600080fd5b50356119c6565b34801561080657600080fd5b506102a16004803603602081101561081d57600080fd5b5035600160a060020a03166119e5565b34801561083957600080fd5b506108576004803603602081101561085057600080fd5b5035611a51565b6040805163ffffffff9092168252519081900360200190f35b34801561087c57600080fd5b506102e2611a8d565b34801561089157600080fd5b506105b8611a93565b3480156108a657600080fd5b506102a1600480360360208110156108bd57600080fd5b5035611aa2565b3480156108d057600080fd5b506102a1600480360360208110156108e757600080fd5b81019060208101813564010000000081111561090257600080fd5b82018360208201111561091457600080fd5b8035906020019184602083028401116401000000008311171561093657600080fd5b919080806020026020016040519081016040528093929190818152602001838360200280828437600092019190915250929550611af3945050505050565b34801561098057600080fd5b506102a16004803603604081101561099757600080fd5b5080359060200135600160a060020a0316611b50565b3480156109b957600080fd5b506109c2611bda565b60408051602080825283518183015283519192839290830191858101910280838360005b838110156109fe5781810151838201526020016109e6565b505050509050019250505060405180910390f35b348015610a1e57600080fd5b506102a160048036036020811015610a3557600080fd5b5035600160a060020a0316611c3c565b348015610a5157600080fd5b506102a160048036036020811015610a6857600080fd5b5035611c8f565b600154600160a060020a03163314610abb5760405160e560020a62461bcd0281526004018080602001828103825260268152602001806127f66026913960400191505060405180910390fd5b600754610ace908263ffffffff611cee16565b60075550565b6008545b90565b610ae36111d1565b610b25576040805160e560020a62461bcd0281526020600482018190526024820152600080516020612864833981519152604482015290519081900360640190fd5b60038054600160a060020a031916600160a060020a0392909216919091179055565b600154600160a060020a03163314610b935760405160e560020a62461bcd0281526004018080602001828103825260268152602001806127f66026913960400191505060405180910390fd5b610b9d8282611d39565b5050565b600154600090600160a060020a03163314610bf05760405160e560020a62461bcd0281526004018080602001828103825260268152602001806127f66026913960400191505060405180910390fd5b60008360068481548110610c0057fe5b6000918252602090912060088204015460079091166004026101000a900463ffffffff16029050610c3081611fc5565b90505b92915050565b610c416111d1565b610c83576040805160e560020a62461bcd0281526020600482018190526024820152600080516020612864833981519152604482015290519081900360640190fd5b8060068381548110610c9157fe5b90600052602060002090600891828204019190066004026101000a81548163ffffffff021916908363ffffffff1602179055505050565b600160a060020a03166000908152600a602052604090205490565b600160a060020a031660009081526009602052604090205490565b600154600160a060020a03163314610d4a5760405160e560020a62461bcd0281526004018080602001828103825260268152602001806127f66026913960400191505060405180910390fd5b600160a060020a03909116600090815260096020526040902055565b600154600160a060020a03163314610db25760405160e560020a62461bcd0281526004018080602001828103825260268152602001806127f66026913960400191505060405180910390fd5b600160a060020a039091166000908152600a6020526040902055565b600154600160a060020a03163314610e1a5760405160e560020a62461bcd0281526004018080602001828103825260268152602001806127f66026913960400191505060405180910390fd5b600855565b600154600160a060020a03163314610e6b5760405160e560020a62461bcd0281526004018080602001828103825260268152602001806127f66026913960400191505060405180910390fd5b600160a060020a038216600090815260096020526040902054610e94908263ffffffff61200916565b600160a060020a0390921660009081526009602052604090209190915550565b600154600160a060020a03163314610f005760405160e560020a62461bcd0281526004018080602001828103825260268152602001806127f66026913960400191505060405180910390fd5b600160a060020a038216600090815260096020526040902054610e94908263ffffffff61206416565b600080600360009054906101000a9004600160a060020a0316600160a060020a0316637b05fce16040518163ffffffff1660e060020a02815260040160206040518083038186803b158015610f7d57600080fd5b505afa158015610f91573d6000803e3d6000fd5b505050506040513d6020811015610fa757600080fd5b5051600754909150610fbf908263ffffffff6120bf16565b91505090565b610fcd6111d1565b61100f576040805160e560020a62461bcd0281526020600482018190526024820152600080516020612864833981519152604482015290519081900360640190fd5b60008054604051600160a060020a03909116907f8be0079c531659141344cd1fd0a4f28419497f9722a3daafe3b4186f6b6457e0908390a360008054600160a060020a0319169055565b600154600160a060020a031633146110a55760405160e560020a62461bcd0281526004018080602001828103825260268152602001806127f66026913960400191505060405180910390fd5b600754610ace908263ffffffff6120bf16565b6110c06111d1565b611102576040805160e560020a62461bcd0281526020600482018190526024820152600080516020612864833981519152604482015290519081900360640190fd5b61110a612120565b565b600054600160a060020a031690565b600080600360009054906101000a9004600160a060020a0316600160a060020a0316637b05fce16040518163ffffffff1660e060020a02815260040160206040518083038186803b15801561116f57600080fd5b505afa158015611183573d6000803e3d6000fd5b505050506040513d602081101561119957600080fd5b50516007549091506000906111b4908363ffffffff6120bf16565b905060008113156111c8579150610ad89050565b60009250505090565b600054600160a060020a0316331490565b600154600160a060020a0316331461122e5760405160e560020a62461bcd0281526004018080602001828103825260268152602001806127f66026913960400191505060405180910390fd5b600160a060020a0382166000908152600a6020526040902054611257908263ffffffff61200916565b600160a060020a039092166000908152600a602052604090209190915550565b61127f6111d1565b6112c1576040805160e560020a62461bcd0281526020600482018190526024820152600080516020612864833981519152604482015290519081900360640190fd5b6112d260028263ffffffff61224416565b50565b600154600160a060020a031633146113215760405160e560020a62461bcd0281526004018080602001828103825260268152602001806127f66026913960400191505060405180910390fd5b61132c8383836122dc565b60075461133f908363ffffffff611cee16565b600755505050565b61134f6111d1565b61110a576040805160e560020a62461bcd0281526020600482018190526024820152600080516020612864833981519152604482015290519081900360640190fd5b600154600160a060020a031633146113dd5760405160e560020a62461bcd0281526004018080602001828103825260268152602001806127f66026913960400191505060405180910390fd5b600160a060020a0382166000908152600a6020526040902054611257908263ffffffff61206416565b60006114106111d1565b611452576040805160e560020a62461bcd0281526020600482018190526024820152600080516020612864833981519152604482015290519081900360640190fd5b610c3360028363ffffffff61233716565b600254600090158015906114a0575033600160a060020a03166002828154811061148957fe5b600091825260209091200154600160a060020a0316145b6114de5760405160e560020a62461bcd02815260040180806020018281038252602d815260200180612884602d913960400191505060405180910390fd5b600354604080517f604ecf2200000000000000000000000000000000000000000000000000000000815260048101859052602481018690529051600160a060020a039092169163604ecf229160448082019260009290919082900301818387803b15801561154b57600080fd5b505af115801561155f573d6000803e3d6000fd5b5050505061156c846110a5565b50505050565b600254600090158015906115af575033600160a060020a03166002828154811061159857fe5b600091825260209091200154600160a060020a0316145b6115ed5760405160e560020a62461bcd02815260040180806020018281038252602d815260200180612884602d913960400191505060405180910390fd5b600354604080517fa67931cc00000000000000000000000000000000000000000000000000000000815281516000938493600160a060020a039091169263a67931cc9260048083019392829003018186803b15801561164b57600080fd5b505afa15801561165f573d6000803e3d6000fd5b505050506040513d604081101561167557600080fd5b508051602091820151600354604080517fbec3107f0000000000000000000000000000000000000000000000000000000081529051939650919450600093600160a060020a039091169263bec3107f926004808201939291829003018186803b1580156116e157600080fd5b505afa1580156116f5573d6000803e3d6000fd5b505050506040513d602081101561170b57600080fd5b5051600354604080517f71cee39e000000000000000000000000000000000000000000000000000000008152600481018490526024810187905260448101849052905192935060009283928392600160a060020a03909116916371cee39e91606480820192606092909190829003018186803b15801561178a57600080fd5b505afa15801561179e573d6000803e3d6000fd5b505050506040513d60608110156117b457600080fd5b50805160208083015160409384015160035485517f4457dee3000000000000000000000000000000000000000000000000000000008152600481018b905260248101839052604481018b905295519498509196509450600093600160a060020a0390911692634457dee392606480840193919291829003018186803b15801561183c57600080fd5b505afa158015611850573d6000803e3d6000fd5b505050506040513d602081101561186657600080fd5b5051905061188a8161187e858963ffffffff611cee16565b9063ffffffff6120bf16565b9050611897848284611463565b5050505050505050565b6118a96111d1565b6118eb576040805160e560020a62461bcd0281526020600482018190526024820152600080516020612864833981519152604482015290519081900360640190fd5b60055480611943576040805160e560020a62461bcd02815260206004820152601260248201527f4974277320656d7074792062616c616e63650000000000000000000000000000604482015290519081900360640190fd5b60006005556112d23382611d39565b600354600160a060020a031690565b600154600160a060020a031633146119ad5760405160e560020a62461bcd0281526004018080602001828103825260268152602001806127f66026913960400191505060405180910390fd5b6008546119c0908263ffffffff61200916565b60085550565b6119cf81612425565b600754909150610ace908263ffffffff6120bf16565b6119ed6111d1565b611a2f576040805160e560020a62461bcd0281526020600482018190526024820152600080516020612864833981519152604482015290519081900360640190fd5b60018054600160a060020a031916600160a060020a0392909216919091179055565b600060068281548110611a6057fe5b90600052602060002090600891828204019190066004029054906101000a900463ffffffff169050919050565b60055490565b600154600160a060020a031690565b600154600160a060020a03163314611aee5760405160e560020a62461bcd0281526004018080602001828103825260268152602001806127f66026913960400191505060405180910390fd5b600755565b611afb6111d1565b611b3d576040805160e560020a62461bcd0281526020600482018190526024820152600080516020612864833981519152604482015290519081900360640190fd5b8051610b9d906002906020840190612732565b611b586111d1565b611b9a576040805160e560020a62461bcd0281526020600482018190526024820152600080516020612864833981519152604482015290519081900360640190fd5b8060028381548110611ba857fe5b9060005260206000200160006101000a815481600160a060020a030219169083600160a060020a031602179055505050565b60606002805480602002602001604051908101604052809291908181526020018280548015611c3257602002820191906000526020600020905b8154600160a060020a03168152600190910190602001808311611c14575b5050505050905090565b611c446111d1565b611c86576040805160e560020a62461bcd0281526020600482018190526024820152600080516020612864833981519152604482015290519081900360640190fd5b6112d281612640565b600154600160a060020a03163314611cdb5760405160e560020a62461bcd0281526004018080602001828103825260268152602001806127f66026913960400191505060405180910390fd5b6008546119c0908263ffffffff61206416565b80820382811315600083121514610c335760405160e560020a62461bcd0281526004018080602001828103825260228152602001806128426022913960400191505060405180910390fd5b80611d4357610b9d565b600454600160a060020a0316611d8f57604051600160a060020a0383169082156108fc029083906000818181858888f19350505050158015611d89573d6000803e3d6000fd5b50611f82565b600480546040805160e060020a6370a08231028152309381019390935251600160a060020a039091169160009183916370a08231916024808301926020929190829003018186803b158015611de357600080fd5b505afa158015611df7573d6000803e3d6000fd5b505050506040513d6020811015611e0d57600080fd5b5051604080517fa9059cbb000000000000000000000000000000000000000000000000000000008152600160a060020a0387811660048301526024820187905291519293509084169163a9059cbb916044808201926020929091908290030181600087803b158015611e7e57600080fd5b505af1158015611e92573d6000803e3d6000fd5b505050506040513d6020811015611ea857600080fd5b50506040805160e060020a6370a082310281523060048201529051600091600160a060020a038516916370a0823191602480820192602092909190829003018186803b158015611ef757600080fd5b505afa158015611f0b573d6000803e3d6000fd5b505050506040513d6020811015611f2157600080fd5b505190508082038414611f7e576040805160e560020a62461bcd02815260206004820181905260248201527f736574746c656d656e7420746f6b656e207472616e73666572206572726f7221604482015290519081900360640190fd5b5050505b604080518281529051600160a060020a038416917f28ddb94c4a69563c932b97a7500eac0ef8e5b8f354e5e909d69d94e5f2f86064919081900360200190a25050565b80156112d25760058054820190556040805182815290517f110df32990877cf4a7e3ada351560c9783fb2dc05ab27e94e3118df37b23de7f9181900360200190a150565b80820382811115610c33576040805160e560020a62461bcd02815260206004820181905260248201527f536166654d6174683a20737562737472616374696f6e20756e646572666c6f77604482015290519081900360640190fd5b80820182811015610c33576040805160e560020a62461bcd02815260206004820152601b60248201527f536166654d6174683a206164646974696f6e206f766572666c6f770000000000604482015290519081900360640190fd5b81810182811215600083121514610c33576040805160e560020a62461bcd02815260206004820152601d60248201527f53616665496e743235363a206164646974696f6e206f766572666c6f77000000604482015290519081900360640190fd5b6121286111d1565b61216a576040805160e560020a62461bcd0281526020600482018190526024820152600080516020612864833981519152604482015290519081900360640190fd5b6006805460018181018355600083905260088083047ff652222313e28459528d920b65115c16c04f3efc82aaedc97be59f3f377c0d3f908101805463ffffffff60046007978816810261010090810a83021990931690935587548087018955858104850180549189168502840a603281029084021990921691909117905587548087018955858104850180549189168502840a830219909116905587548087018955858104850180549189168502840a8302199091169055875495860190975592840490910180549390941602900a909202199091169055565b6122a78280548060200260200160405190810160405280929190818152602001828054801561229c57602002820191906000526020600020905b8154600160a060020a0316815260019091019060200180831161227e575b5050505050826126e3565b610b9d578154600181018355600083815260209020018054600160a060020a038316600160a060020a03199091161790555050565b816122e657612332565b600082600683815481106122f657fe5b6000918252602090912060088204015460079091166004026101000a900463ffffffff1602905061232984828503611d39565b61156c81611fc5565b505050565b8154600090815b818110156123845783600160a060020a031685828154811061235c57fe5b600091825260209091200154600160a060020a0316141561237c57612384565b60010161233e565b8181101561241a576001820381146123fe578460018303815481106123a557fe5b9060005260206000200160009054906101000a9004600160a060020a03168582815481106123cf57fe5b9060005260206000200160006101000a815481600160a060020a030219169083600160a060020a031602179055505b845461240e866000198301612793565b50600192505050610c33565b506000949350505050565b600454600090600160a060020a03166124405734915061263c565b811561263c57600480546040805160e060020a6370a08231028152309381019390935251600160a060020a039091169160009183916370a08231916024808301926020929190829003018186803b15801561249a57600080fd5b505afa1580156124ae573d6000803e3d6000fd5b505050506040513d60208110156124c457600080fd5b5051604080517f23b872dd000000000000000000000000000000000000000000000000000000008152336004820152306024820152604481018790529051919250600160a060020a038416916323b872dd916064808201926020929091908290030181600087803b15801561253857600080fd5b505af115801561254c573d6000803e3d6000fd5b505050506040513d602081101561256257600080fd5b50506040805160e060020a6370a082310281523060048201529051600091600160a060020a038516916370a0823191602480820192602092909190829003018186803b1580156125b157600080fd5b505afa1580156125c5573d6000803e3d6000fd5b505050506040513d60208110156125db57600080fd5b505190508181038514612638576040805160e560020a62461bcd02815260206004820181905260248201527f736574746c656d656e7420746f6b656e207472616e73666572206572726f7221604482015290519081900360640190fd5b5050505b5090565b600160a060020a0381166126885760405160e560020a62461bcd02815260040180806020018281038252602681526020018061281c6026913960400191505060405180910390fd5b60008054604051600160a060020a03808516939216917f8be0079c531659141344cd1fd0a4f28419497f9722a3daafe3b4186f6b6457e091a360008054600160a060020a031916600160a060020a0392909216919091179055565b8151600090815b8181101561241a5783600160a060020a031685828151811061270857fe5b6020026020010151600160a060020a0316141561272a57600192505050610c33565b6001016126ea565b828054828255906000526020600020908101928215612787579160200282015b828111156127875782518254600160a060020a031916600160a060020a03909116178255602090920191600190910190612752565b5061263c9291506127b7565b815481835581811115612332576000838152602090206123329181019083016127db565b610ad891905b8082111561263c578054600160a060020a03191681556001016127bd565b610ad891905b8082111561263c57600081556001016127e156fe4d616e6167657261626c653a2063616c6c6572206973206e6f7420746865204d616e616765724f776e61626c653a206e6577206f776e657220697320746865207a65726f206164647265737353616665496e743235363a20737562737472616374696f6e20756e646572666c6f774f776e61626c653a2063616c6c6572206973206e6f7420746865206f776e65724f70657261746f723a2063616c6c6572206973206e6f742074686520656c696769626c65204f70657261746f72a265627a7a72315820be5795acdfec3dec622b5c3fff2ef20e350c193e3b14d1c60d59a9018d3331a264736f6c634300051000324f776e61626c653a2063616c6c6572206973206e6f7420746865206f776e6572",
  "source": "pragma solidity =0.5.16;\r\n\r\nimport \"../modules/SafeInt256.sol\";\r\nimport \"./TransactionFee.sol\";\r\n/**\r\n * @title collateral pool contract with coin and necessary storage data.\r\n * @dev A smart-contract which stores user's deposited collateral.\r\n *\r\n */\r\ncontract CollateralPool is TransactionFee{\r\n    using SafeMath for uint256;\r\n    using SafeInt256 for int256;\r\n    constructor(address optionsPool)public{\r\n        _optionsPool = IOptionsPool(optionsPool);\r\n    }\r\n    /**\r\n     * @dev Transfer colleteral from manager contract to this contract.\r\n     *  Only manager contract can invoke this function.\r\n     */\r\n    function () external payable onlyManager{\r\n\r\n    }\r\n    function initialize() onlyOwner public {\r\n        TransactionFee.initialize();\r\n    }\r\n    function update() onlyOwner public{\r\n    }\r\n    /**\r\n     * @dev An interface for add transaction fee.\r\n     *  Only manager contract can invoke this function.\r\n     * @param amount total transaction amount.\r\n     * @param feeType transaction fee type. see TransactionFee contract\r\n     */\r\n    function addTransactionFee(uint256 amount,uint256 feeType)public onlyManager returns (uint256) {\r\n        uint256  fee = FeeRates[feeType]*amount;\r\n        _addTransactionFee(fee);\r\n        return fee;\r\n    }\r\n    /**\r\n     * @dev Retrieve user's cost of collateral, priced in USD.\r\n     * @param user input retrieved account \r\n     */\r\n    function getUserPayingUsd(address user)public view returns (uint256){\r\n        return userCollateralPaying[user];\r\n    }\r\n    /**\r\n     * @dev Retrieve user's amount of the specified collateral.\r\n     * @param user input retrieved account \r\n     */\r\n    function getUserInputCollateral(address user)public view returns (uint256){\r\n        return userInputCollateral[user];\r\n    }\r\n\r\n    /**\r\n     * @dev Retrieve collateral balance data.\r\n     */\r\n    function getCollateralBalance()public view returns (uint256){\r\n        return collateralBalance;\r\n    }\r\n    /**\r\n     * @dev Opterator user paying data, priced in USD. Only manager contract can modify database.\r\n     * @param user input user account which need add paying amount.\r\n     * @param amount the input paying amount.\r\n     */\r\n    function addUserPayingUsd(address user,uint256 amount)public onlyManager{\r\n        userCollateralPaying[user] = userCollateralPaying[user].add(amount);\r\n    }\r\n    /**\r\n     * @dev Opterator user input collateral data. Only manager contract can modify database.\r\n     * @param user input user account which need add input collateral.\r\n     * @param amount the input collateral amount.\r\n     */\r\n    function addUserInputCollateral(address user,uint256 amount)public onlyManager{\r\n        userInputCollateral[user] = userInputCollateral[user].add(amount);\r\n    }\r\n    /**\r\n     * @dev Opterator net worth balance data. Only manager contract can modify database.\r\n     * @param newworth collateral net worth list.\r\n     */\r\n    function _addNetWorthBalance(int256 newworth)internal{\r\n        netWorthBalance = netWorthBalance.add(newworth);\r\n    }\r\n    /**\r\n     * @dev Opterator net worth balance data. Only manager contract can modify database.\r\n     * @param newworth collateral net worth increase amount.\r\n     */\r\n    function addNetWorthBalance(int256 newworth)public onlyManager{\r\n        netWorthBalance = netWorthBalance.add(newworth);\r\n    }\r\n    /**\r\n     * @dev Opterator collateral balance data. Only manager contract can modify database.\r\n     * @param amount collateral colleteral increase amount.\r\n     */\r\n    function addCollateralBalance(uint256 amount)public onlyManager{\r\n        collateralBalance = collateralBalance.add(amount);\r\n    }\r\n    /**\r\n     * @dev Substract user paying data,priced in USD. Only manager contract can modify database.\r\n     * @param user user's account.\r\n     * @param amount user's decrease amount.\r\n     */\r\n    function subUserPayingUsd(address user,uint256 amount)public onlyManager{\r\n        userCollateralPaying[user] = userCollateralPaying[user].sub(amount);\r\n    }\r\n    /**\r\n     * @dev Substract user's collateral balance. Only manager contract can modify database.\r\n     * @param user user's account.\r\n     * @param amount user's decrease amount.\r\n     */\r\n    function subUserInputCollateral(address user,uint256 amount)public onlyManager{\r\n        userInputCollateral[user] = userInputCollateral[user].sub(amount);\r\n    }\r\n    /**\r\n     * @dev Substract net worth balance. Only manager contract can modify database.\r\n     * @param amount the decrease amount.\r\n     */\r\n    function subNetWorthBalance(int256 amount)public onlyManager{\r\n        netWorthBalance = netWorthBalance.sub(amount);\r\n    }\r\n    /**\r\n     * @dev Substract collateral balance. Only manager contract can modify database.\r\n     * @param amount the decrease amount.\r\n     */\r\n    function subCollateralBalance(uint256 amount)public onlyManager{\r\n        collateralBalance = collateralBalance.sub(amount);\r\n    }\r\n    /**\r\n     * @dev set user paying data,priced in USD. Only manager contract can modify database.\r\n     * @param user user's account.\r\n     * @param amount user's new amount.\r\n     */\r\n    function setUserPayingUsd(address user,uint256 amount)public onlyManager{\r\n        userCollateralPaying[user] = amount;\r\n    }\r\n    /**\r\n     * @dev set user's collateral balance. Only manager contract can modify database.\r\n     * @param user user's account.\r\n     * @param amount user's new amount.\r\n     */\r\n    function setUserInputCollateral(address user,uint256 amount)public onlyManager{\r\n        userInputCollateral[user] = amount;\r\n    }\r\n    /**\r\n     * @dev set net worth balance. Only manager contract can modify database.\r\n     * @param amount the new amount.\r\n     */\r\n    function setNetWorthBalance(int256 amount)public onlyManager{\r\n        netWorthBalance = amount;\r\n    }\r\n    /**\r\n     * @dev set collateral balance. Only manager contract can modify database.\r\n     * @param amount the new amount.\r\n     */\r\n    function setCollateralBalance(uint256 amount)public onlyManager{\r\n        collateralBalance = amount;\r\n    }\r\n    /**\r\n     * @dev Operation for transfer user's payback and deduct transaction fee. Only manager contract can invoke this function.\r\n     * @param recieptor the recieptor account.\r\n     * @param payback the payback amount\r\n     * @param feeType the transaction fee type. see transactionFee contract\r\n     */\r\n    function transferPaybackAndFee(address payable recieptor,uint256 payback,\r\n            uint256 feeType)public onlyManager{\r\n        _transferPaybackAndFee(recieptor,payback,feeType);\r\n        netWorthBalance = netWorthBalance.sub(int256(payback));\r\n    }\r\n    /**\r\n     * @dev Operation for transfer user's payback. Only manager contract can invoke this function.\r\n     * @param recieptor the recieptor account.\r\n     * @param payback the payback amount\r\n     */\r\n    function transferPayback(address payable recieptor,uint256 payback)public onlyManager{\r\n        _transferPayback(recieptor,payback);\r\n    }\r\n\r\n    /**\r\n     * @dev Retrieve the balance of collateral, the auxiliary function for the total collateral calculation. \r\n     */\r\n    function getRealBalance()public view returns(int256){\r\n        int256 latestWorth = _optionsPool.getNetWrothLatestWorth();\r\n        return netWorthBalance.add(latestWorth);\r\n    }\r\n    function getNetWorthBalance()public view returns(uint256){\r\n        int256 latestWorth = _optionsPool.getNetWrothLatestWorth();\r\n        int256 netWorth = netWorthBalance.add(latestWorth);\r\n        if (netWorth>0){\r\n            return uint256(netWorth);\r\n        }\r\n        return 0;\r\n    }\r\n        /**\r\n     * @dev  The foundation operator want to add some coin to netbalance, which can increase the FPTCoin net worth.\r\n     * @param amount the amount of the settlement coin which the foundation operator want to transfer in this contract address.\r\n     */\r\n    function addNetBalance(uint256 amount) public payable {\r\n        amount = getPayableAmount(amount);\r\n        netWorthBalance = netWorthBalance.add(int256(amount));\r\n    }\r\n        /**\r\n     * @dev the auxiliary function for getting user's transer\r\n     */\r\n    function getPayableAmount(uint256 amount) internal returns (uint256) {\r\n        if (collateral == address(0)){\r\n            amount = msg.value;\r\n        }else if (amount > 0){\r\n            IERC20 oToken = IERC20(collateral);\r\n            uint256 preBalance = oToken.balanceOf(address(this));\r\n            oToken.transferFrom(msg.sender, address(this), amount);\r\n            uint256 afterBalance = oToken.balanceOf(address(this));\r\n            require(afterBalance-preBalance==amount,\"settlement token transfer error!\");\r\n        }\r\n        return amount;\r\n    }\r\n        /**\r\n     * @dev Calculate the collateral pool shared worth.\r\n     * The foundation operator will invoke this function frequently\r\n     */\r\n    function calSharedPayment() public onlyOperatorIndex(0) {\r\n        (uint256 firstOption,int256 latestShared) = _optionsPool.getNetWrothCalInfo();\r\n        uint256 lastOption = _optionsPool.getOptionInfoLength();\r\n        (int256 newNetworth,uint256 sharedBalance,uint256 newFirst) =\r\n                     _optionsPool.calRangeSharedPayment(lastOption,firstOption,lastOption);\r\n        int256 fallBalance = _optionsPool.calculatePhaseOptionsFall(lastOption,newFirst,lastOption);\r\n        fallBalance = int256(sharedBalance).sub(latestShared).add(fallBalance);\r\n        setSharedPayment(newNetworth,fallBalance,newFirst);\r\n    }\r\n    /**\r\n     * @dev Set the calculation results of the collateral pool shared worth.\r\n     * The foundation operator will invoke this function frequently\r\n     * @param newNetworth Current expired options' net worth \r\n     * @param sharedBalance All unexpired options' shared balance distributed by time.\r\n     * @param firstOption The new first unexpired option's index.\r\n     */\r\n    function setSharedPayment(int256 newNetworth,int256 sharedBalance,uint256 firstOption) public onlyOperatorIndex(0){\r\n        _optionsPool.setSharedState(firstOption,sharedBalance);\r\n        _addNetWorthBalance(newNetworth);\r\n    }\r\n}",
  "sourcePath": "C:\\work\\solidity\\finnexusOptions_V2.1\\contracts\\CollateralPool\\CollateralPool.sol",
  "compiler": {
    "name": "solc",
    "version": "0.5.16+commit.9c3226ce.Emscripten.clang"
  },
  "schemaVersion": "3.1.0",
  "updatedAt": "2020-10-24T10:45:23.182Z",
  "devdoc": {
    "details": "A smart-contract which stores user's deposited collateral.  ",
    "methods": {
      "addCollateralBalance(uint256)": {
        "details": "Opterator collateral balance data. Only manager contract can modify database.",
        "params": {
          "amount": "collateral colleteral increase amount."
        }
      },
      "addNetBalance(uint256)": {
        "details": "The foundation operator want to add some coin to netbalance, which can increase the FPTCoin net worth.",
        "params": {
          "amount": "the amount of the settlement coin which the foundation operator want to transfer in this contract address."
        }
      },
      "addNetWorthBalance(int256)": {
        "details": "Opterator net worth balance data. Only manager contract can modify database.",
        "params": {
          "newworth": "collateral net worth increase amount."
        }
      },
      "addOperator(address)": {
        "details": "add a new operator by owner.       "
      },
      "addTransactionFee(uint256,uint256)": {
        "details": "An interface for add transaction fee. Only manager contract can invoke this function.",
        "params": {
          "amount": "total transaction amount.",
          "feeType": "transaction fee type. see TransactionFee contract"
        }
      },
      "addUserInputCollateral(address,uint256)": {
        "details": "Opterator user input collateral data. Only manager contract can modify database.",
        "params": {
          "amount": "the input collateral amount.",
          "user": "input user account which need add input collateral."
        }
      },
      "addUserPayingUsd(address,uint256)": {
        "details": "Opterator user paying data, priced in USD. Only manager contract can modify database.",
        "params": {
          "amount": "the input paying amount.",
          "user": "input user account which need add paying amount."
        }
      },
      "calSharedPayment()": {
        "details": "Calculate the collateral pool shared worth. The foundation operator will invoke this function frequently"
      },
      "getCollateralBalance()": {
        "details": "Retrieve collateral balance data."
      },
      "getManager()": {
        "details": "get manager address.       "
      },
      "getOperator()": {
        "details": "get all operators.       "
      },
      "getRealBalance()": {
        "details": "Retrieve the balance of collateral, the auxiliary function for the total collateral calculation. "
      },
      "getUserInputCollateral(address)": {
        "details": "Retrieve user's amount of the specified collateral.",
        "params": {
          "user": "input retrieved account "
        }
      },
      "getUserPayingUsd(address)": {
        "details": "Retrieve user's cost of collateral, priced in USD.",
        "params": {
          "user": "input retrieved account "
        }
      },
      "isOwner()": {
        "details": "Returns true if the caller is the current owner."
      },
      "owner()": {
        "details": "Returns the address of the current owner."
      },
      "removeOperator(address)": {
        "details": "remove operator by owner.       "
      },
      "renounceOwnership()": {
        "details": "Leaves the contract without owner. It will not be possible to call `onlyOwner` functions anymore. Can only be called by the current owner.      * NOTE: Renouncing ownership will leave the contract without an owner, thereby removing any functionality that is only available to the owner."
      },
      "setCollateralBalance(uint256)": {
        "details": "set collateral balance. Only manager contract can modify database.",
        "params": {
          "amount": "the new amount."
        }
      },
      "setManager(address)": {
        "details": "set manager by owner.       "
      },
      "setNetWorthBalance(int256)": {
        "details": "set net worth balance. Only manager contract can modify database.",
        "params": {
          "amount": "the new amount."
        }
      },
      "setOperator(uint256,address)": {
        "details": "modify indexed operator by owner.       "
      },
      "setOperators(address[])": {
        "details": "set all operators by owner.       "
      },
      "setSharedPayment(int256,int256,uint256)": {
        "details": "Set the calculation results of the collateral pool shared worth. The foundation operator will invoke this function frequently",
        "params": {
          "firstOption": "The new first unexpired option's index.",
          "newNetworth": "Current expired options' net worth ",
          "sharedBalance": "All unexpired options' shared balance distributed by time."
        }
      },
      "setUserInputCollateral(address,uint256)": {
        "details": "set user's collateral balance. Only manager contract can modify database.",
        "params": {
          "amount": "user's new amount.",
          "user": "user's account."
        }
      },
      "setUserPayingUsd(address,uint256)": {
        "details": "set user paying data,priced in USD. Only manager contract can modify database.",
        "params": {
          "amount": "user's new amount.",
          "user": "user's account."
        }
      },
      "subCollateralBalance(uint256)": {
        "details": "Substract collateral balance. Only manager contract can modify database.",
        "params": {
          "amount": "the decrease amount."
        }
      },
      "subNetWorthBalance(int256)": {
        "details": "Substract net worth balance. Only manager contract can modify database.",
        "params": {
          "amount": "the decrease amount."
        }
      },
      "subUserInputCollateral(address,uint256)": {
        "details": "Substract user's collateral balance. Only manager contract can modify database.",
        "params": {
          "amount": "user's decrease amount.",
          "user": "user's account."
        }
      },
      "subUserPayingUsd(address,uint256)": {
        "details": "Substract user paying data,priced in USD. Only manager contract can modify database.",
        "params": {
          "amount": "user's decrease amount.",
          "user": "user's account."
        }
      },
      "transferOwnership(address)": {
        "details": "Transfers ownership of the contract to a new account (`newOwner`). Can only be called by the current owner."
      },
      "transferPayback(address,uint256)": {
        "details": "Operation for transfer user's payback. Only manager contract can invoke this function.",
        "params": {
          "payback": "the payback amount",
          "recieptor": "the recieptor account."
        }
      },
      "transferPaybackAndFee(address,uint256,uint256)": {
        "details": "Operation for transfer user's payback and deduct transaction fee. Only manager contract can invoke this function.",
        "params": {
          "feeType": "the transaction fee type. see transactionFee contract",
          "payback": "the payback amount",
          "recieptor": "the recieptor account."
        }
      }
    },
    "title": "collateral pool contract with coin and necessary storage data."
  },
  "userdoc": {
    "methods": {}
  }
}