{
  "contractName": "CollateralData",
  "abi": [
    {
      "anonymous": false,
      "inputs": [
        {
          "indexed": false,
          "internalType": "uint256",
          "name": "payback",
          "type": "uint256"
        }
      ],
      "name": "AddFee",
      "type": "event"
    },
    {
      "anonymous": false,
      "inputs": [
        {
          "indexed": true,
          "internalType": "address",
          "name": "previousOwner",
          "type": "address"
        },
        {
          "indexed": true,
          "internalType": "address",
          "name": "newOwner",
          "type": "address"
        }
      ],
      "name": "OwnershipTransferred",
      "type": "event"
    },
    {
      "anonymous": false,
      "inputs": [
        {
          "indexed": true,
          "internalType": "address",
          "name": "recieptor",
          "type": "address"
        },
        {
          "indexed": false,
          "internalType": "uint256",
          "name": "payback",
          "type": "uint256"
        }
      ],
      "name": "RedeemFee",
      "type": "event"
    },
    {
      "anonymous": false,
      "inputs": [
        {
          "indexed": true,
          "internalType": "address",
          "name": "recieptor",
          "type": "address"
        },
        {
          "indexed": false,
          "internalType": "uint256",
          "name": "payback",
          "type": "uint256"
        }
      ],
      "name": "TransferPayback",
      "type": "event"
    },
    {
      "constant": false,
      "inputs": [
        {
          "internalType": "address",
          "name": "addAddress",
          "type": "address"
        }
      ],
      "name": "addOperator",
      "outputs": [],
      "payable": false,
      "stateMutability": "nonpayable",
      "type": "function"
    },
    {
      "constant": true,
      "inputs": [],
      "name": "getManager",
      "outputs": [
        {
          "internalType": "address",
          "name": "",
          "type": "address"
        }
      ],
      "payable": false,
      "stateMutability": "view",
      "type": "function"
    },
    {
      "constant": true,
      "inputs": [],
      "name": "getOperator",
      "outputs": [
        {
          "internalType": "address[]",
          "name": "",
          "type": "address[]"
        }
      ],
      "payable": false,
      "stateMutability": "view",
      "type": "function"
    },
    {
      "constant": true,
      "inputs": [],
      "name": "getOptionsPoolAddress",
      "outputs": [
        {
          "internalType": "address",
          "name": "",
          "type": "address"
        }
      ],
      "payable": false,
      "stateMutability": "view",
      "type": "function"
    },
    {
      "constant": true,
      "inputs": [],
      "name": "isOwner",
      "outputs": [
        {
          "internalType": "bool",
          "name": "",
          "type": "bool"
        }
      ],
      "payable": false,
      "stateMutability": "view",
      "type": "function"
    },
    {
      "constant": true,
      "inputs": [],
      "name": "owner",
      "outputs": [
        {
          "internalType": "address",
          "name": "",
          "type": "address"
        }
      ],
      "payable": false,
      "stateMutability": "view",
      "type": "function"
    },
    {
      "constant": false,
      "inputs": [
        {
          "internalType": "address",
          "name": "removeAddress",
          "type": "address"
        }
      ],
      "name": "removeOperator",
      "outputs": [
        {
          "internalType": "bool",
          "name": "",
          "type": "bool"
        }
      ],
      "payable": false,
      "stateMutability": "nonpayable",
      "type": "function"
    },
    {
      "constant": false,
      "inputs": [],
      "name": "renounceOwnership",
      "outputs": [],
      "payable": false,
      "stateMutability": "nonpayable",
      "type": "function"
    },
    {
      "constant": false,
      "inputs": [
        {
          "internalType": "address",
          "name": "managerAddress",
          "type": "address"
        }
      ],
      "name": "setManager",
      "outputs": [],
      "payable": false,
      "stateMutability": "nonpayable",
      "type": "function"
    },
    {
      "constant": false,
      "inputs": [
        {
          "internalType": "uint256",
          "name": "index",
          "type": "uint256"
        },
        {
          "internalType": "address",
          "name": "addAddress",
          "type": "address"
        }
      ],
      "name": "setOperator",
      "outputs": [],
      "payable": false,
      "stateMutability": "nonpayable",
      "type": "function"
    },
    {
      "constant": false,
      "inputs": [
        {
          "internalType": "address[]",
          "name": "operators",
          "type": "address[]"
        }
      ],
      "name": "setOperators",
      "outputs": [],
      "payable": false,
      "stateMutability": "nonpayable",
      "type": "function"
    },
    {
      "constant": false,
      "inputs": [
        {
          "internalType": "address",
          "name": "optionsPool",
          "type": "address"
        }
      ],
      "name": "setOptionsPoolAddress",
      "outputs": [],
      "payable": false,
      "stateMutability": "nonpayable",
      "type": "function"
    },
    {
      "constant": false,
      "inputs": [
        {
          "internalType": "address",
          "name": "newOwner",
          "type": "address"
        }
      ],
      "name": "transferOwnership",
      "outputs": [],
      "payable": false,
      "stateMutability": "nonpayable",
      "type": "function"
    }
  ],
  "bytecode": "0x6080604081905260008054600160a060020a0319163317808255600160a060020a0316917f8be0079c531659141344cd1fd0a4f28419497f9722a3daafe3b4186f6b6457e0908290a3610afb806100576000396000f3fe608060405234801561001057600080fd5b50600436106100ec576000357c010000000000000000000000000000000000000000000000000000000090048063c040725a116100a9578063ddf71cd511610083578063ddf71cd5146101e3578063e7a1c1c014610286578063e7f43c68146102b2578063f2fde38b1461030a576100ec565b8063c040725a146101ad578063d0ebdbe7146101b5578063d5009584146101db576100ec565b80631a5a3fce146100f1578063715018a6146101195780638da5cb5b146101215780638f32d59b146101455780639870d7fe14610161578063ac8a584a14610187575b600080fd5b6101176004803603602081101561010757600080fd5b5035600160a060020a0316610330565b005b61011761039c565b610129610430565b60408051600160a060020a039092168252519081900360200190f35b61014d610440565b604080519115158252519081900360200190f35b6101176004803603602081101561017757600080fd5b5035600160a060020a0316610451565b61014d6004803603602081101561019d57600080fd5b5035600160a060020a03166104af565b610129610512565b610117600480360360208110156101cb57600080fd5b5035600160a060020a0316610521565b61012961058d565b610117600480360360208110156101f957600080fd5b81019060208101813564010000000081111561021457600080fd5b82018360208201111561022657600080fd5b8035906020019184602083028401116401000000008311171561024857600080fd5b91908080602002602001604051908101604052809392919081815260200183836020028082843760009201919091525092955061059c945050505050565b6101176004803603604081101561029c57600080fd5b5080359060200135600160a060020a03166105fd565b6102ba610687565b60408051602080825283518183015283519192839290830191858101910280838360005b838110156102f65781810151838201526020016102de565b505050509050019250505060405180910390f35b6101176004803603602081101561032057600080fd5b5035600160a060020a03166106e9565b610338610440565b61037a576040805160e560020a62461bcd0281526020600482018190526024820152600080516020610aa7833981519152604482015290519081900360640190fd5b60038054600160a060020a031916600160a060020a0392909216919091179055565b6103a4610440565b6103e6576040805160e560020a62461bcd0281526020600482018190526024820152600080516020610aa7833981519152604482015290519081900360640190fd5b60008054604051600160a060020a03909116907f8be0079c531659141344cd1fd0a4f28419497f9722a3daafe3b4186f6b6457e0908390a360008054600160a060020a0319169055565b600054600160a060020a03165b90565b600054600160a060020a0316331490565b610459610440565b61049b576040805160e560020a62461bcd0281526020600482018190526024820152600080516020610aa7833981519152604482015290519081900360640190fd5b6104ac60028263ffffffff61073c16565b50565b60006104b9610440565b6104fb576040805160e560020a62461bcd0281526020600482018190526024820152600080516020610aa7833981519152604482015290519081900360640190fd5b61050c60028363ffffffff6107d416565b92915050565b600354600160a060020a031690565b610529610440565b61056b576040805160e560020a62461bcd0281526020600482018190526024820152600080516020610aa7833981519152604482015290519081900360640190fd5b60018054600160a060020a031916600160a060020a0392909216919091179055565b600154600160a060020a031690565b6105a4610440565b6105e6576040805160e560020a62461bcd0281526020600482018190526024820152600080516020610aa7833981519152604482015290519081900360640190fd5b80516105f99060029060208401906109b4565b5050565b610605610440565b610647576040805160e560020a62461bcd0281526020600482018190526024820152600080516020610aa7833981519152604482015290519081900360640190fd5b806002838154811061065557fe5b9060005260206000200160006101000a815481600160a060020a030219169083600160a060020a031602179055505050565b606060028054806020026020016040519081016040528092919081815260200182805480156106df57602002820191906000526020600020905b8154600160a060020a031681526001909101906020018083116106c1575b5050505050905090565b6106f1610440565b610733576040805160e560020a62461bcd0281526020600482018190526024820152600080516020610aa7833981519152604482015290519081900360640190fd5b6104ac816108c2565b61079f8280548060200260200160405190810160405280929190818152602001828054801561079457602002820191906000526020600020905b8154600160a060020a03168152600190910190602001808311610776575b505050505082610965565b6105f9578154600181018355600083815260209020018054600160a060020a038316600160a060020a03199091161790555050565b8154600090815b818110156108215783600160a060020a03168582815481106107f957fe5b600091825260209091200154600160a060020a0316141561081957610821565b6001016107db565b818110156108b75760018203811461089b5784600183038154811061084257fe5b9060005260206000200160009054906101000a9004600160a060020a031685828154811061086c57fe5b9060005260206000200160006101000a815481600160a060020a030219169083600160a060020a031602179055505b84546108ab866000198301610a19565b5060019250505061050c565b506000949350505050565b600160a060020a03811661090a5760405160e560020a62461bcd028152600401808060200182810382526026815260200180610a816026913960400191505060405180910390fd5b60008054604051600160a060020a03808516939216917f8be0079c531659141344cd1fd0a4f28419497f9722a3daafe3b4186f6b6457e091a360008054600160a060020a031916600160a060020a0392909216919091179055565b8151600090815b818110156108b75783600160a060020a031685828151811061098a57fe5b6020026020010151600160a060020a031614156109ac5760019250505061050c565b60010161096c565b828054828255906000526020600020908101928215610a09579160200282015b82811115610a095782518254600160a060020a031916600160a060020a039091161782556020909201916001909101906109d4565b50610a15929150610a42565b5090565b815481835581811115610a3d57600083815260209020610a3d918101908301610a66565b505050565b61043d91905b80821115610a15578054600160a060020a0319168155600101610a48565b61043d91905b80821115610a155760008155600101610a6c56fe4f776e61626c653a206e6577206f776e657220697320746865207a65726f20616464726573734f776e61626c653a2063616c6c6572206973206e6f7420746865206f776e6572a265627a7a723158207ef401c17dd94cb81cc0c74f25d6a97bac9bfcca3ffb99fd3e9d9fa2de7951d364736f6c63430005100032",
  "source": "pragma solidity =0.5.16;\r\nimport \"../modules/Managerable.sol\";\r\nimport \"../modules/AddressWhiteList.sol\";\r\nimport \"../OptionsPool/IOptionsPool.sol\";\r\nimport \"../modules/Operator.sol\";\r\n/**\r\n * @title collateral pool contract with coin and necessary storage data.\r\n * @dev A smart-contract which stores user's deposited collateral.\r\n *\r\n */\r\ncontract CollateralData is Managerable,Operator,ImportOptionsPool{\r\n        // The total fees accumulated in the contract\r\n    address internal collateral;\r\n    uint256\tinternal feeBalance;\r\n    uint32[] internal FeeRates;\r\n     /**\r\n     * @dev Returns the rate of trasaction fee.\r\n     */   \r\n    uint32 constant internal buyFee = 0;\r\n    uint32 constant internal sellFee = 1;\r\n    uint32 constant internal exerciseFee = 2;\r\n    uint32 constant internal addColFee = 3;\r\n    uint32 constant internal redeemColFee = 4;\r\n    event RedeemFee(address indexed recieptor,uint256 payback);\r\n    event AddFee(uint256 payback);\r\n    event TransferPayback(address indexed recieptor,uint256 payback);\r\n\r\n    //token net worth balance\r\n    int256 internal netWorthBalance;\r\n    //total user deposited collateral balance\r\n    // map from collateral address to amount\r\n    uint256 internal collateralBalance;\r\n    //user total paying for collateral, priced in usd;\r\n    mapping (address => uint256) internal userCollateralPaying;\r\n    //user original deposited collateral.\r\n    //map account -> collateral -> amount\r\n    mapping (address => uint256) internal userInputCollateral;\r\n}",
  "sourcePath": "C:\\work\\solidity\\finnexusOptions_V2.1\\contracts\\CollateralPool\\CollateralData.sol",
  "compiler": {
    "name": "solc",
    "version": "0.5.16+commit.9c3226ce.Emscripten.clang"
  },
  "schemaVersion": "3.1.0",
  "updatedAt": "2020-10-24T10:45:23.178Z",
  "devdoc": {
    "details": "A smart-contract which stores user's deposited collateral.  ",
    "methods": {
      "addOperator(address)": {
        "details": "add a new operator by owner.       "
      },
      "getManager()": {
        "details": "get manager address.       "
      },
      "getOperator()": {
        "details": "get all operators.       "
      },
      "isOwner()": {
        "details": "Returns true if the caller is the current owner."
      },
      "owner()": {
        "details": "Returns the address of the current owner."
      },
      "removeOperator(address)": {
        "details": "remove operator by owner.       "
      },
      "renounceOwnership()": {
        "details": "Leaves the contract without owner. It will not be possible to call `onlyOwner` functions anymore. Can only be called by the current owner.      * NOTE: Renouncing ownership will leave the contract without an owner, thereby removing any functionality that is only available to the owner."
      },
      "setManager(address)": {
        "details": "set manager by owner.       "
      },
      "setOperator(uint256,address)": {
        "details": "modify indexed operator by owner.       "
      },
      "setOperators(address[])": {
        "details": "set all operators by owner.       "
      },
      "transferOwnership(address)": {
        "details": "Transfers ownership of the contract to a new account (`newOwner`). Can only be called by the current owner."
      }
    },
    "title": "collateral pool contract with coin and necessary storage data."
  },
  "userdoc": {
    "methods": {}
  }
}