{
  "contractName": "CollateralCal",
  "abi": [
    {
      "anonymous": false,
      "inputs": [
        {
          "indexed": true,
          "internalType": "address",
          "name": "from",
          "type": "address"
        },
        {
          "indexed": false,
          "internalType": "uint256",
          "name": "amount",
          "type": "uint256"
        },
        {
          "indexed": false,
          "internalType": "uint256",
          "name": "tokenAmount",
          "type": "uint256"
        }
      ],
      "name": "AddCollateral",
      "type": "event"
    },
    {
      "anonymous": false,
      "inputs": [
        {
          "indexed": true,
          "internalType": "address",
          "name": "from",
          "type": "address"
        },
        {
          "indexed": true,
          "internalType": "uint256",
          "name": "optionId",
          "type": "uint256"
        },
        {
          "indexed": false,
          "internalType": "uint256",
          "name": "optionPrice",
          "type": "uint256"
        },
        {
          "indexed": false,
          "internalType": "uint256",
          "name": "settlementAmount",
          "type": "uint256"
        },
        {
          "indexed": false,
          "internalType": "uint256",
          "name": "optionAmount",
          "type": "uint256"
        }
      ],
      "name": "BuyOption",
      "type": "event"
    },
    {
      "anonymous": false,
      "inputs": [
        {
          "indexed": false,
          "internalType": "uint256",
          "name": "id",
          "type": "uint256"
        },
        {
          "indexed": false,
          "internalType": "uint256",
          "name": "value1",
          "type": "uint256"
        },
        {
          "indexed": false,
          "internalType": "uint256",
          "name": "value2",
          "type": "uint256"
        }
      ],
      "name": "DebugEvent",
      "type": "event"
    },
    {
      "anonymous": false,
      "inputs": [
        {
          "indexed": true,
          "internalType": "address",
          "name": "from",
          "type": "address"
        },
        {
          "indexed": true,
          "internalType": "uint256",
          "name": "optionId",
          "type": "uint256"
        },
        {
          "indexed": false,
          "internalType": "uint256",
          "name": "amount",
          "type": "uint256"
        },
        {
          "indexed": false,
          "internalType": "uint256",
          "name": "sellValue",
          "type": "uint256"
        }
      ],
      "name": "ExerciseOption",
      "type": "event"
    },
    {
      "anonymous": false,
      "inputs": [
        {
          "indexed": true,
          "internalType": "address",
          "name": "previousOwner",
          "type": "address"
        },
        {
          "indexed": true,
          "internalType": "address",
          "name": "newOwner",
          "type": "address"
        }
      ],
      "name": "OwnershipTransferred",
      "type": "event"
    },
    {
      "anonymous": false,
      "inputs": [
        {
          "indexed": true,
          "internalType": "address",
          "name": "from",
          "type": "address"
        },
        {
          "indexed": false,
          "internalType": "uint256",
          "name": "allRedeem",
          "type": "uint256"
        }
      ],
      "name": "RedeemCollateral",
      "type": "event"
    },
    {
      "anonymous": false,
      "inputs": [
        {
          "indexed": true,
          "internalType": "address",
          "name": "from",
          "type": "address"
        },
        {
          "indexed": true,
          "internalType": "uint256",
          "name": "optionId",
          "type": "uint256"
        },
        {
          "indexed": false,
          "internalType": "uint256",
          "name": "amount",
          "type": "uint256"
        },
        {
          "indexed": false,
          "internalType": "uint256",
          "name": "sellValue",
          "type": "uint256"
        }
      ],
      "name": "SellOption",
      "type": "event"
    },
    {
      "constant": false,
      "inputs": [
        {
          "internalType": "address",
          "name": "addAddress",
          "type": "address"
        }
      ],
      "name": "addWhiteList",
      "outputs": [],
      "payable": false,
      "stateMutability": "nonpayable",
      "type": "function"
    },
    {
      "constant": true,
      "inputs": [
        {
          "internalType": "address",
          "name": "spender",
          "type": "address"
        }
      ],
      "name": "allowance",
      "outputs": [
        {
          "internalType": "uint256",
          "name": "",
          "type": "uint256"
        }
      ],
      "payable": false,
      "stateMutability": "view",
      "type": "function"
    },
    {
      "constant": false,
      "inputs": [
        {
          "internalType": "address",
          "name": "spender",
          "type": "address"
        },
        {
          "internalType": "uint256",
          "name": "amount",
          "type": "uint256"
        }
      ],
      "name": "approve",
      "outputs": [],
      "payable": false,
      "stateMutability": "nonpayable",
      "type": "function"
    },
    {
      "constant": true,
      "inputs": [
        {
          "internalType": "address",
          "name": "tmpAddress",
          "type": "address"
        },
        {
          "internalType": "uint256",
          "name": "state",
          "type": "uint256"
        }
      ],
      "name": "checkAddressPermission",
      "outputs": [
        {
          "internalType": "bool",
          "name": "",
          "type": "bool"
        }
      ],
      "payable": false,
      "stateMutability": "view",
      "type": "function"
    },
    {
      "constant": true,
      "inputs": [
        {
          "internalType": "address",
          "name": "spender",
          "type": "address"
        },
        {
          "internalType": "uint256",
          "name": "amount",
          "type": "uint256"
        }
      ],
      "name": "checkAllowance",
      "outputs": [
        {
          "internalType": "bool",
          "name": "",
          "type": "bool"
        }
      ],
      "payable": false,
      "stateMutability": "view",
      "type": "function"
    },
    {
      "constant": true,
      "inputs": [],
      "name": "getCollateralPoolAddress",
      "outputs": [
        {
          "internalType": "address",
          "name": "",
          "type": "address"
        }
      ],
      "payable": false,
      "stateMutability": "view",
      "type": "function"
    },
    {
      "constant": true,
      "inputs": [],
      "name": "getFPTCoinAddress",
      "outputs": [
        {
          "internalType": "address",
          "name": "",
          "type": "address"
        }
      ],
      "payable": false,
      "stateMutability": "view",
      "type": "function"
    },
    {
      "constant": true,
      "inputs": [],
      "name": "getInputAmountRange",
      "outputs": [
        {
          "internalType": "uint256",
          "name": "",
          "type": "uint256"
        },
        {
          "internalType": "uint256",
          "name": "",
          "type": "uint256"
        }
      ],
      "payable": false,
      "stateMutability": "view",
      "type": "function"
    },
    {
      "constant": true,
      "inputs": [],
      "name": "getOptionsPoolAddress",
      "outputs": [
        {
          "internalType": "address",
          "name": "",
          "type": "address"
        }
      ],
      "payable": false,
      "stateMutability": "view",
      "type": "function"
    },
    {
      "constant": true,
      "inputs": [],
      "name": "getOptionsPriceAddress",
      "outputs": [
        {
          "internalType": "address",
          "name": "",
          "type": "address"
        }
      ],
      "payable": false,
      "stateMutability": "view",
      "type": "function"
    },
    {
      "constant": true,
      "inputs": [],
      "name": "getOracleAddress",
      "outputs": [
        {
          "internalType": "address",
          "name": "",
          "type": "address"
        }
      ],
      "payable": false,
      "stateMutability": "view",
      "type": "function"
    },
    {
      "constant": true,
      "inputs": [],
      "name": "getWhiteList",
      "outputs": [
        {
          "internalType": "address[]",
          "name": "",
          "type": "address[]"
        }
      ],
      "payable": false,
      "stateMutability": "view",
      "type": "function"
    },
    {
      "constant": true,
      "inputs": [
        {
          "internalType": "address",
          "name": "tmpAddress",
          "type": "address"
        }
      ],
      "name": "isEligibleAddress",
      "outputs": [
        {
          "internalType": "bool",
          "name": "",
          "type": "bool"
        }
      ],
      "payable": false,
      "stateMutability": "view",
      "type": "function"
    },
    {
      "constant": true,
      "inputs": [
        {
          "internalType": "uint256",
          "name": "Amount",
          "type": "uint256"
        }
      ],
      "name": "isInputAmountInRange",
      "outputs": [
        {
          "internalType": "bool",
          "name": "",
          "type": "bool"
        }
      ],
      "payable": false,
      "stateMutability": "view",
      "type": "function"
    },
    {
      "constant": true,
      "inputs": [],
      "name": "isOwner",
      "outputs": [
        {
          "internalType": "bool",
          "name": "",
          "type": "bool"
        }
      ],
      "payable": false,
      "stateMutability": "view",
      "type": "function"
    },
    {
      "constant": false,
      "inputs": [
        {
          "internalType": "address",
          "name": "addAddress",
          "type": "address"
        },
        {
          "internalType": "uint256",
          "name": "permission",
          "type": "uint256"
        }
      ],
      "name": "modifyPermission",
      "outputs": [],
      "payable": false,
      "stateMutability": "nonpayable",
      "type": "function"
    },
    {
      "constant": true,
      "inputs": [],
      "name": "owner",
      "outputs": [
        {
          "internalType": "address",
          "name": "",
          "type": "address"
        }
      ],
      "payable": false,
      "stateMutability": "view",
      "type": "function"
    },
    {
      "constant": false,
      "inputs": [
        {
          "internalType": "address",
          "name": "removeAddress",
          "type": "address"
        }
      ],
      "name": "removeWhiteList",
      "outputs": [
        {
          "internalType": "bool",
          "name": "",
          "type": "bool"
        }
      ],
      "payable": false,
      "stateMutability": "nonpayable",
      "type": "function"
    },
    {
      "constant": false,
      "inputs": [],
      "name": "renounceOwnership",
      "outputs": [],
      "payable": false,
      "stateMutability": "nonpayable",
      "type": "function"
    },
    {
      "constant": false,
      "inputs": [
        {
          "internalType": "address",
          "name": "collateralPool",
          "type": "address"
        }
      ],
      "name": "setCollateralPoolAddress",
      "outputs": [],
      "payable": false,
      "stateMutability": "nonpayable",
      "type": "function"
    },
    {
      "constant": false,
      "inputs": [
        {
          "internalType": "address",
          "name": "FPTCoinAddr",
          "type": "address"
        }
      ],
      "name": "setFPTCoinAddress",
      "outputs": [],
      "payable": false,
      "stateMutability": "nonpayable",
      "type": "function"
    },
    {
      "constant": false,
      "inputs": [
        {
          "internalType": "bool",
          "name": "halt",
          "type": "bool"
        }
      ],
      "name": "setHalt",
      "outputs": [],
      "payable": false,
      "stateMutability": "nonpayable",
      "type": "function"
    },
    {
      "constant": false,
      "inputs": [
        {
          "internalType": "uint256",
          "name": "_minAmount",
          "type": "uint256"
        },
        {
          "internalType": "uint256",
          "name": "_maxAmount",
          "type": "uint256"
        }
      ],
      "name": "setInputAmountRange",
      "outputs": [],
      "payable": false,
      "stateMutability": "nonpayable",
      "type": "function"
    },
    {
      "constant": false,
      "inputs": [
        {
          "internalType": "address",
          "name": "optionsPool",
          "type": "address"
        }
      ],
      "name": "setOptionsPoolAddress",
      "outputs": [],
      "payable": false,
      "stateMutability": "nonpayable",
      "type": "function"
    },
    {
      "constant": false,
      "inputs": [
        {
          "internalType": "address",
          "name": "optionsPrice",
          "type": "address"
        }
      ],
      "name": "setOptionsPriceAddress",
      "outputs": [],
      "payable": false,
      "stateMutability": "nonpayable",
      "type": "function"
    },
    {
      "constant": false,
      "inputs": [
        {
          "internalType": "address",
          "name": "oracle",
          "type": "address"
        }
      ],
      "name": "setOracleAddress",
      "outputs": [],
      "payable": false,
      "stateMutability": "nonpayable",
      "type": "function"
    },
    {
      "constant": false,
      "inputs": [
        {
          "internalType": "bool",
          "name": "_bValid",
          "type": "bool"
        }
      ],
      "name": "setValid",
      "outputs": [],
      "payable": false,
      "stateMutability": "nonpayable",
      "type": "function"
    },
    {
      "constant": false,
      "inputs": [
        {
          "internalType": "address",
          "name": "newOwner",
          "type": "address"
        }
      ],
      "name": "transferOwnership",
      "outputs": [],
      "payable": false,
      "stateMutability": "nonpayable",
      "type": "function"
    },
    {
      "constant": true,
      "inputs": [
        {
          "internalType": "address",
          "name": "account",
          "type": "address"
        }
      ],
      "name": "getUserTotalWorth",
      "outputs": [
        {
          "internalType": "uint256",
          "name": "",
          "type": "uint256"
        }
      ],
      "payable": false,
      "stateMutability": "view",
      "type": "function"
    },
    {
      "constant": true,
      "inputs": [],
      "name": "getTokenNetworth",
      "outputs": [
        {
          "internalType": "uint256",
          "name": "",
          "type": "uint256"
        }
      ],
      "payable": false,
      "stateMutability": "view",
      "type": "function"
    },
    {
      "constant": false,
      "inputs": [
        {
          "internalType": "uint256",
          "name": "amount",
          "type": "uint256"
        }
      ],
      "name": "addCollateral",
      "outputs": [],
      "payable": true,
      "stateMutability": "payable",
      "type": "function"
    },
    {
      "constant": false,
      "inputs": [
        {
          "internalType": "uint256",
          "name": "tokenAmount",
          "type": "uint256"
        },
        {
          "internalType": "address",
          "name": "collateral",
          "type": "address"
        }
      ],
      "name": "redeemCollateral",
      "outputs": [],
      "payable": false,
      "stateMutability": "nonpayable",
      "type": "function"
    },
    {
      "constant": true,
      "inputs": [],
      "name": "getOccupiedCollateral",
      "outputs": [
        {
          "internalType": "uint256",
          "name": "",
          "type": "uint256"
        }
      ],
      "payable": false,
      "stateMutability": "view",
      "type": "function"
    },
    {
      "constant": true,
      "inputs": [],
      "name": "getAvailableCollateral",
      "outputs": [
        {
          "internalType": "uint256",
          "name": "",
          "type": "uint256"
        }
      ],
      "payable": false,
      "stateMutability": "view",
      "type": "function"
    },
    {
      "constant": true,
      "inputs": [],
      "name": "getLeftCollateral",
      "outputs": [
        {
          "internalType": "uint256",
          "name": "",
          "type": "uint256"
        }
      ],
      "payable": false,
      "stateMutability": "view",
      "type": "function"
    },
    {
      "constant": true,
      "inputs": [],
      "name": "getUnlockedCollateral",
      "outputs": [
        {
          "internalType": "uint256",
          "name": "",
          "type": "uint256"
        }
      ],
      "payable": false,
      "stateMutability": "view",
      "type": "function"
    },
    {
      "constant": true,
      "inputs": [
        {
          "internalType": "uint256",
          "name": "strikePrice",
          "type": "uint256"
        },
        {
          "internalType": "uint256",
          "name": "underlyingPrice",
          "type": "uint256"
        },
        {
          "internalType": "uint256",
          "name": "amount",
          "type": "uint256"
        },
        {
          "internalType": "uint8",
          "name": "optType",
          "type": "uint8"
        }
      ],
      "name": "calOptionsOccupied",
      "outputs": [
        {
          "internalType": "uint256",
          "name": "",
          "type": "uint256"
        }
      ],
      "payable": false,
      "stateMutability": "view",
      "type": "function"
    },
    {
      "constant": true,
      "inputs": [],
      "name": "getTotalCollateral",
      "outputs": [
        {
          "internalType": "uint256",
          "name": "",
          "type": "uint256"
        }
      ],
      "payable": false,
      "stateMutability": "view",
      "type": "function"
    },
    {
      "constant": true,
      "inputs": [],
      "name": "getRealBalance",
      "outputs": [
        {
          "internalType": "int256",
          "name": "",
          "type": "int256"
        }
      ],
      "payable": false,
      "stateMutability": "view",
      "type": "function"
    },
    {
      "constant": true,
      "inputs": [],
      "name": "getNetWorthBalance",
      "outputs": [
        {
          "internalType": "uint256",
          "name": "",
          "type": "uint256"
        }
      ],
      "payable": false,
      "stateMutability": "view",
      "type": "function"
    }
  ],
  "bytecode": "0x60806040819052600080546c0c9f2c9cd04674edea40000000600190815560646002556003805460ff19908116909155600780549091169091179055611388600c556105dc600e556101f4600f55600160a860020a03191661010033810291909117808355600160a060020a0391900416917f8be0079c531659141344cd1fd0a4f28419497f9722a3daafe3b4186f6b6457e0908290a36129f0806100a56000396000f3fe60806040526004361061023f5760003560e060020a900480638f10ad9411610132578063c5e5a3ed116100af578063e28a327d11610073578063e28a327d146107ed578063e7122ffd14610802578063e7cd4a0414610835578063f2fde38b14610868578063f49543871461089b5761023f565b8063c5e5a3ed14610784578063cd40581914610799578063d6eb5910146107ae578063d7e57992146107c3578063dab55129146107d85761023f565b8063b18b78dd116100f6578063b18b78dd146106d6578063bc9abed2146106eb578063bcc46e8314610719578063c040725a14610736578063c219043b1461074b5761023f565b80638f10ad94146106105780638f32d59b146106255780639ab91a351461063a578063a093e2d01461066a578063a20a80451461069d5761023f565b8063447dbeac116101c05780636f1d7b33116101845780636f1d7b3314610574578063715018a614610589578063813b5d4b1461059e578063817bf86d146105c85780638da5cb5b146105fb5761023f565b8063447dbeac146104945780634c69c00f146104c75780634cbf6302146104fa5780635ca4b73b146105335780636c64edee146105485761023f565b80632042e5c2116102075780632042e5c214610371578063251e2fe3146103b857806332c82a5f146103e95780633daba0d7146104285780633e5beab9146104615761023f565b8063095ea7b31461024457806309a9d76c1461027f5780630aaf3832146102e45780631730b3cb1461030b5780631a5a3fce1461033e575b600080fd5b34801561025057600080fd5b5061027d6004803603604081101561026757600080fd5b50600160a060020a0381351690602001356108c7565b005b34801561028b57600080fd5b5061029461092d565b60408051602080825283518183015283519192839290830191858101910280838360005b838110156102d05781810151838201526020016102b8565b505050509050019250505060405180910390f35b3480156102f057600080fd5b506102f9610990565b60408051918252519081900360200190f35b34801561031757600080fd5b5061027d6004803603602081101561032e57600080fd5b5035600160a060020a03166109af565b34801561034a57600080fd5b5061027d6004803603602081101561036157600080fd5b5035600160a060020a0316610a28565b34801561037d57600080fd5b506103a46004803603602081101561039457600080fd5b5035600160a060020a0316610aa1565b604080519115158252519081900360200190f35b3480156103c457600080fd5b506103cd610b1d565b60408051600160a060020a039092168252519081900360200190f35b3480156103f557600080fd5b506102f96004803603608081101561040c57600080fd5b508035906020810135906040810135906060013560ff16610b2c565b34801561043457600080fd5b506103a46004803603604081101561044b57600080fd5b50600160a060020a038135169060200135610b5e565b34801561046d57600080fd5b506102f96004803603602081101561048457600080fd5b5035600160a060020a0316610b92565b3480156104a057600080fd5b506102f9600480360360208110156104b757600080fd5b5035600160a060020a0316610bad565b3480156104d357600080fd5b5061027d600480360360208110156104ea57600080fd5b5035600160a060020a0316610cee565b34801561050657600080fd5b506103a46004803603604081101561051d57600080fd5b50600160a060020a038135169060200135610d67565b34801561053f57600080fd5b506103cd610d88565b34801561055457600080fd5b5061027d6004803603602081101561056b57600080fd5b50351515610d97565b34801561058057600080fd5b506102f9610df4565b34801561059557600080fd5b5061027d610e83565b3480156105aa57600080fd5b506103a4600480360360208110156105c157600080fd5b5035610f29565b3480156105d457600080fd5b506103a4600480360360208110156105eb57600080fd5b5035600160a060020a0316610f41565b34801561060757600080fd5b506103cd610fb0565b34801561061c57600080fd5b506102f9610fc4565b34801561063157600080fd5b506103a4611022565b34801561064657600080fd5b5061027d6004803603604081101561065d57600080fd5b5080359060200135611038565b34801561067657600080fd5b5061027d6004803603602081101561068d57600080fd5b5035600160a060020a031661108d565b3480156106a957600080fd5b5061027d600480360360408110156106c057600080fd5b5080359060200135600160a060020a0316611106565b3480156106e257600080fd5b506103cd61155a565b3480156106f757600080fd5b50610700611569565b6040805192835260208301919091528051918290030190f35b61027d6004803603602081101561072f57600080fd5b5035611573565b34801561074257600080fd5b506103cd611a10565b34801561075757600080fd5b5061027d6004803603604081101561076e57600080fd5b50600160a060020a038135169060200135611a1f565b34801561079057600080fd5b506102f9611a85565b3480156107a557600080fd5b506102f9611b46565b3480156107ba57600080fd5b506102f9611bd7565b3480156107cf57600080fd5b506103cd611ca3565b3480156107e457600080fd5b506102f9611cb7565b3480156107f957600080fd5b506102f9611d46565b34801561080e57600080fd5b5061027d6004803603602081101561082557600080fd5b5035600160a060020a0316611d53565b34801561084157600080fd5b5061027d6004803603602081101561085857600080fd5b5035600160a060020a0316611dd2565b34801561087457600080fd5b5061027d6004803603602081101561088b57600080fd5b5035600160a060020a0316611e4d565b3480156108a757600080fd5b5061027d600480360360208110156108be57600080fd5b50351515611ea3565b6108cf611022565b610911576040805160e560020a62461bcd028152602060048201819052602482015260008051602061296e833981519152604482015290519081900360640190fd5b600160a060020a03909116600090815260066020526040902055565b6060600480548060200260200160405190810160405280929190818152602001828054801561098557602002820191906000526020600020905b8154600160a060020a03168152600190910190602001808311610967575b505050505090505b90565b60006109aa61099d611bd7565b6109a5611b46565b611f00565b905090565b6109b7611022565b6109f9576040805160e560020a62461bcd028152602060048201819052602482015260008051602061296e833981519152604482015290519081900360640190fd5b600a805473ffffffffffffffffffffffffffffffffffffffff1916600160a060020a0392909216919091179055565b610a30611022565b610a72576040805160e560020a62461bcd028152602060048201819052602482015260008051602061296e833981519152604482015290519081900360640190fd5b6009805473ffffffffffffffffffffffffffffffffffffffff1916600160a060020a0392909216919091179055565b6000610aab611022565b610aed576040805160e560020a62461bcd028152602060048201819052602482015260008051602061296e833981519152604482015290519081900360640190fd5b600160a060020a038216600090815260056020526040812055610b1760048363ffffffff611f1616565b92915050565b600a54600160a060020a031690565b60008060ff8316158587111415610b465750848302610b4b565b508383025b610b5481612004565b9695505050505050565b60075460009060ff161580610b8b5750600160a060020a0383166000908152600660205260409020548211155b9392505050565b600160a060020a031660009081526006602052604090205490565b600754604080517f07e77aa0000000000000000000000000000000000000000000000000000000008152600160a060020a0384811660048301529151600093610b179361010090910416916307e77aa0916024808301926020929190829003018186803b158015610c1d57600080fd5b505afa158015610c31573d6000803e3d6000fd5b505050506040513d6020811015610c4757600080fd5b50516007546040805160e060020a6370a08231028152600160a060020a0387811660048301529151610ce2936101009004909216916370a0823191602480820192602092909190829003018186803b158015610ca257600080fd5b505afa158015610cb6573d6000803e3d6000fd5b505050506040513d6020811015610ccc57600080fd5b5051610cd6611a85565b9063ffffffff61201c16565b9063ffffffff61207516565b610cf6611022565b610d38576040805160e560020a62461bcd028152602060048201819052602482015260008051602061296e833981519152604482015290519081900360640190fd5b6008805473ffffffffffffffffffffffffffffffffffffffff1916600160a060020a0392909216919091179055565b600160a060020a039190911660009081526005602052604090205481161490565b600b54600160a060020a031690565b610d9f611022565b610de1576040805160e560020a62461bcd028152602060048201819052602482015260008051602061296e833981519152604482015290519081900360640190fd5b6007805460ff1916911515919091179055565b600a54604080517f6f1d7b330000000000000000000000000000000000000000000000000000000081529051600092600160a060020a031691636f1d7b33916004808301926020929190829003018186803b158015610e5257600080fd5b505afa158015610e66573d6000803e3d6000fd5b505050506040513d6020811015610e7c57600080fd5b5051905090565b610e8b611022565b610ecd576040805160e560020a62461bcd028152602060048201819052602482015260008051602061296e833981519152604482015290519081900360640190fd5b60008054604051610100909104600160a060020a0316907f8be0079c531659141344cd1fd0a4f28419497f9722a3daafe3b4186f6b6457e0908390a36000805474ffffffffffffffffffffffffffffffffffffffff0019169055565b60008160015410158015610b17575050600254111590565b6000610b17826004805480602002602001604051908101604052809291908181526020018280548015610f9d57602002820191906000526020600020905b8154600160a060020a03168152600190910190602001808311610f7f575b50505050506120d090919063ffffffff16565b6000546101009004600160a060020a031690565b600a54604080517f8f10ad940000000000000000000000000000000000000000000000000000000081529051600092600160a060020a031691638f10ad94916004808301926020929190829003018186803b158015610e5257600080fd5b6000546101009004600160a060020a0316331490565b611040611022565b611082576040805160e560020a62461bcd028152602060048201819052602482015260008051602061296e833981519152604482015290519081900360640190fd5b600291909155600155565b611095611022565b6110d7576040805160e560020a62461bcd028152602060048201819052602482015260008051602061296e833981519152604482015290519081900360640190fd5b600b805473ffffffffffffffffffffffffffffffffffffffff1916600160a060020a0392909216919091179055565b60005460ff161561111657600080fd5b6000805460ff1916600117905560035460ff161561117e576040805160e560020a62461bcd02815260206004820152601760248201527f5468697320636f6e74726163742069732068616c746564000000000000000000604482015290519081900360640190fd5b81806001541015801561119357508060025411155b6111d15760405160e560020a62461bcd0281526004018080602001828103825260298152602001806129246029913960400191505060405180910390fd5b6111dc826010610d67565b611230576040805160e560020a62461bcd02815260206004820152601f60248201527f736574746c656d656e7420697320756e737570706f7274656420746f6b656e00604482015290519081900360640190fd5b600754604080517f5935573600000000000000000000000000000000000000000000000000000000815233600482015290516000926101009004600160a060020a0316916359355736916024808301926020929190829003018186803b15801561129957600080fd5b505afa1580156112ad573d6000803e3d6000fd5b505050506040513d60208110156112c357600080fd5b50516007546040805160e060020a6370a082310281523360048201529051929350869284926101009004600160a060020a0316916370a08231916024808301926020929190829003018186803b15801561131c57600080fd5b505afa158015611330573d6000803e3d6000fd5b505050506040513d602081101561134657600080fd5b505101101561139f576040805160e560020a62461bcd02815260206004820152601e60248201527f53436f696e2062616c616e636520697320696e73756666696369656e74210000604482015290519081900360640190fd5b60006113a9610990565b600754604080517f35f0c4fa0000000000000000000000000000000000000000000000000000000081523360048201526024810189905260448101849052815193945060009384936101009004600160a060020a0316926335f0c4fa926064808201939182900301818787803b15801561142257600080fd5b505af1158015611436573d6000803e3d6000fd5b505050506040513d604081101561144c57600080fd5b5080516020909101519092509050818711156114aa57918290039183156114825783871161147b57600061147f565b8387035b96505b60008061148f898661211f565b909250905081156114a35781935080830192505b50506114af565b600091505b6114b8816121fe565b811561154757600754604080517f9dc29fac000000000000000000000000000000000000000000000000000000008152336004820152602481018590529051610100909204600160a060020a031691639dc29fac9160448082019260009290919082900301818387803b15801561152e57600080fd5b505af1158015611542573d6000803e3d6000fd5b505050505b50506000805460ff191690555050505050565b600854600160a060020a031690565b6002546001549091565b60005460ff161561158357600080fd5b6000805460ff1916600117905560035460ff16156115eb576040805160e560020a62461bcd02815260206004820152601760248201527f5468697320636f6e74726163742069732068616c746564000000000000000000604482015290519081900360640190fd5b6115f4816122ec565b600a54604080517f29a4541a00000000000000000000000000000000000000000000000000000000815260048101849052600360248201529051929350600092600160a060020a03909216916329a4541a9160448082019260209290919082900301818787803b15801561166757600080fd5b505af115801561167b573d6000803e3d6000fd5b505050506040513d602081101561169157600080fd5b5051600d5492819003929091506000906116b390600160a060020a0316612622565b600a54604080517f42049a720000000000000000000000000000000000000000000000000000000081523360048201819052915193945086850293611766936305f5e100928692600160a060020a03909216916342049a7291602480820192602092909190829003018186803b15801561172c57600080fd5b505afa158015611740573d6000803e3d6000fd5b505050506040513d602081101561175657600080fd5b5051018161176057fe5b04610b5e565b6117a45760405160e560020a62461bcd02815260040180806020018281038252602e81526020018061298e602e913960400191505060405180910390fd5b60006117ae611a85565b82816117b657fe5b600a54604080517ff97cf555000000000000000000000000000000000000000000000000000000008152600481018a90529051939092049350600160a060020a03169163f97cf5559160248082019260009290919082900301818387803b15801561182057600080fd5b505af1158015611834573d6000803e3d6000fd5b5050600a54604080517faa68e11e000000000000000000000000000000000000000000000000000000008152336004820152602481018a90529051600160a060020a03909216935063aa68e11e925060448082019260009290919082900301818387803b1580156118a457600080fd5b505af11580156118b8573d6000803e3d6000fd5b5050600a54604080517f74c43e57000000000000000000000000000000000000000000000000000000008152600481018a90529051600160a060020a0390921693506374c43e57925060248082019260009290919082900301818387803b15801561192257600080fd5b505af1158015611936573d6000803e3d6000fd5b5050604080518881526020810185905281513394507fe3f4fa74d049cf7d64965afd6ce83c826cd313cec824ecfb9aacf36886090b4993509081900390910190a2600754604080517f40c10f19000000000000000000000000000000000000000000000000000000008152336004820152602481018490529051610100909204600160a060020a0316916340c10f199160448082019260009290919082900301818387803b1580156119e757600080fd5b505af11580156119fb573d6000803e3d6000fd5b50506000805460ff1916905550505050505050565b600954600160a060020a031690565b611a27611022565b611a69576040805160e560020a62461bcd028152602060048201819052602482015260008051602061296e833981519152604482015290519081900360640190fd5b600160a060020a03909116600090815260056020526040902055565b600080600760019054906101000a9004600160a060020a0316600160a060020a03166318160ddd6040518163ffffffff1660e060020a02815260040160206040518083038186803b158015611ad957600080fd5b505afa158015611aed573d6000803e3d6000fd5b505050506040513d6020811015611b0357600080fd5b5051905080611b19576305f5e10091505061098d565b600081611b24611cb7565b81611b2b57fe5b04905060648111611b3d576064611b3f565b805b9250505090565b600080600960009054906101000a9004600160a060020a0316600160a060020a03166373a3d4246040518163ffffffff1660e060020a02815260040160206040518083038186803b158015611b9a57600080fd5b505afa158015611bae573d6000803e3d6000fd5b505050506040513d6020811015611bc457600080fd5b50519050611bd181612004565b91505090565b600080600a60009054906101000a9004600160a060020a0316600160a060020a0316636f1d7b336040518163ffffffff1660e060020a02815260040160206040518083038186803b158015611c2b57600080fd5b505afa158015611c3f573d6000803e3d6000fd5b505050506040513d6020811015611c5557600080fd5b505190506000811315611c9557600d54600090611c7a90600160a060020a0316612622565b9050611c8c818363ffffffff6126df16565b9250505061098d565b600091505061098d565b5090565b6007546101009004600160a060020a031690565b60006109aa611cc4611bd7565b600760019054906101000a9004600160a060020a0316600160a060020a031663dad3eb746040518163ffffffff1660e060020a02815260040160206040518083038186803b158015611d1557600080fd5b505afa158015611d29573d6000803e3d6000fd5b505050506040513d6020811015611d3f57600080fd5b5051611f00565b60006109aa61099d611cb7565b611d5b611022565b611d9d576040805160e560020a62461bcd028152602060048201819052602482015260008051602061296e833981519152604482015290519081900360640190fd5b60078054600160a060020a039092166101000274ffffffffffffffffffffffffffffffffffffffff0019909216919091179055565b611dda611022565b611e1c576040805160e560020a62461bcd028152602060048201819052602482015260008051602061296e833981519152604482015290519081900360640190fd5b611e2d60048263ffffffff61273816565b600160a060020a0316600090815260056020526040902063ffffffff9055565b611e55611022565b611e97576040805160e560020a62461bcd028152602060048201819052602482015260008051602061296e833981519152604482015290519081900360640190fd5b611ea0816127dc565b50565b611eab611022565b611eed576040805160e560020a62461bcd028152602060048201819052602482015260008051602061296e833981519152604482015290519081900360640190fd5b6003805460ff1916911515919091179055565b6000818311611f10576000610b8b565b50900390565b8154600090815b81811015611f635783600160a060020a0316858281548110611f3b57fe5b600091825260209091200154600160a060020a03161415611f5b57611f63565b600101611f1d565b81811015611ff957600182038114611fdd57846001830381548110611f8457fe5b9060005260206000200160009054906101000a9004600160a060020a0316858281548110611fae57fe5b9060005260206000200160006101000a815481600160a060020a030219169083600160a060020a031602179055505b8454611fed866000198301612897565b50600192505050610b17565b506000949350505050565b60006103e882600c54028161201557fe5b0492915050565b60008115806120375750508082028282828161203457fe5b04145b610b175760405160e560020a62461bcd02815260040180806020018281038252602181526020018061294d6021913960400191505060405180910390fd5b80820182811015610b17576040805160e560020a62461bcd02815260206004820152601b60248201527f536166654d6174683a206164646974696f6e206f766572666c6f770000000000604482015290519081900360640190fd5b8151600090815b81811015611ff95783600160a060020a03168582815181106120f557fe5b6020026020010151600160a060020a0316141561211757600192505050610b17565b6001016120d7565b600080600061212c611a85565b9050848102848111156121f057600082868161214457fe5b600754604080517f4b91a07b00000000000000000000000000000000000000000000000000000000815233600482015293909204808b03602485018190528781026044860152925190945086850293610100909204600160a060020a031691634b91a07b91606480830192600092919082900301818387803b1580156121c957600080fd5b505af11580156121dd573d6000803e3d6000fd5b509498509296506121f795505050505050565b8593509150505b9250929050565b8061220857611ea0565b60408051828152905133917f925b1add21f66e1e2c8c9e9fffb3e0f4105df02dbd05c280f2fe4d19f5c50be5919081900360200190a2600d5460009061225690600160a060020a0316612622565b600a54909150600160a060020a0316639f5fdc9f3383858161227457fe5b0460046040518463ffffffff1660e060020a0281526004018084600160a060020a0316600160a060020a031681526020018381526020018281526020019350505050600060405180830381600087803b1580156122d057600080fd5b505af11580156122e4573d6000803e3d6000fd5b505050505050565b600d54600090600160a060020a031661234557600a54604051349350600160a060020a0390911690819084156108fc029085906000818181858888f1935050505015801561233e573d6000803e3d6000fd5b50506125db565b81156125db57600d546040805160e060020a6370a082310281523060048201529051600160a060020a039092169160009183916370a0823191602480820192602092909190829003018186803b15801561239e57600080fd5b505afa1580156123b2573d6000803e3d6000fd5b505050506040513d60208110156123c857600080fd5b5051604080517f23b872dd000000000000000000000000000000000000000000000000000000008152336004820152306024820152604481018790529051919250600160a060020a038416916323b872dd916064808201926020929091908290030181600087803b15801561243c57600080fd5b505af1158015612450573d6000803e3d6000fd5b505050506040513d602081101561246657600080fd5b50506040805160e060020a6370a082310281523060048201529051600091600160a060020a038516916370a0823191602480820192602092909190829003018186803b1580156124b557600080fd5b505afa1580156124c9573d6000803e3d6000fd5b505050506040513d60208110156124df57600080fd5b50519050818103851461253c576040805160e560020a62461bcd02815260206004820181905260248201527f736574746c656d656e7420746f6b656e207472616e73666572206572726f7221604482015290519081900360640190fd5b600a54604080517fa9059cbb000000000000000000000000000000000000000000000000000000008152600160a060020a0392831660048201526024810188905290519185169163a9059cbb916044808201926020929091908290030181600087803b1580156125ab57600080fd5b505af11580156125bf573d6000803e3d6000fd5b505050506040513d60208110156125d557600080fd5b50505050505b6125e482610f29565b611c9f5760405160e560020a62461bcd0281526004018080602001828103825260298152602001806129246029913960400191505060405180910390fd5b600854604080517f41976e09000000000000000000000000000000000000000000000000000000008152600160a060020a0384811660048301529151600093849316916341976e09916024808301926020929190829003018186803b15801561268a57600080fd5b505afa15801561269e573d6000803e3d6000fd5b505050506040513d60208110156126b457600080fd5b50519050606481108015906126d657506c0c9f2c9cd04674edea400000008111155b610b1757600080fd5b60008115806126fa575050808202828282816126f757fe5b05145b610b175760405160e560020a62461bcd0281526004018080602001828103825260238152602001806128db6023913960400191505060405180910390fd5b61279b8280548060200260200160405190810160405280929190818152602001828054801561279057602002820191906000526020600020905b8154600160a060020a03168152600190910190602001808311612772575b5050505050826120d0565b6127d857815460018101835560008381526020902001805473ffffffffffffffffffffffffffffffffffffffff1916600160a060020a0383161790555b5050565b600160a060020a0381166128245760405160e560020a62461bcd0281526004018080602001828103825260268152602001806128fe6026913960400191505060405180910390fd5b60008054604051600160a060020a038085169361010090930416917f8be0079c531659141344cd1fd0a4f28419497f9722a3daafe3b4186f6b6457e091a360008054600160a060020a039092166101000274ffffffffffffffffffffffffffffffffffffffff0019909216919091179055565b8154818355818111156128bb576000838152602090206128bb9181019083016128c0565b505050565b61098d91905b80821115611c9f57600081556001016128c656fe53616665496e743235363a206d756c7469706c69636174696f6e206f766572666c6f774f776e61626c653a206e6577206f776e657220697320746865207a65726f2061646472657373696e70757420616d6f756e74206973206f7574206f6620696e70757420616d6f756e742072616e6765536166654d6174683a206d756c7469706c69636174696f6e206f766572666c6f774f776e61626c653a2063616c6c6572206973206e6f7420746865206f776e6572416c6c6f77616e636573203a2075736572277320616c6c6f77616e636520697320756e73756666696369656e7421a265627a7a72315820357214f9158b17899d74178a8c64f25f0d9db8d1760caf2a1111edd707e4202164736f6c63430005100032",
  "source": "pragma solidity =0.5.16;\r\nimport \"../modules/SafeMath.sol\";\r\nimport \"../modules/SafeInt256.sol\";\r\nimport \"./ManagerData.sol\";\r\n/**\r\n * @title collateral calculate module\r\n * @dev A smart-contract which has operations of collateral and methods of calculate collateral occupation.\r\n *\r\n */\r\ncontract CollateralCal is ManagerData {\r\n    using SafeMath for uint256;\r\n    using SafeInt256 for int256;\r\n    /**\r\n     * @dev Retrieve user's current total worth, priced in USD.\r\n     * @param account input retrieve account\r\n     */\r\n    function getUserTotalWorth(address account)public view returns (uint256){\r\n        return getTokenNetworth().mul(_FPTCoin.balanceOf(account)).add(_FPTCoin.lockedWorthOf(account));\r\n    }\r\n    /**\r\n     * @dev Retrieve FPTCoin's net worth, priced in USD.\r\n     */\r\n    function getTokenNetworth() public view returns (uint256){\r\n        uint256 _totalSupply = _FPTCoin.totalSupply();\r\n        if (_totalSupply == 0){\r\n            return 1e8;\r\n        }\r\n        uint256 netWorth = getUnlockedCollateral()/_totalSupply;\r\n        return netWorth>100 ? netWorth : 100;\r\n    }\r\n    /**\r\n     * @dev Deposit collateral in this pool from user.\r\n     * @param amount the amount of collateral to deposit.\r\n     */\r\n    function addCollateral(uint256 amount) nonReentrant notHalted  public payable {\r\n        amount = getPayableAmount(amount);\r\n        uint256 fee = _collateralPool.addTransactionFee(amount,3);\r\n        amount = amount-fee;\r\n        uint256 price = oraclePrice(collateral);\r\n        uint256 userPaying = price*amount;\r\n        require(checkAllowance(msg.sender,(_collateralPool.getUserPayingUsd(msg.sender)+userPaying)/1e8),\r\n            \"Allowances : user's allowance is unsufficient!\");\r\n        uint256 mintAmount = userPaying/getTokenNetworth();\r\n        _collateralPool.addCollateralBalance(amount);\r\n        _collateralPool.addUserInputCollateral(msg.sender,amount);\r\n         _collateralPool.addNetWorthBalance(int256(amount));\r\n        emit AddCollateral(msg.sender,amount,mintAmount);\r\n        _FPTCoin.mint(msg.sender,mintAmount);\r\n    }\r\n    /**\r\n     * @dev redeem collateral from this pool, user can input the prioritized collateral,he will get this coin,\r\n     * if this coin is unsufficient, he will get others collateral which in whitelist.\r\n     * @param tokenAmount the amount of FPTCoin want to redeem.\r\n     */\r\n    function redeemCollateral(uint256 tokenAmount,address collateral) nonReentrant notHalted InRange(tokenAmount) public {\r\n        require(checkAddressPermission(collateral,allowRedeemCollateral) , \"settlement is unsupported token\");\r\n        uint256 lockedAmount = _FPTCoin.lockedBalanceOf(msg.sender);\r\n        require(_FPTCoin.balanceOf(msg.sender)+lockedAmount>=tokenAmount,\"SCoin balance is insufficient!\");\r\n        uint256 leftCollateral = getLeftCollateral();\r\n        (uint256 burnAmount,uint256 redeemWorth) = _FPTCoin.redeemLockedCollateral(msg.sender,tokenAmount,leftCollateral);\r\n//        tokenAmount -= burnAmount;\r\n        if (tokenAmount > burnAmount){\r\n            leftCollateral -= redeemWorth;\r\n            \r\n            if (lockedAmount > 0){\r\n                tokenAmount = tokenAmount > lockedAmount ? tokenAmount - lockedAmount : 0;\r\n            }\r\n            (uint256 newRedeem,uint256 newWorth) = _redeemCollateral(tokenAmount,leftCollateral);\r\n            if(newRedeem>0){\r\n                burnAmount = newRedeem;\r\n                redeemWorth += newWorth;\r\n            }\r\n        }else{\r\n            burnAmount = 0;\r\n        }\r\n        _redeemCollateralWorth(redeemWorth);\r\n        if (burnAmount>0){\r\n            _FPTCoin.burn(msg.sender, burnAmount);\r\n        }\r\n    }\r\n    /**\r\n     * @dev The subfunction of redeem collateral.\r\n     * @param leftAmount the left amount of FPTCoin want to redeem.\r\n     * @param leftCollateral The left collateral which can be redeemed, priced in USD.\r\n     */\r\n    function _redeemCollateral(uint256 leftAmount,uint256 leftCollateral)internal returns (uint256,uint256){\r\n        uint256 tokenNetWorth = getTokenNetworth();\r\n        uint256 leftWorth = leftAmount*tokenNetWorth;        \r\n        if (leftWorth > leftCollateral){\r\n            uint256 newRedeem = leftCollateral/tokenNetWorth;\r\n            uint256 newWorth = newRedeem*tokenNetWorth;\r\n            uint256 locked = leftAmount - newRedeem;\r\n            _FPTCoin.addlockBalance(msg.sender,locked,locked*tokenNetWorth);\r\n            return (newRedeem,newWorth);\r\n        }\r\n        return (leftAmount,leftWorth);\r\n    }\r\n\r\n    /**\r\n     * @dev The subfunction of redeem collateral. Calculate all redeem count and tranfer.\r\n     * @param redeemWorth user redeem worth, priced in USD.\r\n     */\r\n    function _redeemCollateralWorth(uint256 redeemWorth) internal {\r\n        if (redeemWorth == 0){\r\n            return;\r\n        }\r\n        emit RedeemCollateral(msg.sender,redeemWorth);\r\n        uint256 price =oraclePrice(collateral);\r\n        _collateralPool.transferPaybackAndFee(msg.sender,redeemWorth/price,4);\r\n    }\r\n\r\n    /**\r\n     * @dev Retrieve the occupied collateral worth, multiplied by minimum collateral rate, priced in USD. \r\n     */\r\n    function getOccupiedCollateral() public view returns(uint256){\r\n        uint256 totalOccupied = _optionsPool.getTotalOccupiedCollateral();\r\n        return calculateCollateral(totalOccupied);\r\n    }\r\n    /**\r\n     * @dev Retrieve the available collateral worth, the worth of collateral which can used for buy options, priced in USD. \r\n     */\r\n    function getAvailableCollateral()public view returns(uint256){\r\n        return safeSubCollateral(getUnlockedCollateral(),getOccupiedCollateral());\r\n    }\r\n    /**\r\n     * @dev Retrieve the left collateral worth, the worth of collateral which can used for redeem collateral, priced in USD. \r\n     */\r\n    function getLeftCollateral()public view returns(uint256){\r\n        return safeSubCollateral(getTotalCollateral(),getOccupiedCollateral());\r\n    }\r\n    /**\r\n     * @dev Retrieve the unlocked collateral worth, the worth of collateral which currently used for options, priced in USD. \r\n     */\r\n    function getUnlockedCollateral()public view returns(uint256){\r\n        return safeSubCollateral(getTotalCollateral(),_FPTCoin.getTotalLockedWorth());\r\n    }\r\n    /**\r\n     * @dev The auxiliary function for collateral worth subtraction. \r\n     */\r\n    function safeSubCollateral(uint256 allCollateral,uint256 subCollateral)internal pure returns(uint256){\r\n        return allCollateral > subCollateral ? allCollateral - subCollateral : 0;\r\n    }\r\n    /**\r\n     * @dev The auxiliary function for calculate option occupied. \r\n     * @param strikePrice option's strike price\r\n     * @param underlyingPrice option's underlying price\r\n     * @param amount option's amount\r\n     * @param optType option's type, 0 for call, 1 for put.\r\n     */\r\n    function calOptionsOccupied(uint256 strikePrice,uint256 underlyingPrice,uint256 amount,uint8 optType)public view returns(uint256){\r\n        uint256 totalOccupied = 0;\r\n        if ((optType == 0) == (strikePrice>underlyingPrice)){ // call\r\n            totalOccupied = strikePrice*amount;\r\n        } else {\r\n            totalOccupied = underlyingPrice*amount;\r\n        }\r\n        return calculateCollateral(totalOccupied);\r\n    }\r\n    /**\r\n     * @dev Retrieve the total collateral worth, priced in USD. \r\n     */\r\n    function getTotalCollateral()public view returns(uint256){\r\n        int256 netWorth = _collateralPool.getRealBalance();\r\n        if (netWorth > 0){\r\n            int256 price = int256(oraclePrice(collateral));\r\n            return uint256(price.mul(netWorth));\r\n        }else{\r\n            return 0;\r\n        }\r\n\r\n    }\r\n    /**\r\n     * @dev Retrieve the balance of collateral, the auxiliary function for the total collateral calculation. \r\n     */\r\n    function getRealBalance()public view returns(int256){\r\n        return _collateralPool.getRealBalance();\r\n    }\r\n    function getNetWorthBalance()public view returns(uint256){\r\n        return _collateralPool.getNetWorthBalance();\r\n    }\r\n    /**\r\n     * @dev the auxiliary function for getting user's transer\r\n     */\r\n    function getPayableAmount(uint256 settlementAmount) internal returns (uint256) {\r\n        if (collateral == address(0)){\r\n            settlementAmount = msg.value;\r\n            address payable poolAddr = address(uint160(address(_collateralPool)));\r\n            poolAddr.transfer(settlementAmount);\r\n        }else if (settlementAmount > 0){\r\n            IERC20 oToken = IERC20(collateral);\r\n            uint256 preBalance = oToken.balanceOf(address(this));\r\n            oToken.transferFrom(msg.sender, address(this), settlementAmount);\r\n            uint256 afterBalance = oToken.balanceOf(address(this));\r\n            require(afterBalance-preBalance==settlementAmount,\"settlement token transfer error!\");\r\n            oToken.transfer(address(_collateralPool),settlementAmount);\r\n        }\r\n        require(isInputAmountInRange(settlementAmount),\"input amount is out of input amount range\");\r\n        return settlementAmount;\r\n    }\r\n\r\n    /**\r\n     * @dev the auxiliary function for collateral calculation\r\n     */\r\n    function calculateCollateral(uint256 amount)internal view returns (uint256){\r\n        return collateralRate*amount/1000;\r\n    }\r\n}",
  "sourcePath": "C:\\work\\solidity\\finnexusOptions_V2.1\\contracts\\OptionsManager\\CollateralCal.sol",
  "compiler": {
    "name": "solc",
    "version": "0.5.16+commit.9c3226ce.Emscripten.clang"
  },
  "schemaVersion": "3.1.0",
  "updatedAt": "2020-10-24T10:45:23.281Z",
  "devdoc": {
    "details": "A smart-contract which has operations of collateral and methods of calculate collateral occupation.  ",
    "methods": {
      "addCollateral(uint256)": {
        "details": "Deposit collateral in this pool from user.",
        "params": {
          "amount": "the amount of collateral to deposit."
        }
      },
      "addWhiteList(address)": {
        "details": "Implementation of add an eligible address into the whitelist.",
        "params": {
          "addAddress": "new eligible address."
        }
      },
      "calOptionsOccupied(uint256,uint256,uint256,uint8)": {
        "details": "The auxiliary function for calculate option occupied. ",
        "params": {
          "amount": "option's amount",
          "optType": "option's type, 0 for call, 1 for put.",
          "strikePrice": "option's strike price",
          "underlyingPrice": "option's underlying price"
        }
      },
      "getAvailableCollateral()": {
        "details": "Retrieve the available collateral worth, the worth of collateral which can used for buy options, priced in USD. "
      },
      "getInputAmountRange()": {
        "details": "get the valid range of input amount"
      },
      "getLeftCollateral()": {
        "details": "Retrieve the left collateral worth, the worth of collateral which can used for redeem collateral, priced in USD. "
      },
      "getOccupiedCollateral()": {
        "details": "Retrieve the occupied collateral worth, multiplied by minimum collateral rate, priced in USD. "
      },
      "getRealBalance()": {
        "details": "Retrieve the balance of collateral, the auxiliary function for the total collateral calculation. "
      },
      "getTokenNetworth()": {
        "details": "Retrieve FPTCoin's net worth, priced in USD."
      },
      "getTotalCollateral()": {
        "details": "Retrieve the total collateral worth, priced in USD. "
      },
      "getUnlockedCollateral()": {
        "details": "Retrieve the unlocked collateral worth, the worth of collateral which currently used for options, priced in USD. "
      },
      "getUserTotalWorth(address)": {
        "details": "Retrieve user's current total worth, priced in USD.",
        "params": {
          "account": "input retrieve account"
        }
      },
      "getWhiteList()": {
        "details": "Implementation of getting the eligible whitelist."
      },
      "isEligibleAddress(address)": {
        "details": "Implementation of testing whether the input address is eligible.",
        "params": {
          "tmpAddress": "input address for testing."
        }
      },
      "isInputAmountInRange(uint256)": {
        "details": "Determine whether the input amount is within the valid range",
        "params": {
          "Amount": "Test value which is user input"
        }
      },
      "isOwner()": {
        "details": "Returns true if the caller is the current owner."
      },
      "owner()": {
        "details": "Returns the address of the current owner."
      },
      "redeemCollateral(uint256,address)": {
        "details": "redeem collateral from this pool, user can input the prioritized collateral,he will get this coin, if this coin is unsufficient, he will get others collateral which in whitelist.",
        "params": {
          "tokenAmount": "the amount of FPTCoin want to redeem."
        }
      },
      "removeWhiteList(address)": {
        "details": "Implementation of revoke an invalid address from the whitelist.",
        "params": {
          "removeAddress": "revoked address."
        }
      },
      "renounceOwnership()": {
        "details": "Leaves the contract without owner. It will not be possible to call `onlyOwner` functions anymore. Can only be called by the current owner.      * NOTE: Renouncing ownership will leave the contract without an owner, thereby removing any functionality that is only available to the owner."
      },
      "setInputAmountRange(uint256,uint256)": {
        "details": "set the valid range of input amount",
        "params": {
          "_maxAmount": "the maximum input amount limit",
          "_minAmount": "the minimum input amount limit"
        }
      },
      "transferOwnership(address)": {
        "details": "Transfers ownership of the contract to a new account (`newOwner`). Can only be called by the current owner."
      }
    },
    "title": "collateral calculate module"
  },
  "userdoc": {
    "methods": {
      "approve(address,uint256)": {
        "notice": "     * Requirements:      * - `spender` cannot be the zero address."
      },
      "setHalt(bool)": {
        "notice": "function Emergency situation that requires contribution period to stop or not."
      }
    }
  }
}