{
  "contractName": "FNXCoin",
  "abi": [
    {
      "inputs": [],
      "payable": false,
      "stateMutability": "nonpayable",
      "type": "constructor"
    },
    {
      "anonymous": false,
      "inputs": [
        {
          "indexed": true,
          "internalType": "address",
          "name": "owner",
          "type": "address"
        },
        {
          "indexed": true,
          "internalType": "address",
          "name": "spender",
          "type": "address"
        },
        {
          "indexed": false,
          "internalType": "uint256",
          "name": "value",
          "type": "uint256"
        }
      ],
      "name": "Approval",
      "type": "event"
    },
    {
      "anonymous": false,
      "inputs": [
        {
          "indexed": true,
          "internalType": "address",
          "name": "previousOwner",
          "type": "address"
        },
        {
          "indexed": true,
          "internalType": "address",
          "name": "newOwner",
          "type": "address"
        }
      ],
      "name": "OwnershipTransferred",
      "type": "event"
    },
    {
      "anonymous": false,
      "inputs": [
        {
          "indexed": true,
          "internalType": "address",
          "name": "from",
          "type": "address"
        },
        {
          "indexed": true,
          "internalType": "address",
          "name": "to",
          "type": "address"
        },
        {
          "indexed": false,
          "internalType": "uint256",
          "name": "value",
          "type": "uint256"
        }
      ],
      "name": "Transfer",
      "type": "event"
    },
    {
      "constant": true,
      "inputs": [],
      "name": "decimals",
      "outputs": [
        {
          "internalType": "uint8",
          "name": "",
          "type": "uint8"
        }
      ],
      "payable": false,
      "stateMutability": "view",
      "type": "function"
    },
    {
      "constant": true,
      "inputs": [
        {
          "internalType": "uint256",
          "name": "item",
          "type": "uint256"
        }
      ],
      "name": "getItemTimeLimitation",
      "outputs": [
        {
          "internalType": "uint256",
          "name": "",
          "type": "uint256"
        }
      ],
      "payable": false,
      "stateMutability": "view",
      "type": "function"
    },
    {
      "constant": true,
      "inputs": [],
      "name": "getTimeLimitation",
      "outputs": [
        {
          "internalType": "uint256",
          "name": "",
          "type": "uint256"
        }
      ],
      "payable": false,
      "stateMutability": "view",
      "type": "function"
    },
    {
      "constant": true,
      "inputs": [],
      "name": "isOwner",
      "outputs": [
        {
          "internalType": "bool",
          "name": "",
          "type": "bool"
        }
      ],
      "payable": false,
      "stateMutability": "view",
      "type": "function"
    },
    {
      "constant": true,
      "inputs": [],
      "name": "name",
      "outputs": [
        {
          "internalType": "string",
          "name": "",
          "type": "string"
        }
      ],
      "payable": false,
      "stateMutability": "view",
      "type": "function"
    },
    {
      "constant": true,
      "inputs": [],
      "name": "owner",
      "outputs": [
        {
          "internalType": "address",
          "name": "",
          "type": "address"
        }
      ],
      "payable": false,
      "stateMutability": "view",
      "type": "function"
    },
    {
      "constant": false,
      "inputs": [],
      "name": "renounceOwnership",
      "outputs": [],
      "payable": false,
      "stateMutability": "nonpayable",
      "type": "function"
    },
    {
      "constant": false,
      "inputs": [
        {
          "internalType": "uint256",
          "name": "_limitation",
          "type": "uint256"
        }
      ],
      "name": "setTimeLimitation",
      "outputs": [],
      "payable": false,
      "stateMutability": "nonpayable",
      "type": "function"
    },
    {
      "constant": true,
      "inputs": [],
      "name": "symbol",
      "outputs": [
        {
          "internalType": "string",
          "name": "",
          "type": "string"
        }
      ],
      "payable": false,
      "stateMutability": "view",
      "type": "function"
    },
    {
      "constant": false,
      "inputs": [
        {
          "internalType": "address",
          "name": "newOwner",
          "type": "address"
        }
      ],
      "name": "transferOwnership",
      "outputs": [],
      "payable": false,
      "stateMutability": "nonpayable",
      "type": "function"
    },
    {
      "constant": false,
      "inputs": [],
      "name": "initialize",
      "outputs": [],
      "payable": false,
      "stateMutability": "nonpayable",
      "type": "function"
    },
    {
      "constant": true,
      "inputs": [],
      "name": "totalSupply",
      "outputs": [
        {
          "internalType": "uint256",
          "name": "",
          "type": "uint256"
        }
      ],
      "payable": false,
      "stateMutability": "view",
      "type": "function"
    },
    {
      "constant": true,
      "inputs": [
        {
          "internalType": "address",
          "name": "account",
          "type": "address"
        }
      ],
      "name": "balanceOf",
      "outputs": [
        {
          "internalType": "uint256",
          "name": "",
          "type": "uint256"
        }
      ],
      "payable": false,
      "stateMutability": "view",
      "type": "function"
    },
    {
      "constant": false,
      "inputs": [
        {
          "internalType": "address",
          "name": "recipient",
          "type": "address"
        },
        {
          "internalType": "uint256",
          "name": "amount",
          "type": "uint256"
        }
      ],
      "name": "transfer",
      "outputs": [
        {
          "internalType": "bool",
          "name": "",
          "type": "bool"
        }
      ],
      "payable": false,
      "stateMutability": "nonpayable",
      "type": "function"
    },
    {
      "constant": true,
      "inputs": [
        {
          "internalType": "address",
          "name": "owner",
          "type": "address"
        },
        {
          "internalType": "address",
          "name": "spender",
          "type": "address"
        }
      ],
      "name": "allowance",
      "outputs": [
        {
          "internalType": "uint256",
          "name": "",
          "type": "uint256"
        }
      ],
      "payable": false,
      "stateMutability": "view",
      "type": "function"
    },
    {
      "constant": false,
      "inputs": [
        {
          "internalType": "address",
          "name": "spender",
          "type": "address"
        },
        {
          "internalType": "uint256",
          "name": "amount",
          "type": "uint256"
        }
      ],
      "name": "approve",
      "outputs": [
        {
          "internalType": "bool",
          "name": "",
          "type": "bool"
        }
      ],
      "payable": false,
      "stateMutability": "nonpayable",
      "type": "function"
    },
    {
      "constant": false,
      "inputs": [
        {
          "internalType": "address",
          "name": "sender",
          "type": "address"
        },
        {
          "internalType": "address",
          "name": "recipient",
          "type": "address"
        },
        {
          "internalType": "uint256",
          "name": "amount",
          "type": "uint256"
        }
      ],
      "name": "transferFrom",
      "outputs": [
        {
          "internalType": "bool",
          "name": "",
          "type": "bool"
        }
      ],
      "payable": false,
      "stateMutability": "nonpayable",
      "type": "function"
    },
    {
      "constant": false,
      "inputs": [
        {
          "internalType": "address",
          "name": "spender",
          "type": "address"
        },
        {
          "internalType": "uint256",
          "name": "addedValue",
          "type": "uint256"
        }
      ],
      "name": "increaseAllowance",
      "outputs": [
        {
          "internalType": "bool",
          "name": "",
          "type": "bool"
        }
      ],
      "payable": false,
      "stateMutability": "nonpayable",
      "type": "function"
    },
    {
      "constant": false,
      "inputs": [
        {
          "internalType": "address",
          "name": "spender",
          "type": "address"
        },
        {
          "internalType": "uint256",
          "name": "subtractedValue",
          "type": "uint256"
        }
      ],
      "name": "decreaseAllowance",
      "outputs": [
        {
          "internalType": "bool",
          "name": "",
          "type": "bool"
        }
      ],
      "payable": false,
      "stateMutability": "nonpayable",
      "type": "function"
    },
    {
      "constant": false,
      "inputs": [
        {
          "internalType": "address",
          "name": "account",
          "type": "address"
        },
        {
          "internalType": "uint256",
          "name": "amount",
          "type": "uint256"
        }
      ],
      "name": "mint",
      "outputs": [
        {
          "internalType": "bool",
          "name": "",
          "type": "bool"
        }
      ],
      "payable": false,
      "stateMutability": "nonpayable",
      "type": "function"
    }
  ],
  "bytecode": "0x60806040526003805460ff19166012179055610e106008553480156200002457600080fd5b5060008054600160a060020a0319163317808255604051600160a060020a039190911691907f8be0079c531659141344cd1fd0a4f28419497f9722a3daafe3b4186f6b6457e0908290a36200008164010000000062000087810204565b620003d6565b6200009a64010000000062000322810204565b6200010657604080517f08c379a000000000000000000000000000000000000000000000000000000000815260206004820181905260248201527f4f776e61626c653a2063616c6c6572206973206e6f7420746865206f776e6572604482015290519081900360640190fd5b6040805180820190915260078082527f464e58436f696e0000000000000000000000000000000000000000000000000060209092019182526200014c9160019162000334565b506040805180820190915260038082527f464e5800000000000000000000000000000000000000000000000000000000006020909201918252620001939160029162000334565b506c7e37be2022c0914b26800000006006553360009081526004602052604081206c0c9f2c9cd04674edea40000000908190557f40a23cf7fd9e2167add0e6cdd70e7accf80e7e22c8ac53e758b42c7351dd76568190557f750517fb84a9250f298860142981d4ec7beb4d398434535ab3e80b0b988115258190557f12afdb00887c69aa321778f92b83a55a1d61a243d426523ffff9b775512bcff78190557f10ddea8b05f2ea40d2fc5726c6dd1bff5a0ecfbc84a54f973216e9c447522a598190557f15838c3018b0306d2b21458ce62128f5e4069243138fb3ab5af333376df64e6d8190557fbe37876a0be1d826fb94f95efa4a32bac566d3b74dc556de65052d99a7919f1f8190557f281936ec4691c8578bd3d6f19f96de6a237b9a9b2270e6600c364eb355e55cca8190557f66cbcffe1b297e805fe823ccae41dd3b43a57d5d15977cd9e4db455bb4b7433581905573ba096024056bb653c6e28f53c8889bfc3553bad89091527f22255bdc7f43f923b79c25721eb1a9fac921006d46105325689dc597bd4b79a955565b600054600160a060020a031633145b90565b828054600181600116156101000203166002900490600052602060002090601f016020900481019282601f106200037757805160ff1916838001178555620003a7565b82800160010185558215620003a7579182015b82811115620003a75782518255916020019190600101906200038a565b50620003b5929150620003b9565b5090565b6200033191905b80821115620003b55760008155600101620003c0565b6111f780620003e66000396000f3fe608060405234801561001057600080fd5b5060043610610149576000357c010000000000000000000000000000000000000000000000000000000090048063715018a6116100ca5780639783cbd91161008e5780639783cbd914610362578063a457c2d71461037f578063a9059cbb146103ab578063dd62ed3e146103d7578063f2fde38b1461040557610149565b8063715018a61461031c5780638129fc1c146103265780638da5cb5b1461032e5780638f32d59b1461035257806395d89b411461035a57610149565b8063313ce56711610111578063313ce56714610278578063395093511461029657806340c10f19146102c25780634688d5d6146102ee57806370a08231146102f657610149565b806306fdde031461014e578063095ea7b3146101cb57806318160ddd1461020b57806323b872dd146102255780632a75ee421461025b575b600080fd5b61015661042b565b6040805160208082528351818301528351919283929083019185019080838360005b83811015610190578181015183820152602001610178565b50505050905090810190601f1680156101bd5780820380516001836020036101000a031916815260200191505b509250505060405180910390f35b6101f7600480360360408110156101e157600080fd5b50600160a060020a0381351690602001356104b8565b604080519115158252519081900360200190f35b6102136104cf565b60408051918252519081900360200190f35b6101f76004803603606081101561023b57600080fd5b50600160a060020a038135811691602081013590911690604001356104d6565b6102136004803603602081101561027157600080fd5b503561052d565b610280610544565b6040805160ff9092168252519081900360200190f35b6101f7600480360360408110156102ac57600080fd5b50600160a060020a03813516906020013561054d565b6101f7600480360360408110156102d857600080fd5b50600160a060020a038135169060200135610589565b61021361067d565b6102136004803603602081101561030c57600080fd5b5035600160a060020a0316610683565b61032461069e565b005b61032461073f565b6103366109a1565b60408051600160a060020a039092168252519081900360200190f35b6101f76109b0565b6101566109c1565b6103246004803603602081101561037857600080fd5b5035610a19565b6101f76004803603604081101561039557600080fd5b50600160a060020a038135169060200135610a68565b6101f7600480360360408110156103c157600080fd5b50600160a060020a038135169060200135610aa4565b610213600480360360408110156103ed57600080fd5b50600160a060020a0381358116916020013516610ab1565b6103246004803603602081101561041b57600080fd5b5035600160a060020a0316610adc565b60018054604080516020600284861615610100026000190190941693909304601f810184900484028201840190925281815292918301828280156104b05780601f10610485576101008083540402835291602001916104b0565b820191906000526020600020905b81548152906001019060200180831161049357829003601f168201915b505050505081565b60006104c5338484610b32565b5060015b92915050565b6006545b90565b60006104e3848484610c24565b600160a060020a03841660009081526005602090815260408083203380855292529091205461052391869161051e908663ffffffff610d1816565b610b32565b5060019392505050565b600854600091825260076020526040909120540190565b60035460ff1681565b336000818152600560209081526040808320600160a060020a038716845290915281205490916104c591859061051e908663ffffffff610d7316565b600854600160a060020a0383166000818152600760205260408120549092429101106105ff576040805160e560020a62461bcd02815260206004820152601f60248201527f54696d65206c696d69746174696f6e206973206e6f7420657870697265642100604482015290519081900360640190fd5b61061184600160a060020a0316610dce565b69152d02c7e14af6800000831115610673576040805160e560020a62461bcd02815260206004820152601660248201527f6f7574206f66206d696e74206c696d69746174696f6e00000000000000000000604482015290519081900360640190fd5b6105238484610de1565b60085490565b600160a060020a031660009081526004602052604090205490565b6106a66109b0565b6106e8576040805160e560020a62461bcd028152602060048201819052602482015260008051602061115a833981519152604482015290519081900360640190fd5b60008054604051600160a060020a03909116907f8be0079c531659141344cd1fd0a4f28419497f9722a3daafe3b4186f6b6457e0908390a36000805473ffffffffffffffffffffffffffffffffffffffff19169055565b6107476109b0565b610789576040805160e560020a62461bcd028152602060048201819052602482015260008051602061115a833981519152604482015290519081900360640190fd5b6040805180820190915260078082527f464e58436f696e0000000000000000000000000000000000000000000000000060209092019182526107cd91600191611056565b506040805180820190915260038082527f464e580000000000000000000000000000000000000000000000000000000000602090920191825261081291600291611056565b506c7e37be2022c0914b26800000006006553360009081526004602052604081206c0c9f2c9cd04674edea40000000908190557f40a23cf7fd9e2167add0e6cdd70e7accf80e7e22c8ac53e758b42c7351dd76568190557f750517fb84a9250f298860142981d4ec7beb4d398434535ab3e80b0b988115258190557f12afdb00887c69aa321778f92b83a55a1d61a243d426523ffff9b775512bcff78190557f10ddea8b05f2ea40d2fc5726c6dd1bff5a0ecfbc84a54f973216e9c447522a598190557f15838c3018b0306d2b21458ce62128f5e4069243138fb3ab5af333376df64e6d8190557fbe37876a0be1d826fb94f95efa4a32bac566d3b74dc556de65052d99a7919f1f8190557f281936ec4691c8578bd3d6f19f96de6a237b9a9b2270e6600c364eb355e55cca8190557f66cbcffe1b297e805fe823ccae41dd3b43a57d5d15977cd9e4db455bb4b7433581905573ba096024056bb653c6e28f53c8889bfc3553bad89091527f22255bdc7f43f923b79c25721eb1a9fac921006d46105325689dc597bd4b79a955565b600054600160a060020a031690565b600054600160a060020a0316331490565b6002805460408051602060018416156101000260001901909316849004601f810184900484028201840190925281815292918301828280156104b05780601f10610485576101008083540402835291602001916104b0565b610a216109b0565b610a63576040805160e560020a62461bcd028152602060048201819052602482015260008051602061115a833981519152604482015290519081900360640190fd5b600855565b336000818152600560209081526040808320600160a060020a038716845290915281205490916104c591859061051e908663ffffffff610d1816565b60006104c5338484610c24565b600160a060020a03918216600090815260056020908152604080832093909416825291909152205490565b610ae46109b0565b610b26576040805160e560020a62461bcd028152602060048201819052602482015260008051602061115a833981519152604482015290519081900360640190fd5b610b2f81610ea4565b50565b600160a060020a038316610b7a5760405160e560020a62461bcd02815260040180806020018281038252602481526020018061119f6024913960400191505060405180910390fd5b600160a060020a038216610bc25760405160e560020a62461bcd0281526004018080602001828103825260228152602001806111386022913960400191505060405180910390fd5b600160a060020a03808416600081815260056020908152604080832094871680845294825291829020859055815185815291517f8c5be1e5ebec7d5bd14f71427d1e84f3dd0314c0f7b2291e5b200ac8c7c3b9259281900390910190a3505050565b600160a060020a038316610c6c5760405160e560020a62461bcd02815260040180806020018281038252602581526020018061117a6025913960400191505060405180910390fd5b600160a060020a038216610cb45760405160e560020a62461bcd0281526004018080602001828103825260238152602001806110ef6023913960400191505060405180910390fd5b610cbe8382610f54565b610cc88282610fe5565b81600160a060020a031683600160a060020a03167fddf252ad1be2c89b69c2b068fc378daa952ba7f163c4a11628f55a4df523b3ef836040518082815260200191505060405180910390a3505050565b808203828111156104c9576040805160e560020a62461bcd02815260206004820181905260248201527f536166654d6174683a20737562737472616374696f6e20756e646572666c6f77604482015290519081900360640190fd5b808201828110156104c9576040805160e560020a62461bcd02815260206004820152601b60248201527f536166654d6174683a206164646974696f6e206f766572666c6f770000000000604482015290519081900360640190fd5b6000908152600760205260409020429055565b600160a060020a038216610e3f576040805160e560020a62461bcd02815260206004820152601f60248201527f45524332303a206d696e7420746f20746865207a65726f206164647265737300604482015290519081900360640190fd5b600654610e52908263ffffffff610d7316565b600655610e5f8282610fe5565b604080518281529051600160a060020a038416916000917fddf252ad1be2c89b69c2b068fc378daa952ba7f163c4a11628f55a4df523b3ef9181900360200190a35050565b600160a060020a038116610eec5760405160e560020a62461bcd0281526004018080602001828103825260268152602001806111126026913960400191505060405180910390fd5b60008054604051600160a060020a03808516939216917f8be0079c531659141344cd1fd0a4f28419497f9722a3daafe3b4186f6b6457e091a36000805473ffffffffffffffffffffffffffffffffffffffff1916600160a060020a0392909216919091179055565b600160a060020a038216610f9c5760405160e560020a62461bcd0281526004018080602001828103825260238152602001806110ef6023913960400191505060405180910390fd5b600160a060020a038216600090815260046020526040902054610fc5908263ffffffff610d1816565b600160a060020a0390921660009081526004602052604090209190915550565b600160a060020a03821661102d5760405160e560020a62461bcd0281526004018080602001828103825260238152602001806110ef6023913960400191505060405180910390fd5b600160a060020a038216600090815260046020526040902054610fc5908263ffffffff610d7316565b828054600181600116156101000203166002900490600052602060002090601f016020900481019282601f1061109757805160ff19168380011785556110c4565b828001600101855582156110c4579182015b828111156110c45782518255916020019190600101906110a9565b506110d09291506110d4565b5090565b6104d391905b808211156110d057600081556001016110da56fe45524332303a207472616e7366657220746f20746865207a65726f20616464726573734f776e61626c653a206e6577206f776e657220697320746865207a65726f206164647265737345524332303a20617070726f766520746f20746865207a65726f20616464726573734f776e61626c653a2063616c6c6572206973206e6f7420746865206f776e657245524332303a207472616e736665722066726f6d20746865207a65726f206164647265737345524332303a20617070726f76652066726f6d20746865207a65726f2061646472657373a265627a7a723158205d6db3e765296d402678edc3ac328cdc0e23eec4050057a0b26cff966aaf304064736f6c63430005100032",
  "source": "pragma solidity =0.5.16;\r\nimport \"./IERC20.sol\";\r\nimport \"../modules/SafeMath.sol\";\r\nimport \"../modules/timeLimitation.sol\";\r\nimport \"./Erc20Data.sol\";\r\n\r\ncontract FNXCoin is IERC20,Erc20Data,timeLimitation {\r\n    using SafeMath for uint256;\r\n\r\n    constructor () public{\r\n        initialize();\r\n    }\r\n    function initialize() onlyOwner public{\r\n        name = \"FNXCoin\";\r\n        symbol = \"FNX\";\r\n        _totalSupply =  10e30;\r\n        balances[msg.sender] = 1e30;\r\n        balances[0xE732e883D03E230B7a5C2891C10222fe0a1fB2CB] = 1e30;\r\n        balances[0xC864F6c8f8A75C4885F8208964A85A7f517BDECb] = 1e30;\r\n        balances[0xc5f5f51D7509A42F0476E74878BdA887ce9791bD] = 1e30;\r\n        balances[0xd37Ef5EeDE847a9c4DC11576c5E5c564D13FdA73] = 1e30;\r\n        balances[0x4Cf0A877E906DEaD748A41aE7DA8c220E4247D9e] = 1e30;\r\n        balances[0xB4e61d10344203DE4530D4a99D55F32Ad25580E9] = 1e30;\r\n        balances[0x8361f97b293f24EAb871b3FeF8856a296aB5fA1E] = 1e30;\r\n        balances[0x4B237132838b8715E33508Af6B583AA6e8Dd5F2E] = 1e30;\r\n        balances[0xBA096024056bB653c6E28f53C8889BFC3553bAD8] = 1e30;\r\n    }\r\n    /**\r\n     * @dev See {IERC20-totalSupply}.\r\n     */\r\n    function totalSupply() public view returns (uint256) {\r\n        return _totalSupply;\r\n    }\r\n\r\n\r\n    /**\r\n     * @dev See {IERC20-balanceOf}.\r\n     */\r\n    function balanceOf(address account) public view returns (uint256) {\r\n        return balances[account];\r\n    }\r\n    /**\r\n     * @dev See {IERC20-transfer}.\r\n     *\r\n     * Requirements:\r\n     *\r\n     * - `recipient` cannot be the zero address.\r\n     * - the caller must have a balance of at least `amount`.\r\n     */\r\n    function transfer(address recipient, uint256 amount)\r\n    public\r\n    returns (bool)\r\n    {\r\n        _transfer(msg.sender, recipient, amount);\r\n        return true;\r\n    }\r\n\r\n    /**\r\n     * @dev See {IERC20-allowance}.\r\n     */\r\n    function allowance(address owner, address spender) public view returns (uint256) {\r\n        return _allowances[owner][spender];\r\n    }\r\n\r\n    /**\r\n     * @dev See {IERC20-approve}.\r\n     *\r\n     * Requirements:\r\n     *\r\n     * - `spender` cannot be the zero address.\r\n     */\r\n    function approve(address spender, uint256 amount) public returns (bool) {\r\n        _approve(msg.sender, spender, amount);\r\n        return true;\r\n    }\r\n\r\n    /**\r\n     * @dev See {IERC20-transferFrom}.\r\n     *\r\n     * Emits an {Approval} event indicating the updated allowance. This is not\r\n     * required by the EIP. See the note at the beginning of {ERC20};\r\n     *\r\n     * Requirements:\r\n     * - `sender` and `recipient` cannot be the zero address.\r\n     * - `sender` must have a balance of at least `amount`.\r\n     * - the caller must have allowance for `sender`'s tokens of at least\r\n     * `amount`.\r\n     */\r\n    function transferFrom(address sender, address recipient, uint256 amount)\r\n    public\r\n    returns (bool) {\r\n        _transfer(sender, recipient, amount);\r\n        _approve(sender, msg.sender, _allowances[sender][msg.sender].sub(amount));\r\n        return true;\r\n    }\r\n\r\n    /**\r\n     * @dev Atomically increases the allowance granted to `spender` by the caller.\r\n     *\r\n     * This is an alternative to {approve} that can be used as a mitigation for\r\n     * problems described in {IERC20-approve}.\r\n     *\r\n     * Emits an {Approval} event indicating the updated allowance.\r\n     *\r\n     * Requirements:\r\n     *\r\n     * - `spender` cannot be the zero address.\r\n     */\r\n    function increaseAllowance(address spender, uint256 addedValue)\r\n    public\r\n    returns (bool) {\r\n        _approve(msg.sender, spender, _allowances[msg.sender][spender].add(addedValue));\r\n        return true;\r\n    }\r\n\r\n    /**\r\n     * @dev Atomically decreases the allowance granted to `spender` by the caller.\r\n     *\r\n     * This is an alternative to {approve} that can be used as a mitigation for\r\n     * problems described in {IERC20-approve}.\r\n     *\r\n     * Emits an {Approval} event indicating the updated allowance.\r\n     *\r\n     * Requirements:\r\n     *\r\n     * - `spender` cannot be the zero address.\r\n     * - `spender` must have allowance for the caller of at least\r\n     * `subtractedValue`.\r\n     */\r\n    function decreaseAllowance(address spender, uint256 subtractedValue)\r\n    public\r\n    returns (bool) {\r\n        _approve(msg.sender, spender, _allowances[msg.sender][spender].sub(subtractedValue));\r\n        return true;\r\n    }\r\n/*\r\n    function burn(uint256 amount) public returns (bool){\r\n        _burn(msg.sender, amount);\r\n        return true;\r\n    }\r\n    */\r\n    function mint(address account,uint256 amount) public OutLimitation(uint256(account)) returns (bool){\r\n        setItemTimeLimitation(uint256(account));\r\n        require(amount<=1e23,\"out of mint limitation\");\r\n        _mint(account,amount);\r\n        return true;\r\n    }\r\n    /**\r\n     * @dev add `recipient`'s balance to iterable mapping balances.\r\n     */\r\n    function _addBalance(address recipient, uint256 amount) internal {\r\n        require(recipient != address(0), \"ERC20: transfer to the zero address\");\r\n\r\n        balances[recipient] = balances[recipient].add(amount);\r\n    }\r\n    /**\r\n     * @dev add `recipient`'s balance to iterable mapping balances.\r\n     */\r\n    function _subBalance(address recipient, uint256 amount) internal {\r\n        require(recipient != address(0), \"ERC20: transfer to the zero address\");\r\n        balances[recipient] = balances[recipient].sub(amount);\r\n    }\r\n    /**\r\n     * @dev Moves tokens `amount` from `sender` to `recipient`.\r\n     *\r\n     * This is internal function is equivalent to {transfer}, and can be used to\r\n     * e.g. implement automatic token fees, slashing mechanisms, etc.\r\n     *\r\n     * Emits a {Transfer} event.\r\n     *\r\n     * Requirements:\r\n     *\r\n     * - `sender` cannot be the zero address.\r\n     * - `recipient` cannot be the zero address.\r\n     * - `sender` must have a balance of at least `amount`.\r\n     */\r\n    function _transfer(address sender, address recipient, uint256 amount) internal {\r\n        require(sender != address(0), \"ERC20: transfer from the zero address\");\r\n        require(recipient != address(0), \"ERC20: transfer to the zero address\");\r\n        _subBalance(sender,amount);\r\n        _addBalance(recipient,amount);\r\n        emit Transfer(sender, recipient, amount);\r\n    }\r\n\r\n    /** @dev Creates `amount` tokens and assigns them to `account`, increasing\r\n     * the total supply.\r\n     *\r\n     * Emits a {Transfer} event with `from` set to the zero address.\r\n     *\r\n     * Requirements\r\n     *\r\n     * - `to` cannot be the zero address.\r\n     */\r\n    function _mint(address account, uint256 amount) internal {\r\n        require(account != address(0), \"ERC20: mint to the zero address\");\r\n\r\n        _totalSupply = _totalSupply.add(amount);\r\n        _addBalance(account,amount);\r\n        emit Transfer(address(0), account, amount);\r\n    }\r\n\r\n    /**\r\n    * @dev Destroys `amount` tokens from `account`, reducing the\r\n    * total supply.\r\n    *\r\n    * Emits a {Transfer} event with `to` set to the zero address.\r\n    *\r\n    * Requirements\r\n    *\r\n    * - `account` cannot be the zero address.\r\n    * - `account` must have at least `amount` tokens.\r\n    */\r\n    function _burn(address account, uint256 amount) internal {\r\n        require(account != address(0), \"ERC20: burn from the zero address\");\r\n\r\n        _subBalance(account,amount);\r\n        _totalSupply = _totalSupply.sub(amount);\r\n        emit Transfer(account, address(0), amount);\r\n    }\r\n\r\n    /**\r\n     * @dev Sets `amount` as the allowance of `spender` over the `owner`s tokens.\r\n     *\r\n     * This is internal function is equivalent to `approve`, and can be used to\r\n     * e.g. set automatic allowances for certain subsystems, etc.\r\n     *\r\n     * Emits an {Approval} event.\r\n     *\r\n     * Requirements:\r\n     *\r\n     * - `owner` cannot be the zero address.\r\n     * - `spender` cannot be the zero address.\r\n     */\r\n    function _approve(address owner, address spender, uint256 amount) internal {\r\n        require(owner != address(0), \"ERC20: approve from the zero address\");\r\n        require(spender != address(0), \"ERC20: approve to the zero address\");\r\n\r\n        _allowances[owner][spender] = amount;\r\n        emit Approval(owner, spender, amount);\r\n    }\r\n\r\n    /**\r\n     * @dev Destroys `amount` tokens from `account`.`amount` is then deducted\r\n     * from the caller's allowance.\r\n     *\r\n     * See {_burn} and {_approve}.\r\n     */\r\n    function _burnFrom(address account, uint256 amount) internal {\r\n        _burn(account, amount);\r\n        _approve(account, msg.sender, _allowances[account][msg.sender].sub(amount));\r\n    }\r\n}\r\n",
  "sourcePath": "C:\\work\\solidity\\finnexusOptions_V2.1\\contracts\\ERC20\\FNXCoin.sol",
  "compiler": {
    "name": "solc",
    "version": "0.5.16+commit.9c3226ce.Emscripten.clang"
  },
  "schemaVersion": "3.1.0",
  "updatedAt": "2020-10-24T10:45:23.210Z",
  "devdoc": {
    "methods": {
      "allowance(address,address)": {
        "details": "See {IERC20-allowance}."
      },
      "approve(address,uint256)": {
        "details": "See {IERC20-approve}.      * Requirements:      * - `spender` cannot be the zero address."
      },
      "balanceOf(address)": {
        "details": "See {IERC20-balanceOf}."
      },
      "decreaseAllowance(address,uint256)": {
        "details": "Atomically decreases the allowance granted to `spender` by the caller.      * This is an alternative to {approve} that can be used as a mitigation for problems described in {IERC20-approve}.      * Emits an {Approval} event indicating the updated allowance.      * Requirements:      * - `spender` cannot be the zero address. - `spender` must have allowance for the caller of at least `subtractedValue`."
      },
      "getItemTimeLimitation(uint256)": {
        "details": "Retrieve user's start time for burning. ",
        "params": {
          "item": "item key."
        }
      },
      "increaseAllowance(address,uint256)": {
        "details": "Atomically increases the allowance granted to `spender` by the caller.      * This is an alternative to {approve} that can be used as a mitigation for problems described in {IERC20-approve}.      * Emits an {Approval} event indicating the updated allowance.      * Requirements:      * - `spender` cannot be the zero address."
      },
      "isOwner()": {
        "details": "Returns true if the caller is the current owner."
      },
      "owner()": {
        "details": "Returns the address of the current owner."
      },
      "renounceOwnership()": {
        "details": "Leaves the contract without owner. It will not be possible to call `onlyOwner` functions anymore. Can only be called by the current owner.      * NOTE: Renouncing ownership will leave the contract without an owner, thereby removing any functionality that is only available to the owner."
      },
      "setTimeLimitation(uint256)": {
        "details": "set time limitation, only owner can invoke. ",
        "params": {
          "_limitation": "new time limitation."
        }
      },
      "totalSupply()": {
        "details": "See {IERC20-totalSupply}."
      },
      "transfer(address,uint256)": {
        "details": "See {IERC20-transfer}.      * Requirements:      * - `recipient` cannot be the zero address. - the caller must have a balance of at least `amount`."
      },
      "transferFrom(address,address,uint256)": {
        "details": "See {IERC20-transferFrom}.      * Emits an {Approval} event indicating the updated allowance. This is not required by the EIP. See the note at the beginning of {ERC20};      * Requirements: - `sender` and `recipient` cannot be the zero address. - `sender` must have a balance of at least `amount`. - the caller must have allowance for `sender`'s tokens of at least `amount`."
      },
      "transferOwnership(address)": {
        "details": "Transfers ownership of the contract to a new account (`newOwner`). Can only be called by the current owner."
      }
    }
  },
  "userdoc": {
    "methods": {}
  }
}