{
  "contractName": "FNXMinePool",
  "abi": [
    {
      "inputs": [],
      "payable": false,
      "stateMutability": "nonpayable",
      "type": "constructor"
    },
    {
      "anonymous": false,
      "inputs": [
        {
          "indexed": true,
          "internalType": "address",
          "name": "account",
          "type": "address"
        },
        {
          "indexed": false,
          "internalType": "uint256",
          "name": "amount",
          "type": "uint256"
        }
      ],
      "name": "BurnMiner",
      "type": "event"
    },
    {
      "anonymous": false,
      "inputs": [
        {
          "indexed": true,
          "internalType": "address",
          "name": "account",
          "type": "address"
        },
        {
          "indexed": true,
          "internalType": "address",
          "name": "mineCoin",
          "type": "address"
        },
        {
          "indexed": false,
          "internalType": "uint256",
          "name": "amount",
          "type": "uint256"
        }
      ],
      "name": "BuyingMiner",
      "type": "event"
    },
    {
      "anonymous": false,
      "inputs": [
        {
          "indexed": true,
          "internalType": "address",
          "name": "account",
          "type": "address"
        },
        {
          "indexed": false,
          "internalType": "uint256",
          "name": "amount",
          "type": "uint256"
        }
      ],
      "name": "MintMiner",
      "type": "event"
    },
    {
      "anonymous": false,
      "inputs": [
        {
          "indexed": true,
          "internalType": "address",
          "name": "previousOwner",
          "type": "address"
        },
        {
          "indexed": true,
          "internalType": "address",
          "name": "newOwner",
          "type": "address"
        }
      ],
      "name": "OwnershipTransferred",
      "type": "event"
    },
    {
      "anonymous": false,
      "inputs": [
        {
          "indexed": true,
          "internalType": "address",
          "name": "from",
          "type": "address"
        },
        {
          "indexed": true,
          "internalType": "address",
          "name": "mineCoin",
          "type": "address"
        },
        {
          "indexed": false,
          "internalType": "uint256",
          "name": "value",
          "type": "uint256"
        }
      ],
      "name": "RedeemMineCoin",
      "type": "event"
    },
    {
      "anonymous": false,
      "inputs": [
        {
          "indexed": true,
          "internalType": "address",
          "name": "from",
          "type": "address"
        },
        {
          "indexed": true,
          "internalType": "address",
          "name": "to",
          "type": "address"
        },
        {
          "indexed": false,
          "internalType": "uint256",
          "name": "amount",
          "type": "uint256"
        }
      ],
      "name": "TranserMiner",
      "type": "event"
    },
    {
      "payable": true,
      "stateMutability": "payable",
      "type": "fallback"
    },
    {
      "constant": false,
      "inputs": [
        {
          "internalType": "address",
          "name": "addAddress",
          "type": "address"
        }
      ],
      "name": "addWhiteList",
      "outputs": [],
      "payable": false,
      "stateMutability": "nonpayable",
      "type": "function"
    },
    {
      "constant": true,
      "inputs": [
        {
          "internalType": "address",
          "name": "tmpAddress",
          "type": "address"
        },
        {
          "internalType": "uint256",
          "name": "state",
          "type": "uint256"
        }
      ],
      "name": "checkAddressPermission",
      "outputs": [
        {
          "internalType": "bool",
          "name": "",
          "type": "bool"
        }
      ],
      "payable": false,
      "stateMutability": "view",
      "type": "function"
    },
    {
      "constant": true,
      "inputs": [],
      "name": "getManager",
      "outputs": [
        {
          "internalType": "address",
          "name": "",
          "type": "address"
        }
      ],
      "payable": false,
      "stateMutability": "view",
      "type": "function"
    },
    {
      "constant": true,
      "inputs": [],
      "name": "getWhiteList",
      "outputs": [
        {
          "internalType": "address[]",
          "name": "",
          "type": "address[]"
        }
      ],
      "payable": false,
      "stateMutability": "view",
      "type": "function"
    },
    {
      "constant": true,
      "inputs": [
        {
          "internalType": "address",
          "name": "tmpAddress",
          "type": "address"
        }
      ],
      "name": "isEligibleAddress",
      "outputs": [
        {
          "internalType": "bool",
          "name": "",
          "type": "bool"
        }
      ],
      "payable": false,
      "stateMutability": "view",
      "type": "function"
    },
    {
      "constant": true,
      "inputs": [],
      "name": "isOwner",
      "outputs": [
        {
          "internalType": "bool",
          "name": "",
          "type": "bool"
        }
      ],
      "payable": false,
      "stateMutability": "view",
      "type": "function"
    },
    {
      "constant": false,
      "inputs": [
        {
          "internalType": "address",
          "name": "addAddress",
          "type": "address"
        },
        {
          "internalType": "uint256",
          "name": "permission",
          "type": "uint256"
        }
      ],
      "name": "modifyPermission",
      "outputs": [],
      "payable": false,
      "stateMutability": "nonpayable",
      "type": "function"
    },
    {
      "constant": true,
      "inputs": [],
      "name": "owner",
      "outputs": [
        {
          "internalType": "address",
          "name": "",
          "type": "address"
        }
      ],
      "payable": false,
      "stateMutability": "view",
      "type": "function"
    },
    {
      "constant": false,
      "inputs": [
        {
          "internalType": "address",
          "name": "removeAddress",
          "type": "address"
        }
      ],
      "name": "removeWhiteList",
      "outputs": [
        {
          "internalType": "bool",
          "name": "",
          "type": "bool"
        }
      ],
      "payable": false,
      "stateMutability": "nonpayable",
      "type": "function"
    },
    {
      "constant": false,
      "inputs": [],
      "name": "renounceOwnership",
      "outputs": [],
      "payable": false,
      "stateMutability": "nonpayable",
      "type": "function"
    },
    {
      "constant": false,
      "inputs": [
        {
          "internalType": "bool",
          "name": "halt",
          "type": "bool"
        }
      ],
      "name": "setHalt",
      "outputs": [],
      "payable": false,
      "stateMutability": "nonpayable",
      "type": "function"
    },
    {
      "constant": false,
      "inputs": [
        {
          "internalType": "address",
          "name": "managerAddress",
          "type": "address"
        }
      ],
      "name": "setManager",
      "outputs": [],
      "payable": false,
      "stateMutability": "nonpayable",
      "type": "function"
    },
    {
      "constant": false,
      "inputs": [
        {
          "internalType": "address",
          "name": "newOwner",
          "type": "address"
        }
      ],
      "name": "transferOwnership",
      "outputs": [],
      "payable": false,
      "stateMutability": "nonpayable",
      "type": "function"
    },
    {
      "constant": false,
      "inputs": [],
      "name": "initialize",
      "outputs": [],
      "payable": false,
      "stateMutability": "nonpayable",
      "type": "function"
    },
    {
      "constant": false,
      "inputs": [],
      "name": "update",
      "outputs": [],
      "payable": false,
      "stateMutability": "nonpayable",
      "type": "function"
    },
    {
      "constant": false,
      "inputs": [
        {
          "internalType": "address",
          "name": "mineCoin",
          "type": "address"
        },
        {
          "internalType": "uint256",
          "name": "amount",
          "type": "uint256"
        }
      ],
      "name": "redeemOut",
      "outputs": [],
      "payable": false,
      "stateMutability": "nonpayable",
      "type": "function"
    },
    {
      "constant": true,
      "inputs": [
        {
          "internalType": "address",
          "name": "mineCoin",
          "type": "address"
        }
      ],
      "name": "getTotalMined",
      "outputs": [
        {
          "internalType": "uint256",
          "name": "",
          "type": "uint256"
        }
      ],
      "payable": false,
      "stateMutability": "view",
      "type": "function"
    },
    {
      "constant": true,
      "inputs": [
        {
          "internalType": "address",
          "name": "mineCoin",
          "type": "address"
        }
      ],
      "name": "getMineInfo",
      "outputs": [
        {
          "internalType": "uint256",
          "name": "",
          "type": "uint256"
        },
        {
          "internalType": "uint256",
          "name": "",
          "type": "uint256"
        }
      ],
      "payable": false,
      "stateMutability": "view",
      "type": "function"
    },
    {
      "constant": true,
      "inputs": [
        {
          "internalType": "address",
          "name": "account",
          "type": "address"
        },
        {
          "internalType": "address",
          "name": "mineCoin",
          "type": "address"
        }
      ],
      "name": "getMinerBalance",
      "outputs": [
        {
          "internalType": "uint256",
          "name": "",
          "type": "uint256"
        }
      ],
      "payable": false,
      "stateMutability": "view",
      "type": "function"
    },
    {
      "constant": false,
      "inputs": [
        {
          "internalType": "address",
          "name": "mineCoin",
          "type": "address"
        },
        {
          "internalType": "uint256",
          "name": "_mineAmount",
          "type": "uint256"
        },
        {
          "internalType": "uint256",
          "name": "_mineInterval",
          "type": "uint256"
        }
      ],
      "name": "setMineCoinInfo",
      "outputs": [],
      "payable": false,
      "stateMutability": "nonpayable",
      "type": "function"
    },
    {
      "constant": false,
      "inputs": [
        {
          "internalType": "address",
          "name": "mineCoin",
          "type": "address"
        },
        {
          "internalType": "uint256",
          "name": "_mineAmount",
          "type": "uint256"
        }
      ],
      "name": "setBuyingMineInfo",
      "outputs": [],
      "payable": false,
      "stateMutability": "nonpayable",
      "type": "function"
    },
    {
      "constant": true,
      "inputs": [
        {
          "internalType": "address",
          "name": "mineCoin",
          "type": "address"
        }
      ],
      "name": "getBuyingMineInfo",
      "outputs": [
        {
          "internalType": "uint256",
          "name": "",
          "type": "uint256"
        }
      ],
      "payable": false,
      "stateMutability": "view",
      "type": "function"
    },
    {
      "constant": true,
      "inputs": [],
      "name": "getBuyingMineInfoAll",
      "outputs": [
        {
          "internalType": "address[]",
          "name": "",
          "type": "address[]"
        },
        {
          "internalType": "uint256[]",
          "name": "",
          "type": "uint256[]"
        }
      ],
      "payable": false,
      "stateMutability": "view",
      "type": "function"
    },
    {
      "constant": false,
      "inputs": [
        {
          "internalType": "address",
          "name": "account",
          "type": "address"
        },
        {
          "internalType": "address",
          "name": "recieptor",
          "type": "address"
        },
        {
          "internalType": "uint256",
          "name": "amount",
          "type": "uint256"
        }
      ],
      "name": "transferMinerCoin",
      "outputs": [],
      "payable": false,
      "stateMutability": "nonpayable",
      "type": "function"
    },
    {
      "constant": false,
      "inputs": [
        {
          "internalType": "address",
          "name": "account",
          "type": "address"
        },
        {
          "internalType": "uint256",
          "name": "amount",
          "type": "uint256"
        }
      ],
      "name": "mintMinerCoin",
      "outputs": [],
      "payable": false,
      "stateMutability": "nonpayable",
      "type": "function"
    },
    {
      "constant": false,
      "inputs": [
        {
          "internalType": "address",
          "name": "account",
          "type": "address"
        },
        {
          "internalType": "uint256",
          "name": "amount",
          "type": "uint256"
        }
      ],
      "name": "burnMinerCoin",
      "outputs": [],
      "payable": false,
      "stateMutability": "nonpayable",
      "type": "function"
    },
    {
      "constant": false,
      "inputs": [
        {
          "internalType": "address",
          "name": "account",
          "type": "address"
        },
        {
          "internalType": "uint256",
          "name": "amount",
          "type": "uint256"
        }
      ],
      "name": "addMinerBalance",
      "outputs": [],
      "payable": false,
      "stateMutability": "nonpayable",
      "type": "function"
    },
    {
      "constant": false,
      "inputs": [
        {
          "internalType": "address",
          "name": "mineCoin",
          "type": "address"
        },
        {
          "internalType": "uint256",
          "name": "_mineAmount",
          "type": "uint256"
        }
      ],
      "name": "setMineAmount",
      "outputs": [],
      "payable": false,
      "stateMutability": "nonpayable",
      "type": "function"
    },
    {
      "constant": false,
      "inputs": [
        {
          "internalType": "address",
          "name": "mineCoin",
          "type": "address"
        },
        {
          "internalType": "uint256",
          "name": "_mineInterval",
          "type": "uint256"
        }
      ],
      "name": "setMineInterval",
      "outputs": [],
      "payable": false,
      "stateMutability": "nonpayable",
      "type": "function"
    },
    {
      "constant": false,
      "inputs": [
        {
          "internalType": "address",
          "name": "mineCoin",
          "type": "address"
        },
        {
          "internalType": "uint256",
          "name": "amount",
          "type": "uint256"
        }
      ],
      "name": "redeemMinerCoin",
      "outputs": [],
      "payable": false,
      "stateMutability": "nonpayable",
      "type": "function"
    }
  ],
  "bytecode": "0x60806040526001805460a060020a60ff02191690556004805460ff191690553480156200002b57600080fd5b5060008054600160a060020a0319163317808255604051600160a060020a039190911691907f8be0079c531659141344cd1fd0a4f28419497f9722a3daafe3b4186f6b6457e0908290a3620000886401000000006200008e810204565b62000120565b620000a16401000000006200010f810204565b6200010d57604080517f08c379a000000000000000000000000000000000000000000000000000000000815260206004820181905260248201527f4f776e61626c653a2063616c6c6572206973206e6f7420746865206f776e6572604482015290519081900360640190fd5b565b600054600160a060020a0316331490565b6128eb80620001306000396000f3fe6080604052600436106101d15760003560e060020a900480638da5cb5b116100fb578063d500958411610099578063e8b25b2b11610068578063e8b25b2b14610715578063ef56807f146107c3578063f2fde38b14610806578063f495438714610839576101d1565b8063d500958414610659578063d6cec05e1461066e578063dea2b7c1146106a7578063e7cd4a04146106e2576101d1565b8063c219043b116100d5578063c219043b14610568578063d08da861146105a1578063d0ebdbe7146105da578063d323a1151461060d576101d1565b80638da5cb5b146105225780638f32d59b14610553578063a2e620451461042f576101d1565b80634cbf630211610173578063817bf86d11610142578063817bf86d146104445780638399d9f31461047757806387c0ee89146104b05780638af2a470146104e9576101d1565b80634cbf6302146103a8578063687d5ac0146103e1578063715018a61461041a5780638129fc1c1461042f576101d1565b806328675626116101af57806328675626146102c45780632a04d0c7146102fd5780632b2fe4bc146103365780634108041514610375576101d1565b806309a9d76c146101d35780630fabbeef146102385780632042e5c21461027d575b005b3480156101df57600080fd5b506101e8610865565b60408051602080825283518183015283519192839290830191858101910280838360005b8381101561022457818101518382015260200161020c565b505050509050019250505060405180910390f35b34801561024457600080fd5b5061026b6004803603602081101561025b57600080fd5b5035600160a060020a03166108c8565b60408051918252519081900360200190f35b34801561028957600080fd5b506102b0600480360360208110156102a057600080fd5b5035600160a060020a03166108e7565b604080519115158252519081900360200190f35b3480156102d057600080fd5b506101d1600480360360408110156102e757600080fd5b50600160a060020a038135169060200135610963565b34801561030957600080fd5b506101d16004803603604081101561032057600080fd5b50600160a060020a038135169060200135610ac7565b34801561034257600080fd5b506101d16004803603606081101561035957600080fd5b50600160a060020a038135169060208101359060400135610b68565b34801561038157600080fd5b5061026b6004803603602081101561039857600080fd5b5035600160a060020a0316610c97565b3480156103b457600080fd5b506102b0600480360360408110156103cb57600080fd5b50600160a060020a038135169060200135610d6c565b3480156103ed57600080fd5b506101d16004803603604081101561040457600080fd5b50600160a060020a038135169060200135610d8d565b34801561042657600080fd5b506101d1610e60565b34801561043b57600080fd5b506101d1610f01565b34801561045057600080fd5b506102b06004803603602081101561046757600080fd5b5035600160a060020a0316610f4d565b34801561048357600080fd5b506101d16004803603604081101561049a57600080fd5b50600160a060020a038135169060200135610fbc565b3480156104bc57600080fd5b506101d1600480360360408110156104d357600080fd5b50600160a060020a038135169060200135611102565b3480156104f557600080fd5b506101d16004803603604081101561050c57600080fd5b50600160a060020a0381351690602001356111d8565b34801561052e57600080fd5b50610537611279565b60408051600160a060020a039092168252519081900360200190f35b34801561055f57600080fd5b506102b0611288565b34801561057457600080fd5b506101d16004803603604081101561058b57600080fd5b50600160a060020a038135169060200135611299565b3480156105ad57600080fd5b506101d1600480360360408110156105c457600080fd5b50600160a060020a0381351690602001356112ff565b3480156105e657600080fd5b506101d1600480360360208110156105fd57600080fd5b5035600160a060020a03166113b0565b34801561061957600080fd5b506106406004803603602081101561063057600080fd5b5035600160a060020a0316611429565b6040805192835260208301919091528051918290030190f35b34801561066557600080fd5b50610537611451565b34801561067a57600080fd5b506101d16004803603604081101561069157600080fd5b50600160a060020a038135169060200135611460565b3480156106b357600080fd5b5061026b600480360360408110156106ca57600080fd5b50600160a060020a03813581169160200135166116d8565b3480156106ee57600080fd5b506101d16004803603602081101561070557600080fd5b5035600160a060020a0316611764565b34801561072157600080fd5b5061072a6117df565b604051808060200180602001838103835285818151815260200191508051906020019060200280838360005b8381101561076e578181015183820152602001610756565b50505050905001838103825284818151815260200191508051906020019060200280838360005b838110156107ad578181015183820152602001610795565b5050505090500194505050505060405180910390f35b3480156107cf57600080fd5b506101d1600480360360608110156107e657600080fd5b50600160a060020a03813581169160208101359091169060400135611909565b34801561081257600080fd5b506101d16004803603602081101561082957600080fd5b5035600160a060020a0316611968565b34801561084557600080fd5b506101d16004803603602081101561085c57600080fd5b503515156119be565b606060028054806020026020016040519081016040528092919081815260200182805480156108bd57602002820191906000526020600020905b8154600160a060020a0316815260019091019060200180831161089f575b505050505090505b90565b600160a060020a0381166000908152600c60205260409020545b919050565b60006108f1611288565b610933576040805160e560020a62461bcd0281526020600482018190526024820152600080516020612897833981519152604482015290519081900360640190fd5b600160a060020a03821660009081526003602052604081205561095d60028363ffffffff611a4816565b92915050565b60045460ff161561097357600080fd5b6004805460ff191660019081179091555474010000000000000000000000000000000000000000900460ff16156109f4576040805160e560020a62461bcd02815260206004820152601760248201527f5468697320636f6e74726163742069732068616c746564000000000000000000604482015290519081900360640190fd5b6109fd82611b36565b610a078233611c22565b600160a060020a038216600090815260056020908152604080832033845290915290205481811015610a83576040805160e560020a62461bcd02815260206004820152601d60248201527f6d696e65722062616c616e636520697320696e73756666696369656e74000000604482015290519081900360640190fd5b600160a060020a03831660009081526005602090815260408083203380855292529091208383039055610ab890849084611c31565b50506004805460ff1916905550565b600154600160a060020a03163314610b135760405160e560020a62461bcd0281526004018080602001828103825260268152602001806127e06026913960400191505060405180910390fd5b610b1b611ec2565b610b258282611f02565b604080518281529051600160a060020a038416917fe3a3d55c0f116b90b74237f05fdd30afd41058e41ceca3298f57add1aaf1ddba919081900360200190a25050565b610b70611288565b610bb2576040805160e560020a62461bcd0281526020600482018190526024820152600080516020612897833981519152604482015290519081900360640190fd5b6c0c9f2c9cd04674edea400000008210610c16576040805160e560020a62461bcd02815260206004820152601e60248201527f696e707574206d696e6520616d6f756e7420697320746f6f206c617267650000604482015290519081900360640190fd5b60008111610c585760405160e560020a62461bcd02815260040180806020018281038252602981526020018061284d6029913960400191505060405180910390fd5b610c6183611b36565b600160a060020a0383166000908152600a60209081526040808320859055600b9091529020819055610c9283611764565b505050565b600080610ca2611f47565b600160a060020a0384166000908152600b60205260409020549091508115801590610ccd5750600081115b15610d4e57600160a060020a0384166000908152600a602090815260408083205460099092528220549091908390610d0e908490420363ffffffff611fc216565b81610d1557fe5b600160a060020a0388166000908152600860205260409020549190049150610d43908263ffffffff61201b16565b9450505050506108e2565b505050600160a060020a031660009081526008602052604090205490565b600160a060020a039190911660009081526003602052604090205481161490565b610d95611288565b610dd7576040805160e560020a62461bcd0281526020600482018190526024820152600080516020612897833981519152604482015290519081900360640190fd5b6c0c9f2c9cd04674edea400000008110610e3b576040805160e560020a62461bcd02815260206004820152601e60248201527f696e707574206d696e6520616d6f756e7420697320746f6f206c617267650000604482015290519081900360640190fd5b610e4482611b36565b600160a060020a039091166000908152600a6020526040902055565b610e68611288565b610eaa576040805160e560020a62461bcd0281526020600482018190526024820152600080516020612897833981519152604482015290519081900360640190fd5b60008054604051600160a060020a03909116907f8be0079c531659141344cd1fd0a4f28419497f9722a3daafe3b4186f6b6457e0908390a36000805473ffffffffffffffffffffffffffffffffffffffff19169055565b610f09611288565b610f4b576040805160e560020a62461bcd0281526020600482018190526024820152600080516020612897833981519152604482015290519081900360640190fd5b565b600061095d826002805480602002602001604051908101604052809291908181526020018280548015610fa957602002820191906000526020600020905b8154600160a060020a03168152600190910190602001808311610f8b575b505050505061207690919063ffffffff16565b600154600160a060020a031633146110085760405160e560020a62461bcd0281526004018080602001828103825260268152602001806127e06026913960400191505060405180910390fd5b60025460005b818110156110fc5760006002828154811061102557fe5b6000918252602080832090910154600160a060020a0316808352600c90915260409091205490915080156110f257600160a060020a038281166000908152600560209081526040808320938a1683529290522054670de0b6b3a76400008683020490611091908261201b565b600160a060020a038085166000818152600560209081526040808320948d1680845294825291829020949094558051858152905191937fe2ed14571a53189bda27b61adf8f8959767b14d8e10233549b71ee2f2094207e92918290030190a3505b505060010161100e565b50505050565b61110a611288565b61114c576040805160e560020a62461bcd0281526020600482018190526024820152600080516020612897833981519152604482015290519081900360640190fd5b6c0c9f2c9cd04674edea4000000081106111b0576040805160e560020a62461bcd02815260206004820152601e60248201527f696e707574206d696e6520616d6f756e7420697320746f6f206c617267650000604482015290519081900360640190fd5b600160a060020a0382166000908152600c602052604090208190556111d482611764565b5050565b600154600160a060020a031633146112245760405160e560020a62461bcd0281526004018080602001828103825260268152602001806127e06026913960400191505060405180910390fd5b61122c611ec2565b61123682826120c5565b604080518281529051600160a060020a038416917f0d174f4f9562761c729044bc2005a97e0beae4904dfe3d7a40bf7426e59910bc919081900360200190a25050565b600054600160a060020a031690565b600054600160a060020a0316331490565b6112a1611288565b6112e3576040805160e560020a62461bcd0281526020600482018190526024820152600080516020612897833981519152604482015290519081900360640190fd5b600160a060020a03909116600090815260036020526040902055565b611307611288565b611349576040805160e560020a62461bcd0281526020600482018190526024820152600080516020612897833981519152604482015290519081900360640190fd5b6000811161138b5760405160e560020a62461bcd02815260040180806020018281038252602981526020018061284d6029913960400191505060405180910390fd5b61139482611b36565b600160a060020a039091166000908152600b6020526040902055565b6113b8611288565b6113fa576040805160e560020a62461bcd0281526020600482018190526024820152600080516020612897833981519152604482015290519081900360640190fd5b6001805473ffffffffffffffffffffffffffffffffffffffff1916600160a060020a0392909216919091179055565b600160a060020a03166000908152600a6020908152604080832054600b909252909120549091565b600154600160a060020a031690565b611468611288565b6114aa576040805160e560020a62461bcd0281526020600482018190526024820152600080516020612897833981519152604482015290519081900360640190fd5b600160a060020a0382166114eb57604051339082156108fc029083906000818181858888f193505050501580156114e5573d6000803e3d6000fd5b506111d4565b6040805160e060020a6370a0823102815230600482015290518391600091600160a060020a038416916370a08231916024808301926020929190829003018186803b15801561153957600080fd5b505afa15801561154d573d6000803e3d6000fd5b505050506040513d602081101561156357600080fd5b5051604080517fa9059cbb000000000000000000000000000000000000000000000000000000008152336004820152602481018690529051919250600160a060020a0384169163a9059cbb916044808201926020929091908290030181600087803b1580156115d157600080fd5b505af11580156115e5573d6000803e3d6000fd5b505050506040513d60208110156115fb57600080fd5b50506040805160e060020a6370a082310281523060048201529051600091600160a060020a038516916370a0823191602480820192602092909190829003018186803b15801561164a57600080fd5b505afa15801561165e573d6000803e3d6000fd5b505050506040513d602081101561167457600080fd5b5051905080820384146116d1576040805160e560020a62461bcd02815260206004820181905260248201527f736574746c656d656e7420746f6b656e207472616e73666572206572726f7221604482015290519081900360640190fd5b5050505050565b600160a060020a03808216600090815260056020908152604080832093861683529290529081205481611709611f47565b905060006117168661210a565b90506000821180156117285750600081115b1561175a576000611738866121a3565b905061175661174987898585612213565b859063ffffffff61201b16565b9350505b5090949350505050565b61176c611288565b6117ae576040805160e560020a62461bcd0281526020600482018190526024820152600080516020612897833981519152604482015290519081900360640190fd5b6117bf60028263ffffffff6122aa16565b600160a060020a0316600090815260036020526040902063ffffffff9055565b60025460408051828152602080840282010190915260609182918290828015611812578160200160208202803883390190505b509050606082604051908082528060200260200182016040528015611841578160200160208202803883390190505b50905060005b838110156118fe576002818154811061185c57fe5b9060005260206000200160009054906101000a9004600160a060020a031683828151811061188657fe5b6020026020010190600160a060020a03169081600160a060020a031681525050600c60008483815181106118b657fe5b6020026020010151600160a060020a0316600160a060020a03168152602001908152602001600020548282815181106118eb57fe5b6020908102919091010152600101611847565b509093509150509091565b600154600160a060020a031633146119555760405160e560020a62461bcd0281526004018080602001828103825260268152602001806127e06026913960400191505060405180910390fd5b61195d611ec2565b610c9283838361234f565b611970611288565b6119b2576040805160e560020a62461bcd0281526020600482018190526024820152600080516020612897833981519152604482015290519081900360640190fd5b6119bb816123e6565b50565b6119c6611288565b611a08576040805160e560020a62461bcd0281526020600482018190526024820152600080516020612897833981519152604482015290519081900360640190fd5b60018054911515740100000000000000000000000000000000000000000274ff000000000000000000000000000000000000000019909216919091179055565b8154600090815b81811015611a955783600160a060020a0316858281548110611a6d57fe5b600091825260209091200154600160a060020a03161415611a8d57611a95565b600101611a4f565b81811015611b2b57600182038114611b0f57846001830381548110611ab657fe5b9060005260206000200160009054906101000a9004600160a060020a0316858281548110611ae057fe5b9060005260206000200160006101000a815481600160a060020a030219169083600160a060020a031602179055505b8454611b1f8660001983016127a2565b5060019250505061095d565b506000949350505050565b6000611b4182612496565b600160a060020a0383166000908152600b60205260409020549091508115611bce57611ba3611b7e83670de0b6b3a764000063ffffffff611fc216565b600160a060020a0385166000908152600760205260409020549063ffffffff61201b16565b600160a060020a03841660009081526007602090815260408083209390935560089052208054830190555b8015611c045780814281611bde57fe5b600160a060020a0386166000908152600960205260409020919004919091029055610c92565b5050600160a060020a03166000908152600960205260409020429055565b6111d482826000806000612511565b80611c3b57610c92565b600160a060020a038316611c8557604051600160a060020a0383169082156108fc029083906000818181858888f19350505050158015611c7f573d6000803e3d6000fd5b50611e72565b6040805160e060020a6370a0823102815230600482015290518491600091600160a060020a038416916370a08231916024808301926020929190829003018186803b158015611cd357600080fd5b505afa158015611ce7573d6000803e3d6000fd5b505050506040513d6020811015611cfd57600080fd5b5051604080517fa9059cbb000000000000000000000000000000000000000000000000000000008152600160a060020a0387811660048301526024820187905291519293509084169163a9059cbb916044808201926020929091908290030181600087803b158015611d6e57600080fd5b505af1158015611d82573d6000803e3d6000fd5b505050506040513d6020811015611d9857600080fd5b50506040805160e060020a6370a082310281523060048201529051600091600160a060020a038516916370a0823191602480820192602092909190829003018186803b158015611de757600080fd5b505afa158015611dfb573d6000803e3d6000fd5b505050506040513d6020811015611e1157600080fd5b505190508082038414611e6e576040805160e560020a62461bcd02815260206004820181905260248201527f736574746c656d656e7420746f6b656e207472616e73666572206572726f7221604482015290519081900360640190fd5b5050505b82600160a060020a031682600160a060020a03167f92c7bc8749351478c3edd22482edba775f1353fb936db6bcadd331b65911ea83836040518082815260200191505060405180910390a3505050565b60025460005b818110156111d457611efa60028281548110611ee057fe5b600091825260209091200154600160a060020a0316611b36565b600101611ec8565b60025460005b818110156110fc57611f3f60028281548110611f2057fe5b6000918252602082200154600160a060020a0316908690866001612511565b600101611f08565b600080611f52611451565b905080600160a060020a03166318160ddd6040518163ffffffff1660e060020a02815260040160206040518083038186803b158015611f9057600080fd5b505afa158015611fa4573d6000803e3d6000fd5b505050506040513d6020811015611fba57600080fd5b505191505090565b6000811580611fdd57505080820282828281611fda57fe5b04145b61095d5760405160e560020a62461bcd0281526004018080602001828103825260218152602001806128766021913960400191505060405180910390fd5b8082018281101561095d576040805160e560020a62461bcd02815260206004820152601b60248201527f536166654d6174683a206164646974696f6e206f766572666c6f770000000000604482015290519081900360640190fd5b8151600090815b81811015611b2b5783600160a060020a031685828151811061209b57fe5b6020026020010151600160a060020a031614156120bd5760019250505061095d565b60010161207d565b60025460005b818110156110fc57612102600282815481106120e357fe5b6000918252602082200154600160a060020a0316908690866002612511565b6001016120cb565b600080612115611451565b905080600160a060020a03166370a08231846040518263ffffffff1660e060020a0281526004018082600160a060020a0316600160a060020a0316815260200191505060206040518083038186803b15801561217057600080fd5b505afa158015612184573d6000803e3d6000fd5b505050506040513d602081101561219a57600080fd5b50519392505050565b6000806121af83612496565b905060006121bb611f47565b9050801561220957600160a060020a03841660009081526007602052604090205481906121f890670de0b6b3a7640000850263ffffffff61201b16565b816121ff57fe5b04925050506108e2565b5060009392505050565b600160a060020a0380851660009081526006602090815260408083209387168352929052908120548083101561227d5760405160e560020a62461bcd02815260040180806020018281038252602181526020018061282c6021913960400191505060405180910390fd5b670de0b6b3a76400006122988583860363ffffffff611fc216565b8161229f57fe5b049695505050505050565b61230d8280548060200260200160405190810160405280929190818152602001828054801561230257602002820191906000526020600020905b8154600160a060020a031681526001909101906020018083116122e4575b505050505082612076565b6111d4578154600181018355600083815260209020018054600160a060020a03831673ffffffffffffffffffffffffffffffffffffffff199091161790555050565b60025460005b818110156123945761238c6002828154811061236d57fe5b600091825260209091200154600160a060020a03168686866003612511565b600101612355565b5082600160a060020a031684600160a060020a03167fbf32a9a59fc12476e5942fd33003d6089cb72bf1873d4a50e791584d440fae39846040518082815260200191505060405180910390a350505050565b600160a060020a03811661242e5760405160e560020a62461bcd0281526004018080602001828103825260268152602001806128066026913960400191505060405180910390fd5b60008054604051600160a060020a03808516939216917f8be0079c531659141344cd1fd0a4f28419497f9722a3daafe3b4186f6b6457e091a36000805473ffffffffffffffffffffffffffffffffffffffff1916600160a060020a0392909216919091179055565b600160a060020a0381166000908152600b6020526040812054816124b8611f47565b90506000811180156124ca5750600082115b1561220957600160a060020a0384166000908152600a60209081526040808320546009909252822054909190849042038161250157fe5b049190910293506108e292505050565b600061251b611f47565b9050600061252887612700565b905081156126cc5761257961254788886125418a61210a565b85612213565b600160a060020a03808a166000908152600560209081526040808320938c16835292905220549063ffffffff61201b16565b600160a060020a038089166000908152600560209081526040808320938b168352929052205560018314156125fe576125e06125bb828663ffffffff611fc216565b600160a060020a0389166000908152600760205260409020549063ffffffff61274716565b600160a060020a0388166000908152600760205260409020556126cc565b600283141561263f576125e061261a828663ffffffff611fc216565b600160a060020a0389166000908152600760205260409020549063ffffffff61201b16565b60038314156126cc5761268b61265988876125418961210a565b600160a060020a03808a166000908152600560209081526040808320938b16835292905220549063ffffffff61201b16565b600160a060020a038089166000818152600560209081526040808320948b168084529482528083209590955591815260068252838120928152919052208190555b600160a060020a03968716600090815260066020908152604080832098909916825296909652959094209490945550505050565b60008061270b611f47565b9050801561273e57600160a060020a03831660009081526007602052604090205481908161273557fe5b049150506108e2565b50600092915050565b8082038281111561095d576040805160e560020a62461bcd02815260206004820181905260248201527f536166654d6174683a20737562737472616374696f6e20756e646572666c6f77604482015290519081900360640190fd5b815481835581811115610c9257600083815260209020610c929181019083016108c591905b808211156127db57600081556001016127c7565b509056fe4d616e6167657261626c653a2063616c6c6572206973206e6f7420746865204d616e616765724f776e61626c653a206e6577206f776e657220697320746865207a65726f20616464726573736572726f723a20746f6b656e4e6574576f727468206c6f676963206572726f7221696e707574206d696e6520496e74657276616c206d757374206c6172676572207468616e207a65726f536166654d6174683a206d756c7469706c69636174696f6e206f766572666c6f774f776e61626c653a2063616c6c6572206973206e6f7420746865206f776e6572a265627a7a723158206d4e74330550054f007b9328ccecd66183e0a3aa87fcc1a44e344aadcd88c93764736f6c63430005100032",
  "source": "pragma solidity =0.5.16;\r\nimport \"../modules/SafeMath.sol\";\r\nimport \"./MinePoolData.sol\";\r\nimport \"../ERC20/IERC20.sol\";\r\n/**\r\n * @title FPTCoin mine pool, which manager contract is FPTCoin.\r\n * @dev A smart-contract which distribute some mine coins by FPTCoin balance.\r\n *\r\n */\r\ncontract FNXMinePool is MinePoolData {\r\n    using SafeMath for uint256;\r\n    constructor () public{\r\n        initialize();\r\n    }\r\n    function initialize() onlyOwner public{\r\n    }\r\n    function update() onlyOwner public{\r\n    }\r\n    /**\r\n     * @dev default function for foundation input miner coins.\r\n     */\r\n    function()external payable{\r\n\r\n    }\r\n    /**\r\n     * @dev foundation redeem out mine coins.\r\n     * @param mineCoin mineCoin address\r\n     * @param amount redeem amount.\r\n     */\r\n    function redeemOut(address mineCoin,uint256 amount)public onlyOwner{\r\n        if (mineCoin == address(0)){\r\n            msg.sender.transfer(amount);\r\n        }else{\r\n            IERC20 token = IERC20(mineCoin);\r\n            uint256 preBalance = token.balanceOf(address(this));\r\n            token.transfer(msg.sender,amount);\r\n            uint256 afterBalance = token.balanceOf(address(this));\r\n            require(preBalance - afterBalance == amount,\"settlement token transfer error!\");\r\n        }\r\n    }\r\n    /**\r\n     * @dev retrieve total distributed mine coins.\r\n     * @param mineCoin mineCoin address\r\n     */\r\n    function getTotalMined(address mineCoin)public view returns(uint256){\r\n        uint256 _totalSupply = totalSupply();\r\n        uint256 _mineInterval = mineInterval[mineCoin];\r\n        if (_totalSupply > 0 && _mineInterval>0){\r\n            uint256 _mineAmount = mineAmount[mineCoin];\r\n            uint256 latestMined = _mineAmount.mul(now-latestSettleTime[mineCoin])/_mineInterval;\r\n            return totalMinedCoin[mineCoin].add(latestMined);\r\n        }\r\n        return totalMinedCoin[mineCoin];\r\n    }\r\n    /**\r\n     * @dev retrieve minecoin distributed informations.\r\n     * @param mineCoin mineCoin address\r\n     * @return distributed amount and distributed time interval.\r\n     */\r\n    function getMineInfo(address mineCoin)public view returns(uint256,uint256){\r\n        return (mineAmount[mineCoin],mineInterval[mineCoin]);\r\n    }\r\n    /**\r\n     * @dev retrieve user's mine balance.\r\n     * @param account user's account\r\n     * @param mineCoin mineCoin address\r\n     */\r\n    function getMinerBalance(address account,address mineCoin)public view returns(uint256){\r\n        uint256 totalBalance = minerBalances[mineCoin][account];\r\n        uint256 _totalSupply = totalSupply();\r\n        uint256 balance = balanceOf(account);\r\n        if (_totalSupply > 0 && balance>0){\r\n            uint256 tokenNetWorth = _getCurrentTokenNetWorth(mineCoin);\r\n            totalBalance= totalBalance.add(_settlement(mineCoin,account,balance,tokenNetWorth));\r\n        }\r\n        return totalBalance;\r\n    }\r\n    /**\r\n     * @dev Set mineCoin mine info, only foundation owner can invoked.\r\n     * @param mineCoin mineCoin address\r\n     * @param _mineAmount mineCoin distributed amount\r\n     * @param _mineInterval mineCoin distributied time interval\r\n     */\r\n    function setMineCoinInfo(address mineCoin,uint256 _mineAmount,uint256 _mineInterval)public onlyOwner {\r\n        require(_mineAmount<1e30,\"input mine amount is too large\");\r\n        require(_mineInterval>0,\"input mine Interval must larger than zero\");\r\n        _mineSettlement(mineCoin);\r\n        mineAmount[mineCoin] = _mineAmount;\r\n        mineInterval[mineCoin] = _mineInterval;\r\n        addWhiteList(mineCoin);\r\n    }\r\n    /**\r\n     * @dev Set the reward for buying options.\r\n     * @param mineCoin mineCoin address\r\n     * @param _mineAmount mineCoin reward amount\r\n     */\r\n    function setBuyingMineInfo(address mineCoin,uint256 _mineAmount)public onlyOwner {\r\n        require(_mineAmount<1e30,\"input mine amount is too large\");\r\n        buyingMineMap[mineCoin] = _mineAmount;\r\n        addWhiteList(mineCoin);\r\n    }\r\n    /**\r\n     * @dev Get the reward for buying options.\r\n     * @param mineCoin mineCoin address\r\n     */\r\n    function getBuyingMineInfo(address mineCoin)public view returns(uint256){\r\n        return buyingMineMap[mineCoin];\r\n    }\r\n    /**\r\n     * @dev Get the all rewards for buying options.\r\n     */\r\n    function getBuyingMineInfoAll()public view returns(address[] memory,uint256[] memory){\r\n        uint256 len = whiteList.length;\r\n        address[] memory mineCoins = new address[](len);\r\n        uint256[] memory mineNums = new uint256[](len);\r\n        for (uint256 i=0;i<len;i++){\r\n            mineCoins[i] = whiteList[i];\r\n            mineNums[i] = buyingMineMap[mineCoins[i]];\r\n        }\r\n        return (mineCoins,mineNums);\r\n    }\r\n    /**\r\n     * @dev transfer mineCoin to recieptor when account transfer amount FPTCoin to recieptor, only manager contract can modify database.\r\n     * @param account the account transfer from\r\n     * @param recieptor the account transfer to\r\n     * @param amount the mine shared amount\r\n     */\r\n    function transferMinerCoin(address account,address recieptor,uint256 amount) public onlyManager {\r\n        _mineSettlementAll();\r\n        _transferMinerCoin(account,recieptor,amount);\r\n    }\r\n    /**\r\n     * @dev mint mineCoin to account when account add collateral to collateral pool, only manager contract can modify database.\r\n     * @param account user's account\r\n     * @param amount the mine shared amount\r\n     */\r\n    function mintMinerCoin(address account,uint256 amount) public onlyManager {\r\n        _mineSettlementAll();\r\n        _mintMinerCoin(account,amount);\r\n        emit MintMiner(account,amount);\r\n    }\r\n    /**\r\n     * @dev Burn mineCoin to account when account redeem collateral to collateral pool, only manager contract can modify database.\r\n     * @param account user's account\r\n     * @param amount the mine shared amount\r\n     */\r\n    function burnMinerCoin(address account,uint256 amount) public onlyManager {\r\n        _mineSettlementAll();\r\n        _burnMinerCoin(account,amount);\r\n        emit BurnMiner(account,amount);\r\n    }\r\n    /**\r\n     * @dev give amount buying reward to account, only manager contract can modify database.\r\n     * @param account user's account\r\n     * @param amount the buying shared amount\r\n     */\r\n    function addMinerBalance(address account,uint256 amount) public onlyManager {\r\n        uint256 len = whiteList.length;\r\n        for (uint256 i=0;i<len;i++){\r\n            address addr = whiteList[i];\r\n            uint256 mineNum = buyingMineMap[addr];\r\n            if (mineNum > 0){\r\n                uint256 _mineAmount = mineNum*amount/calDecimals;\r\n                minerBalances[addr][account] = minerBalances[addr][account].add(_mineAmount);\r\n                //totalMinedCoin[addr] = totalMinedCoin[addr].add(_mineAmount);\r\n                emit BuyingMiner(account,addr,_mineAmount);\r\n            }\r\n        }\r\n    }\r\n    /**\r\n     * @dev changer mine coin distributed amount , only foundation owner can modify database.\r\n     * @param mineCoin mine coin address\r\n     * @param _mineAmount the distributed amount.\r\n     */\r\n    function setMineAmount(address mineCoin,uint256 _mineAmount)public onlyOwner {\r\n        require(_mineAmount<1e30,\"input mine amount is too large\");\r\n        _mineSettlement(mineCoin);\r\n        mineAmount[mineCoin] = _mineAmount;\r\n    }\r\n    /**\r\n     * @dev changer mine coin distributed time interval , only foundation owner can modify database.\r\n     * @param mineCoin mine coin address\r\n     * @param _mineInterval the distributed time interval.\r\n     */\r\n    function setMineInterval(address mineCoin,uint256 _mineInterval)public onlyOwner {\r\n        require(_mineInterval>0,\"input mine Interval must larger than zero\");\r\n        _mineSettlement(mineCoin);\r\n        mineInterval[mineCoin] = _mineInterval;\r\n    }\r\n    /**\r\n     * @dev user redeem mine rewards.\r\n     * @param mineCoin mine coin address\r\n     * @param amount redeem amount.\r\n     */\r\n    function redeemMinerCoin(address mineCoin,uint256 amount)public nonReentrant notHalted {\r\n        _mineSettlement(mineCoin);\r\n        _settlementAllCoin(mineCoin,msg.sender);\r\n        uint256 minerAmount = minerBalances[mineCoin][msg.sender];\r\n        require(minerAmount>=amount,\"miner balance is insufficient\");\r\n\r\n        minerBalances[mineCoin][msg.sender] = minerAmount-amount;\r\n        _redeemMineCoin(mineCoin,msg.sender,amount);\r\n    }\r\n    /**\r\n     * @dev subfunction for user redeem mine rewards.\r\n     * @param mineCoin mine coin address\r\n     * @param recieptor recieptor's account\r\n     * @param amount redeem amount.\r\n     */\r\n    function _redeemMineCoin(address mineCoin,address payable recieptor,uint256 amount)internal {\r\n        if (amount == 0){\r\n            return;\r\n        }\r\n        if (mineCoin == address(0)){\r\n            recieptor.transfer(amount);\r\n        }else{\r\n            IERC20 minerToken = IERC20(mineCoin);\r\n            uint256 preBalance = minerToken.balanceOf(address(this));\r\n            minerToken.transfer(recieptor,amount);\r\n            uint256 afterBalance = minerToken.balanceOf(address(this));\r\n            require(preBalance - afterBalance == amount,\"settlement token transfer error!\");\r\n        }\r\n        emit RedeemMineCoin(recieptor,mineCoin,amount);\r\n    }\r\n    /**\r\n     * @dev settle all mine coin.\r\n     */    \r\n    function _mineSettlementAll()internal{\r\n        uint256 addrLen = whiteList.length;\r\n        for(uint256 i=0;i<addrLen;i++){\r\n            _mineSettlement(whiteList[i]);\r\n        }\r\n    }\r\n    /**\r\n     * @dev the auxiliary function for _mineSettlementAll.\r\n     */    \r\n    function _mineSettlement(address mineCoin)internal{\r\n        uint256 latestMined = _getLatestMined(mineCoin);\r\n        uint256 _mineInterval = mineInterval[mineCoin];\r\n        if (latestMined>0){\r\n            totalMinedWorth[mineCoin] = totalMinedWorth[mineCoin].add(latestMined.mul(calDecimals));\r\n            totalMinedCoin[mineCoin] = totalMinedCoin[mineCoin]+latestMined;\r\n        }\r\n        if (_mineInterval>0){\r\n            latestSettleTime[mineCoin] = now/_mineInterval*_mineInterval;\r\n        }else{\r\n            latestSettleTime[mineCoin] = now;\r\n        }\r\n    }\r\n    /**\r\n     * @dev the auxiliary function for _mineSettlementAll. Calculate latest time phase distributied mine amount.\r\n     */ \r\n    function _getLatestMined(address mineCoin)internal view returns(uint256){\r\n        uint256 _mineInterval = mineInterval[mineCoin];\r\n        uint256 _totalSupply = totalSupply();\r\n        if (_totalSupply > 0 && _mineInterval>0){\r\n            uint256 _mineAmount = mineAmount[mineCoin];\r\n            uint256 mintTime = (now-latestSettleTime[mineCoin])/_mineInterval;\r\n            uint256 latestMined = _mineAmount*mintTime;\r\n            return latestMined;\r\n        }\r\n        return 0;\r\n    }\r\n    /**\r\n     * @dev subfunction, transfer mineCoin to recieptor when account transfer amount FPTCoin to recieptor\r\n     * @param account the account transfer from\r\n     * @param recipient the account transfer to\r\n     * @param amount the mine shared amount\r\n     */\r\n    function _transferMinerCoin(address account,address recipient,uint256 amount)internal{\r\n        uint256 addrLen = whiteList.length;\r\n        for(uint256 i=0;i<addrLen;i++){\r\n            settleMinerBalance(whiteList[i],account,recipient,amount,opTransferCoin);\r\n        }\r\n        emit TranserMiner(account,recipient,amount);\r\n    }\r\n    /**\r\n     * @dev subfunction, mint mineCoin to account when account add collateral to collateral pool\r\n     * @param account user's account\r\n     * @param amount the mine shared amount\r\n     */\r\n    function _mintMinerCoin(address account,uint256 amount)internal{\r\n        uint256 addrLen = whiteList.length;\r\n        for(uint256 i=0;i<addrLen;i++){\r\n            settleMinerBalance(whiteList[i],account,address(0),amount,opMintCoin);\r\n        }\r\n    }\r\n    /**\r\n     * @dev subfunction, settle user's mint balance when user want to modify mine database.\r\n     * @param mineCoin the mine coin address\r\n     * @param account user's account\r\n     */\r\n    function _settlementAllCoin(address mineCoin,address account)internal{\r\n        settleMinerBalance(mineCoin,account,address(0),0,0);\r\n    }\r\n    /**\r\n     * @dev subfunction, Burn mineCoin to account when account redeem collateral to collateral pool\r\n     * @param account user's account\r\n     * @param amount the mine shared amount\r\n     */\r\n    function _burnMinerCoin(address account,uint256 amount)internal{\r\n        uint256 addrLen = whiteList.length;\r\n        for(uint256 i=0;i<addrLen;i++){\r\n            settleMinerBalance(whiteList[i],account,address(0),amount,opBurnCoin);\r\n        }\r\n    }\r\n    /**\r\n     * @dev settle user's mint balance when user want to modify mine database.\r\n     * @param mineCoin the mine coin address\r\n     * @param account user's account\r\n     * @param recipient the recipient's address if operator is transfer\r\n     * @param amount the input amount for operator\r\n     * @param operators User operator to modify mine database.\r\n     */\r\n    function settleMinerBalance(address mineCoin,address account,address recipient,uint256 amount,uint256 operators)internal{\r\n        uint256 _totalSupply = totalSupply();\r\n        uint256 tokenNetWorth = _getTokenNetWorth(mineCoin);\r\n        if (_totalSupply > 0){\r\n            minerBalances[mineCoin][account] = minerBalances[mineCoin][account].add(\r\n                    _settlement(mineCoin,account,balanceOf(account),tokenNetWorth));\r\n            if (operators == opBurnCoin){\r\n                totalMinedWorth[mineCoin] = totalMinedWorth[mineCoin].sub(tokenNetWorth.mul(amount));\r\n            }else if (operators==opMintCoin){\r\n                totalMinedWorth[mineCoin] = totalMinedWorth[mineCoin].add(tokenNetWorth.mul(amount));\r\n            }else if (operators==opTransferCoin){\r\n                minerBalances[mineCoin][recipient] = minerBalances[mineCoin][recipient].add(\r\n                    _settlement(mineCoin,recipient,balanceOf(recipient),tokenNetWorth));\r\n                minerOrigins[mineCoin][recipient] = tokenNetWorth;\r\n            }\r\n        }\r\n        minerOrigins[mineCoin][account] = tokenNetWorth;\r\n    }\r\n    /**\r\n     * @dev subfunction, settle user's latest mine amount.\r\n     * @param mineCoin the mine coin address\r\n     * @param account user's account\r\n     * @param amount the input amount for operator\r\n     * @param tokenNetWorth the latest token net worth\r\n     */\r\n    function _settlement(address mineCoin,address account,uint256 amount,uint256 tokenNetWorth)internal view returns (uint256) {\r\n        uint256 origin = minerOrigins[mineCoin][account];\r\n        require(tokenNetWorth>=origin,\"error: tokenNetWorth logic error!\");\r\n        return amount.mul(tokenNetWorth-origin)/calDecimals;\r\n    }\r\n    /**\r\n     * @dev subfunction, calculate current token net worth.\r\n     * @param mineCoin the mine coin address\r\n     */\r\n    function _getCurrentTokenNetWorth(address mineCoin)internal view returns (uint256) {\r\n        uint256 latestMined = _getLatestMined(mineCoin);\r\n        uint256 _totalSupply = totalSupply();\r\n        if (_totalSupply > 0){\r\n            return (totalMinedWorth[mineCoin].add(latestMined*calDecimals))/_totalSupply;\r\n        }\r\n        return 0;\r\n    }\r\n    /**\r\n     * @dev subfunction, calculate token net worth when settlement is completed.\r\n     * @param mineCoin the mine coin address\r\n     */\r\n    function _getTokenNetWorth(address mineCoin)internal view returns (uint256) {\r\n        uint256 _totalSupply = totalSupply();\r\n        if (_totalSupply > 0){\r\n            return totalMinedWorth[mineCoin]/_totalSupply;\r\n        }\r\n        return 0;\r\n    }\r\n    /**\r\n     * @dev get FPTCoin's total supply.\r\n     */\r\n    function totalSupply()internal view returns(uint256){\r\n        IERC20 _FPTCoin = IERC20(getManager());\r\n        return _FPTCoin.totalSupply();\r\n    }\r\n    /**\r\n     * @dev get FPTCoin's user balance.\r\n     */\r\n    function balanceOf(address account)internal view returns(uint256){\r\n        IERC20 _FPTCoin = IERC20(getManager());\r\n        return _FPTCoin.balanceOf(account);\r\n    }\r\n}",
  "sourcePath": "C:\\work\\solidity\\finnexusOptions_V2.1\\contracts\\FNXMinePool\\FNXMinePool.sol",
  "compiler": {
    "name": "solc",
    "version": "0.5.16+commit.9c3226ce.Emscripten.clang"
  },
  "schemaVersion": "3.1.0",
  "updatedAt": "2020-10-24T10:45:23.226Z",
  "devdoc": {
    "details": "A smart-contract which distribute some mine coins by FPTCoin balance.  ",
    "methods": {
      "addMinerBalance(address,uint256)": {
        "details": "give amount buying reward to account, only manager contract can modify database.",
        "params": {
          "account": "user's account",
          "amount": "the buying shared amount"
        }
      },
      "addWhiteList(address)": {
        "details": "Implementation of add an eligible address into the whitelist.",
        "params": {
          "addAddress": "new eligible address."
        }
      },
      "burnMinerCoin(address,uint256)": {
        "details": "Burn mineCoin to account when account redeem collateral to collateral pool, only manager contract can modify database.",
        "params": {
          "account": "user's account",
          "amount": "the mine shared amount"
        }
      },
      "getBuyingMineInfo(address)": {
        "details": "Get the reward for buying options.",
        "params": {
          "mineCoin": "mineCoin address"
        }
      },
      "getBuyingMineInfoAll()": {
        "details": "Get the all rewards for buying options."
      },
      "getManager()": {
        "details": "get manager address.       "
      },
      "getMineInfo(address)": {
        "details": "retrieve minecoin distributed informations.",
        "params": {
          "mineCoin": "mineCoin address"
        },
        "return": "distributed amount and distributed time interval."
      },
      "getMinerBalance(address,address)": {
        "details": "retrieve user's mine balance.",
        "params": {
          "account": "user's account",
          "mineCoin": "mineCoin address"
        }
      },
      "getTotalMined(address)": {
        "details": "retrieve total distributed mine coins.",
        "params": {
          "mineCoin": "mineCoin address"
        }
      },
      "getWhiteList()": {
        "details": "Implementation of getting the eligible whitelist."
      },
      "isEligibleAddress(address)": {
        "details": "Implementation of testing whether the input address is eligible.",
        "params": {
          "tmpAddress": "input address for testing."
        }
      },
      "isOwner()": {
        "details": "Returns true if the caller is the current owner."
      },
      "mintMinerCoin(address,uint256)": {
        "details": "mint mineCoin to account when account add collateral to collateral pool, only manager contract can modify database.",
        "params": {
          "account": "user's account",
          "amount": "the mine shared amount"
        }
      },
      "owner()": {
        "details": "Returns the address of the current owner."
      },
      "redeemMinerCoin(address,uint256)": {
        "details": "user redeem mine rewards.",
        "params": {
          "amount": "redeem amount.",
          "mineCoin": "mine coin address"
        }
      },
      "redeemOut(address,uint256)": {
        "details": "foundation redeem out mine coins.",
        "params": {
          "amount": "redeem amount.",
          "mineCoin": "mineCoin address"
        }
      },
      "removeWhiteList(address)": {
        "details": "Implementation of revoke an invalid address from the whitelist.",
        "params": {
          "removeAddress": "revoked address."
        }
      },
      "renounceOwnership()": {
        "details": "Leaves the contract without owner. It will not be possible to call `onlyOwner` functions anymore. Can only be called by the current owner.      * NOTE: Renouncing ownership will leave the contract without an owner, thereby removing any functionality that is only available to the owner."
      },
      "setBuyingMineInfo(address,uint256)": {
        "details": "Set the reward for buying options.",
        "params": {
          "_mineAmount": "mineCoin reward amount",
          "mineCoin": "mineCoin address"
        }
      },
      "setManager(address)": {
        "details": "set manager by owner.       "
      },
      "setMineAmount(address,uint256)": {
        "details": "changer mine coin distributed amount , only foundation owner can modify database.",
        "params": {
          "_mineAmount": "the distributed amount.",
          "mineCoin": "mine coin address"
        }
      },
      "setMineCoinInfo(address,uint256,uint256)": {
        "details": "Set mineCoin mine info, only foundation owner can invoked.",
        "params": {
          "_mineAmount": "mineCoin distributed amount",
          "_mineInterval": "mineCoin distributied time interval",
          "mineCoin": "mineCoin address"
        }
      },
      "setMineInterval(address,uint256)": {
        "details": "changer mine coin distributed time interval , only foundation owner can modify database.",
        "params": {
          "_mineInterval": "the distributed time interval.",
          "mineCoin": "mine coin address"
        }
      },
      "transferMinerCoin(address,address,uint256)": {
        "details": "transfer mineCoin to recieptor when account transfer amount FPTCoin to recieptor, only manager contract can modify database.",
        "params": {
          "account": "the account transfer from",
          "amount": "the mine shared amount",
          "recieptor": "the account transfer to"
        }
      },
      "transferOwnership(address)": {
        "details": "Transfers ownership of the contract to a new account (`newOwner`). Can only be called by the current owner."
      }
    },
    "title": "FPTCoin mine pool, which manager contract is FPTCoin."
  },
  "userdoc": {
    "methods": {
      "setHalt(bool)": {
        "notice": "function Emergency situation that requires contribution period to stop or not."
      }
    }
  }
}