{
  "contractName": "FNXOracle",
  "abi": [
    {
      "anonymous": false,
      "inputs": [
        {
          "indexed": true,
          "internalType": "address",
          "name": "previousOwner",
          "type": "address"
        },
        {
          "indexed": true,
          "internalType": "address",
          "name": "newOwner",
          "type": "address"
        }
      ],
      "name": "OwnershipTransferred",
      "type": "event"
    },
    {
      "constant": false,
      "inputs": [
        {
          "internalType": "address",
          "name": "addAddress",
          "type": "address"
        }
      ],
      "name": "addOperator",
      "outputs": [],
      "payable": false,
      "stateMutability": "nonpayable",
      "type": "function"
    },
    {
      "constant": true,
      "inputs": [],
      "name": "getOperator",
      "outputs": [
        {
          "internalType": "address[]",
          "name": "",
          "type": "address[]"
        }
      ],
      "payable": false,
      "stateMutability": "view",
      "type": "function"
    },
    {
      "constant": true,
      "inputs": [],
      "name": "isOwner",
      "outputs": [
        {
          "internalType": "bool",
          "name": "",
          "type": "bool"
        }
      ],
      "payable": false,
      "stateMutability": "view",
      "type": "function"
    },
    {
      "constant": true,
      "inputs": [],
      "name": "owner",
      "outputs": [
        {
          "internalType": "address",
          "name": "",
          "type": "address"
        }
      ],
      "payable": false,
      "stateMutability": "view",
      "type": "function"
    },
    {
      "constant": false,
      "inputs": [
        {
          "internalType": "address",
          "name": "removeAddress",
          "type": "address"
        }
      ],
      "name": "removeOperator",
      "outputs": [
        {
          "internalType": "bool",
          "name": "",
          "type": "bool"
        }
      ],
      "payable": false,
      "stateMutability": "nonpayable",
      "type": "function"
    },
    {
      "constant": false,
      "inputs": [],
      "name": "renounceOwnership",
      "outputs": [],
      "payable": false,
      "stateMutability": "nonpayable",
      "type": "function"
    },
    {
      "constant": false,
      "inputs": [
        {
          "internalType": "uint256",
          "name": "index",
          "type": "uint256"
        },
        {
          "internalType": "address",
          "name": "addAddress",
          "type": "address"
        }
      ],
      "name": "setOperator",
      "outputs": [],
      "payable": false,
      "stateMutability": "nonpayable",
      "type": "function"
    },
    {
      "constant": false,
      "inputs": [
        {
          "internalType": "address[]",
          "name": "operators",
          "type": "address[]"
        }
      ],
      "name": "setOperators",
      "outputs": [],
      "payable": false,
      "stateMutability": "nonpayable",
      "type": "function"
    },
    {
      "constant": false,
      "inputs": [
        {
          "internalType": "address",
          "name": "newOwner",
          "type": "address"
        }
      ],
      "name": "transferOwnership",
      "outputs": [],
      "payable": false,
      "stateMutability": "nonpayable",
      "type": "function"
    },
    {
      "constant": false,
      "inputs": [
        {
          "internalType": "address",
          "name": "asset",
          "type": "address"
        },
        {
          "internalType": "uint256",
          "name": "price",
          "type": "uint256"
        }
      ],
      "name": "setPrice",
      "outputs": [],
      "payable": false,
      "stateMutability": "nonpayable",
      "type": "function"
    },
    {
      "constant": false,
      "inputs": [
        {
          "internalType": "uint256",
          "name": "underlying",
          "type": "uint256"
        },
        {
          "internalType": "uint256",
          "name": "price",
          "type": "uint256"
        }
      ],
      "name": "setUnderlyingPrice",
      "outputs": [],
      "payable": false,
      "stateMutability": "nonpayable",
      "type": "function"
    },
    {
      "constant": false,
      "inputs": [
        {
          "internalType": "address[]",
          "name": "assets",
          "type": "address[]"
        },
        {
          "internalType": "uint256[]",
          "name": "assetPrices",
          "type": "uint256[]"
        },
        {
          "internalType": "uint256[]",
          "name": "underlyings",
          "type": "uint256[]"
        },
        {
          "internalType": "uint256[]",
          "name": "ulPrices",
          "type": "uint256[]"
        }
      ],
      "name": "setPriceAndUnderlyingPrice",
      "outputs": [],
      "payable": false,
      "stateMutability": "nonpayable",
      "type": "function"
    },
    {
      "constant": false,
      "inputs": [
        {
          "internalType": "address",
          "name": "optoken",
          "type": "address"
        },
        {
          "internalType": "uint256",
          "name": "price",
          "type": "uint256"
        }
      ],
      "name": "setSellOptionsPrice",
      "outputs": [],
      "payable": false,
      "stateMutability": "nonpayable",
      "type": "function"
    },
    {
      "constant": false,
      "inputs": [
        {
          "internalType": "address",
          "name": "optoken",
          "type": "address"
        },
        {
          "internalType": "uint256",
          "name": "price",
          "type": "uint256"
        }
      ],
      "name": "setBuyOptionsPrice",
      "outputs": [],
      "payable": false,
      "stateMutability": "nonpayable",
      "type": "function"
    },
    {
      "constant": false,
      "inputs": [
        {
          "internalType": "address[]",
          "name": "optokens",
          "type": "address[]"
        },
        {
          "internalType": "uint256[]",
          "name": "buyPrices",
          "type": "uint256[]"
        },
        {
          "internalType": "uint256[]",
          "name": "SellPrices",
          "type": "uint256[]"
        }
      ],
      "name": "setOptionsBuyAndSellPrice",
      "outputs": [],
      "payable": false,
      "stateMutability": "nonpayable",
      "type": "function"
    },
    {
      "constant": true,
      "inputs": [
        {
          "internalType": "address",
          "name": "asset",
          "type": "address"
        }
      ],
      "name": "getPrice",
      "outputs": [
        {
          "internalType": "uint256",
          "name": "",
          "type": "uint256"
        }
      ],
      "payable": false,
      "stateMutability": "view",
      "type": "function"
    },
    {
      "constant": true,
      "inputs": [
        {
          "internalType": "uint256",
          "name": "underlying",
          "type": "uint256"
        }
      ],
      "name": "getUnderlyingPrice",
      "outputs": [
        {
          "internalType": "uint256",
          "name": "",
          "type": "uint256"
        }
      ],
      "payable": false,
      "stateMutability": "view",
      "type": "function"
    },
    {
      "constant": true,
      "inputs": [
        {
          "internalType": "address",
          "name": "oToken",
          "type": "address"
        }
      ],
      "name": "getSellOptionsPrice",
      "outputs": [
        {
          "internalType": "uint256",
          "name": "",
          "type": "uint256"
        }
      ],
      "payable": false,
      "stateMutability": "view",
      "type": "function"
    },
    {
      "constant": true,
      "inputs": [
        {
          "internalType": "address",
          "name": "oToken",
          "type": "address"
        }
      ],
      "name": "getBuyOptionsPrice",
      "outputs": [
        {
          "internalType": "uint256",
          "name": "",
          "type": "uint256"
        }
      ],
      "payable": false,
      "stateMutability": "view",
      "type": "function"
    }
  ],
  "bytecode": "0x6080604081905260008054600160a060020a0319163317808255600160a060020a0316917f8be0079c531659141344cd1fd0a4f28419497f9722a3daafe3b4186f6b6457e0908290a3611706806100576000396000f3fe608060405234801561001057600080fd5b506004361061013d576000357c0100000000000000000000000000000000000000000000000000000000900480638da5cb5b116100ca578063da6632571161008e578063da663257146106dd578063ddf71cd5146106fa578063e7a1c1c01461079d578063e7f43c68146107c9578063f2fde38b146108215761013d565b80638da5cb5b1461062b5780638f32d59b1461064f5780639870d7fe1461066b578063ac8a584a14610691578063cd75e52c146106b75761013d565b80635fe1b456116101115780635fe1b45614610582578063715018a6146105ae57806383532667146105b65780638618b1d8146105d9578063861f4d19146105ff5761013d565b8062e4768b146101425780631410fa851461017057806341976e091461039f57806349b7482b146103d7575b600080fd5b61016e6004803603604081101561015857600080fd5b50600160a060020a038135169060200135610847565b005b61016e6004803603608081101561018657600080fd5b8101906020810181356401000000008111156101a157600080fd5b8201836020820111156101b357600080fd5b803590602001918460208302840111640100000000831117156101d557600080fd5b919080806020026020016040519081016040528093929190818152602001838360200280828437600092019190915250929594936020810193503591505064010000000081111561022557600080fd5b82018360208201111561023757600080fd5b8035906020019184602083028401116401000000008311171561025957600080fd5b91908080602002602001604051908101604052809392919081815260200183836020028082843760009201919091525092959493602081019350359150506401000000008111156102a957600080fd5b8201836020820111156102bb57600080fd5b803590602001918460208302840111640100000000831117156102dd57600080fd5b919080806020026020016040519081016040528093929190818152602001838360200280828437600092019190915250929594936020810193503591505064010000000081111561032d57600080fd5b82018360208201111561033f57600080fd5b8035906020019184602083028401116401000000008311171561036157600080fd5b9190808060200260200160405190810160405280939291908181526020018383602002808284376000920191909152509295506108df945050505050565b6103c5600480360360208110156103b557600080fd5b5035600160a060020a0316610a98565b60408051918252519081900360200190f35b61016e600480360360608110156103ed57600080fd5b81019060208101813564010000000081111561040857600080fd5b82018360208201111561041a57600080fd5b8035906020019184602083028401116401000000008311171561043c57600080fd5b919080806020026020016040519081016040528093929190818152602001838360200280828437600092019190915250929594936020810193503591505064010000000081111561048c57600080fd5b82018360208201111561049e57600080fd5b803590602001918460208302840111640100000000831117156104c057600080fd5b919080806020026020016040519081016040528093929190818152602001838360200280828437600092019190915250929594936020810193503591505064010000000081111561051057600080fd5b82018360208201111561052257600080fd5b8035906020019184602083028401116401000000008311171561054457600080fd5b919080806020026020016040519081016040528093929190818152602001838360200280828437600092019190915250929550610ab2945050505050565b61016e6004803603604081101561059857600080fd5b50600160a060020a038135169060200135610c81565b61016e610d20565b61016e600480360360408110156105cc57600080fd5b5080359060200135610dc1565b6103c5600480360360208110156105ef57600080fd5b5035600160a060020a0316610ea7565b61016e6004803603604081101561061557600080fd5b50600160a060020a038135169060200135610ec9565b610633610f6b565b60408051600160a060020a039092168252519081900360200190f35b610657610f7b565b604080519115158252519081900360200190f35b61016e6004803603602081101561068157600080fd5b5035600160a060020a0316610f8c565b610657600480360360208110156106a757600080fd5b5035600160a060020a0316610fea565b6103c5600480360360208110156106cd57600080fd5b5035600160a060020a0316611047565b6103c5600480360360208110156106f357600080fd5b5035611062565b61016e6004803603602081101561071057600080fd5b81019060208101813564010000000081111561072b57600080fd5b82018360208201111561073d57600080fd5b8035906020019184602083028401116401000000008311171561075f57600080fd5b91908080602002602001604051908101604052809392919081815260200183836020028082843760009201919091525092955061106d945050505050565b61016e600480360360408110156107b357600080fd5b5080359060200135600160a060020a03166110ce565b6107d1611158565b60408051602080825283518183015283519192839290830191858101910280838360005b8381101561080d5781810151838201526020016107f5565b505050509050019250505060405180910390f35b61016e6004803603602081101561083757600080fd5b5035600160a060020a03166111ba565b60015460009015801590610884575033600160a060020a03166001828154811061086d57fe5b600091825260209091200154600160a060020a0316145b6108c25760405160e560020a62461bcd02815260040180806020018281038252602d815260200180611641602d913960400191505060405180910390fd5b50600160a060020a03909116600090815260026020526040902055565b6001546000901580159061091c575033600160a060020a03166001828154811061090557fe5b600091825260209091200154600160a060020a0316145b61095a5760405160e560020a62461bcd02815260040180806020018281038252602d815260200180611641602d913960400191505060405180910390fd5b835185511461099d5760405160e560020a62461bcd0281526004018080602001828103825260318152602001806116a16031913960400191505060405180910390fd5b81518351146109e05760405160e560020a62461bcd02815260040180806020018281038252603381526020018061166e6033913960400191505060405180910390fd5b60005b8551811015610a3c578481815181106109f857fe5b602002602001015160026000888481518110610a1057fe5b602090810291909101810151600160a060020a03168252810191909152604001600020556001016109e3565b5060005b8351811015610a9057828181518110610a5557fe5b602002602001015160026000868481518110610a6d57fe5b602090810291909101810151825281019190915260400160002055600101610a40565b505050505050565b6000610aac82600160a060020a031661120d565b92915050565b60015460009015801590610aef575033600160a060020a031660018281548110610ad857fe5b600091825260209091200154600160a060020a0316145b610b2d5760405160e560020a62461bcd02815260040180806020018281038252602d815260200180611641602d913960400191505060405180910390fd5b8251845114610b705760405160e560020a62461bcd0281526004018080602001828103825260318152602001806115be6031913960400191505060405180910390fd5b8151845114610bb35760405160e560020a62461bcd0281526004018080602001828103825260328152602001806115ef6032913960400191505060405180910390fd5b60005b8451811015610c16576000858281518110610bcd57fe5b6020026020010151600160a060020a0316600a026001019050838281518110610bf257fe5b60209081029190910181015160009283526002909152604090912055600101610bb6565b5060005b8451811015610c7a576000858281518110610c3157fe5b6020026020010151600160a060020a0316600a026002019050848281518110610c5657fe5b60209081029190910181015160009283526002909152604090912055600101610c1a565b5050505050565b60015460009015801590610cbe575033600160a060020a031660018281548110610ca757fe5b600091825260209091200154600160a060020a0316145b610cfc5760405160e560020a62461bcd02815260040180806020018281038252602d815260200180611641602d913960400191505060405180910390fd5b50600160a060020a0391909116600a02600101600090815260026020526040902055565b610d28610f7b565b610d6a576040805160e560020a62461bcd0281526020600482018190526024820152600080516020611621833981519152604482015290519081900360640190fd5b60008054604051600160a060020a03909116907f8be0079c531659141344cd1fd0a4f28419497f9722a3daafe3b4186f6b6457e0908390a36000805473ffffffffffffffffffffffffffffffffffffffff19169055565b60015460009015801590610dfe575033600160a060020a031660018281548110610de757fe5b600091825260209091200154600160a060020a0316145b610e3c5760405160e560020a62461bcd02815260040180806020018281038252602d815260200180611641602d913960400191505060405180910390fd5b60008311610e94576040805160e560020a62461bcd02815260206004820152601960248201527f756e6465726c79696e672063616e6e6f74206265207a65726f00000000000000604482015290519081900360640190fd5b5060009182526002602052604090912055565b60006002600a600160a060020a0384160201610ec28161120d565b9392505050565b60015460009015801590610f06575033600160a060020a031660018281548110610eef57fe5b600091825260209091200154600160a060020a0316145b610f445760405160e560020a62461bcd02815260040180806020018281038252602d815260200180611641602d913960400191505060405180910390fd5b50600160a060020a0391909116600a02600290810160009081526020919091526040902055565b600054600160a060020a03165b90565b600054600160a060020a0316331490565b610f94610f7b565b610fd6576040805160e560020a62461bcd0281526020600482018190526024820152600080516020611621833981519152604482015290519081900360640190fd5b610fe760018263ffffffff61121f16565b50565b6000610ff4610f7b565b611036576040805160e560020a62461bcd0281526020600482018190526024820152600080516020611621833981519152604482015290519081900360640190fd5b610aac60018363ffffffff6112c416565b60006001600a600160a060020a0384160201610ec28161120d565b6000610aac8261120d565b611075610f7b565b6110b7576040805160e560020a62461bcd0281526020600482018190526024820152600080516020611621833981519152604482015290519081900360640190fd5b80516110ca9060019060208401906114b1565b5050565b6110d6610f7b565b611118576040805160e560020a62461bcd0281526020600482018190526024820152600080516020611621833981519152604482015290519081900360640190fd5b806001838154811061112657fe5b9060005260206000200160006101000a815481600160a060020a030219169083600160a060020a031602179055505050565b606060018054806020026020016040519081016040528092919081815260200182805480156111b057602002820191906000526020600020905b8154600160a060020a03168152600190910190602001808311611192575b5050505050905090565b6111c2610f7b565b611204576040805160e560020a62461bcd0281526020600482018190526024820152600080516020611621833981519152604482015290519081900360640190fd5b610fe7816113b2565b60009081526002602052604090205490565b6112828280548060200260200160405190810160405280929190818152602001828054801561127757602002820191906000526020600020905b8154600160a060020a03168152600190910190602001808311611259575b505050505082611462565b6110ca578154600181018355600083815260209020018054600160a060020a03831673ffffffffffffffffffffffffffffffffffffffff199091161790555050565b8154600090815b818110156113115783600160a060020a03168582815481106112e957fe5b600091825260209091200154600160a060020a0316141561130957611311565b6001016112cb565b818110156113a75760018203811461138b5784600183038154811061133257fe5b9060005260206000200160009054906101000a9004600160a060020a031685828154811061135c57fe5b9060005260206000200160006101000a815481600160a060020a030219169083600160a060020a031602179055505b845461139b866000198301611523565b50600192505050610aac565b506000949350505050565b600160a060020a0381166113fa5760405160e560020a62461bcd0281526004018080602001828103825260268152602001806115986026913960400191505060405180910390fd5b60008054604051600160a060020a03808516939216917f8be0079c531659141344cd1fd0a4f28419497f9722a3daafe3b4186f6b6457e091a36000805473ffffffffffffffffffffffffffffffffffffffff1916600160a060020a0392909216919091179055565b8151600090815b818110156113a75783600160a060020a031685828151811061148757fe5b6020026020010151600160a060020a031614156114a957600192505050610aac565b600101611469565b828054828255906000526020600020908101928215611513579160200282015b82811115611513578251825473ffffffffffffffffffffffffffffffffffffffff1916600160a060020a039091161782556020909201916001909101906114d1565b5061151f92915061154c565b5090565b8154818355818111156115475760008381526020902061154791810190830161157d565b505050565b610f7891905b8082111561151f57805473ffffffffffffffffffffffffffffffffffffffff19168155600101611552565b610f7891905b8082111561151f576000815560010161158356fe4f776e61626c653a206e6577206f776e657220697320746865207a65726f20616464726573736f70746f6b656e7320616e642062757950726963657320617265206e6f74206f66207468652073616d65206c656e6774686f70746f6b656e7320616e642053656c6c50726963657320617265206e6f74206f66207468652073616d65206c656e6774684f776e61626c653a2063616c6c6572206973206e6f7420746865206f776e65724f70657261746f723a2063616c6c6572206973206e6f742074686520656c696769626c65204f70657261746f72756e6465726c79696e677320616e6420756c50726963657320617265206e6f74206f66207468652073616d65206c656e67746861737365747320616e6420617373657450726963657320617265206e6f74206f66207468652073616d65206c656e677468a265627a7a72315820d5d96499e9a8df0becccf5195a9a1809da466f14509daffa3955a0a6e782c18c64736f6c63430005100032",
  "source": "pragma solidity =0.5.16;\r\nimport \"./interfaces/IFNXOracle.sol\";\r\nimport \"./modules/Operator.sol\";\r\ncontract FNXOracle is IFNXOracle,Operator {\r\n    mapping(uint256 => uint256) private priceMap;\r\n    /**\r\n      * @notice set price of an asset\r\n      * @dev function to set price for an asset\r\n      * @param asset Asset for which to set the price\r\n      * @param price the Asset's price\r\n      */    \r\n    function setPrice(address asset,uint256 price) public onlyOperatorIndex(0) {\r\n        priceMap[uint256(asset)] = price;\r\n\r\n    }\r\n    /**\r\n      * @notice set price of an underlying\r\n      * @dev function to set price for an underlying\r\n      * @param underlying underlying for which to set the price\r\n      * @param price the underlying's price\r\n      */  \r\n    function setUnderlyingPrice(uint256 underlying,uint256 price) public onlyOperatorIndex(0) {\r\n        require(underlying>0 , \"underlying cannot be zero\");\r\n        priceMap[underlying] = price;\r\n    }\r\n    /**\r\n    * @notice set a group of prices for assets and a group of prices for underlying\r\n    * @dev function to set a group of prices for assets and a group of prices for underlying\r\n    * @param assets a set of asset for which to set the price\r\n    * @param assetPrices  a set of the Asset's price\r\n    * @param underlyings a set of underlyings for which to set the price\r\n    * @param ulPrices  a set of the underlyings's price\r\n    */    \r\n    function setPriceAndUnderlyingPrice(address[] memory assets,uint256[] memory assetPrices,uint256[] memory underlyings,uint256[] memory ulPrices) public onlyOperatorIndex(0) {\r\n        require(assets.length == assetPrices.length,\"assets and assetPrices are not of the same length\");\r\n        require(underlyings.length == ulPrices.length,\"underlyings and ulPrices are not of the same length\");\r\n        uint i = 0;\r\n        for (;i<assets.length;i++) {\r\n            priceMap[uint256(assets[i])] = assetPrices[i];\r\n        }\r\n        for (i = 0;i<underlyings.length;i++) {\r\n            priceMap[underlyings[i]] = ulPrices[i];\r\n        }\r\n    }\r\n    /**\r\n      * @notice set price of an options token sell price\r\n      * @dev function to set an options token sell price\r\n      * @param optoken options token for which to set the sell price\r\n      * @param price the options token sell price\r\n      */     \r\n    function setSellOptionsPrice(address optoken,uint256 price) public onlyOperatorIndex(0) {\r\n        uint256 key = uint256(optoken)*10+1;\r\n        priceMap[key] = price;\r\n    }\r\n    /**\r\n      * @notice set price of an options token buy price\r\n      * @dev function to set an options token buy price\r\n      * @param optoken options token for which to set the buy price\r\n      * @param price the options token buy price\r\n      */      \r\n    function setBuyOptionsPrice(address optoken,uint256 price) public onlyOperatorIndex(0) {\r\n        uint256 key = uint256(optoken)*10+2;\r\n        priceMap[key] = price;\r\n    }\r\n    /**\r\n      * @notice set price of a group of option tokens buy and sell prices\r\n      * @dev function to set price of a group of option tokens buy and sell prices\r\n      * @param optokens a group of option tokens for which to set the buy and sell price\r\n      * @param buyPrices a group of buy prices\r\n      * @param SellPrices a group of sell prices\r\n      */    \r\n    function setOptionsBuyAndSellPrice(address[] memory optokens,uint256[] memory buyPrices,uint256[] memory SellPrices) public onlyOperatorIndex(0) {\r\n        require(optokens.length == buyPrices.length,\"optokens and buyPrices are not of the same length\");\r\n        require(optokens.length == SellPrices.length,\"optokens and SellPrices are not of the same length\");\r\n        uint i=0;\r\n        for (; i<optokens.length; i++) {\r\n            uint256 sellkey = uint256(optokens[i])*10+1;\r\n            priceMap[sellkey] = SellPrices[i];\r\n        }\r\n        for (i=0; i<optokens.length; i++) {\r\n            uint256 buykey = uint256(optokens[i])*10+2;\r\n            priceMap[buykey] = buyPrices[i];\r\n        }\r\n    }\r\n    /**\r\n  * @notice retrieves price of an asset\r\n  * @dev function to get price for an asset\r\n  * @param asset Asset for which to get the price\r\n  * @return uint mantissa of asset price (scaled by 1e8) or zero if unset or contract paused\r\n  */\r\n    function getPrice(address asset) public view returns (uint256) {\r\n        return _getPriceInfo(uint256(asset));\r\n    }\r\n    function getUnderlyingPrice(uint256 underlying) public view returns (uint256) {\r\n        return _getPriceInfo(underlying);\r\n    }\r\n\r\n    function getSellOptionsPrice(address oToken) public view returns (uint256) {\r\n        uint256 key = uint256(oToken)*10+1;\r\n        return _getPriceInfo(key);\r\n\r\n    }\r\n    function getBuyOptionsPrice(address oToken) public view returns (uint256) {\r\n        uint256 key = uint256(oToken)*10+2;\r\n        return _getPriceInfo(key);\r\n    }\r\n    function _getPriceInfo(uint256 key) internal view returns (uint256) {\r\n        return priceMap[key];\r\n    }\r\n\r\n/*\r\n    function getPriceDetail(address asset) public view returns (uint256,uint256) {\r\n        return _getPriceDetail(uint256(asset));\r\n    }\r\n    function getUnderlyingPriceDetail(uint256 underlying) public view returns (uint256,uint256) {\r\n        return _getPriceDetail(underlying);\r\n    }\r\n\r\n    function getSellOptionsPriceDetail(address oToken) public view returns (uint256,uint256) {\r\n        uint256 key = uint256(oToken)*10+1;\r\n        return _getPriceDetail(key);\r\n\r\n    }\r\n    function getBuyOptionsPriceDetail(address oToken) public view returns (uint256,uint256) {\r\n        uint256 key = uint256(oToken)*10+2;\r\n        return _getPriceDetail(key);\r\n    }\r\n    function _getPriceDetail(uint256 key) internal view returns (uint256,uint256) {\r\n        return (priceMap[key].price,priceMap[key].inptutTime);\r\n    }\r\n    */\r\n}\r\n",
  "sourcePath": "C:\\work\\solidity\\finnexusOptions_V2.1\\contracts\\FNXOracle.sol",
  "compiler": {
    "name": "solc",
    "version": "0.5.16+commit.9c3226ce.Emscripten.clang"
  },
  "schemaVersion": "3.1.0",
  "updatedAt": "2020-10-24T10:45:23.248Z",
  "devdoc": {
    "methods": {
      "addOperator(address)": {
        "details": "add a new operator by owner.       "
      },
      "getOperator()": {
        "details": "get all operators.       "
      },
      "getPrice(address)": {
        "details": "function to get price for an asset",
        "params": {
          "asset": "Asset for which to get the price"
        },
        "return": "uint mantissa of asset price (scaled by 1e8) or zero if unset or contract paused"
      },
      "isOwner()": {
        "details": "Returns true if the caller is the current owner."
      },
      "owner()": {
        "details": "Returns the address of the current owner."
      },
      "removeOperator(address)": {
        "details": "remove operator by owner.       "
      },
      "renounceOwnership()": {
        "details": "Leaves the contract without owner. It will not be possible to call `onlyOwner` functions anymore. Can only be called by the current owner.      * NOTE: Renouncing ownership will leave the contract without an owner, thereby removing any functionality that is only available to the owner."
      },
      "setBuyOptionsPrice(address,uint256)": {
        "details": "function to set an options token buy price",
        "params": {
          "optoken": "options token for which to set the buy price",
          "price": "the options token buy price"
        }
      },
      "setOperator(uint256,address)": {
        "details": "modify indexed operator by owner.       "
      },
      "setOperators(address[])": {
        "details": "set all operators by owner.       "
      },
      "setOptionsBuyAndSellPrice(address[],uint256[],uint256[])": {
        "details": "function to set price of a group of option tokens buy and sell prices",
        "params": {
          "SellPrices": "a group of sell prices",
          "buyPrices": "a group of buy prices",
          "optokens": "a group of option tokens for which to set the buy and sell price"
        }
      },
      "setPrice(address,uint256)": {
        "details": "function to set price for an asset",
        "params": {
          "asset": "Asset for which to set the price",
          "price": "the Asset's price"
        }
      },
      "setPriceAndUnderlyingPrice(address[],uint256[],uint256[],uint256[])": {
        "details": "function to set a group of prices for assets and a group of prices for underlying",
        "params": {
          "assetPrices": "a set of the Asset's price",
          "assets": "a set of asset for which to set the price",
          "ulPrices": "a set of the underlyings's price",
          "underlyings": "a set of underlyings for which to set the price"
        }
      },
      "setSellOptionsPrice(address,uint256)": {
        "details": "function to set an options token sell price",
        "params": {
          "optoken": "options token for which to set the sell price",
          "price": "the options token sell price"
        }
      },
      "setUnderlyingPrice(uint256,uint256)": {
        "details": "function to set price for an underlying",
        "params": {
          "price": "the underlying's price",
          "underlying": "underlying for which to set the price"
        }
      },
      "transferOwnership(address)": {
        "details": "Transfers ownership of the contract to a new account (`newOwner`). Can only be called by the current owner."
      }
    }
  },
  "userdoc": {
    "methods": {
      "getPrice(address)": {
        "notice": "retrieves price of an asset"
      },
      "setBuyOptionsPrice(address,uint256)": {
        "notice": "set price of an options token buy price"
      },
      "setOptionsBuyAndSellPrice(address[],uint256[],uint256[])": {
        "notice": "set price of a group of option tokens buy and sell prices"
      },
      "setPrice(address,uint256)": {
        "notice": "set price of an asset"
      },
      "setPriceAndUnderlyingPrice(address[],uint256[],uint256[],uint256[])": {
        "notice": "set a group of prices for assets and a group of prices for underlying"
      },
      "setSellOptionsPrice(address,uint256)": {
        "notice": "set price of an options token sell price"
      },
      "setUnderlyingPrice(uint256,uint256)": {
        "notice": "set price of an underlying"
      }
    }
  }
}