{
  "contractName": "FPTCoin",
  "abi": [
    {
      "inputs": [
        {
          "internalType": "address",
          "name": "minePoolAddr",
          "type": "address"
        }
      ],
      "payable": false,
      "stateMutability": "nonpayable",
      "type": "constructor"
    },
    {
      "anonymous": false,
      "inputs": [
        {
          "indexed": true,
          "internalType": "address",
          "name": "owner",
          "type": "address"
        },
        {
          "indexed": false,
          "internalType": "uint256",
          "name": "amount",
          "type": "uint256"
        },
        {
          "indexed": false,
          "internalType": "uint256",
          "name": "worth",
          "type": "uint256"
        }
      ],
      "name": "AddLocked",
      "type": "event"
    },
    {
      "anonymous": false,
      "inputs": [
        {
          "indexed": true,
          "internalType": "address",
          "name": "owner",
          "type": "address"
        },
        {
          "indexed": true,
          "internalType": "address",
          "name": "spender",
          "type": "address"
        },
        {
          "indexed": false,
          "internalType": "uint256",
          "name": "value",
          "type": "uint256"
        }
      ],
      "name": "Approval",
      "type": "event"
    },
    {
      "anonymous": false,
      "inputs": [
        {
          "indexed": true,
          "internalType": "address",
          "name": "owner",
          "type": "address"
        },
        {
          "indexed": false,
          "internalType": "uint256",
          "name": "amount",
          "type": "uint256"
        },
        {
          "indexed": false,
          "internalType": "uint256",
          "name": "worth",
          "type": "uint256"
        }
      ],
      "name": "BurnLocked",
      "type": "event"
    },
    {
      "anonymous": false,
      "inputs": [
        {
          "indexed": true,
          "internalType": "address",
          "name": "previousOwner",
          "type": "address"
        },
        {
          "indexed": true,
          "internalType": "address",
          "name": "newOwner",
          "type": "address"
        }
      ],
      "name": "OwnershipTransferred",
      "type": "event"
    },
    {
      "anonymous": false,
      "inputs": [
        {
          "indexed": true,
          "internalType": "address",
          "name": "from",
          "type": "address"
        },
        {
          "indexed": true,
          "internalType": "address",
          "name": "to",
          "type": "address"
        },
        {
          "indexed": false,
          "internalType": "uint256",
          "name": "value",
          "type": "uint256"
        }
      ],
      "name": "Transfer",
      "type": "event"
    },
    {
      "constant": true,
      "inputs": [
        {
          "internalType": "address",
          "name": "owner",
          "type": "address"
        },
        {
          "internalType": "address",
          "name": "spender",
          "type": "address"
        }
      ],
      "name": "allowance",
      "outputs": [
        {
          "internalType": "uint256",
          "name": "",
          "type": "uint256"
        }
      ],
      "payable": false,
      "stateMutability": "view",
      "type": "function"
    },
    {
      "constant": false,
      "inputs": [
        {
          "internalType": "address",
          "name": "spender",
          "type": "address"
        },
        {
          "internalType": "uint256",
          "name": "amount",
          "type": "uint256"
        }
      ],
      "name": "approve",
      "outputs": [
        {
          "internalType": "bool",
          "name": "",
          "type": "bool"
        }
      ],
      "payable": false,
      "stateMutability": "nonpayable",
      "type": "function"
    },
    {
      "constant": true,
      "inputs": [
        {
          "internalType": "address",
          "name": "account",
          "type": "address"
        }
      ],
      "name": "balanceOf",
      "outputs": [
        {
          "internalType": "uint256",
          "name": "",
          "type": "uint256"
        }
      ],
      "payable": false,
      "stateMutability": "view",
      "type": "function"
    },
    {
      "constant": true,
      "inputs": [],
      "name": "decimals",
      "outputs": [
        {
          "internalType": "uint8",
          "name": "",
          "type": "uint8"
        }
      ],
      "payable": false,
      "stateMutability": "view",
      "type": "function"
    },
    {
      "constant": false,
      "inputs": [
        {
          "internalType": "address",
          "name": "spender",
          "type": "address"
        },
        {
          "internalType": "uint256",
          "name": "subtractedValue",
          "type": "uint256"
        }
      ],
      "name": "decreaseAllowance",
      "outputs": [
        {
          "internalType": "bool",
          "name": "",
          "type": "bool"
        }
      ],
      "payable": false,
      "stateMutability": "nonpayable",
      "type": "function"
    },
    {
      "constant": true,
      "inputs": [],
      "name": "getFNXMinePoolAddress",
      "outputs": [
        {
          "internalType": "address",
          "name": "",
          "type": "address"
        }
      ],
      "payable": false,
      "stateMutability": "view",
      "type": "function"
    },
    {
      "constant": true,
      "inputs": [
        {
          "internalType": "uint256",
          "name": "item",
          "type": "uint256"
        }
      ],
      "name": "getItemTimeLimitation",
      "outputs": [
        {
          "internalType": "uint256",
          "name": "",
          "type": "uint256"
        }
      ],
      "payable": false,
      "stateMutability": "view",
      "type": "function"
    },
    {
      "constant": true,
      "inputs": [],
      "name": "getManager",
      "outputs": [
        {
          "internalType": "address",
          "name": "",
          "type": "address"
        }
      ],
      "payable": false,
      "stateMutability": "view",
      "type": "function"
    },
    {
      "constant": true,
      "inputs": [],
      "name": "getTimeLimitation",
      "outputs": [
        {
          "internalType": "uint256",
          "name": "",
          "type": "uint256"
        }
      ],
      "payable": false,
      "stateMutability": "view",
      "type": "function"
    },
    {
      "constant": false,
      "inputs": [
        {
          "internalType": "address",
          "name": "spender",
          "type": "address"
        },
        {
          "internalType": "uint256",
          "name": "addedValue",
          "type": "uint256"
        }
      ],
      "name": "increaseAllowance",
      "outputs": [
        {
          "internalType": "bool",
          "name": "",
          "type": "bool"
        }
      ],
      "payable": false,
      "stateMutability": "nonpayable",
      "type": "function"
    },
    {
      "constant": true,
      "inputs": [],
      "name": "isOwner",
      "outputs": [
        {
          "internalType": "bool",
          "name": "",
          "type": "bool"
        }
      ],
      "payable": false,
      "stateMutability": "view",
      "type": "function"
    },
    {
      "constant": true,
      "inputs": [],
      "name": "name",
      "outputs": [
        {
          "internalType": "string",
          "name": "",
          "type": "string"
        }
      ],
      "payable": false,
      "stateMutability": "view",
      "type": "function"
    },
    {
      "constant": true,
      "inputs": [],
      "name": "owner",
      "outputs": [
        {
          "internalType": "address",
          "name": "",
          "type": "address"
        }
      ],
      "payable": false,
      "stateMutability": "view",
      "type": "function"
    },
    {
      "constant": false,
      "inputs": [],
      "name": "renounceOwnership",
      "outputs": [],
      "payable": false,
      "stateMutability": "nonpayable",
      "type": "function"
    },
    {
      "constant": false,
      "inputs": [
        {
          "internalType": "address",
          "name": "fnxMinePool",
          "type": "address"
        }
      ],
      "name": "setFNXMinePoolAddress",
      "outputs": [],
      "payable": false,
      "stateMutability": "nonpayable",
      "type": "function"
    },
    {
      "constant": false,
      "inputs": [
        {
          "internalType": "address",
          "name": "managerAddress",
          "type": "address"
        }
      ],
      "name": "setManager",
      "outputs": [],
      "payable": false,
      "stateMutability": "nonpayable",
      "type": "function"
    },
    {
      "constant": false,
      "inputs": [
        {
          "internalType": "uint256",
          "name": "_limitation",
          "type": "uint256"
        }
      ],
      "name": "setTimeLimitation",
      "outputs": [],
      "payable": false,
      "stateMutability": "nonpayable",
      "type": "function"
    },
    {
      "constant": true,
      "inputs": [],
      "name": "symbol",
      "outputs": [
        {
          "internalType": "string",
          "name": "",
          "type": "string"
        }
      ],
      "payable": false,
      "stateMutability": "view",
      "type": "function"
    },
    {
      "constant": true,
      "inputs": [],
      "name": "totalSupply",
      "outputs": [
        {
          "internalType": "uint256",
          "name": "",
          "type": "uint256"
        }
      ],
      "payable": false,
      "stateMutability": "view",
      "type": "function"
    },
    {
      "constant": false,
      "inputs": [
        {
          "internalType": "address",
          "name": "newOwner",
          "type": "address"
        }
      ],
      "name": "transferOwnership",
      "outputs": [],
      "payable": false,
      "stateMutability": "nonpayable",
      "type": "function"
    },
    {
      "constant": false,
      "inputs": [],
      "name": "initialize",
      "outputs": [],
      "payable": false,
      "stateMutability": "nonpayable",
      "type": "function"
    },
    {
      "constant": true,
      "inputs": [
        {
          "internalType": "address",
          "name": "user",
          "type": "address"
        }
      ],
      "name": "getUserBurnTimeLimite",
      "outputs": [
        {
          "internalType": "uint256",
          "name": "",
          "type": "uint256"
        }
      ],
      "payable": false,
      "stateMutability": "view",
      "type": "function"
    },
    {
      "constant": true,
      "inputs": [],
      "name": "getTotalLockedWorth",
      "outputs": [
        {
          "internalType": "uint256",
          "name": "",
          "type": "uint256"
        }
      ],
      "payable": false,
      "stateMutability": "view",
      "type": "function"
    },
    {
      "constant": true,
      "inputs": [
        {
          "internalType": "address",
          "name": "account",
          "type": "address"
        }
      ],
      "name": "lockedBalanceOf",
      "outputs": [
        {
          "internalType": "uint256",
          "name": "",
          "type": "uint256"
        }
      ],
      "payable": false,
      "stateMutability": "view",
      "type": "function"
    },
    {
      "constant": true,
      "inputs": [
        {
          "internalType": "address",
          "name": "account",
          "type": "address"
        }
      ],
      "name": "lockedWorthOf",
      "outputs": [
        {
          "internalType": "uint256",
          "name": "",
          "type": "uint256"
        }
      ],
      "payable": false,
      "stateMutability": "view",
      "type": "function"
    },
    {
      "constant": true,
      "inputs": [
        {
          "internalType": "address",
          "name": "account",
          "type": "address"
        }
      ],
      "name": "getLockedBalance",
      "outputs": [
        {
          "internalType": "uint256",
          "name": "",
          "type": "uint256"
        },
        {
          "internalType": "uint256",
          "name": "",
          "type": "uint256"
        }
      ],
      "payable": false,
      "stateMutability": "view",
      "type": "function"
    },
    {
      "constant": false,
      "inputs": [
        {
          "internalType": "address",
          "name": "account",
          "type": "address"
        },
        {
          "internalType": "uint256",
          "name": "amount",
          "type": "uint256"
        }
      ],
      "name": "addMinerBalance",
      "outputs": [],
      "payable": false,
      "stateMutability": "nonpayable",
      "type": "function"
    },
    {
      "constant": false,
      "inputs": [
        {
          "internalType": "address",
          "name": "account",
          "type": "address"
        },
        {
          "internalType": "uint256",
          "name": "amount",
          "type": "uint256"
        },
        {
          "internalType": "uint256",
          "name": "lockedWorth",
          "type": "uint256"
        }
      ],
      "name": "addlockBalance",
      "outputs": [],
      "payable": false,
      "stateMutability": "nonpayable",
      "type": "function"
    },
    {
      "constant": false,
      "inputs": [
        {
          "internalType": "address",
          "name": "recipient",
          "type": "address"
        },
        {
          "internalType": "uint256",
          "name": "amount",
          "type": "uint256"
        }
      ],
      "name": "transfer",
      "outputs": [
        {
          "internalType": "bool",
          "name": "",
          "type": "bool"
        }
      ],
      "payable": false,
      "stateMutability": "nonpayable",
      "type": "function"
    },
    {
      "constant": false,
      "inputs": [
        {
          "internalType": "address",
          "name": "sender",
          "type": "address"
        },
        {
          "internalType": "address",
          "name": "recipient",
          "type": "address"
        },
        {
          "internalType": "uint256",
          "name": "amount",
          "type": "uint256"
        }
      ],
      "name": "transferFrom",
      "outputs": [
        {
          "internalType": "bool",
          "name": "",
          "type": "bool"
        }
      ],
      "payable": false,
      "stateMutability": "nonpayable",
      "type": "function"
    },
    {
      "constant": false,
      "inputs": [
        {
          "internalType": "address",
          "name": "account",
          "type": "address"
        },
        {
          "internalType": "uint256",
          "name": "amount",
          "type": "uint256"
        }
      ],
      "name": "burn",
      "outputs": [],
      "payable": false,
      "stateMutability": "nonpayable",
      "type": "function"
    },
    {
      "constant": false,
      "inputs": [
        {
          "internalType": "address",
          "name": "account",
          "type": "address"
        },
        {
          "internalType": "uint256",
          "name": "amount",
          "type": "uint256"
        }
      ],
      "name": "mint",
      "outputs": [],
      "payable": false,
      "stateMutability": "nonpayable",
      "type": "function"
    },
    {
      "constant": false,
      "inputs": [
        {
          "internalType": "address",
          "name": "account",
          "type": "address"
        },
        {
          "internalType": "uint256",
          "name": "tokenAmount",
          "type": "uint256"
        },
        {
          "internalType": "uint256",
          "name": "leftCollateral",
          "type": "uint256"
        }
      ],
      "name": "redeemLockedCollateral",
      "outputs": [
        {
          "internalType": "uint256",
          "name": "",
          "type": "uint256"
        },
        {
          "internalType": "uint256",
          "name": "",
          "type": "uint256"
        }
      ],
      "payable": false,
      "stateMutability": "nonpayable",
      "type": "function"
    }
  ],
  "bytecode": "0x60806040526003805460ff19166012179055610e10600a553480156200002457600080fd5b50604051620021a8380380620021a8833981810160405260208110156200004a57600080fd5b505160008054600160a060020a0319163317808255604051600160a060020a039190911691907f8be0079c531659141344cd1fd0a4f28419497f9722a3daafe3b4186f6b6457e0908290a3620000a8640100000000620000ce810204565b60078054600160a060020a031916600160a060020a03929092169190911790556200030d565b620000e164010000000062000156810204565b6200013c57604080517f08c379a0000000000000000000000000000000000000000000000000000000008152602060048201819052602482015260008051602062002188833981519152604482015290519081900360640190fd5b62000154640100000000620017cd6200016882021704565b565b600054600160a060020a031633145b90565b6200017b64010000000062000156810204565b620001d657604080517f08c379a0000000000000000000000000000000000000000000000000000000008152602060048201819052602482015260008051602062002188833981519152604482015290519081900360640190fd5b6040805180820190915260138082527f66696e6e6578757320706f6f6c20746f6b656e0000000000000000000000000060209092019182526200021c916001916200026b565b506040805180820190915260038082527f4650540000000000000000000000000000000000000000000000000000000000602090920191825262000263916002916200026b565b506000600655565b828054600181600116156101000203166002900490600052602060002090601f016020900481019282601f10620002ae57805160ff1916838001178555620002de565b82800160010185558215620002de579182015b82811115620002de578251825591602001919060010190620002c1565b50620002ec929150620002f0565b5090565b6200016591905b80821115620002ec5760008155600101620002f7565b611e6b806200031d6000396000f3fe608060405234801561001057600080fd5b5060043610610218576000357c010000000000000000000000000000000000000000000000000000000090048063715018a6116101375780639dc29fac116100ca578063d0ebdbe711610099578063d0ebdbe714610641578063d500958414610667578063dad3eb741461066f578063dd62ed3e14610677578063f2fde38b146106a557610218565b80639dc29fac14610597578063a457c2d7146105c3578063a9059cbb146105ef578063c40868931461061b57610218565b80638da5cb5b116101065780638da5cb5b146105625780638f32d59b1461056a57806395d89b41146105725780639783cbd91461057a57610218565b8063715018a6146105005780637de29ea8146105085780638129fc1c1461052e5780638399d9f31461053657610218565b806339509351116101af578063593557361161017e578063593557361461046a57806359653ec9146104905780636f2b70cd146104b457806370a08231146104da57610218565b806339509351146103d657806340c10f19146104025780634688d5d6146104305780634b91a07b1461043857610218565b806323b872dd116101eb57806323b872dd1461031a5780632a75ee4214610350578063313ce5671461036d57806335f0c4fa1461038b57610218565b806306fdde031461021d57806307e77aa01461029a578063095ea7b3146102d257806318160ddd14610312575b600080fd5b6102256106cb565b6040805160208082528351818301528351919283929083019185019080838360005b8381101561025f578181015183820152602001610247565b50505050905090810190601f16801561028c5780820380516001836020036101000a031916815260200191505b509250505060405180910390f35b6102c0600480360360208110156102b057600080fd5b5035600160a060020a0316610758565b60408051918252519081900360200190f35b6102fe600480360360408110156102e857600080fd5b50600160a060020a038135169060200135610773565b604080519115158252519081900360200190f35b6102c061078a565b6102fe6004803603606081101561033057600080fd5b50600160a060020a03813581169160208101359091169060400135610791565b6102c06004803603602081101561036657600080fd5b5035610895565b6103756108ac565b6040805160ff9092168252519081900360200190f35b6103bd600480360360608110156103a157600080fd5b50600160a060020a0381351690602081013590604001356108b5565b6040805192835260208301919091528051918290030190f35b6102fe600480360360408110156103ec57600080fd5b50600160a060020a038135169060200135610a4a565b61042e6004803603604081101561041857600080fd5b50600160a060020a038135169060200135610a8b565b005b6102c0610bcb565b61042e6004803603606081101561044e57600080fd5b50600160a060020a038135169060208101359060400135610bd1565b6102c06004803603602081101561048057600080fd5b5035600160a060020a0316610c37565b610498610c52565b60408051600160a060020a039092168252519081900360200190f35b61042e600480360360208110156104ca57600080fd5b5035600160a060020a0316610c61565b6102c0600480360360208110156104f057600080fd5b5035600160a060020a0316610cda565b61042e610cf5565b6102c06004803603602081101561051e57600080fd5b5035600160a060020a0316610d96565b61042e610daa565b61042e6004803603604081101561054c57600080fd5b50600160a060020a038135169060200135610dfe565b610498610ed4565b6102fe610ee3565b610225610ef4565b61042e6004803603602081101561059057600080fd5b5035610f4c565b61042e600480360360408110156105ad57600080fd5b50600160a060020a038135169060200135610f9b565b6102fe600480360360408110156105d957600080fd5b50600160a060020a03813516906020013561113b565b6102fe6004803603604081101561060557600080fd5b50600160a060020a038135169060200135611177565b6103bd6004803603602081101561063157600080fd5b5035600160a060020a0316611277565b61042e6004803603602081101561065757600080fd5b5035600160a060020a031661129f565b610498611318565b6102c0611327565b6102c06004803603604081101561068d57600080fd5b50600160a060020a038135811691602001351661132d565b61042e600480360360208110156106bb57600080fd5b5035600160a060020a0316611358565b60018054604080516020600284861615610100026000190190941693909304601f810184900484028201840190925281815292918301828280156107505780601f1061072557610100808354040283529160200191610750565b820191906000526020600020905b81548152906001019060200180831161073357829003601f168201915b505050505081565b600160a060020a03166000908152600d602052604090205490565b60006107803384846113ae565b5060015b92915050565b6006545b90565b600754600090600160a060020a03166107e2576040805160e560020a62461bcd0281526020600482015260166024820152600080516020611dad833981519152604482015290519081900360640190fd5b600754604080517fef56807f000000000000000000000000000000000000000000000000000000008152600160a060020a0387811660048301528681166024830152604482018690529151919092169163ef56807f91606480830192600092919082900301818387803b15801561085857600080fd5b505af115801561086c573d6000803e3d6000fd5b5050505061088283600160a060020a03166114a0565b61088d8484846114b3565b949350505050565b600a54600091825260096020526040909120540190565b60035460ff1681565b6008546000908190600160a060020a031633146109065760405160e560020a62461bcd028152600401808060200182810382526026815260200180611d1f6026913960400191505060405180910390fd5b600a54600160a060020a03861660008181526009602052604090205490914291011061097c576040805160e560020a62461bcd02815260206004820152601f60248201527f54696d65206c696d69746174696f6e206973206e6f7420657870697265642100604482015290519081900360640190fd5b8361098d5760009250829150610a41565b600160a060020a0386166000908152600c6020908152604080832054600d909252909120548115806109bd575080155b156109d1575060009350839250610a419050565b600080808484816109de57fe5b0490508985106109f557899150808a0292506109fc565b8491508392505b88831115610a1657808981610a0d57fe5b04915080820292505b8115610a3457610a278b8385611505565b5095509350610a41915050565b5060009650869550505050505b50935093915050565b336000818152600560209081526040808320600160a060020a03871684529091528120549091610780918590610a86908663ffffffff6115da16565b6113ae565b600854600160a060020a03163314610ad75760405160e560020a62461bcd028152600401808060200182810382526026815260200180611d1f6026913960400191505060405180910390fd5b600754600160a060020a0316610b25576040805160e560020a62461bcd0281526020600482015260166024820152600080516020611dad833981519152604482015290519081900360640190fd5b600754604080517f8af2a470000000000000000000000000000000000000000000000000000000008152600160a060020a0385811660048301526024820185905291519190921691638af2a47091604480830192600092919082900301818387803b158015610b9357600080fd5b505af1158015610ba7573d6000803e3d6000fd5b50505050610bbd82600160a060020a03166114a0565b610bc78282611635565b5050565b600a5490565b600854600160a060020a03163314610c1d5760405160e560020a62461bcd028152600401808060200182810382526026815260200180611d1f6026913960400191505060405180910390fd5b610c278383610f9b565b610c328383836116f8565b505050565b600160a060020a03166000908152600c602052604090205490565b600754600160a060020a031690565b610c69610ee3565b610cab576040805160e560020a62461bcd0281526020600482018190526024820152600080516020611d8d833981519152604482015290519081900360640190fd5b6007805473ffffffffffffffffffffffffffffffffffffffff1916600160a060020a0392909216919091179055565b600160a060020a031660009081526004602052604090205490565b610cfd610ee3565b610d3f576040805160e560020a62461bcd0281526020600482018190526024820152600080516020611d8d833981519152604482015290519081900360640190fd5b60008054604051600160a060020a03909116907f8be0079c531659141344cd1fd0a4f28419497f9722a3daafe3b4186f6b6457e0908390a36000805473ffffffffffffffffffffffffffffffffffffffff19169055565b600061078482600160a060020a0316610895565b610db2610ee3565b610df4576040805160e560020a62461bcd0281526020600482018190526024820152600080516020611d8d833981519152604482015290519081900360640190fd5b610dfc6117cd565b565b600854600160a060020a03163314610e4a5760405160e560020a62461bcd028152600401808060200182810382526026815260200180611d1f6026913960400191505060405180910390fd5b600754604080517f8399d9f3000000000000000000000000000000000000000000000000000000008152600160a060020a0385811660048301526024820185905291519190921691638399d9f391604480830192600092919082900301818387803b158015610eb857600080fd5b505af1158015610ecc573d6000803e3d6000fd5b505050505050565b600054600160a060020a031690565b600054600160a060020a0316331490565b6002805460408051602060018416156101000260001901909316849004601f810184900484028201840190925281815292918301828280156107505780601f1061072557610100808354040283529160200191610750565b610f54610ee3565b610f96576040805160e560020a62461bcd0281526020600482018190526024820152600080516020611d8d833981519152604482015290519081900360640190fd5b600a55565b600854600160a060020a03163314610fe75760405160e560020a62461bcd028152600401808060200182810382526026815260200180611d1f6026913960400191505060405180910390fd5b600a54600160a060020a03831660008181526009602052604090205490914291011061105d576040805160e560020a62461bcd02815260206004820152601f60248201527f54696d65206c696d69746174696f6e206973206e6f7420657870697265642100604482015290519081900360640190fd5b600754600160a060020a03166110ab576040805160e560020a62461bcd0281526020600482015260166024820152600080516020611dad833981519152604482015290519081900360640190fd5b600754604080517f2a04d0c7000000000000000000000000000000000000000000000000000000008152600160a060020a0386811660048301526024820186905291519190921691632a04d0c791604480830192600092919082900301818387803b15801561111957600080fd5b505af115801561112d573d6000803e3d6000fd5b50505050610c3283836118a8565b336000818152600560209081526040808320600160a060020a03871684529091528120549091610780918590610a86908663ffffffff61195516565b600754600090600160a060020a03166111c8576040805160e560020a62461bcd0281526020600482015260166024820152600080516020611dad833981519152604482015290519081900360640190fd5b600754604080517fef56807f000000000000000000000000000000000000000000000000000000008152336004820152600160a060020a038681166024830152604482018690529151919092169163ef56807f91606480830192600092919082900301818387803b15801561123c57600080fd5b505af1158015611250573d6000803e3d6000fd5b5050505061126683600160a060020a03166114a0565b61127083836119b0565b9392505050565b600160a060020a03166000908152600c6020908152604080832054600d909252909120549091565b6112a7610ee3565b6112e9576040805160e560020a62461bcd0281526020600482018190526024820152600080516020611d8d833981519152604482015290519081900360640190fd5b6008805473ffffffffffffffffffffffffffffffffffffffff1916600160a060020a0392909216919091179055565b600854600160a060020a031690565b600b5490565b600160a060020a03918216600090815260056020908152604080832093909416825291909152205490565b611360610ee3565b6113a2576040805160e560020a62461bcd0281526020600482018190526024820152600080516020611d8d833981519152604482015290519081900360640190fd5b6113ab816119bd565b50565b600160a060020a0383166113f65760405160e560020a62461bcd028152600401808060200182810382526024815260200180611e136024913960400191505060405180910390fd5b600160a060020a03821661143e5760405160e560020a62461bcd028152600401808060200182810382526022815260200180611d6b6022913960400191505060405180910390fd5b600160a060020a03808416600081815260056020908152604080832094871680845294825291829020859055815185815291517f8c5be1e5ebec7d5bd14f71427d1e84f3dd0314c0f7b2291e5b200ac8c7c3b9259281900390910190a3505050565b6000908152600960205260409020429055565b60006114c0848484611a6d565b600160a060020a0384166000908152600560209081526040808320338085529252909120546114fb918691610a86908663ffffffff61195516565b5060019392505050565b600160a060020a0383166000908152600c602052604090205461152e908363ffffffff61195516565b600160a060020a0384166000908152600c6020908152604080832093909355600d90522054611563908263ffffffff61195516565b600160a060020a0384166000908152600d6020526040902055600b5461158f908263ffffffff61195516565b600b5560408051838152602081018390528151600160a060020a038616927f3eff168ce30c25c5e643633b70f58850a0085c0a411d1b53e501a655a90bae1a928290030190a2505050565b80820182811015610784576040805160e560020a62461bcd02815260206004820152601b60248201527f536166654d6174683a206164646974696f6e206f766572666c6f770000000000604482015290519081900360640190fd5b600160a060020a038216611693576040805160e560020a62461bcd02815260206004820152601f60248201527f45524332303a206d696e7420746f20746865207a65726f206164647265737300604482015290519081900360640190fd5b6006546116a6908263ffffffff6115da16565b6006556116b38282611b61565b604080518281529051600160a060020a038416916000917fddf252ad1be2c89b69c2b068fc378daa952ba7f163c4a11628f55a4df523b3ef9181900360200190a35050565b600160a060020a0383166000908152600c6020526040902054611721908363ffffffff6115da16565b600160a060020a0384166000908152600c6020908152604080832093909355600d90522054611756908263ffffffff6115da16565b600160a060020a0384166000908152600d6020526040902055600b54611782908263ffffffff6115da16565b600b5560408051838152602081018390528151600160a060020a038616927f8eb48086ad9abd7f3270b68172da958c7507500a9e0c8a9897a5c85ae7d8c0e9928290030190a2505050565b6117d5610ee3565b611817576040805160e560020a62461bcd0281526020600482018190526024820152600080516020611d8d833981519152604482015290519081900360640190fd5b6040805180820190915260138082527f66696e6e6578757320706f6f6c20746f6b656e00000000000000000000000000602090920191825261185b91600191611c63565b506040805180820190915260038082527f465054000000000000000000000000000000000000000000000000000000000060209092019182526118a091600291611c63565b506000600655565b600160a060020a0382166118f05760405160e560020a62461bcd028152600401808060200182810382526021815260200180611dcd6021913960400191505060405180910390fd5b6118fa8282611bf2565b60065461190d908263ffffffff61195516565b600655604080518281529051600091600160a060020a038516917fddf252ad1be2c89b69c2b068fc378daa952ba7f163c4a11628f55a4df523b3ef9181900360200190a35050565b80820382811115610784576040805160e560020a62461bcd02815260206004820181905260248201527f536166654d6174683a20737562737472616374696f6e20756e646572666c6f77604482015290519081900360640190fd5b6000610780338484611a6d565b600160a060020a038116611a055760405160e560020a62461bcd028152600401808060200182810382526026815260200180611d456026913960400191505060405180910390fd5b60008054604051600160a060020a03808516939216917f8be0079c531659141344cd1fd0a4f28419497f9722a3daafe3b4186f6b6457e091a36000805473ffffffffffffffffffffffffffffffffffffffff1916600160a060020a0392909216919091179055565b600160a060020a038316611ab55760405160e560020a62461bcd028152600401808060200182810382526025815260200180611dee6025913960400191505060405180910390fd5b600160a060020a038216611afd5760405160e560020a62461bcd028152600401808060200182810382526023815260200180611cfc6023913960400191505060405180910390fd5b611b078382611bf2565b611b118282611b61565b81600160a060020a031683600160a060020a03167fddf252ad1be2c89b69c2b068fc378daa952ba7f163c4a11628f55a4df523b3ef836040518082815260200191505060405180910390a3505050565b600160a060020a038216611ba95760405160e560020a62461bcd028152600401808060200182810382526023815260200180611cfc6023913960400191505060405180910390fd5b600160a060020a038216600090815260046020526040902054611bd2908263ffffffff6115da16565b600160a060020a0390921660009081526004602052604090209190915550565b600160a060020a038216611c3a5760405160e560020a62461bcd028152600401808060200182810382526023815260200180611cfc6023913960400191505060405180910390fd5b600160a060020a038216600090815260046020526040902054611bd2908263ffffffff61195516565b828054600181600116156101000203166002900490600052602060002090601f016020900481019282601f10611ca457805160ff1916838001178555611cd1565b82800160010185558215611cd1579182015b82811115611cd1578251825591602001919060010190611cb6565b50611cdd929150611ce1565b5090565b61078e91905b80821115611cdd5760008155600101611ce756fe45524332303a207472616e7366657220746f20746865207a65726f20616464726573734d616e6167657261626c653a2063616c6c6572206973206e6f7420746865204d616e616765724f776e61626c653a206e6577206f776e657220697320746865207a65726f206164647265737345524332303a20617070726f766520746f20746865207a65726f20616464726573734f776e61626c653a2063616c6c6572206973206e6f7420746865206f776e6572466e784d696e65506f6f6c206973206e6f74207365740000000000000000000045524332303a206275726e2066726f6d20746865207a65726f206164647265737345524332303a207472616e736665722066726f6d20746865207a65726f206164647265737345524332303a20617070726f76652066726f6d20746865207a65726f2061646472657373a265627a7a72315820feef96d905318264db3508a1191ed9dafe1d4aa880fcb29b0f032d01bc4f5a7964736f6c634300051000324f776e61626c653a2063616c6c6572206973206e6f7420746865206f776e6572",
  "source": "pragma solidity =0.5.16;\r\nimport \"./SharedCoin.sol\";\r\nimport \"../modules/SafeMath.sol\";\r\n\r\n\r\n/**\r\n * @title FPTCoin is finnexus collateral Pool token, implement ERC20 interface.\r\n * @dev ERC20 token. Its inside value is collatral pool net worth.\r\n *\r\n */\r\ncontract FPTCoin is SharedCoin {\r\n    using SafeMath for uint256;\r\n        constructor (address minePoolAddr)public{\r\n        initialize();\r\n        _FnxMinePool = IFNXMinePool(minePoolAddr);\r\n    }\r\n\r\n    /**\r\n     * @dev constructor function. set FNX minePool contract address. \r\n     */ \r\n    function initialize() onlyOwner public{\r\n        SharedCoin.initialize();\r\n    }\r\n\r\n    /**\r\n     * @dev Retrieve user's start time for burning. \r\n     * @param user user's account.\r\n     */ \r\n    function getUserBurnTimeLimite(address user) public view returns (uint256){\r\n        return getItemTimeLimitation(uint256(user));\r\n    }\r\n    /**\r\n     * @dev Retrieve total locked worth. \r\n     */ \r\n    function getTotalLockedWorth() public view returns (uint256) {\r\n        return _totalLockedWorth;\r\n    }\r\n    /**\r\n     * @dev Retrieve user's locked balance. \r\n     * @param account user's account.\r\n     */ \r\n    function lockedBalanceOf(address account) public view returns (uint256) {\r\n        return lockedBalances[account];\r\n    }\r\n    /**\r\n     * @dev Retrieve user's locked net worth. \r\n     * @param account user's account.\r\n     */ \r\n    function lockedWorthOf(address account) public view returns (uint256) {\r\n        return lockedTotalWorth[account];\r\n    }\r\n    /**\r\n     * @dev Retrieve user's locked balance and locked net worth. \r\n     * @param account user's account.\r\n     */ \r\n    function getLockedBalance(address account) public view returns (uint256,uint256) {\r\n        return (lockedBalances[account],lockedTotalWorth[account]);\r\n    }\r\n    /**\r\n     * @dev Interface to manager FNX mine pool contract, add miner balance when user has bought some options. \r\n     * @param account user's account.\r\n     * @param amount user's pay for buying options, priced in USD.\r\n     */ \r\n    function addMinerBalance(address account,uint256 amount) public onlyManager{\r\n        _FnxMinePool.addMinerBalance(account,amount);\r\n    }\r\n    /**\r\n     * dev Burn user's locked balance, when user redeem collateral. \r\n     * param account user's account.\r\n     * param amount amount of burned FPT.\r\n \r\n    function burnLocked(address account, uint256 amount) public onlyManager{\r\n        require(latestTransferIn[account]+timeLimited<now,\"FPT coin locked time is not expired!\");\r\n        uint256 lockedAmount = lockedBalances[account];\r\n        require(amount<=lockedAmount,\"burnLocked: balance is insufficient\");\r\n        if(lockedAmount>0){\r\n            uint256 lockedWorth = lockedTotalWorth[account];\r\n            if (amount == lockedAmount){\r\n                _subLockBalance(account,lockedAmount,lockedWorth);\r\n            }else{\r\n                uint256 burnWorth = amount*lockedWorth/lockedAmount;\r\n                _subLockBalance(account,amount,burnWorth);\r\n            }\r\n        }\r\n    }\r\n     */\r\n    /**\r\n     * @dev Move user's FPT to locked balance, when user redeem collateral. \r\n     * @param account user's account.\r\n     * @param amount amount of locked FPT.\r\n     * @param lockedWorth net worth of locked FPT.\r\n     */ \r\n    function addlockBalance(address account, uint256 amount,uint256 lockedWorth)public onlyManager {\r\n        burn(account,amount);\r\n        _addLockBalance(account,amount,lockedWorth);\r\n    }\r\n    /**\r\n     * @dev Move user's FPT to 'recipient' balance, a interface in ERC20. \r\n     * @param recipient recipient's account.\r\n     * @param amount amount of FPT.\r\n     */ \r\n    function transfer(address recipient, uint256 amount)public returns (bool){\r\n        require(address(_FnxMinePool) != address(0),\"FnxMinePool is not set\");\r\n        _FnxMinePool.transferMinerCoin(msg.sender,recipient,amount);\r\n        setItemTimeLimitation(uint256(recipient));\r\n        return SharedCoin.transfer(recipient,amount);\r\n    }\r\n    /**\r\n     * @dev Move sender's FPT to 'recipient' balance, a interface in ERC20. \r\n     * @param sender sender's account.\r\n     * @param recipient recipient's account.\r\n     * @param amount amount of FPT.\r\n     */ \r\n    function transferFrom(address sender, address recipient, uint256 amount)public returns (bool){\r\n        require(address(_FnxMinePool) != address(0),\"FnxMinePool is not set\");\r\n        _FnxMinePool.transferMinerCoin(sender,recipient,amount);\r\n        setItemTimeLimitation(uint256(recipient));\r\n        return SharedCoin.transferFrom(sender,recipient,amount);\r\n    }\r\n    /**\r\n     * @dev burn user's FPT when user redeem FPTCoin. \r\n     * @param account user's account.\r\n     * @param amount amount of FPT.\r\n     */ \r\n    function burn(address account, uint256 amount) public onlyManager OutLimitation(uint256(account)) {\r\n        require(address(_FnxMinePool) != address(0),\"FnxMinePool is not set\");\r\n        _FnxMinePool.burnMinerCoin(account,amount);\r\n        SharedCoin._burn(account,amount);\r\n    }\r\n    /**\r\n     * @dev mint user's FPT when user add collateral. \r\n     * @param account user's account.\r\n     * @param amount amount of FPT.\r\n     */ \r\n    function mint(address account, uint256 amount) public onlyManager {\r\n        require(address(_FnxMinePool) != address(0),\"FnxMinePool is not set\");\r\n        _FnxMinePool.mintMinerCoin(account,amount);\r\n        setItemTimeLimitation(uint256(account));\r\n        SharedCoin._mint(account,amount);\r\n    }\r\n    /**\r\n     * @dev An auxiliary function, add user's locked balance. \r\n     * @param account user's account.\r\n     * @param amount amount of FPT.\r\n     * @param lockedWorth net worth of FPT.\r\n     */ \r\n    function _addLockBalance(address account, uint256 amount,uint256 lockedWorth)internal {\r\n        lockedBalances[account]= lockedBalances[account].add(amount);\r\n        lockedTotalWorth[account]= lockedTotalWorth[account].add(lockedWorth);\r\n        _totalLockedWorth = _totalLockedWorth.add(lockedWorth);\r\n        emit AddLocked(account, amount,lockedWorth);\r\n    }\r\n    /**\r\n     * @dev An auxiliary function, deduct user's locked balance. \r\n     * @param account user's account.\r\n     * @param amount amount of FPT.\r\n     * @param lockedWorth net worth of FPT.\r\n     */ \r\n    function _subLockBalance(address account,uint256 amount,uint256 lockedWorth)internal {\r\n        lockedBalances[account]= lockedBalances[account].sub(amount);\r\n        lockedTotalWorth[account]= lockedTotalWorth[account].sub(lockedWorth);\r\n        _totalLockedWorth = _totalLockedWorth.sub(lockedWorth);\r\n        emit BurnLocked(account, amount,lockedWorth);\r\n    }\r\n    /**\r\n     * @dev An interface of redeem locked FPT, when user redeem collateral, only manager contract can invoke. \r\n     * @param account user's account.\r\n     * @param tokenAmount amount of FPT.\r\n     * @param leftCollateral left available collateral in collateral pool, priced in USD.\r\n     */ \r\n    function redeemLockedCollateral(address account,uint256 tokenAmount,uint256 leftCollateral)public onlyManager OutLimitation(uint256(account)) returns (uint256,uint256){\r\n        if (leftCollateral == 0){\r\n            return(0,0);\r\n        }\r\n        uint256 lockedAmount = lockedBalances[account];\r\n        uint256 lockedWorth = lockedTotalWorth[account];\r\n        if (lockedAmount == 0 || lockedWorth == 0){\r\n            return (0,0);\r\n        }\r\n        uint256 redeemWorth = 0;\r\n        uint256 lockedBurn = 0;\r\n        uint256 lockedPrice = lockedWorth/lockedAmount;\r\n        if (lockedAmount >= tokenAmount){\r\n            lockedBurn = tokenAmount;\r\n            redeemWorth = tokenAmount*lockedPrice;\r\n        }else{\r\n            lockedBurn = lockedAmount;\r\n            redeemWorth = lockedWorth;\r\n        }\r\n        if (redeemWorth > leftCollateral) {\r\n            lockedBurn = leftCollateral/lockedPrice;\r\n            redeemWorth = lockedBurn*lockedPrice;\r\n        }\r\n        if (lockedBurn > 0){\r\n            _subLockBalance(account,lockedBurn,redeemWorth);\r\n            return (lockedBurn,redeemWorth);\r\n        }\r\n        return (0,0);\r\n    }\r\n}\r\n",
  "sourcePath": "C:\\work\\solidity\\finnexusOptions_V2.1\\contracts\\FPTCoin\\FPTCoin.sol",
  "compiler": {
    "name": "solc",
    "version": "0.5.16+commit.9c3226ce.Emscripten.clang"
  },
  "schemaVersion": "3.1.0",
  "updatedAt": "2020-10-24T10:45:23.254Z",
  "devdoc": {
    "details": "ERC20 token. Its inside value is collatral pool net worth.  ",
    "methods": {
      "addMinerBalance(address,uint256)": {
        "details": "Interface to manager FNX mine pool contract, add miner balance when user has bought some options. ",
        "params": {
          "account": "user's account.",
          "amount": "user's pay for buying options, priced in USD."
        }
      },
      "addlockBalance(address,uint256,uint256)": {
        "details": "Move user's FPT to locked balance, when user redeem collateral. ",
        "params": {
          "account": "user's account.",
          "amount": "amount of locked FPT.",
          "lockedWorth": "net worth of locked FPT."
        }
      },
      "allowance(address,address)": {
        "details": "See {IERC20-allowance}."
      },
      "approve(address,uint256)": {
        "details": "See {IERC20-approve}.      * Requirements:      * - `spender` cannot be the zero address."
      },
      "balanceOf(address)": {
        "details": "See {IERC20-balanceOf}."
      },
      "burn(address,uint256)": {
        "details": "burn user's FPT when user redeem FPTCoin. ",
        "params": {
          "account": "user's account.",
          "amount": "amount of FPT."
        }
      },
      "decreaseAllowance(address,uint256)": {
        "details": "Atomically decreases the allowance granted to `spender` by the caller.      * This is an alternative to {approve} that can be used as a mitigation for problems described in {IERC20-approve}.      * Emits an {Approval} event indicating the updated allowance.      * Requirements:      * - `spender` cannot be the zero address. - `spender` must have allowance for the caller of at least `subtractedValue`."
      },
      "getItemTimeLimitation(uint256)": {
        "details": "Retrieve user's start time for burning. ",
        "params": {
          "item": "item key."
        }
      },
      "getLockedBalance(address)": {
        "details": "Retrieve user's locked balance and locked net worth. ",
        "params": {
          "account": "user's account."
        }
      },
      "getManager()": {
        "details": "get manager address.       "
      },
      "getTotalLockedWorth()": {
        "details": "Retrieve total locked worth. "
      },
      "getUserBurnTimeLimite(address)": {
        "details": "Retrieve user's start time for burning. ",
        "params": {
          "user": "user's account."
        }
      },
      "increaseAllowance(address,uint256)": {
        "details": "Atomically increases the allowance granted to `spender` by the caller.      * This is an alternative to {approve} that can be used as a mitigation for problems described in {IERC20-approve}.      * Emits an {Approval} event indicating the updated allowance.      * Requirements:      * - `spender` cannot be the zero address."
      },
      "initialize()": {
        "details": "constructor function. set FNX minePool contract address. "
      },
      "isOwner()": {
        "details": "Returns true if the caller is the current owner."
      },
      "lockedBalanceOf(address)": {
        "details": "Retrieve user's locked balance. ",
        "params": {
          "account": "user's account."
        }
      },
      "lockedWorthOf(address)": {
        "details": "Retrieve user's locked net worth. ",
        "params": {
          "account": "user's account."
        }
      },
      "mint(address,uint256)": {
        "details": "mint user's FPT when user add collateral. ",
        "params": {
          "account": "user's account.",
          "amount": "amount of FPT."
        }
      },
      "owner()": {
        "details": "Returns the address of the current owner."
      },
      "redeemLockedCollateral(address,uint256,uint256)": {
        "details": "An interface of redeem locked FPT, when user redeem collateral, only manager contract can invoke. ",
        "params": {
          "account": "user's account.",
          "leftCollateral": "left available collateral in collateral pool, priced in USD.",
          "tokenAmount": "amount of FPT."
        }
      },
      "renounceOwnership()": {
        "details": "Leaves the contract without owner. It will not be possible to call `onlyOwner` functions anymore. Can only be called by the current owner.      * NOTE: Renouncing ownership will leave the contract without an owner, thereby removing any functionality that is only available to the owner."
      },
      "setManager(address)": {
        "details": "set manager by owner.       "
      },
      "setTimeLimitation(uint256)": {
        "details": "set time limitation, only owner can invoke. ",
        "params": {
          "_limitation": "new time limitation."
        }
      },
      "totalSupply()": {
        "details": "See {IERC20-totalSupply}."
      },
      "transfer(address,uint256)": {
        "details": "Move user's FPT to 'recipient' balance, a interface in ERC20. ",
        "params": {
          "amount": "amount of FPT.",
          "recipient": "recipient's account."
        }
      },
      "transferFrom(address,address,uint256)": {
        "details": "Move sender's FPT to 'recipient' balance, a interface in ERC20. ",
        "params": {
          "amount": "amount of FPT.",
          "recipient": "recipient's account.",
          "sender": "sender's account."
        }
      },
      "transferOwnership(address)": {
        "details": "Transfers ownership of the contract to a new account (`newOwner`). Can only be called by the current owner."
      }
    },
    "title": "FPTCoin is finnexus collateral Pool token, implement ERC20 interface."
  },
  "userdoc": {
    "methods": {}
  }
}