{
  "contractName": "ImpliedVolatility",
  "abi": [
    {
      "inputs": [],
      "payable": false,
      "stateMutability": "nonpayable",
      "type": "constructor"
    },
    {
      "anonymous": false,
      "inputs": [
        {
          "indexed": true,
          "internalType": "address",
          "name": "previousOwner",
          "type": "address"
        },
        {
          "indexed": true,
          "internalType": "address",
          "name": "newOwner",
          "type": "address"
        }
      ],
      "name": "OwnershipTransferred",
      "type": "event"
    },
    {
      "constant": false,
      "inputs": [
        {
          "internalType": "address",
          "name": "addAddress",
          "type": "address"
        }
      ],
      "name": "addOperator",
      "outputs": [],
      "payable": false,
      "stateMutability": "nonpayable",
      "type": "function"
    },
    {
      "constant": true,
      "inputs": [],
      "name": "getOperator",
      "outputs": [
        {
          "internalType": "address[]",
          "name": "",
          "type": "address[]"
        }
      ],
      "payable": false,
      "stateMutability": "view",
      "type": "function"
    },
    {
      "constant": true,
      "inputs": [],
      "name": "isOwner",
      "outputs": [
        {
          "internalType": "bool",
          "name": "",
          "type": "bool"
        }
      ],
      "payable": false,
      "stateMutability": "view",
      "type": "function"
    },
    {
      "constant": true,
      "inputs": [],
      "name": "owner",
      "outputs": [
        {
          "internalType": "address",
          "name": "",
          "type": "address"
        }
      ],
      "payable": false,
      "stateMutability": "view",
      "type": "function"
    },
    {
      "constant": false,
      "inputs": [
        {
          "internalType": "address",
          "name": "removeAddress",
          "type": "address"
        }
      ],
      "name": "removeOperator",
      "outputs": [
        {
          "internalType": "bool",
          "name": "",
          "type": "bool"
        }
      ],
      "payable": false,
      "stateMutability": "nonpayable",
      "type": "function"
    },
    {
      "constant": false,
      "inputs": [],
      "name": "renounceOwnership",
      "outputs": [],
      "payable": false,
      "stateMutability": "nonpayable",
      "type": "function"
    },
    {
      "constant": false,
      "inputs": [
        {
          "internalType": "uint256",
          "name": "index",
          "type": "uint256"
        },
        {
          "internalType": "address",
          "name": "addAddress",
          "type": "address"
        }
      ],
      "name": "setOperator",
      "outputs": [],
      "payable": false,
      "stateMutability": "nonpayable",
      "type": "function"
    },
    {
      "constant": false,
      "inputs": [
        {
          "internalType": "address[]",
          "name": "operators",
          "type": "address[]"
        }
      ],
      "name": "setOperators",
      "outputs": [],
      "payable": false,
      "stateMutability": "nonpayable",
      "type": "function"
    },
    {
      "constant": false,
      "inputs": [
        {
          "internalType": "address",
          "name": "newOwner",
          "type": "address"
        }
      ],
      "name": "transferOwnership",
      "outputs": [],
      "payable": false,
      "stateMutability": "nonpayable",
      "type": "function"
    },
    {
      "constant": false,
      "inputs": [
        {
          "internalType": "uint32",
          "name": "underlying",
          "type": "uint32"
        },
        {
          "internalType": "uint256",
          "name": "_Iv0",
          "type": "uint256"
        }
      ],
      "name": "SetAtmIv",
      "outputs": [],
      "payable": false,
      "stateMutability": "nonpayable",
      "type": "function"
    },
    {
      "constant": false,
      "inputs": [
        {
          "internalType": "uint32",
          "name": "underlying",
          "type": "uint32"
        },
        {
          "internalType": "int256",
          "name": "_paramA",
          "type": "int256"
        },
        {
          "internalType": "int256",
          "name": "_paramB",
          "type": "int256"
        },
        {
          "internalType": "int256",
          "name": "_paramC",
          "type": "int256"
        },
        {
          "internalType": "int256",
          "name": "_paramD",
          "type": "int256"
        },
        {
          "internalType": "int256",
          "name": "_paramE",
          "type": "int256"
        }
      ],
      "name": "SetFormulasParam",
      "outputs": [],
      "payable": false,
      "stateMutability": "nonpayable",
      "type": "function"
    },
    {
      "constant": false,
      "inputs": [
        {
          "internalType": "uint32",
          "name": "underlying",
          "type": "uint32"
        },
        {
          "internalType": "uint64[]",
          "name": "IvRate",
          "type": "uint64[]"
        }
      ],
      "name": "SetATMIvRate",
      "outputs": [],
      "payable": false,
      "stateMutability": "nonpayable",
      "type": "function"
    },
    {
      "constant": true,
      "inputs": [
        {
          "internalType": "uint32",
          "name": "underlying",
          "type": "uint32"
        },
        {
          "internalType": "uint8",
          "name": "",
          "type": "uint8"
        },
        {
          "internalType": "uint256",
          "name": "expiration",
          "type": "uint256"
        },
        {
          "internalType": "uint256",
          "name": "currentPrice",
          "type": "uint256"
        },
        {
          "internalType": "uint256",
          "name": "strikePrice",
          "type": "uint256"
        }
      ],
      "name": "calculateIv",
      "outputs": [
        {
          "internalType": "uint256",
          "name": "",
          "type": "uint256"
        }
      ],
      "payable": false,
      "stateMutability": "view",
      "type": "function"
    }
  ],
  "bytecode": "0x60806040523480156200001157600080fd5b5060008054600160a060020a0319163317808255604051600160a060020a039190911691907f8be0079c531659141344cd1fd0a4f28419497f9722a3daafe3b4186f6b6457e0908290a36302e78f907fe90b7bceb6e7df5418fb78d8ee546e97c83a08bbccc01a0644d599ccd2a7c2e08190557f679795a0195a1b76cdebb7c51d74e058aee92919b8c3389af86ef24535e8a28c556431effd7159197fa15bc60c955c405d20d9149c709e2460f1c2d9a497496a7f46004d1772c3054c8190557fc3a24b0501bd2c13a7e57f2db4369ec4c223447539fc0724a9d55ac4a06ebd4d556432000000007fabd6e7cb50984ff9c2f3e18a2660c3353dadf4e3291deeb275dae2cd1e44fe058190557f91da3fd0782e51c6b3986e9e672fd566868e71f3dbc2d6c2cd6fbb3e361af2a755630ccccccc197f1471eb6eb2c5e789fc3de43f8ce62938c7d1836ec861730447e2ada8fd81017b8190557f89832631fb3c3307a103ba2c84ab569c64d6182a18893dcd163f0f1c2090733a55630ccccccd7f3e5fec24aa4dc4e5aee2e025e51e1392c72a2500577559fae9665c6d52bd6a318190557f8819ef417987f8ae7a81f42cdfb18815282fe989326fbff903d13cf0e03ace29556401000000007fb39221ace053465ec3453ce2b36430bd138b997ecea25c1043da0c366812b8288190557fb7c774451310d1be4108bc180d1b52823cb0ee0274a6c0081bcaf94f115fb96d81905560408051610b40810182529182526401163441866020838101919091526401241338f49183019190915264012e5588fa60608301526401368a0603608083015264013d687e8260a083015264014355925a60c08301526401488e998160e083015264014d3bdb5e61010083015264015179460c6101208301526401555b0b77610140830152640158f043d961016083015264015c44866661018083015264015f60ed116101a08301526401624cc0306101c08301526401650debc16101e0830152640167a951ce61020083015264016a2305ab61022083015264016c7e778a61024083015264016ebe9513610260830152640170e5e237610280830152640172f68c516102a0830152640174f279276102c0830152640176db52c46102e0830152640178b290f961030083015264017a79810261032083015264017c314bcb61034083015264017ddafb1061036083015264017f777da561038083015264018107aafa6103a08301526401828c461d6103c083015264018406003b6103e0830152640185757ac7610400830152640186db494861042083015264018837f2f16104408301526401898bf3f561046083015264018ad7beb761048083015264018c1bbccb6104a083015264018d584fdd6104c083015264018e8dd2786104e083015264018fbc98b0610500830152640190e4f0c56105208301526401920723a46105408301526401932375676105608301526401943a25bb6105808301526401954b70456105a0830152640196578cf86105c08301526401975eb0606105e0830152640198610be96106008301526401995ece1f61062083015264019a5822e361064083015264019b4d33a561066083015264019c3e278c61068083015264019d2b23a16106a083015264019e144afa6106c083015264019ef9bedb6106e083015264019fdb9ed36107008301526401a0ba08dc6107208301526401a19519796107408301526401a26cebc66107608301526401a341999a6107808301526401a4133b916107a08301526401a4e1e9286107c08301526401a5adb8c96107e08301526401a676bfde6108008301526401a73d12e06108208301526401a800c5646108408301526401a8c1ea2a6108608301526401a98093276108808301526401aa3cd1936108a08301526401aaf6b5ef6108c08301526401abae50146108e08301526401ac63af396109008301526401ad16e1fc6109208301526401adc7f66b6109408301526401ae76fa096109608301526401af23f9d86109808301526401afcf025e6109a08301526401b0781fab6109c08301526401b11f5d5f6109e08301526401b1c4c6b0610a008301526401b268666f610a208301526401b30a4709610a408301526401b3aa7293610a608301526401b448f2c7610a808301526401b4e5d10e610aa08301526401b581167d610ac08301526401b61acbe0610ae08301526401b6b2f9b8610b008301526401b749a83f610b20830152600160005260089052620006849060008051602062001ae683398151915290605a620006d5565b506008602052600260005260008051602062001ae68339815191528054620006ce917f6add646517a5b0f6793cd5891b7937d28a5b2981a5d88ebc7cd776088fea90419162000792565b506200080e565b82805482825590600052602060002090600301600490048101928215620007805791602002820160005b838211156200074957835183826101000a8154816001604060020a03021916908364ffffffffff1602179055509260200192600801602081600701049283019260010302620006ff565b80156200077e5782816101000a8154906001604060020a03021916905560080160208160070104928301926001030262000749565b505b506200078e929150620007e3565b5090565b8280548282559060005260206000209060030160049004810192821562000780576000526020600020916003016004900482015b8281111562000780578254825591600101919060010190620007c6565b6200080b91905b808211156200078e57805467ffffffffffffffff19168155600101620007ea565b90565b6112c8806200081e6000396000f3fe608060405234801561001057600080fd5b50600436106100ec576000357c0100000000000000000000000000000000000000000000000000000000900480639870d7fe116100a9578063ddf71cd511610083578063ddf71cd5146102f1578063e7a1c1c014610394578063e7f43c68146103c0578063f2fde38b14610418576100ec565b80639870d7fe1461027c578063ac8a584a146102a2578063ae968709146102c8576100ec565b80630797296c146100f15780630b75235914610134578063185d1232146101e4578063715018a6146102345780638da5cb5b1461023c5780638f32d59b14610260575b600080fd5b610132600480360360c081101561010757600080fd5b5063ffffffff8135169060208101359060408101359060608101359060808101359060a0013561043e565b005b6101326004803603604081101561014a57600080fd5b63ffffffff823516919081019060408101602082013564010000000081111561017257600080fd5b82018360208201111561018457600080fd5b803590602001918460208302840111640100000000831117156101a657600080fd5b9190808060200260200160405190810160405280939291908181526020018383602002808284376000920191909152509295506104cc945050505050565b610222600480360360a08110156101fa57600080fd5b5063ffffffff8135169060ff6020820135169060408101359060608101359060800135610541565b60408051918252519081900360200190f35b610132610578565b610244610619565b60408051600160a060020a039092168252519081900360200190f35b610268610629565b604080519115158252519081900360200190f35b6101326004803603602081101561029257600080fd5b5035600160a060020a031661063a565b610268600480360360208110156102b857600080fd5b5035600160a060020a0316610698565b610132600480360360408110156102de57600080fd5b5063ffffffff81351690602001356106fb565b6101326004803603602081101561030757600080fd5b81019060208101813564010000000081111561032257600080fd5b82018360208201111561033457600080fd5b8035906020019184602083028401116401000000008311171561035657600080fd5b919080806020026020016040519081016040528093929190818152602001838360200280828437600092019190915250929550610790945050505050565b610132600480360360408110156103aa57600080fd5b5080359060200135600160a060020a03166107f1565b6103c861087b565b60408051602080825283518183015283519192839290830191858101910280838360005b838110156104045781810151838201526020016103ec565b505050509050019250505060405180910390f35b6101326004803603602081101561042e57600080fd5b5035600160a060020a03166108dd565b610446610629565b610488576040805160e560020a62461bcd0281526020600482018190526024820152600080516020611247833981519152604482015290519081900360640190fd5b63ffffffff90951660009081526003602090815260408083209690965560048152858220949094556005845284812092909255600683528382205560079091522055565b6104d4610629565b610516576040805160e560020a62461bcd0281526020600482018190526024820152600080516020611247833981519152604482015290519081900360640190fd5b63ffffffff82166000908152600860209081526040909120825161053c92840190611063565b505050565b60008061054e8786610930565b90508284141561055f57905061056f565b61056b87828686610a74565b9150505b95945050505050565b610580610629565b6105c2576040805160e560020a62461bcd0281526020600482018190526024820152600080516020611247833981519152604482015290519081900360640190fd5b60008054604051600160a060020a03909116907f8be0079c531659141344cd1fd0a4f28419497f9722a3daafe3b4186f6b6457e0908390a36000805473ffffffffffffffffffffffffffffffffffffffff19169055565b600054600160a060020a03165b90565b600054600160a060020a0316331490565b610642610629565b610684576040805160e560020a62461bcd0281526020600482018190526024820152600080516020611247833981519152604482015290519081900360640190fd5b61069560018263ffffffff610b2b16565b50565b60006106a2610629565b6106e4576040805160e560020a62461bcd0281526020600482018190526024820152600080516020611247833981519152604482015290519081900360640190fd5b6106f560018363ffffffff610bd016565b92915050565b60015460009015801590610738575033600160a060020a03166001828154811061072157fe5b600091825260209091200154600160a060020a0316145b6107765760405160e560020a62461bcd02815260040180806020018281038252602d815260200180611267602d913960400191505060405180910390fd5b5063ffffffff909116600090815260026020526040902055565b610798610629565b6107da576040805160e560020a62461bcd0281526020600482018190526024820152600080516020611247833981519152604482015290519081900360640190fd5b80516107ed90600190602084019061111e565b5050565b6107f9610629565b61083b576040805160e560020a62461bcd0281526020600482018190526024820152600080516020611247833981519152604482015290519081900360640190fd5b806001838154811061084957fe5b9060005260206000200160006101000a815481600160a060020a030219169083600160a060020a031602179055505050565b606060018054806020026020016040519081016040528092919081815260200182805480156108d357602002820191906000526020600020905b8154600160a060020a031681526001909101906020018083116108b5575b5050505050905090565b6108e5610629565b610927576040805160e560020a62461bcd0281526020600482018190526024820152600080516020611247833981519152604482015290519081900360640190fd5b61069581610cbe565b60006201518082048061095a57505063ffffffff82166000908152600260205260409020546106f5565b63ffffffff841660009081526008602052604090205480821061097e576001810391505b6000610a4b620151808402620151808560010102600860008a63ffffffff1663ffffffff16815260200190815260200160002060018703815481106109bf57fe5b90600052602060002090600491828204019190066008029054906101000a900467ffffffffffffffff1667ffffffffffffffff16600860008b63ffffffff1663ffffffff1681526020019081526020016000208781548110610a1d57fe5b6000918252602090912060048204015460039091166008026101000a900467ffffffffffffffff1689610d6e565b63ffffffff87166000908152600260205260409020546305f5e100910204935050505092915050565b600080610a82868585610de7565b63ffffffff8716600090815260076020526040812054919250640100000000838002828112909203918218041801610ab981610e83565b63ffffffff881660009081526005602090815260408083205460048352818420546003909352908320546401000000009690910283811284039081188790041884019190910289800201828112909203918218949094041892909150610b20908301610e83565b979650505050505050565b610b8e82805480602002602001604051908101604052809291908181526020018280548015610b8357602002820191906000526020600020905b8154600160a060020a03168152600190910190602001808311610b65575b505050505082610ec1565b6107ed578154600181018355600083815260209020018054600160a060020a03831673ffffffffffffffffffffffffffffffffffffffff199091161790555050565b8154600090815b81811015610c1d5783600160a060020a0316858281548110610bf557fe5b600091825260209091200154600160a060020a03161415610c1557610c1d565b600101610bd7565b81811015610cb357600182038114610c9757846001830381548110610c3e57fe5b9060005260206000200160009054906101000a9004600160a060020a0316858281548110610c6857fe5b9060005260206000200160006101000a815481600160a060020a030219169083600160a060020a031602179055505b8454610ca786600019830161118c565b506001925050506106f5565b506000949350505050565b600160a060020a038116610d065760405160e560020a62461bcd0281526004018080602001828103825260268152602001806112216026913960400191505060405180910390fd5b60008054604051600160a060020a03808516939216917f8be0079c531659141344cd1fd0a4f28419497f9722a3daafe3b4186f6b6457e091a36000805473ffffffffffffffffffffffffffffffffffffffff1916600160a060020a0392909216919091179055565b600085851415610dc8576040805160e560020a62461bcd02815260206004820152601c60248201527f696e7075742076616c75657320617265206475706c6963617465642100000000604482015290519081900360640190fd5b8585038683038585030281610dd957fe5b048401905095945050505050565b600081831415610e0d575063ffffffff8316600090815260066020526040902054610e7c565b81831115610e4c5763ffffffff8416600090815260066020526040902054610e4483640100000000860281610e3e57fe5b04610f10565b019050610e7c565b63ffffffff8416600090815260066020526040902054610e7584640100000000850281610e3e57fe5b6000030190505b9392505050565b6401000000000280600260018201045b81811015610ebb57809150600281828581610eaa57fe5b040181610eb357fe5b049050610e93565b50919050565b8151600090815b81811015610cb35783600160a060020a0316858281518110610ee657fe5b6020026020010151600160a060020a03161415610f08576001925050506106f5565b600101610ec8565b6000640100000000821015610f6f576040805160e560020a62461bcd02815260206004820181905260248201527f6c6f67652066756e6374696f6e20696e70757420697320746f6f20736d616c6c604482015290519081900360640190fd5b6000610f7a83610f96565b67010000000000000066b17217f7d1cf78909102049392505050565b6000640100000000821015610ff5576040805160e560020a62461bcd02815260206004820152601760248201527f4c6f673220696e70757420697320746f6f20736d616c6c000000000000000000604482015290519081900360640190fd5b60005b64020000000083106110165760029092049164010000000001610ff8565b60005b602060ff8216101561105c576401000000008480020493506402000000008410611054576002938490049360ff601f83900316900a91909101905b600101611019565b5092915050565b8280548282559060005260206000209060030160049004810192821561110e5791602002820160005b838211156110d857835183826101000a81548167ffffffffffffffff021916908367ffffffffffffffff160217905550926020019260080160208160070104928301926001030261108c565b801561110c5782816101000a81549067ffffffffffffffff02191690556008016020816007010492830192600103026110d8565b505b5061111a9291506111b0565b5090565b828054828255906000526020600020908101928215611180579160200282015b82811115611180578251825473ffffffffffffffffffffffffffffffffffffffff1916600160a060020a0390911617825560209092019160019091019061113e565b5061111a9291506111d5565b81548183558181111561053c5760008381526020902061053c918101908301611206565b61062691905b8082111561111a57805467ffffffffffffffff191681556001016111b6565b61062691905b8082111561111a57805473ffffffffffffffffffffffffffffffffffffffff191681556001016111db565b61062691905b8082111561111a576000815560010161120c56fe4f776e61626c653a206e6577206f776e657220697320746865207a65726f20616464726573734f776e61626c653a2063616c6c6572206973206e6f7420746865206f776e65724f70657261746f723a2063616c6c6572206973206e6f742074686520656c696769626c65204f70657261746f72a265627a7a72315820305ccfeb59752872d75a7a1e8b2218e89bff53dcac44a2c98c146adcfa1800a264736f6c63430005100032ad67d757c34507f157cacfa2e3153e9f260a2244f30428821be7be64587ac55f",
  "source": "pragma solidity =0.5.16;\r\nimport \"./modules/Operator.sol\";\r\nimport \"./modules/SmallNumbers.sol\";\r\n/**\r\n * @title Options Implied volatility calculation.\r\n * @dev A Smart-contract to calculate options Implied volatility.\r\n *\r\n */\r\ncontract ImpliedVolatility is Operator {\r\n    //Implied volatility decimal, is same with oracle's price' decimal. \r\n    uint256 constant private _calDecimal = 1e8;\r\n    // A constant day time\r\n    uint256 constant private DaySecond = 1 days;\r\n    // Formulas param, atm Implied volatility, which expiration is one day.\r\n    mapping(uint32=>uint256) internal ATMIv0;\r\n    // Formulas param A,B,C,D,E\r\n    mapping(uint32=>int256) internal paramA;\r\n    mapping(uint32=>int256) internal paramB;\r\n    mapping(uint32=>int256) internal paramC;\r\n    mapping(uint32=>int256) internal paramD;\r\n    mapping(uint32=>int256) internal paramE;\r\n    // Formulas param ATM Iv Rate, sort by time\r\n    mapping(uint32=>uint64[]) internal ATMIvRate;\r\n\r\n    constructor () public{\r\n        ATMIv0[1] = 48730000;\r\n        ATMIv0[2] = 48730000;\r\n        paramA[1] = -214479761754;\r\n        paramA[2] = -214479761754;\r\n        paramB[1] = 214748364800;\r\n        paramB[2] = 214748364800;\r\n        paramC[1] = -214748365;\r\n        paramC[2] = -214748365;\r\n        paramD[1] = 214748365;\r\n        paramD[2] = 214748365;\r\n        paramE[1] = 4294967296;\r\n        paramE[2] = 4294967296;\r\n        ATMIvRate[1] = [4294967296,4667490694,4900206836,5072324858,5209982467,5325225602,5424648794,5512272257,5590735710,5661869580,\r\n                        5726997367,5787108313,5842962022,5895154961,5944164400,5990378433,6034117070,6075647403,6115194762,6152951059,\r\n                        6189081143,6223727697,6257015079,6289052356,6319935737,6349750530,6378572747,6406470416,6433504677,6459730682,\r\n                        6485198365,6509953083,6534036167,6557485384,6580335345,6602617845,6624362167,6645595339,6666342365,6686626424,\r\n                        6706469040,6725890245,6744908708,6763541863,6781806011,6799716421,6817287416,6834532448,6851464169,6868094495,\r\n                        6884434659,6900495269,6916286348,6931817377,6947097338,6962134747,6976937683,6991513820,7005870457,7020014534,\r\n                        7033952666,7047691153,7061236008,7074592969,7087767518,7100764896,7113590116,7126247978,7138743079,7151079827,\r\n                        7163262447,7175294996,7187181369,7198925308,7210530411,7222000137,7233337816,7244546654,7255629739,7266590047,\r\n                        7277430448,7288153711,7298762505,7309259411,7319646919,7329927438,7340103293,7350176736,7360149944,7370025023];\r\n         ATMIvRate[2] =  ATMIvRate[1];\r\n    }\r\n    /**\r\n     * @dev set underlying's atm implied volatility. Foundation operator will modify it frequently.\r\n     * @param underlying underlying ID.,1 for BTC, 2 for ETH\r\n     * @param _Iv0 underlying's atm implied volatility. \r\n     */ \r\n    function SetAtmIv(uint32 underlying,uint256 _Iv0)public onlyOperatorIndex(0){\r\n        ATMIv0[underlying] = _Iv0;\r\n    }\r\n    /**\r\n     * @dev set implied volatility surface Formulas param. \r\n     * @param underlying underlying ID.,1 for BTC, 2 for ETH\r\n     */ \r\n    function SetFormulasParam(uint32 underlying,int256 _paramA,int256 _paramB,int256 _paramC,int256 _paramD,int256 _paramE)\r\n        public onlyOwner{\r\n        paramA[underlying] = _paramA;\r\n        paramB[underlying] = _paramB;\r\n        paramC[underlying] = _paramC;\r\n        paramD[underlying] = _paramD;\r\n        paramE[underlying] = _paramE;\r\n    }\r\n    /**\r\n     * @dev set implied volatility surface Formulas param IvRate. \r\n     * @param underlying underlying ID.,1 for BTC, 2 for ETH\r\n     */ \r\n    function SetATMIvRate(uint32 underlying,uint64[] memory IvRate)public onlyOwner{\r\n        ATMIvRate[underlying] = IvRate;\r\n    }\r\n    /**\r\n     * @dev Interface, calculate option's iv. \r\n     * @param underlying underlying ID.,1 for BTC, 2 for ETH\r\n     * optType option's type.,0 for CALL, 1 for PUT\r\n     * @param expiration Option's expiration, left time to now.\r\n     * @param currentPrice underlying current price\r\n     * @param strikePrice option's strike price\r\n     */ \r\n    function calculateIv(uint32 underlying,uint8 /*optType*/,uint256 expiration,uint256 currentPrice,uint256 strikePrice)public view returns (uint256){\r\n        uint256 iv = calATMIv(underlying,expiration);\r\n        if (currentPrice == strikePrice){\r\n            return iv;\r\n        }\r\n        return calImpliedVolatility(underlying,iv,currentPrice,strikePrice);\r\n    }\r\n    /**\r\n     * @dev calculate option's atm iv. \r\n     * @param underlying underlying ID.,1 for BTC, 2 for ETH\r\n     * @param expiration Option's expiration, left time to now.\r\n     */ \r\n    function calATMIv(uint32 underlying,uint256 expiration)internal view returns(uint256){\r\n        uint256 index = expiration/DaySecond;\r\n        \r\n        if (index == 0){\r\n            return ATMIv0[underlying];\r\n        }\r\n        uint256 len = ATMIvRate[underlying].length;\r\n        if (index>=len){\r\n            index = len-1;\r\n        }\r\n        uint256 rate = insertValue(index*DaySecond,(index+1)*DaySecond,ATMIvRate[underlying][index-1],ATMIvRate[underlying][index],expiration);\r\n        return ATMIv0[underlying]*rate/_calDecimal;\r\n    }\r\n    /**\r\n     * @dev calculate option's implied volatility. \r\n     * @param underlying underlying ID.,1 for BTC, 2 for ETH\r\n     * @param _ATMIv atm iv, calculated by calATMIv\r\n     * @param currentPrice underlying current price\r\n     * @param strikePrice option's strike price\r\n     */ \r\n    function calImpliedVolatility(uint32 underlying,uint256 _ATMIv,uint256 currentPrice,uint256 strikePrice)internal view returns(uint256){\r\n        int256 ln = calImpliedVolLn(underlying,currentPrice,strikePrice);\r\n        //ln*ln+e\r\n        uint256 lnSqrt = uint256(((ln*ln)>>32) + paramE[underlying]);\r\n        lnSqrt = SmallNumbers.sqrt(lnSqrt);\r\n        //ln*c+sqrt\r\n        ln = ((ln*paramC[underlying])>>32) + int256(lnSqrt);\r\n        ln = (ln* paramB[underlying] + int256(_ATMIv*_ATMIv))>>32;\r\n        return SmallNumbers.sqrt(uint256(ln+paramA[underlying]));\r\n    }\r\n    /**\r\n     * @dev An auxiliary function, calculate ln price. \r\n     * @param underlying underlying ID.,1 for BTC, 2 for ETH\r\n     * @param currentPrice underlying current price\r\n     * @param strikePrice option's strike price\r\n     */ \r\n    //ln(k) - ln(s) + d\r\n    function calImpliedVolLn(uint32 underlying,uint256 currentPrice,uint256 strikePrice)internal view returns(int256){\r\n        if (currentPrice == strikePrice){\r\n            return paramD[underlying];\r\n        }else if (currentPrice > strikePrice){\r\n            return int256(SmallNumbers.fixedLoge((currentPrice<<32)/strikePrice))+paramD[underlying];\r\n        }else{\r\n            return -int256(SmallNumbers.fixedLoge((strikePrice<<32)/currentPrice))+paramD[underlying];\r\n        }\r\n    }\r\n    /**\r\n     * @dev An auxiliary function, Linear interpolation. \r\n     */ \r\n    function insertValue(uint256 x0,uint256 x1,uint256 y0, uint256 y1,uint256 x)internal pure returns (uint256){\r\n        require(x1 != x0,\"input values are duplicated!\");\r\n        return y0 + (y1-y0)*(x-x0)/(x1-x0);\r\n    }\r\n\r\n}\r\n",
  "sourcePath": "C:\\work\\solidity\\finnexusOptions_V2.1\\contracts\\impliedVolatility.sol",
  "compiler": {
    "name": "solc",
    "version": "0.5.16+commit.9c3226ce.Emscripten.clang"
  },
  "schemaVersion": "3.1.0",
  "updatedAt": "2020-10-24T10:45:23.417Z",
  "devdoc": {
    "details": "A Smart-contract to calculate options Implied volatility.  ",
    "methods": {
      "SetATMIvRate(uint32,uint64[])": {
        "details": "set implied volatility surface Formulas param IvRate. ",
        "params": {
          "underlying": "underlying ID.,1 for BTC, 2 for ETH"
        }
      },
      "SetAtmIv(uint32,uint256)": {
        "details": "set underlying's atm implied volatility. Foundation operator will modify it frequently.",
        "params": {
          "_Iv0": "underlying's atm implied volatility. ",
          "underlying": "underlying ID.,1 for BTC, 2 for ETH"
        }
      },
      "SetFormulasParam(uint32,int256,int256,int256,int256,int256)": {
        "details": "set implied volatility surface Formulas param. ",
        "params": {
          "underlying": "underlying ID.,1 for BTC, 2 for ETH"
        }
      },
      "addOperator(address)": {
        "details": "add a new operator by owner.       "
      },
      "calculateIv(uint32,uint8,uint256,uint256,uint256)": {
        "details": "Interface, calculate option's iv. ",
        "params": {
          "currentPrice": "underlying current price",
          "expiration": "Option's expiration, left time to now.",
          "strikePrice": "option's strike price",
          "underlying": "underlying ID.,1 for BTC, 2 for ETH optType option's type.,0 for CALL, 1 for PUT"
        }
      },
      "getOperator()": {
        "details": "get all operators.       "
      },
      "isOwner()": {
        "details": "Returns true if the caller is the current owner."
      },
      "owner()": {
        "details": "Returns the address of the current owner."
      },
      "removeOperator(address)": {
        "details": "remove operator by owner.       "
      },
      "renounceOwnership()": {
        "details": "Leaves the contract without owner. It will not be possible to call `onlyOwner` functions anymore. Can only be called by the current owner.      * NOTE: Renouncing ownership will leave the contract without an owner, thereby removing any functionality that is only available to the owner."
      },
      "setOperator(uint256,address)": {
        "details": "modify indexed operator by owner.       "
      },
      "setOperators(address[])": {
        "details": "set all operators by owner.       "
      },
      "transferOwnership(address)": {
        "details": "Transfers ownership of the contract to a new account (`newOwner`). Can only be called by the current owner."
      }
    },
    "title": "Options Implied volatility calculation."
  },
  "userdoc": {
    "methods": {}
  }
}