{
  "contractName": "ImportCollateralPool",
  "abi": [
    {
      "anonymous": false,
      "inputs": [
        {
          "indexed": true,
          "internalType": "address",
          "name": "previousOwner",
          "type": "address"
        },
        {
          "indexed": true,
          "internalType": "address",
          "name": "newOwner",
          "type": "address"
        }
      ],
      "name": "OwnershipTransferred",
      "type": "event"
    },
    {
      "constant": true,
      "inputs": [],
      "name": "isOwner",
      "outputs": [
        {
          "internalType": "bool",
          "name": "",
          "type": "bool"
        }
      ],
      "payable": false,
      "stateMutability": "view",
      "type": "function"
    },
    {
      "constant": true,
      "inputs": [],
      "name": "owner",
      "outputs": [
        {
          "internalType": "address",
          "name": "",
          "type": "address"
        }
      ],
      "payable": false,
      "stateMutability": "view",
      "type": "function"
    },
    {
      "constant": false,
      "inputs": [],
      "name": "renounceOwnership",
      "outputs": [],
      "payable": false,
      "stateMutability": "nonpayable",
      "type": "function"
    },
    {
      "constant": false,
      "inputs": [
        {
          "internalType": "address",
          "name": "newOwner",
          "type": "address"
        }
      ],
      "name": "transferOwnership",
      "outputs": [],
      "payable": false,
      "stateMutability": "nonpayable",
      "type": "function"
    },
    {
      "constant": true,
      "inputs": [],
      "name": "getCollateralPoolAddress",
      "outputs": [
        {
          "internalType": "address",
          "name": "",
          "type": "address"
        }
      ],
      "payable": false,
      "stateMutability": "view",
      "type": "function"
    },
    {
      "constant": false,
      "inputs": [
        {
          "internalType": "address",
          "name": "collateralPool",
          "type": "address"
        }
      ],
      "name": "setCollateralPoolAddress",
      "outputs": [],
      "payable": false,
      "stateMutability": "nonpayable",
      "type": "function"
    }
  ],
  "bytecode": "0x6080604081905260008054600160a060020a0319163317808255600160a060020a0316917f8be0079c531659141344cd1fd0a4f28419497f9722a3daafe3b4186f6b6457e0908290a3610401806100576000396000f3fe608060405234801561001057600080fd5b506004361061007e577c010000000000000000000000000000000000000000000000000000000060003504631730b3cb8114610083578063251e2fe3146100ab578063715018a6146100cf5780638da5cb5b146100d75780638f32d59b146100df578063f2fde38b146100fb575b600080fd5b6100a96004803603602081101561009957600080fd5b5035600160a060020a0316610121565b005b6100b36101ac565b60408051600160a060020a039092168252519081900360200190f35b6100a96101bb565b6100b361026e565b6100e761027d565b604080519115158252519081900360200190f35b6100a96004803603602081101561011157600080fd5b5035600160a060020a031661028e565b61012961027d565b61017d576040805160e560020a62461bcd02815260206004820181905260248201527f4f776e61626c653a2063616c6c6572206973206e6f7420746865206f776e6572604482015290519081900360640190fd5b6001805473ffffffffffffffffffffffffffffffffffffffff1916600160a060020a0392909216919091179055565b600154600160a060020a031690565b6101c361027d565b610217576040805160e560020a62461bcd02815260206004820181905260248201527f4f776e61626c653a2063616c6c6572206973206e6f7420746865206f776e6572604482015290519081900360640190fd5b60008054604051600160a060020a03909116907f8be0079c531659141344cd1fd0a4f28419497f9722a3daafe3b4186f6b6457e0908390a36000805473ffffffffffffffffffffffffffffffffffffffff19169055565b600054600160a060020a031690565b600054600160a060020a0316331490565b61029661027d565b6102ea576040805160e560020a62461bcd02815260206004820181905260248201527f4f776e61626c653a2063616c6c6572206973206e6f7420746865206f776e6572604482015290519081900360640190fd5b6102f3816102f6565b50565b600160a060020a03811661033e5760405160e560020a62461bcd0281526004018080602001828103825260268152602001806103a76026913960400191505060405180910390fd5b60008054604051600160a060020a03808516939216917f8be0079c531659141344cd1fd0a4f28419497f9722a3daafe3b4186f6b6457e091a36000805473ffffffffffffffffffffffffffffffffffffffff1916600160a060020a039290921691909117905556fe4f776e61626c653a206e6577206f776e657220697320746865207a65726f2061646472657373a265627a7a72315820b1d19edcb036e5b3873cb7557c7f3e3f6a8fa22659b7bbf07f4d9d5661465eb764736f6c63430005100032",
  "source": "pragma solidity =0.5.16;\r\nimport \"../modules/Ownable.sol\";\r\ninterface ICollateralPool {\r\n    function getUserPayingUsd(address user)external view returns (uint256);\r\n    function getUserInputCollateral(address user,address collateral)external view returns (uint256);\r\n    //function getNetWorthBalance(address collateral)external view returns (int256);\r\n    function getCollateralBalance(address collateral)external view returns (uint256);\r\n\r\n    //add\r\n    function addUserPayingUsd(address user,uint256 amount)external;\r\n    function addUserInputCollateral(address user,uint256 amount)external;\r\n    function addNetWorthBalance(int256 amount)external;\r\n    function addCollateralBalance(uint256 amount)external;\r\n    //sub\r\n    function subUserPayingUsd(address user,uint256 amount)external;\r\n    function subUserInputCollateral(address user,uint256 amount)external;\r\n    function subNetWorthBalance(int256 amount)external;\r\n    function subCollateralBalance(uint256 amount)external;\r\n        //set\r\n    function setUserPayingUsd(address user,uint256 amount)external;\r\n    function setUserInputCollateral(address user,uint256 amount)external;\r\n    function setNetWorthBalance(int256 amount)external;\r\n    function setCollateralBalance(uint256 amount)external;\r\n    function transferPaybackAndFee(address recieptor,uint256 payback,uint256 feeType)external;\r\n\r\n    function transferPayback(address recieptor,uint256 payback)external;\r\n    function addTransactionFee(uint256 amount,uint256 feeType)external returns (uint256);\r\n\r\n    function getRealBalance()external view returns(int256);\r\n    function getNetWorthBalance()external view returns(uint256);\r\n}\r\ncontract ImportCollateralPool is Ownable{\r\n    ICollateralPool internal _collateralPool;\r\n    function getCollateralPoolAddress() public view returns(address){\r\n        return address(_collateralPool);\r\n    }\r\n    function setCollateralPoolAddress(address collateralPool)public onlyOwner{\r\n        _collateralPool = ICollateralPool(collateralPool);\r\n    }\r\n}",
  "sourcePath": "C:\\work\\solidity\\finnexusOptions_V2.1\\contracts\\CollateralPool\\ICollateralPool.sol",
  "compiler": {
    "name": "solc",
    "version": "0.5.16+commit.9c3226ce.Emscripten.clang"
  },
  "schemaVersion": "3.1.0",
  "updatedAt": "2020-10-24T10:45:23.196Z",
  "devdoc": {
    "methods": {
      "isOwner()": {
        "details": "Returns true if the caller is the current owner."
      },
      "owner()": {
        "details": "Returns the address of the current owner."
      },
      "renounceOwnership()": {
        "details": "Leaves the contract without owner. It will not be possible to call `onlyOwner` functions anymore. Can only be called by the current owner.      * NOTE: Renouncing ownership will leave the contract without an owner, thereby removing any functionality that is only available to the owner."
      },
      "transferOwnership(address)": {
        "details": "Transfers ownership of the contract to a new account (`newOwner`). Can only be called by the current owner."
      }
    }
  },
  "userdoc": {
    "methods": {}
  }
}