{
  "contractName": "ImportOptionsPrice",
  "abi": [
    {
      "anonymous": false,
      "inputs": [
        {
          "indexed": true,
          "internalType": "address",
          "name": "previousOwner",
          "type": "address"
        },
        {
          "indexed": true,
          "internalType": "address",
          "name": "newOwner",
          "type": "address"
        }
      ],
      "name": "OwnershipTransferred",
      "type": "event"
    },
    {
      "constant": true,
      "inputs": [],
      "name": "isOwner",
      "outputs": [
        {
          "internalType": "bool",
          "name": "",
          "type": "bool"
        }
      ],
      "payable": false,
      "stateMutability": "view",
      "type": "function"
    },
    {
      "constant": true,
      "inputs": [],
      "name": "owner",
      "outputs": [
        {
          "internalType": "address",
          "name": "",
          "type": "address"
        }
      ],
      "payable": false,
      "stateMutability": "view",
      "type": "function"
    },
    {
      "constant": false,
      "inputs": [],
      "name": "renounceOwnership",
      "outputs": [],
      "payable": false,
      "stateMutability": "nonpayable",
      "type": "function"
    },
    {
      "constant": false,
      "inputs": [
        {
          "internalType": "address",
          "name": "newOwner",
          "type": "address"
        }
      ],
      "name": "transferOwnership",
      "outputs": [],
      "payable": false,
      "stateMutability": "nonpayable",
      "type": "function"
    },
    {
      "constant": true,
      "inputs": [],
      "name": "getOptionsPriceAddress",
      "outputs": [
        {
          "internalType": "address",
          "name": "",
          "type": "address"
        }
      ],
      "payable": false,
      "stateMutability": "view",
      "type": "function"
    },
    {
      "constant": false,
      "inputs": [
        {
          "internalType": "address",
          "name": "optionsPrice",
          "type": "address"
        }
      ],
      "name": "setOptionsPriceAddress",
      "outputs": [],
      "payable": false,
      "stateMutability": "nonpayable",
      "type": "function"
    }
  ],
  "bytecode": "0x6080604081905260008054600160a060020a0319163317808255600160a060020a0316917f8be0079c531659141344cd1fd0a4f28419497f9722a3daafe3b4186f6b6457e0908290a3610401806100576000396000f3fe608060405234801561001057600080fd5b506004361061007e577c010000000000000000000000000000000000000000000000000000000060003504635ca4b73b8114610083578063715018a6146100a75780638da5cb5b146100b15780638f32d59b146100b9578063a093e2d0146100d5578063f2fde38b146100fb575b600080fd5b61008b610121565b60408051600160a060020a039092168252519081900360200190f35b6100af610130565b005b61008b6101e3565b6100c16101f2565b604080519115158252519081900360200190f35b6100af600480360360208110156100eb57600080fd5b5035600160a060020a0316610203565b6100af6004803603602081101561011157600080fd5b5035600160a060020a031661028e565b600154600160a060020a031690565b6101386101f2565b61018c576040805160e560020a62461bcd02815260206004820181905260248201527f4f776e61626c653a2063616c6c6572206973206e6f7420746865206f776e6572604482015290519081900360640190fd5b60008054604051600160a060020a03909116907f8be0079c531659141344cd1fd0a4f28419497f9722a3daafe3b4186f6b6457e0908390a36000805473ffffffffffffffffffffffffffffffffffffffff19169055565b600054600160a060020a031690565b600054600160a060020a0316331490565b61020b6101f2565b61025f576040805160e560020a62461bcd02815260206004820181905260248201527f4f776e61626c653a2063616c6c6572206973206e6f7420746865206f776e6572604482015290519081900360640190fd5b6001805473ffffffffffffffffffffffffffffffffffffffff1916600160a060020a0392909216919091179055565b6102966101f2565b6102ea576040805160e560020a62461bcd02815260206004820181905260248201527f4f776e61626c653a2063616c6c6572206973206e6f7420746865206f776e6572604482015290519081900360640190fd5b6102f3816102f6565b50565b600160a060020a03811661033e5760405160e560020a62461bcd0281526004018080602001828103825260268152602001806103a76026913960400191505060405180910390fd5b60008054604051600160a060020a03808516939216917f8be0079c531659141344cd1fd0a4f28419497f9722a3daafe3b4186f6b6457e091a36000805473ffffffffffffffffffffffffffffffffffffffff1916600160a060020a039290921691909117905556fe4f776e61626c653a206e6577206f776e657220697320746865207a65726f2061646472657373a265627a7a72315820dcae787b57c87d09664378482f0ae1b3e6c6615205119266ed1792b52360c59264736f6c63430005100032",
  "source": "pragma solidity =0.5.16;\r\nimport \"../modules/Ownable.sol\";\r\ninterface IOptionsPrice {\r\n    function getOptionsPrice(uint256 currentPrice, uint256 strikePrice, uint256 expiration,uint32 underlying,uint8 optType)external view returns (uint256);\r\n    function getOptionsPrice_iv(uint256 currentPrice, uint256 strikePrice, uint256 expiration,\r\n                uint256 ivNumerator,uint8 optType)external view returns (uint256);\r\n    function calOptionsPriceRatio(uint256 selfOccupied,uint256 totalOccupied,uint256 totalCollateral) external view returns (uint256);\r\n}\r\ncontract ImportOptionsPrice is Ownable{\r\n    IOptionsPrice internal _optionsPrice;\r\n    function getOptionsPriceAddress() public view returns(address){\r\n        return address(_optionsPrice);\r\n    }\r\n    function setOptionsPriceAddress(address optionsPrice)public onlyOwner{\r\n        _optionsPrice = IOptionsPrice(optionsPrice);\r\n    }\r\n}",
  "sourcePath": "C:\\work\\solidity\\finnexusOptions_V2.1\\contracts\\interfaces\\IOptionsPrice.sol",
  "compiler": {
    "name": "solc",
    "version": "0.5.16+commit.9c3226ce.Emscripten.clang"
  },
  "schemaVersion": "3.1.0",
  "updatedAt": "2020-10-24T10:45:23.137Z",
  "devdoc": {
    "methods": {
      "isOwner()": {
        "details": "Returns true if the caller is the current owner."
      },
      "owner()": {
        "details": "Returns the address of the current owner."
      },
      "renounceOwnership()": {
        "details": "Leaves the contract without owner. It will not be possible to call `onlyOwner` functions anymore. Can only be called by the current owner.      * NOTE: Renouncing ownership will leave the contract without an owner, thereby removing any functionality that is only available to the owner."
      },
      "transferOwnership(address)": {
        "details": "Transfers ownership of the contract to a new account (`newOwner`). Can only be called by the current owner."
      }
    }
  },
  "userdoc": {
    "methods": {}
  }
}