{
  "contractName": "ImportOptionsPool",
  "abi": [
    {
      "anonymous": false,
      "inputs": [
        {
          "indexed": true,
          "internalType": "address",
          "name": "previousOwner",
          "type": "address"
        },
        {
          "indexed": true,
          "internalType": "address",
          "name": "newOwner",
          "type": "address"
        }
      ],
      "name": "OwnershipTransferred",
      "type": "event"
    },
    {
      "constant": true,
      "inputs": [],
      "name": "isOwner",
      "outputs": [
        {
          "internalType": "bool",
          "name": "",
          "type": "bool"
        }
      ],
      "payable": false,
      "stateMutability": "view",
      "type": "function"
    },
    {
      "constant": true,
      "inputs": [],
      "name": "owner",
      "outputs": [
        {
          "internalType": "address",
          "name": "",
          "type": "address"
        }
      ],
      "payable": false,
      "stateMutability": "view",
      "type": "function"
    },
    {
      "constant": false,
      "inputs": [],
      "name": "renounceOwnership",
      "outputs": [],
      "payable": false,
      "stateMutability": "nonpayable",
      "type": "function"
    },
    {
      "constant": false,
      "inputs": [
        {
          "internalType": "address",
          "name": "newOwner",
          "type": "address"
        }
      ],
      "name": "transferOwnership",
      "outputs": [],
      "payable": false,
      "stateMutability": "nonpayable",
      "type": "function"
    },
    {
      "constant": true,
      "inputs": [],
      "name": "getOptionsPoolAddress",
      "outputs": [
        {
          "internalType": "address",
          "name": "",
          "type": "address"
        }
      ],
      "payable": false,
      "stateMutability": "view",
      "type": "function"
    },
    {
      "constant": false,
      "inputs": [
        {
          "internalType": "address",
          "name": "optionsPool",
          "type": "address"
        }
      ],
      "name": "setOptionsPoolAddress",
      "outputs": [],
      "payable": false,
      "stateMutability": "nonpayable",
      "type": "function"
    }
  ],
  "bytecode": "0x6080604081905260008054600160a060020a0319163317808255600160a060020a0316917f8be0079c531659141344cd1fd0a4f28419497f9722a3daafe3b4186f6b6457e0908290a3610401806100576000396000f3fe608060405234801561001057600080fd5b506004361061007e577c010000000000000000000000000000000000000000000000000000000060003504631a5a3fce8114610083578063715018a6146100ab5780638da5cb5b146100b35780638f32d59b146100d7578063c040725a146100f3578063f2fde38b146100fb575b600080fd5b6100a96004803603602081101561009957600080fd5b5035600160a060020a0316610121565b005b6100a96101ac565b6100bb61025f565b60408051600160a060020a039092168252519081900360200190f35b6100df61026e565b604080519115158252519081900360200190f35b6100bb61027f565b6100a96004803603602081101561011157600080fd5b5035600160a060020a031661028e565b61012961026e565b61017d576040805160e560020a62461bcd02815260206004820181905260248201527f4f776e61626c653a2063616c6c6572206973206e6f7420746865206f776e6572604482015290519081900360640190fd5b6001805473ffffffffffffffffffffffffffffffffffffffff1916600160a060020a0392909216919091179055565b6101b461026e565b610208576040805160e560020a62461bcd02815260206004820181905260248201527f4f776e61626c653a2063616c6c6572206973206e6f7420746865206f776e6572604482015290519081900360640190fd5b60008054604051600160a060020a03909116907f8be0079c531659141344cd1fd0a4f28419497f9722a3daafe3b4186f6b6457e0908390a36000805473ffffffffffffffffffffffffffffffffffffffff19169055565b600054600160a060020a031690565b600054600160a060020a0316331490565b600154600160a060020a031690565b61029661026e565b6102ea576040805160e560020a62461bcd02815260206004820181905260248201527f4f776e61626c653a2063616c6c6572206973206e6f7420746865206f776e6572604482015290519081900360640190fd5b6102f3816102f6565b50565b600160a060020a03811661033e5760405160e560020a62461bcd0281526004018080602001828103825260268152602001806103a76026913960400191505060405180910390fd5b60008054604051600160a060020a03808516939216917f8be0079c531659141344cd1fd0a4f28419497f9722a3daafe3b4186f6b6457e091a36000805473ffffffffffffffffffffffffffffffffffffffff1916600160a060020a039290921691909117905556fe4f776e61626c653a206e6577206f776e657220697320746865207a65726f2061646472657373a265627a7a72315820cff40d24b92bfebcf4cc18f6aadb202dc5f5329707ec1058c1332f871e511af664736f6c63430005100032",
  "source": "pragma solidity =0.5.16;\r\nimport \"../modules/Ownable.sol\";\r\ninterface IOptionsPool {\r\n//    function getOptionBalances(address user) external view returns(uint256[]);\r\n\r\n    function createOptions(address from,uint256 type_ly_expiration,\r\n        uint128 strikePrice,uint128 underlyingPrice,uint128 amount,uint128 settlePrice)  external;\r\n    function setSharedState(uint256 newFirstOption,int256 latestNetWorth) external;\r\n    function getCallTotalOccupiedCollateral() external view returns (uint256);\r\n    function getPutTotalOccupiedCollateral() external view returns (uint256);\r\n    function getTotalOccupiedCollateral() external view returns (uint256);\r\n    function buyOptionCheck(uint256 expiration,uint32 underlying)external view;\r\n    function burnOptions(address from,uint256 id,uint256 amount,uint256 optionPrice)external;\r\n    function getOptionsById(uint256 optionsId)external view returns(uint256,address,uint8,uint32,uint256,uint256,uint256);\r\n    function getExerciseWorth(uint256 optionsId,uint256 amount)external view returns(uint256);\r\n    function calculatePhaseOptionsFall(uint256 lastOption,uint256 begin,uint256 end) external view returns(int256);\r\n    function getOptionInfoLength()external view returns (uint256);\r\n    function getNetWrothCalInfo()external view returns(uint256,int256);\r\n    function calRangeSharedPayment(uint256 lastOption,uint256 begin,uint256 end)external view returns(int256,uint256,uint256);\r\n    function getNetWrothLatestWorth()external view returns(int256);\r\n    function getBurnedFullPay(uint256 optionID,uint256 amount) external view returns(uint256);\r\n\r\n}\r\ncontract ImportOptionsPool is Ownable{\r\n    IOptionsPool internal _optionsPool;\r\n    function getOptionsPoolAddress() public view returns(address){\r\n        return address(_optionsPool);\r\n    }\r\n    function setOptionsPoolAddress(address optionsPool)public onlyOwner{\r\n        _optionsPool = IOptionsPool(optionsPool);\r\n    }\r\n}",
  "sourcePath": "C:\\work\\solidity\\finnexusOptions_V2.1\\contracts\\OptionsPool\\IOptionsPool.sol",
  "compiler": {
    "name": "solc",
    "version": "0.5.16+commit.9c3226ce.Emscripten.clang"
  },
  "schemaVersion": "3.1.0",
  "updatedAt": "2020-10-24T10:45:23.315Z",
  "devdoc": {
    "methods": {
      "isOwner()": {
        "details": "Returns true if the caller is the current owner."
      },
      "owner()": {
        "details": "Returns the address of the current owner."
      },
      "renounceOwnership()": {
        "details": "Leaves the contract without owner. It will not be possible to call `onlyOwner` functions anymore. Can only be called by the current owner.      * NOTE: Renouncing ownership will leave the contract without an owner, thereby removing any functionality that is only available to the owner."
      },
      "transferOwnership(address)": {
        "details": "Transfers ownership of the contract to a new account (`newOwner`). Can only be called by the current owner."
      }
    }
  },
  "userdoc": {
    "methods": {}
  }
}