{
  "contractName": "imVolatility32",
  "abi": [
    {
      "anonymous": false,
      "inputs": [
        {
          "indexed": true,
          "internalType": "address",
          "name": "previousOwner",
          "type": "address"
        },
        {
          "indexed": true,
          "internalType": "address",
          "name": "newOwner",
          "type": "address"
        }
      ],
      "name": "OwnershipTransferred",
      "type": "event"
    },
    {
      "constant": false,
      "inputs": [
        {
          "internalType": "address",
          "name": "addAddress",
          "type": "address"
        }
      ],
      "name": "addOperator",
      "outputs": [],
      "payable": false,
      "stateMutability": "nonpayable",
      "type": "function"
    },
    {
      "constant": true,
      "inputs": [],
      "name": "getOperator",
      "outputs": [
        {
          "internalType": "address[]",
          "name": "",
          "type": "address[]"
        }
      ],
      "payable": false,
      "stateMutability": "view",
      "type": "function"
    },
    {
      "constant": true,
      "inputs": [],
      "name": "isOwner",
      "outputs": [
        {
          "internalType": "bool",
          "name": "",
          "type": "bool"
        }
      ],
      "payable": false,
      "stateMutability": "view",
      "type": "function"
    },
    {
      "constant": true,
      "inputs": [],
      "name": "owner",
      "outputs": [
        {
          "internalType": "address",
          "name": "",
          "type": "address"
        }
      ],
      "payable": false,
      "stateMutability": "view",
      "type": "function"
    },
    {
      "constant": false,
      "inputs": [
        {
          "internalType": "address",
          "name": "removeAddress",
          "type": "address"
        }
      ],
      "name": "removeOperator",
      "outputs": [
        {
          "internalType": "bool",
          "name": "",
          "type": "bool"
        }
      ],
      "payable": false,
      "stateMutability": "nonpayable",
      "type": "function"
    },
    {
      "constant": false,
      "inputs": [],
      "name": "renounceOwnership",
      "outputs": [],
      "payable": false,
      "stateMutability": "nonpayable",
      "type": "function"
    },
    {
      "constant": false,
      "inputs": [
        {
          "internalType": "uint256",
          "name": "index",
          "type": "uint256"
        },
        {
          "internalType": "address",
          "name": "addAddress",
          "type": "address"
        }
      ],
      "name": "setOperator",
      "outputs": [],
      "payable": false,
      "stateMutability": "nonpayable",
      "type": "function"
    },
    {
      "constant": false,
      "inputs": [
        {
          "internalType": "address[]",
          "name": "operators",
          "type": "address[]"
        }
      ],
      "name": "setOperators",
      "outputs": [],
      "payable": false,
      "stateMutability": "nonpayable",
      "type": "function"
    },
    {
      "constant": false,
      "inputs": [
        {
          "internalType": "address",
          "name": "newOwner",
          "type": "address"
        }
      ],
      "name": "transferOwnership",
      "outputs": [],
      "payable": false,
      "stateMutability": "nonpayable",
      "type": "function"
    },
    {
      "constant": false,
      "inputs": [
        {
          "internalType": "uint256",
          "name": "timeLimit",
          "type": "uint256"
        }
      ],
      "name": "setValidUntil",
      "outputs": [],
      "payable": false,
      "stateMutability": "nonpayable",
      "type": "function"
    },
    {
      "constant": false,
      "inputs": [
        {
          "internalType": "uint32",
          "name": "underlying",
          "type": "uint32"
        },
        {
          "internalType": "uint256[]",
          "name": "put_timeArray",
          "type": "uint256[]"
        },
        {
          "internalType": "uint256[]",
          "name": "put_ivAry",
          "type": "uint256[]"
        },
        {
          "internalType": "uint256[]",
          "name": "call_timeArray",
          "type": "uint256[]"
        },
        {
          "internalType": "uint256[]",
          "name": "call_ivAry",
          "type": "uint256[]"
        }
      ],
      "name": "setIvMatrixAll",
      "outputs": [],
      "payable": false,
      "stateMutability": "nonpayable",
      "type": "function"
    },
    {
      "constant": false,
      "inputs": [
        {
          "internalType": "uint32",
          "name": "underlying",
          "type": "uint32"
        },
        {
          "internalType": "uint8",
          "name": "optType",
          "type": "uint8"
        },
        {
          "internalType": "uint256[]",
          "name": "timeArray",
          "type": "uint256[]"
        },
        {
          "internalType": "uint256[]",
          "name": "ivAry",
          "type": "uint256[]"
        }
      ],
      "name": "setIvMatrix",
      "outputs": [],
      "payable": false,
      "stateMutability": "nonpayable",
      "type": "function"
    },
    {
      "constant": true,
      "inputs": [
        {
          "internalType": "uint32",
          "name": "underlying",
          "type": "uint32"
        },
        {
          "internalType": "uint8",
          "name": "optType",
          "type": "uint8"
        },
        {
          "internalType": "uint256",
          "name": "expiration",
          "type": "uint256"
        },
        {
          "internalType": "uint256",
          "name": "price",
          "type": "uint256"
        }
      ],
      "name": "calculateIv",
      "outputs": [
        {
          "internalType": "uint256",
          "name": "",
          "type": "uint256"
        },
        {
          "internalType": "uint256",
          "name": "",
          "type": "uint256"
        }
      ],
      "payable": false,
      "stateMutability": "view",
      "type": "function"
    }
  ],
  "bytecode": "0x608060408190526104b060025560008054600160a060020a0319163317808255600160a060020a0316917f8be0079c531659141344cd1fd0a4f28419497f9722a3daafe3b4186f6b6457e0908290a36116538061005d6000396000f3fe608060405234801561001057600080fd5b50600436106100ec576000357c010000000000000000000000000000000000000000000000000000000090048063ac8a584a116100a9578063e7a1c1c011610083578063e7a1c1c0146104d4578063e7f43c6814610500578063ea4d053614610558578063f2fde38b14610694576100ec565b8063ac8a584a146103ba578063b4277bc1146103e0578063ddf71cd514610431576100ec565b80630b825668146100f1578063634099cc1461032f578063715018a61461034c5780638da5cb5b146103545780638f32d59b146103785780639870d7fe14610394575b600080fd5b61032d600480360360a081101561010757600080fd5b63ffffffff823516919081019060408101602082013564010000000081111561012f57600080fd5b82018360208201111561014157600080fd5b8035906020019184602083028401116401000000008311171561016357600080fd5b91908080602002602001604051908101604052809392919081815260200183836020028082843760009201919091525092959493602081019350359150506401000000008111156101b357600080fd5b8201836020820111156101c557600080fd5b803590602001918460208302840111640100000000831117156101e757600080fd5b919080806020026020016040519081016040528093929190818152602001838360200280828437600092019190915250929594936020810193503591505064010000000081111561023757600080fd5b82018360208201111561024957600080fd5b8035906020019184602083028401116401000000008311171561026b57600080fd5b91908080602002602001604051908101604052809392919081815260200183836020028082843760009201919091525092959493602081019350359150506401000000008111156102bb57600080fd5b8201836020820111156102cd57600080fd5b803590602001918460208302840111640100000000831117156102ef57600080fd5b9190808060200260200160405190810160405280939291908181526020018383602002808284376000920191909152509295506106ba945050505050565b005b61032d6004803603602081101561034557600080fd5b5035610757565b61032d6107d8565b61035c610879565b60408051600160a060020a039092168252519081900360200190f35b610380610889565b604080519115158252519081900360200190f35b61032d600480360360208110156103aa57600080fd5b5035600160a060020a031661089a565b610380600480360360208110156103d057600080fd5b5035600160a060020a03166108f8565b610418600480360360808110156103f657600080fd5b5063ffffffff8135169060ff602082013516906040810135906060013561095d565b6040805192835260208301919091528051918290030190f35b61032d6004803603602081101561044757600080fd5b81019060208101813564010000000081111561046257600080fd5b82018360208201111561047457600080fd5b8035906020019184602083028401116401000000008311171561049657600080fd5b919080806020026020016040519081016040528093929190818152602001838360200280828437600092019190915250929550610a50945050505050565b61032d600480360360408110156104ea57600080fd5b5080359060200135600160a060020a0316610ab1565b610508610b3b565b60408051602080825283518183015283519192839290830191858101910280838360005b8381101561054457818101518382015260200161052c565b505050509050019250505060405180910390f35b61032d6004803603608081101561056e57600080fd5b63ffffffff8235169160ff6020820135169181019060608101604082013564010000000081111561059e57600080fd5b8201836020820111156105b057600080fd5b803590602001918460208302840111640100000000831117156105d257600080fd5b919080806020026020016040519081016040528093929190818152602001838360200280828437600092019190915250929594936020810193503591505064010000000081111561062257600080fd5b82018360208201111561063457600080fd5b8035906020019184602083028401116401000000008311171561065657600080fd5b919080806020026020016040519081016040528093929190818152602001838360200280828437600092019190915250929550610b9d945050505050565b61032d600480360360208110156106aa57600080fd5b5035600160a060020a0316610cbc565b600154600090158015906106f7575033600160a060020a0316600182815481106106e057fe5b600091825260209091200154600160a060020a0316145b6107355760405160e560020a62461bcd02815260040180806020018281038252602d8152602001806115f2602d913960400191505060405180910390fd5b6107428660018787610b9d565b61074f8660008585610b9d565b505050505050565b60015460009015801590610794575033600160a060020a03166001828154811061077d57fe5b600091825260209091200154600160a060020a0316145b6107d25760405160e560020a62461bcd02815260040180806020018281038252602d8152602001806115f2602d913960400191505060405180910390fd5b50600255565b6107e0610889565b610822576040805160e560020a62461bcd02815260206004820181905260248201526000805160206115d2833981519152604482015290519081900360640190fd5b60008054604051600160a060020a03909116907f8be0079c531659141344cd1fd0a4f28419497f9722a3daafe3b4186f6b6457e0908390a36000805473ffffffffffffffffffffffffffffffffffffffff19169055565b600054600160a060020a03165b90565b600054600160a060020a0316331490565b6108a2610889565b6108e4576040805160e560020a62461bcd02815260206004820181905260248201526000805160206115d2833981519152604482015290519081900360640190fd5b6108f560018263ffffffff610d0f16565b50565b6000610902610889565b610944576040805160e560020a62461bcd02815260206004820181905260248201526000805160206115d2833981519152604482015290519081900360640190fd5b61095560018363ffffffff610db416565b90505b919050565b611b58919091029061271090046000808061098163ffffffff881660ff8816610ea4565b90506060610990600483610eb9565b9050600061099e8288610ecc565b9050806109c3576109b2898984848a610f69565b6305f5e10094509450505050610a47565b60006109d58a8a85600186038b610f69565b905060006109e68b8b86868c610f69565b90506000610a126109fd86600287600202036110f8565b610a0a87876002026110f8565b85858e611110565b905060008113610a335750600196506305f5e1009550610a47945050505050565b96506305f5e1009550610a47945050505050565b94509492505050565b610a58610889565b610a9a576040805160e560020a62461bcd02815260206004820181905260248201526000805160206115d2833981519152604482015290519081900360640190fd5b8051610aad90600190602084019061147c565b5050565b610ab9610889565b610afb576040805160e560020a62461bcd02815260206004820181905260248201526000805160206115d2833981519152604482015290519081900360640190fd5b8060018381548110610b0957fe5b9060005260206000200160006101000a815481600160a060020a030219169083600160a060020a031602179055505050565b60606001805480602002602001604051908101604052809291908181526020018280548015610b9357602002820191906000526020600020905b8154600160a060020a03168152600190910190602001808311610b75575b5050505050905090565b60015460009015801590610bda575033600160a060020a031660018281548110610bc357fe5b600091825260209091200154600160a060020a0316145b610c185760405160e560020a62461bcd02815260040180806020018281038252602d8152602001806115f2602d913960400191505060405180910390fd5b6000610c2d8663ffffffff168660ff16610ea4565b845190915060005b81811015610c7057858181518110610c4957fe5b60209081029190910181015184830160009081526004909252604090912055600101610c35565b5050825160005b81811015610cb257848181518110610c8b57fe5b60209081029190910181015184830160009081526005909252604090912055600101610c77565b5050505050505050565b610cc4610889565b610d06576040805160e560020a62461bcd02815260206004820181905260248201526000805160206115d2833981519152604482015290519081900360640190fd5b6108f581611189565b610d7282805480602002602001604051908101604052809291908181526020018280548015610d6757602002820191906000526020600020905b8154600160a060020a03168152600190910190602001808311610d49575b505050505082611239565b610aad578154600181018355600083815260209020018054600160a060020a03831673ffffffffffffffffffffffffffffffffffffffff199091161790555050565b8154600090815b81811015610e015783600160a060020a0316858281548110610dd957fe5b600091825260209091200154600160a060020a03161415610df957610e01565b600101610dbb565b81811015610e9757600182038114610e7b57846001830381548110610e2257fe5b9060005260206000200160009054906101000a9004600160a060020a0316858281548110610e4c57fe5b9060005260206000200160006101000a815481600160a060020a030219169083600160a060020a031602179055505b8454610e8b8660001983016114ee565b50600192505050610e9e565b6000925050505b92915050565b6000610eb260008484611293565b9392505050565b6060610eb28383600863ffffffff6112bc565b6000806002610eda856113aa565b81610ee157fe5b0490506002811015610f275760405160e560020a62461bcd0281526004018080602001828103825260248152602001806115896024913960400191505060405180910390fd5b60005b81811015610f5d576000610f4186836002026110f8565b9050808511610f5457509150610e9e9050565b50600101610f2a565b60001901949350505050565b600080610f7f8763ffffffff168760ff16610ea4565b9050838015610f9b57610f9886600187600202036110f8565b90505b6000610fad87876002026001016110f8565b905060028282031015610ff45760405160e560020a62461bcd0281526004018080602001828103825260258152602001806115ad6025913960400191505060405180910390fd5b8082101561102857600061100d600585856002026113d2565b905080861161101c5750611028565b50600190910190610ff4565b8082141561103c576000199091019061104b565b8582141561104b576001909101905b600061105c600585856002026113d2565b90508581141561108657611078600585856002026001016113d2565b6064029450505050506110ef565b60006110c861109d600587600288600202036113d2565b836110b060058960018a600202036113d2565b6110c260058a8a6002026001016113d2565b8b611110565b9050600081136110e0576001955050505050506110ef565b60640294506110ef9350505050565b95945050505050565b6000610eb283836001016008602063ffffffff6113eb565b60008585141561116a576040805160e560020a62461bcd02815260206004820152601c60248201527f696e7075742076616c75657320617265206475706c6963617465642100000000604482015290519081900360640190fd5b858503868303858503028161117b57fe5b058401905095945050505050565b600160a060020a0381166111d15760405160e560020a62461bcd0281526004018080602001828103825260268152602001806115636026913960400191505060405180910390fd5b60008054604051600160a060020a03808516939216917f8be0079c531659141344cd1fd0a4f28419497f9722a3daafe3b4186f6b6457e091a36000805473ffffffffffffffffffffffffffffffffffffffff1916600160a060020a0392909216919091179055565b8151600090815b818110156112885783600160a060020a031685828151811061125e57fe5b6020026020010151600160a060020a0316141561128057600192505050610e9e565b600101611240565b506000949350505050565b700100000000000000000000000000000000026801000000000000000091909102919091010190565b600083815260208590526040902054606090828116806112ee57505060408051600081526020810190915290506113a2565b60008582600101816112fc57fe5b04905085826001018161130b57fe5b0615611315576001015b606081604051908082528060200260200182016040528015611341578160200160208202803883390190505b509050838160008151811061135257fe5b602090810291909101015260015b8281101561139b57888101600090815260208b90526040902054825183908390811061138857fe5b6020908102919091010152600101611360565b5093505050505b949350505050565b60008151600014156113be57506000610958565b6109558260006008602063ffffffff6113eb565b60006113a28484846001016008602063ffffffff611438565b6000808486816113f757fe5b04905060008486888161140657fe5b06029050838189848151811061141857fe5b6020026020010151908060020a8204915050169250505095945050505050565b60008084868161144457fe5b04878101600090815260208a905260408120549192508587898161146457fe5b060260020a9091048416925050509695505050505050565b8280548282559060005260206000209081019282156114de579160200282015b828111156114de578251825473ffffffffffffffffffffffffffffffffffffffff1916600160a060020a0390911617825560209092019160019091019061149c565b506114ea929150611517565b5090565b81548183558181111561151257600083815260209020611512918101908301611548565b505050565b61088691905b808211156114ea57805473ffffffffffffffffffffffffffffffffffffffff1916815560010161151d565b61088691905b808211156114ea576000815560010161154e56fe4f776e61626c653a206e6577206f776e657220697320746865207a65726f20616464726573736976206d61747269782074696d65206c656e677468206973206c657373207468616e20326976206d6174726978207072696365206c656e677468206973206c657373207468616e20324f776e61626c653a2063616c6c6572206973206e6f7420746865206f776e65724f70657261746f723a2063616c6c6572206973206e6f742074686520656c696769626c65204f70657261746f72a265627a7a72315820f90a4371e54ebe22fec2334eec0c4640ebfa340b4e174364b9ef96f354b8e51b64736f6c63430005100032",
  "source": "\r\npragma solidity =0.5.16;\r\nimport \"../modules/Operator.sol\";\r\nimport \"../modules/tuple64.sol\";\r\nimport \"./arraySave.sol\";\r\ncontract imVolatility32 is Operator {\r\n    uint256 private ValidUntil = 1200;\r\n    uint256 constant private _calDecimal = 1e8;\r\n    uint256 private inptutTime;\r\n    ArraySave.saveMap internal timeSaveMap;\r\n    ArraySave.saveMap internal IvMap;\r\n    function setValidUntil(uint256 timeLimit) public onlyOperatorIndex(0) {\r\n        ValidUntil = timeLimit;\r\n    }\r\n    function setIvMatrixAll(uint32 underlying,uint256[] memory put_timeArray,uint256[] memory put_ivAry,\r\n        uint256[] memory call_timeArray,uint256[] memory call_ivAry) public onlyOperatorIndex(0){\r\n        setIvMatrix(underlying,1,put_timeArray,put_ivAry);\r\n        setIvMatrix(underlying,0,call_timeArray,call_ivAry);\r\n    }\r\n    function setIvMatrix(uint32 underlying,uint8 optType,uint256[] memory timeArray,uint256[] memory ivAry) public onlyOperatorIndex(0){\r\n        uint256 saveKey = getKey(underlying,optType);\r\n        uint nLen0 = timeArray.length;\r\n        uint i=0;\r\n        for (;i<nLen0;i++){\r\n            timeSaveMap.sMap[saveKey+i] = timeArray[i];\r\n        }\r\n        nLen0 = ivAry.length;\r\n        for (i=0;i<nLen0;i++){\r\n            IvMap.sMap[saveKey+i] = ivAry[i];\r\n        }\r\n    }\r\n    function getKey(uint256 underlying,uint256 optType) internal pure returns(uint256){\r\n        return tuple64.getTuple3(0,underlying,optType);\r\n    }\r\n    /**\r\n      * @notice retrieves implied volatility of an asset\r\n      * @dev function to get implied volatility for an asset\r\n      * @param expiration the option expiration which has been created in option manger contract\r\n      * @param price the option underlying strikePrice which has been created in option manger contract\r\n      * @return uint mantissa of asset implied volatility (scaled by 1e8) or zero if unset or contract paused\r\n      */\r\n    function calculateIv(uint32 underlying,uint8 optType,uint256 expiration,uint256 price)public view returns (uint256,uint256){\r\n        expiration = expiration*7000;\r\n        price = price/1e4;\r\n        uint256 saveKey = getKey(underlying,optType);\r\n        uint256[] memory buffer = ArraySave32.readAllBuffer(timeSaveMap,saveKey);\r\n        uint256 index = getTimeRange(buffer,expiration);\r\n        if (index == 0){\r\n            return (calculateTimeIv(underlying,optType,buffer,index,price),_calDecimal);\r\n        }\r\n        uint256 ivLow = calculateTimeIv(underlying,optType,buffer,index-1,price);\r\n        uint256 ivHigh = calculateTimeIv(underlying,optType,buffer,index,price);\r\n        int iv = insertValue(int256(ArraySave32.getValueFromBuffer(buffer,index*2-2)),int256(ArraySave32.getValueFromBuffer(buffer,index*2)),\r\n            int256(ivLow),int256(ivHigh),int256(expiration));\r\n        if (iv<=0){\r\n            return (1,_calDecimal);\r\n        }else{\r\n            return (uint256(iv),_calDecimal);\r\n        }\r\n    }\r\n    function getTimeRange(uint256[] memory buffer,uint256 expiration) internal pure returns(uint256){\r\n        uint256 Len = ArraySave32.getArrayLenFromBuffer(buffer)/2;\r\n        require (Len>=2,\"iv matrix time length is less than 2\");\r\n        uint256 i=0;\r\n        for (;i<Len;i++){\r\n            uint256 curTime = ArraySave32.getValueFromBuffer(buffer,i*2);\r\n            if (expiration<=curTime){\r\n                return i;\r\n            }\r\n        }\r\n        i--;\r\n        return i;\r\n    }\r\n    function calculateTimeIv(uint32 underlying,uint8 optType,uint256[] memory buffer,uint256 index,uint256 price)internal view returns (uint256){\r\n        uint256 saveKey = getKey(underlying,optType);\r\n        uint256 i = index;\r\n        if (index > 0){\r\n            i = ArraySave32.getValueFromBuffer(buffer,index*2-1);\r\n        }\r\n        uint256 end = ArraySave32.getValueFromBuffer(buffer,index*2+1);\r\n        require (end-i>=2,\"iv matrix price length is less than 2\");\r\n        for (;i<end;i++){\r\n            uint256 ivPrice = ArraySave32.getValue(IvMap,saveKey,i*2);\r\n            if (price<=ivPrice){\r\n                break;\r\n            }\r\n        }\r\n        if (i == end){\r\n            i--;\r\n        }else if (i == index) {\r\n            i++;\r\n        }\r\n        uint256 highPrice = ArraySave32.getValue(IvMap,saveKey,i*2);\r\n        if (highPrice == price) {\r\n            return ArraySave32.getValue(IvMap,saveKey,i*2+1)*100;\r\n        }\r\n        int iv = insertValue(int256(ArraySave32.getValue(IvMap,saveKey,i*2-2)),int256(highPrice),\r\n            int256(ArraySave32.getValue(IvMap,saveKey,i*2-1)),int256(ArraySave32.getValue(IvMap,saveKey,i*2+1)),int256(price));\r\n        if (iv<=0){\r\n            return 1;\r\n        }else{\r\n            return uint256(iv)*100;\r\n        }\r\n    }\r\n    function insertValue(int256 x0,int256 x1,int256 y0, int256 y1,int256 x)internal pure returns (int256){\r\n        require(x1 != x0,\"input values are duplicated!\");\r\n        return y0 + (y1-y0)*(x-x0)/(x1-x0);\r\n    }\r\n}\r\n",
  "sourcePath": "C:\\work\\solidity\\finnexusOptions_V2.1\\contracts\\deprecated\\imVolatility32.sol",
  "compiler": {
    "name": "solc",
    "version": "0.5.16+commit.9c3226ce.Emscripten.clang"
  },
  "schemaVersion": "3.1.0",
  "updatedAt": "2020-10-24T10:45:23.393Z",
  "devdoc": {
    "methods": {
      "addOperator(address)": {
        "details": "add a new operator by owner.       "
      },
      "calculateIv(uint32,uint8,uint256,uint256)": {
        "details": "function to get implied volatility for an asset",
        "params": {
          "expiration": "the option expiration which has been created in option manger contract",
          "price": "the option underlying strikePrice which has been created in option manger contract"
        },
        "return": "uint mantissa of asset implied volatility (scaled by 1e8) or zero if unset or contract paused"
      },
      "getOperator()": {
        "details": "get all operators.       "
      },
      "isOwner()": {
        "details": "Returns true if the caller is the current owner."
      },
      "owner()": {
        "details": "Returns the address of the current owner."
      },
      "removeOperator(address)": {
        "details": "remove operator by owner.       "
      },
      "renounceOwnership()": {
        "details": "Leaves the contract without owner. It will not be possible to call `onlyOwner` functions anymore. Can only be called by the current owner.      * NOTE: Renouncing ownership will leave the contract without an owner, thereby removing any functionality that is only available to the owner."
      },
      "setOperator(uint256,address)": {
        "details": "modify indexed operator by owner.       "
      },
      "setOperators(address[])": {
        "details": "set all operators by owner.       "
      },
      "transferOwnership(address)": {
        "details": "Transfers ownership of the contract to a new account (`newOwner`). Can only be called by the current owner."
      }
    }
  },
  "userdoc": {
    "methods": {
      "calculateIv(uint32,uint8,uint256,uint256)": {
        "notice": "retrieves implied volatility of an asset"
      }
    }
  }
}