{
  "contractName": "imVolatility64",
  "abi": [
    {
      "anonymous": false,
      "inputs": [
        {
          "indexed": true,
          "internalType": "address",
          "name": "previousOwner",
          "type": "address"
        },
        {
          "indexed": true,
          "internalType": "address",
          "name": "newOwner",
          "type": "address"
        }
      ],
      "name": "OwnershipTransferred",
      "type": "event"
    },
    {
      "constant": false,
      "inputs": [
        {
          "internalType": "address",
          "name": "addAddress",
          "type": "address"
        }
      ],
      "name": "addOperator",
      "outputs": [],
      "payable": false,
      "stateMutability": "nonpayable",
      "type": "function"
    },
    {
      "constant": true,
      "inputs": [],
      "name": "getOperator",
      "outputs": [
        {
          "internalType": "address[]",
          "name": "",
          "type": "address[]"
        }
      ],
      "payable": false,
      "stateMutability": "view",
      "type": "function"
    },
    {
      "constant": true,
      "inputs": [],
      "name": "isOwner",
      "outputs": [
        {
          "internalType": "bool",
          "name": "",
          "type": "bool"
        }
      ],
      "payable": false,
      "stateMutability": "view",
      "type": "function"
    },
    {
      "constant": true,
      "inputs": [],
      "name": "owner",
      "outputs": [
        {
          "internalType": "address",
          "name": "",
          "type": "address"
        }
      ],
      "payable": false,
      "stateMutability": "view",
      "type": "function"
    },
    {
      "constant": false,
      "inputs": [
        {
          "internalType": "address",
          "name": "removeAddress",
          "type": "address"
        }
      ],
      "name": "removeOperator",
      "outputs": [
        {
          "internalType": "bool",
          "name": "",
          "type": "bool"
        }
      ],
      "payable": false,
      "stateMutability": "nonpayable",
      "type": "function"
    },
    {
      "constant": false,
      "inputs": [],
      "name": "renounceOwnership",
      "outputs": [],
      "payable": false,
      "stateMutability": "nonpayable",
      "type": "function"
    },
    {
      "constant": false,
      "inputs": [
        {
          "internalType": "uint256",
          "name": "index",
          "type": "uint256"
        },
        {
          "internalType": "address",
          "name": "addAddress",
          "type": "address"
        }
      ],
      "name": "setOperator",
      "outputs": [],
      "payable": false,
      "stateMutability": "nonpayable",
      "type": "function"
    },
    {
      "constant": false,
      "inputs": [
        {
          "internalType": "address[]",
          "name": "operators",
          "type": "address[]"
        }
      ],
      "name": "setOperators",
      "outputs": [],
      "payable": false,
      "stateMutability": "nonpayable",
      "type": "function"
    },
    {
      "constant": false,
      "inputs": [
        {
          "internalType": "address",
          "name": "newOwner",
          "type": "address"
        }
      ],
      "name": "transferOwnership",
      "outputs": [],
      "payable": false,
      "stateMutability": "nonpayable",
      "type": "function"
    },
    {
      "constant": false,
      "inputs": [
        {
          "internalType": "uint256",
          "name": "timeLimit",
          "type": "uint256"
        }
      ],
      "name": "setValidUntil",
      "outputs": [],
      "payable": false,
      "stateMutability": "nonpayable",
      "type": "function"
    },
    {
      "constant": false,
      "inputs": [
        {
          "internalType": "uint32",
          "name": "underlying",
          "type": "uint32"
        },
        {
          "internalType": "uint8",
          "name": "optType",
          "type": "uint8"
        },
        {
          "internalType": "uint256[]",
          "name": "timeArray",
          "type": "uint256[]"
        },
        {
          "internalType": "uint256[]",
          "name": "ivAry",
          "type": "uint256[]"
        }
      ],
      "name": "setIvMatrix",
      "outputs": [],
      "payable": false,
      "stateMutability": "nonpayable",
      "type": "function"
    },
    {
      "constant": true,
      "inputs": [
        {
          "internalType": "uint32",
          "name": "underlying",
          "type": "uint32"
        },
        {
          "internalType": "uint8",
          "name": "optType",
          "type": "uint8"
        },
        {
          "internalType": "uint256",
          "name": "expiration",
          "type": "uint256"
        },
        {
          "internalType": "uint256",
          "name": "price",
          "type": "uint256"
        }
      ],
      "name": "calculateIv",
      "outputs": [
        {
          "internalType": "uint256",
          "name": "",
          "type": "uint256"
        },
        {
          "internalType": "uint256",
          "name": "",
          "type": "uint256"
        }
      ],
      "payable": false,
      "stateMutability": "view",
      "type": "function"
    }
  ],
  "bytecode": "0x608060408190526104b060025560008054600160a060020a0319163317808255600160a060020a0316917f8be0079c531659141344cd1fd0a4f28419497f9722a3daafe3b4186f6b6457e0908290a36111a68061005d6000396000f3fe608060405234801561001057600080fd5b50600436106100d1576000357c010000000000000000000000000000000000000000000000000000000090048063b4277bc11161008e578063b4277bc114610189578063ddf71cd5146101da578063e7a1c1c01461027d578063e7f43c68146102a9578063ea4d053614610301578063f2fde38b1461043d576100d1565b8063634099cc146100d6578063715018a6146100f55780638da5cb5b146100fd5780638f32d59b146101215780639870d7fe1461013d578063ac8a584a14610163575b600080fd5b6100f3600480360360208110156100ec57600080fd5b5035610463565b005b6100f36104b2565b610105610553565b60408051600160a060020a039092168252519081900360200190f35b610129610563565b604080519115158252519081900360200190f35b6100f36004803603602081101561015357600080fd5b5035600160a060020a0316610574565b6101296004803603602081101561017957600080fd5b5035600160a060020a03166105d2565b6101c16004803603608081101561019f57600080fd5b5063ffffffff8135169060ff6020820135169060408101359060600135610637565b6040805192835260208301919091528051918290030190f35b6100f3600480360360208110156101f057600080fd5b81019060208101813564010000000081111561020b57600080fd5b82018360208201111561021d57600080fd5b8035906020019184602083028401116401000000008311171561023f57600080fd5b91908080602002602001604051908101604052809392919081815260200183836020028082843760009201919091525092955061071e945050505050565b6100f36004803603604081101561029357600080fd5b5080359060200135600160a060020a031661077f565b6102b1610809565b60408051602080825283518183015283519192839290830191858101910280838360005b838110156102ed5781810151838201526020016102d5565b505050509050019250505060405180910390f35b6100f36004803603608081101561031757600080fd5b63ffffffff8235169160ff6020820135169181019060608101604082013564010000000081111561034757600080fd5b82018360208201111561035957600080fd5b8035906020019184602083028401116401000000008311171561037b57600080fd5b91908080602002602001604051908101604052809392919081815260200183836020028082843760009201919091525092959493602081019350359150506401000000008111156103cb57600080fd5b8201836020820111156103dd57600080fd5b803590602001918460208302840111640100000000831117156103ff57600080fd5b91908080602002602001604051908101604052809392919081815260200183836020028082843760009201919091525092955061086b945050505050565b6100f36004803603602081101561045357600080fd5b5035600160a060020a031661090e565b61046b610563565b6104ad576040805160e560020a62461bcd0281526020600482018190526024820152600080516020611152833981519152604482015290519081900360640190fd5b600255565b6104ba610563565b6104fc576040805160e560020a62461bcd0281526020600482018190526024820152600080516020611152833981519152604482015290519081900360640190fd5b60008054604051600160a060020a03909116907f8be0079c531659141344cd1fd0a4f28419497f9722a3daafe3b4186f6b6457e0908390a36000805473ffffffffffffffffffffffffffffffffffffffff19169055565b600054600160a060020a03165b90565b600054600160a060020a0316331490565b61057c610563565b6105be576040805160e560020a62461bcd0281526020600482018190526024820152600080516020611152833981519152604482015290519081900360640190fd5b6105cf60018263ffffffff61096116565b50565b60006105dc610563565b61061e576040805160e560020a62461bcd0281526020600482018190526024820152600080516020611152833981519152604482015290519081900360640190fd5b61062f60018363ffffffff610a0616565b90505b919050565b600080600061064f8763ffffffff168760ff16610af6565b9050606061065e600483610b0b565b9050600061066c8288610b1e565b90508061069157610680898984848a610b78565b6305f5e10094509450505050610715565b60006106a38a8a85600186038b610b78565b905060006106b48b8b86868c610b78565b905060006106e06106cb8660028760020203610cbd565b6106d88787600202610cbd565b85858e610cd5565b9050600081136107015750600196506305f5e1009550610715945050505050565b96506305f5e1009550610715945050505050565b94509492505050565b610726610563565b610768576040805160e560020a62461bcd0281526020600482018190526024820152600080516020611152833981519152604482015290519081900360640190fd5b805161077b906001906020840190611045565b5050565b610787610563565b6107c9576040805160e560020a62461bcd0281526020600482018190526024820152600080516020611152833981519152604482015290519081900360640190fd5b80600183815481106107d757fe5b9060005260206000200160006101000a815481600160a060020a030219169083600160a060020a031602179055505050565b6060600180548060200260200160405190810160405280929190818152602001828054801561086157602002820191906000526020600020905b8154600160a060020a03168152600190910190602001808311610843575b5050505050905090565b60006108808563ffffffff168560ff16610af6565b835190915060005b818110156108c35784818151811061089c57fe5b60209081029190910181015184830160009081526004909252604090912055600101610888565b5050815160005b81811015610905578381815181106108de57fe5b602090810291909101810151848301600090815260059092526040909120556001016108ca565b50505050505050565b610916610563565b610958576040805160e560020a62461bcd0281526020600482018190526024820152600080516020611152833981519152604482015290519081900360640190fd5b6105cf81610d4e565b6109c4828054806020026020016040519081016040528092919081815260200182805480156109b957602002820191906000526020600020905b8154600160a060020a0316815260019091019060200180831161099b575b505050505082610dfe565b61077b578154600181018355600083815260209020018054600160a060020a03831673ffffffffffffffffffffffffffffffffffffffff199091161790555050565b8154600090815b81811015610a535783600160a060020a0316858281548110610a2b57fe5b600091825260209091200154600160a060020a03161415610a4b57610a53565b600101610a0d565b81811015610ae957600182038114610acd57846001830381548110610a7457fe5b9060005260206000200160009054906101000a9004600160a060020a0316858281548110610a9e57fe5b9060005260206000200160006101000a815481600160a060020a030219169083600160a060020a031602179055505b8454610add8660001983016110b7565b50600192505050610af0565b6000925050505b92915050565b6000610b0460008484610e58565b9392505050565b6060610b048383600863ffffffff610e81565b6000806002610b2c85610f6f565b81610b3357fe5b04905060005b81811015610b6c576000610b508683600202610cbd565b9050808511610b6357509150610af09050565b50600101610b39565b60001901949350505050565b600080610b8e8763ffffffff168760ff16610af6565b9050838015610baa57610ba78660018760020203610cbd565b90505b6000610bbc8787600202600101610cbd565b90505b80821015610bf3576000610bd860058585600202610f97565b9050808611610be75750610bf3565b50600190910190610bbf565b80821415610c075760001990910190610c16565b85821415610c16576001909101905b6000610c2760058585600202610f97565b905085811415610c4e57610c4360058585600202600101610f97565b945050505050610cb4565b6000610c90610c6560058760028860020203610f97565b83610c7860058960018a60020203610f97565b610c8a60058a8a600202600101610f97565b8b610cd5565b905060008113610ca857600195505050505050610cb4565b9450610cb49350505050565b95945050505050565b6000610b0483836001016008602063ffffffff610fb4565b600085851415610d2f576040805160e560020a62461bcd02815260206004820152601c60248201527f696e7075742076616c75657320617265206475706c6963617465642100000000604482015290519081900360640190fd5b8585038683038585030281610d4057fe5b058401905095945050505050565b600160a060020a038116610d965760405160e560020a62461bcd02815260040180806020018281038252602681526020018061112c6026913960400191505060405180910390fd5b60008054604051600160a060020a03808516939216917f8be0079c531659141344cd1fd0a4f28419497f9722a3daafe3b4186f6b6457e091a36000805473ffffffffffffffffffffffffffffffffffffffff1916600160a060020a0392909216919091179055565b8151600090815b81811015610e4d5783600160a060020a0316858281518110610e2357fe5b6020026020010151600160a060020a03161415610e4557600192505050610af0565b600101610e05565b506000949350505050565b700100000000000000000000000000000000026801000000000000000091909102919091010190565b60008381526020859052604090205460609082811680610eb35750506040805160008152602081019091529050610f67565b6000858260010181610ec157fe5b049050858260010181610ed057fe5b0615610eda576001015b606081604051908082528060200260200182016040528015610f06578160200160208202803883390190505b5090508381600081518110610f1757fe5b602090810291909101015260015b82811015610f6057888101600090815260208b905260409020548251839083908110610f4d57fe5b6020908102919091010152600101610f25565b5093505050505b949350505050565b6000815160001415610f8357506000610632565b61062f8260006008602063ffffffff610fb4565b6000610f678484846001016004604067ffffffffffffffff611001565b600080848681610fc057fe5b049050600084868881610fcf57fe5b060290508381898481518110610fe157fe5b6020026020010151908060020a8204915050169250505095945050505050565b60008084868161100d57fe5b04878101600090815260208a905260408120549192508587898161102d57fe5b060260020a9091048416925050509695505050505050565b8280548282559060005260206000209081019282156110a7579160200282015b828111156110a7578251825473ffffffffffffffffffffffffffffffffffffffff1916600160a060020a03909116178255602090920191600190910190611065565b506110b39291506110e0565b5090565b8154818355818111156110db576000838152602090206110db918101908301611111565b505050565b61056091905b808211156110b357805473ffffffffffffffffffffffffffffffffffffffff191681556001016110e6565b61056091905b808211156110b3576000815560010161111756fe4f776e61626c653a206e6577206f776e657220697320746865207a65726f20616464726573734f776e61626c653a2063616c6c6572206973206e6f7420746865206f776e6572a265627a7a72315820de9cb7d408711f4a1b045635da116f3cf2592c842f733d405961aa638508f68464736f6c63430005100032",
  "source": "pragma solidity =0.5.16;\r\nimport \"../modules/Operator.sol\";\r\nimport \"../modules/tuple64.sol\";\r\nimport \"./arraySave.sol\";\r\ncontract imVolatility64 is Operator {\r\n    uint256 private ValidUntil = 1200;\r\n    uint256 constant private _calDecimal = 1e8;\r\n    uint256 private inptutTime;\r\n    ArraySave.saveMap internal timeSaveMap;\r\n    ArraySave.saveMap internal IvMap;\r\n    function setValidUntil(uint256 timeLimit) public onlyOwner {\r\n        ValidUntil = timeLimit;\r\n    }\r\n    function setIvMatrix(uint32 underlying,uint8 optType,uint256[] memory timeArray,uint256[] memory ivAry) public{\r\n        uint256 saveKey = getKey(underlying,optType);\r\n        uint nLen0 = timeArray.length;\r\n        uint i=0;\r\n        for (;i<nLen0;i++){\r\n            timeSaveMap.sMap[saveKey+i] = timeArray[i];\r\n        }\r\n        nLen0 = ivAry.length;\r\n        for (i=0;i<nLen0;i++){\r\n            IvMap.sMap[saveKey+i] = ivAry[i];\r\n        }\r\n    }\r\n    function getKey(uint256 underlying,uint256 optType) internal pure returns(uint256){\r\n        return tuple64.getTuple3(0,underlying,optType);\r\n    }\r\n    /**\r\n    /**\r\n  * @notice retrieves implied volatility of an asset\r\n  * @dev function to get implied volatility for an asset\r\n  * @param expiration the option expiration which has been created in option manger contract\r\n  * @param price the option underlying strikePrice which has been created in option manger contract\r\n  * @return uint mantissa of asset implied volatility (scaled by 1e8) or zero if unset or contract paused\r\n  */\r\n    function calculateIv(uint32 underlying,uint8 optType,uint256 expiration,uint256 price)public view returns (uint256,uint256){\r\n        uint256 saveKey = getKey(underlying,optType);\r\n        uint256[] memory buffer = ArraySave32.readAllBuffer(timeSaveMap,saveKey);\r\n        uint256 index = getTimeRange(buffer,expiration);\r\n        if (index == 0){\r\n            return (calculateTimeIv(underlying,optType,buffer,index,price),_calDecimal);\r\n        }\r\n        uint256 ivLow = calculateTimeIv(underlying,optType,buffer,index-1,price);\r\n        uint256 ivHigh = calculateTimeIv(underlying,optType,buffer,index,price);\r\n        int iv = insertValue(int256(ArraySave32.getValueFromBuffer(buffer,index*2-2)),int256(ArraySave32.getValueFromBuffer(buffer,index*2)),\r\n            int256(ivLow),int256(ivHigh),int256(expiration));\r\n        if (iv<=0){\r\n            return (1,_calDecimal);\r\n        }else{\r\n            return (uint256(iv),_calDecimal);\r\n        }\r\n    }\r\n    function getTimeRange(uint256[] memory buffer,uint256 expiration) internal pure returns(uint256){\r\n        uint256 Len = ArraySave32.getArrayLenFromBuffer(buffer)/2;\r\n        uint256 i=0;\r\n        for (;i<Len;i++){\r\n            uint256 curTime = ArraySave32.getValueFromBuffer(buffer,i*2);\r\n            if (expiration<=curTime){\r\n                return i;\r\n            }\r\n        }\r\n        i--;\r\n        return i;\r\n    }\r\n    function calculateTimeIv(uint32 underlying,uint8 optType,uint256[] memory buffer,uint256 index,uint256 price)internal view returns (uint256){\r\n        uint256 saveKey = getKey(underlying,optType);\r\n        uint256 i = index;\r\n        if (index > 0){\r\n            i = ArraySave32.getValueFromBuffer(buffer,index*2-1);\r\n        }\r\n        uint256 end = ArraySave32.getValueFromBuffer(buffer,index*2+1);\r\n        for (;i<end;i++){\r\n            uint256 ivPrice = ArraySave64.getValue(IvMap,saveKey,i*2);\r\n            if (price<=ivPrice){\r\n                break;                \r\n            }\r\n        }\r\n        if (i == end){\r\n            i--;\r\n        }else if (i == index) {\r\n            i++;\r\n        }\r\n        uint256 highPrice = ArraySave64.getValue(IvMap,saveKey,i*2);\r\n        if (highPrice == price) {\r\n            return ArraySave64.getValue(IvMap,saveKey,i*2+1);\r\n        }         \r\n        int iv = insertValue(int256(ArraySave64.getValue(IvMap,saveKey,i*2-2)),int256(highPrice),\r\n            int256(ArraySave64.getValue(IvMap,saveKey,i*2-1)),int256(ArraySave64.getValue(IvMap,saveKey,i*2+1)),int256(price));\r\n        if (iv<=0){\r\n            return 1;\r\n        }else{\r\n            return uint256(iv);\r\n        }\r\n    }\r\n    function insertValue(int256 x0,int256 x1,int256 y0, int256 y1,int256 x)internal pure returns (int256){\r\n        require(x1 != x0,\"input values are duplicated!\");\r\n        return y0 + (y1-y0)*(x-x0)/(x1-x0);\r\n    }\r\n}\r\n",
  "sourcePath": "C:\\work\\solidity\\finnexusOptions_V2.1\\contracts\\deprecated\\imVolatility64.sol",
  "compiler": {
    "name": "solc",
    "version": "0.5.16+commit.9c3226ce.Emscripten.clang"
  },
  "schemaVersion": "3.1.0",
  "updatedAt": "2020-10-24T10:45:23.403Z",
  "devdoc": {
    "methods": {
      "addOperator(address)": {
        "details": "add a new operator by owner.       "
      },
      "calculateIv(uint32,uint8,uint256,uint256)": {
        "details": "function to get implied volatility for an asset",
        "params": {
          "expiration": "the option expiration which has been created in option manger contract",
          "price": "the option underlying strikePrice which has been created in option manger contract"
        },
        "return": "uint mantissa of asset implied volatility (scaled by 1e8) or zero if unset or contract paused"
      },
      "getOperator()": {
        "details": "get all operators.       "
      },
      "isOwner()": {
        "details": "Returns true if the caller is the current owner."
      },
      "owner()": {
        "details": "Returns the address of the current owner."
      },
      "removeOperator(address)": {
        "details": "remove operator by owner.       "
      },
      "renounceOwnership()": {
        "details": "Leaves the contract without owner. It will not be possible to call `onlyOwner` functions anymore. Can only be called by the current owner.      * NOTE: Renouncing ownership will leave the contract without an owner, thereby removing any functionality that is only available to the owner."
      },
      "setOperator(uint256,address)": {
        "details": "modify indexed operator by owner.       "
      },
      "setOperators(address[])": {
        "details": "set all operators by owner.       "
      },
      "transferOwnership(address)": {
        "details": "Transfers ownership of the contract to a new account (`newOwner`). Can only be called by the current owner."
      }
    }
  },
  "userdoc": {
    "methods": {
      "calculateIv(uint32,uint8,uint256,uint256)": {
        "notice": "/**retrieves implied volatility of an asset"
      }
    }
  }
}