{
  "contractName": "ManagerData",
  "abi": [
    {
      "anonymous": false,
      "inputs": [
        {
          "indexed": true,
          "internalType": "address",
          "name": "from",
          "type": "address"
        },
        {
          "indexed": false,
          "internalType": "uint256",
          "name": "amount",
          "type": "uint256"
        },
        {
          "indexed": false,
          "internalType": "uint256",
          "name": "tokenAmount",
          "type": "uint256"
        }
      ],
      "name": "AddCollateral",
      "type": "event"
    },
    {
      "anonymous": false,
      "inputs": [
        {
          "indexed": true,
          "internalType": "address",
          "name": "from",
          "type": "address"
        },
        {
          "indexed": true,
          "internalType": "uint256",
          "name": "optionId",
          "type": "uint256"
        },
        {
          "indexed": false,
          "internalType": "uint256",
          "name": "optionPrice",
          "type": "uint256"
        },
        {
          "indexed": false,
          "internalType": "uint256",
          "name": "settlementAmount",
          "type": "uint256"
        },
        {
          "indexed": false,
          "internalType": "uint256",
          "name": "optionAmount",
          "type": "uint256"
        }
      ],
      "name": "BuyOption",
      "type": "event"
    },
    {
      "anonymous": false,
      "inputs": [
        {
          "indexed": false,
          "internalType": "uint256",
          "name": "id",
          "type": "uint256"
        },
        {
          "indexed": false,
          "internalType": "uint256",
          "name": "value1",
          "type": "uint256"
        },
        {
          "indexed": false,
          "internalType": "uint256",
          "name": "value2",
          "type": "uint256"
        }
      ],
      "name": "DebugEvent",
      "type": "event"
    },
    {
      "anonymous": false,
      "inputs": [
        {
          "indexed": true,
          "internalType": "address",
          "name": "from",
          "type": "address"
        },
        {
          "indexed": true,
          "internalType": "uint256",
          "name": "optionId",
          "type": "uint256"
        },
        {
          "indexed": false,
          "internalType": "uint256",
          "name": "amount",
          "type": "uint256"
        },
        {
          "indexed": false,
          "internalType": "uint256",
          "name": "sellValue",
          "type": "uint256"
        }
      ],
      "name": "ExerciseOption",
      "type": "event"
    },
    {
      "anonymous": false,
      "inputs": [
        {
          "indexed": true,
          "internalType": "address",
          "name": "previousOwner",
          "type": "address"
        },
        {
          "indexed": true,
          "internalType": "address",
          "name": "newOwner",
          "type": "address"
        }
      ],
      "name": "OwnershipTransferred",
      "type": "event"
    },
    {
      "anonymous": false,
      "inputs": [
        {
          "indexed": true,
          "internalType": "address",
          "name": "from",
          "type": "address"
        },
        {
          "indexed": false,
          "internalType": "uint256",
          "name": "allRedeem",
          "type": "uint256"
        }
      ],
      "name": "RedeemCollateral",
      "type": "event"
    },
    {
      "anonymous": false,
      "inputs": [
        {
          "indexed": true,
          "internalType": "address",
          "name": "from",
          "type": "address"
        },
        {
          "indexed": true,
          "internalType": "uint256",
          "name": "optionId",
          "type": "uint256"
        },
        {
          "indexed": false,
          "internalType": "uint256",
          "name": "amount",
          "type": "uint256"
        },
        {
          "indexed": false,
          "internalType": "uint256",
          "name": "sellValue",
          "type": "uint256"
        }
      ],
      "name": "SellOption",
      "type": "event"
    },
    {
      "constant": false,
      "inputs": [
        {
          "internalType": "address",
          "name": "addAddress",
          "type": "address"
        }
      ],
      "name": "addWhiteList",
      "outputs": [],
      "payable": false,
      "stateMutability": "nonpayable",
      "type": "function"
    },
    {
      "constant": true,
      "inputs": [
        {
          "internalType": "address",
          "name": "spender",
          "type": "address"
        }
      ],
      "name": "allowance",
      "outputs": [
        {
          "internalType": "uint256",
          "name": "",
          "type": "uint256"
        }
      ],
      "payable": false,
      "stateMutability": "view",
      "type": "function"
    },
    {
      "constant": false,
      "inputs": [
        {
          "internalType": "address",
          "name": "spender",
          "type": "address"
        },
        {
          "internalType": "uint256",
          "name": "amount",
          "type": "uint256"
        }
      ],
      "name": "approve",
      "outputs": [],
      "payable": false,
      "stateMutability": "nonpayable",
      "type": "function"
    },
    {
      "constant": true,
      "inputs": [
        {
          "internalType": "address",
          "name": "tmpAddress",
          "type": "address"
        },
        {
          "internalType": "uint256",
          "name": "state",
          "type": "uint256"
        }
      ],
      "name": "checkAddressPermission",
      "outputs": [
        {
          "internalType": "bool",
          "name": "",
          "type": "bool"
        }
      ],
      "payable": false,
      "stateMutability": "view",
      "type": "function"
    },
    {
      "constant": true,
      "inputs": [
        {
          "internalType": "address",
          "name": "spender",
          "type": "address"
        },
        {
          "internalType": "uint256",
          "name": "amount",
          "type": "uint256"
        }
      ],
      "name": "checkAllowance",
      "outputs": [
        {
          "internalType": "bool",
          "name": "",
          "type": "bool"
        }
      ],
      "payable": false,
      "stateMutability": "view",
      "type": "function"
    },
    {
      "constant": true,
      "inputs": [],
      "name": "getCollateralPoolAddress",
      "outputs": [
        {
          "internalType": "address",
          "name": "",
          "type": "address"
        }
      ],
      "payable": false,
      "stateMutability": "view",
      "type": "function"
    },
    {
      "constant": true,
      "inputs": [],
      "name": "getFPTCoinAddress",
      "outputs": [
        {
          "internalType": "address",
          "name": "",
          "type": "address"
        }
      ],
      "payable": false,
      "stateMutability": "view",
      "type": "function"
    },
    {
      "constant": true,
      "inputs": [],
      "name": "getInputAmountRange",
      "outputs": [
        {
          "internalType": "uint256",
          "name": "",
          "type": "uint256"
        },
        {
          "internalType": "uint256",
          "name": "",
          "type": "uint256"
        }
      ],
      "payable": false,
      "stateMutability": "view",
      "type": "function"
    },
    {
      "constant": true,
      "inputs": [],
      "name": "getOptionsPoolAddress",
      "outputs": [
        {
          "internalType": "address",
          "name": "",
          "type": "address"
        }
      ],
      "payable": false,
      "stateMutability": "view",
      "type": "function"
    },
    {
      "constant": true,
      "inputs": [],
      "name": "getOptionsPriceAddress",
      "outputs": [
        {
          "internalType": "address",
          "name": "",
          "type": "address"
        }
      ],
      "payable": false,
      "stateMutability": "view",
      "type": "function"
    },
    {
      "constant": true,
      "inputs": [],
      "name": "getOracleAddress",
      "outputs": [
        {
          "internalType": "address",
          "name": "",
          "type": "address"
        }
      ],
      "payable": false,
      "stateMutability": "view",
      "type": "function"
    },
    {
      "constant": true,
      "inputs": [],
      "name": "getWhiteList",
      "outputs": [
        {
          "internalType": "address[]",
          "name": "",
          "type": "address[]"
        }
      ],
      "payable": false,
      "stateMutability": "view",
      "type": "function"
    },
    {
      "constant": true,
      "inputs": [
        {
          "internalType": "address",
          "name": "tmpAddress",
          "type": "address"
        }
      ],
      "name": "isEligibleAddress",
      "outputs": [
        {
          "internalType": "bool",
          "name": "",
          "type": "bool"
        }
      ],
      "payable": false,
      "stateMutability": "view",
      "type": "function"
    },
    {
      "constant": true,
      "inputs": [
        {
          "internalType": "uint256",
          "name": "Amount",
          "type": "uint256"
        }
      ],
      "name": "isInputAmountInRange",
      "outputs": [
        {
          "internalType": "bool",
          "name": "",
          "type": "bool"
        }
      ],
      "payable": false,
      "stateMutability": "view",
      "type": "function"
    },
    {
      "constant": true,
      "inputs": [],
      "name": "isOwner",
      "outputs": [
        {
          "internalType": "bool",
          "name": "",
          "type": "bool"
        }
      ],
      "payable": false,
      "stateMutability": "view",
      "type": "function"
    },
    {
      "constant": false,
      "inputs": [
        {
          "internalType": "address",
          "name": "addAddress",
          "type": "address"
        },
        {
          "internalType": "uint256",
          "name": "permission",
          "type": "uint256"
        }
      ],
      "name": "modifyPermission",
      "outputs": [],
      "payable": false,
      "stateMutability": "nonpayable",
      "type": "function"
    },
    {
      "constant": true,
      "inputs": [],
      "name": "owner",
      "outputs": [
        {
          "internalType": "address",
          "name": "",
          "type": "address"
        }
      ],
      "payable": false,
      "stateMutability": "view",
      "type": "function"
    },
    {
      "constant": false,
      "inputs": [
        {
          "internalType": "address",
          "name": "removeAddress",
          "type": "address"
        }
      ],
      "name": "removeWhiteList",
      "outputs": [
        {
          "internalType": "bool",
          "name": "",
          "type": "bool"
        }
      ],
      "payable": false,
      "stateMutability": "nonpayable",
      "type": "function"
    },
    {
      "constant": false,
      "inputs": [],
      "name": "renounceOwnership",
      "outputs": [],
      "payable": false,
      "stateMutability": "nonpayable",
      "type": "function"
    },
    {
      "constant": false,
      "inputs": [
        {
          "internalType": "address",
          "name": "collateralPool",
          "type": "address"
        }
      ],
      "name": "setCollateralPoolAddress",
      "outputs": [],
      "payable": false,
      "stateMutability": "nonpayable",
      "type": "function"
    },
    {
      "constant": false,
      "inputs": [
        {
          "internalType": "address",
          "name": "FPTCoinAddr",
          "type": "address"
        }
      ],
      "name": "setFPTCoinAddress",
      "outputs": [],
      "payable": false,
      "stateMutability": "nonpayable",
      "type": "function"
    },
    {
      "constant": false,
      "inputs": [
        {
          "internalType": "bool",
          "name": "halt",
          "type": "bool"
        }
      ],
      "name": "setHalt",
      "outputs": [],
      "payable": false,
      "stateMutability": "nonpayable",
      "type": "function"
    },
    {
      "constant": false,
      "inputs": [
        {
          "internalType": "uint256",
          "name": "_minAmount",
          "type": "uint256"
        },
        {
          "internalType": "uint256",
          "name": "_maxAmount",
          "type": "uint256"
        }
      ],
      "name": "setInputAmountRange",
      "outputs": [],
      "payable": false,
      "stateMutability": "nonpayable",
      "type": "function"
    },
    {
      "constant": false,
      "inputs": [
        {
          "internalType": "address",
          "name": "optionsPool",
          "type": "address"
        }
      ],
      "name": "setOptionsPoolAddress",
      "outputs": [],
      "payable": false,
      "stateMutability": "nonpayable",
      "type": "function"
    },
    {
      "constant": false,
      "inputs": [
        {
          "internalType": "address",
          "name": "optionsPrice",
          "type": "address"
        }
      ],
      "name": "setOptionsPriceAddress",
      "outputs": [],
      "payable": false,
      "stateMutability": "nonpayable",
      "type": "function"
    },
    {
      "constant": false,
      "inputs": [
        {
          "internalType": "address",
          "name": "oracle",
          "type": "address"
        }
      ],
      "name": "setOracleAddress",
      "outputs": [],
      "payable": false,
      "stateMutability": "nonpayable",
      "type": "function"
    },
    {
      "constant": false,
      "inputs": [
        {
          "internalType": "bool",
          "name": "_bValid",
          "type": "bool"
        }
      ],
      "name": "setValid",
      "outputs": [],
      "payable": false,
      "stateMutability": "nonpayable",
      "type": "function"
    },
    {
      "constant": false,
      "inputs": [
        {
          "internalType": "address",
          "name": "newOwner",
          "type": "address"
        }
      ],
      "name": "transferOwnership",
      "outputs": [],
      "payable": false,
      "stateMutability": "nonpayable",
      "type": "function"
    }
  ],
  "bytecode": "0x60806040819052600080546c0c9f2c9cd04674edea40000000600190815560646002556003805460ff19908116909155600780549091169091179055611388600c556105dc600e556101f4600f55600160a860020a03191661010033810291909117808355600160a060020a0391900416917f8be0079c531659141344cd1fd0a4f28419497f9722a3daafe3b4186f6b6457e0908290a36110fa806100a56000396000f3fe608060405234801561001057600080fd5b50600436106101e1576000357c010000000000000000000000000000000000000000000000000000000090048063817bf86d11610116578063c040725a116100b4578063e7122ffd1161008e578063e7122ffd146104fc578063e7cd4a0414610522578063f2fde38b14610548578063f49543871461056e576101e1565b8063c040725a146104c0578063c219043b146104c8578063d7e57992146104f4576101e1565b80639ab91a35116100f05780639ab91a351461044e578063a093e2d014610471578063b18b78dd14610497578063bc9abed21461049f576101e1565b8063817bf86d146104185780638da5cb5b1461043e5780638f32d59b14610446576101e1565b80633e5beab9116101835780635ca4b73b1161015d5780635ca4b73b146103cc5780636c64edee146103d4578063715018a6146103f3578063813b5d4b146103fb576101e1565b80633e5beab9146103425780634c69c00f1461037a5780634cbf6302146103a0576101e1565b80631a5a3fce116101bf5780631a5a3fce146102925780632042e5c2146102b8578063251e2fe3146102f25780633daba0d714610316576101e1565b8063095ea7b3146101e657806309a9d76c146102145780631730b3cb1461026c575b600080fd5b610212600480360360408110156101fc57600080fd5b50600160a060020a03813516906020013561058d565b005b61021c6105f3565b60408051602080825283518183015283519192839290830191858101910280838360005b83811015610258578181015183820152602001610240565b505050509050019250505060405180910390f35b6102126004803603602081101561028257600080fd5b5035600160a060020a0316610656565b610212600480360360208110156102a857600080fd5b5035600160a060020a03166106cf565b6102de600480360360208110156102ce57600080fd5b5035600160a060020a0316610748565b604080519115158252519081900360200190f35b6102fa6107c4565b60408051600160a060020a039092168252519081900360200190f35b6102de6004803603604081101561032c57600080fd5b50600160a060020a0381351690602001356107d3565b6103686004803603602081101561035857600080fd5b5035600160a060020a0316610807565b60408051918252519081900360200190f35b6102126004803603602081101561039057600080fd5b5035600160a060020a0316610822565b6102de600480360360408110156103b657600080fd5b50600160a060020a03813516906020013561089b565b6102fa6108bc565b610212600480360360208110156103ea57600080fd5b503515156108cb565b610212610928565b6102de6004803603602081101561041157600080fd5b50356109ce565b6102de6004803603602081101561042e57600080fd5b5035600160a060020a03166109e6565b6102fa610a55565b6102de610a69565b6102126004803603604081101561046457600080fd5b5080359060200135610a7f565b6102126004803603602081101561048757600080fd5b5035600160a060020a0316610ad4565b6102fa610b4d565b6104a7610b5c565b6040805192835260208301919091528051918290030190f35b6102fa610b66565b610212600480360360408110156104de57600080fd5b50600160a060020a038135169060200135610b75565b6102fa610bdb565b6102126004803603602081101561051257600080fd5b5035600160a060020a0316610bef565b6102126004803603602081101561053857600080fd5b5035600160a060020a0316610c6e565b6102126004803603602081101561055e57600080fd5b5035600160a060020a0316610ce9565b6102126004803603602081101561058457600080fd5b50351515610d3f565b610595610a69565b6105d7576040805160e560020a62461bcd02815260206004820181905260248201526000805160206110a6833981519152604482015290519081900360640190fd5b600160a060020a03909116600090815260066020526040902055565b6060600480548060200260200160405190810160405280929190818152602001828054801561064b57602002820191906000526020600020905b8154600160a060020a0316815260019091019060200180831161062d575b505050505090505b90565b61065e610a69565b6106a0576040805160e560020a62461bcd02815260206004820181905260248201526000805160206110a6833981519152604482015290519081900360640190fd5b600a805473ffffffffffffffffffffffffffffffffffffffff1916600160a060020a0392909216919091179055565b6106d7610a69565b610719576040805160e560020a62461bcd02815260206004820181905260248201526000805160206110a6833981519152604482015290519081900360640190fd5b6009805473ffffffffffffffffffffffffffffffffffffffff1916600160a060020a0392909216919091179055565b6000610752610a69565b610794576040805160e560020a62461bcd02815260206004820181905260248201526000805160206110a6833981519152604482015290519081900360640190fd5b600160a060020a0382166000908152600560205260408120556107be60048363ffffffff610d9c16565b92915050565b600a54600160a060020a031690565b60075460009060ff1615806108005750600160a060020a0383166000908152600660205260409020548211155b9392505050565b600160a060020a031660009081526006602052604090205490565b61082a610a69565b61086c576040805160e560020a62461bcd02815260206004820181905260248201526000805160206110a6833981519152604482015290519081900360640190fd5b6008805473ffffffffffffffffffffffffffffffffffffffff1916600160a060020a0392909216919091179055565b600160a060020a039190911660009081526005602052604090205481161490565b600b54600160a060020a031690565b6108d3610a69565b610915576040805160e560020a62461bcd02815260206004820181905260248201526000805160206110a6833981519152604482015290519081900360640190fd5b6007805460ff1916911515919091179055565b610930610a69565b610972576040805160e560020a62461bcd02815260206004820181905260248201526000805160206110a6833981519152604482015290519081900360640190fd5b60008054604051610100909104600160a060020a0316907f8be0079c531659141344cd1fd0a4f28419497f9722a3daafe3b4186f6b6457e0908390a36000805474ffffffffffffffffffffffffffffffffffffffff0019169055565b600081600154101580156107be575050600254111590565b60006107be826004805480602002602001604051908101604052809291908181526020018280548015610a4257602002820191906000526020600020905b8154600160a060020a03168152600190910190602001808311610a24575b5050505050610e8a90919063ffffffff16565b6000546101009004600160a060020a031690565b6000546101009004600160a060020a0316331490565b610a87610a69565b610ac9576040805160e560020a62461bcd02815260206004820181905260248201526000805160206110a6833981519152604482015290519081900360640190fd5b600291909155600155565b610adc610a69565b610b1e576040805160e560020a62461bcd02815260206004820181905260248201526000805160206110a6833981519152604482015290519081900360640190fd5b600b805473ffffffffffffffffffffffffffffffffffffffff1916600160a060020a0392909216919091179055565b600854600160a060020a031690565b6002546001549091565b600954600160a060020a031690565b610b7d610a69565b610bbf576040805160e560020a62461bcd02815260206004820181905260248201526000805160206110a6833981519152604482015290519081900360640190fd5b600160a060020a03909116600090815260056020526040902055565b6007546101009004600160a060020a031690565b610bf7610a69565b610c39576040805160e560020a62461bcd02815260206004820181905260248201526000805160206110a6833981519152604482015290519081900360640190fd5b60078054600160a060020a039092166101000274ffffffffffffffffffffffffffffffffffffffff0019909216919091179055565b610c76610a69565b610cb8576040805160e560020a62461bcd02815260206004820181905260248201526000805160206110a6833981519152604482015290519081900360640190fd5b610cc960048263ffffffff610ed916565b600160a060020a0316600090815260056020526040902063ffffffff9055565b610cf1610a69565b610d33576040805160e560020a62461bcd02815260206004820181905260248201526000805160206110a6833981519152604482015290519081900360640190fd5b610d3c81610f7d565b50565b610d47610a69565b610d89576040805160e560020a62461bcd02815260206004820181905260248201526000805160206110a6833981519152604482015290519081900360640190fd5b6003805460ff1916911515919091179055565b8154600090815b81811015610de95783600160a060020a0316858281548110610dc157fe5b600091825260209091200154600160a060020a03161415610de157610de9565b600101610da3565b81811015610e7f57600182038114610e6357846001830381548110610e0a57fe5b9060005260206000200160009054906101000a9004600160a060020a0316858281548110610e3457fe5b9060005260206000200160006101000a815481600160a060020a030219169083600160a060020a031602179055505b8454610e73866000198301611038565b506001925050506107be565b506000949350505050565b8151600090815b81811015610e7f5783600160a060020a0316858281518110610eaf57fe5b6020026020010151600160a060020a03161415610ed1576001925050506107be565b600101610e91565b610f3c82805480602002602001604051908101604052809291908181526020018280548015610f3157602002820191906000526020600020905b8154600160a060020a03168152600190910190602001808311610f13575b505050505082610e8a565b610f7957815460018101835560008381526020902001805473ffffffffffffffffffffffffffffffffffffffff1916600160a060020a0383161790555b5050565b600160a060020a038116610fc55760405160e560020a62461bcd0281526004018080602001828103825260268152602001806110806026913960400191505060405180910390fd5b60008054604051600160a060020a038085169361010090930416917f8be0079c531659141344cd1fd0a4f28419497f9722a3daafe3b4186f6b6457e091a360008054600160a060020a039092166101000274ffffffffffffffffffffffffffffffffffffffff0019909216919091179055565b81548183558181111561105c5760008381526020902061105c918101908301611061565b505050565b61065391905b8082111561107b5760008155600101611067565b509056fe4f776e61626c653a206e6577206f776e657220697320746865207a65726f20616464726573734f776e61626c653a2063616c6c6572206973206e6f7420746865206f776e6572a265627a7a72315820d866ac7013d891630ea7e7c5ed9fec0cbbff4858c27b934bd9cc1540d9d54b5d64736f6c63430005100032",
  "source": "pragma solidity =0.5.16;\r\nimport \"../modules/AddressWhiteList.sol\";\r\nimport \"../modules/ReentrancyGuard.sol\";\r\nimport \"../OptionsPool/IOptionsPool.sol\";\r\nimport \"../interfaces/IFNXOracle.sol\";\r\nimport \"../interfaces/IOptionsPrice.sol\";\r\nimport \"../CollateralPool/ICollateralPool.sol\";\r\nimport \"../FPTCoin/IFPTCoin.sol\";\r\n\r\nimport \"../modules/ImputRange.sol\";\r\nimport \"../modules/Allowances.sol\";\r\nimport \"../ERC20/IERC20.sol\";\r\n/**\r\n * @title collateral calculate module\r\n * @dev A smart-contract which has operations of collateral and methods of calculate collateral occupation.\r\n *\r\n */\r\ncontract ManagerData is ReentrancyGuard,ImputRange,AddressWhiteList,Allowances,ImportIFPTCoin,\r\n                ImportOracle,ImportOptionsPool,ImportCollateralPool,ImportOptionsPrice {\r\n    // The minimum collateral rate for options. This value is thousandths.\r\n    uint256 internal collateralRate = 5000;\r\n    address internal collateral;\r\n    /**\r\n     * @dev Emitted when `from` added `amount` collateral and minted `tokenAmount` FPTCoin.\r\n     */\r\n    event AddCollateral(address indexed from,uint256 amount,uint256 tokenAmount);\r\n    /**\r\n     * @dev Emitted when `from` redeemed `allRedeem` collateral.\r\n     */\r\n    event RedeemCollateral(address indexed from,uint256 allRedeem);\r\n    event DebugEvent(uint256 id,uint256 value1,uint256 value2);\r\n        /**\r\n    * @dev input price valid range rate, thousandths.\r\n    * the input price must greater than current price * minPriceRate /1000\r\n    *       and less  than current price * maxPriceRate /1000 \r\n    * maxPriceRate is the maximum limit of the price valid range rate\r\n    * maxPriceRate is the minimum limit of the price valid range rage\r\n    */   \r\n    uint256 internal maxPriceRate = 1500;\r\n    uint256 internal minPriceRate = 500;\r\n    /**\r\n     * @dev Emitted when `from` buy `optionAmount` option and create new option.\r\n     * @param from user's account\r\n     * @param optionId new option's id\r\n     * @param optionPrice option's paid price\r\n     * @param optionAmount mint option token amount.\r\n     */  \r\n    event BuyOption(address indexed from,uint256 indexed optionId,uint256 optionPrice,uint256 settlementAmount,uint256 optionAmount);\r\n    /**\r\n     * @dev Emitted when `from` sell `amount` option whose id is `optionId` and received sellValue,priced in usd.\r\n     */  \r\n    event SellOption(address indexed from,uint256 indexed optionId,uint256 amount,uint256 sellValue);\r\n    /**\r\n     * @dev Emitted when `from` exercise `amount` option whose id is `optionId` and received sellValue,priced in usd.\r\n     */  \r\n    event ExerciseOption(address indexed from,uint256 indexed optionId,uint256 amount,uint256 sellValue);\r\n}\r\n",
  "sourcePath": "C:\\work\\solidity\\finnexusOptions_V2.1\\contracts\\OptionsManager\\ManagerData.sol",
  "compiler": {
    "name": "solc",
    "version": "0.5.16+commit.9c3226ce.Emscripten.clang"
  },
  "schemaVersion": "3.1.0",
  "updatedAt": "2020-10-24T10:45:23.290Z",
  "devdoc": {
    "details": "A smart-contract which has operations of collateral and methods of calculate collateral occupation.  ",
    "methods": {
      "addWhiteList(address)": {
        "details": "Implementation of add an eligible address into the whitelist.",
        "params": {
          "addAddress": "new eligible address."
        }
      },
      "getInputAmountRange()": {
        "details": "get the valid range of input amount"
      },
      "getWhiteList()": {
        "details": "Implementation of getting the eligible whitelist."
      },
      "isEligibleAddress(address)": {
        "details": "Implementation of testing whether the input address is eligible.",
        "params": {
          "tmpAddress": "input address for testing."
        }
      },
      "isInputAmountInRange(uint256)": {
        "details": "Determine whether the input amount is within the valid range",
        "params": {
          "Amount": "Test value which is user input"
        }
      },
      "isOwner()": {
        "details": "Returns true if the caller is the current owner."
      },
      "owner()": {
        "details": "Returns the address of the current owner."
      },
      "removeWhiteList(address)": {
        "details": "Implementation of revoke an invalid address from the whitelist.",
        "params": {
          "removeAddress": "revoked address."
        }
      },
      "renounceOwnership()": {
        "details": "Leaves the contract without owner. It will not be possible to call `onlyOwner` functions anymore. Can only be called by the current owner.      * NOTE: Renouncing ownership will leave the contract without an owner, thereby removing any functionality that is only available to the owner."
      },
      "setInputAmountRange(uint256,uint256)": {
        "details": "set the valid range of input amount",
        "params": {
          "_maxAmount": "the maximum input amount limit",
          "_minAmount": "the minimum input amount limit"
        }
      },
      "transferOwnership(address)": {
        "details": "Transfers ownership of the contract to a new account (`newOwner`). Can only be called by the current owner."
      }
    },
    "title": "collateral calculate module"
  },
  "userdoc": {
    "methods": {
      "approve(address,uint256)": {
        "notice": "     * Requirements:      * - `spender` cannot be the zero address."
      },
      "setHalt(bool)": {
        "notice": "function Emergency situation that requires contribution period to stop or not."
      }
    }
  }
}