{
  "contractName": "ManagerProxy",
  "abi": [
    {
      "inputs": [
        {
          "internalType": "address",
          "name": "implementation_",
          "type": "address"
        },
        {
          "internalType": "address",
          "name": "oracleAddr",
          "type": "address"
        },
        {
          "internalType": "address",
          "name": "optionsPriceAddr",
          "type": "address"
        },
        {
          "internalType": "address",
          "name": "optionsPoolAddr",
          "type": "address"
        },
        {
          "internalType": "address",
          "name": "collateralPoolAddr",
          "type": "address"
        },
        {
          "internalType": "address",
          "name": "FPTCoinAddr",
          "type": "address"
        }
      ],
      "payable": false,
      "stateMutability": "nonpayable",
      "type": "constructor"
    },
    {
      "anonymous": false,
      "inputs": [
        {
          "indexed": true,
          "internalType": "address",
          "name": "from",
          "type": "address"
        },
        {
          "indexed": false,
          "internalType": "uint256",
          "name": "amount",
          "type": "uint256"
        },
        {
          "indexed": false,
          "internalType": "uint256",
          "name": "tokenAmount",
          "type": "uint256"
        }
      ],
      "name": "AddCollateral",
      "type": "event"
    },
    {
      "anonymous": false,
      "inputs": [
        {
          "indexed": true,
          "internalType": "address",
          "name": "from",
          "type": "address"
        },
        {
          "indexed": true,
          "internalType": "uint256",
          "name": "optionId",
          "type": "uint256"
        },
        {
          "indexed": false,
          "internalType": "uint256",
          "name": "optionPrice",
          "type": "uint256"
        },
        {
          "indexed": false,
          "internalType": "uint256",
          "name": "settlementAmount",
          "type": "uint256"
        },
        {
          "indexed": false,
          "internalType": "uint256",
          "name": "optionAmount",
          "type": "uint256"
        }
      ],
      "name": "BuyOption",
      "type": "event"
    },
    {
      "anonymous": false,
      "inputs": [
        {
          "indexed": false,
          "internalType": "uint256",
          "name": "id",
          "type": "uint256"
        },
        {
          "indexed": false,
          "internalType": "uint256",
          "name": "value1",
          "type": "uint256"
        },
        {
          "indexed": false,
          "internalType": "uint256",
          "name": "value2",
          "type": "uint256"
        }
      ],
      "name": "DebugEvent",
      "type": "event"
    },
    {
      "anonymous": false,
      "inputs": [
        {
          "indexed": true,
          "internalType": "address",
          "name": "from",
          "type": "address"
        },
        {
          "indexed": true,
          "internalType": "uint256",
          "name": "optionId",
          "type": "uint256"
        },
        {
          "indexed": false,
          "internalType": "uint256",
          "name": "amount",
          "type": "uint256"
        },
        {
          "indexed": false,
          "internalType": "uint256",
          "name": "sellValue",
          "type": "uint256"
        }
      ],
      "name": "ExerciseOption",
      "type": "event"
    },
    {
      "anonymous": false,
      "inputs": [
        {
          "indexed": true,
          "internalType": "address",
          "name": "previousOwner",
          "type": "address"
        },
        {
          "indexed": true,
          "internalType": "address",
          "name": "newOwner",
          "type": "address"
        }
      ],
      "name": "OwnershipTransferred",
      "type": "event"
    },
    {
      "anonymous": false,
      "inputs": [
        {
          "indexed": true,
          "internalType": "address",
          "name": "from",
          "type": "address"
        },
        {
          "indexed": false,
          "internalType": "uint256",
          "name": "allRedeem",
          "type": "uint256"
        }
      ],
      "name": "RedeemCollateral",
      "type": "event"
    },
    {
      "anonymous": false,
      "inputs": [
        {
          "indexed": true,
          "internalType": "address",
          "name": "from",
          "type": "address"
        },
        {
          "indexed": true,
          "internalType": "uint256",
          "name": "optionId",
          "type": "uint256"
        },
        {
          "indexed": false,
          "internalType": "uint256",
          "name": "amount",
          "type": "uint256"
        },
        {
          "indexed": false,
          "internalType": "uint256",
          "name": "sellValue",
          "type": "uint256"
        }
      ],
      "name": "SellOption",
      "type": "event"
    },
    {
      "constant": false,
      "inputs": [
        {
          "internalType": "address",
          "name": "addAddress",
          "type": "address"
        }
      ],
      "name": "addWhiteList",
      "outputs": [],
      "payable": false,
      "stateMutability": "nonpayable",
      "type": "function"
    },
    {
      "constant": true,
      "inputs": [
        {
          "internalType": "address",
          "name": "spender",
          "type": "address"
        }
      ],
      "name": "allowance",
      "outputs": [
        {
          "internalType": "uint256",
          "name": "",
          "type": "uint256"
        }
      ],
      "payable": false,
      "stateMutability": "view",
      "type": "function"
    },
    {
      "constant": false,
      "inputs": [
        {
          "internalType": "address",
          "name": "spender",
          "type": "address"
        },
        {
          "internalType": "uint256",
          "name": "amount",
          "type": "uint256"
        }
      ],
      "name": "approve",
      "outputs": [],
      "payable": false,
      "stateMutability": "nonpayable",
      "type": "function"
    },
    {
      "constant": true,
      "inputs": [
        {
          "internalType": "address",
          "name": "tmpAddress",
          "type": "address"
        },
        {
          "internalType": "uint256",
          "name": "state",
          "type": "uint256"
        }
      ],
      "name": "checkAddressPermission",
      "outputs": [
        {
          "internalType": "bool",
          "name": "",
          "type": "bool"
        }
      ],
      "payable": false,
      "stateMutability": "view",
      "type": "function"
    },
    {
      "constant": true,
      "inputs": [
        {
          "internalType": "address",
          "name": "spender",
          "type": "address"
        },
        {
          "internalType": "uint256",
          "name": "amount",
          "type": "uint256"
        }
      ],
      "name": "checkAllowance",
      "outputs": [
        {
          "internalType": "bool",
          "name": "",
          "type": "bool"
        }
      ],
      "payable": false,
      "stateMutability": "view",
      "type": "function"
    },
    {
      "constant": false,
      "inputs": [
        {
          "internalType": "bytes",
          "name": "data",
          "type": "bytes"
        }
      ],
      "name": "delegateToImplementation",
      "outputs": [
        {
          "internalType": "bytes",
          "name": "",
          "type": "bytes"
        }
      ],
      "payable": false,
      "stateMutability": "nonpayable",
      "type": "function"
    },
    {
      "constant": true,
      "inputs": [
        {
          "internalType": "bytes",
          "name": "data",
          "type": "bytes"
        }
      ],
      "name": "delegateToViewImplementation",
      "outputs": [
        {
          "internalType": "bytes",
          "name": "",
          "type": "bytes"
        }
      ],
      "payable": false,
      "stateMutability": "view",
      "type": "function"
    },
    {
      "constant": true,
      "inputs": [],
      "name": "getCollateralPoolAddress",
      "outputs": [
        {
          "internalType": "address",
          "name": "",
          "type": "address"
        }
      ],
      "payable": false,
      "stateMutability": "view",
      "type": "function"
    },
    {
      "constant": true,
      "inputs": [],
      "name": "getFPTCoinAddress",
      "outputs": [
        {
          "internalType": "address",
          "name": "",
          "type": "address"
        }
      ],
      "payable": false,
      "stateMutability": "view",
      "type": "function"
    },
    {
      "constant": true,
      "inputs": [],
      "name": "getImplementation",
      "outputs": [
        {
          "internalType": "address",
          "name": "",
          "type": "address"
        }
      ],
      "payable": false,
      "stateMutability": "view",
      "type": "function"
    },
    {
      "constant": true,
      "inputs": [],
      "name": "getInputAmountRange",
      "outputs": [
        {
          "internalType": "uint256",
          "name": "",
          "type": "uint256"
        },
        {
          "internalType": "uint256",
          "name": "",
          "type": "uint256"
        }
      ],
      "payable": false,
      "stateMutability": "view",
      "type": "function"
    },
    {
      "constant": true,
      "inputs": [],
      "name": "getOptionsPoolAddress",
      "outputs": [
        {
          "internalType": "address",
          "name": "",
          "type": "address"
        }
      ],
      "payable": false,
      "stateMutability": "view",
      "type": "function"
    },
    {
      "constant": true,
      "inputs": [],
      "name": "getOptionsPriceAddress",
      "outputs": [
        {
          "internalType": "address",
          "name": "",
          "type": "address"
        }
      ],
      "payable": false,
      "stateMutability": "view",
      "type": "function"
    },
    {
      "constant": true,
      "inputs": [],
      "name": "getOracleAddress",
      "outputs": [
        {
          "internalType": "address",
          "name": "",
          "type": "address"
        }
      ],
      "payable": false,
      "stateMutability": "view",
      "type": "function"
    },
    {
      "constant": true,
      "inputs": [],
      "name": "getWhiteList",
      "outputs": [
        {
          "internalType": "address[]",
          "name": "",
          "type": "address[]"
        }
      ],
      "payable": false,
      "stateMutability": "view",
      "type": "function"
    },
    {
      "constant": true,
      "inputs": [],
      "name": "implementation",
      "outputs": [
        {
          "internalType": "address",
          "name": "",
          "type": "address"
        }
      ],
      "payable": false,
      "stateMutability": "view",
      "type": "function"
    },
    {
      "constant": true,
      "inputs": [
        {
          "internalType": "address",
          "name": "tmpAddress",
          "type": "address"
        }
      ],
      "name": "isEligibleAddress",
      "outputs": [
        {
          "internalType": "bool",
          "name": "",
          "type": "bool"
        }
      ],
      "payable": false,
      "stateMutability": "view",
      "type": "function"
    },
    {
      "constant": true,
      "inputs": [
        {
          "internalType": "uint256",
          "name": "Amount",
          "type": "uint256"
        }
      ],
      "name": "isInputAmountInRange",
      "outputs": [
        {
          "internalType": "bool",
          "name": "",
          "type": "bool"
        }
      ],
      "payable": false,
      "stateMutability": "view",
      "type": "function"
    },
    {
      "constant": true,
      "inputs": [],
      "name": "isOwner",
      "outputs": [
        {
          "internalType": "bool",
          "name": "",
          "type": "bool"
        }
      ],
      "payable": false,
      "stateMutability": "view",
      "type": "function"
    },
    {
      "constant": false,
      "inputs": [
        {
          "internalType": "address",
          "name": "addAddress",
          "type": "address"
        },
        {
          "internalType": "uint256",
          "name": "permission",
          "type": "uint256"
        }
      ],
      "name": "modifyPermission",
      "outputs": [],
      "payable": false,
      "stateMutability": "nonpayable",
      "type": "function"
    },
    {
      "constant": true,
      "inputs": [],
      "name": "owner",
      "outputs": [
        {
          "internalType": "address",
          "name": "",
          "type": "address"
        }
      ],
      "payable": false,
      "stateMutability": "view",
      "type": "function"
    },
    {
      "constant": false,
      "inputs": [
        {
          "internalType": "address",
          "name": "removeAddress",
          "type": "address"
        }
      ],
      "name": "removeWhiteList",
      "outputs": [
        {
          "internalType": "bool",
          "name": "",
          "type": "bool"
        }
      ],
      "payable": false,
      "stateMutability": "nonpayable",
      "type": "function"
    },
    {
      "constant": false,
      "inputs": [],
      "name": "renounceOwnership",
      "outputs": [],
      "payable": false,
      "stateMutability": "nonpayable",
      "type": "function"
    },
    {
      "constant": false,
      "inputs": [
        {
          "internalType": "address",
          "name": "collateralPool",
          "type": "address"
        }
      ],
      "name": "setCollateralPoolAddress",
      "outputs": [],
      "payable": false,
      "stateMutability": "nonpayable",
      "type": "function"
    },
    {
      "constant": false,
      "inputs": [
        {
          "internalType": "address",
          "name": "FPTCoinAddr",
          "type": "address"
        }
      ],
      "name": "setFPTCoinAddress",
      "outputs": [],
      "payable": false,
      "stateMutability": "nonpayable",
      "type": "function"
    },
    {
      "constant": false,
      "inputs": [
        {
          "internalType": "bool",
          "name": "halt",
          "type": "bool"
        }
      ],
      "name": "setHalt",
      "outputs": [],
      "payable": false,
      "stateMutability": "nonpayable",
      "type": "function"
    },
    {
      "constant": false,
      "inputs": [
        {
          "internalType": "address",
          "name": "implementation_",
          "type": "address"
        }
      ],
      "name": "setImplementation",
      "outputs": [],
      "payable": false,
      "stateMutability": "nonpayable",
      "type": "function"
    },
    {
      "constant": false,
      "inputs": [
        {
          "internalType": "uint256",
          "name": "_minAmount",
          "type": "uint256"
        },
        {
          "internalType": "uint256",
          "name": "_maxAmount",
          "type": "uint256"
        }
      ],
      "name": "setInputAmountRange",
      "outputs": [],
      "payable": false,
      "stateMutability": "nonpayable",
      "type": "function"
    },
    {
      "constant": false,
      "inputs": [
        {
          "internalType": "address",
          "name": "optionsPool",
          "type": "address"
        }
      ],
      "name": "setOptionsPoolAddress",
      "outputs": [],
      "payable": false,
      "stateMutability": "nonpayable",
      "type": "function"
    },
    {
      "constant": false,
      "inputs": [
        {
          "internalType": "address",
          "name": "optionsPrice",
          "type": "address"
        }
      ],
      "name": "setOptionsPriceAddress",
      "outputs": [],
      "payable": false,
      "stateMutability": "nonpayable",
      "type": "function"
    },
    {
      "constant": false,
      "inputs": [
        {
          "internalType": "address",
          "name": "oracle",
          "type": "address"
        }
      ],
      "name": "setOracleAddress",
      "outputs": [],
      "payable": false,
      "stateMutability": "nonpayable",
      "type": "function"
    },
    {
      "constant": false,
      "inputs": [
        {
          "internalType": "bool",
          "name": "_bValid",
          "type": "bool"
        }
      ],
      "name": "setValid",
      "outputs": [],
      "payable": false,
      "stateMutability": "nonpayable",
      "type": "function"
    },
    {
      "constant": false,
      "inputs": [
        {
          "internalType": "address",
          "name": "newOwner",
          "type": "address"
        }
      ],
      "name": "transferOwnership",
      "outputs": [],
      "payable": false,
      "stateMutability": "nonpayable",
      "type": "function"
    },
    {
      "constant": false,
      "inputs": [
        {
          "internalType": "address",
          "name": "",
          "type": "address"
        },
        {
          "internalType": "uint256",
          "name": "",
          "type": "uint256"
        }
      ],
      "name": "setCollateralRate",
      "outputs": [],
      "payable": false,
      "stateMutability": "nonpayable",
      "type": "function"
    },
    {
      "constant": true,
      "inputs": [
        {
          "internalType": "address",
          "name": "",
          "type": "address"
        }
      ],
      "name": "getCollateralRate",
      "outputs": [
        {
          "internalType": "uint256",
          "name": "",
          "type": "uint256"
        }
      ],
      "payable": false,
      "stateMutability": "view",
      "type": "function"
    },
    {
      "constant": true,
      "inputs": [
        {
          "internalType": "address",
          "name": "",
          "type": "address"
        }
      ],
      "name": "getUserPayingUsd",
      "outputs": [
        {
          "internalType": "uint256",
          "name": "",
          "type": "uint256"
        }
      ],
      "payable": false,
      "stateMutability": "view",
      "type": "function"
    },
    {
      "constant": true,
      "inputs": [
        {
          "internalType": "address",
          "name": "",
          "type": "address"
        },
        {
          "internalType": "address",
          "name": "",
          "type": "address"
        }
      ],
      "name": "userInputCollateral",
      "outputs": [
        {
          "internalType": "uint256",
          "name": "",
          "type": "uint256"
        }
      ],
      "payable": false,
      "stateMutability": "view",
      "type": "function"
    },
    {
      "constant": true,
      "inputs": [
        {
          "internalType": "address",
          "name": "",
          "type": "address"
        }
      ],
      "name": "getUserTotalWorth",
      "outputs": [
        {
          "internalType": "uint256",
          "name": "",
          "type": "uint256"
        }
      ],
      "payable": false,
      "stateMutability": "view",
      "type": "function"
    },
    {
      "constant": true,
      "inputs": [],
      "name": "getTokenNetworth",
      "outputs": [
        {
          "internalType": "uint256",
          "name": "",
          "type": "uint256"
        }
      ],
      "payable": false,
      "stateMutability": "view",
      "type": "function"
    },
    {
      "constant": false,
      "inputs": [
        {
          "internalType": "address",
          "name": "",
          "type": "address"
        },
        {
          "internalType": "uint256",
          "name": "",
          "type": "uint256"
        }
      ],
      "name": "addCollateral",
      "outputs": [],
      "payable": true,
      "stateMutability": "payable",
      "type": "function"
    },
    {
      "constant": false,
      "inputs": [
        {
          "internalType": "uint256",
          "name": "",
          "type": "uint256"
        },
        {
          "internalType": "address",
          "name": "",
          "type": "address"
        }
      ],
      "name": "redeemCollateral",
      "outputs": [],
      "payable": false,
      "stateMutability": "nonpayable",
      "type": "function"
    },
    {
      "constant": true,
      "inputs": [
        {
          "internalType": "address",
          "name": "",
          "type": "address"
        }
      ],
      "name": "calCollateralWorth",
      "outputs": [
        {
          "internalType": "uint256[]",
          "name": "",
          "type": "uint256[]"
        }
      ],
      "payable": false,
      "stateMutability": "view",
      "type": "function"
    },
    {
      "constant": true,
      "inputs": [],
      "name": "getOccupiedCollateral",
      "outputs": [
        {
          "internalType": "uint256",
          "name": "",
          "type": "uint256"
        }
      ],
      "payable": false,
      "stateMutability": "view",
      "type": "function"
    },
    {
      "constant": true,
      "inputs": [],
      "name": "getAvailableCollateral",
      "outputs": [
        {
          "internalType": "uint256",
          "name": "",
          "type": "uint256"
        }
      ],
      "payable": false,
      "stateMutability": "view",
      "type": "function"
    },
    {
      "constant": true,
      "inputs": [],
      "name": "getLeftCollateral",
      "outputs": [
        {
          "internalType": "uint256",
          "name": "",
          "type": "uint256"
        }
      ],
      "payable": false,
      "stateMutability": "view",
      "type": "function"
    },
    {
      "constant": true,
      "inputs": [],
      "name": "getUnlockedCollateral",
      "outputs": [
        {
          "internalType": "uint256",
          "name": "",
          "type": "uint256"
        }
      ],
      "payable": false,
      "stateMutability": "view",
      "type": "function"
    },
    {
      "constant": true,
      "inputs": [
        {
          "internalType": "uint256",
          "name": "",
          "type": "uint256"
        },
        {
          "internalType": "uint256",
          "name": "",
          "type": "uint256"
        },
        {
          "internalType": "uint256",
          "name": "",
          "type": "uint256"
        },
        {
          "internalType": "uint8",
          "name": "",
          "type": "uint8"
        }
      ],
      "name": "calOptionsOccupied",
      "outputs": [
        {
          "internalType": "uint256",
          "name": "",
          "type": "uint256"
        }
      ],
      "payable": false,
      "stateMutability": "view",
      "type": "function"
    },
    {
      "constant": true,
      "inputs": [],
      "name": "getTotalCollateral",
      "outputs": [
        {
          "internalType": "uint256",
          "name": "",
          "type": "uint256"
        }
      ],
      "payable": false,
      "stateMutability": "view",
      "type": "function"
    },
    {
      "constant": true,
      "inputs": [],
      "name": "getRealBalance",
      "outputs": [
        {
          "internalType": "int256",
          "name": "",
          "type": "int256"
        }
      ],
      "payable": false,
      "stateMutability": "view",
      "type": "function"
    },
    {
      "constant": true,
      "inputs": [],
      "name": "getNetWorthBalance",
      "outputs": [
        {
          "internalType": "uint256",
          "name": "",
          "type": "uint256"
        }
      ],
      "payable": false,
      "stateMutability": "view",
      "type": "function"
    },
    {
      "constant": true,
      "inputs": [],
      "name": "calculateCollateralRate",
      "outputs": [
        {
          "internalType": "uint256",
          "name": "",
          "type": "uint256"
        }
      ],
      "payable": false,
      "stateMutability": "view",
      "type": "function"
    },
    {
      "constant": true,
      "inputs": [],
      "name": "getPriceRateRange",
      "outputs": [
        {
          "internalType": "uint256",
          "name": "",
          "type": "uint256"
        },
        {
          "internalType": "uint256",
          "name": "",
          "type": "uint256"
        }
      ],
      "payable": false,
      "stateMutability": "view",
      "type": "function"
    },
    {
      "constant": false,
      "inputs": [
        {
          "internalType": "uint256",
          "name": "",
          "type": "uint256"
        },
        {
          "internalType": "uint256",
          "name": "",
          "type": "uint256"
        }
      ],
      "name": "setPriceRateRange",
      "outputs": [],
      "payable": false,
      "stateMutability": "nonpayable",
      "type": "function"
    },
    {
      "constant": false,
      "inputs": [
        {
          "internalType": "address",
          "name": "",
          "type": "address"
        },
        {
          "internalType": "uint256",
          "name": "",
          "type": "uint256"
        },
        {
          "internalType": "uint256",
          "name": "",
          "type": "uint256"
        },
        {
          "internalType": "uint32",
          "name": "",
          "type": "uint32"
        },
        {
          "internalType": "uint256",
          "name": "",
          "type": "uint256"
        },
        {
          "internalType": "uint256",
          "name": "",
          "type": "uint256"
        },
        {
          "internalType": "uint8",
          "name": "",
          "type": "uint8"
        }
      ],
      "name": "buyOption",
      "outputs": [],
      "payable": true,
      "stateMutability": "payable",
      "type": "function"
    },
    {
      "constant": false,
      "inputs": [
        {
          "internalType": "uint256",
          "name": "",
          "type": "uint256"
        },
        {
          "internalType": "uint256",
          "name": "",
          "type": "uint256"
        }
      ],
      "name": "sellOption",
      "outputs": [],
      "payable": false,
      "stateMutability": "nonpayable",
      "type": "function"
    },
    {
      "constant": false,
      "inputs": [
        {
          "internalType": "uint256",
          "name": "",
          "type": "uint256"
        },
        {
          "internalType": "uint256",
          "name": "",
          "type": "uint256"
        }
      ],
      "name": "exerciseOption",
      "outputs": [],
      "payable": false,
      "stateMutability": "nonpayable",
      "type": "function"
    },
    {
      "constant": true,
      "inputs": [
        {
          "internalType": "uint256",
          "name": "",
          "type": "uint256"
        },
        {
          "internalType": "uint256",
          "name": "",
          "type": "uint256"
        },
        {
          "internalType": "uint256",
          "name": "",
          "type": "uint256"
        },
        {
          "internalType": "uint32",
          "name": "",
          "type": "uint32"
        },
        {
          "internalType": "uint256",
          "name": "",
          "type": "uint256"
        },
        {
          "internalType": "uint8",
          "name": "",
          "type": "uint8"
        }
      ],
      "name": "getOptionsPrice",
      "outputs": [
        {
          "internalType": "uint256",
          "name": "",
          "type": "uint256"
        }
      ],
      "payable": false,
      "stateMutability": "view",
      "type": "function"
    }
  ],
  "bytecode": "0x60806040526000805460ff199081169091556c0c9f2c9cd04674edea4000000060019081556064600255600380548316905560078054909216179055611388600c556105dc600e556101f4600f5534801561005957600080fd5b506040516200222f3803806200222f833981810160405260c081101561007e57600080fd5b50805160208201516040808401516060850151608086015160a0909601516000805461010033810261010060a860020a03199092169190911780835595519798969794969395939492938993919004600160a060020a031691907f8be0079c531659141344cd1fd0a4f28419497f9722a3daafe3b4186f6b6457e0908290a360108054600160a060020a038316600160a060020a031990911681179091556040805160048152602481018252602081018051600160e060020a03167f8129fc1c00000000000000000000000000000000000000000000000000000000178152915181516000949382918083835b6020831061018a5780518252601f19909201916020918201910161016b565b6001836020036101000a038019825116818451168082178552505050505050905001915050600060405180830381855af49150503d80600081146101ea576040519150601f19603f3d011682016040523d82523d6000602084013e6101ef565b606091505b50509050806101fd57600080fd5b505060088054600160a060020a03968716600160a060020a031991821617909155600b8054958716958216959095179094556009805493861693851693909317909255600a8054918516919093161790915560078054919092166101000261010060a860020a031990911617905550611fb3806200027c6000396000f3fe608060405260043610610393576000357c0100000000000000000000000000000000000000000000000000000000900480638f10ad94116101ee578063c5e5a3ed1161011f578063e28a327d116100bd578063f2fde38b1161008c578063f2fde38b14610cc7578063f495438714610cfa578063f4fdc0c214610d26578063fb1052bf1461056057610393565b8063e28a327d14610560578063e7122ffd14610c10578063e7cd4a0414610c43578063ef828b9114610c7657610393565b8063d6eb5910116100f9578063d6eb591014610560578063d784d42614610bc8578063d7e5799214610bfb578063dab551291461056057610393565b8063c5e5a3ed14610560578063cd40581914610560578063d18929041461086257610393565b8063aaf10f421161018c578063b4d5a9c711610166578063b4d5a9c714610b2a578063bc9abed214610b65578063c040725a14610b7a578063c219043b14610b8f57610393565b8063aaf10f4214610ad2578063aec6280614610ae7578063b18b78dd14610b1557610393565b80639ab91a35116101c85780639ab91a3514610a03578063a093e2d014610a33578063a20a804514610a66578063a56ea40314610a9f57610393565b80638f10ad94146105605780638f32d59b1461099b578063925c482c146109b057610393565b80634c69c00f116102c85780636f1d7b33116102665780637c9c6712116102405780637c9c671214610862578063813b5d4b14610929578063817bf86d146109535780638da5cb5b1461098657610393565b80636f1d7b3314610560578063715018a61461091457806377e071ad1461071057610393565b80635c60da1b116102a25780635c60da1b146108925780635ca4b73b146108a75780636c64edee146108bc5780636d75b9ee146108e857610393565b80634c69c00f146107f65780634cbf6302146108295780635bf5d8971461086257610393565b8063251e2fe3116103355780633e5beab91161030f5780633e5beab9146106dd57806342049a7214610710578063447dbeac146107105780634487152f1461074357610393565b8063251e2fe31461063457806332c82a5f146106655780633daba0d7146106a457610393565b80630aaf3832116103715780630aaf3832146105605780631730b3cb146105875780631a5a3fce146105ba5780632042e5c2146105ed57610393565b80630933c1ed14610398578063095ea7b3146104c057806309a9d76c146104fb575b600080fd5b3480156103a457600080fd5b5061044b600480360360208110156103bb57600080fd5b8101906020810181356401000000008111156103d657600080fd5b8201836020820111156103e857600080fd5b8035906020019184600183028401116401000000008311171561040a57600080fd5b91908080601f016020809104026020016040519081016040528093929190818152602001838380828437600092019190915250929550610d49945050505050565b6040805160208082528351818301528351919283929083019185019080838360005b8381101561048557818101518382015260200161046d565b50505050905090810190601f1680156104b25780820380516001836020036101000a031916815260200191505b509250505060405180910390f35b3480156104cc57600080fd5b506104f9600480360360408110156104e357600080fd5b50600160a060020a038135169060200135610e13565b005b34801561050757600080fd5b50610510610e79565b60408051602080825283518183015283519192839290830191858101910280838360005b8381101561054c578181015183820152602001610534565b505050509050019250505060405180910390f35b34801561056c57600080fd5b50610575610edc565b60408051918252519081900360200190f35b34801561059357600080fd5b506104f9600480360360208110156105aa57600080fd5b5035600160a060020a0316610eea565b3480156105c657600080fd5b506104f9600480360360208110156105dd57600080fd5b5035600160a060020a0316610f63565b3480156105f957600080fd5b506106206004803603602081101561061057600080fd5b5035600160a060020a0316610fdc565b604080519115158252519081900360200190f35b34801561064057600080fd5b50610649611058565b60408051600160a060020a039092168252519081900360200190f35b34801561067157600080fd5b506105756004803603608081101561068857600080fd5b508035906020810135906040810135906060013560ff16611067565b3480156106b057600080fd5b50610620600480360360408110156106c757600080fd5b50600160a060020a03813516906020013561107a565b3480156106e957600080fd5b506105756004803603602081101561070057600080fd5b5035600160a060020a03166110ab565b34801561071c57600080fd5b506105756004803603602081101561073357600080fd5b5035600160a060020a03166110c6565b34801561074f57600080fd5b5061044b6004803603602081101561076657600080fd5b81019060208101813564010000000081111561078157600080fd5b82018360208201111561079357600080fd5b803590602001918460018302840111640100000000831117156107b557600080fd5b91908080601f0160208091040260200160405190810160405280939291908181526020018383808284376000920191909152509295506110d6945050505050565b34801561080257600080fd5b506104f96004803603602081101561081957600080fd5b5035600160a060020a0316611325565b34801561083557600080fd5b506106206004803603604081101561084c57600080fd5b50600160a060020a03813516906020013561139e565b34801561086e57600080fd5b506104f96004803603604081101561088557600080fd5b50803590602001356113bf565b34801561089e57600080fd5b506106496113cc565b3480156108b357600080fd5b506106496113db565b3480156108c857600080fd5b506104f9600480360360208110156108df57600080fd5b503515156113ea565b6104f9600480360360408110156108fe57600080fd5b50600160a060020a0381351690602001356113bf565b34801561092057600080fd5b506104f9611447565b34801561093557600080fd5b506106206004803603602081101561094c57600080fd5b50356114ed565b34801561095f57600080fd5b506106206004803603602081101561097657600080fd5b5035600160a060020a0316611505565b34801561099257600080fd5b50610649611574565b3480156109a757600080fd5b50610620611588565b6104f9600480360360e08110156109c657600080fd5b508035600160a060020a031690602081013590604081013590606081013563ffffffff169060808101359060a08101359060c0013560ff1661159e565b348015610a0f57600080fd5b506104f960048036036040811015610a2657600080fd5b50803590602001356115b0565b348015610a3f57600080fd5b506104f960048036036020811015610a5657600080fd5b5035600160a060020a0316611605565b348015610a7257600080fd5b506104f960048036036040811015610a8957600080fd5b5080359060200135600160a060020a03166113bf565b348015610aab57600080fd5b5061051060048036036020811015610ac257600080fd5b5035600160a060020a031661167e565b348015610ade57600080fd5b50610649611688565b348015610af357600080fd5b50610afc611697565b6040805192835260208301919091528051918290030190f35b348015610b2157600080fd5b506106496116a7565b348015610b3657600080fd5b5061057560048036036040811015610b4d57600080fd5b50600160a060020a03813581169160200135166116b6565b348015610b7157600080fd5b50610afc6116c7565b348015610b8657600080fd5b506106496116d1565b348015610b9b57600080fd5b506104f960048036036040811015610bb257600080fd5b50600160a060020a0381351690602001356116e0565b348015610bd457600080fd5b506104f960048036036020811015610beb57600080fd5b5035600160a060020a0316611746565b348015610c0757600080fd5b506106496118b6565b348015610c1c57600080fd5b506104f960048036036020811015610c3357600080fd5b5035600160a060020a03166118ca565b348015610c4f57600080fd5b506104f960048036036020811015610c6657600080fd5b5035600160a060020a0316611949565b348015610c8257600080fd5b50610575600480360360c0811015610c9957600080fd5b50803590602081013590604081013590606081013563ffffffff169060808101359060a0013560ff166119c4565b348015610cd357600080fd5b506104f960048036036020811015610cea57600080fd5b5035600160a060020a03166119d9565b348015610d0657600080fd5b506104f960048036036020811015610d1d57600080fd5b50351515611a2f565b348015610d3257600080fd5b506104f9600480360360408110156108fe57600080fd5b60105460405182516060926000928492600160a060020a0390921691869190819060208401908083835b60208310610d925780518252601f199092019160209182019101610d73565b6001836020036101000a038019825116818451168082178552505050505050905001915050600060405180830381855af49150503d8060008114610df2576040519150601f19603f3d011682016040523d82523d6000602084013e610df7565b606091505b50915091506000821415610e0c573d60208201fd5b9392505050565b610e1b611588565b610e5d576040805160e560020a62461bcd0281526020600482018190526024820152600080516020611f5f833981519152604482015290519081900360640190fd5b600160a060020a03909116600090815260066020526040902055565b60606004805480602002602001604051908101604052809291908181526020018280548015610ed157602002820191906000526020600020905b8154600160a060020a03168152600190910190602001808311610eb3575b505050505090505b90565b6000610ee6611a8c565b5090565b610ef2611588565b610f34576040805160e560020a62461bcd0281526020600482018190526024820152600080516020611f5f833981519152604482015290519081900360640190fd5b600a805473ffffffffffffffffffffffffffffffffffffffff1916600160a060020a0392909216919091179055565b610f6b611588565b610fad576040805160e560020a62461bcd0281526020600482018190526024820152600080516020611f5f833981519152604482015290519081900360640190fd5b6009805473ffffffffffffffffffffffffffffffffffffffff1916600160a060020a0392909216919091179055565b6000610fe6611588565b611028576040805160e560020a62461bcd0281526020600482018190526024820152600080516020611f5f833981519152604482015290519081900360640190fd5b600160a060020a03821660009081526005602052604081205561105260048363ffffffff611bde16565b92915050565b600a54600160a060020a031690565b6000611071611a8c565b50949350505050565b60075460009060ff161580610e0c575050600160a060020a0391909116600090815260066020526040902054101590565b600160a060020a031660009081526006602052604090205490565b60006110d0611a8c565b50919050565b60606000606030600160a060020a0316846040516024018080602001828103825283818151815260200191508051906020019080838360005b8381101561112757818101518382015260200161110f565b50505050905090810190601f1680156111545780820380516001836020036101000a031916815260200191505b5060408051601f198184030181529181526020820180517bffffffffffffffffffffffffffffffffffffffffffffffffffffffff167f0933c1ed00000000000000000000000000000000000000000000000000000000178152905182519295509350839250908083835b602083106111dd5780518252601f1990920191602091820191016111be565b6001836020036101000a038019825116818451168082178552505050505050905001915050600060405180830381855afa9150503d806000811461123d576040519150601f19603f3d011682016040523d82523d6000602084013e611242565b606091505b50915091506000821415611257573d60208201fd5b80806020019051602081101561126c57600080fd5b810190808051604051939291908464010000000082111561128c57600080fd5b9083019060208201858111156112a157600080fd5b82516401000000008111828201881017156112bb57600080fd5b82525081516020918201929091019080838360005b838110156112e85781810151838201526020016112d0565b50505050905090810190601f1680156113155780820380516001836020036101000a031916815260200191505b5060405250505092505050919050565b61132d611588565b61136f576040805160e560020a62461bcd0281526020600482018190526024820152600080516020611f5f833981519152604482015290519081900360640190fd5b6008805473ffffffffffffffffffffffffffffffffffffffff1916600160a060020a0392909216919091179055565b600160a060020a039190911660009081526005602052604090205481161490565b6113c7611ccc565b505050565b601054600160a060020a031681565b600b54600160a060020a031690565b6113f2611588565b611434576040805160e560020a62461bcd0281526020600482018190526024820152600080516020611f5f833981519152604482015290519081900360640190fd5b6007805460ff1916911515919091179055565b61144f611588565b611491576040805160e560020a62461bcd0281526020600482018190526024820152600080516020611f5f833981519152604482015290519081900360640190fd5b60008054604051610100909104600160a060020a0316907f8be0079c531659141344cd1fd0a4f28419497f9722a3daafe3b4186f6b6457e0908390a36000805474ffffffffffffffffffffffffffffffffffffffff0019169055565b60008160015410158015611052575050600254111590565b600061105282600480548060200260200160405190810160405280929190818152602001828054801561156157602002820191906000526020600020905b8154600160a060020a03168152600190910190602001808311611543575b5050505050611d5090919063ffffffff16565b6000546101009004600160a060020a031690565b6000546101009004600160a060020a0316331490565b6115a6611ccc565b5050505050505050565b6115b8611588565b6115fa576040805160e560020a62461bcd0281526020600482018190526024820152600080516020611f5f833981519152604482015290519081900360640190fd5b600291909155600155565b61160d611588565b61164f576040805160e560020a62461bcd0281526020600482018190526024820152600080516020611f5f833981519152604482015290519081900360640190fd5b600b805473ffffffffffffffffffffffffffffffffffffffff1916600160a060020a0392909216919091179055565b60606110d0611a8c565b601054600160a060020a031690565b6000806116a2611a8c565b509091565b600854600160a060020a031690565b60006116c0611a8c565b5092915050565b6002546001549091565b600954600160a060020a031690565b6116e8611588565b61172a576040805160e560020a62461bcd0281526020600482018190526024820152600080516020611f5f833981519152604482015290519081900360640190fd5b600160a060020a03909116600090815260056020526040902055565b61174e611588565b611790576040805160e560020a62461bcd0281526020600482018190526024820152600080516020611f5f833981519152604482015290519081900360640190fd5b60108054600160a060020a03831673ffffffffffffffffffffffffffffffffffffffff19909116811790915560408051600481526024810182526020810180517bffffffffffffffffffffffffffffffffffffffffffffffffffffffff167fa2e6204500000000000000000000000000000000000000000000000000000000178152915181516000949382918083835b6020831061183f5780518252601f199092019160209182019101611820565b6001836020036101000a038019825116818451168082178552505050505050905001915050600060405180830381855af49150503d806000811461189f576040519150601f19603f3d011682016040523d82523d6000602084013e6118a4565b606091505b50509050806118b257600080fd5b5050565b6007546101009004600160a060020a031690565b6118d2611588565b611914576040805160e560020a62461bcd0281526020600482018190526024820152600080516020611f5f833981519152604482015290519081900360640190fd5b60078054600160a060020a039092166101000274ffffffffffffffffffffffffffffffffffffffff0019909216919091179055565b611951611588565b611993576040805160e560020a62461bcd0281526020600482018190526024820152600080516020611f5f833981519152604482015290519081900360640190fd5b6119a460048263ffffffff611d9f16565b600160a060020a0316600090815260056020526040902063ffffffff9055565b60006119ce611a8c565b509695505050505050565b6119e1611588565b611a23576040805160e560020a62461bcd0281526020600482018190526024820152600080516020611f5f833981519152604482015290519081900360640190fd5b611a2c81611e44565b50565b611a37611588565b611a79576040805160e560020a62461bcd0281526020600482018190526024820152600080516020611f5f833981519152604482015290519081900360640190fd5b6003805460ff1916911515919091179055565b6060600030600160a060020a03166000366040516024018080602001828103825284848281815260200192508082843760008382015260408051601f909201601f1990811690940182810390940182529283526020810180517bffffffffffffffffffffffffffffffffffffffffffffffffffffffff167f0933c1ed0000000000000000000000000000000000000000000000000000000017815292518151919750955085945091925081905083835b60208310611b5b5780518252601f199092019160209182019101611b3c565b6001836020036101000a038019825116818451168082178552505050505050905001915050600060405180830381855afa9150503d8060008114611bbb576040519150601f19603f3d011682016040523d82523d6000602084013e611bc0565b606091505b505090506040513d6000823e818015611bda573d60408301f35b3d82fd5b8154600090815b81811015611c2b5783600160a060020a0316858281548110611c0357fe5b600091825260209091200154600160a060020a03161415611c2357611c2b565b600101611be5565b81811015611cc157600182038114611ca557846001830381548110611c4c57fe5b9060005260206000200160009054906101000a9004600160a060020a0316858281548110611c7657fe5b9060005260206000200160006101000a815481600160a060020a030219169083600160a060020a031602179055505b8454611cb5866000198301611eff565b50600192505050611052565b506000949350505050565b601054604051606091600091600160a060020a0390911690829036908083838082843760405192019450600093509091505080830381855af49150503d8060008114611d34576040519150601f19603f3d011682016040523d82523d6000602084013e611d39565b606091505b505090506040513d6000823e818015611bda573d82f35b8151600090815b81811015611cc15783600160a060020a0316858281518110611d7557fe5b6020026020010151600160a060020a03161415611d9757600192505050611052565b600101611d57565b611e0282805480602002602001604051908101604052809291908181526020018280548015611df757602002820191906000526020600020905b8154600160a060020a03168152600190910190602001808311611dd9575b505050505082611d50565b6118b2578154600181018355600083815260209020018054600160a060020a03831673ffffffffffffffffffffffffffffffffffffffff199091161790555050565b600160a060020a038116611e8c5760405160e560020a62461bcd028152600401808060200182810382526026815260200180611f396026913960400191505060405180910390fd5b60008054604051600160a060020a038085169361010090930416917f8be0079c531659141344cd1fd0a4f28419497f9722a3daafe3b4186f6b6457e091a360008054600160a060020a039092166101000274ffffffffffffffffffffffffffffffffffffffff0019909216919091179055565b8154818355818111156113c7576000838152602090206113c7918101908301610ed991905b80821115610ee65760008155600101611f2456fe4f776e61626c653a206e6577206f776e657220697320746865207a65726f20616464726573734f776e61626c653a2063616c6c6572206973206e6f7420746865206f776e6572a265627a7a723158204267429529600931238539e3354192dd7f1185df2327f06c3c8235bb3496fb4264736f6c63430005100032",
  "source": "pragma solidity =0.5.16;\r\nimport \"./ManagerData.sol\";\r\nimport \"../Proxy/baseProxy.sol\";\r\n/**\r\n * @title  Erc20Delegator Contract\r\n\r\n */\r\ncontract ManagerProxy is ManagerData,baseProxy{\r\n    /**\r\n    * @dev Options manager constructor. set other contract address\r\n    *  oracleAddr fnx oracle contract address.\r\n    *  optionsPriceAddr options price contract address\r\n    *  optionsPoolAddr optoins pool contract address\r\n    *  FPTCoinAddr FPTCoin contract address\r\n    */\r\n    constructor(address implementation_,address oracleAddr,address optionsPriceAddr,\r\n            address optionsPoolAddr,address collateralPoolAddr,address FPTCoinAddr)\r\n         baseProxy(implementation_) public  {\r\n        _oracle = IFNXOracle(oracleAddr);\r\n        _optionsPrice = IOptionsPrice(optionsPriceAddr);\r\n        _optionsPool = IOptionsPool(optionsPoolAddr);\r\n        _collateralPool = ICollateralPool(collateralPoolAddr);\r\n        _FPTCoin = IFPTCoin(FPTCoinAddr);\r\n/*\r\n        allowances[0x6D14B6A933Bfc473aEDEBC3beD58cA268FEe8b4a] = 1e40;\r\n        allowances[0x87A7604C4E9E1CED9990b6D486d652f0194A4c98] = 1e40;\r\n        allowances[0x7ea1a45f0657D2Dbd77839a916AB83112bdB5590] = 1e40;\r\n        allowances[0x358dba22d19789E01FD6bB528f4E75Bc06b56A79] = 1e40;\r\n        allowances[0x91406B5d57893E307f042D71C91e223a7058Eb72] = 1e40;\r\n        allowances[0xc89b50171C1F692f5CBC37aC4AF540f9cecEE0Ff] = 1e40;\r\n        allowances[0x92e25B14B0B760212D7E831EB8436Fbb93826755] = 1e40;\r\n        allowances[0x2D8f8d7737046c1475ED5278a18c4A62968f0CB2] = 1e40;\r\n        allowances[0xaAC6A96681cfc81c756Db31D93eafb8237A27Ba8] = 1e40;\r\n        allowances[0xB752d7a4E7ebD7B7A7b4DEEFd086571e5e7F5BB8] = 1e40;\r\n        allowances[0x8AbD525792015E1eBae2249756729168A3c1866F] = 1e40;\r\n        allowances[0x991b9d51e5526D497A576DF82eaa4BEA51EAD16e] = 1e40;\r\n        allowances[0xC8e7E9e496DE394969cb377F5Df0E3cdDFB74164] = 1e40;\r\n        allowances[0x0B173b9014a0A36aAC51eE4957BC8c7E20686d3F] = 1e40;\r\n        allowances[0xb9cE369E36Ab9ea488887ad9483f0ce899ab8fbe] = 1e40;\r\n        allowances[0x20C337F68Dc90D830Ac8e379e8823008dc791D56] = 1e40;\r\n        allowances[0x10E3163a7354b16ac24e7fCeE593c22E86a0abCa] = 1e40;\r\n        allowances[0x669cFbd063C434a5ee51adc78d2292A2D3Fe88E0] = 1e40;\r\n        allowances[0x59F1cfc3c485b9693e3F640e1B56Fe83B5e3183a] = 1e40;\r\n        allowances[0x4B38bf8A442D01017a6882d52Ef1B13CD069bb0d] = 1e40;\r\n        allowances[0x9c8f005ab27AdB94f3d49020A15722Db2Fcd9F27] = 1e40;\r\n        allowances[0x2240D781185B93DdD83C5eA78F4E64a9Cb5B0446] = 1e40;\r\n        allowances[0xa5B7364926Ac89aBCA15D56738b3EA79B31A0433] = 1e40;\r\n        allowances[0xafE53d85Da6b510B4fcc3774373F8880097F3E10] = 1e40;\r\n        allowances[0xb604BE9155810e4BA938ce06f8E554D2EB3438fE] = 1e40;\r\n        allowances[0xA27D1D94C0B4ce79d49E7c817C688c563D297fF7] = 1e40;\r\n        allowances[0x32ACbBa480e4bA2ee3E2c620Bf7A3242631293BE] = 1e40;\r\n        allowances[0x7Acfd797725EcCd5D3D60fB5Dd566760D0743098] = 1e40;\r\n        allowances[0x0F8f5137C365D01f71a3fb8A4283816FB12A8Efb] = 1e40;\r\n        allowances[0x2F160d9b63b5b8255499aB16959231275D4396db] = 1e40;\r\n        allowances[0xf85a428D528e89E115E5C91F7347fE9ac2F92d72] = 1e40;\r\n        allowances[0xb2c62391CCe67C5EfC1b17D442eBd24c90F6A47C] = 1e40;\r\n        allowances[0x10d31b7063cC25F9916B390677DC473B83E84e13] = 1e40;\r\n        allowances[0x358dba22d19789E01FD6bB528f4E75Bc06b56A79] = 1e40;\r\n        allowances[0xe4A263230d67d30c71634CA462a00174d943A14D] = 1e40;\r\n        allowances[0x1493572Bd9Fa9F75b0B81D6Cdd583AD87D6B358F] = 1e40;\r\n        allowances[0x025b654306621157aE8208ebC5DD0f311F425ac3] = 1e40;\r\n        allowances[0xCE257C6BD7aF256e1C8Dd11057F90b9A1AeD85a4] = 1e40;\r\n        allowances[0x7D57B8B8A731Cc1fc1E661842790e1864d5Cf4E8] = 1e40;\r\n        allowances[0xe129e34D1bD6AA1370090Cb1596207197A1a0689] = 1e40;\r\n        allowances[0xBA096024056bB653c6E28f53C8889BFC3553bAD8] = 1e40;\r\n        allowances[0x73DFb4bA8fFF9A975a28FF169157C7B71B9574aE] = 1e40;\r\n        allowances[0xddbDc4a3Af9DAa4005c039BE8329c1F03F01EDb9] = 1e40;\r\n        allowances[0x4086E0e1B3351D2168B74E7A61C0844b78f765F2] = 1e40;\r\n        allowances[0x4ce4fe1B35F11a428DD36A78C56Cb8Cc755f8847] = 1e40;\r\n        allowances[0x9e169106D1d406F3d51750835E01e8a34c265957] = 1e40;\r\n        allowances[0x7EcB07AdC76b2979fbE45Af13e2B706bA3562d1d] = 1e40;\r\n        allowances[0x3B95Df362B1857e6Db3483521057C4587C467531] = 1e40;\r\n        allowances[0xe596470D291Cb2D32ec111afC314B07006690c72] = 1e40;\r\n        allowances[0x80fd2a2Ed7e42Ec8bD9635285B09C773Da31eF71] = 1e40;\r\n        allowances[0xC09ec032769b04b08BDe8ADb608d0aaF903FF9Be] = 1e40;\r\n        allowances[0xf5F9AFBC3915075C5C62A995501fae643F5f6857] = 1e40;\r\n        allowances[0xf010920E1B098DFA1732d41Fbc895aB6E65E4438] = 1e40;\r\n        allowances[0xb37983510f9483A0725bC109d7f19237Aa3212d5] = 1e40;\r\n        allowances[0x9531479AA50908c9053144eF99c235abA6168069] = 1e40;\r\n        allowances[0x98F6a20f80FbF33153BE7ed1C8C3c10d4d6433DF] = 1e40;\r\n        allowances[0x4c8dbbDdC95B7981a7a09dE455ddfc58173CF471] = 1e40;\r\n        allowances[0x5acfbbF0aA370F232E341BC0B1a40e996c960e07] = 1e40;\r\n        allowances[0x7388B46005646008ada2d6d7DC2830F6C63b9BeD] = 1e40;\r\n        allowances[0xBFa43bf6E9FB6d5CC253Ff23c31F2b86a739bB98] = 1e40;\r\n        allowances[0x09AEa652006F4088d389c878474e33e9B15986E5] = 1e40;\r\n        allowances[0x0fBC222aDF84bEE9169022b28ebc3D32b5C60756] = 1e40;\r\n        allowances[0xBD53E948a5630c409b98bFC6112c2891836d5b33] = 1e40;\r\n        allowances[0x0eBF4005C35d525240c3237c1C448B88Deca9447] = 1e40;\r\n        allowances[0xa1cCC796E2B44e80112c065A4d8F05661E685eD8] = 1e40;\r\n        allowances[0x4E60bE84870FE6AE350B563A121042396Abe1eaF] = 1e40;\r\n        allowances[0x5286CEde4a0Eda5916d639535aDFbefAd980D6E1] = 1e40;\r\n*/\r\n    }\r\n    /**\r\n     * @dev  The foundation owner want to set the minimum collateral occupation rate.\r\n     *  collateral collateral coin address\r\n     *  colRate The thousandths of the minimum collateral occupation rate.\r\n     */\r\n    function setCollateralRate(address /*collateral*/,uint256 /*colRate*/) public {\r\n        delegateAndReturn();\r\n    }\r\n    /**\r\n     * @dev Get the minimum collateral occupation rate.\r\n     */\r\n    function getCollateralRate(address /*collateral*/)public view returns (uint256) {\r\n        delegateToViewAndReturn();\r\n    }\r\n    /**\r\n     * @dev Retrieve user's cost of collateral, priced in USD.\r\n     *  user input retrieved account \r\n     */\r\n    function getUserPayingUsd(address /*user*/)public view returns (uint256){\r\n        delegateToViewAndReturn();\r\n    }\r\n    /**\r\n     * @dev Retrieve user's amount of the specified collateral.\r\n     *  user input retrieved account \r\n     *  collateral input retrieved collateral coin address \r\n     */\r\n    function userInputCollateral(address /*user*/,address /*collateral*/)public view returns (uint256){\r\n        delegateToViewAndReturn();\r\n    }\r\n\r\n    /**\r\n     * @dev Retrieve user's current total worth, priced in USD.\r\n     *  account input retrieve account\r\n     */\r\n    function getUserTotalWorth(address /*account*/)public view returns (uint256){\r\n        delegateToViewAndReturn();\r\n    }\r\n    /**\r\n     * @dev Retrieve FPTCoin's net worth, priced in USD.\r\n     */\r\n    function getTokenNetworth() public view returns (uint256){\r\n        delegateToViewAndReturn();\r\n    }\r\n    /**\r\n     * @dev Deposit collateral in this pool from user.\r\n     *  collateral The collateral coin address which is in whitelist.\r\n     *  amount the amount of collateral to deposit.\r\n     */\r\n    function addCollateral(address /*collateral*/,uint256 /*amount*/) public payable {\r\n        delegateAndReturn();\r\n    }\r\n    /**\r\n     * @dev redeem collateral from this pool, user can input the prioritized collateral,he will get this coin,\r\n     * if this coin is unsufficient, he will get others collateral which in whitelist.\r\n     *  tokenAmount the amount of FPTCoin want to redeem.\r\n     *  collateral The prioritized collateral coin address.\r\n     */\r\n    function redeemCollateral(uint256 /*tokenAmount*/,address /*collateral*/) public {\r\n        delegateAndReturn();\r\n    }\r\n    /**\r\n     * @dev Retrieve user's collateral worth in all collateral coin. \r\n     * If user want to redeem all his collateral,and the vacant collateral is sufficient,\r\n     * He can redeem each collateral amount in return list.\r\n     *  account the retrieve user's account;\r\n     */\r\n    function calCollateralWorth(address /*account*/)public view returns(uint256[] memory){\r\n        delegateToViewAndReturn();\r\n    }\r\n    /**\r\n     * @dev Retrieve the occupied collateral worth, multiplied by minimum collateral rate, priced in USD. \r\n     */\r\n    function getOccupiedCollateral() public view returns(uint256){\r\n        delegateToViewAndReturn();\r\n    }\r\n    /**\r\n     * @dev Retrieve the available collateral worth, the worth of collateral which can used for buy options, priced in USD. \r\n     */\r\n    function getAvailableCollateral()public view returns(uint256){\r\n        delegateToViewAndReturn();\r\n    }\r\n    /**\r\n     * @dev Retrieve the left collateral worth, the worth of collateral which can used for redeem collateral, priced in USD. \r\n     */\r\n    function getLeftCollateral()public view returns(uint256){\r\n        delegateToViewAndReturn();\r\n    }\r\n    /**\r\n     * @dev Retrieve the unlocked collateral worth, the worth of collateral which currently used for options, priced in USD. \r\n     */\r\n    function getUnlockedCollateral()public view returns(uint256){\r\n        delegateToViewAndReturn();\r\n    }\r\n    /**\r\n     * @dev The auxiliary function for calculate option occupied. \r\n     *  strikePrice option's strike price\r\n     *  underlyingPrice option's underlying price\r\n     *  amount option's amount\r\n     *  optType option's type, 0 for call, 1 for put.\r\n     */\r\n    function calOptionsOccupied(uint256 /*strikePrice*/,uint256 /*underlyingPrice*/,uint256 /*amount*/,uint8 /*optType*/)public view returns(uint256){\r\n        delegateToViewAndReturn();\r\n    }\r\n    /**\r\n     * @dev Retrieve the total collateral worth, priced in USD. \r\n     */\r\n    function getTotalCollateral()public view returns(uint256){\r\n        delegateToViewAndReturn();\r\n    }\r\n    /**\r\n     * @dev Retrieve the balance of collateral, the auxiliary function for the total collateral calculation. \r\n     */\r\n    function getRealBalance()public view returns(int256){\r\n        delegateToViewAndReturn();\r\n    }\r\n    function getNetWorthBalance()public view returns(uint256){\r\n        delegateToViewAndReturn();\r\n    }\r\n    /**\r\n     * @dev collateral occupation rate calculation\r\n     *      collateral occupation rate = sum(collateral Rate * collateral balance) / sum(collateral balance)\r\n     */\r\n    function calculateCollateralRate()public view returns (uint256){\r\n        delegateToViewAndReturn();\r\n    }\r\n    /**\r\n    * @dev retrieve input price valid range rate, thousandths.\r\n    */ \r\n    function getPriceRateRange() public view returns(uint256,uint256) {\r\n        delegateToViewAndReturn();\r\n    }\r\n    /**\r\n    * @dev set input price valid range rate, thousandths.\r\n    */ \r\n    function setPriceRateRange(uint256 /*_minPriceRate*/,uint256 /*_maxPriceRate*/) public{\r\n        delegateAndReturn();\r\n    }\r\n    /**\r\n    * @dev user buy option and create new option.\r\n    *  settlement user's settement coin address\r\n    *  settlementAmount amount of settlement user want fo pay.\r\n    *  strikePrice user input option's strike price\r\n    *  underlying user input option's underlying id, 1 for BTC,2 for ETH\r\n    *  expiration user input expiration,time limit from now\r\n    *  amount user input amount of new option user want to buy.\r\n    *  optType user input option type\r\n    */ \r\n    function buyOption(address /*settlement*/,uint256 /*settlementAmount*/, uint256 /*strikePrice*/,uint32 /*underlying*/,\r\n                uint256 /*expiration*/,uint256 /*amount*/,uint8 /*optType*/) public payable{\r\n        delegateAndReturn();\r\n    }\r\n    /**\r\n    * @dev User sell option.\r\n    *  optionsId option's ID which was wanted to sell, must owned by user\r\n    *  amount user input amount of option user want to sell.\r\n    */ \r\n    function sellOption(uint256 /*optionsId*/,uint256 /*amount*/) public{\r\n        delegateAndReturn();\r\n    }\r\n    /**\r\n    * @dev User exercise option.\r\n    *  optionsId option's ID which was wanted to exercise, must owned by user\r\n    *  amount user input amount of option user want to exercise.\r\n    */ \r\n    function exerciseOption(uint256 /*optionsId*/,uint256 /*amount*/) public{\r\n        delegateAndReturn();\r\n    }\r\n    function getOptionsPrice(uint256 /*underlyingPrice*/, uint256 /*strikePrice*/, uint256 /*expiration*/,\r\n                    uint32 /*underlying*/,uint256 /*amount*/,uint8 /*optType*/) public view returns(uint256){\r\n        delegateToViewAndReturn();\r\n    }\r\n}\r\n",
  "sourcePath": "C:\\work\\solidity\\finnexusOptions_V2.1\\contracts\\OptionsManager\\ManagerProxy.sol",
  "compiler": {
    "name": "solc",
    "version": "0.5.16+commit.9c3226ce.Emscripten.clang"
  },
  "schemaVersion": "3.1.0",
  "updatedAt": "2020-10-24T10:45:23.294Z",
  "devdoc": {
    "methods": {
      "addCollateral(address,uint256)": {
        "details": "Deposit collateral in this pool from user. collateral The collateral coin address which is in whitelist. amount the amount of collateral to deposit."
      },
      "addWhiteList(address)": {
        "details": "Implementation of add an eligible address into the whitelist.",
        "params": {
          "addAddress": "new eligible address."
        }
      },
      "buyOption(address,uint256,uint256,uint32,uint256,uint256,uint8)": {
        "details": "user buy option and create new option. settlement user's settement coin address settlementAmount amount of settlement user want fo pay. strikePrice user input option's strike price underlying user input option's underlying id, 1 for BTC,2 for ETH expiration user input expiration,time limit from now amount user input amount of new option user want to buy. optType user input option type"
      },
      "calCollateralWorth(address)": {
        "details": "Retrieve user's collateral worth in all collateral coin.  If user want to redeem all his collateral,and the vacant collateral is sufficient, He can redeem each collateral amount in return list. account the retrieve user's account;"
      },
      "calOptionsOccupied(uint256,uint256,uint256,uint8)": {
        "details": "The auxiliary function for calculate option occupied.  strikePrice option's strike price underlyingPrice option's underlying price amount option's amount optType option's type, 0 for call, 1 for put."
      },
      "calculateCollateralRate()": {
        "details": "collateral occupation rate calculation     collateral occupation rate = sum(collateral Rate * collateral balance) / sum(collateral balance)"
      },
      "constructor": {
        "details": "Options manager constructor. set other contract address oracleAddr fnx oracle contract address. optionsPriceAddr options price contract address optionsPoolAddr optoins pool contract address FPTCoinAddr FPTCoin contract address"
      },
      "delegateToImplementation(bytes)": {
        "details": "It returns to the external caller whatever the implementation returns or forwards reverts",
        "params": {
          "data": "The raw data to delegatecall"
        },
        "return": "The returned bytes from the delegatecall"
      },
      "delegateToViewImplementation(bytes)": {
        "details": "It returns to the external caller whatever the implementation returns or forwards reverts There are an additional 2 prefix uints from the wrapper returndata, which we ignore since we make an extra hop.",
        "params": {
          "data": "The raw data to delegatecall"
        },
        "return": "The returned bytes from the delegatecall"
      },
      "exerciseOption(uint256,uint256)": {
        "details": "User exercise option. optionsId option's ID which was wanted to exercise, must owned by user amount user input amount of option user want to exercise."
      },
      "getAvailableCollateral()": {
        "details": "Retrieve the available collateral worth, the worth of collateral which can used for buy options, priced in USD. "
      },
      "getCollateralRate(address)": {
        "details": "Get the minimum collateral occupation rate."
      },
      "getInputAmountRange()": {
        "details": "get the valid range of input amount"
      },
      "getLeftCollateral()": {
        "details": "Retrieve the left collateral worth, the worth of collateral which can used for redeem collateral, priced in USD. "
      },
      "getOccupiedCollateral()": {
        "details": "Retrieve the occupied collateral worth, multiplied by minimum collateral rate, priced in USD. "
      },
      "getPriceRateRange()": {
        "details": "retrieve input price valid range rate, thousandths."
      },
      "getRealBalance()": {
        "details": "Retrieve the balance of collateral, the auxiliary function for the total collateral calculation. "
      },
      "getTokenNetworth()": {
        "details": "Retrieve FPTCoin's net worth, priced in USD."
      },
      "getTotalCollateral()": {
        "details": "Retrieve the total collateral worth, priced in USD. "
      },
      "getUnlockedCollateral()": {
        "details": "Retrieve the unlocked collateral worth, the worth of collateral which currently used for options, priced in USD. "
      },
      "getUserPayingUsd(address)": {
        "details": "Retrieve user's cost of collateral, priced in USD. user input retrieved account "
      },
      "getUserTotalWorth(address)": {
        "details": "Retrieve user's current total worth, priced in USD. account input retrieve account"
      },
      "getWhiteList()": {
        "details": "Implementation of getting the eligible whitelist."
      },
      "isEligibleAddress(address)": {
        "details": "Implementation of testing whether the input address is eligible.",
        "params": {
          "tmpAddress": "input address for testing."
        }
      },
      "isInputAmountInRange(uint256)": {
        "details": "Determine whether the input amount is within the valid range",
        "params": {
          "Amount": "Test value which is user input"
        }
      },
      "isOwner()": {
        "details": "Returns true if the caller is the current owner."
      },
      "owner()": {
        "details": "Returns the address of the current owner."
      },
      "redeemCollateral(uint256,address)": {
        "details": "redeem collateral from this pool, user can input the prioritized collateral,he will get this coin, if this coin is unsufficient, he will get others collateral which in whitelist. tokenAmount the amount of FPTCoin want to redeem. collateral The prioritized collateral coin address."
      },
      "removeWhiteList(address)": {
        "details": "Implementation of revoke an invalid address from the whitelist.",
        "params": {
          "removeAddress": "revoked address."
        }
      },
      "renounceOwnership()": {
        "details": "Leaves the contract without owner. It will not be possible to call `onlyOwner` functions anymore. Can only be called by the current owner.      * NOTE: Renouncing ownership will leave the contract without an owner, thereby removing any functionality that is only available to the owner."
      },
      "sellOption(uint256,uint256)": {
        "details": "User sell option. optionsId option's ID which was wanted to sell, must owned by user amount user input amount of option user want to sell."
      },
      "setCollateralRate(address,uint256)": {
        "details": "The foundation owner want to set the minimum collateral occupation rate. collateral collateral coin address colRate The thousandths of the minimum collateral occupation rate."
      },
      "setInputAmountRange(uint256,uint256)": {
        "details": "set the valid range of input amount",
        "params": {
          "_maxAmount": "the maximum input amount limit",
          "_minAmount": "the minimum input amount limit"
        }
      },
      "setPriceRateRange(uint256,uint256)": {
        "details": "set input price valid range rate, thousandths."
      },
      "transferOwnership(address)": {
        "details": "Transfers ownership of the contract to a new account (`newOwner`). Can only be called by the current owner."
      },
      "userInputCollateral(address,address)": {
        "details": "Retrieve user's amount of the specified collateral. user input retrieved account  collateral input retrieved collateral coin address "
      }
    },
    "title": "Erc20Delegator Contract"
  },
  "userdoc": {
    "methods": {
      "approve(address,uint256)": {
        "notice": "     * Requirements:      * - `spender` cannot be the zero address."
      },
      "delegateToImplementation(bytes)": {
        "notice": "Delegates execution to the implementation contract"
      },
      "delegateToViewImplementation(bytes)": {
        "notice": "Delegates execution to an implementation contract"
      },
      "setHalt(bool)": {
        "notice": "function Emergency situation that requires contribution period to stop or not."
      }
    }
  }
}