{
  "contractName": "MinePoolData",
  "abi": [
    {
      "anonymous": false,
      "inputs": [
        {
          "indexed": true,
          "internalType": "address",
          "name": "account",
          "type": "address"
        },
        {
          "indexed": false,
          "internalType": "uint256",
          "name": "amount",
          "type": "uint256"
        }
      ],
      "name": "BurnMiner",
      "type": "event"
    },
    {
      "anonymous": false,
      "inputs": [
        {
          "indexed": true,
          "internalType": "address",
          "name": "account",
          "type": "address"
        },
        {
          "indexed": true,
          "internalType": "address",
          "name": "mineCoin",
          "type": "address"
        },
        {
          "indexed": false,
          "internalType": "uint256",
          "name": "amount",
          "type": "uint256"
        }
      ],
      "name": "BuyingMiner",
      "type": "event"
    },
    {
      "anonymous": false,
      "inputs": [
        {
          "indexed": true,
          "internalType": "address",
          "name": "account",
          "type": "address"
        },
        {
          "indexed": false,
          "internalType": "uint256",
          "name": "amount",
          "type": "uint256"
        }
      ],
      "name": "MintMiner",
      "type": "event"
    },
    {
      "anonymous": false,
      "inputs": [
        {
          "indexed": true,
          "internalType": "address",
          "name": "previousOwner",
          "type": "address"
        },
        {
          "indexed": true,
          "internalType": "address",
          "name": "newOwner",
          "type": "address"
        }
      ],
      "name": "OwnershipTransferred",
      "type": "event"
    },
    {
      "anonymous": false,
      "inputs": [
        {
          "indexed": true,
          "internalType": "address",
          "name": "from",
          "type": "address"
        },
        {
          "indexed": true,
          "internalType": "address",
          "name": "mineCoin",
          "type": "address"
        },
        {
          "indexed": false,
          "internalType": "uint256",
          "name": "value",
          "type": "uint256"
        }
      ],
      "name": "RedeemMineCoin",
      "type": "event"
    },
    {
      "anonymous": false,
      "inputs": [
        {
          "indexed": true,
          "internalType": "address",
          "name": "from",
          "type": "address"
        },
        {
          "indexed": true,
          "internalType": "address",
          "name": "to",
          "type": "address"
        },
        {
          "indexed": false,
          "internalType": "uint256",
          "name": "amount",
          "type": "uint256"
        }
      ],
      "name": "TranserMiner",
      "type": "event"
    },
    {
      "constant": false,
      "inputs": [
        {
          "internalType": "address",
          "name": "addAddress",
          "type": "address"
        }
      ],
      "name": "addWhiteList",
      "outputs": [],
      "payable": false,
      "stateMutability": "nonpayable",
      "type": "function"
    },
    {
      "constant": true,
      "inputs": [
        {
          "internalType": "address",
          "name": "tmpAddress",
          "type": "address"
        },
        {
          "internalType": "uint256",
          "name": "state",
          "type": "uint256"
        }
      ],
      "name": "checkAddressPermission",
      "outputs": [
        {
          "internalType": "bool",
          "name": "",
          "type": "bool"
        }
      ],
      "payable": false,
      "stateMutability": "view",
      "type": "function"
    },
    {
      "constant": true,
      "inputs": [],
      "name": "getManager",
      "outputs": [
        {
          "internalType": "address",
          "name": "",
          "type": "address"
        }
      ],
      "payable": false,
      "stateMutability": "view",
      "type": "function"
    },
    {
      "constant": true,
      "inputs": [],
      "name": "getWhiteList",
      "outputs": [
        {
          "internalType": "address[]",
          "name": "",
          "type": "address[]"
        }
      ],
      "payable": false,
      "stateMutability": "view",
      "type": "function"
    },
    {
      "constant": true,
      "inputs": [
        {
          "internalType": "address",
          "name": "tmpAddress",
          "type": "address"
        }
      ],
      "name": "isEligibleAddress",
      "outputs": [
        {
          "internalType": "bool",
          "name": "",
          "type": "bool"
        }
      ],
      "payable": false,
      "stateMutability": "view",
      "type": "function"
    },
    {
      "constant": true,
      "inputs": [],
      "name": "isOwner",
      "outputs": [
        {
          "internalType": "bool",
          "name": "",
          "type": "bool"
        }
      ],
      "payable": false,
      "stateMutability": "view",
      "type": "function"
    },
    {
      "constant": false,
      "inputs": [
        {
          "internalType": "address",
          "name": "addAddress",
          "type": "address"
        },
        {
          "internalType": "uint256",
          "name": "permission",
          "type": "uint256"
        }
      ],
      "name": "modifyPermission",
      "outputs": [],
      "payable": false,
      "stateMutability": "nonpayable",
      "type": "function"
    },
    {
      "constant": true,
      "inputs": [],
      "name": "owner",
      "outputs": [
        {
          "internalType": "address",
          "name": "",
          "type": "address"
        }
      ],
      "payable": false,
      "stateMutability": "view",
      "type": "function"
    },
    {
      "constant": false,
      "inputs": [
        {
          "internalType": "address",
          "name": "removeAddress",
          "type": "address"
        }
      ],
      "name": "removeWhiteList",
      "outputs": [
        {
          "internalType": "bool",
          "name": "",
          "type": "bool"
        }
      ],
      "payable": false,
      "stateMutability": "nonpayable",
      "type": "function"
    },
    {
      "constant": false,
      "inputs": [],
      "name": "renounceOwnership",
      "outputs": [],
      "payable": false,
      "stateMutability": "nonpayable",
      "type": "function"
    },
    {
      "constant": false,
      "inputs": [
        {
          "internalType": "bool",
          "name": "halt",
          "type": "bool"
        }
      ],
      "name": "setHalt",
      "outputs": [],
      "payable": false,
      "stateMutability": "nonpayable",
      "type": "function"
    },
    {
      "constant": false,
      "inputs": [
        {
          "internalType": "address",
          "name": "managerAddress",
          "type": "address"
        }
      ],
      "name": "setManager",
      "outputs": [],
      "payable": false,
      "stateMutability": "nonpayable",
      "type": "function"
    },
    {
      "constant": false,
      "inputs": [
        {
          "internalType": "address",
          "name": "newOwner",
          "type": "address"
        }
      ],
      "name": "transferOwnership",
      "outputs": [],
      "payable": false,
      "stateMutability": "nonpayable",
      "type": "function"
    }
  ],
  "bytecode": "0x608060408190526001805460a060020a60ff02191690556004805460ff1916905560008054600160a060020a0319163317808255600160a060020a0316917f8be0079c531659141344cd1fd0a4f28419497f9722a3daafe3b4186f6b6457e0908290a3610a9c806100716000396000f3fe608060405234801561001057600080fd5b50600436106100ec576000357c0100000000000000000000000000000000000000000000000000000000900480638f32d59b116100a9578063d500958411610083578063d50095841461025d578063e7cd4a0414610265578063f2fde38b1461028b578063f4954387146102b1576100ec565b80638f32d59b14610203578063c219043b1461020b578063d0ebdbe714610237576100ec565b806309a9d76c146100f15780632042e5c2146101495780634cbf630214610183578063715018a6146101af578063817bf86d146101b95780638da5cb5b146101df575b600080fd5b6100f96102d0565b60408051602080825283518183015283519192839290830191858101910280838360005b8381101561013557818101518382015260200161011d565b505050509050019250505060405180910390f35b61016f6004803603602081101561015f57600080fd5b5035600160a060020a0316610333565b604080519115158252519081900360200190f35b61016f6004803603604081101561019957600080fd5b50600160a060020a0381351690602001356103af565b6101b76103d0565b005b61016f600480360360208110156101cf57600080fd5b5035600160a060020a0316610471565b6101e76104e0565b60408051600160a060020a039092168252519081900360200190f35b61016f6104ef565b6101b76004803603604081101561022157600080fd5b50600160a060020a038135169060200135610500565b6101b76004803603602081101561024d57600080fd5b5035600160a060020a0316610566565b6101e76105df565b6101b76004803603602081101561027b57600080fd5b5035600160a060020a03166105ee565b6101b7600480360360208110156102a157600080fd5b5035600160a060020a0316610669565b6101b7600480360360208110156102c757600080fd5b503515156106bf565b6060600280548060200260200160405190810160405280929190818152602001828054801561032857602002820191906000526020600020905b8154600160a060020a0316815260019091019060200180831161030a575b505050505090505b90565b600061033d6104ef565b61037f576040805160e560020a62461bcd0281526020600482018190526024820152600080516020610a48833981519152604482015290519081900360640190fd5b600160a060020a0382166000908152600360205260408120556103a960028363ffffffff61074916565b92915050565b600160a060020a039190911660009081526003602052604090205481161490565b6103d86104ef565b61041a576040805160e560020a62461bcd0281526020600482018190526024820152600080516020610a48833981519152604482015290519081900360640190fd5b60008054604051600160a060020a03909116907f8be0079c531659141344cd1fd0a4f28419497f9722a3daafe3b4186f6b6457e0908390a36000805473ffffffffffffffffffffffffffffffffffffffff19169055565b60006103a98260028054806020026020016040519081016040528092919081815260200182805480156104cd57602002820191906000526020600020905b8154600160a060020a031681526001909101906020018083116104af575b505050505061083790919063ffffffff16565b600054600160a060020a031690565b600054600160a060020a0316331490565b6105086104ef565b61054a576040805160e560020a62461bcd0281526020600482018190526024820152600080516020610a48833981519152604482015290519081900360640190fd5b600160a060020a03909116600090815260036020526040902055565b61056e6104ef565b6105b0576040805160e560020a62461bcd0281526020600482018190526024820152600080516020610a48833981519152604482015290519081900360640190fd5b6001805473ffffffffffffffffffffffffffffffffffffffff1916600160a060020a0392909216919091179055565b600154600160a060020a031690565b6105f66104ef565b610638576040805160e560020a62461bcd0281526020600482018190526024820152600080516020610a48833981519152604482015290519081900360640190fd5b61064960028263ffffffff61088616565b600160a060020a0316600090815260036020526040902063ffffffff9055565b6106716104ef565b6106b3576040805160e560020a62461bcd0281526020600482018190526024820152600080516020610a48833981519152604482015290519081900360640190fd5b6106bc8161092a565b50565b6106c76104ef565b610709576040805160e560020a62461bcd0281526020600482018190526024820152600080516020610a48833981519152604482015290519081900360640190fd5b60018054911515740100000000000000000000000000000000000000000274ff000000000000000000000000000000000000000019909216919091179055565b8154600090815b818110156107965783600160a060020a031685828154811061076e57fe5b600091825260209091200154600160a060020a0316141561078e57610796565b600101610750565b8181101561082c57600182038114610810578460018303815481106107b757fe5b9060005260206000200160009054906101000a9004600160a060020a03168582815481106107e157fe5b9060005260206000200160006101000a815481600160a060020a030219169083600160a060020a031602179055505b84546108208660001983016109da565b506001925050506103a9565b506000949350505050565b8151600090815b8181101561082c5783600160a060020a031685828151811061085c57fe5b6020026020010151600160a060020a0316141561087e576001925050506103a9565b60010161083e565b6108e9828054806020026020016040519081016040528092919081815260200182805480156108de57602002820191906000526020600020905b8154600160a060020a031681526001909101906020018083116108c0575b505050505082610837565b61092657815460018101835560008381526020902001805473ffffffffffffffffffffffffffffffffffffffff1916600160a060020a0383161790555b5050565b600160a060020a0381166109725760405160e560020a62461bcd028152600401808060200182810382526026815260200180610a226026913960400191505060405180910390fd5b60008054604051600160a060020a03808516939216917f8be0079c531659141344cd1fd0a4f28419497f9722a3daafe3b4186f6b6457e091a36000805473ffffffffffffffffffffffffffffffffffffffff1916600160a060020a0392909216919091179055565b8154818355818111156109fe576000838152602090206109fe918101908301610a03565b505050565b61033091905b80821115610a1d5760008155600101610a09565b509056fe4f776e61626c653a206e6577206f776e657220697320746865207a65726f20616464726573734f776e61626c653a2063616c6c6572206973206e6f7420746865206f776e6572a265627a7a723158204bc49a63ec3725b520136d8ca6b5752d7fde0b0eb1f8c95adc79a6cc910c094d64736f6c63430005100032",
  "source": "pragma solidity =0.5.16;\r\nimport \"../modules/Managerable.sol\";\r\nimport \"../modules/AddressWhiteList.sol\";\r\nimport \"../modules/ReentrancyGuard.sol\";\r\n/**\r\n * @title FPTCoin mine pool, which manager contract is FPTCoin.\r\n * @dev A smart-contract which distribute some mine coins by FPTCoin balance.\r\n *\r\n */\r\ncontract MinePoolData is Managerable,AddressWhiteList,ReentrancyGuard {\r\n    //Special decimals for calculation\r\n    uint256 constant calDecimals = 1e18;\r\n    // miner's balance\r\n    // map mineCoin => user => balance\r\n    mapping(address=>mapping(address=>uint256)) internal minerBalances;\r\n    // miner's origins, specially used for mine distribution\r\n    // map mineCoin => user => balance\r\n    mapping(address=>mapping(address=>uint256)) internal minerOrigins;\r\n    \r\n    // mine coins total worth, specially used for mine distribution\r\n    mapping(address=>uint256) internal totalMinedWorth;\r\n    // total distributed mine coin amount\r\n    mapping(address=>uint256) internal totalMinedCoin;\r\n    // latest time to settlement\r\n    mapping(address=>uint256) internal latestSettleTime;\r\n    //distributed mine amount\r\n    mapping(address=>uint256) internal mineAmount;\r\n    //distributed time interval\r\n    mapping(address=>uint256) internal mineInterval;\r\n    //distributed mine coin amount for buy options user.\r\n    mapping(address=>uint256) internal buyingMineMap;\r\n    // user's Opterator indicator \r\n    uint256 constant internal opBurnCoin = 1;\r\n    uint256 constant internal opMintCoin = 2;\r\n    uint256 constant internal opTransferCoin = 3;\r\n    /**\r\n     * @dev Emitted when `account` mint `amount` miner shares.\r\n     */\r\n    event MintMiner(address indexed account,uint256 amount);\r\n    /**\r\n     * @dev Emitted when `account` burn `amount` miner shares.\r\n     */\r\n    event BurnMiner(address indexed account,uint256 amount);\r\n    /**\r\n     * @dev Emitted when `from` redeem `value` mineCoins.\r\n     */\r\n    event RedeemMineCoin(address indexed from, address indexed mineCoin, uint256 value);\r\n    /**\r\n     * @dev Emitted when `from` transfer to `to` `amount` mineCoins.\r\n     */\r\n    event TranserMiner(address indexed from, address indexed to, uint256 amount);\r\n    /**\r\n     * @dev Emitted when `account` buying options get `amount` mineCoins.\r\n     */\r\n    event BuyingMiner(address indexed account,address indexed mineCoin,uint256 amount);\r\n}",
  "sourcePath": "C:\\work\\solidity\\finnexusOptions_V2.1\\contracts\\FNXMinePool\\MinePoolData.sol",
  "compiler": {
    "name": "solc",
    "version": "0.5.16+commit.9c3226ce.Emscripten.clang"
  },
  "schemaVersion": "3.1.0",
  "updatedAt": "2020-10-24T10:45:23.241Z",
  "devdoc": {
    "details": "A smart-contract which distribute some mine coins by FPTCoin balance.  ",
    "methods": {
      "addWhiteList(address)": {
        "details": "Implementation of add an eligible address into the whitelist.",
        "params": {
          "addAddress": "new eligible address."
        }
      },
      "getManager()": {
        "details": "get manager address.       "
      },
      "getWhiteList()": {
        "details": "Implementation of getting the eligible whitelist."
      },
      "isEligibleAddress(address)": {
        "details": "Implementation of testing whether the input address is eligible.",
        "params": {
          "tmpAddress": "input address for testing."
        }
      },
      "isOwner()": {
        "details": "Returns true if the caller is the current owner."
      },
      "owner()": {
        "details": "Returns the address of the current owner."
      },
      "removeWhiteList(address)": {
        "details": "Implementation of revoke an invalid address from the whitelist.",
        "params": {
          "removeAddress": "revoked address."
        }
      },
      "renounceOwnership()": {
        "details": "Leaves the contract without owner. It will not be possible to call `onlyOwner` functions anymore. Can only be called by the current owner.      * NOTE: Renouncing ownership will leave the contract without an owner, thereby removing any functionality that is only available to the owner."
      },
      "setManager(address)": {
        "details": "set manager by owner.       "
      },
      "transferOwnership(address)": {
        "details": "Transfers ownership of the contract to a new account (`newOwner`). Can only be called by the current owner."
      }
    },
    "title": "FPTCoin mine pool, which manager contract is FPTCoin."
  },
  "userdoc": {
    "methods": {
      "setHalt(bool)": {
        "notice": "function Emergency situation that requires contribution period to stop or not."
      }
    }
  }
}