{
  "contractName": "MinePoolProxy",
  "abi": [
    {
      "inputs": [
        {
          "internalType": "address",
          "name": "implementation_",
          "type": "address"
        }
      ],
      "payable": false,
      "stateMutability": "nonpayable",
      "type": "constructor"
    },
    {
      "anonymous": false,
      "inputs": [
        {
          "indexed": true,
          "internalType": "address",
          "name": "account",
          "type": "address"
        },
        {
          "indexed": false,
          "internalType": "uint256",
          "name": "amount",
          "type": "uint256"
        }
      ],
      "name": "BurnMiner",
      "type": "event"
    },
    {
      "anonymous": false,
      "inputs": [
        {
          "indexed": true,
          "internalType": "address",
          "name": "account",
          "type": "address"
        },
        {
          "indexed": true,
          "internalType": "address",
          "name": "mineCoin",
          "type": "address"
        },
        {
          "indexed": false,
          "internalType": "uint256",
          "name": "amount",
          "type": "uint256"
        }
      ],
      "name": "BuyingMiner",
      "type": "event"
    },
    {
      "anonymous": false,
      "inputs": [
        {
          "indexed": true,
          "internalType": "address",
          "name": "account",
          "type": "address"
        },
        {
          "indexed": false,
          "internalType": "uint256",
          "name": "amount",
          "type": "uint256"
        }
      ],
      "name": "MintMiner",
      "type": "event"
    },
    {
      "anonymous": false,
      "inputs": [
        {
          "indexed": true,
          "internalType": "address",
          "name": "previousOwner",
          "type": "address"
        },
        {
          "indexed": true,
          "internalType": "address",
          "name": "newOwner",
          "type": "address"
        }
      ],
      "name": "OwnershipTransferred",
      "type": "event"
    },
    {
      "anonymous": false,
      "inputs": [
        {
          "indexed": true,
          "internalType": "address",
          "name": "from",
          "type": "address"
        },
        {
          "indexed": true,
          "internalType": "address",
          "name": "mineCoin",
          "type": "address"
        },
        {
          "indexed": false,
          "internalType": "uint256",
          "name": "value",
          "type": "uint256"
        }
      ],
      "name": "RedeemMineCoin",
      "type": "event"
    },
    {
      "anonymous": false,
      "inputs": [
        {
          "indexed": true,
          "internalType": "address",
          "name": "from",
          "type": "address"
        },
        {
          "indexed": true,
          "internalType": "address",
          "name": "to",
          "type": "address"
        },
        {
          "indexed": false,
          "internalType": "uint256",
          "name": "amount",
          "type": "uint256"
        }
      ],
      "name": "TranserMiner",
      "type": "event"
    },
    {
      "payable": true,
      "stateMutability": "payable",
      "type": "fallback"
    },
    {
      "constant": false,
      "inputs": [
        {
          "internalType": "address",
          "name": "addAddress",
          "type": "address"
        }
      ],
      "name": "addWhiteList",
      "outputs": [],
      "payable": false,
      "stateMutability": "nonpayable",
      "type": "function"
    },
    {
      "constant": true,
      "inputs": [
        {
          "internalType": "address",
          "name": "tmpAddress",
          "type": "address"
        },
        {
          "internalType": "uint256",
          "name": "state",
          "type": "uint256"
        }
      ],
      "name": "checkAddressPermission",
      "outputs": [
        {
          "internalType": "bool",
          "name": "",
          "type": "bool"
        }
      ],
      "payable": false,
      "stateMutability": "view",
      "type": "function"
    },
    {
      "constant": false,
      "inputs": [
        {
          "internalType": "bytes",
          "name": "data",
          "type": "bytes"
        }
      ],
      "name": "delegateToImplementation",
      "outputs": [
        {
          "internalType": "bytes",
          "name": "",
          "type": "bytes"
        }
      ],
      "payable": false,
      "stateMutability": "nonpayable",
      "type": "function"
    },
    {
      "constant": true,
      "inputs": [
        {
          "internalType": "bytes",
          "name": "data",
          "type": "bytes"
        }
      ],
      "name": "delegateToViewImplementation",
      "outputs": [
        {
          "internalType": "bytes",
          "name": "",
          "type": "bytes"
        }
      ],
      "payable": false,
      "stateMutability": "view",
      "type": "function"
    },
    {
      "constant": true,
      "inputs": [],
      "name": "getImplementation",
      "outputs": [
        {
          "internalType": "address",
          "name": "",
          "type": "address"
        }
      ],
      "payable": false,
      "stateMutability": "view",
      "type": "function"
    },
    {
      "constant": true,
      "inputs": [],
      "name": "getManager",
      "outputs": [
        {
          "internalType": "address",
          "name": "",
          "type": "address"
        }
      ],
      "payable": false,
      "stateMutability": "view",
      "type": "function"
    },
    {
      "constant": true,
      "inputs": [],
      "name": "getWhiteList",
      "outputs": [
        {
          "internalType": "address[]",
          "name": "",
          "type": "address[]"
        }
      ],
      "payable": false,
      "stateMutability": "view",
      "type": "function"
    },
    {
      "constant": true,
      "inputs": [],
      "name": "implementation",
      "outputs": [
        {
          "internalType": "address",
          "name": "",
          "type": "address"
        }
      ],
      "payable": false,
      "stateMutability": "view",
      "type": "function"
    },
    {
      "constant": true,
      "inputs": [
        {
          "internalType": "address",
          "name": "tmpAddress",
          "type": "address"
        }
      ],
      "name": "isEligibleAddress",
      "outputs": [
        {
          "internalType": "bool",
          "name": "",
          "type": "bool"
        }
      ],
      "payable": false,
      "stateMutability": "view",
      "type": "function"
    },
    {
      "constant": true,
      "inputs": [],
      "name": "isOwner",
      "outputs": [
        {
          "internalType": "bool",
          "name": "",
          "type": "bool"
        }
      ],
      "payable": false,
      "stateMutability": "view",
      "type": "function"
    },
    {
      "constant": false,
      "inputs": [
        {
          "internalType": "address",
          "name": "addAddress",
          "type": "address"
        },
        {
          "internalType": "uint256",
          "name": "permission",
          "type": "uint256"
        }
      ],
      "name": "modifyPermission",
      "outputs": [],
      "payable": false,
      "stateMutability": "nonpayable",
      "type": "function"
    },
    {
      "constant": true,
      "inputs": [],
      "name": "owner",
      "outputs": [
        {
          "internalType": "address",
          "name": "",
          "type": "address"
        }
      ],
      "payable": false,
      "stateMutability": "view",
      "type": "function"
    },
    {
      "constant": false,
      "inputs": [
        {
          "internalType": "address",
          "name": "removeAddress",
          "type": "address"
        }
      ],
      "name": "removeWhiteList",
      "outputs": [
        {
          "internalType": "bool",
          "name": "",
          "type": "bool"
        }
      ],
      "payable": false,
      "stateMutability": "nonpayable",
      "type": "function"
    },
    {
      "constant": false,
      "inputs": [],
      "name": "renounceOwnership",
      "outputs": [],
      "payable": false,
      "stateMutability": "nonpayable",
      "type": "function"
    },
    {
      "constant": false,
      "inputs": [
        {
          "internalType": "bool",
          "name": "halt",
          "type": "bool"
        }
      ],
      "name": "setHalt",
      "outputs": [],
      "payable": false,
      "stateMutability": "nonpayable",
      "type": "function"
    },
    {
      "constant": false,
      "inputs": [
        {
          "internalType": "address",
          "name": "implementation_",
          "type": "address"
        }
      ],
      "name": "setImplementation",
      "outputs": [],
      "payable": false,
      "stateMutability": "nonpayable",
      "type": "function"
    },
    {
      "constant": false,
      "inputs": [
        {
          "internalType": "address",
          "name": "managerAddress",
          "type": "address"
        }
      ],
      "name": "setManager",
      "outputs": [],
      "payable": false,
      "stateMutability": "nonpayable",
      "type": "function"
    },
    {
      "constant": false,
      "inputs": [
        {
          "internalType": "address",
          "name": "newOwner",
          "type": "address"
        }
      ],
      "name": "transferOwnership",
      "outputs": [],
      "payable": false,
      "stateMutability": "nonpayable",
      "type": "function"
    },
    {
      "constant": false,
      "inputs": [
        {
          "internalType": "address",
          "name": "",
          "type": "address"
        },
        {
          "internalType": "uint256",
          "name": "",
          "type": "uint256"
        }
      ],
      "name": "redeemOut",
      "outputs": [],
      "payable": false,
      "stateMutability": "nonpayable",
      "type": "function"
    },
    {
      "constant": true,
      "inputs": [
        {
          "internalType": "address",
          "name": "",
          "type": "address"
        }
      ],
      "name": "getTotalMined",
      "outputs": [
        {
          "internalType": "uint256",
          "name": "",
          "type": "uint256"
        }
      ],
      "payable": false,
      "stateMutability": "view",
      "type": "function"
    },
    {
      "constant": true,
      "inputs": [
        {
          "internalType": "address",
          "name": "",
          "type": "address"
        }
      ],
      "name": "getMineInfo",
      "outputs": [
        {
          "internalType": "uint256",
          "name": "",
          "type": "uint256"
        },
        {
          "internalType": "uint256",
          "name": "",
          "type": "uint256"
        }
      ],
      "payable": false,
      "stateMutability": "view",
      "type": "function"
    },
    {
      "constant": true,
      "inputs": [
        {
          "internalType": "address",
          "name": "",
          "type": "address"
        },
        {
          "internalType": "address",
          "name": "",
          "type": "address"
        }
      ],
      "name": "getMinerBalance",
      "outputs": [
        {
          "internalType": "uint256",
          "name": "",
          "type": "uint256"
        }
      ],
      "payable": false,
      "stateMutability": "view",
      "type": "function"
    },
    {
      "constant": false,
      "inputs": [
        {
          "internalType": "address",
          "name": "",
          "type": "address"
        },
        {
          "internalType": "uint256",
          "name": "",
          "type": "uint256"
        },
        {
          "internalType": "uint256",
          "name": "",
          "type": "uint256"
        }
      ],
      "name": "setMineCoinInfo",
      "outputs": [],
      "payable": false,
      "stateMutability": "nonpayable",
      "type": "function"
    },
    {
      "constant": false,
      "inputs": [
        {
          "internalType": "address",
          "name": "",
          "type": "address"
        },
        {
          "internalType": "uint256",
          "name": "",
          "type": "uint256"
        }
      ],
      "name": "setBuyingMineInfo",
      "outputs": [],
      "payable": false,
      "stateMutability": "nonpayable",
      "type": "function"
    },
    {
      "constant": true,
      "inputs": [
        {
          "internalType": "address",
          "name": "",
          "type": "address"
        }
      ],
      "name": "getBuyingMineInfo",
      "outputs": [
        {
          "internalType": "uint256",
          "name": "",
          "type": "uint256"
        }
      ],
      "payable": false,
      "stateMutability": "view",
      "type": "function"
    },
    {
      "constant": true,
      "inputs": [],
      "name": "getBuyingMineInfoAll",
      "outputs": [
        {
          "internalType": "address[]",
          "name": "",
          "type": "address[]"
        },
        {
          "internalType": "uint256[]",
          "name": "",
          "type": "uint256[]"
        }
      ],
      "payable": false,
      "stateMutability": "view",
      "type": "function"
    },
    {
      "constant": false,
      "inputs": [
        {
          "internalType": "address",
          "name": "",
          "type": "address"
        },
        {
          "internalType": "address",
          "name": "",
          "type": "address"
        },
        {
          "internalType": "uint256",
          "name": "",
          "type": "uint256"
        }
      ],
      "name": "transferMinerCoin",
      "outputs": [],
      "payable": false,
      "stateMutability": "nonpayable",
      "type": "function"
    },
    {
      "constant": false,
      "inputs": [
        {
          "internalType": "address",
          "name": "",
          "type": "address"
        },
        {
          "internalType": "uint256",
          "name": "",
          "type": "uint256"
        }
      ],
      "name": "mintMinerCoin",
      "outputs": [],
      "payable": false,
      "stateMutability": "nonpayable",
      "type": "function"
    },
    {
      "constant": false,
      "inputs": [
        {
          "internalType": "address",
          "name": "",
          "type": "address"
        },
        {
          "internalType": "uint256",
          "name": "",
          "type": "uint256"
        }
      ],
      "name": "burnMinerCoin",
      "outputs": [],
      "payable": false,
      "stateMutability": "nonpayable",
      "type": "function"
    },
    {
      "constant": false,
      "inputs": [
        {
          "internalType": "address",
          "name": "",
          "type": "address"
        },
        {
          "internalType": "uint256",
          "name": "",
          "type": "uint256"
        }
      ],
      "name": "addMinerBalance",
      "outputs": [],
      "payable": false,
      "stateMutability": "nonpayable",
      "type": "function"
    },
    {
      "constant": false,
      "inputs": [
        {
          "internalType": "address",
          "name": "",
          "type": "address"
        },
        {
          "internalType": "uint256",
          "name": "",
          "type": "uint256"
        }
      ],
      "name": "setMineAmount",
      "outputs": [],
      "payable": false,
      "stateMutability": "nonpayable",
      "type": "function"
    },
    {
      "constant": false,
      "inputs": [
        {
          "internalType": "address",
          "name": "",
          "type": "address"
        },
        {
          "internalType": "uint256",
          "name": "",
          "type": "uint256"
        }
      ],
      "name": "setMineInterval",
      "outputs": [],
      "payable": false,
      "stateMutability": "nonpayable",
      "type": "function"
    },
    {
      "constant": false,
      "inputs": [
        {
          "internalType": "address",
          "name": "",
          "type": "address"
        },
        {
          "internalType": "uint256",
          "name": "",
          "type": "uint256"
        }
      ],
      "name": "redeemMinerCoin",
      "outputs": [],
      "payable": false,
      "stateMutability": "nonpayable",
      "type": "function"
    }
  ],
  "bytecode": "0x60806040526001805460a060020a60ff02191690556004805460ff1916905534801561002a57600080fd5b506040516119493803806119498339818101604052602081101561004d57600080fd5b505160008054600160a060020a03191633178082556040518392600160a060020a039290921691907f8be0079c531659141344cd1fd0a4f28419497f9722a3daafe3b4186f6b6457e0908290a3600d8054600160a060020a038316600160a060020a031990911681179091556040805160048152602481018252602081018051600160e060020a03167f8129fc1c00000000000000000000000000000000000000000000000000000000178152915181516000949382918083835b602083106101275780518252601f199092019160209182019101610108565b6001836020036101000a038019825116818451168082178552505050505050905001915050600060405180830381855af49150503d8060008114610187576040519150601f19603f3d011682016040523d82523d6000602084013e61018c565b606091505b505090508061019a57600080fd5b50505061179d806101ac6000396000f3fe60806040526004361061020b576000357c0100000000000000000000000000000000000000000000000000000000900480638af2a4701161012a578063d5009584116100bd578063e7cd4a041161008c578063e7cd4a041461077d578063e8b25b2b146107b0578063ef56807f1461085e578063f2fde38b146108a1578063f4954387146108d45761020b565b8063d5009584146106fa578063d6cec05e14610426578063d784d4261461070f578063dea2b7c1146107425761020b565b8063c219043b116100f9578063c219043b14610642578063d08da86114610426578063d0ebdbe71461067b578063d323a115146106ae5761020b565b80638af2a470146104265780638da5cb5b146106035780638f32d59b14610618578063aaf10f421461062d5761020b565b80634487152f116101a2578063715018a611610171578063715018a6146105bb578063817bf86d146105d05780638399d9f31461042657806387c0ee89146104265761020b565b80634487152f1461049e5780634cbf6302146105515780635c60da1b1461058a578063687d5ac0146104265761020b565b806328675626116101de57806328675626146104265780632a04d0c7146104265780632b2fe4bc1461045f578063410804151461039a5761020b565b80630933c1ed1461020d57806309a9d76c146103355780630fabbeef1461039a5780632042e5c2146103df575b005b34801561021957600080fd5b506102c06004803603602081101561023057600080fd5b81019060208101813564010000000081111561024b57600080fd5b82018360208201111561025d57600080fd5b8035906020019184600183028401116401000000008311171561027f57600080fd5b91908080601f016020809104026020016040519081016040528093929190818152602001838380828437600092019190915250929550610900945050505050565b6040805160208082528351818301528351919283929083019185019080838360005b838110156102fa5781810151838201526020016102e2565b50505050905090810190601f1680156103275780820380516001836020036101000a031916815260200191505b509250505060405180910390f35b34801561034157600080fd5b5061034a6109ca565b60408051602080825283518183015283519192839290830191858101910280838360005b8381101561038657818101518382015260200161036e565b505050509050019250505060405180910390f35b3480156103a657600080fd5b506103cd600480360360208110156103bd57600080fd5b5035600160a060020a0316610a2d565b60408051918252519081900360200190f35b3480156103eb57600080fd5b506104126004803603602081101561040257600080fd5b5035600160a060020a0316610a3d565b604080519115158252519081900360200190f35b34801561043257600080fd5b5061020b6004803603604081101561044957600080fd5b50600160a060020a038135169060200135610ab9565b34801561046b57600080fd5b5061020b6004803603606081101561048257600080fd5b50600160a060020a038135169060208101359060400135610ac6565b3480156104aa57600080fd5b506102c0600480360360208110156104c157600080fd5b8101906020810181356401000000008111156104dc57600080fd5b8201836020820111156104ee57600080fd5b8035906020019184600183028401116401000000008311171561051057600080fd5b91908080601f016020809104026020016040519081016040528093929190818152602001838380828437600092019190915250929550610ad4945050505050565b34801561055d57600080fd5b506104126004803603604081101561057457600080fd5b50600160a060020a038135169060200135610d23565b34801561059657600080fd5b5061059f610d44565b60408051600160a060020a039092168252519081900360200190f35b3480156105c757600080fd5b5061020b610d53565b3480156105dc57600080fd5b50610412600480360360208110156105f357600080fd5b5035600160a060020a0316610df4565b34801561060f57600080fd5b5061059f610e63565b34801561062457600080fd5b50610412610e72565b34801561063957600080fd5b5061059f610e83565b34801561064e57600080fd5b5061020b6004803603604081101561066557600080fd5b50600160a060020a038135169060200135610e92565b34801561068757600080fd5b5061020b6004803603602081101561069e57600080fd5b5035600160a060020a0316610ef8565b3480156106ba57600080fd5b506106e1600480360360208110156106d157600080fd5b5035600160a060020a0316610f71565b6040805192835260208301919091528051918290030190f35b34801561070657600080fd5b5061059f610f82565b34801561071b57600080fd5b5061020b6004803603602081101561073257600080fd5b5035600160a060020a0316610f91565b34801561074e57600080fd5b506103cd6004803603604081101561076557600080fd5b50600160a060020a0381358116916020013516611101565b34801561078957600080fd5b5061020b600480360360208110156107a057600080fd5b5035600160a060020a0316611112565b3480156107bc57600080fd5b506107c561118d565b604051808060200180602001838103835285818151815260200191508051906020019060200280838360005b838110156108095781810151838201526020016107f1565b50505050905001838103825284818151815260200191508051906020019060200280838360005b83811015610848578181015183820152602001610830565b5050505090500194505050505060405180910390f35b34801561086a57600080fd5b5061020b6004803603606081101561088157600080fd5b50600160a060020a03813581169160208101359091169060400135610ac6565b3480156108ad57600080fd5b5061020b600480360360208110156108c457600080fd5b5035600160a060020a031661119d565b3480156108e057600080fd5b5061020b600480360360208110156108f757600080fd5b503515156111f3565b600d5460405182516060926000928492600160a060020a0390921691869190819060208401908083835b602083106109495780518252601f19909201916020918201910161092a565b6001836020036101000a038019825116818451168082178552505050505050905001915050600060405180830381855af49150503d80600081146109a9576040519150601f19603f3d011682016040523d82523d6000602084013e6109ae565b606091505b509150915060008214156109c3573d60208201fd5b9392505050565b60606002805480602002602001604051908101604052809291908181526020018280548015610a2257602002820191906000526020600020905b8154600160a060020a03168152600190910190602001808311610a04575b505050505090505b90565b6000610a3761127d565b50919050565b6000610a47610e72565b610a89576040805160e560020a62461bcd0281526020600482018190526024820152600080516020611749833981519152604482015290519081900360640190fd5b600160a060020a038216600090815260036020526040812055610ab360028363ffffffff6113cf16565b92915050565b610ac16114bd565b505050565b610ace6114bd565b50505050565b60606000606030600160a060020a0316846040516024018080602001828103825283818151815260200191508051906020019080838360005b83811015610b25578181015183820152602001610b0d565b50505050905090810190601f168015610b525780820380516001836020036101000a031916815260200191505b5060408051601f198184030181529181526020820180517bffffffffffffffffffffffffffffffffffffffffffffffffffffffff167f0933c1ed00000000000000000000000000000000000000000000000000000000178152905182519295509350839250908083835b60208310610bdb5780518252601f199092019160209182019101610bbc565b6001836020036101000a038019825116818451168082178552505050505050905001915050600060405180830381855afa9150503d8060008114610c3b576040519150601f19603f3d011682016040523d82523d6000602084013e610c40565b606091505b50915091506000821415610c55573d60208201fd5b808060200190516020811015610c6a57600080fd5b8101908080516040519392919084640100000000821115610c8a57600080fd5b908301906020820185811115610c9f57600080fd5b8251640100000000811182820188101715610cb957600080fd5b82525081516020918201929091019080838360005b83811015610ce6578181015183820152602001610cce565b50505050905090810190601f168015610d135780820380516001836020036101000a031916815260200191505b5060405250505092505050919050565b600160a060020a039190911660009081526003602052604090205481161490565b600d54600160a060020a031681565b610d5b610e72565b610d9d576040805160e560020a62461bcd0281526020600482018190526024820152600080516020611749833981519152604482015290519081900360640190fd5b60008054604051600160a060020a03909116907f8be0079c531659141344cd1fd0a4f28419497f9722a3daafe3b4186f6b6457e0908390a36000805473ffffffffffffffffffffffffffffffffffffffff19169055565b6000610ab3826002805480602002602001604051908101604052809291908181526020018280548015610e5057602002820191906000526020600020905b8154600160a060020a03168152600190910190602001808311610e32575b505050505061154190919063ffffffff16565b600054600160a060020a031690565b600054600160a060020a0316331490565b600d54600160a060020a031690565b610e9a610e72565b610edc576040805160e560020a62461bcd0281526020600482018190526024820152600080516020611749833981519152604482015290519081900360640190fd5b600160a060020a03909116600090815260036020526040902055565b610f00610e72565b610f42576040805160e560020a62461bcd0281526020600482018190526024820152600080516020611749833981519152604482015290519081900360640190fd5b6001805473ffffffffffffffffffffffffffffffffffffffff1916600160a060020a0392909216919091179055565b600080610f7c61127d565b50915091565b600154600160a060020a031690565b610f99610e72565b610fdb576040805160e560020a62461bcd0281526020600482018190526024820152600080516020611749833981519152604482015290519081900360640190fd5b600d8054600160a060020a03831673ffffffffffffffffffffffffffffffffffffffff19909116811790915560408051600481526024810182526020810180517bffffffffffffffffffffffffffffffffffffffffffffffffffffffff167fa2e6204500000000000000000000000000000000000000000000000000000000178152915181516000949382918083835b6020831061108a5780518252601f19909201916020918201910161106b565b6001836020036101000a038019825116818451168082178552505050505050905001915050600060405180830381855af49150503d80600081146110ea576040519150601f19603f3d011682016040523d82523d6000602084013e6110ef565b606091505b50509050806110fd57600080fd5b5050565b600061110b61127d565b5092915050565b61111a610e72565b61115c576040805160e560020a62461bcd0281526020600482018190526024820152600080516020611749833981519152604482015290519081900360640190fd5b61116d60028263ffffffff61159016565b600160a060020a0316600090815260036020526040902063ffffffff9055565b60608061119861127d565b509091565b6111a5610e72565b6111e7576040805160e560020a62461bcd0281526020600482018190526024820152600080516020611749833981519152604482015290519081900360640190fd5b6111f081611635565b50565b6111fb610e72565b61123d576040805160e560020a62461bcd0281526020600482018190526024820152600080516020611749833981519152604482015290519081900360640190fd5b60018054911515740100000000000000000000000000000000000000000274ff000000000000000000000000000000000000000019909216919091179055565b6060600030600160a060020a03166000366040516024018080602001828103825284848281815260200192508082843760008382015260408051601f909201601f1990811690940182810390940182529283526020810180517bffffffffffffffffffffffffffffffffffffffffffffffffffffffff167f0933c1ed0000000000000000000000000000000000000000000000000000000017815292518151919750955085945091925081905083835b6020831061134c5780518252601f19909201916020918201910161132d565b6001836020036101000a038019825116818451168082178552505050505050905001915050600060405180830381855afa9150503d80600081146113ac576040519150601f19603f3d011682016040523d82523d6000602084013e6113b1565b606091505b505090506040513d6000823e8180156113cb573d60408301f35b3d82fd5b8154600090815b8181101561141c5783600160a060020a03168582815481106113f457fe5b600091825260209091200154600160a060020a031614156114145761141c565b6001016113d6565b818110156114b2576001820381146114965784600183038154811061143d57fe5b9060005260206000200160009054906101000a9004600160a060020a031685828154811061146757fe5b9060005260206000200160006101000a815481600160a060020a030219169083600160a060020a031602179055505b84546114a68660001983016116e5565b50600192505050610ab3565b506000949350505050565b600d54604051606091600091600160a060020a0390911690829036908083838082843760405192019450600093509091505080830381855af49150503d8060008114611525576040519150601f19603f3d011682016040523d82523d6000602084013e61152a565b606091505b505090506040513d6000823e8180156113cb573d82f35b8151600090815b818110156114b25783600160a060020a031685828151811061156657fe5b6020026020010151600160a060020a0316141561158857600192505050610ab3565b600101611548565b6115f3828054806020026020016040519081016040528092919081815260200182805480156115e857602002820191906000526020600020905b8154600160a060020a031681526001909101906020018083116115ca575b505050505082611541565b6110fd578154600181018355600083815260209020018054600160a060020a03831673ffffffffffffffffffffffffffffffffffffffff199091161790555050565b600160a060020a03811661167d5760405160e560020a62461bcd0281526004018080602001828103825260268152602001806117236026913960400191505060405180910390fd5b60008054604051600160a060020a03808516939216917f8be0079c531659141344cd1fd0a4f28419497f9722a3daafe3b4186f6b6457e091a36000805473ffffffffffffffffffffffffffffffffffffffff1916600160a060020a0392909216919091179055565b815481835581811115610ac157600083815260209020610ac1918101908301610a2a91905b8082111561171e576000815560010161170a565b509056fe4f776e61626c653a206e6577206f776e657220697320746865207a65726f20616464726573734f776e61626c653a2063616c6c6572206973206e6f7420746865206f776e6572a265627a7a7231582010557609cf4713793b8256a38730f5394ebd465dec82565fe9ed1ec61f58183864736f6c63430005100032",
  "source": "pragma solidity =0.5.16;\r\nimport \"./MinePoolData.sol\";\r\nimport \"../Proxy/baseProxy.sol\";\r\n/**\r\n * @title FPTCoin mine pool, which manager contract is FPTCoin.\r\n * @dev A smart-contract which distribute some mine coins by FPTCoin balance.\r\n *\r\n */\r\ncontract MinePoolProxy is MinePoolData,baseProxy {\r\n    constructor (address implementation_) baseProxy(implementation_) public{\r\n    }\r\n    /**\r\n     * @dev default function for foundation input miner coins.\r\n     */\r\n    function()external payable{\r\n    }\r\n    /**\r\n     * @dev foundation redeem out mine coins.\r\n     *  mineCoin mineCoin address\r\n     *  amount redeem amount.\r\n     */\r\n    function redeemOut(address /*mineCoin*/,uint256 /*amount*/)public{\r\n        delegateAndReturn();\r\n    }\r\n    /**\r\n     * @dev retrieve total distributed mine coins.\r\n     *  mineCoin mineCoin address\r\n     */\r\n    function getTotalMined(address /*mineCoin*/)public view returns(uint256){\r\n        delegateToViewAndReturn();\r\n    }\r\n    /**\r\n     * @dev retrieve minecoin distributed informations.\r\n     *  mineCoin mineCoin address\r\n     * @return distributed amount and distributed time interval.\r\n     */\r\n    function getMineInfo(address /*mineCoin*/)public view returns(uint256,uint256){\r\n        delegateToViewAndReturn();\r\n    }\r\n    /**\r\n     * @dev retrieve user's mine balance.\r\n     *  account user's account\r\n     *  mineCoin mineCoin address\r\n     */\r\n    function getMinerBalance(address /*account*/,address /*mineCoin*/)public view returns(uint256){\r\n        delegateToViewAndReturn();\r\n    }\r\n    /**\r\n     * @dev Set mineCoin mine info, only foundation owner can invoked.\r\n     *  mineCoin mineCoin address\r\n     *  _mineAmount mineCoin distributed amount\r\n     *  _mineInterval mineCoin distributied time interval\r\n     */\r\n    function setMineCoinInfo(address /*mineCoin*/,uint256 /*_mineAmount*/,uint256 /*_mineInterval*/)public {\r\n        delegateAndReturn();\r\n    }\r\n    /**\r\n     * @dev Set the reward for buying options.\r\n     *  mineCoin mineCoin address\r\n     *  _mineAmount mineCoin reward amount\r\n     */\r\n    function setBuyingMineInfo(address /*mineCoin*/,uint256 /*_mineAmount*/)public {\r\n        delegateAndReturn();\r\n    }\r\n    /**\r\n     * @dev Get the reward for buying options.\r\n     *  mineCoin mineCoin address\r\n     */\r\n    function getBuyingMineInfo(address /*mineCoin*/)public view returns(uint256){\r\n        delegateToViewAndReturn();\r\n    }\r\n    /**\r\n     * @dev Get the all rewards for buying options.\r\n     */\r\n    function getBuyingMineInfoAll()public view returns(address[] memory,uint256[] memory){\r\n        delegateToViewAndReturn();\r\n    }\r\n    /**\r\n     * @dev transfer mineCoin to recieptor when account transfer amount FPTCoin to recieptor, only manager contract can modify database.\r\n     *  account the account transfer from\r\n     *  recieptor the account transfer to\r\n     *  amount the mine shared amount\r\n     */\r\n    function transferMinerCoin(address /*account*/,address /*recieptor*/,uint256 /*amount*/) public {\r\n        delegateAndReturn();\r\n    }\r\n    /**\r\n     * @dev mint mineCoin to account when account add collateral to collateral pool, only manager contract can modify database.\r\n     *  account user's account\r\n     *  amount the mine shared amount\r\n     */\r\n    function mintMinerCoin(address /*account*/,uint256 /*amount*/) public {\r\n        delegateAndReturn();\r\n    }\r\n    /**\r\n     * @dev Burn mineCoin to account when account redeem collateral to collateral pool, only manager contract can modify database.\r\n     *  account user's account\r\n     *  amount the mine shared amount\r\n     */\r\n    function burnMinerCoin(address /*account*/,uint256 /*amount*/) public {\r\n        delegateAndReturn();\r\n    }\r\n    /**\r\n     * @dev give amount buying reward to account, only manager contract can modify database.\r\n     *  account user's account\r\n     *  amount the buying shared amount\r\n     */\r\n    function addMinerBalance(address /*account*/,uint256 /*amount*/) public {\r\n        delegateAndReturn();\r\n    }\r\n    /**\r\n     * @dev changer mine coin distributed amount , only foundation owner can modify database.\r\n     *  mineCoin mine coin address\r\n     *  _mineAmount the distributed amount.\r\n     */\r\n    function setMineAmount(address /*mineCoin*/,uint256 /*_mineAmount*/)public {\r\n        delegateAndReturn();\r\n    }\r\n    /**\r\n     * @dev changer mine coin distributed time interval , only foundation owner can modify database.\r\n     *  mineCoin mine coin address\r\n     *  _mineInterval the distributed time interval.\r\n     */\r\n    function setMineInterval(address /*mineCoin*/,uint256 /*_mineInterval*/)public {\r\n        delegateAndReturn();\r\n    }\r\n    /**\r\n     * @dev user redeem mine rewards.\r\n     *  mineCoin mine coin address\r\n     *  amount redeem amount.\r\n     */\r\n    function redeemMinerCoin(address /*mineCoin*/,uint256 /*amount*/)public{\r\n        delegateAndReturn();\r\n    }\r\n}",
  "sourcePath": "C:\\work\\solidity\\finnexusOptions_V2.1\\contracts\\FNXMinePool\\MinePoolProxy.sol",
  "compiler": {
    "name": "solc",
    "version": "0.5.16+commit.9c3226ce.Emscripten.clang"
  },
  "schemaVersion": "3.1.0",
  "updatedAt": "2020-10-24T10:45:23.244Z",
  "devdoc": {
    "details": "A smart-contract which distribute some mine coins by FPTCoin balance.  ",
    "methods": {
      "addMinerBalance(address,uint256)": {
        "details": "give amount buying reward to account, only manager contract can modify database. account user's account amount the buying shared amount"
      },
      "addWhiteList(address)": {
        "details": "Implementation of add an eligible address into the whitelist.",
        "params": {
          "addAddress": "new eligible address."
        }
      },
      "burnMinerCoin(address,uint256)": {
        "details": "Burn mineCoin to account when account redeem collateral to collateral pool, only manager contract can modify database. account user's account amount the mine shared amount"
      },
      "delegateToImplementation(bytes)": {
        "details": "It returns to the external caller whatever the implementation returns or forwards reverts",
        "params": {
          "data": "The raw data to delegatecall"
        },
        "return": "The returned bytes from the delegatecall"
      },
      "delegateToViewImplementation(bytes)": {
        "details": "It returns to the external caller whatever the implementation returns or forwards reverts There are an additional 2 prefix uints from the wrapper returndata, which we ignore since we make an extra hop.",
        "params": {
          "data": "The raw data to delegatecall"
        },
        "return": "The returned bytes from the delegatecall"
      },
      "getBuyingMineInfo(address)": {
        "details": "Get the reward for buying options. mineCoin mineCoin address"
      },
      "getBuyingMineInfoAll()": {
        "details": "Get the all rewards for buying options."
      },
      "getManager()": {
        "details": "get manager address.       "
      },
      "getMineInfo(address)": {
        "details": "retrieve minecoin distributed informations. mineCoin mineCoin address",
        "return": "distributed amount and distributed time interval."
      },
      "getMinerBalance(address,address)": {
        "details": "retrieve user's mine balance. account user's account mineCoin mineCoin address"
      },
      "getTotalMined(address)": {
        "details": "retrieve total distributed mine coins. mineCoin mineCoin address"
      },
      "getWhiteList()": {
        "details": "Implementation of getting the eligible whitelist."
      },
      "isEligibleAddress(address)": {
        "details": "Implementation of testing whether the input address is eligible.",
        "params": {
          "tmpAddress": "input address for testing."
        }
      },
      "isOwner()": {
        "details": "Returns true if the caller is the current owner."
      },
      "mintMinerCoin(address,uint256)": {
        "details": "mint mineCoin to account when account add collateral to collateral pool, only manager contract can modify database. account user's account amount the mine shared amount"
      },
      "owner()": {
        "details": "Returns the address of the current owner."
      },
      "redeemMinerCoin(address,uint256)": {
        "details": "user redeem mine rewards. mineCoin mine coin address amount redeem amount."
      },
      "redeemOut(address,uint256)": {
        "details": "foundation redeem out mine coins. mineCoin mineCoin address amount redeem amount."
      },
      "removeWhiteList(address)": {
        "details": "Implementation of revoke an invalid address from the whitelist.",
        "params": {
          "removeAddress": "revoked address."
        }
      },
      "renounceOwnership()": {
        "details": "Leaves the contract without owner. It will not be possible to call `onlyOwner` functions anymore. Can only be called by the current owner.      * NOTE: Renouncing ownership will leave the contract without an owner, thereby removing any functionality that is only available to the owner."
      },
      "setBuyingMineInfo(address,uint256)": {
        "details": "Set the reward for buying options. mineCoin mineCoin address _mineAmount mineCoin reward amount"
      },
      "setManager(address)": {
        "details": "set manager by owner.       "
      },
      "setMineAmount(address,uint256)": {
        "details": "changer mine coin distributed amount , only foundation owner can modify database. mineCoin mine coin address _mineAmount the distributed amount."
      },
      "setMineCoinInfo(address,uint256,uint256)": {
        "details": "Set mineCoin mine info, only foundation owner can invoked. mineCoin mineCoin address _mineAmount mineCoin distributed amount _mineInterval mineCoin distributied time interval"
      },
      "setMineInterval(address,uint256)": {
        "details": "changer mine coin distributed time interval , only foundation owner can modify database. mineCoin mine coin address _mineInterval the distributed time interval."
      },
      "transferMinerCoin(address,address,uint256)": {
        "details": "transfer mineCoin to recieptor when account transfer amount FPTCoin to recieptor, only manager contract can modify database. account the account transfer from recieptor the account transfer to amount the mine shared amount"
      },
      "transferOwnership(address)": {
        "details": "Transfers ownership of the contract to a new account (`newOwner`). Can only be called by the current owner."
      }
    },
    "title": "FPTCoin mine pool, which manager contract is FPTCoin."
  },
  "userdoc": {
    "methods": {
      "delegateToImplementation(bytes)": {
        "notice": "Delegates execution to the implementation contract"
      },
      "delegateToViewImplementation(bytes)": {
        "notice": "Delegates execution to an implementation contract"
      },
      "setHalt(bool)": {
        "notice": "function Emergency situation that requires contribution period to stop or not."
      }
    }
  }
}