{
  "contractName": "newOptionsPriceTest",
  "abi": [
    {
      "anonymous": false,
      "inputs": [
        {
          "indexed": true,
          "internalType": "address",
          "name": "sender",
          "type": "address"
        },
        {
          "indexed": false,
          "internalType": "uint256",
          "name": "_test1",
          "type": "uint256"
        },
        {
          "indexed": false,
          "internalType": "int256",
          "name": "_test2",
          "type": "int256"
        }
      ],
      "name": "DebugEvent",
      "type": "event"
    },
    {
      "constant": false,
      "inputs": [
        {
          "internalType": "address",
          "name": "price",
          "type": "address"
        }
      ],
      "name": "testNew",
      "outputs": [],
      "payable": false,
      "stateMutability": "nonpayable",
      "type": "function"
    },
    {
      "constant": false,
      "inputs": [
        {
          "internalType": "address",
          "name": "price",
          "type": "address"
        }
      ],
      "name": "testOld",
      "outputs": [],
      "payable": false,
      "stateMutability": "nonpayable",
      "type": "function"
    }
  ],
  "bytecode": "0x608060405234801561001057600080fd5b50610184806100206000396000f3fe608060405234801561001057600080fd5b5060043610610052577c010000000000000000000000000000000000000000000000000000000060003504638f6848508114610057578063b6975da914610057575b600080fd5b61008a6004803603602081101561006d57600080fd5b503573ffffffffffffffffffffffffffffffffffffffff1661008c565b005b604080517f4b7d8e5c000000000000000000000000000000000000000000000000000000008152630754d4c060048201526308a486406024820152620d2f0060448201526001606482015260006084820152905173ffffffffffffffffffffffffffffffffffffffff831691634b7d8e5c9160a4808301926020929190829003018186803b15801561011d57600080fd5b505afa158015610131573d6000803e3d6000fd5b505050506040513d602081101561014757600080fd5b50516000555056fea265627a7a72315820806532480d18b697329d59ff66301fcc8ca34d54c4947eec8594c4f1dec1706664736f6c63430005100032",
  "source": "pragma solidity =0.5.16;\r\nimport \"../optionsPriceOld.sol\";\r\nimport \"../optionsPrice.sol\";\r\n\r\ncontract newOptionsPriceTest {\r\n    uint256 private test1;\r\n    int256 private test2;\r\n    event DebugEvent(address indexed sender,uint256 _test1,int256 _test2);\r\n    function testNew(address price) public{\r\n        test1 = OptionsPrice(price).getOptionsPrice(123000000,145000000,864000,1,0);\r\n    } \r\n    function testOld(address price) public{\r\n        test1 = OptionsPriceOld(price).getOptionsPrice(123000000,145000000,864000,1,0);\r\n    } \r\n}",
  "sourcePath": "C:\\work\\solidity\\finnexusOptions_V2.1\\contracts\\test\\newOptionsPriceTest.sol",
  "compiler": {
    "name": "solc",
    "version": "0.5.16+commit.9c3226ce.Emscripten.clang"
  },
  "schemaVersion": "3.1.0",
  "updatedAt": "2020-10-24T10:45:23.525Z",
  "devdoc": {
    "methods": {}
  },
  "userdoc": {
    "methods": {}
  }
}