{
  "contractName": "OptionsProxy",
  "abi": [
    {
      "inputs": [
        {
          "internalType": "address",
          "name": "implementation_",
          "type": "address"
        },
        {
          "internalType": "address",
          "name": "oracleAddr",
          "type": "address"
        },
        {
          "internalType": "address",
          "name": "optionsPriceAddr",
          "type": "address"
        },
        {
          "internalType": "address",
          "name": "ivAddress",
          "type": "address"
        }
      ],
      "payable": false,
      "stateMutability": "nonpayable",
      "type": "constructor"
    },
    {
      "anonymous": false,
      "inputs": [
        {
          "indexed": true,
          "internalType": "address",
          "name": "owner",
          "type": "address"
        },
        {
          "indexed": true,
          "internalType": "uint256",
          "name": "optionID",
          "type": "uint256"
        },
        {
          "indexed": false,
          "internalType": "uint256",
          "name": "amount",
          "type": "uint256"
        }
      ],
      "name": "BurnOption",
      "type": "event"
    },
    {
      "anonymous": false,
      "inputs": [
        {
          "indexed": true,
          "internalType": "address",
          "name": "owner",
          "type": "address"
        },
        {
          "indexed": true,
          "internalType": "uint256",
          "name": "optionID",
          "type": "uint256"
        },
        {
          "indexed": false,
          "internalType": "uint8",
          "name": "optType",
          "type": "uint8"
        },
        {
          "indexed": false,
          "internalType": "uint32",
          "name": "underlying",
          "type": "uint32"
        },
        {
          "indexed": false,
          "internalType": "uint256",
          "name": "expiration",
          "type": "uint256"
        },
        {
          "indexed": false,
          "internalType": "uint256",
          "name": "strikePrice",
          "type": "uint256"
        },
        {
          "indexed": false,
          "internalType": "uint256",
          "name": "amount",
          "type": "uint256"
        }
      ],
      "name": "CreateOption",
      "type": "event"
    },
    {
      "anonymous": false,
      "inputs": [
        {
          "indexed": false,
          "internalType": "uint256",
          "name": "id",
          "type": "uint256"
        },
        {
          "indexed": false,
          "internalType": "uint256",
          "name": "value1",
          "type": "uint256"
        },
        {
          "indexed": false,
          "internalType": "uint256",
          "name": "value2",
          "type": "uint256"
        }
      ],
      "name": "DebugEvent",
      "type": "event"
    },
    {
      "anonymous": false,
      "inputs": [
        {
          "indexed": true,
          "internalType": "address",
          "name": "previousOwner",
          "type": "address"
        },
        {
          "indexed": true,
          "internalType": "address",
          "name": "newOwner",
          "type": "address"
        }
      ],
      "name": "OwnershipTransferred",
      "type": "event"
    },
    {
      "constant": false,
      "inputs": [
        {
          "internalType": "address",
          "name": "addAddress",
          "type": "address"
        }
      ],
      "name": "addOperator",
      "outputs": [],
      "payable": false,
      "stateMutability": "nonpayable",
      "type": "function"
    },
    {
      "constant": false,
      "inputs": [
        {
          "internalType": "uint32",
          "name": "underlying",
          "type": "uint32"
        }
      ],
      "name": "addUnderlyingAsset",
      "outputs": [],
      "payable": false,
      "stateMutability": "nonpayable",
      "type": "function"
    },
    {
      "constant": false,
      "inputs": [
        {
          "internalType": "bytes",
          "name": "data",
          "type": "bytes"
        }
      ],
      "name": "delegateToImplementation",
      "outputs": [
        {
          "internalType": "bytes",
          "name": "",
          "type": "bytes"
        }
      ],
      "payable": false,
      "stateMutability": "nonpayable",
      "type": "function"
    },
    {
      "constant": true,
      "inputs": [
        {
          "internalType": "bytes",
          "name": "data",
          "type": "bytes"
        }
      ],
      "name": "delegateToViewImplementation",
      "outputs": [
        {
          "internalType": "bytes",
          "name": "",
          "type": "bytes"
        }
      ],
      "payable": false,
      "stateMutability": "view",
      "type": "function"
    },
    {
      "constant": true,
      "inputs": [],
      "name": "getImplementation",
      "outputs": [
        {
          "internalType": "address",
          "name": "",
          "type": "address"
        }
      ],
      "payable": false,
      "stateMutability": "view",
      "type": "function"
    },
    {
      "constant": true,
      "inputs": [],
      "name": "getInputAmountRange",
      "outputs": [
        {
          "internalType": "uint256",
          "name": "",
          "type": "uint256"
        },
        {
          "internalType": "uint256",
          "name": "",
          "type": "uint256"
        }
      ],
      "payable": false,
      "stateMutability": "view",
      "type": "function"
    },
    {
      "constant": true,
      "inputs": [
        {
          "internalType": "uint256",
          "name": "item",
          "type": "uint256"
        }
      ],
      "name": "getItemTimeLimitation",
      "outputs": [
        {
          "internalType": "uint256",
          "name": "",
          "type": "uint256"
        }
      ],
      "payable": false,
      "stateMutability": "view",
      "type": "function"
    },
    {
      "constant": true,
      "inputs": [],
      "name": "getManager",
      "outputs": [
        {
          "internalType": "address",
          "name": "",
          "type": "address"
        }
      ],
      "payable": false,
      "stateMutability": "view",
      "type": "function"
    },
    {
      "constant": true,
      "inputs": [],
      "name": "getOperator",
      "outputs": [
        {
          "internalType": "address[]",
          "name": "",
          "type": "address[]"
        }
      ],
      "payable": false,
      "stateMutability": "view",
      "type": "function"
    },
    {
      "constant": true,
      "inputs": [],
      "name": "getOptionsPriceAddress",
      "outputs": [
        {
          "internalType": "address",
          "name": "",
          "type": "address"
        }
      ],
      "payable": false,
      "stateMutability": "view",
      "type": "function"
    },
    {
      "constant": true,
      "inputs": [],
      "name": "getOracleAddress",
      "outputs": [
        {
          "internalType": "address",
          "name": "",
          "type": "address"
        }
      ],
      "payable": false,
      "stateMutability": "view",
      "type": "function"
    },
    {
      "constant": true,
      "inputs": [],
      "name": "getTimeLimitation",
      "outputs": [
        {
          "internalType": "uint256",
          "name": "",
          "type": "uint256"
        }
      ],
      "payable": false,
      "stateMutability": "view",
      "type": "function"
    },
    {
      "constant": true,
      "inputs": [],
      "name": "getUnderlyingAssets",
      "outputs": [
        {
          "internalType": "uint32[]",
          "name": "",
          "type": "uint32[]"
        }
      ],
      "payable": false,
      "stateMutability": "view",
      "type": "function"
    },
    {
      "constant": true,
      "inputs": [],
      "name": "getVolatilityAddress",
      "outputs": [
        {
          "internalType": "address",
          "name": "",
          "type": "address"
        }
      ],
      "payable": false,
      "stateMutability": "view",
      "type": "function"
    },
    {
      "constant": true,
      "inputs": [],
      "name": "implementation",
      "outputs": [
        {
          "internalType": "address",
          "name": "",
          "type": "address"
        }
      ],
      "payable": false,
      "stateMutability": "view",
      "type": "function"
    },
    {
      "constant": true,
      "inputs": [
        {
          "internalType": "uint32",
          "name": "underlying",
          "type": "uint32"
        }
      ],
      "name": "isEligibleUnderlyingAsset",
      "outputs": [
        {
          "internalType": "bool",
          "name": "",
          "type": "bool"
        }
      ],
      "payable": false,
      "stateMutability": "view",
      "type": "function"
    },
    {
      "constant": true,
      "inputs": [
        {
          "internalType": "uint256",
          "name": "Amount",
          "type": "uint256"
        }
      ],
      "name": "isInputAmountInRange",
      "outputs": [
        {
          "internalType": "bool",
          "name": "",
          "type": "bool"
        }
      ],
      "payable": false,
      "stateMutability": "view",
      "type": "function"
    },
    {
      "constant": true,
      "inputs": [],
      "name": "isOwner",
      "outputs": [
        {
          "internalType": "bool",
          "name": "",
          "type": "bool"
        }
      ],
      "payable": false,
      "stateMutability": "view",
      "type": "function"
    },
    {
      "constant": true,
      "inputs": [],
      "name": "owner",
      "outputs": [
        {
          "internalType": "address",
          "name": "",
          "type": "address"
        }
      ],
      "payable": false,
      "stateMutability": "view",
      "type": "function"
    },
    {
      "constant": false,
      "inputs": [
        {
          "internalType": "address",
          "name": "removeAddress",
          "type": "address"
        }
      ],
      "name": "removeOperator",
      "outputs": [
        {
          "internalType": "bool",
          "name": "",
          "type": "bool"
        }
      ],
      "payable": false,
      "stateMutability": "nonpayable",
      "type": "function"
    },
    {
      "constant": false,
      "inputs": [
        {
          "internalType": "uint32",
          "name": "removeUnderlying",
          "type": "uint32"
        }
      ],
      "name": "removeUnderlyingAssets",
      "outputs": [
        {
          "internalType": "bool",
          "name": "",
          "type": "bool"
        }
      ],
      "payable": false,
      "stateMutability": "nonpayable",
      "type": "function"
    },
    {
      "constant": false,
      "inputs": [],
      "name": "renounceOwnership",
      "outputs": [],
      "payable": false,
      "stateMutability": "nonpayable",
      "type": "function"
    },
    {
      "constant": false,
      "inputs": [
        {
          "internalType": "address",
          "name": "implementation_",
          "type": "address"
        }
      ],
      "name": "setImplementation",
      "outputs": [],
      "payable": false,
      "stateMutability": "nonpayable",
      "type": "function"
    },
    {
      "constant": false,
      "inputs": [
        {
          "internalType": "uint256",
          "name": "_minAmount",
          "type": "uint256"
        },
        {
          "internalType": "uint256",
          "name": "_maxAmount",
          "type": "uint256"
        }
      ],
      "name": "setInputAmountRange",
      "outputs": [],
      "payable": false,
      "stateMutability": "nonpayable",
      "type": "function"
    },
    {
      "constant": false,
      "inputs": [
        {
          "internalType": "address",
          "name": "managerAddress",
          "type": "address"
        }
      ],
      "name": "setManager",
      "outputs": [],
      "payable": false,
      "stateMutability": "nonpayable",
      "type": "function"
    },
    {
      "constant": false,
      "inputs": [
        {
          "internalType": "uint256",
          "name": "index",
          "type": "uint256"
        },
        {
          "internalType": "address",
          "name": "addAddress",
          "type": "address"
        }
      ],
      "name": "setOperator",
      "outputs": [],
      "payable": false,
      "stateMutability": "nonpayable",
      "type": "function"
    },
    {
      "constant": false,
      "inputs": [
        {
          "internalType": "address[]",
          "name": "operators",
          "type": "address[]"
        }
      ],
      "name": "setOperators",
      "outputs": [],
      "payable": false,
      "stateMutability": "nonpayable",
      "type": "function"
    },
    {
      "constant": false,
      "inputs": [
        {
          "internalType": "address",
          "name": "optionsPrice",
          "type": "address"
        }
      ],
      "name": "setOptionsPriceAddress",
      "outputs": [],
      "payable": false,
      "stateMutability": "nonpayable",
      "type": "function"
    },
    {
      "constant": false,
      "inputs": [
        {
          "internalType": "address",
          "name": "oracle",
          "type": "address"
        }
      ],
      "name": "setOracleAddress",
      "outputs": [],
      "payable": false,
      "stateMutability": "nonpayable",
      "type": "function"
    },
    {
      "constant": false,
      "inputs": [
        {
          "internalType": "uint256",
          "name": "_limitation",
          "type": "uint256"
        }
      ],
      "name": "setTimeLimitation",
      "outputs": [],
      "payable": false,
      "stateMutability": "nonpayable",
      "type": "function"
    },
    {
      "constant": false,
      "inputs": [
        {
          "internalType": "address",
          "name": "volatility",
          "type": "address"
        }
      ],
      "name": "setVolatilityAddress",
      "outputs": [],
      "payable": false,
      "stateMutability": "nonpayable",
      "type": "function"
    },
    {
      "constant": false,
      "inputs": [
        {
          "internalType": "address",
          "name": "newOwner",
          "type": "address"
        }
      ],
      "name": "transferOwnership",
      "outputs": [],
      "payable": false,
      "stateMutability": "nonpayable",
      "type": "function"
    },
    {
      "constant": true,
      "inputs": [
        {
          "internalType": "address",
          "name": "",
          "type": "address"
        }
      ],
      "name": "getUserOptionsID",
      "outputs": [
        {
          "internalType": "uint256[]",
          "name": "",
          "type": "uint256[]"
        }
      ],
      "payable": false,
      "stateMutability": "view",
      "type": "function"
    },
    {
      "constant": true,
      "inputs": [
        {
          "internalType": "address",
          "name": "",
          "type": "address"
        },
        {
          "internalType": "uint256",
          "name": "",
          "type": "uint256"
        },
        {
          "internalType": "uint256",
          "name": "",
          "type": "uint256"
        }
      ],
      "name": "getUserOptionsID",
      "outputs": [
        {
          "internalType": "uint256[]",
          "name": "",
          "type": "uint256[]"
        }
      ],
      "payable": false,
      "stateMutability": "view",
      "type": "function"
    },
    {
      "constant": true,
      "inputs": [],
      "name": "getOptionInfoLength",
      "outputs": [
        {
          "internalType": "uint256",
          "name": "",
          "type": "uint256"
        }
      ],
      "payable": false,
      "stateMutability": "view",
      "type": "function"
    },
    {
      "constant": true,
      "inputs": [
        {
          "internalType": "uint256",
          "name": "",
          "type": "uint256"
        },
        {
          "internalType": "uint256",
          "name": "",
          "type": "uint256"
        }
      ],
      "name": "getOptionInfoList",
      "outputs": [
        {
          "internalType": "address[]",
          "name": "",
          "type": "address[]"
        },
        {
          "internalType": "uint256[]",
          "name": "",
          "type": "uint256[]"
        },
        {
          "internalType": "uint256[]",
          "name": "",
          "type": "uint256[]"
        },
        {
          "internalType": "uint256[]",
          "name": "",
          "type": "uint256[]"
        },
        {
          "internalType": "uint256[]",
          "name": "",
          "type": "uint256[]"
        }
      ],
      "payable": false,
      "stateMutability": "view",
      "type": "function"
    },
    {
      "constant": true,
      "inputs": [
        {
          "internalType": "uint256[]",
          "name": "",
          "type": "uint256[]"
        }
      ],
      "name": "getOptionInfoListFromID",
      "outputs": [
        {
          "internalType": "address[]",
          "name": "",
          "type": "address[]"
        },
        {
          "internalType": "uint256[]",
          "name": "",
          "type": "uint256[]"
        },
        {
          "internalType": "uint256[]",
          "name": "",
          "type": "uint256[]"
        },
        {
          "internalType": "uint256[]",
          "name": "",
          "type": "uint256[]"
        },
        {
          "internalType": "uint256[]",
          "name": "",
          "type": "uint256[]"
        }
      ],
      "payable": false,
      "stateMutability": "view",
      "type": "function"
    },
    {
      "constant": true,
      "inputs": [
        {
          "internalType": "uint256",
          "name": "",
          "type": "uint256"
        }
      ],
      "name": "getOptionsLimitTimeById",
      "outputs": [
        {
          "internalType": "uint256",
          "name": "",
          "type": "uint256"
        }
      ],
      "payable": false,
      "stateMutability": "view",
      "type": "function"
    },
    {
      "constant": true,
      "inputs": [
        {
          "internalType": "uint256",
          "name": "",
          "type": "uint256"
        }
      ],
      "name": "getOptionsById",
      "outputs": [
        {
          "internalType": "uint256",
          "name": "",
          "type": "uint256"
        },
        {
          "internalType": "address",
          "name": "",
          "type": "address"
        },
        {
          "internalType": "uint8",
          "name": "",
          "type": "uint8"
        },
        {
          "internalType": "uint32",
          "name": "",
          "type": "uint32"
        },
        {
          "internalType": "uint256",
          "name": "",
          "type": "uint256"
        },
        {
          "internalType": "uint256",
          "name": "",
          "type": "uint256"
        },
        {
          "internalType": "uint256",
          "name": "",
          "type": "uint256"
        }
      ],
      "payable": false,
      "stateMutability": "view",
      "type": "function"
    },
    {
      "constant": true,
      "inputs": [
        {
          "internalType": "uint256",
          "name": "",
          "type": "uint256"
        }
      ],
      "name": "getOptionsExtraById",
      "outputs": [
        {
          "internalType": "address",
          "name": "",
          "type": "address"
        },
        {
          "internalType": "uint256",
          "name": "",
          "type": "uint256"
        },
        {
          "internalType": "uint256",
          "name": "",
          "type": "uint256"
        },
        {
          "internalType": "uint256",
          "name": "",
          "type": "uint256"
        },
        {
          "internalType": "uint256",
          "name": "",
          "type": "uint256"
        },
        {
          "internalType": "uint256",
          "name": "",
          "type": "uint256"
        }
      ],
      "payable": false,
      "stateMutability": "view",
      "type": "function"
    },
    {
      "constant": true,
      "inputs": [
        {
          "internalType": "uint256",
          "name": "",
          "type": "uint256"
        },
        {
          "internalType": "uint256",
          "name": "",
          "type": "uint256"
        }
      ],
      "name": "getExerciseWorth",
      "outputs": [
        {
          "internalType": "uint256",
          "name": "",
          "type": "uint256"
        }
      ],
      "payable": false,
      "stateMutability": "view",
      "type": "function"
    },
    {
      "constant": true,
      "inputs": [
        {
          "internalType": "uint256",
          "name": "",
          "type": "uint256"
        },
        {
          "internalType": "uint32",
          "name": "",
          "type": "uint32"
        }
      ],
      "name": "buyOptionCheck",
      "outputs": [],
      "payable": false,
      "stateMutability": "view",
      "type": "function"
    },
    {
      "constant": false,
      "inputs": [
        {
          "internalType": "uint256",
          "name": "",
          "type": "uint256"
        }
      ],
      "name": "addExpiration",
      "outputs": [],
      "payable": false,
      "stateMutability": "nonpayable",
      "type": "function"
    },
    {
      "constant": false,
      "inputs": [
        {
          "internalType": "uint256",
          "name": "",
          "type": "uint256"
        }
      ],
      "name": "removeExpirationList",
      "outputs": [
        {
          "internalType": "bool",
          "name": "",
          "type": "bool"
        }
      ],
      "payable": false,
      "stateMutability": "nonpayable",
      "type": "function"
    },
    {
      "constant": true,
      "inputs": [],
      "name": "getExpirationList",
      "outputs": [
        {
          "internalType": "uint256[]",
          "name": "",
          "type": "uint256[]"
        }
      ],
      "payable": false,
      "stateMutability": "view",
      "type": "function"
    },
    {
      "constant": true,
      "inputs": [
        {
          "internalType": "uint256",
          "name": "",
          "type": "uint256"
        }
      ],
      "name": "isEligibleExpiration",
      "outputs": [
        {
          "internalType": "bool",
          "name": "",
          "type": "bool"
        }
      ],
      "payable": false,
      "stateMutability": "view",
      "type": "function"
    },
    {
      "constant": true,
      "inputs": [
        {
          "internalType": "uint256",
          "name": "",
          "type": "uint256"
        }
      ],
      "name": "checkExpiration",
      "outputs": [],
      "payable": false,
      "stateMutability": "view",
      "type": "function"
    },
    {
      "constant": true,
      "inputs": [
        {
          "internalType": "uint256",
          "name": "",
          "type": "uint256"
        },
        {
          "internalType": "uint256",
          "name": "",
          "type": "uint256"
        }
      ],
      "name": "getBurnedFullPay",
      "outputs": [
        {
          "internalType": "uint256",
          "name": "",
          "type": "uint256"
        }
      ],
      "payable": false,
      "stateMutability": "view",
      "type": "function"
    },
    {
      "constant": true,
      "inputs": [],
      "name": "getOccupiedCalInfo",
      "outputs": [
        {
          "internalType": "uint256",
          "name": "",
          "type": "uint256"
        },
        {
          "internalType": "int256",
          "name": "",
          "type": "int256"
        },
        {
          "internalType": "int256",
          "name": "",
          "type": "int256"
        }
      ],
      "payable": false,
      "stateMutability": "view",
      "type": "function"
    },
    {
      "constant": false,
      "inputs": [],
      "name": "setOccupiedCollateral",
      "outputs": [],
      "payable": false,
      "stateMutability": "nonpayable",
      "type": "function"
    },
    {
      "constant": true,
      "inputs": [
        {
          "internalType": "uint256",
          "name": "",
          "type": "uint256"
        },
        {
          "internalType": "uint256",
          "name": "",
          "type": "uint256"
        },
        {
          "internalType": "uint256",
          "name": "",
          "type": "uint256"
        }
      ],
      "name": "calculatePhaseOccupiedCollateral",
      "outputs": [
        {
          "internalType": "uint256",
          "name": "",
          "type": "uint256"
        },
        {
          "internalType": "uint256",
          "name": "",
          "type": "uint256"
        },
        {
          "internalType": "uint256",
          "name": "",
          "type": "uint256"
        },
        {
          "internalType": "bool",
          "name": "",
          "type": "bool"
        }
      ],
      "payable": false,
      "stateMutability": "view",
      "type": "function"
    },
    {
      "constant": false,
      "inputs": [
        {
          "internalType": "uint256",
          "name": "",
          "type": "uint256"
        },
        {
          "internalType": "uint256",
          "name": "",
          "type": "uint256"
        },
        {
          "internalType": "uint256",
          "name": "",
          "type": "uint256"
        },
        {
          "internalType": "int256",
          "name": "",
          "type": "int256"
        },
        {
          "internalType": "int256",
          "name": "",
          "type": "int256"
        }
      ],
      "name": "setCollateralPhase",
      "outputs": [],
      "payable": false,
      "stateMutability": "nonpayable",
      "type": "function"
    },
    {
      "constant": true,
      "inputs": [],
      "name": "getCallTotalOccupiedCollateral",
      "outputs": [
        {
          "internalType": "uint256",
          "name": "",
          "type": "uint256"
        }
      ],
      "payable": false,
      "stateMutability": "view",
      "type": "function"
    },
    {
      "constant": true,
      "inputs": [],
      "name": "getPutTotalOccupiedCollateral",
      "outputs": [
        {
          "internalType": "uint256",
          "name": "",
          "type": "uint256"
        }
      ],
      "payable": false,
      "stateMutability": "view",
      "type": "function"
    },
    {
      "constant": true,
      "inputs": [],
      "name": "getTotalOccupiedCollateral",
      "outputs": [
        {
          "internalType": "uint256",
          "name": "",
          "type": "uint256"
        }
      ],
      "payable": false,
      "stateMutability": "view",
      "type": "function"
    },
    {
      "constant": true,
      "inputs": [],
      "name": "getNetWrothCalInfo",
      "outputs": [
        {
          "internalType": "uint256",
          "name": "",
          "type": "uint256"
        },
        {
          "internalType": "int256",
          "name": "",
          "type": "int256"
        }
      ],
      "payable": false,
      "stateMutability": "view",
      "type": "function"
    },
    {
      "constant": true,
      "inputs": [],
      "name": "getNetWrothLatestWorth",
      "outputs": [
        {
          "internalType": "int256",
          "name": "",
          "type": "int256"
        }
      ],
      "payable": false,
      "stateMutability": "view",
      "type": "function"
    },
    {
      "constant": false,
      "inputs": [
        {
          "internalType": "uint256",
          "name": "",
          "type": "uint256"
        },
        {
          "internalType": "int256",
          "name": "",
          "type": "int256"
        }
      ],
      "name": "setSharedState",
      "outputs": [],
      "payable": false,
      "stateMutability": "nonpayable",
      "type": "function"
    },
    {
      "constant": true,
      "inputs": [
        {
          "internalType": "uint256",
          "name": "",
          "type": "uint256"
        },
        {
          "internalType": "uint256",
          "name": "",
          "type": "uint256"
        },
        {
          "internalType": "uint256",
          "name": "",
          "type": "uint256"
        }
      ],
      "name": "calRangeSharedPayment",
      "outputs": [
        {
          "internalType": "int256",
          "name": "",
          "type": "int256"
        },
        {
          "internalType": "uint256",
          "name": "",
          "type": "uint256"
        },
        {
          "internalType": "uint256",
          "name": "",
          "type": "uint256"
        }
      ],
      "payable": false,
      "stateMutability": "view",
      "type": "function"
    },
    {
      "constant": true,
      "inputs": [
        {
          "internalType": "uint256",
          "name": "",
          "type": "uint256"
        },
        {
          "internalType": "uint256",
          "name": "",
          "type": "uint256"
        },
        {
          "internalType": "uint256",
          "name": "",
          "type": "uint256"
        }
      ],
      "name": "calculatePhaseOptionsFall",
      "outputs": [
        {
          "internalType": "int256",
          "name": "",
          "type": "int256"
        }
      ],
      "payable": false,
      "stateMutability": "view",
      "type": "function"
    },
    {
      "constant": true,
      "inputs": [
        {
          "internalType": "address[]",
          "name": "",
          "type": "address[]"
        }
      ],
      "name": "getOptionCalRangeAll",
      "outputs": [
        {
          "internalType": "uint256",
          "name": "",
          "type": "uint256"
        },
        {
          "internalType": "int256",
          "name": "",
          "type": "int256"
        },
        {
          "internalType": "int256",
          "name": "",
          "type": "int256"
        },
        {
          "internalType": "uint256",
          "name": "",
          "type": "uint256"
        },
        {
          "internalType": "int256[]",
          "name": "",
          "type": "int256[]"
        },
        {
          "internalType": "uint256",
          "name": "",
          "type": "uint256"
        },
        {
          "internalType": "uint256",
          "name": "",
          "type": "uint256"
        }
      ],
      "payable": false,
      "stateMutability": "view",
      "type": "function"
    },
    {
      "constant": false,
      "inputs": [
        {
          "internalType": "address",
          "name": "",
          "type": "address"
        },
        {
          "internalType": "uint256",
          "name": "",
          "type": "uint256"
        },
        {
          "internalType": "uint256",
          "name": "",
          "type": "uint256"
        },
        {
          "internalType": "uint256",
          "name": "",
          "type": "uint256"
        },
        {
          "internalType": "uint256",
          "name": "",
          "type": "uint256"
        }
      ],
      "name": "createOptions",
      "outputs": [],
      "payable": false,
      "stateMutability": "nonpayable",
      "type": "function"
    },
    {
      "constant": false,
      "inputs": [
        {
          "internalType": "address",
          "name": "",
          "type": "address"
        },
        {
          "internalType": "uint256",
          "name": "",
          "type": "uint256"
        },
        {
          "internalType": "uint256",
          "name": "",
          "type": "uint256"
        },
        {
          "internalType": "uint256",
          "name": "",
          "type": "uint256"
        }
      ],
      "name": "burnOptions",
      "outputs": [],
      "payable": false,
      "stateMutability": "nonpayable",
      "type": "function"
    }
  ],
  "bytecode": "0x6080604052610e106003556c0c9f2c9cd04674edea4000000060045560646005553480156200002d57600080fd5b506040516200282738038062002827833981810160405260808110156200005357600080fd5b508051602082015160408084015160609094015160008054600160a060020a031916331780825592519495939491928692600160a060020a039190911691907f8be0079c531659141344cd1fd0a4f28419497f9722a3daafe3b4186f6b6457e0908290a360168054600160a060020a038316600160a060020a031990911681179091556040805160048152602481018252602081018051600160e060020a03167f8129fc1c00000000000000000000000000000000000000000000000000000000178152915181516000949382918083835b60208310620001465780518252601f19909201916020918201910162000125565b6001836020036101000a038019825116818451168082178552505050505050905001915050600060405180830381855af49150503d8060008114620001a8576040519150601f19603f3d011682016040523d82523d6000602084013e620001ad565b606091505b5050905080620001bc57600080fd5b505060078054600160a060020a03948516600160a060020a0319918216179091556009805493851693821693909317909255600880549190931691161790555061261b806200020c6000396000f3fe608060405234801561001057600080fd5b50600436106103e2576000357c010000000000000000000000000000000000000000000000000000000090048063813b5d4b1161021c578063b18b78dd11610137578063ddf71cd5116100ca578063f2fde38b11610099578063f2fde38b14610ff3578063f504e2f014611019578063f67b6f1714611021578063f7de19231461105f576103e2565b8063ddf71cd514610ef6578063e7a1c1c014610f99578063e7c5681514610fc5578063e7f43c6814610feb576103e2565b8063d500958411610106578063d500958414610e82578063d6d1401214610e8a578063d784d42614610ead578063db6ad2bd14610ed3576103e2565b8063b18b78dd14610e4c578063bc9abed214610e54578063bec3107f146108d9578063d0ebdbe714610e5c576103e2565b80639ef975d2116101af578063aaf10f421161017e578063aaf10f4214610dfb578063ac8a584a14610e03578063aef890be146108d9578063afec82fc14610e29576103e2565b80639ef975d214610d69578063a093e2d014610d7f578063a67931cc14610da5578063a855040814610dc6576103e2565b80639783cbd9116101eb5780639783cbd914610be25780639870d7fe14610bff5780639a2a3a6014610c255780639ab91a3514610d46576103e2565b8063813b5d4b14610bad5780638da5cb5b14610bca5780638f32d59b14610bd25780639052d5f814610bda576103e2565b806348ee201d1161030c5780636ed82ec91161029f57806373a3d4241161026e57806373a3d424146108d95780637b05fce1146108d95780637cfff2d814610b5f5780637e838fa314610b7c576103e2565b80636ed82ec914610ad9578063715018a614610b1157806371cee39e14610b19578063723931ca14610b42576103e2565b80635ca4b73b116102db5780635ca4b73b14610a91578063604ecf2214610a9957806367b8ceb914610a665780636d84e2e314610abc576103e2565b806348ee201d146109dc5780634c69c00f14610a40578063597ce90014610a665780635c60da1b14610a89576103e2565b8063354af3601161038457806342e5479d1161035357806342e5479d146108e15780634457dee3146109055780634487152f1461092e5780634688d5d6146109d4576103e2565b8063354af360146107b55780633582d789146108585780633ad2fb57146108b05780633e77dfd9146108d9576103e2565b80630933c1ed116103c05780630933c1ed146105f25780630c3725711461070d5780632967eafe1461075e5780632a75ee4214610786576103e2565b80630438d490146103e757806307af14781461057257806309057622146105cc575b600080fd5b61040a600480360360408110156103fd57600080fd5b5080359060200135611091565b60405180806020018060200180602001806020018060200186810386528b818151815260200191508051906020019060200280838360005b8381101561045a578181015183820152602001610442565b5050505090500186810385528a818151815260200191508051906020019060200280838360005b83811015610499578181015183820152602001610481565b50505050905001868103845289818151815260200191508051906020019060200280838360005b838110156104d85781810151838201526020016104c0565b50505050905001868103835288818151815260200191508051906020019060200280838360005b838110156105175781810151838201526020016104ff565b50505050905001868103825287818151815260200191508051906020019060200280838360005b8381101561055657818101518382015260200161053e565b505050509050019a505050505050505050505060405180910390f35b61058f6004803603602081101561058857600080fd5b50356110ac565b60408051600160a060020a0390971687526020870195909552858501939093526060850191909152608084015260a0830152519081900360c00190f35b6105d46110c7565b60408051938452602084019290925282820152519081900360600190f35b6106986004803603602081101561060857600080fd5b81019060208101813564010000000081111561062357600080fd5b82018360208201111561063557600080fd5b8035906020019184600183028401116401000000008311171561065757600080fd5b91908080601f0160208091040260200160405190810160405280939291908181526020018383808284376000920191909152509295506110da945050505050565b6040805160208082528351818301528351919283929083019185019080838360005b838110156106d25781810151838201526020016106ba565b50505050905090810190601f1680156106ff5780820380516001836020036101000a031916815260200191505b509250505060405180910390f35b6107366004803603606081101561072357600080fd5b50803590602081013590604001356111a4565b6040805194855260208501939093528383019190915215156060830152519081900360800190f35b6107846004803603602081101561077457600080fd5b5035600160a060020a03166111bc565b005b6107a36004803603602081101561079c57600080fd5b5035611228565b60408051918252519081900360200190f35b61040a600480360360208110156107cb57600080fd5b8101906020810181356401000000008111156107e657600080fd5b8201836020820111156107f857600080fd5b8035906020019184602083028401116401000000008311171561081a57600080fd5b91908080602002602001604051908101604052809392919081815260200183836020028082843760009201919091525092955061123f945050505050565b610860611259565b60408051602080825283518183015283519192839290830191858101910280838360005b8381101561089c578181015183820152602001610884565b505050509050019250505060405180910390f35b610784600480360360408110156108c657600080fd5b508035906020013563ffffffff166112de565b6107a36112eb565b6108e96112f9565b60408051600160a060020a039092168252519081900360200190f35b6107a36004803603606081101561091b57600080fd5b5080359060208101359060400135611308565b6106986004803603602081101561094457600080fd5b81019060208101813564010000000081111561095f57600080fd5b82018360208201111561097157600080fd5b8035906020019184600183028401116401000000008311171561099357600080fd5b91908080601f01602080910402602001604051908101604052809392919081815260200183838082843760009201919091525092955061131a945050505050565b6107a3611569565b6109f9600480360360208110156109f257600080fd5b503561156f565b60408051978852600160a060020a03909616602088015260ff9094168686015263ffffffff9092166060860152608085015260a084015260c0830152519081900360e00190f35b61078460048036036020811015610a5657600080fd5b5035600160a060020a031661158e565b6107a360048036036040811015610a7c57600080fd5b50803590602001356115fa565b6108e961160b565b6108e961161a565b61078460048036036040811015610aaf57600080fd5b5080359060200135611629565b6107a360048036036020811015610ad257600080fd5b5035611631565b61078460048036036080811015610aef57600080fd5b50600160a060020a038135169060208101359060408101359060600135611641565b610784611650565b6105d460048036036060811015610b2f57600080fd5b50803590602081013590604001356116e4565b61078460048036036020811015610b5857600080fd5b50356116fb565b61078460048036036020811015610b7557600080fd5b5035611707565b610b9960048036036020811015610b9257600080fd5b503561170f565b604080519115158252519081900360200190f35b610b9960048036036020811015610bc357600080fd5b5035611719565b6108e9611735565b610b99611744565b610860611755565b61078460048036036020811015610bf857600080fd5b503561175f565b61078460048036036020811015610c1557600080fd5b5035600160a060020a03166117ae565b610cc860048036036020811015610c3b57600080fd5b810190602081018135640100000000811115610c5657600080fd5b820183602082011115610c6857600080fd5b80359060200191846020830284011164010000000083111715610c8a57600080fd5b91908080602002602001604051908101604052809392919081815260200183836020028082843760009201919091525092955061180c945050505050565b6040518088815260200187815260200186815260200185815260200180602001848152602001838152602001828103825285818151815260200191508051906020019060200280838360005b83811015610d2c578181015183820152602001610d14565b505050509050019850505050505050505060405180910390f35b61078460048036036040811015610d5c57600080fd5b508035906020013561181f565b610b9960048036036020811015610ad257600080fd5b61078460048036036020811015610d9557600080fd5b5035600160a060020a0316611874565b610dad6118e0565b6040805192835260208301919091528051918290030190f35b610784600480360360a0811015610ddc57600080fd5b50803590602081013590604081013590606081013590608001356118f0565b6108e9611900565b610b9960048036036020811015610e1957600080fd5b5035600160a060020a031661190f565b61078460048036036020811015610e3f57600080fd5b503563ffffffff1661196c565b6108e96119c7565b610dad6119d6565b61078460048036036020811015610e7257600080fd5b5035600160a060020a03166119e0565b6108e9611a4c565b610b9960048036036020811015610ea057600080fd5b503563ffffffff16611a5b565b61078460048036036020811015610ec357600080fd5b5035600160a060020a0316611ab8565b610b9960048036036020811015610ee957600080fd5b503563ffffffff16611c17565b61078460048036036020811015610f0c57600080fd5b810190602081018135640100000000811115610f2757600080fd5b820183602082011115610f3957600080fd5b80359060200191846020830284011164010000000083111715610f5b57600080fd5b919080806020026020016040519081016040528093929190818152602001838360200280828437600092019190915250929550611ca8945050505050565b61078460048036036040811015610faf57600080fd5b5080359060200135600160a060020a0316611d05565b61086060048036036020811015610fdb57600080fd5b5035600160a060020a0316611d8f565b610860611d99565b6107846004803603602081101561100957600080fd5b5035600160a060020a0316611dfa565b610784611e4d565b610784600480360360a081101561103757600080fd5b50600160a060020a0381351690602081013590604081013590606081013590608001356118f0565b6108606004803603606081101561107557600080fd5b50600160a060020a038135169060208101359060400135611e55565b60608060608060606110a1611e5b565b509295509295909350565b6000806000806000806110bd611e5b565b5091939550919395565b60008060006110d4611e5b565b50909192565b60165460405182516060926000928492600160a060020a0390921691869190819060208401908083835b602083106111235780518252601f199092019160209182019101611104565b6001836020036101000a038019825116818451168082178552505050505050905001915050600060405180830381855af49150503d8060008114611183576040519150601f19603f3d011682016040523d82523d6000602084013e611188565b606091505b5091509150600082141561119d573d60208201fd5b9392505050565b6000806000806111b2611e5b565b5093509350935093565b6111c4611744565b611206576040805160e560020a62461bcd02815260206004820181905260248201526000805160206125c7833981519152604482015290519081900360640190fd5b60088054600160a060020a031916600160a060020a0392909216919091179055565b600354600091825260026020526040909120540190565b606080606080606061124f611e5b565b5091939590929450565b606060018054806020026020016040519081016040528092919081815260200182805480156112d357602002820191906000526020600020906000905b82829054906101000a900463ffffffff1663ffffffff16815260200190600401906020826003010492830192600103820291508084116112965790505b505050505090505b90565b6112e6611e5b565b505050565b60006112f5611e5b565b5090565b600854600160a060020a031690565b6000611312611e5b565b509392505050565b60606000606030600160a060020a0316846040516024018080602001828103825283818151815260200191508051906020019080838360005b8381101561136b578181015183820152602001611353565b50505050905090810190601f1680156113985780820380516001836020036101000a031916815260200191505b5060408051601f198184030181529181526020820180517bffffffffffffffffffffffffffffffffffffffffffffffffffffffff167f0933c1ed00000000000000000000000000000000000000000000000000000000178152905182519295509350839250908083835b602083106114215780518252601f199092019160209182019101611402565b6001836020036101000a038019825116818451168082178552505050505050905001915050600060405180830381855afa9150503d8060008114611481576040519150601f19603f3d011682016040523d82523d6000602084013e611486565b606091505b5091509150600082141561149b573d60208201fd5b8080602001905160208110156114b057600080fd5b81019080805160405193929190846401000000008211156114d057600080fd5b9083019060208201858111156114e557600080fd5b82516401000000008111828201881017156114ff57600080fd5b82525081516020918201929091019080838360005b8381101561152c578181015183820152602001611514565b50505050905090810190601f1680156115595780820380516001836020036101000a031916815260200191505b5060405250505092505050919050565b60035490565b6000806000806000806000611582611e5b565b50919395979092949650565b611596611744565b6115d8576040805160e560020a62461bcd02815260206004820181905260248201526000805160206125c7833981519152604482015290519081900360640190fd5b60078054600160a060020a031916600160a060020a0392909216919091179055565b6000611604611e5b565b5092915050565b601654600160a060020a031681565b600954600160a060020a031690565b6112e6611fad565b600061163b611e5b565b50919050565b611649611fad565b5050505050565b611658611744565b61169a576040805160e560020a62461bcd02815260206004820181905260248201526000805160206125c7833981519152604482015290519081900360640190fd5b60008054604051600160a060020a03909116907f8be0079c531659141344cd1fd0a4f28419497f9722a3daafe3b4186f6b6457e0908390a360008054600160a060020a0319169055565b60008060006116f1611e5b565b5093509350939050565b611703611e5b565b5050565b611703611fad565b600061163b611fad565b6000816004541015801561172f57508160055411155b92915050565b600054600160a060020a031690565b600054600160a060020a0316331490565b60606112f5611e5b565b611767611744565b6117a9576040805160e560020a62461bcd02815260206004820181905260248201526000805160206125c7833981519152604482015290519081900360640190fd5b600355565b6117b6611744565b6117f8576040805160e560020a62461bcd02815260206004820181905260248201526000805160206125c7833981519152604482015290519081900360640190fd5b611809600a8263ffffffff61203116565b50565b6000806000806060600080611582611e5b565b611827611744565b611869576040805160e560020a62461bcd02815260206004820181905260248201526000805160206125c7833981519152604482015290519081900360640190fd5b600591909155600455565b61187c611744565b6118be576040805160e560020a62461bcd02815260206004820181905260248201526000805160206125c7833981519152604482015290519081900360640190fd5b60098054600160a060020a031916600160a060020a0392909216919091179055565b6000806118eb611e5b565b509091565b6118f8611fad565b505050505050565b601654600160a060020a031690565b6000611919611744565b61195b576040805160e560020a62461bcd02815260206004820181905260248201526000805160206125c7833981519152604482015290519081900360640190fd5b61172f600a8363ffffffff6120c916565b611974611744565b6119b6576040805160e560020a62461bcd02815260206004820181905260248201526000805160206125c7833981519152604482015290519081900360640190fd5b61180960018263ffffffff6121b716565b600754600160a060020a031690565b6005546004549091565b6119e8611744565b611a2a576040805160e560020a62461bcd02815260206004820181905260248201526000805160206125c7833981519152604482015290519081900360640190fd5b60068054600160a060020a031916600160a060020a0392909216919091179055565b600654600160a060020a031690565b6000611a65611744565b611aa7576040805160e560020a62461bcd02815260206004820181905260248201526000805160206125c7833981519152604482015290519081900360640190fd5b61172f60018363ffffffff61227e16565b611ac0611744565b611b02576040805160e560020a62461bcd02815260206004820181905260248201526000805160206125c7833981519152604482015290519081900360640190fd5b60168054600160a060020a038316600160a060020a0319909116811790915560408051600481526024810182526020810180517bffffffffffffffffffffffffffffffffffffffffffffffffffffffff167fa2e6204500000000000000000000000000000000000000000000000000000000178152915181516000949382918083835b60208310611ba45780518252601f199092019160209182019101611b85565b6001836020036101000a038019825116818451168082178552505050505050905001915050600060405180830381855af49150503d8060008114611c04576040519150601f19603f3d011682016040523d82523d6000602084013e611c09565b606091505b505090508061170357600080fd5b600061172f826001805480602002602001604051908101604052809291908181526020018280548015611c9557602002820191906000526020600020906000905b82829054906101000a900463ffffffff1663ffffffff1681526020019060040190602082600301049283019260010382029150808411611c585790505b505050505061236e90919063ffffffff16565b611cb0611744565b611cf2576040805160e560020a62461bcd02815260206004820181905260248201526000805160206125c7833981519152604482015290519081900360640190fd5b805161170390600a9060208401906124a9565b611d0d611744565b611d4f576040805160e560020a62461bcd02815260206004820181905260248201526000805160206125c7833981519152604482015290519081900360640190fd5b80600a8381548110611d5d57fe5b9060005260206000200160006101000a815481600160a060020a030219169083600160a060020a031602179055505050565b606061163b611e5b565b6060600a8054806020026020016040519081016040528092919081815260200182805480156112d357602002820191906000526020600020905b8154600160a060020a03168152600190910190602001808311611dd3575050505050905090565b611e02611744565b611e44576040805160e560020a62461bcd02815260206004820181905260248201526000805160206125c7833981519152604482015290519081900360640190fd5b611809816123b7565b611809611fad565b60606113125b6060600030600160a060020a03166000366040516024018080602001828103825284848281815260200192508082843760008382015260408051601f909201601f1990811690940182810390940182529283526020810180517bffffffffffffffffffffffffffffffffffffffffffffffffffffffff167f0933c1ed0000000000000000000000000000000000000000000000000000000017815292518151919750955085945091925081905083835b60208310611f2a5780518252601f199092019160209182019101611f0b565b6001836020036101000a038019825116818451168082178552505050505050905001915050600060405180830381855afa9150503d8060008114611f8a576040519150601f19603f3d011682016040523d82523d6000602084013e611f8f565b606091505b505090506040513d6000823e818015611fa9573d60408301f35b3d82fd5b601654604051606091600091600160a060020a0390911690829036908083838082843760405192019450600093509091505080830381855af49150503d8060008114612015576040519150601f19603f3d011682016040523d82523d6000602084013e61201a565b606091505b505090506040513d6000823e818015611fa9573d82f35b6120948280548060200260200160405190810160405280929190818152602001828054801561208957602002820191906000526020600020905b8154600160a060020a0316815260019091019060200180831161206b575b50505050508261245a565b611703578154600181018355600083815260209020018054600160a060020a038316600160a060020a03199091161790555050565b8154600090815b818110156121165783600160a060020a03168582815481106120ee57fe5b600091825260209091200154600160a060020a0316141561210e57612116565b6001016120d0565b818110156121ac576001820381146121905784600183038154811061213757fe5b9060005260206000200160009054906101000a9004600160a060020a031685828154811061216157fe5b9060005260206000200160006101000a815481600160a060020a030219169083600160a060020a031602179055505b84546121a086600019830161250a565b5060019250505061172f565b506000949350505050565b61223c8280548060200260200160405190810160405280929190818152602001828054801561223157602002820191906000526020600020906000905b82829054906101000a900463ffffffff1663ffffffff16815260200190600401906020826003010492830192600103820291508084116121f45790505b50505050508261236e565b611703578154600181018355600092835260209092206008830401805460079093166004026101000a63ffffffff818102199094169290931692909202179055565b8154600090815b818110156122d7578363ffffffff168582815481106122a057fe5b6000918252602090912060088204015460079091166004026101000a900463ffffffff1614156122cf576122d7565b600101612285565b818110156121ac5760018203811461235e578460018303815481106122f857fe5b90600052602060002090600891828204019190066004029054906101000a900463ffffffff1685828154811061232a57fe5b90600052602060002090600891828204019190066004026101000a81548163ffffffff021916908363ffffffff1602179055505b84546121a086600019830161252e565b8151600090815b818110156121ac578363ffffffff1685828151811061239057fe5b602002602001015163ffffffff1614156123af5760019250505061172f565b600101612375565b600160a060020a0381166123ff5760405160e560020a62461bcd0281526004018080602001828103825260268152602001806125a16026913960400191505060405180910390fd5b60008054604051600160a060020a03808516939216917f8be0079c531659141344cd1fd0a4f28419497f9722a3daafe3b4186f6b6457e091a360008054600160a060020a031916600160a060020a0392909216919091179055565b8151600090815b818110156121ac5783600160a060020a031685828151811061247f57fe5b6020026020010151600160a060020a031614156124a15760019250505061172f565b600101612461565b8280548282559060005260206000209081019282156124fe579160200282015b828111156124fe5782518254600160a060020a031916600160a060020a039091161782556020909201916001909101906124c9565b506112f5929150612562565b8154818355818111156112e6576000838152602090206112e6918101908301612586565b8154818355818111156112e65760070160089004816007016008900483600052602060002091820191016112e69190612586565b6112db91905b808211156112f5578054600160a060020a0319168155600101612568565b6112db91905b808211156112f5576000815560010161258c56fe4f776e61626c653a206e6577206f776e657220697320746865207a65726f20616464726573734f776e61626c653a2063616c6c6572206973206e6f7420746865206f776e6572a265627a7a72315820ca9094eba437a95ffe84c96886831628a0994a8fcc01f0b041075f3422ac244664736f6c63430005100032",
  "source": "pragma solidity =0.5.16;\r\nimport \"./OptionsData.sol\";\r\nimport \"../Proxy/baseProxy.sol\";\r\n/**\r\n * @title  Erc20Delegator Contract\r\n\r\n */\r\ncontract OptionsProxy is OptionsData,baseProxy{\r\n        /**\r\n     * @dev constructor function , setting contract address.\r\n     *  oracleAddr FNX oracle contract address\r\n     *  optionsPriceAddr options price contract address\r\n     *  ivAddress implied volatility contract address\r\n     */  \r\n\r\n    constructor(address implementation_,address oracleAddr,address optionsPriceAddr,address ivAddress)\r\n         baseProxy(implementation_) public  {\r\n        _oracle = IFNXOracle(oracleAddr);\r\n        _optionsPrice = IOptionsPrice(optionsPriceAddr);\r\n        _volatility = IVolatility(ivAddress);\r\n    }\r\n    /**\r\n     * @dev retrieve user's options' id. \r\n     *  user user's account.\r\n     */     \r\n    function getUserOptionsID(address /*user*/)public view returns(uint256[] memory){\r\n        delegateToViewAndReturn();\r\n    }\r\n    /**\r\n     * @dev retrieve user's `size` number of options' id. \r\n     *  user user's account.\r\n     *  from user's option list begin positon.\r\n     *  size retrieve size.\r\n     */ \r\n    function getUserOptionsID(address /*user*/,uint256 /*from*/,uint256 /*size*/)public view returns(uint256[] memory){\r\n        delegateToViewAndReturn();\r\n    }\r\n    /**\r\n     * @dev retrieve all option list length. \r\n     */ \r\n    function getOptionInfoLength()public view returns (uint256){\r\n        delegateToViewAndReturn();\r\n    }\r\n    /**\r\n     * @dev retrieve `size` number of options' information. \r\n     *  from all option list begin positon.\r\n     *  size retrieve size.\r\n     */     \r\n    function getOptionInfoList(uint256 /*from*/,uint256 /*size*/)public view \r\n                returns(address[] memory,uint256[] memory,uint256[] memory,uint256[] memory,uint256[] memory){\r\n        delegateToViewAndReturn();\r\n    }\r\n    /**\r\n     * @dev retrieve given `ids` options' information. \r\n     *  ids retrieved options' id.\r\n     */   \r\n    function getOptionInfoListFromID(uint256[] memory /*ids*/)public view \r\n                returns(address[] memory,uint256[] memory,uint256[] memory,uint256[] memory,uint256[] memory){\r\n        delegateToViewAndReturn();\r\n    }\r\n    /**\r\n     * @dev retrieve given `optionsId` option's burned limit timestamp. \r\n     *  optionsId retrieved option's id.\r\n     */ \r\n    function getOptionsLimitTimeById(uint256 /*optionsId*/)public view returns(uint256){\r\n        delegateToViewAndReturn();\r\n    }\r\n    /**\r\n     * @dev retrieve given `optionsId` option's information. \r\n     *  optionsId retrieved option's id.\r\n     */ \r\n    function getOptionsById(uint256 /*optionsId*/)public view returns(uint256,address,uint8,uint32,uint256,uint256,uint256){\r\n        delegateToViewAndReturn();\r\n    }\r\n    /**\r\n     * @dev retrieve given `optionsId` option's extra information. \r\n     *  optionsId retrieved option's id.\r\n     */\r\n    function getOptionsExtraById(uint256 /*optionsId*/)public view returns(address,uint256,uint256,uint256,uint256,uint256){\r\n        delegateToViewAndReturn();\r\n    }\r\n    /**\r\n     * @dev calculate option's exercise worth.\r\n     *  optionsId option's id\r\n     *  amount option's amount\r\n     */\r\n    function getExerciseWorth(uint256 /*optionsId*/,uint256 /*amount*/)public view returns(uint256){\r\n        delegateToViewAndReturn();\r\n    }\r\n    /**\r\n     * @dev check option's underlying and expiration.\r\n     *  expiration option's expiration\r\n     *  underlying option's underlying\r\n     */\r\n    function buyOptionCheck(uint256 /*expiration*/,uint32 /*underlying*/)public view{\r\n        delegateToViewAndReturn();\r\n    }\r\n    /**\r\n     * @dev Implementation of add an eligible expiration into the expirationList.\r\n     *  expiration new eligible expiration.\r\n     */\r\n    function addExpiration(uint256 /*expiration*/)public{\r\n        delegateAndReturn();\r\n    }\r\n    /**\r\n     * @dev Implementation of revoke an invalid expiration from the expirationList.\r\n     *  removeExpiration revoked expiration.\r\n     */\r\n    function removeExpirationList(uint256 /*removeExpiration*/)public returns(bool) {\r\n        delegateAndReturn();\r\n    }\r\n    /**\r\n     * @dev Implementation of getting the eligible expirationList.\r\n     */\r\n    function getExpirationList()public view returns (uint256[] memory){\r\n        delegateToViewAndReturn();\r\n    }\r\n    /**\r\n     * @dev Implementation of testing whether the input expiration is eligible.\r\n     *  expiration input expiration for testing.\r\n     */    \r\n    function isEligibleExpiration(uint256 /*expiration*/) public view returns (bool){\r\n        delegateToViewAndReturn();\r\n    }\r\n    /**\r\n     * @dev check option's expiration.\r\n     *  expiration option's expiration\r\n     */\r\n    function checkExpiration(uint256 /*expiration*/) public view{\r\n        delegateToViewAndReturn();\r\n    }\r\n    /**\r\n     * @dev calculate `amount` number of Option's full price when option is burned.\r\n     *  optionID  option's optionID\r\n     *  amount  option's amount\r\n     */\r\n    function getBurnedFullPay(uint256 /*optionID*/,uint256 /*amount*/) public view returns(uint256){\r\n        delegateToViewAndReturn();\r\n    }\r\n        /**\r\n     * @dev retrieve collateral occupied calculation information.\r\n     */    \r\n    function getOccupiedCalInfo()public view returns(uint256,int256,int256){\r\n        delegateToViewAndReturn();\r\n    }\r\n    /**\r\n     * @dev calculate collateral occupied value, and modify database, only foundation operator can modify database.\r\n     */  \r\n    function setOccupiedCollateral() public {\r\n        delegateAndReturn();\r\n    }\r\n    /**\r\n     * @dev calculate collateral occupied value.\r\n     *  lastOption last option's position.\r\n     *  beginOption begin option's poisiton.\r\n     *  endOption end option's poisiton.\r\n     */  \r\n    function calculatePhaseOccupiedCollateral(uint256 /*lastOption*/,uint256 /*beginOption*/,uint256 /*endOption*/) public view returns(uint256,uint256,uint256,bool){\r\n        delegateToViewAndReturn();\r\n    }\r\n \r\n    /**\r\n     * @dev set collateral occupied value, only foundation operator can modify database.\r\n     * totalCallOccupied new call options occupied collateral calculation result.\r\n     * totalPutOccupied new put options occupied collateral calculation result.\r\n     * beginOption new first valid option's positon.\r\n     * latestCallOccpied latest call options' occupied value when operater invoke collateral occupied calculation.\r\n     * latestPutOccpied latest put options' occupied value when operater invoke collateral occupied calculation.\r\n     */  \r\n    function setCollateralPhase(uint256 /*totalCallOccupied*/,uint256 /*totalPutOccupied*/,\r\n        uint256 /*beginOption*/,int256 /*latestCallOccpied*/,int256 /*latestPutOccpied*/) public{\r\n        delegateAndReturn();\r\n    }\r\n    /**\r\n     * @dev get call options total collateral occupied value.\r\n     */ \r\n    function getCallTotalOccupiedCollateral() public view returns (uint256) {\r\n        delegateToViewAndReturn();\r\n    }\r\n    /**\r\n     * @dev get put options total collateral occupied value.\r\n     */ \r\n    function getPutTotalOccupiedCollateral() public view returns (uint256) {\r\n        delegateToViewAndReturn();\r\n    }\r\n    /**\r\n     * @dev get real total collateral occupied value.\r\n     */ \r\n    function getTotalOccupiedCollateral() public view returns (uint256) {\r\n        delegateToViewAndReturn();\r\n    }\r\n    /**\r\n     * @dev retrieve all information for net worth calculation. \r\n     *  whiteList collateral address whitelist.\r\n     */ \r\n    function getNetWrothCalInfo()public view returns(uint256,int256){\r\n        delegateToViewAndReturn();\r\n    }\r\n    /**\r\n     * @dev retrieve latest options net worth which paid in settlement coin. \r\n     *  settlement settlement coin address.\r\n     */ \r\n    function getNetWrothLatestWorth()public view returns(int256){\r\n        delegateToViewAndReturn();\r\n    }\r\n    /**\r\n     * @dev set latest options net worth balance, only manager contract can modify database.\r\n     *  newFirstOption new first valid option position.\r\n     *  latestNetWorth latest options net worth.\r\n     *  whiteList eligible collateral address white list.\r\n     */ \r\n    function setSharedState(uint256 /*newFirstOption*/,int256 /*latestNetWorth*/) public{\r\n        delegateAndReturn();\r\n    }\r\n    /**\r\n     * @dev calculate options time shared value,from begin to end in the alloptionsList.\r\n     *  lastOption the last option position.\r\n     *  begin the begin options position.\r\n     *  end the end options position.\r\n     *  whiteList eligible collateral address white list.\r\n     */\r\n    function calRangeSharedPayment(uint256 /*lastOption*/,uint256 /*begin*/,uint256 /*end*/)\r\n            public view returns(int256,uint256,uint256){\r\n        delegateToViewAndReturn();\r\n    }\r\n    /**\r\n     * @dev calculate options payback fall value,from begin to end in the alloptionsList.\r\n     *  lastOption the last option position.\r\n     *  begin the begin options position.\r\n     *  end the end options position.\r\n     *  whiteList eligible collateral address white list.\r\n     */\r\n    function calculatePhaseOptionsFall(uint256 /*lastOption*/,uint256 /*begin*/,uint256 /*end*/) public view returns(int256){\r\n        delegateToViewAndReturn();\r\n    }\r\n\r\n    /**\r\n     * @dev retrieve all information for collateral occupied and net worth calculation.\r\n     *  whiteList settlement address whitelist.\r\n     */ \r\n    function getOptionCalRangeAll(address[] memory /*whiteList*/)public view returns(uint256,int256,int256,uint256,int256[] memory,uint256,uint256){\r\n        delegateToViewAndReturn();\r\n    }\r\n    /**\r\n     * @dev create new option,modify collateral occupied and net worth value, only manager contract can invoke this.\r\n     *  from user's address.\r\n     *  settlement user's input settlement coin.\r\n     *  type_ly_exp tuple64 for option type,underlying,expiration.\r\n     *  strikePrice user's input new option's strike price.\r\n     *  optionPrice current new option's price, calculated by options price contract.\r\n     *  amount user's input new option's amount.\r\n     */ \r\n    function createOptions(address /*from*/,uint256 /*type_ly_exp*/,uint256 /*strikePrice*/,uint256 /*optionPrice*/,\r\n                uint256 /*amount*/) public {\r\n        delegateAndReturn();\r\n    }\r\n    /**\r\n     * @dev burn option,modify collateral occupied and net worth value, only manager contract can invoke this.\r\n     *  from user's address.\r\n     *  id user's input option's id.\r\n     *  amount user's input burned option's amount.\r\n     *  optionPrice current new option's price, calculated by options price contract.\r\n     */ \r\n    function burnOptions(address /*from*/,uint256 /*id*/,uint256 /*amount*/,uint256 /*optionPrice*/)public{\r\n        delegateAndReturn();\r\n    }\r\n}\r\n",
  "sourcePath": "C:\\work\\solidity\\finnexusOptions_V2.1\\contracts\\OptionsPool\\OptionsProxy.sol",
  "compiler": {
    "name": "solc",
    "version": "0.5.16+commit.9c3226ce.Emscripten.clang"
  },
  "schemaVersion": "3.1.0",
  "updatedAt": "2020-10-24T10:45:23.344Z",
  "devdoc": {
    "methods": {
      "addExpiration(uint256)": {
        "details": "Implementation of add an eligible expiration into the expirationList. expiration new eligible expiration."
      },
      "addOperator(address)": {
        "details": "add a new operator by owner.       "
      },
      "addUnderlyingAsset(uint32)": {
        "details": "Implementation of add an eligible underlying into the underlyingAssets.",
        "params": {
          "underlying": "new eligible underlying."
        }
      },
      "burnOptions(address,uint256,uint256,uint256)": {
        "details": "burn option,modify collateral occupied and net worth value, only manager contract can invoke this. from user's address. id user's input option's id. amount user's input burned option's amount. optionPrice current new option's price, calculated by options price contract."
      },
      "buyOptionCheck(uint256,uint32)": {
        "details": "check option's underlying and expiration. expiration option's expiration underlying option's underlying"
      },
      "calRangeSharedPayment(uint256,uint256,uint256)": {
        "details": "calculate options time shared value,from begin to end in the alloptionsList. lastOption the last option position. begin the begin options position. end the end options position. whiteList eligible collateral address white list."
      },
      "calculatePhaseOccupiedCollateral(uint256,uint256,uint256)": {
        "details": "calculate collateral occupied value. lastOption last option's position. beginOption begin option's poisiton. endOption end option's poisiton."
      },
      "calculatePhaseOptionsFall(uint256,uint256,uint256)": {
        "details": "calculate options payback fall value,from begin to end in the alloptionsList. lastOption the last option position. begin the begin options position. end the end options position. whiteList eligible collateral address white list."
      },
      "checkExpiration(uint256)": {
        "details": "check option's expiration. expiration option's expiration"
      },
      "constructor": {
        "details": "constructor function , setting contract address. oracleAddr FNX oracle contract address optionsPriceAddr options price contract address ivAddress implied volatility contract address"
      },
      "createOptions(address,uint256,uint256,uint256,uint256)": {
        "details": "create new option,modify collateral occupied and net worth value, only manager contract can invoke this. from user's address. settlement user's input settlement coin. type_ly_exp tuple64 for option type,underlying,expiration. strikePrice user's input new option's strike price. optionPrice current new option's price, calculated by options price contract. amount user's input new option's amount."
      },
      "delegateToImplementation(bytes)": {
        "details": "It returns to the external caller whatever the implementation returns or forwards reverts",
        "params": {
          "data": "The raw data to delegatecall"
        },
        "return": "The returned bytes from the delegatecall"
      },
      "delegateToViewImplementation(bytes)": {
        "details": "It returns to the external caller whatever the implementation returns or forwards reverts There are an additional 2 prefix uints from the wrapper returndata, which we ignore since we make an extra hop.",
        "params": {
          "data": "The raw data to delegatecall"
        },
        "return": "The returned bytes from the delegatecall"
      },
      "getBurnedFullPay(uint256,uint256)": {
        "details": "calculate `amount` number of Option's full price when option is burned. optionID  option's optionID amount  option's amount"
      },
      "getCallTotalOccupiedCollateral()": {
        "details": "get call options total collateral occupied value."
      },
      "getExerciseWorth(uint256,uint256)": {
        "details": "calculate option's exercise worth. optionsId option's id amount option's amount"
      },
      "getExpirationList()": {
        "details": "Implementation of getting the eligible expirationList."
      },
      "getInputAmountRange()": {
        "details": "get the valid range of input amount"
      },
      "getItemTimeLimitation(uint256)": {
        "details": "Retrieve user's start time for burning. ",
        "params": {
          "item": "item key."
        }
      },
      "getManager()": {
        "details": "get manager address.       "
      },
      "getNetWrothCalInfo()": {
        "details": "retrieve all information for net worth calculation.  whiteList collateral address whitelist."
      },
      "getNetWrothLatestWorth()": {
        "details": "retrieve latest options net worth which paid in settlement coin.  settlement settlement coin address."
      },
      "getOccupiedCalInfo()": {
        "details": "retrieve collateral occupied calculation information."
      },
      "getOperator()": {
        "details": "get all operators.       "
      },
      "getOptionCalRangeAll(address[])": {
        "details": "retrieve all information for collateral occupied and net worth calculation. whiteList settlement address whitelist."
      },
      "getOptionInfoLength()": {
        "details": "retrieve all option list length. "
      },
      "getOptionInfoList(uint256,uint256)": {
        "details": "retrieve `size` number of options' information.  from all option list begin positon. size retrieve size."
      },
      "getOptionInfoListFromID(uint256[])": {
        "details": "retrieve given `ids` options' information.  ids retrieved options' id."
      },
      "getOptionsById(uint256)": {
        "details": "retrieve given `optionsId` option's information.  optionsId retrieved option's id."
      },
      "getOptionsExtraById(uint256)": {
        "details": "retrieve given `optionsId` option's extra information.  optionsId retrieved option's id."
      },
      "getOptionsLimitTimeById(uint256)": {
        "details": "retrieve given `optionsId` option's burned limit timestamp.  optionsId retrieved option's id."
      },
      "getPutTotalOccupiedCollateral()": {
        "details": "get put options total collateral occupied value."
      },
      "getTotalOccupiedCollateral()": {
        "details": "get real total collateral occupied value."
      },
      "getUnderlyingAssets()": {
        "details": "Implementation of getting the eligible underlyingAssets."
      },
      "getUserOptionsID(address)": {
        "details": "retrieve user's options' id.  user user's account."
      },
      "getUserOptionsID(address,uint256,uint256)": {
        "details": "retrieve user's `size` number of options' id.  user user's account. from user's option list begin positon. size retrieve size."
      },
      "isEligibleExpiration(uint256)": {
        "details": "Implementation of testing whether the input expiration is eligible. expiration input expiration for testing."
      },
      "isEligibleUnderlyingAsset(uint32)": {
        "details": "Implementation of testing whether the input underlying is eligible.",
        "params": {
          "underlying": "input underlying for testing."
        }
      },
      "isInputAmountInRange(uint256)": {
        "details": "Determine whether the input amount is within the valid range",
        "params": {
          "Amount": "Test value which is user input"
        }
      },
      "isOwner()": {
        "details": "Returns true if the caller is the current owner."
      },
      "owner()": {
        "details": "Returns the address of the current owner."
      },
      "removeExpirationList(uint256)": {
        "details": "Implementation of revoke an invalid expiration from the expirationList. removeExpiration revoked expiration."
      },
      "removeOperator(address)": {
        "details": "remove operator by owner.       "
      },
      "removeUnderlyingAssets(uint32)": {
        "details": "Implementation of revoke an invalid underlying from the underlyingAssets.",
        "params": {
          "removeUnderlying": "revoked underlying."
        }
      },
      "renounceOwnership()": {
        "details": "Leaves the contract without owner. It will not be possible to call `onlyOwner` functions anymore. Can only be called by the current owner.      * NOTE: Renouncing ownership will leave the contract without an owner, thereby removing any functionality that is only available to the owner."
      },
      "setCollateralPhase(uint256,uint256,uint256,int256,int256)": {
        "details": "set collateral occupied value, only foundation operator can modify database. totalCallOccupied new call options occupied collateral calculation result. totalPutOccupied new put options occupied collateral calculation result. beginOption new first valid option's positon. latestCallOccpied latest call options' occupied value when operater invoke collateral occupied calculation. latestPutOccpied latest put options' occupied value when operater invoke collateral occupied calculation."
      },
      "setInputAmountRange(uint256,uint256)": {
        "details": "set the valid range of input amount",
        "params": {
          "_maxAmount": "the maximum input amount limit",
          "_minAmount": "the minimum input amount limit"
        }
      },
      "setManager(address)": {
        "details": "set manager by owner.       "
      },
      "setOccupiedCollateral()": {
        "details": "calculate collateral occupied value, and modify database, only foundation operator can modify database."
      },
      "setOperator(uint256,address)": {
        "details": "modify indexed operator by owner.       "
      },
      "setOperators(address[])": {
        "details": "set all operators by owner.       "
      },
      "setSharedState(uint256,int256)": {
        "details": "set latest options net worth balance, only manager contract can modify database. newFirstOption new first valid option position. latestNetWorth latest options net worth. whiteList eligible collateral address white list."
      },
      "setTimeLimitation(uint256)": {
        "details": "set time limitation, only owner can invoke. ",
        "params": {
          "_limitation": "new time limitation."
        }
      },
      "transferOwnership(address)": {
        "details": "Transfers ownership of the contract to a new account (`newOwner`). Can only be called by the current owner."
      }
    },
    "title": "Erc20Delegator Contract"
  },
  "userdoc": {
    "methods": {
      "delegateToImplementation(bytes)": {
        "notice": "Delegates execution to the implementation contract"
      },
      "delegateToViewImplementation(bytes)": {
        "notice": "Delegates execution to an implementation contract"
      }
    }
  }
}