{
  "contractName": "OptionsPool",
  "abi": [
    {
      "inputs": [
        {
          "internalType": "address",
          "name": "oracleAddr",
          "type": "address"
        },
        {
          "internalType": "address",
          "name": "optionsPriceAddr",
          "type": "address"
        },
        {
          "internalType": "address",
          "name": "ivAddress",
          "type": "address"
        }
      ],
      "payable": false,
      "stateMutability": "nonpayable",
      "type": "constructor"
    },
    {
      "anonymous": false,
      "inputs": [
        {
          "indexed": true,
          "internalType": "address",
          "name": "owner",
          "type": "address"
        },
        {
          "indexed": true,
          "internalType": "uint256",
          "name": "optionID",
          "type": "uint256"
        },
        {
          "indexed": false,
          "internalType": "uint256",
          "name": "amount",
          "type": "uint256"
        }
      ],
      "name": "BurnOption",
      "type": "event"
    },
    {
      "anonymous": false,
      "inputs": [
        {
          "indexed": true,
          "internalType": "address",
          "name": "owner",
          "type": "address"
        },
        {
          "indexed": true,
          "internalType": "uint256",
          "name": "optionID",
          "type": "uint256"
        },
        {
          "indexed": false,
          "internalType": "uint8",
          "name": "optType",
          "type": "uint8"
        },
        {
          "indexed": false,
          "internalType": "uint32",
          "name": "underlying",
          "type": "uint32"
        },
        {
          "indexed": false,
          "internalType": "uint256",
          "name": "expiration",
          "type": "uint256"
        },
        {
          "indexed": false,
          "internalType": "uint256",
          "name": "strikePrice",
          "type": "uint256"
        },
        {
          "indexed": false,
          "internalType": "uint256",
          "name": "amount",
          "type": "uint256"
        }
      ],
      "name": "CreateOption",
      "type": "event"
    },
    {
      "anonymous": false,
      "inputs": [
        {
          "indexed": false,
          "internalType": "uint256",
          "name": "id",
          "type": "uint256"
        },
        {
          "indexed": false,
          "internalType": "uint256",
          "name": "value1",
          "type": "uint256"
        },
        {
          "indexed": false,
          "internalType": "uint256",
          "name": "value2",
          "type": "uint256"
        }
      ],
      "name": "DebugEvent",
      "type": "event"
    },
    {
      "anonymous": false,
      "inputs": [
        {
          "indexed": true,
          "internalType": "address",
          "name": "previousOwner",
          "type": "address"
        },
        {
          "indexed": true,
          "internalType": "address",
          "name": "newOwner",
          "type": "address"
        }
      ],
      "name": "OwnershipTransferred",
      "type": "event"
    },
    {
      "constant": false,
      "inputs": [
        {
          "internalType": "uint32",
          "name": "expiration",
          "type": "uint32"
        }
      ],
      "name": "addExpiration",
      "outputs": [],
      "payable": false,
      "stateMutability": "nonpayable",
      "type": "function"
    },
    {
      "constant": false,
      "inputs": [
        {
          "internalType": "address",
          "name": "addAddress",
          "type": "address"
        }
      ],
      "name": "addOperator",
      "outputs": [],
      "payable": false,
      "stateMutability": "nonpayable",
      "type": "function"
    },
    {
      "constant": false,
      "inputs": [
        {
          "internalType": "uint32",
          "name": "underlying",
          "type": "uint32"
        }
      ],
      "name": "addUnderlyingAsset",
      "outputs": [],
      "payable": false,
      "stateMutability": "nonpayable",
      "type": "function"
    },
    {
      "constant": true,
      "inputs": [
        {
          "internalType": "uint32",
          "name": "expiration",
          "type": "uint32"
        },
        {
          "internalType": "uint32",
          "name": "underlying",
          "type": "uint32"
        }
      ],
      "name": "buyOptionCheck",
      "outputs": [],
      "payable": false,
      "stateMutability": "view",
      "type": "function"
    },
    {
      "constant": true,
      "inputs": [
        {
          "internalType": "uint256",
          "name": "lastOption",
          "type": "uint256"
        },
        {
          "internalType": "uint256",
          "name": "begin",
          "type": "uint256"
        },
        {
          "internalType": "uint256",
          "name": "end",
          "type": "uint256"
        }
      ],
      "name": "calRangeSharedPayment",
      "outputs": [
        {
          "internalType": "int256",
          "name": "",
          "type": "int256"
        },
        {
          "internalType": "uint256",
          "name": "",
          "type": "uint256"
        },
        {
          "internalType": "uint256",
          "name": "",
          "type": "uint256"
        }
      ],
      "payable": false,
      "stateMutability": "view",
      "type": "function"
    },
    {
      "constant": true,
      "inputs": [
        {
          "internalType": "uint256",
          "name": "lastOption",
          "type": "uint256"
        },
        {
          "internalType": "uint256",
          "name": "beginOption",
          "type": "uint256"
        },
        {
          "internalType": "uint256",
          "name": "endOption",
          "type": "uint256"
        }
      ],
      "name": "calculatePhaseOccupiedCollateral",
      "outputs": [
        {
          "internalType": "uint256",
          "name": "",
          "type": "uint256"
        },
        {
          "internalType": "uint256",
          "name": "",
          "type": "uint256"
        },
        {
          "internalType": "uint256",
          "name": "",
          "type": "uint256"
        },
        {
          "internalType": "bool",
          "name": "",
          "type": "bool"
        }
      ],
      "payable": false,
      "stateMutability": "view",
      "type": "function"
    },
    {
      "constant": true,
      "inputs": [
        {
          "internalType": "uint256",
          "name": "lastOption",
          "type": "uint256"
        },
        {
          "internalType": "uint256",
          "name": "begin",
          "type": "uint256"
        },
        {
          "internalType": "uint256",
          "name": "end",
          "type": "uint256"
        }
      ],
      "name": "calculatePhaseOptionsFall",
      "outputs": [
        {
          "internalType": "int256",
          "name": "",
          "type": "int256"
        }
      ],
      "payable": false,
      "stateMutability": "view",
      "type": "function"
    },
    {
      "constant": true,
      "inputs": [
        {
          "internalType": "uint256",
          "name": "optionID",
          "type": "uint256"
        },
        {
          "internalType": "uint256",
          "name": "amount",
          "type": "uint256"
        }
      ],
      "name": "getBurnedFullPay",
      "outputs": [
        {
          "internalType": "uint256",
          "name": "",
          "type": "uint256"
        }
      ],
      "payable": false,
      "stateMutability": "view",
      "type": "function"
    },
    {
      "constant": true,
      "inputs": [],
      "name": "getCallTotalOccupiedCollateral",
      "outputs": [
        {
          "internalType": "uint256",
          "name": "",
          "type": "uint256"
        }
      ],
      "payable": false,
      "stateMutability": "view",
      "type": "function"
    },
    {
      "constant": true,
      "inputs": [
        {
          "internalType": "uint256",
          "name": "optionsId",
          "type": "uint256"
        },
        {
          "internalType": "uint256",
          "name": "amount",
          "type": "uint256"
        }
      ],
      "name": "getExerciseWorth",
      "outputs": [
        {
          "internalType": "uint256",
          "name": "",
          "type": "uint256"
        }
      ],
      "payable": false,
      "stateMutability": "view",
      "type": "function"
    },
    {
      "constant": true,
      "inputs": [],
      "name": "getExpirationList",
      "outputs": [
        {
          "internalType": "uint32[]",
          "name": "",
          "type": "uint32[]"
        }
      ],
      "payable": false,
      "stateMutability": "view",
      "type": "function"
    },
    {
      "constant": true,
      "inputs": [],
      "name": "getInputAmountRange",
      "outputs": [
        {
          "internalType": "uint256",
          "name": "",
          "type": "uint256"
        },
        {
          "internalType": "uint256",
          "name": "",
          "type": "uint256"
        }
      ],
      "payable": false,
      "stateMutability": "view",
      "type": "function"
    },
    {
      "constant": true,
      "inputs": [
        {
          "internalType": "uint256",
          "name": "item",
          "type": "uint256"
        }
      ],
      "name": "getItemTimeLimitation",
      "outputs": [
        {
          "internalType": "uint256",
          "name": "",
          "type": "uint256"
        }
      ],
      "payable": false,
      "stateMutability": "view",
      "type": "function"
    },
    {
      "constant": true,
      "inputs": [],
      "name": "getManager",
      "outputs": [
        {
          "internalType": "address",
          "name": "",
          "type": "address"
        }
      ],
      "payable": false,
      "stateMutability": "view",
      "type": "function"
    },
    {
      "constant": true,
      "inputs": [],
      "name": "getNetWrothCalInfo",
      "outputs": [
        {
          "internalType": "uint256",
          "name": "",
          "type": "uint256"
        },
        {
          "internalType": "int256",
          "name": "",
          "type": "int256"
        }
      ],
      "payable": false,
      "stateMutability": "view",
      "type": "function"
    },
    {
      "constant": true,
      "inputs": [],
      "name": "getNetWrothLatestWorth",
      "outputs": [
        {
          "internalType": "int256",
          "name": "",
          "type": "int256"
        }
      ],
      "payable": false,
      "stateMutability": "view",
      "type": "function"
    },
    {
      "constant": true,
      "inputs": [],
      "name": "getOccupiedCalInfo",
      "outputs": [
        {
          "internalType": "uint256",
          "name": "",
          "type": "uint256"
        },
        {
          "internalType": "int256",
          "name": "",
          "type": "int256"
        },
        {
          "internalType": "int256",
          "name": "",
          "type": "int256"
        }
      ],
      "payable": false,
      "stateMutability": "view",
      "type": "function"
    },
    {
      "constant": true,
      "inputs": [],
      "name": "getOperator",
      "outputs": [
        {
          "internalType": "address[]",
          "name": "",
          "type": "address[]"
        }
      ],
      "payable": false,
      "stateMutability": "view",
      "type": "function"
    },
    {
      "constant": true,
      "inputs": [],
      "name": "getOptionInfoLength",
      "outputs": [
        {
          "internalType": "uint256",
          "name": "",
          "type": "uint256"
        }
      ],
      "payable": false,
      "stateMutability": "view",
      "type": "function"
    },
    {
      "constant": true,
      "inputs": [
        {
          "internalType": "uint256",
          "name": "from",
          "type": "uint256"
        },
        {
          "internalType": "uint256",
          "name": "size",
          "type": "uint256"
        }
      ],
      "name": "getOptionInfoList",
      "outputs": [
        {
          "internalType": "address[]",
          "name": "",
          "type": "address[]"
        },
        {
          "internalType": "uint256[]",
          "name": "",
          "type": "uint256[]"
        },
        {
          "internalType": "uint256[]",
          "name": "",
          "type": "uint256[]"
        },
        {
          "internalType": "uint256[]",
          "name": "",
          "type": "uint256[]"
        },
        {
          "internalType": "uint256[]",
          "name": "",
          "type": "uint256[]"
        }
      ],
      "payable": false,
      "stateMutability": "view",
      "type": "function"
    },
    {
      "constant": true,
      "inputs": [
        {
          "internalType": "uint256[]",
          "name": "ids",
          "type": "uint256[]"
        }
      ],
      "name": "getOptionInfoListFromID",
      "outputs": [
        {
          "internalType": "address[]",
          "name": "",
          "type": "address[]"
        },
        {
          "internalType": "uint256[]",
          "name": "",
          "type": "uint256[]"
        },
        {
          "internalType": "uint256[]",
          "name": "",
          "type": "uint256[]"
        },
        {
          "internalType": "uint256[]",
          "name": "",
          "type": "uint256[]"
        },
        {
          "internalType": "uint256[]",
          "name": "",
          "type": "uint256[]"
        }
      ],
      "payable": false,
      "stateMutability": "view",
      "type": "function"
    },
    {
      "constant": true,
      "inputs": [
        {
          "internalType": "uint256",
          "name": "optionsId",
          "type": "uint256"
        }
      ],
      "name": "getOptionsById",
      "outputs": [
        {
          "internalType": "uint256",
          "name": "",
          "type": "uint256"
        },
        {
          "internalType": "address",
          "name": "",
          "type": "address"
        },
        {
          "internalType": "uint8",
          "name": "",
          "type": "uint8"
        },
        {
          "internalType": "uint32",
          "name": "",
          "type": "uint32"
        },
        {
          "internalType": "uint256",
          "name": "",
          "type": "uint256"
        },
        {
          "internalType": "uint256",
          "name": "",
          "type": "uint256"
        },
        {
          "internalType": "uint256",
          "name": "",
          "type": "uint256"
        }
      ],
      "payable": false,
      "stateMutability": "view",
      "type": "function"
    },
    {
      "constant": true,
      "inputs": [
        {
          "internalType": "uint256",
          "name": "optionsId",
          "type": "uint256"
        }
      ],
      "name": "getOptionsLimitTimeById",
      "outputs": [
        {
          "internalType": "uint256",
          "name": "",
          "type": "uint256"
        }
      ],
      "payable": false,
      "stateMutability": "view",
      "type": "function"
    },
    {
      "constant": true,
      "inputs": [],
      "name": "getOptionsPriceAddress",
      "outputs": [
        {
          "internalType": "address",
          "name": "",
          "type": "address"
        }
      ],
      "payable": false,
      "stateMutability": "view",
      "type": "function"
    },
    {
      "constant": true,
      "inputs": [],
      "name": "getOracleAddress",
      "outputs": [
        {
          "internalType": "address",
          "name": "",
          "type": "address"
        }
      ],
      "payable": false,
      "stateMutability": "view",
      "type": "function"
    },
    {
      "constant": true,
      "inputs": [],
      "name": "getPutTotalOccupiedCollateral",
      "outputs": [
        {
          "internalType": "uint256",
          "name": "",
          "type": "uint256"
        }
      ],
      "payable": false,
      "stateMutability": "view",
      "type": "function"
    },
    {
      "constant": true,
      "inputs": [],
      "name": "getTimeLimitation",
      "outputs": [
        {
          "internalType": "uint256",
          "name": "",
          "type": "uint256"
        }
      ],
      "payable": false,
      "stateMutability": "view",
      "type": "function"
    },
    {
      "constant": true,
      "inputs": [],
      "name": "getTotalOccupiedCollateral",
      "outputs": [
        {
          "internalType": "uint256",
          "name": "",
          "type": "uint256"
        }
      ],
      "payable": false,
      "stateMutability": "view",
      "type": "function"
    },
    {
      "constant": true,
      "inputs": [],
      "name": "getUnderlyingAssets",
      "outputs": [
        {
          "internalType": "uint32[]",
          "name": "",
          "type": "uint32[]"
        }
      ],
      "payable": false,
      "stateMutability": "view",
      "type": "function"
    },
    {
      "constant": true,
      "inputs": [
        {
          "internalType": "address",
          "name": "user",
          "type": "address"
        }
      ],
      "name": "getUserOptionsID",
      "outputs": [
        {
          "internalType": "uint64[]",
          "name": "",
          "type": "uint64[]"
        }
      ],
      "payable": false,
      "stateMutability": "view",
      "type": "function"
    },
    {
      "constant": true,
      "inputs": [
        {
          "internalType": "address",
          "name": "user",
          "type": "address"
        },
        {
          "internalType": "uint256",
          "name": "from",
          "type": "uint256"
        },
        {
          "internalType": "uint256",
          "name": "size",
          "type": "uint256"
        }
      ],
      "name": "getUserOptionsID",
      "outputs": [
        {
          "internalType": "uint64[]",
          "name": "",
          "type": "uint64[]"
        }
      ],
      "payable": false,
      "stateMutability": "view",
      "type": "function"
    },
    {
      "constant": true,
      "inputs": [],
      "name": "getVolatilityAddress",
      "outputs": [
        {
          "internalType": "address",
          "name": "",
          "type": "address"
        }
      ],
      "payable": false,
      "stateMutability": "view",
      "type": "function"
    },
    {
      "constant": false,
      "inputs": [],
      "name": "initialize",
      "outputs": [],
      "payable": false,
      "stateMutability": "nonpayable",
      "type": "function"
    },
    {
      "constant": true,
      "inputs": [
        {
          "internalType": "uint32",
          "name": "underlying",
          "type": "uint32"
        }
      ],
      "name": "isEligibleUnderlyingAsset",
      "outputs": [
        {
          "internalType": "bool",
          "name": "",
          "type": "bool"
        }
      ],
      "payable": false,
      "stateMutability": "view",
      "type": "function"
    },
    {
      "constant": true,
      "inputs": [
        {
          "internalType": "uint256",
          "name": "Amount",
          "type": "uint256"
        }
      ],
      "name": "isInputAmountInRange",
      "outputs": [
        {
          "internalType": "bool",
          "name": "",
          "type": "bool"
        }
      ],
      "payable": false,
      "stateMutability": "view",
      "type": "function"
    },
    {
      "constant": true,
      "inputs": [],
      "name": "isOwner",
      "outputs": [
        {
          "internalType": "bool",
          "name": "",
          "type": "bool"
        }
      ],
      "payable": false,
      "stateMutability": "view",
      "type": "function"
    },
    {
      "constant": true,
      "inputs": [],
      "name": "owner",
      "outputs": [
        {
          "internalType": "address",
          "name": "",
          "type": "address"
        }
      ],
      "payable": false,
      "stateMutability": "view",
      "type": "function"
    },
    {
      "constant": false,
      "inputs": [
        {
          "internalType": "uint32",
          "name": "removeExpiration",
          "type": "uint32"
        }
      ],
      "name": "removeExpirationList",
      "outputs": [
        {
          "internalType": "bool",
          "name": "",
          "type": "bool"
        }
      ],
      "payable": false,
      "stateMutability": "nonpayable",
      "type": "function"
    },
    {
      "constant": false,
      "inputs": [
        {
          "internalType": "address",
          "name": "removeAddress",
          "type": "address"
        }
      ],
      "name": "removeOperator",
      "outputs": [
        {
          "internalType": "bool",
          "name": "",
          "type": "bool"
        }
      ],
      "payable": false,
      "stateMutability": "nonpayable",
      "type": "function"
    },
    {
      "constant": false,
      "inputs": [
        {
          "internalType": "uint32",
          "name": "removeUnderlying",
          "type": "uint32"
        }
      ],
      "name": "removeUnderlyingAssets",
      "outputs": [
        {
          "internalType": "bool",
          "name": "",
          "type": "bool"
        }
      ],
      "payable": false,
      "stateMutability": "nonpayable",
      "type": "function"
    },
    {
      "constant": false,
      "inputs": [],
      "name": "renounceOwnership",
      "outputs": [],
      "payable": false,
      "stateMutability": "nonpayable",
      "type": "function"
    },
    {
      "constant": false,
      "inputs": [
        {
          "internalType": "uint256",
          "name": "totalCallOccupied",
          "type": "uint256"
        },
        {
          "internalType": "uint256",
          "name": "totalPutOccupied",
          "type": "uint256"
        },
        {
          "internalType": "uint256",
          "name": "beginOption",
          "type": "uint256"
        },
        {
          "internalType": "int256",
          "name": "latestCallOccpied",
          "type": "int256"
        },
        {
          "internalType": "int256",
          "name": "latestPutOccpied",
          "type": "int256"
        }
      ],
      "name": "setCollateralPhase",
      "outputs": [],
      "payable": false,
      "stateMutability": "nonpayable",
      "type": "function"
    },
    {
      "constant": false,
      "inputs": [
        {
          "internalType": "uint256",
          "name": "_minAmount",
          "type": "uint256"
        },
        {
          "internalType": "uint256",
          "name": "_maxAmount",
          "type": "uint256"
        }
      ],
      "name": "setInputAmountRange",
      "outputs": [],
      "payable": false,
      "stateMutability": "nonpayable",
      "type": "function"
    },
    {
      "constant": false,
      "inputs": [
        {
          "internalType": "address",
          "name": "managerAddress",
          "type": "address"
        }
      ],
      "name": "setManager",
      "outputs": [],
      "payable": false,
      "stateMutability": "nonpayable",
      "type": "function"
    },
    {
      "constant": false,
      "inputs": [],
      "name": "setOccupiedCollateral",
      "outputs": [],
      "payable": false,
      "stateMutability": "nonpayable",
      "type": "function"
    },
    {
      "constant": false,
      "inputs": [
        {
          "internalType": "uint256",
          "name": "index",
          "type": "uint256"
        },
        {
          "internalType": "address",
          "name": "addAddress",
          "type": "address"
        }
      ],
      "name": "setOperator",
      "outputs": [],
      "payable": false,
      "stateMutability": "nonpayable",
      "type": "function"
    },
    {
      "constant": false,
      "inputs": [
        {
          "internalType": "address[]",
          "name": "operators",
          "type": "address[]"
        }
      ],
      "name": "setOperators",
      "outputs": [],
      "payable": false,
      "stateMutability": "nonpayable",
      "type": "function"
    },
    {
      "constant": false,
      "inputs": [
        {
          "internalType": "address",
          "name": "optionsPrice",
          "type": "address"
        }
      ],
      "name": "setOptionsPriceAddress",
      "outputs": [],
      "payable": false,
      "stateMutability": "nonpayable",
      "type": "function"
    },
    {
      "constant": false,
      "inputs": [
        {
          "internalType": "address",
          "name": "oracle",
          "type": "address"
        }
      ],
      "name": "setOracleAddress",
      "outputs": [],
      "payable": false,
      "stateMutability": "nonpayable",
      "type": "function"
    },
    {
      "constant": false,
      "inputs": [
        {
          "internalType": "uint256",
          "name": "newFirstOption",
          "type": "uint256"
        },
        {
          "internalType": "int256",
          "name": "latestNetWorth",
          "type": "int256"
        }
      ],
      "name": "setSharedState",
      "outputs": [],
      "payable": false,
      "stateMutability": "nonpayable",
      "type": "function"
    },
    {
      "constant": false,
      "inputs": [
        {
          "internalType": "uint256",
          "name": "_limitation",
          "type": "uint256"
        }
      ],
      "name": "setTimeLimitation",
      "outputs": [],
      "payable": false,
      "stateMutability": "nonpayable",
      "type": "function"
    },
    {
      "constant": false,
      "inputs": [
        {
          "internalType": "address",
          "name": "volatility",
          "type": "address"
        }
      ],
      "name": "setVolatilityAddress",
      "outputs": [],
      "payable": false,
      "stateMutability": "nonpayable",
      "type": "function"
    },
    {
      "constant": false,
      "inputs": [
        {
          "internalType": "address",
          "name": "newOwner",
          "type": "address"
        }
      ],
      "name": "transferOwnership",
      "outputs": [],
      "payable": false,
      "stateMutability": "nonpayable",
      "type": "function"
    },
    {
      "constant": false,
      "inputs": [],
      "name": "update",
      "outputs": [],
      "payable": false,
      "stateMutability": "nonpayable",
      "type": "function"
    },
    {
      "constant": true,
      "inputs": [],
      "name": "getOptionCalRangeAll",
      "outputs": [
        {
          "internalType": "uint256",
          "name": "",
          "type": "uint256"
        },
        {
          "internalType": "int256",
          "name": "",
          "type": "int256"
        },
        {
          "internalType": "int256",
          "name": "",
          "type": "int256"
        },
        {
          "internalType": "uint256",
          "name": "",
          "type": "uint256"
        },
        {
          "internalType": "int256",
          "name": "",
          "type": "int256"
        },
        {
          "internalType": "uint256",
          "name": "",
          "type": "uint256"
        },
        {
          "internalType": "uint256",
          "name": "",
          "type": "uint256"
        }
      ],
      "payable": false,
      "stateMutability": "view",
      "type": "function"
    },
    {
      "constant": false,
      "inputs": [
        {
          "internalType": "address",
          "name": "from",
          "type": "address"
        },
        {
          "internalType": "uint256",
          "name": "type_ly_expiration",
          "type": "uint256"
        },
        {
          "internalType": "uint128",
          "name": "strikePrice",
          "type": "uint128"
        },
        {
          "internalType": "uint128",
          "name": "underlyingPrice",
          "type": "uint128"
        },
        {
          "internalType": "uint128",
          "name": "amount",
          "type": "uint128"
        },
        {
          "internalType": "uint128",
          "name": "settlePrice",
          "type": "uint128"
        }
      ],
      "name": "createOptions",
      "outputs": [],
      "payable": false,
      "stateMutability": "nonpayable",
      "type": "function"
    },
    {
      "constant": false,
      "inputs": [
        {
          "internalType": "address",
          "name": "from",
          "type": "address"
        },
        {
          "internalType": "uint256",
          "name": "id",
          "type": "uint256"
        },
        {
          "internalType": "uint256",
          "name": "amount",
          "type": "uint256"
        },
        {
          "internalType": "uint256",
          "name": "optionPrice",
          "type": "uint256"
        }
      ],
      "name": "burnOptions",
      "outputs": [],
      "payable": false,
      "stateMutability": "nonpayable",
      "type": "function"
    }
  ],
  "bytecode": "0x6080604052610e106003556c0c9f2c9cd04674edea4000000060045560646005553480156200002d57600080fd5b5060405162004fa238038062004fa2833981810160405260608110156200005357600080fd5b508051602082015160409283015160008054600160a060020a03191633178082559451939492939192600160a060020a0316917f8be0079c531659141344cd1fd0a4f28419497f9722a3daafe3b4186f6b6457e0908290a3620000be64010000000062000101810204565b60078054600160a060020a03948516600160a060020a03199182161790915560098054938516938216939093179092556008805491909316911617905562000362565b620001146401000000006200020a810204565b6200018057604080517f08c379a000000000000000000000000000000000000000000000000000000000815260206004820181905260248201527f4f776e61626c653a2063616c6c6572206973206e6f7420746865206f776e6572604482015290519081900360640190fd5b60408051610100810182526201518081526202a30060208201526203f4809181019190915262093a806060820152620d2f0060808201526213c68060a0820152621a5e0060c082015262278d0060e0820152620001e290600e9060086200021c565b50604080518082019091526001808252600260208301819052620002079290620002d1565b50565b600054600160a060020a031633145b90565b82805482825590600052602060002090600701600890048101928215620002bf5791602002820160005b838211156200028b57835183826101000a81548163ffffffff021916908362ffffff160217905550926020019260040160208160030104928301926001030262000246565b8015620002bd5782816101000a81549063ffffffff02191690556004016020816003010492830192600103026200028b565b505b50620002cd9291506200033e565b5090565b82805482825590600052602060002090600701600890048101928215620002bf5791602002820160005b838211156200028b57835183826101000a81548163ffffffff021916908360ff1602179055509260200192600401602081600301049283019260010302620002fb565b6200021991905b80821115620002cd57805463ffffffff1916815560010162000345565b614c3080620003726000396000f3fe608060405234801561001057600080fd5b50600436106103a0576000357c0100000000000000000000000000000000000000000000000000000000900480638da5cb5b116101fb578063b18b78dd1161012c578063ddf71cd5116100ca578063e7f43c6811610099578063e7f43c6814610cf8578063f2fde38b14610d00578063f504e2f014610d26578063f7de192314610d2e576103a0565b8063ddf71cd514610be0578063de897ec914610c83578063e7a1c1c014610ca6578063e7c5681514610cd2576103a0565b8063d0ebdbe711610106578063d0ebdbe714610b6c578063d500958414610b92578063d6d1401214610b9a578063db6ad2bd14610bbd576103a0565b8063b18b78dd14610b54578063bc9abed214610b5c578063bec3107f14610b64576103a0565b8063a093e2d011610199578063a855040811610173578063a855040814610ace578063ac8a584a14610b03578063aef890be14610b29578063afec82fc14610b31576103a0565b8063a093e2d014610a7f578063a2e6204514610aa5578063a67931cc14610aad576103a0565b80639783cbd9116101d55780639783cbd9146109c65780639870d7fe146109e35780639ab91a3514610a09578063a05a8b7414610a2c576103a0565b80638da5cb5b146109ae5780638f32d59b146109b65780639052d5f8146109be576103a0565b80634ad9c384116102d55780636ed82ec91161027357806373a3d4241161024d57806373a3d424146109655780637b05fce11461096d5780638129fc1c14610975578063813b5d4b1461097d576103a0565b80636ed82ec9146108fc578063715018a61461093457806371cee39e1461093c576103a0565b80635ca4b73b116102af5780635ca4b73b14610891578063604ecf221461089957806367b8ceb9146108bc5780636d84e2e3146108df576103a0565b80634ad9c384146108255780634c69c00f14610848578063597ce9001461086e576103a0565b80633582d7891161034257806344244d271161031c57806344244d27146107505780634457dee3146107905780634688d5d6146107b957806348ee201d146107c1576103a0565b80633582d789146106cc5780633e77dfd91461072457806342e5479d1461072c576103a0565b80630c3725711161037e5780630c372571146105835780632967eafe146105d45780632a75ee42146105fa578063354af36014610629576103a0565b80630438d490146103a557806309057622146105305780630973598e14610556575b600080fd5b6103c8600480360360408110156103bb57600080fd5b5080359060200135610d60565b60405180806020018060200180602001806020018060200186810386528b818151815260200191508051906020019060200280838360005b83811015610418578181015183820152602001610400565b5050505090500186810385528a818151815260200191508051906020019060200280838360005b8381101561045757818101518382015260200161043f565b50505050905001868103845289818151815260200191508051906020019060200280838360005b8381101561049657818101518382015260200161047e565b50505050905001868103835288818151815260200191508051906020019060200280838360005b838110156104d55781810151838201526020016104bd565b50505050905001868103825287818151815260200191508051906020019060200280838360005b838110156105145781810151838201526020016104fc565b505050509050019a505050505050505050505060405180910390f35b61053861106e565b60408051938452602084019290925282820152519081900360600190f35b6105816004803603604081101561056c57600080fd5b5063ffffffff8135811691602001351661107c565b005b6105ac6004803603606081101561059957600080fd5b5080359060208101359060400135611209565b6040805194855260208501939093528383019190915215156060830152519081900360800190f35b610581600480360360208110156105ea57600080fd5b5035600160a060020a0316611289565b6106176004803603602081101561061057600080fd5b50356112f5565b60408051918252519081900360200190f35b6103c86004803603602081101561063f57600080fd5b81019060208101813564010000000081111561065a57600080fd5b82018360208201111561066c57600080fd5b8035906020019184602083028401116401000000008311171561068e57600080fd5b91908080602002602001604051908101604052809392919081815260200183836020028082843760009201919091525092955061130c945050505050565b6106d461160c565b60408051602080825283518183015283519192839290830191858101910280838360005b838110156107105781810151838201526020016106f8565b505050509050019250505060405180910390f35b610617611691565b61073461171b565b60408051600160a060020a039092168252519081900360200190f35b61075861172a565b604080519788526020880196909652868601949094526060860192909252608085015260a084015260c0830152519081900360e00190f35b610617600480360360608110156107a657600080fd5b508035906020810135906040013561176f565b6106176117ef565b6107de600480360360208110156107d757600080fd5b50356117f5565b60408051978852600160a060020a03909616602088015260ff9094168686015263ffffffff9092166060860152608085015260a084015260c0830152519081900360e00190f35b6105816004803603602081101561083b57600080fd5b503563ffffffff166118e8565b6105816004803603602081101561085e57600080fd5b5035600160a060020a0316611946565b6106176004803603604081101561088457600080fd5b50803590602001356119b2565b610734611a4a565b610581600480360360408110156108af57600080fd5b5080359060200135611a59565b610617600480360360408110156108d257600080fd5b5080359060200135611b4b565b610617600480360360208110156108f557600080fd5b5035611d24565b6105816004803603608081101561091257600080fd5b50600160a060020a038135169060208101359060408101359060600135611d94565b610581611f95565b6105386004803603606081101561095257600080fd5b5080359060208101359060400135612029565b6106176120a3565b6106176120bb565b6105816120c1565b61099a6004803603602081101561099357600080fd5b503561218e565b604080519115158252519081900360200190f35b6107346121a6565b61099a6121b5565b6106d46121c6565b610581600480360360208110156109dc57600080fd5b5035612223565b610581600480360360208110156109f957600080fd5b5035600160a060020a0316612272565b61058160048036036040811015610a1f57600080fd5b50803590602001356122cd565b610581600480360360c0811015610a4257600080fd5b50600160a060020a03813516906020810135906001608060020a0360408201358116916060810135821691608082013581169160a0013516612322565b61058160048036036020811015610a9557600080fd5b5035600160a060020a0316612391565b6105816123fd565b610ab5612449565b6040805192835260208301919091528051918290030190f35b610581600480360360a0811015610ae457600080fd5b5080359060208101359060408101359060608101359060800135612453565b61099a60048036036020811015610b1957600080fd5b5035600160a060020a031661267b565b6106176126d8565b61058160048036036020811015610b4757600080fd5b503563ffffffff1661274d565b6107346127a8565b610ab56127b7565b6106176127c1565b61058160048036036020811015610b8257600080fd5b5035600160a060020a03166127c7565b610734612833565b61099a60048036036020811015610bb057600080fd5b503563ffffffff16612842565b61099a60048036036020811015610bd357600080fd5b503563ffffffff1661289f565b61058160048036036020811015610bf657600080fd5b810190602081018135640100000000811115610c1157600080fd5b820183602082011115610c2357600080fd5b80359060200191846020830284011164010000000083111715610c4557600080fd5b919080806020026020016040519081016040528093929190818152602001838360200280828437600092019190915250929550612909945050505050565b61099a60048036036020811015610c9957600080fd5b503563ffffffff16612966565b61058160048036036040811015610cbc57600080fd5b5080359060200135600160a060020a03166129c3565b6106d460048036036020811015610ce857600080fd5b5035600160a060020a0316612a4d565b6106d4612aed565b61058160048036036020811015610d1657600080fd5b5035600160a060020a0316612b4e565b610581612ba1565b6106d460048036036060811015610d4457600080fd5b50600160a060020a038135169060208101359060400135612c58565b600c546060908190819081908190808810610dc5576040805160e560020a62461bcd02815260206004820152601660248201527f696e7075742066726f6d206973206f766572666c6f7700000000000000000000604482015290519081900360640190fd5b60008711610e1d576040805160e560020a62461bcd02815260206004820152601260248201527f696e7075742073697a65206973207a65726f0000000000000000000000000000604482015290519081900360640190fd5b808789011115610e2d5787810396505b606087604051908082528060200260200182016040528015610e59578160200160208202803883390190505b509050606088604051908082528060200260200182016040528015610e88578160200160208202803883390190505b509050606089604051908082528060200260200182016040528015610eb7578160200160208202803883390190505b50905060608a604051908082528060200260200182016040528015610ee6578160200160208202803883390190505b50905060608b604051908082528060200260200182016040528015610f15578160200160208202803883390190505b50905060005b8c811015611059576000818f0190506000600c8281548110610f3957fe5b6000918252602090912060049091020180548951919250600160a060020a031690899085908110610f6657fe5b600160a060020a0392909216602092830291909101909101528054875160a060020a820460ff1660a860020a90920463ffffffff90811662010000029290920190911690889085908110610fb657fe5b60209081029190910101526001810154865167ffffffffffffffff90911690879085908110610fe157fe5b6020908102919091010152600281015485516001608060020a039091169086908590811061100b57fe5b6020026020010181815250508060010160109054906101000a90046001608060020a03166001608060020a031684848151811061104457fe5b60209081029190910101525050600101610f1b565b50939c929b5090995097509095509350505050565b601154601454601554909192565b61110b8160018054806020026020016040519081016040528092919081815260200182805480156110f857602002820191906000526020600020906000905b82829054906101000a900463ffffffff1663ffffffff16815260200190600401906020826003010492830192600103820291508084116110bb5790505b5050505050612e2490919063ffffffff16565b61115f576040805160e560020a62461bcd02815260206004820152601f60248201527f756e6465726c79696e6720697320756e737570706f7274656420617373657400604482015290519081900360640190fd5b6111c782600e8054806020026020016040519081016040528092919081815260200182805480156110f8576000918252602091829020805463ffffffff1684529082028301929091600491018084116110bb5790505050505050612e2490919063ffffffff16565b6112055760405160e560020a62461bcd028152600401808060200182810382526021815260200180614b8d6021913960400191505060405180910390fd5b5050565b60008060008060115486101561121f5760115495505b86861061123757506000925082915081905080611280565b8685111561124757869450611262565b60115485101561126257506000925082915081905080611280565b60008060006112718989612e78565b91985096509450600193505050505b93509350935093565b6112916121b5565b6112d3576040805160e560020a62461bcd0281526020600482018190526024820152600080516020614b18833981519152604482015290519081900360640190fd5b60088054600160a060020a031916600160a060020a0392909216919091179055565b600354600091825260026020526040909120540190565b606080606080606060008651905060008111611372576040805160e560020a62461bcd02815260206004820152601860248201527f696e7075742069647320617272617920697320656d7074790000000000000000604482015290519081900360640190fd5b600c546040805183815260208085028201019091526060908380156113a1578160200160208202803883390190505b5090506060836040519080825280602002602001820160405280156113d0578160200160208202803883390190505b5090506060846040519080825280602002602001820160405280156113ff578160200160208202803883390190505b50905060608560405190808252806020026020018201604052801561142e578160200160208202803883390190505b50905060608660405190808252806020026020018201604052801561145d578160200160208202803883390190505b50905060005b8781101561105957600060018f838151811061147b57fe5b60200260200101510390508781106114dd576040805160e560020a62461bcd02815260206004820152601860248201527f696e7075742069647320617272617920697320656d7074790000000000000000604482015290519081900360640190fd5b6000600c82815481106114ec57fe5b6000918252602090912060049091020180548951919250600160a060020a03169089908590811061151957fe5b600160a060020a0392909216602092830291909101909101528054875160a060020a820460ff1660a860020a90920463ffffffff9081166201000002929092019091169088908590811061156957fe5b60209081029190910101526001810154865167ffffffffffffffff9091169087908590811061159457fe5b6020908102919091010152600281015485516001608060020a03909116908690859081106115be57fe5b6020026020010181815250508060010160109054906101000a90046001608060020a03166001608060020a03168484815181106115f757fe5b60209081029190910101525050600101611463565b6060600180548060200260200160405190810160405280929190818152602001828054801561168657602002820191906000526020600020906000905b82829054906101000a900463ffffffff1663ffffffff16815260200190600401906020826003010492830192600103820291508084116116495790505b505050505090505b90565b600080601454126116ee57601454601254908101908110156116e75760405160e560020a62461bcd02815260040180806020018281038252602a815260200180614bd2602a913960400191505060405180910390fd5b905061168e565b6000601454600003905080601254111561170d5760125403905061168e565b600091505061168e565b5090565b600854600160a060020a031690565b60008060008060008060008060008061174161106e565b925092509250600080611752612449565b600c54969e959d50939b5099509197509295504394509092505050565b600083831015806117815750600f5482105b1561178e575060006117e8565b8382111561179a578391505b600f5483116117a957600f5492505b60606117b3613026565b905060006117c28585846130c5565b600b549091506117da90600160a060020a0316613238565b81816117e257fe5b05925050505b9392505050565b60035490565b6000806000806000806000611808614821565b611811896132f5565b60408051610140810182528254600160a060020a03811680835260a060020a820460ff166020840181905260a860020a90920463ffffffff16938301849052600185015467ffffffffffffffff808216606086018190526801000000000000000083049091166080860152608060020a918290046001608060020a0390811660a08701819052600289015480831660c0890181905290859004831660e08901526003909901548083166101008901529390930416610120909501949094529d9e909d919c50929a5090985091965090945092505050565b6118f06121b5565b611932576040805160e560020a62461bcd0281526020600482018190526024820152600080516020614b18833981519152604482015290519081900360640190fd5b611943600e8263ffffffff61338116565b50565b61194e6121b5565b611990576040805160e560020a62461bcd0281526020600482018190526024820152600080516020614b18833981519152604482015290519081900360640190fd5b60078054600160a060020a031916600160a060020a0392909216919091179055565b6000818060045410156119f95760405160e560020a62461bcd028152600401808060200182810382526024815260200180614bae6024913960400191505060405180910390fd5b6000600c6001860381548110611a0b57fe5b600091825260209091206003600490920201908101549091506001608060020a03608060020a820481169116850281611a4057fe5b0495945050505050565b600954600160a060020a031690565b600a5460009015801590611a96575033600160a060020a0316600a8281548110611a7f57fe5b600091825260209091200154600160a060020a0316145b611ad45760405160e560020a62461bcd02815260040180806020018281038252602d815260200180614b60602d913960400191505060405180910390fd5b600c54831115611b2e576040805160e560020a62461bcd02815260206004820152601e60248201527f6e657746697273744f7074696f6e2063616c63756c617465204572726f720000604482015290519081900360640190fd5b600f54831115611b3e57600f8390555b5060108054909101905550565b6000611b55614821565b611b5e846132f5565b60408051610140810182528254600160a060020a038116825260ff60a060020a820416602083015263ffffffff60a860020a9091041691810191909152600182015467ffffffffffffffff8082166060840181905268010000000000000000830490911660808401526001608060020a03608060020a92839004811660a0850152600285015480821660c0860152839004811660e08501526003909401548085166101008501529190910490921661012082015291504210611c6a576040805160e560020a62461bcd02815260206004820152601160248201527f6f7074696f6e2069732065787069726564000000000000000000000000000000604482015290519081900360640190fd5b828160a001516001608060020a03161015611ccf576040805160e560020a62461bcd02815260206004820152601d60248201527f6f7074696f6e20616d6f756e7420697320696e73756666696369656e74000000604482015290519081900360640190fd5b6000611ce4826040015163ffffffff16613448565b90506000611d0483602001518460c001516001608060020a0316846134b2565b905080611d175760009350505050611d1e565b8402925050505b92915050565b60008082118015611d375750600c548211155b611d8b576040805160e560020a62461bcd02815260206004820152601660248201527f6f7074696f6e206964206973206e6f7420657869737400000000000000000000604482015290519081900360640190fd5b611d1e826112f5565b600654600160a060020a03163314611de05760405160e560020a62461bcd028152600401808060200182810382526026815260200180614aa26026913960400191505060405180910390fd5b81806004541015611e255760405160e560020a62461bcd028152600401808060200182810382526024815260200180614bae6024913960400191505060405180910390fd5b600354600085815260026020526040902054859142910110611e91576040805160e560020a62461bcd02815260206004820152601f60248201527f54696d65206c696d69746174696f6e206973206e6f7420657870697265642100604482015290519081900360640190fd5b611e99614821565b611ea2866132f5565b60408051610140810182528254600160a060020a038116825260ff60a060020a820416602083015263ffffffff60a860020a9091041691810191909152600182015467ffffffffffffffff80821660608401526801000000000000000082041660808301526001608060020a03608060020a91829004811660a0840152600284015480821660c0850152829004811660e0840152600390930154808416610100840152049091166101208201529050611f5d878783886134e6565b6000611f72826040015163ffffffff16613448565b9050611f7f8287836136af565b611f8b8287838861374e565b5050505050505050565b611f9d6121b5565b611fdf576040805160e560020a62461bcd0281526020600482018190526024820152600080516020614b18833981519152604482015290519081900360640190fd5b60008054604051600160a060020a03909116907f8be0079c531659141344cd1fd0a4f28419497f9722a3daafe3b4186f6b6457e0908390a360008054600160a060020a0319169055565b6000806000858510158061203e5750600f5484105b156120515750600091508190508061209a565b8584111561205d578593505b60008061206a87876137e0565b9150915080871015612090576000612082888361392b565b9550919350915061209a9050565b6000945090925090505b93509350939050565b60006120ad6126d8565b6120b5611691565b01905090565b60105490565b6120c96121b5565b61210b576040805160e560020a62461bcd0281526020600482018190526024820152600080516020614b18833981519152604482015290519081900360640190fd5b60408051610100810182526201518081526202a30060208201526203f4809181019190915262093a806060820152620d2f0060808201526213c68060a0820152621a5e0060c082015262278d0060e082015261216b90600e906008614875565b50604080518082019091526001808252600260208301819052611943929061491f565b60008160045410158015611d1e575050600554111590565b600054600160a060020a031690565b600054600160a060020a0316331490565b6060600e805480602002602001604051908101604052809291908181526020018280548015611686576000918252602091829020805463ffffffff1684529082028301929091600491018084116116495790505050505050905090565b61222b6121b5565b61226d576040805160e560020a62461bcd0281526020600482018190526024820152600080516020614b18833981519152604482015290519081900360640190fd5b600355565b61227a6121b5565b6122bc576040805160e560020a62461bcd0281526020600482018190526024820152600080516020614b18833981519152604482015290519081900360640190fd5b611943600a8263ffffffff613a0116565b6122d56121b5565b612317576040805160e560020a62461bcd0281526020600482018190526024820152600080516020614b18833981519152604482015290519081900360640190fd5b600591909155600455565b600654600160a060020a0316331461236e5760405160e560020a62461bcd028152600401808060200182810382526026815260200180614aa26026913960400191505060405180910390fd5b61237c868686868686613a99565b50600c5461238990614012565b505050505050565b6123996121b5565b6123db576040805160e560020a62461bcd0281526020600482018190526024820152600080516020614b18833981519152604482015290519081900360640190fd5b60098054600160a060020a031916600160a060020a0392909216919091179055565b6124056121b5565b612447576040805160e560020a62461bcd0281526020600482018190526024820152600080516020614b18833981519152604482015290519081900360640190fd5b565b600f546010549091565b600a5460019081108015612490575033600160a060020a0316600a828154811061247957fe5b600091825260209091200154600160a060020a0316145b6124ce5760405160e560020a62461bcd02815260040180806020018281038252602d815260200180614b60602d913960400191505060405180910390fd5b600c54841115612528576040805160e560020a62461bcd02815260206004820152601b60248201527f626567696e4f7074696f6e2063616c63756c617465204572726f720000000000604482015290519081900360640190fd5b6011548411156125385760118490555b6012869055601385905574446c3b15f9926687d2c40534fdb563ffffffffffff19831280159061257d575074446c3b15f9926687d2c40534fdb5640000000000008313155b6125d1576040805160e560020a62461bcd02815260206004820152601c60248201527f6f7074696f6e732066616c6c2063616c63756c617465206572726f7200000000604482015290519081900360640190fd5b74446c3b15f9926687d2c40534fdb563ffffffffffff19821215801561260c575074446c3b15f9926687d2c40534fdb5640000000000008213155b612660576040805160e560020a62461bcd02815260206004820152601c60248201527f6f7074696f6e732066616c6c2063616c63756c617465206572726f7200000000604482015290519081900360640190fd5b50601480549290920390915560158054919091039055505050565b60006126856121b5565b6126c7576040805160e560020a62461bcd0281526020600482018190526024820152600080516020614b18833981519152604482015290519081900360640190fd5b611d1e600a8363ffffffff61412816565b6000806015541261272e57601554601354908101908110156116e75760405160e560020a62461bcd02815260040180806020018281038252602a815260200180614bd2602a913960400191505060405180910390fd5b6000601554600003905080601354111561170d5760135403905061168e565b6127556121b5565b612797576040805160e560020a62461bcd0281526020600482018190526024820152600080516020614b18833981519152604482015290519081900360640190fd5b61194360018263ffffffff61338116565b600754600160a060020a031690565b6005546004549091565b600c5490565b6127cf6121b5565b612811576040805160e560020a62461bcd0281526020600482018190526024820152600080516020614b18833981519152604482015290519081900360640190fd5b60068054600160a060020a031916600160a060020a0392909216919091179055565b600654600160a060020a031690565b600061284c6121b5565b61288e576040805160e560020a62461bcd0281526020600482018190526024820152600080516020614b18833981519152604482015290519081900360640190fd5b611d1e60018363ffffffff61420b16565b6000611d1e8260018054806020026020016040519081016040528092919081815260200182805480156110f8576000918252602091829020805463ffffffff1684529082028301929091600491018084116110bb5790505050505050612e2490919063ffffffff16565b6129116121b5565b612953576040805160e560020a62461bcd0281526020600482018190526024820152600080516020614b18833981519152604482015290519081900360640190fd5b805161120590600a906020840190614989565b60006129706121b5565b6129b2576040805160e560020a62461bcd0281526020600482018190526024820152600080516020614b18833981519152604482015290519081900360640190fd5b611d1e600e8363ffffffff61420b16565b6129cb6121b5565b612a0d576040805160e560020a62461bcd0281526020600482018190526024820152600080516020614b18833981519152604482015290519081900360640190fd5b80600a8381548110612a1b57fe5b9060005260206000200160006101000a815481600160a060020a030219169083600160a060020a031602179055505050565b600160a060020a0381166000908152600d6020908152604091829020805483518184028101840190945280845260609392830182828015612ae157602002820191906000526020600020906000905b82829054906101000a900467ffffffffffffffff1667ffffffffffffffff1681526020019060080190602082600701049283019260010382029150808411612a9c5790505b50505050509050919050565b6060600a80548060200260200160405190810160405280929190818152602001828054801561168657602002820191906000526020600020905b8154600160a060020a03168152600190910190602001808311612b27575050505050905090565b612b566121b5565b612b98576040805160e560020a62461bcd0281526020600482018190526024820152600080516020614b18833981519152604482015290519081900360640190fd5b611943816142fb565b600a5460019081108015612bde575033600160a060020a0316600a8281548110612bc757fe5b600091825260209091200154600160a060020a0316145b612c1c5760405160e560020a62461bcd02815260040180806020018281038252602d815260200180614b60602d913960400191505060405180910390fd5b601454601554600c54601154600090819081908190612c3d90869081611209565b93509350935093508015611f8b57611f8b8484848a8a612453565b600160a060020a0383166000908152600d60205260409020546060908310612cca576040805160e560020a62461bcd02815260206004820152601660248201527f696e7075742066726f6d206973206f766572666c6f7700000000000000000000604482015290519081900360640190fd5b60008211612d22576040805160e560020a62461bcd02815260206004820152601260248201527f696e7075742073697a65206973207a65726f0000000000000000000000000000604482015290519081900360640190fd5b606082604051908082528060200260200182016040528015612d4e578160200160208202803883390190505b50600160a060020a0386166000908152600d60205260409020549091508484011115612d9357600160a060020a0385166000908152600d602052604090205484900392505b60005b83811015612e1b57600160a060020a0386166000908152600d602052604090208054868301908110612dc457fe5b90600052602060002090600491828204019190066008029054906101000a900467ffffffffffffffff16828281518110612dfa57fe5b67ffffffffffffffff90921660209283029190910190910152600101612d96565b50949350505050565b8151600090815b81811015612e6d578363ffffffff16858281518110612e4657fe5b602002602001015163ffffffff161415612e6557600192505050611d1e565b600101612e2b565b506000949350505050565b600080600080612e8b866011548761439e565b90965090506060612e9a613026565b90506000805b87891015613016576000612edd600c8b81548110612eba57fe5b600091825260209091206004909102015460a860020a900463ffffffff1661443e565b90506000612fcd600c8c81548110612ef157fe5b600091825260209182902060408051610140810182526004939093029091018054600160a060020a038116845260a060020a810460ff169484019490945260a860020a90930463ffffffff1690820152600182015467ffffffffffffffff8082166060840152680100000000000000008204166080830152608060020a908190046001608060020a0390811660a0840152600284015480821660c0850152829004811660e0840152600390930154808416610100840152049091166101208201528651879085908110612fc057fe5b60200260200101516144cf565b9050600c8b81548110612fdc57fe5b600091825260209091206004909102015460a060020a900460ff166130045792830192613009565b918201915b5050600190980197612ea0565b9095509350909150509250925092565b600154604080518281526020808402820101909152606091908290828015613058578160200160208202803883390190505b50905060005b828110156130be5761309f6001828154811061307657fe5b6000918252602090912060088204015460079091166004026101000a900463ffffffff16613448565b8282815181106130ab57fe5b602090810291909101015260010161305e565b5091505090565b6000805b83851015613230576000600c86815481106130e057fe5b600091825260209091206004909102016001810154909150608060020a81046001608060020a0316904267ffffffffffffffff9091161080613120575080155b1561312c575050613225565b81546000906131479060a860020a900463ffffffff1661443e565b60408051610140810182528554600160a060020a038116825260ff60a060020a820416602083015263ffffffff60a860020a9091041691810191909152600185015467ffffffffffffffff80821660608401526801000000000000000082041660808301526001608060020a03608060020a91829004811660a0840152600287015480821660c0850152829004811660e084015260038701548082166101008501529190910416610120820152875191925060009161321c919085908a908690811061320f57fe5b6020026020010151614581565b90940393505050505b6001909401936130c9565b949350505050565b600754604080517f41976e09000000000000000000000000000000000000000000000000000000008152600160a060020a0384811660048301529151600093849316916341976e09916024808301926020929190829003018186803b1580156132a057600080fd5b505afa1580156132b4573d6000803e3d6000fd5b505050506040513d60208110156132ca57600080fd5b50519050606481108015906132ec57506c0c9f2c9cd04674edea400000008111155b611d1e57600080fd5b600080821180156133085750600c548211155b61335c576040805160e560020a62461bcd02815260206004820152601660248201527f6f7074696f6e206964206973206e6f7420657869737400000000000000000000604482015290519081900360640190fd5b600c600183038154811061336c57fe5b90600052602060002090600402019050919050565b613406828054806020026020016040519081016040528092919081815260200182805480156133fb57602002820191906000526020600020906000905b82829054906101000a900463ffffffff1663ffffffff16815260200190600401906020826003010492830192600103820291508084116133be5790505b505050505082612e24565b611205578154600181018355600092835260209092206008830401805460079093166004026101000a63ffffffff818102199094169290931692909202179055565b600754604080517fda6632570000000000000000000000000000000000000000000000000000000081526004810184905290516000928392600160a060020a039091169163da66325791602480820192602092909190829003018186803b1580156132a057600080fd5b600060ff84161582841114156134ca575060006117e8565b60ff8416156134db578183036134df565b8282035b90506117e8565b42826060015167ffffffffffffffff161161354b576040805160e560020a62461bcd02815260206004820152601160248201527f6f7074696f6e2069732065787069726564000000000000000000000000000000604482015290519081900360640190fd5b83600160a060020a03168260000151600160a060020a0316146135b8576040805160e560020a62461bcd02815260206004820152601f60248201527f63616c6c6572206973206e6f7420746865206f7074696f6e73206f776e657200604482015290519081900360640190fd5b808260a001516001608060020a0316101561361d576040805160e560020a62461bcd02815260206004820152601d60248201527f6f7074696f6e20616d6f756e7420697320696e73756666696369656e74000000604482015290519081900360640190fd5b80600c600185038154811061362e57fe5b600091825260209182902060016004909202010180546001608060020a03608060020a80830482169590950381169094029316929092179091556040805183815290518592600160a060020a038816927f1fb99acdc281bccbecb3d0073a307341181a8a7d3cd532fdaef5ce7200401c2d929081900390910190a350505050565b6000826136ce85602001518660c001516001608060020a031685614690565b029050701d6329f1c35ca4bfabb9f56100000000008111156137245760405160e560020a62461bcd02815260040180806020018281038252602a815260200180614ac8602a913960400191505060405180910390fd5b602084015160ff1661373e57601480548290039055613748565b6015805482900390555b50505050565b600061375b858585614581565b90506000828661010001516001608060020a03161161377b57600061378d565b828661010001516001608060020a0316035b90508561012001516001608060020a0316858202816137a857fe5b600b5491900491506137c290600160a060020a0316613238565b82816137ca57fe5b6010805492909105929092030190555050505050565b600080600080600090506137f786600f548761439e565b90965091505b84861015613921576000600c878154811061381457fe5b6000918252602082206004919091020160028101546001820154825492945061386e92608060020a8084046001608060020a039081169481169367ffffffffffffffff811693929004169060a060020a900460ff166146ae565b60038301549091506001608060020a031681101561391457600382015460018301546001608060020a038083169390930392608060020a92839004811692909104168202816138b957fe5b049050701d6329f1c35ca4bfabb9f561000000000081111561390f5760405160e560020a62461bcd028152600401808060200182810382526028815260200180614b386028913960400191505060405180910390fd5b918201915b50506001909501946137fd565b9590945092505050565b6000805b828410156117e8576000600c858154811061394657fe5b600091825260209091206004909102016001810154909150608060020a90046001608060020a031680156139f45760038201546000906001608060020a03608060020a82048116911683028161399857fe5b049050701d6329f1c35ca4bfabb9f56100000000008111156139ee5760405160e560020a62461bcd028152600401808060200182810382526028815260200180614b386028913960400191505060405180910390fd5b92909201915b505060019093019261392f565b613a6482805480602002602001604051908101604052809291908181526020018280548015613a5957602002820191906000526020600020905b8154600160a060020a03168152600190910190602001808311613a3b575b50505050508261477c565b611205578154600181018355600083815260209020018054600160a060020a038316600160a060020a03199091161790555050565b600854604080517f185d123200000000000000000000000000000000000000000000000000000000815268010000000000000000880463ffffffff16600482015260ff88166024820152608060020a880467ffffffffffffffff811660448301526001608060020a0387811660648401528816608483015291516000938492600160a060020a039091169163185d12329160a480820192602092909190829003018186803b158015613b4a57600080fd5b505afa158015613b5e573d6000803e3d6000fd5b505050506040513d6020811015613b7457600080fd5b5051600954604080517f62df80ce0000000000000000000000000000000000000000000000000000000081526001608060020a03808b1660048301528b16602482015267ffffffffffffffff861660448201526064810184905260ff8c1660848201529051929350600092600160a060020a03909216916362df80ce9160a480820192602092909190829003018186803b158015613c1157600080fd5b505afa158015613c25573d6000803e3d6000fd5b505050506040513d6020811015613c3b57600080fd5b81019080805190602001909291905050509050600c6040518061014001604052808c600160a060020a031681526020018b60ff16815260200160408c908060020a820491505063ffffffff168152602001428667ffffffffffffffff160167ffffffffffffffff1681526020018467ffffffffffffffff168152602001886001608060020a031681526020018a6001608060020a03168152602001896001608060020a03168152602001836001608060020a03168152602001876001608060020a03168152509080600181540180825580915050906001820390600052602060002090600402016000909192909190915060008201518160000160006101000a815481600160a060020a030219169083600160a060020a0316021790555060208201518160000160146101000a81548160ff021916908360ff16021790555060408201518160000160156101000a81548163ffffffff021916908363ffffffff16021790555060608201518160010160006101000a81548167ffffffffffffffff021916908367ffffffffffffffff16021790555060808201518160010160086101000a81548167ffffffffffffffff021916908367ffffffffffffffff16021790555060a08201518160010160106101000a8154816001608060020a0302191690836001608060020a0316021790555060c08201518160020160006101000a8154816001608060020a0302191690836001608060020a0316021790555060e08201518160020160106101000a8154816001608060020a0302191690836001608060020a031602179055506101008201518160030160006101000a8154816001608060020a0302191690836001608060020a031602179055506101208201518160030160106101000a8154816001608060020a0302191690836001608060020a031602179055505050506000600c805490509050600d60008c600160a060020a0316600160a060020a0316815260200190815260200160002081908060018154018082558091505090600182039060005260206000209060049182820401919006600802909192909190916101000a81548167ffffffffffffffff021916908367ffffffffffffffff16021790555050613f7e8167ffffffffffffffff166147cb565b6040805160ff8c16815263ffffffff680100000000000000008d0416602082015267ffffffffffffffff8681164201828401526001608060020a03808d1660608401528a166080830152915191831691600160a060020a038e16917f18f523957030bee670136363e25b2f847bf1bd07bb7b33c6d5475936a9aac70d919081900360a00190a3509998505050505050505050565b61401a614821565b600c600183038154811061402a57fe5b6000918252602080832060408051610140810182526004949094029091018054600160a060020a038116855260a060020a810460ff169385019390935260a860020a90920463ffffffff1690830152600181015467ffffffffffffffff8082166060850152680100000000000000008204166080840152608060020a908190046001608060020a0390811660a0850152600283015480821660c0860152829004811660e0850181905260039093015480821661010086015291909104166101208301529092506140fb9083906144cf565b9050816020015160ff166000141561411a576014805482019055614123565b60158054820190555b505050565b8154600090815b818110156141755783600160a060020a031685828154811061414d57fe5b600091825260209091200154600160a060020a0316141561416d57614175565b60010161412f565b81811015612e6d576001820381146141ef5784600183038154811061419657fe5b9060005260206000200160009054906101000a9004600160a060020a03168582815481106141c057fe5b9060005260206000200160006101000a815481600160a060020a030219169083600160a060020a031602179055505b84546141ff8660001983016149ea565b50600192505050611d1e565b8154600090815b81811015614264578363ffffffff1685828154811061422d57fe5b6000918252602090912060088204015460079091166004026101000a900463ffffffff16141561425c57614264565b600101614212565b81811015612e6d576001820381146142eb5784600183038154811061428557fe5b90600052602060002090600891828204019190066004029054906101000a900463ffffffff168582815481106142b757fe5b90600052602060002090600891828204019190066004026101000a81548163ffffffff021916908363ffffffff1602179055505b84546141ff866000198301614a0e565b600160a060020a0381166143435760405160e560020a62461bcd028152600401808060200182810382526026815260200180614af26026913960400191505060405180910390fd5b60008054604051600160a060020a03808516939216917f8be0079c531659141344cd1fd0a4f28419497f9722a3daafe3b4186f6b6457e091a360008054600160a060020a031916600160a060020a0392909216919091179055565b60008083808611156143b4578592509050614436565b8095505b8386101561442e576000600c87815481106143cf57fe5b6000918252602090912060049091020160018101549091504267ffffffffffffffff909116108061441257506001810154608060020a90046001608060020a0316155b1561441d5750614423565b5061442e565b6001909501946143b8565b858692509250505b935093915050565b6000611d1e8260018054806020026020016040519081016040528092919081815260200182805480156144bc57602002820191906000526020600020906000905b82829054906101000a900463ffffffff1663ffffffff168152602001906004019060208260030104928301926001038202915080841161447f5790505b50505050506147de90919063ffffffff16565b6000808360a001516001608060020a0316905042846060015167ffffffffffffffff161115806144fd575080155b1561450c576000915050611d1e565b60008161452b86602001518760c001516001608060020a031687614690565b029050701d6329f1c35ca4bfabb9f56100000000008111156132305760405160e560020a62461bcd02815260040180806020018281038252602a815260200180614ac8602a913960400191505060405180910390fd5b600042846060015167ffffffffffffffff1611158061459e575082155b156145ab575060006117e8565b6000836145ca86602001518760c001516001608060020a0316866134b2565b0290506000846145f987602001518860c001516001608060020a03168960e001516001608060020a03166134b2565b029050808203701d6329f1c35ca4bfabb9f560ffffffffff1981128015906146325750701d6329f1c35ca4bfabb9f56100000000008113155b614686576040805160e560020a62461bcd02815260206004820152601c60248201527f6f7074696f6e732066616c6c2063616c63756c617465206572726f7200000000604482015290519081900360640190fd5b9695505050505050565b600060ff84161582841114156146a75750816117e8565b50806117e8565b60004284111561476f57600954604080517f62df80ce000000000000000000000000000000000000000000000000000000008152600481018990526024810188905242870360448201526064810186905260ff851660848201529051600160a060020a03909216916362df80ce9160a480820192602092909190829003018186803b15801561473c57600080fd5b505afa158015614750573d6000803e3d6000fd5b505050506040513d602081101561476657600080fd5b50519050614773565b5060005b95945050505050565b8151600090815b81811015612e6d5783600160a060020a03168582815181106147a157fe5b6020026020010151600160a060020a031614156147c357600192505050611d1e565b600101614783565b6000908152600260205260409020429055565b8151600090815b81811015613230578363ffffffff1685828151811061480057fe5b602002602001015163ffffffff16141561481957613230565b6001016147e5565b6040805161014081018252600080825260208201819052918101829052606081018290526080810182905260a0810182905260c0810182905260e08101829052610100810182905261012081019190915290565b828054828255906000526020600020906007016008900481019282156149135791602002820160005b838211156148e157835183826101000a81548163ffffffff021916908362ffffff160217905550926020019260040160208160030104928301926001030261489e565b80156149115782816101000a81549063ffffffff02191690556004016020816003010492830192600103026148e1565b505b50611717929150614a42565b828054828255906000526020600020906007016008900481019282156149135791602002820160005b838211156148e157835183826101000a81548163ffffffff021916908360ff1602179055509260200192600401602081600301049283019260010302614948565b8280548282559060005260206000209081019282156149de579160200282015b828111156149de5782518254600160a060020a031916600160a060020a039091161782556020909201916001909101906149a9565b50611717929150614a63565b81548183558181111561412357600083815260209020614123918101908301614a87565b8154818355818111156141235760070160089004816007016008900483600052602060002091820191016141239190614a87565b61168e91905b8082111561171757805463ffffffff19168155600101614a48565b61168e91905b80821115611717578054600160a060020a0319168155600101614a69565b61168e91905b808211156117175760008155600101614a8d56fe4d616e6167657261626c653a2063616c6c6572206973206e6f7420746865204d616e616765724f7074696f6e20636f6c6c61746572616c206f636375706965642063616c63756c617465206572726f724f776e61626c653a206e6577206f776e657220697320746865207a65726f20616464726573734f776e61626c653a2063616c6c6572206973206e6f7420746865206f776e65726f7074696f6e2074696d65207368617265642076616c75652063616c63756c617465206572726f724f70657261746f723a2063616c6c6572206973206e6f742074686520656c696769626c65204f70657261746f7265787069726174696f6e2076616c7565206973206e6f7420737570706f72746564696e70757420616d6f756e74206973206c6172676572207468616e206d6178696d69756d546f74616c4f63637570696564436f6c6c61746572616c2063616c63756c617465206f766572666c6f77a265627a7a72315820c053ce249c428ebd55f8b0167fe39c37e01b9aa0ac57d6f1e5c0c01871090b3864736f6c63430005100032",
  "source": "pragma solidity =0.5.16;\r\nimport \"./OptionsNetWorthCal.sol\";\r\n/**\r\n * @title Options pool contract.\r\n * @dev store options' information and nessesary options' calculation.\r\n *\r\n */\r\ncontract OptionsPool is OptionsNetWorthCal {\r\n    /**\r\n     * @dev constructor function , setting contract address.\r\n     * @param oracleAddr FNX oracle contract address\r\n     * @param optionsPriceAddr options price contract address\r\n     * @param ivAddress implied volatility contract address\r\n     */  \r\n    constructor (address oracleAddr,address optionsPriceAddr,address ivAddress)public{\r\n        _oracle = IFNXOracle(oracleAddr);\r\n        _optionsPrice = IOptionsPrice(optionsPriceAddr);\r\n        _volatility = IVolatility(ivAddress);\r\n    }\r\n    function update() onlyOwner public {\r\n\r\n    }\r\n    /**\r\n     * @dev retrieve all information for collateral occupied and net worth calculation.\r\n     */ \r\n    function getOptionCalRangeAll()public view returns(uint256,int256,int256,uint256,int256,uint256,uint256){\r\n        (uint256 occupiedFirst,int256 callOccupiedlatest,int256 putOccupiedlatest) = getOccupiedCalInfo();\r\n        (uint256 netFirst,int256 netLatest) = getNetWrothCalInfo();\r\n        return (occupiedFirst,callOccupiedlatest,putOccupiedlatest,netFirst,netLatest,allOptions.length,block.number);\r\n    }\r\n    /**\r\n     * @dev create new option,modify collateral occupied and net worth value, only manager contract can invoke this.\r\n     * @param from user's address.\r\n     * @param type_ly_expiration tuple64 for option type,underlying,expiration.\r\n     * @param strikePrice user's input new option's strike price.\r\n     * @param underlyingPrice current new option's price, calculated by options price contract.\r\n     * @param amount user's input new option's amount.\r\n     */ \r\n    function createOptions(address from,uint256 type_ly_expiration,\r\n        uint128 strikePrice,uint128 underlyingPrice,uint128 amount,uint128 settlePrice) onlyManager public{\r\n        _createOptions(from,type_ly_expiration,strikePrice,underlyingPrice,amount,settlePrice);\r\n        _addOptionsCollateral(allOptions.length);\r\n//        return price;\r\n//        _addNewOptionsNetworth(info);\r\n    }\r\n    /**\r\n     * @dev burn option,modify collateral occupied and net worth value, only manager contract can invoke this.\r\n     * @param from user's address.\r\n     * @param id user's input option's id.\r\n     * @param amount user's input burned option's amount.\r\n     * @param optionPrice current new option's price, calculated by options price contract.\r\n     */ \r\n    function burnOptions(address from,uint256 id,uint256 amount,uint256 optionPrice)public onlyManager Smaller(amount) OutLimitation(id){\r\n        OptionsInfo memory info = _getOptionsById(id);\r\n        _burnOptions(from,id,info,amount);\r\n        uint256 currentPrice = oracleUnderlyingPrice(info.underlying);\r\n        _burnOptionsCollateral(info,amount,currentPrice);\r\n        _burnOptionsNetworth(info,amount,currentPrice,optionPrice);\r\n    }\r\n}",
  "sourcePath": "C:\\work\\solidity\\finnexusOptions_V2.1\\contracts\\OptionsPool\\OptionsPool.sol",
  "compiler": {
    "name": "solc",
    "version": "0.5.16+commit.9c3226ce.Emscripten.clang"
  },
  "schemaVersion": "3.1.0",
  "updatedAt": "2020-10-24T10:45:23.338Z",
  "devdoc": {
    "details": "store options' information and nessesary options' calculation.  ",
    "methods": {
      "addExpiration(uint32)": {
        "details": "Implementation of add an eligible expiration into the expirationList.",
        "params": {
          "expiration": "new eligible expiration."
        }
      },
      "addOperator(address)": {
        "details": "add a new operator by owner.       "
      },
      "addUnderlyingAsset(uint32)": {
        "details": "Implementation of add an eligible underlying into the underlyingAssets.",
        "params": {
          "underlying": "new eligible underlying."
        }
      },
      "burnOptions(address,uint256,uint256,uint256)": {
        "details": "burn option,modify collateral occupied and net worth value, only manager contract can invoke this.",
        "params": {
          "amount": "user's input burned option's amount.",
          "from": "user's address.",
          "id": "user's input option's id.",
          "optionPrice": "current new option's price, calculated by options price contract."
        }
      },
      "buyOptionCheck(uint32,uint32)": {
        "details": "check option's underlying and expiration.",
        "params": {
          "expiration": "option's expiration",
          "underlying": "option's underlying"
        }
      },
      "calRangeSharedPayment(uint256,uint256,uint256)": {
        "details": "calculate options time shared value,from begin to end in the alloptionsList.",
        "params": {
          "begin": "the begin options position.",
          "end": "the end options position.",
          "lastOption": "the last option position."
        }
      },
      "calculatePhaseOccupiedCollateral(uint256,uint256,uint256)": {
        "details": "calculate collateral occupied value.",
        "params": {
          "beginOption": "begin option's poisiton.",
          "endOption": "end option's poisiton.",
          "lastOption": "last option's position."
        }
      },
      "calculatePhaseOptionsFall(uint256,uint256,uint256)": {
        "details": "calculate options payback fall value,from begin to end in the alloptionsList.",
        "params": {
          "begin": "the begin options position.",
          "end": "the end options position.",
          "lastOption": "the last option position."
        }
      },
      "constructor": {
        "details": "constructor function , setting contract address.",
        "params": {
          "ivAddress": "implied volatility contract address",
          "optionsPriceAddr": "options price contract address",
          "oracleAddr": "FNX oracle contract address"
        }
      },
      "createOptions(address,uint256,uint128,uint128,uint128,uint128)": {
        "details": "create new option,modify collateral occupied and net worth value, only manager contract can invoke this.",
        "params": {
          "amount": "user's input new option's amount.",
          "from": "user's address.",
          "strikePrice": "user's input new option's strike price.",
          "type_ly_expiration": "tuple64 for option type,underlying,expiration.",
          "underlyingPrice": "current new option's price, calculated by options price contract."
        }
      },
      "getBurnedFullPay(uint256,uint256)": {
        "details": "calculate `amount` number of Option's full price when option is burned.",
        "params": {
          "amount": "option's amount",
          "optionID": "option's optionID"
        }
      },
      "getCallTotalOccupiedCollateral()": {
        "details": "get call options total collateral occupied value."
      },
      "getExerciseWorth(uint256,uint256)": {
        "details": "calculate option's exercise worth.",
        "params": {
          "amount": "option's amount",
          "optionsId": "option's id"
        }
      },
      "getExpirationList()": {
        "details": "Implementation of getting the eligible expirationList."
      },
      "getInputAmountRange()": {
        "details": "get the valid range of input amount"
      },
      "getItemTimeLimitation(uint256)": {
        "details": "Retrieve user's start time for burning. ",
        "params": {
          "item": "item key."
        }
      },
      "getManager()": {
        "details": "get manager address.       "
      },
      "getNetWrothCalInfo()": {
        "details": "retrieve all information for net worth calculation. "
      },
      "getNetWrothLatestWorth()": {
        "details": "retrieve latest options net worth which paid in settlement coin. "
      },
      "getOccupiedCalInfo()": {
        "details": "retrieve collateral occupied calculation information."
      },
      "getOperator()": {
        "details": "get all operators.       "
      },
      "getOptionCalRangeAll()": {
        "details": "retrieve all information for collateral occupied and net worth calculation."
      },
      "getOptionInfoLength()": {
        "details": "retrieve all option list length. "
      },
      "getOptionInfoList(uint256,uint256)": {
        "details": "retrieve `size` number of options' information. ",
        "params": {
          "from": "all option list begin positon.",
          "size": "retrieve size."
        }
      },
      "getOptionInfoListFromID(uint256[])": {
        "details": "retrieve given `ids` options' information. ",
        "params": {
          "ids": "retrieved options' id."
        }
      },
      "getOptionsById(uint256)": {
        "details": "retrieve given `optionsId` option's information. ",
        "params": {
          "optionsId": "retrieved option's id."
        }
      },
      "getOptionsLimitTimeById(uint256)": {
        "details": "retrieve given `optionsId` option's burned limit timestamp. ",
        "params": {
          "optionsId": "retrieved option's id."
        }
      },
      "getPutTotalOccupiedCollateral()": {
        "details": "get put options total collateral occupied value."
      },
      "getTotalOccupiedCollateral()": {
        "details": "get real total collateral occupied value."
      },
      "getUnderlyingAssets()": {
        "details": "Implementation of getting the eligible underlyingAssets."
      },
      "getUserOptionsID(address)": {
        "details": "retrieve user's options' id. ",
        "params": {
          "user": "user's account."
        }
      },
      "getUserOptionsID(address,uint256,uint256)": {
        "details": "retrieve user's `size` number of options' id. ",
        "params": {
          "from": "user's option list begin positon.",
          "size": "retrieve size.",
          "user": "user's account."
        }
      },
      "isEligibleUnderlyingAsset(uint32)": {
        "details": "Implementation of testing whether the input underlying is eligible.",
        "params": {
          "underlying": "input underlying for testing."
        }
      },
      "isInputAmountInRange(uint256)": {
        "details": "Determine whether the input amount is within the valid range",
        "params": {
          "Amount": "Test value which is user input"
        }
      },
      "isOwner()": {
        "details": "Returns true if the caller is the current owner."
      },
      "owner()": {
        "details": "Returns the address of the current owner."
      },
      "removeExpirationList(uint32)": {
        "details": "Implementation of revoke an invalid expiration from the expirationList.",
        "params": {
          "removeExpiration": "revoked expiration."
        }
      },
      "removeOperator(address)": {
        "details": "remove operator by owner.       "
      },
      "removeUnderlyingAssets(uint32)": {
        "details": "Implementation of revoke an invalid underlying from the underlyingAssets.",
        "params": {
          "removeUnderlying": "revoked underlying."
        }
      },
      "renounceOwnership()": {
        "details": "Leaves the contract without owner. It will not be possible to call `onlyOwner` functions anymore. Can only be called by the current owner.      * NOTE: Renouncing ownership will leave the contract without an owner, thereby removing any functionality that is only available to the owner."
      },
      "setCollateralPhase(uint256,uint256,uint256,int256,int256)": {
        "details": "set collateral occupied value, only foundation operator can modify database.",
        "params": {
          "beginOption": "new first valid option's positon.",
          "latestCallOccpied": "latest call options' occupied value when operater invoke collateral occupied calculation.",
          "latestPutOccpied": "latest put options' occupied value when operater invoke collateral occupied calculation.",
          "totalCallOccupied": "new call options occupied collateral calculation result.",
          "totalPutOccupied": "new put options occupied collateral calculation result."
        }
      },
      "setInputAmountRange(uint256,uint256)": {
        "details": "set the valid range of input amount",
        "params": {
          "_maxAmount": "the maximum input amount limit",
          "_minAmount": "the minimum input amount limit"
        }
      },
      "setManager(address)": {
        "details": "set manager by owner.       "
      },
      "setOccupiedCollateral()": {
        "details": "calculate collateral occupied value, and modify database, only foundation operator can modify database."
      },
      "setOperator(uint256,address)": {
        "details": "modify indexed operator by owner.       "
      },
      "setOperators(address[])": {
        "details": "set all operators by owner.       "
      },
      "setSharedState(uint256,int256)": {
        "details": "set latest options net worth balance, only manager contract can modify database.",
        "params": {
          "latestNetWorth": "latest options net worth.",
          "newFirstOption": "new first valid option position."
        }
      },
      "setTimeLimitation(uint256)": {
        "details": "set time limitation, only owner can invoke. ",
        "params": {
          "_limitation": "new time limitation."
        }
      },
      "transferOwnership(address)": {
        "details": "Transfers ownership of the contract to a new account (`newOwner`). Can only be called by the current owner."
      }
    },
    "title": "Options pool contract."
  },
  "userdoc": {
    "methods": {}
  }
}