{
  "contractName": "OptionsBase",
  "abi": [
    {
      "inputs": [],
      "payable": false,
      "stateMutability": "nonpayable",
      "type": "constructor"
    },
    {
      "anonymous": false,
      "inputs": [
        {
          "indexed": true,
          "internalType": "address",
          "name": "owner",
          "type": "address"
        },
        {
          "indexed": true,
          "internalType": "uint256",
          "name": "optionID",
          "type": "uint256"
        },
        {
          "indexed": false,
          "internalType": "uint256",
          "name": "amount",
          "type": "uint256"
        }
      ],
      "name": "BurnOption",
      "type": "event"
    },
    {
      "anonymous": false,
      "inputs": [
        {
          "indexed": true,
          "internalType": "address",
          "name": "owner",
          "type": "address"
        },
        {
          "indexed": true,
          "internalType": "uint256",
          "name": "optionID",
          "type": "uint256"
        },
        {
          "indexed": false,
          "internalType": "uint8",
          "name": "optType",
          "type": "uint8"
        },
        {
          "indexed": false,
          "internalType": "uint32",
          "name": "underlying",
          "type": "uint32"
        },
        {
          "indexed": false,
          "internalType": "uint256",
          "name": "expiration",
          "type": "uint256"
        },
        {
          "indexed": false,
          "internalType": "uint256",
          "name": "strikePrice",
          "type": "uint256"
        },
        {
          "indexed": false,
          "internalType": "uint256",
          "name": "amount",
          "type": "uint256"
        }
      ],
      "name": "CreateOption",
      "type": "event"
    },
    {
      "anonymous": false,
      "inputs": [
        {
          "indexed": false,
          "internalType": "uint256",
          "name": "id",
          "type": "uint256"
        },
        {
          "indexed": false,
          "internalType": "uint256",
          "name": "value1",
          "type": "uint256"
        },
        {
          "indexed": false,
          "internalType": "uint256",
          "name": "value2",
          "type": "uint256"
        }
      ],
      "name": "DebugEvent",
      "type": "event"
    },
    {
      "anonymous": false,
      "inputs": [
        {
          "indexed": true,
          "internalType": "address",
          "name": "previousOwner",
          "type": "address"
        },
        {
          "indexed": true,
          "internalType": "address",
          "name": "newOwner",
          "type": "address"
        }
      ],
      "name": "OwnershipTransferred",
      "type": "event"
    },
    {
      "constant": false,
      "inputs": [
        {
          "internalType": "address",
          "name": "addAddress",
          "type": "address"
        }
      ],
      "name": "addOperator",
      "outputs": [],
      "payable": false,
      "stateMutability": "nonpayable",
      "type": "function"
    },
    {
      "constant": false,
      "inputs": [
        {
          "internalType": "uint32",
          "name": "underlying",
          "type": "uint32"
        }
      ],
      "name": "addUnderlyingAsset",
      "outputs": [],
      "payable": false,
      "stateMutability": "nonpayable",
      "type": "function"
    },
    {
      "constant": true,
      "inputs": [],
      "name": "getInputAmountRange",
      "outputs": [
        {
          "internalType": "uint256",
          "name": "",
          "type": "uint256"
        },
        {
          "internalType": "uint256",
          "name": "",
          "type": "uint256"
        }
      ],
      "payable": false,
      "stateMutability": "view",
      "type": "function"
    },
    {
      "constant": true,
      "inputs": [
        {
          "internalType": "uint256",
          "name": "item",
          "type": "uint256"
        }
      ],
      "name": "getItemTimeLimitation",
      "outputs": [
        {
          "internalType": "uint256",
          "name": "",
          "type": "uint256"
        }
      ],
      "payable": false,
      "stateMutability": "view",
      "type": "function"
    },
    {
      "constant": true,
      "inputs": [],
      "name": "getManager",
      "outputs": [
        {
          "internalType": "address",
          "name": "",
          "type": "address"
        }
      ],
      "payable": false,
      "stateMutability": "view",
      "type": "function"
    },
    {
      "constant": true,
      "inputs": [],
      "name": "getOperator",
      "outputs": [
        {
          "internalType": "address[]",
          "name": "",
          "type": "address[]"
        }
      ],
      "payable": false,
      "stateMutability": "view",
      "type": "function"
    },
    {
      "constant": true,
      "inputs": [],
      "name": "getOptionsPriceAddress",
      "outputs": [
        {
          "internalType": "address",
          "name": "",
          "type": "address"
        }
      ],
      "payable": false,
      "stateMutability": "view",
      "type": "function"
    },
    {
      "constant": true,
      "inputs": [],
      "name": "getOracleAddress",
      "outputs": [
        {
          "internalType": "address",
          "name": "",
          "type": "address"
        }
      ],
      "payable": false,
      "stateMutability": "view",
      "type": "function"
    },
    {
      "constant": true,
      "inputs": [],
      "name": "getTimeLimitation",
      "outputs": [
        {
          "internalType": "uint256",
          "name": "",
          "type": "uint256"
        }
      ],
      "payable": false,
      "stateMutability": "view",
      "type": "function"
    },
    {
      "constant": true,
      "inputs": [],
      "name": "getUnderlyingAssets",
      "outputs": [
        {
          "internalType": "uint32[]",
          "name": "",
          "type": "uint32[]"
        }
      ],
      "payable": false,
      "stateMutability": "view",
      "type": "function"
    },
    {
      "constant": true,
      "inputs": [],
      "name": "getVolatilityAddress",
      "outputs": [
        {
          "internalType": "address",
          "name": "",
          "type": "address"
        }
      ],
      "payable": false,
      "stateMutability": "view",
      "type": "function"
    },
    {
      "constant": true,
      "inputs": [
        {
          "internalType": "uint32",
          "name": "underlying",
          "type": "uint32"
        }
      ],
      "name": "isEligibleUnderlyingAsset",
      "outputs": [
        {
          "internalType": "bool",
          "name": "",
          "type": "bool"
        }
      ],
      "payable": false,
      "stateMutability": "view",
      "type": "function"
    },
    {
      "constant": true,
      "inputs": [
        {
          "internalType": "uint256",
          "name": "Amount",
          "type": "uint256"
        }
      ],
      "name": "isInputAmountInRange",
      "outputs": [
        {
          "internalType": "bool",
          "name": "",
          "type": "bool"
        }
      ],
      "payable": false,
      "stateMutability": "view",
      "type": "function"
    },
    {
      "constant": true,
      "inputs": [],
      "name": "isOwner",
      "outputs": [
        {
          "internalType": "bool",
          "name": "",
          "type": "bool"
        }
      ],
      "payable": false,
      "stateMutability": "view",
      "type": "function"
    },
    {
      "constant": true,
      "inputs": [],
      "name": "owner",
      "outputs": [
        {
          "internalType": "address",
          "name": "",
          "type": "address"
        }
      ],
      "payable": false,
      "stateMutability": "view",
      "type": "function"
    },
    {
      "constant": false,
      "inputs": [
        {
          "internalType": "address",
          "name": "removeAddress",
          "type": "address"
        }
      ],
      "name": "removeOperator",
      "outputs": [
        {
          "internalType": "bool",
          "name": "",
          "type": "bool"
        }
      ],
      "payable": false,
      "stateMutability": "nonpayable",
      "type": "function"
    },
    {
      "constant": false,
      "inputs": [
        {
          "internalType": "uint32",
          "name": "removeUnderlying",
          "type": "uint32"
        }
      ],
      "name": "removeUnderlyingAssets",
      "outputs": [
        {
          "internalType": "bool",
          "name": "",
          "type": "bool"
        }
      ],
      "payable": false,
      "stateMutability": "nonpayable",
      "type": "function"
    },
    {
      "constant": false,
      "inputs": [],
      "name": "renounceOwnership",
      "outputs": [],
      "payable": false,
      "stateMutability": "nonpayable",
      "type": "function"
    },
    {
      "constant": false,
      "inputs": [
        {
          "internalType": "uint256",
          "name": "_minAmount",
          "type": "uint256"
        },
        {
          "internalType": "uint256",
          "name": "_maxAmount",
          "type": "uint256"
        }
      ],
      "name": "setInputAmountRange",
      "outputs": [],
      "payable": false,
      "stateMutability": "nonpayable",
      "type": "function"
    },
    {
      "constant": false,
      "inputs": [
        {
          "internalType": "address",
          "name": "managerAddress",
          "type": "address"
        }
      ],
      "name": "setManager",
      "outputs": [],
      "payable": false,
      "stateMutability": "nonpayable",
      "type": "function"
    },
    {
      "constant": false,
      "inputs": [
        {
          "internalType": "uint256",
          "name": "index",
          "type": "uint256"
        },
        {
          "internalType": "address",
          "name": "addAddress",
          "type": "address"
        }
      ],
      "name": "setOperator",
      "outputs": [],
      "payable": false,
      "stateMutability": "nonpayable",
      "type": "function"
    },
    {
      "constant": false,
      "inputs": [
        {
          "internalType": "address[]",
          "name": "operators",
          "type": "address[]"
        }
      ],
      "name": "setOperators",
      "outputs": [],
      "payable": false,
      "stateMutability": "nonpayable",
      "type": "function"
    },
    {
      "constant": false,
      "inputs": [
        {
          "internalType": "address",
          "name": "optionsPrice",
          "type": "address"
        }
      ],
      "name": "setOptionsPriceAddress",
      "outputs": [],
      "payable": false,
      "stateMutability": "nonpayable",
      "type": "function"
    },
    {
      "constant": false,
      "inputs": [
        {
          "internalType": "address",
          "name": "oracle",
          "type": "address"
        }
      ],
      "name": "setOracleAddress",
      "outputs": [],
      "payable": false,
      "stateMutability": "nonpayable",
      "type": "function"
    },
    {
      "constant": false,
      "inputs": [
        {
          "internalType": "uint256",
          "name": "_limitation",
          "type": "uint256"
        }
      ],
      "name": "setTimeLimitation",
      "outputs": [],
      "payable": false,
      "stateMutability": "nonpayable",
      "type": "function"
    },
    {
      "constant": false,
      "inputs": [
        {
          "internalType": "address",
          "name": "volatility",
          "type": "address"
        }
      ],
      "name": "setVolatilityAddress",
      "outputs": [],
      "payable": false,
      "stateMutability": "nonpayable",
      "type": "function"
    },
    {
      "constant": false,
      "inputs": [
        {
          "internalType": "address",
          "name": "newOwner",
          "type": "address"
        }
      ],
      "name": "transferOwnership",
      "outputs": [],
      "payable": false,
      "stateMutability": "nonpayable",
      "type": "function"
    },
    {
      "constant": false,
      "inputs": [],
      "name": "initialize",
      "outputs": [],
      "payable": false,
      "stateMutability": "nonpayable",
      "type": "function"
    },
    {
      "constant": true,
      "inputs": [
        {
          "internalType": "address",
          "name": "user",
          "type": "address"
        }
      ],
      "name": "getUserOptionsID",
      "outputs": [
        {
          "internalType": "uint64[]",
          "name": "",
          "type": "uint64[]"
        }
      ],
      "payable": false,
      "stateMutability": "view",
      "type": "function"
    },
    {
      "constant": true,
      "inputs": [
        {
          "internalType": "address",
          "name": "user",
          "type": "address"
        },
        {
          "internalType": "uint256",
          "name": "from",
          "type": "uint256"
        },
        {
          "internalType": "uint256",
          "name": "size",
          "type": "uint256"
        }
      ],
      "name": "getUserOptionsID",
      "outputs": [
        {
          "internalType": "uint64[]",
          "name": "",
          "type": "uint64[]"
        }
      ],
      "payable": false,
      "stateMutability": "view",
      "type": "function"
    },
    {
      "constant": true,
      "inputs": [],
      "name": "getOptionInfoLength",
      "outputs": [
        {
          "internalType": "uint256",
          "name": "",
          "type": "uint256"
        }
      ],
      "payable": false,
      "stateMutability": "view",
      "type": "function"
    },
    {
      "constant": true,
      "inputs": [
        {
          "internalType": "uint256",
          "name": "from",
          "type": "uint256"
        },
        {
          "internalType": "uint256",
          "name": "size",
          "type": "uint256"
        }
      ],
      "name": "getOptionInfoList",
      "outputs": [
        {
          "internalType": "address[]",
          "name": "",
          "type": "address[]"
        },
        {
          "internalType": "uint256[]",
          "name": "",
          "type": "uint256[]"
        },
        {
          "internalType": "uint256[]",
          "name": "",
          "type": "uint256[]"
        },
        {
          "internalType": "uint256[]",
          "name": "",
          "type": "uint256[]"
        },
        {
          "internalType": "uint256[]",
          "name": "",
          "type": "uint256[]"
        }
      ],
      "payable": false,
      "stateMutability": "view",
      "type": "function"
    },
    {
      "constant": true,
      "inputs": [
        {
          "internalType": "uint256[]",
          "name": "ids",
          "type": "uint256[]"
        }
      ],
      "name": "getOptionInfoListFromID",
      "outputs": [
        {
          "internalType": "address[]",
          "name": "",
          "type": "address[]"
        },
        {
          "internalType": "uint256[]",
          "name": "",
          "type": "uint256[]"
        },
        {
          "internalType": "uint256[]",
          "name": "",
          "type": "uint256[]"
        },
        {
          "internalType": "uint256[]",
          "name": "",
          "type": "uint256[]"
        },
        {
          "internalType": "uint256[]",
          "name": "",
          "type": "uint256[]"
        }
      ],
      "payable": false,
      "stateMutability": "view",
      "type": "function"
    },
    {
      "constant": true,
      "inputs": [
        {
          "internalType": "uint256",
          "name": "optionsId",
          "type": "uint256"
        }
      ],
      "name": "getOptionsLimitTimeById",
      "outputs": [
        {
          "internalType": "uint256",
          "name": "",
          "type": "uint256"
        }
      ],
      "payable": false,
      "stateMutability": "view",
      "type": "function"
    },
    {
      "constant": true,
      "inputs": [
        {
          "internalType": "uint256",
          "name": "optionsId",
          "type": "uint256"
        }
      ],
      "name": "getOptionsById",
      "outputs": [
        {
          "internalType": "uint256",
          "name": "",
          "type": "uint256"
        },
        {
          "internalType": "address",
          "name": "",
          "type": "address"
        },
        {
          "internalType": "uint8",
          "name": "",
          "type": "uint8"
        },
        {
          "internalType": "uint32",
          "name": "",
          "type": "uint32"
        },
        {
          "internalType": "uint256",
          "name": "",
          "type": "uint256"
        },
        {
          "internalType": "uint256",
          "name": "",
          "type": "uint256"
        },
        {
          "internalType": "uint256",
          "name": "",
          "type": "uint256"
        }
      ],
      "payable": false,
      "stateMutability": "view",
      "type": "function"
    },
    {
      "constant": true,
      "inputs": [
        {
          "internalType": "uint256",
          "name": "optionsId",
          "type": "uint256"
        },
        {
          "internalType": "uint256",
          "name": "amount",
          "type": "uint256"
        }
      ],
      "name": "getExerciseWorth",
      "outputs": [
        {
          "internalType": "uint256",
          "name": "",
          "type": "uint256"
        }
      ],
      "payable": false,
      "stateMutability": "view",
      "type": "function"
    },
    {
      "constant": true,
      "inputs": [
        {
          "internalType": "uint32",
          "name": "expiration",
          "type": "uint32"
        },
        {
          "internalType": "uint32",
          "name": "underlying",
          "type": "uint32"
        }
      ],
      "name": "buyOptionCheck",
      "outputs": [],
      "payable": false,
      "stateMutability": "view",
      "type": "function"
    },
    {
      "constant": false,
      "inputs": [
        {
          "internalType": "uint32",
          "name": "expiration",
          "type": "uint32"
        }
      ],
      "name": "addExpiration",
      "outputs": [],
      "payable": false,
      "stateMutability": "nonpayable",
      "type": "function"
    },
    {
      "constant": false,
      "inputs": [
        {
          "internalType": "uint32",
          "name": "removeExpiration",
          "type": "uint32"
        }
      ],
      "name": "removeExpirationList",
      "outputs": [
        {
          "internalType": "bool",
          "name": "",
          "type": "bool"
        }
      ],
      "payable": false,
      "stateMutability": "nonpayable",
      "type": "function"
    },
    {
      "constant": true,
      "inputs": [],
      "name": "getExpirationList",
      "outputs": [
        {
          "internalType": "uint32[]",
          "name": "",
          "type": "uint32[]"
        }
      ],
      "payable": false,
      "stateMutability": "view",
      "type": "function"
    },
    {
      "constant": true,
      "inputs": [
        {
          "internalType": "uint256",
          "name": "optionID",
          "type": "uint256"
        },
        {
          "internalType": "uint256",
          "name": "amount",
          "type": "uint256"
        }
      ],
      "name": "getBurnedFullPay",
      "outputs": [
        {
          "internalType": "uint256",
          "name": "",
          "type": "uint256"
        }
      ],
      "payable": false,
      "stateMutability": "view",
      "type": "function"
    }
  ],
  "bytecode": "0x6080604052610e106003556c0c9f2c9cd04674edea4000000060045560646005553480156200002d57600080fd5b5060008054600160a060020a0319163317808255604051600160a060020a039190911691907f8be0079c531659141344cd1fd0a4f28419497f9722a3daafe3b4186f6b6457e0908290a36200008a64010000000062000090810204565b620002f1565b620000a364010000000062000199810204565b6200010f57604080517f08c379a000000000000000000000000000000000000000000000000000000000815260206004820181905260248201527f4f776e61626c653a2063616c6c6572206973206e6f7420746865206f776e6572604482015290519081900360640190fd5b60408051610100810182526201518081526202a30060208201526203f4809181019190915262093a806060820152620d2f0060808201526213c68060a0820152621a5e0060c082015262278d0060e08201526200017190600e906008620001ab565b5060408051808201909152600180825260026020830181905262000196929062000260565b50565b600054600160a060020a031633145b90565b828054828255906000526020600020906007016008900481019282156200024e5791602002820160005b838211156200021a57835183826101000a81548163ffffffff021916908362ffffff1602179055509260200192600401602081600301049283019260010302620001d5565b80156200024c5782816101000a81549063ffffffff02191690556004016020816003010492830192600103026200021a565b505b506200025c929150620002cd565b5090565b828054828255906000526020600020906007016008900481019282156200024e5791602002820160005b838211156200021a57835183826101000a81548163ffffffff021916908360ff16021790555092602001926004016020816003010492830192600103026200028a565b620001a891905b808211156200025c57805463ffffffff19168155600101620002d4565b612b4480620003016000396000f3fe608060405234801561001057600080fd5b5060043610610270576000357c0100000000000000000000000000000000000000000000000000000000900480639052d5f811610163578063d0ebdbe7116100e0578063de897ec9116100a4578063de897ec914610937578063e7a1c1c01461095a578063e7c5681514610986578063e7f43c68146109ac578063f2fde38b146109b4578063f7de1923146109da57610270565b8063d0ebdbe714610820578063d500958414610846578063d6d140121461084e578063db6ad2bd14610871578063ddf71cd51461089457610270565b8063ac8a584a11610127578063ac8a584a146107a6578063afec82fc146107cc578063b18b78dd146107ef578063bc9abed2146107f7578063bec3107f1461081857610270565b80639052d5f8146107125780639783cbd91461071a5780639870d7fe146107375780639ab91a351461075d578063a093e2d01461078057610270565b80634c69c00f116101f1578063715018a6116101b5578063715018a6146106c15780638129fc1c146106c9578063813b5d4b146106d15780638da5cb5b146107025780638f32d59b1461070a57610270565b80634c69c00f14610630578063597ce900146106565780635ca4b73b1461067957806367b8ceb9146106815780636d84e2e3146106a457610270565b80633582d789116102385780633582d7891461052557806342e5479d1461057d5780634688d5d6146105a157806348ee201d146105a95780634ad9c3841461060d57610270565b80630438d490146102755780630973598e146104005780632967eafe1461042d5780632a75ee4214610453578063354af36014610482575b600080fd5b6102986004803603604081101561028b57600080fd5b5080359060200135610a0c565b60405180806020018060200180602001806020018060200186810386528b818151815260200191508051906020019060200280838360005b838110156102e85781810151838201526020016102d0565b5050505090500186810385528a818151815260200191508051906020019060200280838360005b8381101561032757818101518382015260200161030f565b50505050905001868103845289818151815260200191508051906020019060200280838360005b8381101561036657818101518382015260200161034e565b50505050905001868103835288818151815260200191508051906020019060200280838360005b838110156103a557818101518382015260200161038d565b50505050905001868103825287818151815260200191508051906020019060200280838360005b838110156103e45781810151838201526020016103cc565b505050509050019a505050505050505050505060405180910390f35b61042b6004803603604081101561041657600080fd5b5063ffffffff81358116916020013516610d3d565b005b61042b6004803603602081101561044357600080fd5b5035600160a060020a0316610eca565b6104706004803603602081101561046957600080fd5b5035610f36565b60408051918252519081900360200190f35b6102986004803603602081101561049857600080fd5b8101906020810181356401000000008111156104b357600080fd5b8201836020820111156104c557600080fd5b803590602001918460208302840111640100000000831117156104e757600080fd5b919080806020026020016040519081016040528093929190818152602001838360200280828437600092019190915250929550610f4d945050505050565b61052d611270565b60408051602080825283518183015283519192839290830191858101910280838360005b83811015610569578181015183820152602001610551565b505050509050019250505060405180910390f35b6105856112f5565b60408051600160a060020a039092168252519081900360200190f35b610470611304565b6105c6600480360360208110156105bf57600080fd5b503561130a565b60408051978852600160a060020a03909616602088015260ff9094168686015263ffffffff9092166060860152608085015260a084015260c0830152519081900360e00190f35b61042b6004803603602081101561062357600080fd5b503563ffffffff1661142d565b61042b6004803603602081101561064657600080fd5b5035600160a060020a031661148b565b6104706004803603604081101561066c57600080fd5b50803590602001356114f7565b61058561159c565b6104706004803603604081101561069757600080fd5b50803590602001356115ab565b610470600480360360208110156106ba57600080fd5b50356117b4565b61042b611824565b61042b6118b8565b6106ee600480360360208110156106e757600080fd5b5035611985565b604080519115158252519081900360200190f35b61058561199d565b6106ee6119ac565b61052d6119bd565b61042b6004803603602081101561073057600080fd5b5035611a1a565b61042b6004803603602081101561074d57600080fd5b5035600160a060020a0316611a69565b61042b6004803603604081101561077357600080fd5b5080359060200135611ac4565b61042b6004803603602081101561079657600080fd5b5035600160a060020a0316611b19565b6106ee600480360360208110156107bc57600080fd5b5035600160a060020a0316611b85565b61042b600480360360208110156107e257600080fd5b503563ffffffff16611be2565b610585611c3d565b6107ff611c4c565b6040805192835260208301919091528051918290030190f35b610470611c56565b61042b6004803603602081101561083657600080fd5b5035600160a060020a0316611c5c565b610585611cc8565b6106ee6004803603602081101561086457600080fd5b503563ffffffff16611cd7565b6106ee6004803603602081101561088757600080fd5b503563ffffffff16611d34565b61042b600480360360208110156108aa57600080fd5b8101906020810181356401000000008111156108c557600080fd5b8201836020820111156108d757600080fd5b803590602001918460208302840111640100000000831117156108f957600080fd5b919080806020026020016040519081016040528093929190818152602001838360200280828437600092019190915250929550611d9e945050505050565b6106ee6004803603602081101561094d57600080fd5b503563ffffffff16611dfb565b61042b6004803603604081101561097057600080fd5b5080359060200135600160a060020a0316611e58565b61052d6004803603602081101561099c57600080fd5b5035600160a060020a0316611ee2565b61052d611f82565b61042b600480360360208110156109ca57600080fd5b5035600160a060020a0316611fe3565b61052d600480360360608110156109f057600080fd5b50600160a060020a038135169060208101359060400135612036565b600c546060908190819081908190808810610a71576040805160e560020a62461bcd02815260206004820152601660248201527f696e7075742066726f6d206973206f766572666c6f7700000000000000000000604482015290519081900360640190fd5b60008711610ac9576040805160e560020a62461bcd02815260206004820152601260248201527f696e7075742073697a65206973207a65726f0000000000000000000000000000604482015290519081900360640190fd5b808789011115610ad95787810396505b606087604051908082528060200260200182016040528015610b05578160200160208202803883390190505b509050606088604051908082528060200260200182016040528015610b34578160200160208202803883390190505b509050606089604051908082528060200260200182016040528015610b63578160200160208202803883390190505b50905060608a604051908082528060200260200182016040528015610b92578160200160208202803883390190505b50905060608b604051908082528060200260200182016040528015610bc1578160200160208202803883390190505b50905060005b8c811015610d28576000818f0190506000600c8281548110610be557fe5b6000918252602090912060049091020180548951919250600160a060020a031690899085908110610c1257fe5b600160a060020a0392909216602092830291909101909101528054875174010000000000000000000000000000000000000000820460ff16750100000000000000000000000000000000000000000090920463ffffffff90811662010000029290920190911690889085908110610c8557fe5b60209081029190910101526001810154865167ffffffffffffffff90911690879085908110610cb057fe5b6020908102919091010152600281015485516001608060020a0390911690869085908110610cda57fe5b6020026020010181815250508060010160109054906101000a90046001608060020a03166001608060020a0316848481518110610d1357fe5b60209081029190910101525050600101610bc7565b50939c929b5090995097509095509350505050565b610dcc816001805480602002602001604051908101604052809291908181526020018280548015610db957602002820191906000526020600020906000905b82829054906101000a900463ffffffff1663ffffffff1681526020019060040190602082600301049283019260010382029150808411610d7c5790505b505050505061220490919063ffffffff16565b610e20576040805160e560020a62461bcd02815260206004820152601f60248201527f756e6465726c79696e6720697320756e737570706f7274656420617373657400604482015290519081900360640190fd5b610e8882600e805480602002602001604051908101604052809291908181526020018280548015610db9576000918252602091829020805463ffffffff168452908202830192909160049101808411610d7c579050505050505061220490919063ffffffff16565b610ec65760405160e560020a62461bcd028152600401808060200182810382526021815260200180612acb6021913960400191505060405180910390fd5b5050565b610ed26119ac565b610f14576040805160e560020a62461bcd0281526020600482018190526024820152600080516020612aab833981519152604482015290519081900360640190fd5b60088054600160a060020a031916600160a060020a0392909216919091179055565b600354600091825260026020526040909120540190565b606080606080606060008651905060008111610fb3576040805160e560020a62461bcd02815260206004820152601860248201527f696e7075742069647320617272617920697320656d7074790000000000000000604482015290519081900360640190fd5b600c54604080518381526020808502820101909152606090838015610fe2578160200160208202803883390190505b509050606083604051908082528060200260200182016040528015611011578160200160208202803883390190505b509050606084604051908082528060200260200182016040528015611040578160200160208202803883390190505b50905060608560405190808252806020026020018201604052801561106f578160200160208202803883390190505b50905060608660405190808252806020026020018201604052801561109e578160200160208202803883390190505b50905060005b87811015610d2857600060018f83815181106110bc57fe5b602002602001015103905087811061111e576040805160e560020a62461bcd02815260206004820152601860248201527f696e7075742069647320617272617920697320656d7074790000000000000000604482015290519081900360640190fd5b6000600c828154811061112d57fe5b6000918252602090912060049091020180548951919250600160a060020a03169089908590811061115a57fe5b600160a060020a0392909216602092830291909101909101528054875174010000000000000000000000000000000000000000820460ff16750100000000000000000000000000000000000000000090920463ffffffff908116620100000292909201909116908890859081106111cd57fe5b60209081029190910101526001810154865167ffffffffffffffff909116908790859081106111f857fe5b6020908102919091010152600281015485516001608060020a039091169086908590811061122257fe5b6020026020010181815250508060010160109054906101000a90046001608060020a03166001608060020a031684848151811061125b57fe5b602090810291909101015250506001016110a4565b606060018054806020026020016040519081016040528092919081815260200182805480156112ea57602002820191906000526020600020906000905b82829054906101000a900463ffffffff1663ffffffff16815260200190600401906020826003010492830192600103820291508084116112ad5790505b505050505090505b90565b600854600160a060020a031690565b60035490565b600080600080600080600061131d6127fb565b61132689612258565b60408051610140810182528254600160a060020a03811680835274010000000000000000000000000000000000000000820460ff1660208401819052750100000000000000000000000000000000000000000090920463ffffffff16938301849052600185015467ffffffffffffffff808216606086018190526801000000000000000083049091166080860152700100000000000000000000000000000000918290046001608060020a0390811660a08701819052600289015480831660c0890181905290859004831660e08901526003909901548083166101008901529390930416610120909501949094529d9e909d919c50929a5090985091965090945092505050565b6114356119ac565b611477576040805160e560020a62461bcd0281526020600482018190526024820152600080516020612aab833981519152604482015290519081900360640190fd5b611488600e8263ffffffff6122e416565b50565b6114936119ac565b6114d5576040805160e560020a62461bcd0281526020600482018190526024820152600080516020612aab833981519152604482015290519081900360640190fd5b60078054600160a060020a031916600160a060020a0392909216919091179055565b60008180600454101561153e5760405160e560020a62461bcd028152600401808060200182810382526024815260200180612aec6024913960400191505060405180910390fd5b6000600c600186038154811061155057fe5b600091825260209091206003600490920201908101549091506001608060020a0370010000000000000000000000000000000082048116911685028161159257fe5b0495945050505050565b600954600160a060020a031690565b60006115b56127fb565b6115be84612258565b60408051610140810182528254600160a060020a038116825260ff74010000000000000000000000000000000000000000820416602083015263ffffffff75010000000000000000000000000000000000000000009091041691810191909152600182015467ffffffffffffffff8082166060840181905268010000000000000000830490911660808401526001608060020a0370010000000000000000000000000000000092839004811660a0850152600285015480821660c0860152839004811660e085015260039094015480851661010085015291909104909216610120820152915042106116fa576040805160e560020a62461bcd02815260206004820152601160248201527f6f7074696f6e2069732065787069726564000000000000000000000000000000604482015290519081900360640190fd5b828160a001516001608060020a0316101561175f576040805160e560020a62461bcd02815260206004820152601d60248201527f6f7074696f6e20616d6f756e7420697320696e73756666696369656e74000000604482015290519081900360640190fd5b6000611774826040015163ffffffff166123ab565b9050600061179483602001518460c001516001608060020a03168461246a565b9050806117a757600093505050506117ae565b8402925050505b92915050565b600080821180156117c75750600c548211155b61181b576040805160e560020a62461bcd02815260206004820152601660248201527f6f7074696f6e206964206973206e6f7420657869737400000000000000000000604482015290519081900360640190fd5b6117ae82610f36565b61182c6119ac565b61186e576040805160e560020a62461bcd0281526020600482018190526024820152600080516020612aab833981519152604482015290519081900360640190fd5b60008054604051600160a060020a03909116907f8be0079c531659141344cd1fd0a4f28419497f9722a3daafe3b4186f6b6457e0908390a360008054600160a060020a0319169055565b6118c06119ac565b611902576040805160e560020a62461bcd0281526020600482018190526024820152600080516020612aab833981519152604482015290519081900360640190fd5b60408051610100810182526201518081526202a30060208201526203f4809181019190915262093a806060820152620d2f0060808201526213c68060a0820152621a5e0060c082015262278d0060e082015261196290600e90600861284f565b5060408051808201909152600180825260026020830181905261148892906128fd565b600081600454101580156117ae575050600554111590565b600054600160a060020a031690565b600054600160a060020a0316331490565b6060600e8054806020026020016040519081016040528092919081815260200182805480156112ea576000918252602091829020805463ffffffff1684529082028301929091600491018084116112ad5790505050505050905090565b611a226119ac565b611a64576040805160e560020a62461bcd0281526020600482018190526024820152600080516020612aab833981519152604482015290519081900360640190fd5b600355565b611a716119ac565b611ab3576040805160e560020a62461bcd0281526020600482018190526024820152600080516020612aab833981519152604482015290519081900360640190fd5b611488600a8263ffffffff61249e16565b611acc6119ac565b611b0e576040805160e560020a62461bcd0281526020600482018190526024820152600080516020612aab833981519152604482015290519081900360640190fd5b600591909155600455565b611b216119ac565b611b63576040805160e560020a62461bcd0281526020600482018190526024820152600080516020612aab833981519152604482015290519081900360640190fd5b60098054600160a060020a031916600160a060020a0392909216919091179055565b6000611b8f6119ac565b611bd1576040805160e560020a62461bcd0281526020600482018190526024820152600080516020612aab833981519152604482015290519081900360640190fd5b6117ae600a8363ffffffff61253616565b611bea6119ac565b611c2c576040805160e560020a62461bcd0281526020600482018190526024820152600080516020612aab833981519152604482015290519081900360640190fd5b61148860018263ffffffff6122e416565b600754600160a060020a031690565b6005546004549091565b600c5490565b611c646119ac565b611ca6576040805160e560020a62461bcd0281526020600482018190526024820152600080516020612aab833981519152604482015290519081900360640190fd5b60068054600160a060020a031916600160a060020a0392909216919091179055565b600654600160a060020a031690565b6000611ce16119ac565b611d23576040805160e560020a62461bcd0281526020600482018190526024820152600080516020612aab833981519152604482015290519081900360640190fd5b6117ae60018363ffffffff61261916565b60006117ae826001805480602002602001604051908101604052809291908181526020018280548015610db9576000918252602091829020805463ffffffff168452908202830192909160049101808411610d7c579050505050505061220490919063ffffffff16565b611da66119ac565b611de8576040805160e560020a62461bcd0281526020600482018190526024820152600080516020612aab833981519152604482015290519081900360640190fd5b8051610ec690600a906020840190612967565b6000611e056119ac565b611e47576040805160e560020a62461bcd0281526020600482018190526024820152600080516020612aab833981519152604482015290519081900360640190fd5b6117ae600e8363ffffffff61261916565b611e606119ac565b611ea2576040805160e560020a62461bcd0281526020600482018190526024820152600080516020612aab833981519152604482015290519081900360640190fd5b80600a8381548110611eb057fe5b9060005260206000200160006101000a815481600160a060020a030219169083600160a060020a031602179055505050565b600160a060020a0381166000908152600d6020908152604091829020805483518184028101840190945280845260609392830182828015611f7657602002820191906000526020600020906000905b82829054906101000a900467ffffffffffffffff1667ffffffffffffffff1681526020019060080190602082600701049283019260010382029150808411611f315790505b50505050509050919050565b6060600a8054806020026020016040519081016040528092919081815260200182805480156112ea57602002820191906000526020600020905b8154600160a060020a03168152600190910190602001808311611fbc575050505050905090565b611feb6119ac565b61202d576040805160e560020a62461bcd0281526020600482018190526024820152600080516020612aab833981519152604482015290519081900360640190fd5b61148881612709565b600160a060020a0383166000908152600d602052604090205460609083106120a8576040805160e560020a62461bcd02815260206004820152601660248201527f696e7075742066726f6d206973206f766572666c6f7700000000000000000000604482015290519081900360640190fd5b60008211612100576040805160e560020a62461bcd02815260206004820152601260248201527f696e7075742073697a65206973207a65726f0000000000000000000000000000604482015290519081900360640190fd5b60608260405190808252806020026020018201604052801561212c578160200160208202803883390190505b50600160a060020a0386166000908152600d6020526040902054909150848401111561217157600160a060020a0385166000908152600d602052604090205484900392505b60005b838110156121f957600160a060020a0386166000908152600d6020526040902080548683019081106121a257fe5b90600052602060002090600491828204019190066008029054906101000a900467ffffffffffffffff168282815181106121d857fe5b67ffffffffffffffff90921660209283029190910190910152600101612174565b5090505b9392505050565b8151600090815b8181101561224d578363ffffffff1685828151811061222657fe5b602002602001015163ffffffff161415612245576001925050506117ae565b60010161220b565b506000949350505050565b6000808211801561226b5750600c548211155b6122bf576040805160e560020a62461bcd02815260206004820152601660248201527f6f7074696f6e206964206973206e6f7420657869737400000000000000000000604482015290519081900360640190fd5b600c60018303815481106122cf57fe5b90600052602060002090600402019050919050565b6123698280548060200260200160405190810160405280929190818152602001828054801561235e57602002820191906000526020600020906000905b82829054906101000a900463ffffffff1663ffffffff16815260200190600401906020826003010492830192600103820291508084116123215790505b505050505082612204565b610ec6578154600181018355600092835260209092206008830401805460079093166004026101000a63ffffffff818102199094169290931692909202179055565b600754604080517fda6632570000000000000000000000000000000000000000000000000000000081526004810184905290516000928392600160a060020a039091169163da66325791602480820192602092909190829003018186803b15801561241557600080fd5b505afa158015612429573d6000803e3d6000fd5b505050506040513d602081101561243f57600080fd5b505190506064811080159061246157506c0c9f2c9cd04674edea400000008111155b6117ae57600080fd5b600060ff8416158284111415612482575060006121fd565b60ff84161561249357818303612497565b8282035b90506121fd565b612501828054806020026020016040519081016040528092919081815260200182805480156124f657602002820191906000526020600020905b8154600160a060020a031681526001909101906020018083116124d8575b5050505050826127ac565b610ec6578154600181018355600083815260209020018054600160a060020a038316600160a060020a03199091161790555050565b8154600090815b818110156125835783600160a060020a031685828154811061255b57fe5b600091825260209091200154600160a060020a0316141561257b57612583565b60010161253d565b8181101561224d576001820381146125fd578460018303815481106125a457fe5b9060005260206000200160009054906101000a9004600160a060020a03168582815481106125ce57fe5b9060005260206000200160006101000a815481600160a060020a030219169083600160a060020a031602179055505b845461260d8660001983016129c8565b506001925050506117ae565b8154600090815b81811015612672578363ffffffff1685828154811061263b57fe5b6000918252602090912060088204015460079091166004026101000a900463ffffffff16141561266a57612672565b600101612620565b8181101561224d576001820381146126f95784600183038154811061269357fe5b90600052602060002090600891828204019190066004029054906101000a900463ffffffff168582815481106126c557fe5b90600052602060002090600891828204019190066004026101000a81548163ffffffff021916908363ffffffff1602179055505b845461260d8660001983016129f1565b600160a060020a0381166127515760405160e560020a62461bcd028152600401808060200182810382526026815260200180612a856026913960400191505060405180910390fd5b60008054604051600160a060020a03808516939216917f8be0079c531659141344cd1fd0a4f28419497f9722a3daafe3b4186f6b6457e091a360008054600160a060020a031916600160a060020a0392909216919091179055565b8151600090815b8181101561224d5783600160a060020a03168582815181106127d157fe5b6020026020010151600160a060020a031614156127f3576001925050506117ae565b6001016127b3565b6040805161014081018252600080825260208201819052918101829052606081018290526080810182905260a0810182905260c0810182905260e08101829052610100810182905261012081019190915290565b828054828255906000526020600020906007016008900481019282156128ed5791602002820160005b838211156128bb57835183826101000a81548163ffffffff021916908362ffffff1602179055509260200192600401602081600301049283019260010302612878565b80156128eb5782816101000a81549063ffffffff02191690556004016020816003010492830192600103026128bb565b505b506128f9929150612a25565b5090565b828054828255906000526020600020906007016008900481019282156128ed5791602002820160005b838211156128bb57835183826101000a81548163ffffffff021916908360ff1602179055509260200192600401602081600301049283019260010302612926565b8280548282559060005260206000209081019282156129bc579160200282015b828111156129bc5782518254600160a060020a031916600160a060020a03909116178255602090920191600190910190612987565b506128f9929150612a46565b8154818355818111156129ec576000838152602090206129ec918101908301612a6a565b505050565b8154818355818111156129ec5760070160089004816007016008900483600052602060002091820191016129ec9190612a6a565b6112f291905b808211156128f957805463ffffffff19168155600101612a2b565b6112f291905b808211156128f9578054600160a060020a0319168155600101612a4c565b6112f291905b808211156128f95760008155600101612a7056fe4f776e61626c653a206e6577206f776e657220697320746865207a65726f20616464726573734f776e61626c653a2063616c6c6572206973206e6f7420746865206f776e657265787069726174696f6e2076616c7565206973206e6f7420737570706f72746564696e70757420616d6f756e74206973206c6172676572207468616e206d6178696d69756da265627a7a723158203a8feeabefcad37cf47bbadfd0df38ebaa4292af80bb1f514a9b98ab79767e3a64736f6c63430005100032",
  "source": "pragma solidity =0.5.16;\r\nimport \"./OptionsData.sol\";\r\nimport \"../modules/tuple64.sol\";\r\n/**\r\n * @title Options data contract.\r\n * @dev A Smart-contract to store options info.\r\n *\r\n */\r\ncontract OptionsBase is OptionsData {\r\n    using whiteListUint32 for uint32[];\r\n    constructor () public{\r\n        initialize();\r\n    }\r\n    function initialize() onlyOwner public {\r\n        expirationList =  [1 days,2 days,3 days, 7 days, 10 days, 15 days,20 days, 30 days/*,90 days*/];\r\n        underlyingAssets = [1,2];\r\n    }\r\n    /**\r\n     * @dev retrieve user's options' id. \r\n     * @param user user's account.\r\n     */     \r\n    function getUserOptionsID(address user)public view returns(uint64[] memory){\r\n        return optionsBalances[user];\r\n    }\r\n    /**\r\n     * @dev retrieve user's `size` number of options' id. \r\n     * @param user user's account.\r\n     * @param from user's option list begin positon.\r\n     * @param size retrieve size.\r\n     */ \r\n    function getUserOptionsID(address user,uint256 from,uint256 size)public view returns(uint64[] memory){\r\n        require(from <optionsBalances[user].length,\"input from is overflow\");\r\n        require(size>0,\"input size is zero\");\r\n        uint64[] memory userIdAry = new uint64[](size);\r\n        if (from+size>optionsBalances[user].length){\r\n            size = optionsBalances[user].length-from;\r\n        }\r\n        for (uint256 i= 0;i<size;i++){\r\n            userIdAry[i] = optionsBalances[user][from+i];\r\n        }\r\n        return userIdAry;\r\n    }\r\n    /**\r\n     * @dev retrieve all option list length. \r\n     */ \r\n    function getOptionInfoLength()public view returns (uint256){\r\n        return allOptions.length;\r\n    }\r\n    /**\r\n     * @dev retrieve `size` number of options' information. \r\n     * @param from all option list begin positon.\r\n     * @param size retrieve size.\r\n     */     \r\n    function getOptionInfoList(uint256 from,uint256 size)public view \r\n                returns(address[] memory,uint256[] memory,uint256[] memory,uint256[] memory,uint256[] memory){\r\n        uint256 allLen = allOptions.length;\r\n        require(from <allLen,\"input from is overflow\");\r\n        require(size>0,\"input size is zero\");\r\n        if (from+size>allLen){\r\n            size = allLen - from;\r\n        }\r\n        address[] memory ownerArr = new address[](size);\r\n        uint256[] memory typeAndUnderArr = new uint256[](size);\r\n        uint256[] memory expArr = new uint256[](size);\r\n        uint256[] memory priceArr = new uint256[](size);\r\n        uint256[] memory amountArr = new uint256[](size);\r\n        for (uint i=0;i<size;i++){\r\n            uint256 index = from+i; \r\n            OptionsInfo storage info = allOptions[index];\r\n            ownerArr[i] = info.owner;\r\n            typeAndUnderArr[i] = (info.underlying << 16) + info.optType;\r\n            expArr[i] = info.expiration;\r\n            priceArr[i] = info.strikePrice;\r\n            amountArr[i] = info.amount;\r\n        }\r\n        return (ownerArr,typeAndUnderArr,expArr,priceArr,amountArr);\r\n    }\r\n    /**\r\n     * @dev retrieve given `ids` options' information. \r\n     * @param ids retrieved options' id.\r\n     */   \r\n    function getOptionInfoListFromID(uint256[] memory ids)public view \r\n                returns(address[] memory,uint256[] memory,uint256[] memory,uint256[] memory,uint256[] memory){\r\n        uint256 size = ids.length;\r\n        require(size > 0, \"input ids array is empty\");\r\n        uint256 allLen = allOptions.length;\r\n        address[] memory ownerArr = new address[](size);\r\n        uint256[] memory typeAndUnderArr = new uint256[](size);\r\n        uint256[] memory expArr = new uint256[](size);\r\n        uint256[] memory priceArr = new uint256[](size);\r\n        uint256[] memory amountArr = new uint256[](size);\r\n        for (uint i=0;i<size;i++){\r\n            uint256 index = ids[i]-1; \r\n            require(index < allLen, \"input ids array is empty\");\r\n            OptionsInfo storage info = allOptions[index];\r\n            ownerArr[i] = info.owner;\r\n            typeAndUnderArr[i] = (info.underlying << 16) + info.optType;\r\n            expArr[i] = info.expiration;\r\n            priceArr[i] = info.strikePrice;\r\n            amountArr[i] = info.amount;\r\n        }\r\n        return (ownerArr,typeAndUnderArr,expArr,priceArr,amountArr);\r\n    }\r\n    /**\r\n     * @dev retrieve given `optionsId` option's burned limit timestamp. \r\n     * @param optionsId retrieved option's id.\r\n     */ \r\n    function getOptionsLimitTimeById(uint256 optionsId)public view returns(uint256){\r\n        require(optionsId>0 && optionsId <= allOptions.length,\"option id is not exist\");\r\n        return getItemTimeLimitation(optionsId);\r\n    }\r\n    /**\r\n     * @dev retrieve given `optionsId` option's information. \r\n     * @param optionsId retrieved option's id.\r\n     */ \r\n    function getOptionsById(uint256 optionsId)public view returns(uint256,address,uint8,uint32,uint256,uint256,uint256){\r\n        OptionsInfo memory info = _getOptionsById(optionsId);\r\n        return (optionsId,info.owner,info.optType,info.underlying,info.expiration,info.strikePrice,info.amount);\r\n    }\r\n    /**\r\n     * @dev An auxiliary function, get underlying prices. \r\n     */\r\n    function getUnderlyingPrices()internal view returns(uint256[] memory){\r\n        uint256 underlyingLen = underlyingAssets.length;\r\n        uint256[] memory prices = new uint256[](underlyingLen);\r\n        for (uint256 i = 0;i<underlyingLen;i++){\r\n            prices[i] = oracleUnderlyingPrice(underlyingAssets[i]);\r\n        }\r\n        return prices;\r\n    }\r\n    /**\r\n     * @dev create new option, store option info.\r\n     * @param from option's owner\r\n     * @param type_ly_expiration the tuple64 of option type, underlying,expiration\r\n     * @param strikePrice option's strike price and underlying price\r\n     * @param underlyingPrice option's paid price and price rate\r\n     * @param amount option's amount\r\n     */\r\n    function _createOptions(address from,uint256 type_ly_expiration,\r\n        uint128 strikePrice,uint128 underlyingPrice,uint128 amount,uint128 settlePrice) internal returns(uint256){\r\n        uint64 expiration = uint64(type_ly_expiration>>128);\r\n        uint256 iv = _volatility.calculateIv(uint32(type_ly_expiration>>64),uint8(type_ly_expiration),expiration,\r\n            underlyingPrice,strikePrice);\r\n        uint256 optPrice = _optionsPrice.getOptionsPrice_iv(underlyingPrice,strikePrice,expiration,iv,uint8(type_ly_expiration));\r\n        \r\n        allOptions.push(OptionsInfo(from,\r\n            uint8(type_ly_expiration),\r\n            uint32(type_ly_expiration>>64),\r\n            uint64(expiration+now),\r\n            uint64(iv),\r\n            amount,\r\n            strikePrice,\r\n            underlyingPrice,\r\n            uint128(optPrice),\r\n            settlePrice));\r\n        uint64 optionID = uint64(allOptions.length);\r\n        optionsBalances[from].push(optionID);\r\n        setItemTimeLimitation(uint256(optionID));\r\n        emit CreateOption(from,optionID,uint8(type_ly_expiration),uint32(type_ly_expiration>>64),expiration+now,\r\n            strikePrice,amount);\r\n        return optPrice;\r\n    }\r\n    /**\r\n     * @dev burn an exist option whose id is `id`.\r\n     * @param from option's owner\r\n     * @param amount option's amount\r\n     */\r\n    function _burnOptions(address from,uint256 optionID,OptionsInfo memory info,uint256 amount)internal{\r\n//        OptionsInfo storage info = _getOptionsById(id);\r\n        require(info.expiration>now,\"option is expired\");\r\n        require(info.owner == from,\"caller is not the options owner\");\r\n        require(info.amount >= amount,\"option amount is insufficient\");\r\n        allOptions[optionID-1].amount -= uint128(amount);\r\n        emit BurnOption(from,optionID,amount);\r\n    }\r\n    /**\r\n     * @dev calculate option's exercise worth.\r\n     * @param optionsId option's id\r\n     * @param amount option's amount\r\n     */\r\n    function getExerciseWorth(uint256 optionsId,uint256 amount)public view returns(uint256){\r\n        OptionsInfo memory info = _getOptionsById(optionsId);\r\n        require(info.expiration>now,\"option is expired\");\r\n        require(info.amount >= amount,\"option amount is insufficient\");\r\n        uint256 underlyingPrice = oracleUnderlyingPrice(info.underlying);\r\n        uint256 tokenPayback = _getOptionsPayback(info.optType,info.strikePrice,underlyingPrice);\r\n        if (tokenPayback == 0 ){\r\n            return 0;\r\n        } \r\n        return tokenPayback*amount;\r\n    }\r\n    /**\r\n     * @dev An auxiliary function, calculate option's exercise payback.\r\n     * @param optType option's type\r\n     * @param strikePrice option's strikePrice\r\n     * @param underlyingPrice underlying's price\r\n     */\r\n    function _getOptionsPayback(uint8 optType,uint256 strikePrice,uint256 underlyingPrice)internal pure returns(uint256){\r\n        if ((optType == 0) == (strikePrice>underlyingPrice)){ // call\r\n            return 0;\r\n        } else {\r\n            return (optType == 0) ? underlyingPrice - strikePrice : strikePrice - underlyingPrice;\r\n        }\r\n    }\r\n    /**\r\n     * @dev retrieve option by id, check option's id.\r\n     * @param id option's id\r\n     */\r\n    function _getOptionsById(uint256 id)internal view returns(OptionsInfo storage){\r\n        require(id>0 && id <= allOptions.length,\"option id is not exist\");\r\n        return allOptions[id-1];\r\n    }\r\n\r\n    /**\r\n     * @dev check option's underlying and expiration.\r\n     * @param expiration option's expiration\r\n     * @param underlying option's underlying\r\n     */\r\n    function buyOptionCheck(uint32 expiration,uint32 underlying)public view{\r\n        require(underlyingAssets.isEligibleUint32(underlying) , \"underlying is unsupported asset\");\r\n        require(expirationList.isEligibleUint32(expiration),\"expiration value is not supported\");\r\n    }\r\n    /**\r\n     * @dev Implementation of add an eligible expiration into the expirationList.\r\n     * @param expiration new eligible expiration.\r\n     */\r\n    function addExpiration(uint32 expiration)public onlyOwner{\r\n        expirationList.addWhiteListUint32(expiration);\r\n    }\r\n    /**\r\n     * @dev Implementation of revoke an invalid expiration from the expirationList.\r\n     * @param removeExpiration revoked expiration.\r\n     */\r\n    function removeExpirationList(uint32 removeExpiration)public onlyOwner returns(bool) {\r\n        return expirationList.removeWhiteListUint32(removeExpiration);\r\n    }\r\n    /**\r\n     * @dev Implementation of getting the eligible expirationList.\r\n     */\r\n    function getExpirationList()public view returns (uint32[] memory){\r\n        return expirationList;\r\n    }\r\n\r\n    /**\r\n     * @dev An auxiliary function, retrieve first available option's positon.\r\n     * @param begin  the start of option's positon\r\n     * @param latestBegin  the latest begin option positon.\r\n     * @param end  the end of option's positon\r\n     */\r\n    function getFirstOption(uint256 begin,uint256 latestBegin,uint256 end) internal view returns(uint256,uint256){\r\n        uint256 newFirstOption = latestBegin;\r\n        if (begin > newFirstOption){\r\n            //if in other phase, begin != new begin\r\n            return (begin,newFirstOption);\r\n        }\r\n        begin = newFirstOption;\r\n        for (;begin<end;begin++){\r\n            OptionsInfo storage info = allOptions[begin];\r\n            if(info.expiration<now || info.amount == 0){\r\n                continue;\r\n            }\r\n            break;\r\n        }\r\n        //if in first phase, begin = new begin\r\n        return (begin,begin);\r\n    }\r\n    /**\r\n     * @dev calculate option's occupied collateral.\r\n     * @param option  option's information\r\n     * @param underlyingPrice  underlying current price.\r\n     */\r\n    function calOptionsCollateral(OptionsInfo memory option,uint256 underlyingPrice)internal view returns(uint256){\r\n        uint256 amount = option.amount;\r\n        if (option.expiration<=now || amount == 0){\r\n            return 0;\r\n        }\r\n        uint256 totalOccupied = _getOptionsWorth(option.optType,option.strikePrice,underlyingPrice)*amount;\r\n        require(totalOccupied<=1e40,\"Option collateral occupied calculate error\");\r\n        return totalOccupied;\r\n    }\r\n    /**\r\n     * @dev calculate one option's occupied collateral.\r\n     * @param optType  option's type\r\n     * @param strikePrice  option's strikePrice\r\n     * @param underlyingPrice  underlying current price.\r\n     */\r\n    function _getOptionsWorth(uint8 optType,uint256 strikePrice,uint256 underlyingPrice)internal pure returns(uint256){\r\n        if ((optType == 0) == (strikePrice>underlyingPrice)){ // call\r\n            return strikePrice;\r\n        } else {\r\n            return underlyingPrice;\r\n        }\r\n    }\r\n    /**\r\n     * @dev calculate `amount` number of Option's full price when option is burned.\r\n     * @param optionID  option's optionID\r\n     * @param amount  option's amount\r\n     */\r\n    function getBurnedFullPay(uint256 optionID,uint256 amount) Smaller(amount) public view returns(uint256){\r\n        OptionsInfo storage info = allOptions[optionID-1];\r\n        return info.optionsPrice*amount/info.settlePrice;\r\n    }\r\n}",
  "sourcePath": "C:\\work\\solidity\\finnexusOptions_V2.1\\contracts\\OptionsPool\\Optionsbase.sol",
  "compiler": {
    "name": "solc",
    "version": "0.5.16+commit.9c3226ce.Emscripten.clang"
  },
  "schemaVersion": "3.1.0",
  "updatedAt": "2020-10-24T10:45:23.356Z",
  "devdoc": {
    "details": "A Smart-contract to store options info.  ",
    "methods": {
      "addExpiration(uint32)": {
        "details": "Implementation of add an eligible expiration into the expirationList.",
        "params": {
          "expiration": "new eligible expiration."
        }
      },
      "addOperator(address)": {
        "details": "add a new operator by owner.       "
      },
      "addUnderlyingAsset(uint32)": {
        "details": "Implementation of add an eligible underlying into the underlyingAssets.",
        "params": {
          "underlying": "new eligible underlying."
        }
      },
      "buyOptionCheck(uint32,uint32)": {
        "details": "check option's underlying and expiration.",
        "params": {
          "expiration": "option's expiration",
          "underlying": "option's underlying"
        }
      },
      "getBurnedFullPay(uint256,uint256)": {
        "details": "calculate `amount` number of Option's full price when option is burned.",
        "params": {
          "amount": "option's amount",
          "optionID": "option's optionID"
        }
      },
      "getExerciseWorth(uint256,uint256)": {
        "details": "calculate option's exercise worth.",
        "params": {
          "amount": "option's amount",
          "optionsId": "option's id"
        }
      },
      "getExpirationList()": {
        "details": "Implementation of getting the eligible expirationList."
      },
      "getInputAmountRange()": {
        "details": "get the valid range of input amount"
      },
      "getItemTimeLimitation(uint256)": {
        "details": "Retrieve user's start time for burning. ",
        "params": {
          "item": "item key."
        }
      },
      "getManager()": {
        "details": "get manager address.       "
      },
      "getOperator()": {
        "details": "get all operators.       "
      },
      "getOptionInfoLength()": {
        "details": "retrieve all option list length. "
      },
      "getOptionInfoList(uint256,uint256)": {
        "details": "retrieve `size` number of options' information. ",
        "params": {
          "from": "all option list begin positon.",
          "size": "retrieve size."
        }
      },
      "getOptionInfoListFromID(uint256[])": {
        "details": "retrieve given `ids` options' information. ",
        "params": {
          "ids": "retrieved options' id."
        }
      },
      "getOptionsById(uint256)": {
        "details": "retrieve given `optionsId` option's information. ",
        "params": {
          "optionsId": "retrieved option's id."
        }
      },
      "getOptionsLimitTimeById(uint256)": {
        "details": "retrieve given `optionsId` option's burned limit timestamp. ",
        "params": {
          "optionsId": "retrieved option's id."
        }
      },
      "getUnderlyingAssets()": {
        "details": "Implementation of getting the eligible underlyingAssets."
      },
      "getUserOptionsID(address)": {
        "details": "retrieve user's options' id. ",
        "params": {
          "user": "user's account."
        }
      },
      "getUserOptionsID(address,uint256,uint256)": {
        "details": "retrieve user's `size` number of options' id. ",
        "params": {
          "from": "user's option list begin positon.",
          "size": "retrieve size.",
          "user": "user's account."
        }
      },
      "isEligibleUnderlyingAsset(uint32)": {
        "details": "Implementation of testing whether the input underlying is eligible.",
        "params": {
          "underlying": "input underlying for testing."
        }
      },
      "isInputAmountInRange(uint256)": {
        "details": "Determine whether the input amount is within the valid range",
        "params": {
          "Amount": "Test value which is user input"
        }
      },
      "isOwner()": {
        "details": "Returns true if the caller is the current owner."
      },
      "owner()": {
        "details": "Returns the address of the current owner."
      },
      "removeExpirationList(uint32)": {
        "details": "Implementation of revoke an invalid expiration from the expirationList.",
        "params": {
          "removeExpiration": "revoked expiration."
        }
      },
      "removeOperator(address)": {
        "details": "remove operator by owner.       "
      },
      "removeUnderlyingAssets(uint32)": {
        "details": "Implementation of revoke an invalid underlying from the underlyingAssets.",
        "params": {
          "removeUnderlying": "revoked underlying."
        }
      },
      "renounceOwnership()": {
        "details": "Leaves the contract without owner. It will not be possible to call `onlyOwner` functions anymore. Can only be called by the current owner.      * NOTE: Renouncing ownership will leave the contract without an owner, thereby removing any functionality that is only available to the owner."
      },
      "setInputAmountRange(uint256,uint256)": {
        "details": "set the valid range of input amount",
        "params": {
          "_maxAmount": "the maximum input amount limit",
          "_minAmount": "the minimum input amount limit"
        }
      },
      "setManager(address)": {
        "details": "set manager by owner.       "
      },
      "setOperator(uint256,address)": {
        "details": "modify indexed operator by owner.       "
      },
      "setOperators(address[])": {
        "details": "set all operators by owner.       "
      },
      "setTimeLimitation(uint256)": {
        "details": "set time limitation, only owner can invoke. ",
        "params": {
          "_limitation": "new time limitation."
        }
      },
      "transferOwnership(address)": {
        "details": "Transfers ownership of the contract to a new account (`newOwner`). Can only be called by the current owner."
      }
    },
    "title": "Options data contract."
  },
  "userdoc": {
    "methods": {}
  }
}