{
  "contractName": "OptionsPriceTest",
  "abi": [
    {
      "inputs": [
        {
          "internalType": "address",
          "name": "ivContract",
          "type": "address"
        }
      ],
      "payable": false,
      "stateMutability": "nonpayable",
      "type": "constructor"
    },
    {
      "anonymous": false,
      "inputs": [
        {
          "indexed": true,
          "internalType": "address",
          "name": "previousOwner",
          "type": "address"
        },
        {
          "indexed": true,
          "internalType": "address",
          "name": "newOwner",
          "type": "address"
        }
      ],
      "name": "OwnershipTransferred",
      "type": "event"
    },
    {
      "constant": true,
      "inputs": [],
      "name": "FIXED_ONE",
      "outputs": [
        {
          "internalType": "int256",
          "name": "",
          "type": "int256"
        }
      ],
      "payable": false,
      "stateMutability": "view",
      "type": "function"
    },
    {
      "constant": true,
      "inputs": [
        {
          "internalType": "uint256",
          "name": "selfOccupied",
          "type": "uint256"
        },
        {
          "internalType": "uint256",
          "name": "totalOccupied",
          "type": "uint256"
        },
        {
          "internalType": "uint256",
          "name": "totalCollateral",
          "type": "uint256"
        }
      ],
      "name": "calOptionsPriceRatio",
      "outputs": [
        {
          "internalType": "uint256",
          "name": "",
          "type": "uint256"
        }
      ],
      "payable": false,
      "stateMutability": "pure",
      "type": "function"
    },
    {
      "constant": true,
      "inputs": [],
      "name": "getVolatilityAddress",
      "outputs": [
        {
          "internalType": "address",
          "name": "",
          "type": "address"
        }
      ],
      "payable": false,
      "stateMutability": "view",
      "type": "function"
    },
    {
      "constant": true,
      "inputs": [],
      "name": "isOwner",
      "outputs": [
        {
          "internalType": "bool",
          "name": "",
          "type": "bool"
        }
      ],
      "payable": false,
      "stateMutability": "view",
      "type": "function"
    },
    {
      "constant": true,
      "inputs": [],
      "name": "owner",
      "outputs": [
        {
          "internalType": "address",
          "name": "",
          "type": "address"
        }
      ],
      "payable": false,
      "stateMutability": "view",
      "type": "function"
    },
    {
      "constant": false,
      "inputs": [],
      "name": "renounceOwnership",
      "outputs": [],
      "payable": false,
      "stateMutability": "nonpayable",
      "type": "function"
    },
    {
      "constant": false,
      "inputs": [
        {
          "internalType": "address",
          "name": "volatility",
          "type": "address"
        }
      ],
      "name": "setVolatilityAddress",
      "outputs": [],
      "payable": false,
      "stateMutability": "nonpayable",
      "type": "function"
    },
    {
      "constant": false,
      "inputs": [
        {
          "internalType": "address",
          "name": "newOwner",
          "type": "address"
        }
      ],
      "name": "transferOwnership",
      "outputs": [],
      "payable": false,
      "stateMutability": "nonpayable",
      "type": "function"
    },
    {
      "constant": true,
      "inputs": [
        {
          "internalType": "uint256",
          "name": "currentPrice",
          "type": "uint256"
        },
        {
          "internalType": "uint256",
          "name": "strikePrice",
          "type": "uint256"
        },
        {
          "internalType": "uint256",
          "name": "expiration",
          "type": "uint256"
        },
        {
          "internalType": "uint32",
          "name": "underlying",
          "type": "uint32"
        },
        {
          "internalType": "uint8",
          "name": "optType",
          "type": "uint8"
        }
      ],
      "name": "getOptionsPrice",
      "outputs": [
        {
          "internalType": "uint256",
          "name": "",
          "type": "uint256"
        }
      ],
      "payable": false,
      "stateMutability": "view",
      "type": "function"
    },
    {
      "constant": true,
      "inputs": [
        {
          "internalType": "uint256",
          "name": "currentPrice",
          "type": "uint256"
        },
        {
          "internalType": "uint256",
          "name": "strikePrice",
          "type": "uint256"
        },
        {
          "internalType": "uint256",
          "name": "expiration",
          "type": "uint256"
        },
        {
          "internalType": "uint256",
          "name": "ivNumerator",
          "type": "uint256"
        },
        {
          "internalType": "uint8",
          "name": "optType",
          "type": "uint8"
        }
      ],
      "name": "getOptionsPrice_iv",
      "outputs": [
        {
          "internalType": "uint256",
          "name": "",
          "type": "uint256"
        }
      ],
      "payable": false,
      "stateMutability": "pure",
      "type": "function"
    }
  ],
  "bytecode": "0x608060405264040000000060025534801561001957600080fd5b5060405161128d38038061128d8339818101604052602081101561003c57600080fd5b505160008054600160a060020a03191633178082556040518392600160a060020a039290921691907f8be0079c531659141344cd1fd0a4f28419497f9722a3daafe3b4186f6b6457e0908290a361009b816401000000006100a2810204565b5050610151565b6100b3640100000000610140810204565b61011e57604080517f08c379a000000000000000000000000000000000000000000000000000000000815260206004820181905260248201527f4f776e61626c653a2063616c6c6572206973206e6f7420746865206f776e6572604482015290519081900360640190fd5b60018054600160a060020a031916600160a060020a0392909216919091179055565b600054600160a060020a0316331490565b61112d806101606000396000f3fe608060405234801561001057600080fd5b50600436106100bb576000357c0100000000000000000000000000000000000000000000000000000000900480638da5cb5b116100835780638da5cb5b1461019c5780638f32d59b146101a4578063f0ead170146101c0578063f22f2543146101c8578063f2fde38b146101f1576100bb565b80632967eafe146100c057806342e5479d146100e85780634b7d8e5c1461010c57806362df80ce1461015c578063715018a614610194575b600080fd5b6100e6600480360360208110156100d657600080fd5b5035600160a060020a0316610217565b005b6100f06102a2565b60408051600160a060020a039092168252519081900360200190f35b61014a600480360360a081101561012257600080fd5b50803590602081013590604081013590606081013563ffffffff16906080013560ff166102b1565b60408051918252519081900360200190f35b61014a600480360360a081101561017257600080fd5b508035906020810135906040810135906060810135906080013560ff166102d3565b6100e66102e9565b6100f061039c565b6101ac6103ab565b604080519115158252519081900360200190f35b61014a6103bc565b61014a600480360360608110156101de57600080fd5b50803590602081013590604001356103c5565b6100e66004803603602081101561020757600080fd5b5035600160a060020a031661043c565b61021f6103ab565b610273576040805160e560020a62461bcd02815260206004820181905260248201527f4f776e61626c653a2063616c6c6572206973206e6f7420746865206f776e6572604482015290519081900360640190fd5b6001805473ffffffffffffffffffffffffffffffffffffffff1916600160a060020a0392909216919091179055565b600154600160a060020a031690565b600083610fa00293506102c786868686866104a4565b90505b95945050505050565b600083610fa00293506102c786868686866105e2565b6102f16103ab565b610345576040805160e560020a62461bcd02815260206004820181905260248201527f4f776e61626c653a2063616c6c6572206973206e6f7420746865206f776e6572604482015290519081900360640190fd5b60008054604051600160a060020a03909116907f8be0079c531659141344cd1fd0a4f28419497f9722a3daafe3b4186f6b6457e0908390a36000805473ffffffffffffffffffffffffffffffffffffffff19169055565b600054600160a060020a031690565b600054600160a060020a0316331490565b64010000000081565b60008284600202116103dd5750640100000000610435565b6000836401000000008602816103ef57fe5b046380000000019050600083858161040357fe5b049050602060026003848402026801000000000000000060029390930a91900404808002020464010000000001925050505b9392505050565b6104446103ab565b610498576040805160e560020a62461bcd02815260206004820181905260248201527f4f776e61626c653a2063616c6c6572206973206e6f7420746865206f776e6572604482015290519081900360640190fd5b6104a18161065c565b50565b600154604080517f185d123200000000000000000000000000000000000000000000000000000000815263ffffffff8516600482015260ff8416602482015260448101869052606481018890526084810187905290516000928392600160a060020a039091169163185d12329160a480820192602092909190829003018186803b15801561053157600080fd5b505afa158015610545573d6000803e3d6000fd5b505050506040513d602081101561055b57600080fd5b5051905060ff831661057b576105738787878461070c565b9150506102ca565b8260ff16600114156105935761057387878784610770565b60028360ff16106105d85760405160e560020a62461bcd0281526004018080602001828103825260318152602001806110c86031913960400191505060405180910390fd5b5095945050505050565b600060ff82166105ff576105f88686868661070c565b90506102ca565b8160ff1660011415610617576105f886868686610770565b60028260ff16106102ca5760405160e560020a62461bcd0281526004018080602001828103825260318152602001806110c86031913960400191505060405180910390fd5b600160a060020a0381166106a45760405160e560020a62461bcd0281526004018080602001828103825260268152602001806110a26026913960400191505060405180910390fd5b60008054604051600160a060020a03808516939216917f8be0079c531659141344cd1fd0a4f28419497f9722a3daafe3b4186f6b6457e091a36000805473ffffffffffffffffffffffffffffffffffffffff1916600160a060020a0392909216919091179055565b600080600061071d878787876107bd565b9150915061072a8261084e565b91506107358161084e565b90508581028783020391506000821361074f576000610765565b6401000000006000808412900380841891909104185b979650505050505050565b6000806000610781878787876107bd565b9150915061078e8261084e565b91506107998161084e565b6401000000009283038802920386029182039190506000821361074f576000610765565b60008080858711156107e9576107e2866401000000008902816107dc57fe5b04610998565b905061080a565b8587101561080a57610804876401000000008802816107dc57fe5b60000390505b6301e13380640200000000858002048602049081019061082c60028202610a1e565b90508064010000000083028161083e57fe5b0598908903975095505050505050565b60008082128015610860578260000392505b640600000000831315610888578061087d57640100000000610880565b60005b915050610993565b633b4ce23160006401000000008583028281128303908118829004180168010000000000000000816108b657fe5b0590506402000000008580020594506108ce85610a5c565b67662114cf00000000816108de57fe5b6801000000000000000060006401548cdd6f640100000000868002838112840390811882900418808802848112850390811883900418808902858112860390811884900418808a028681128703908118949094049093189384026401d23dd4ee199093026401c80ef026909102635b47c396199092026351c2fcea8a020191909101010194909304840281811290910390811891909104189650908461098a5764010000000096909603955b86955050505050505b919050565b60006401000000008210156109f7576040805160e560020a62461bcd02815260206004820181905260248201527f6c6f67652066756e6374696f6e20696e70757420697320746f6f20736d616c6c604482015290519081900360640190fd5b6000610a0283610aca565b67010000000000000066b17217f7d1cf78909102049392505050565b6401000000000280600260018201045b81811015610a5657809150600281828581610a4557fe5b040181610a4e57fe5b049050610a2e565b50919050565b600064386bfdba29821115610abb576040805160e560020a62461bcd02815260206004820152601e60248201527f6578702066756e6374696f6e20696e707574206973206f766572666c6f770000604482015290519081900360640190fd5b610ac482610b97565b92915050565b6000640100000000821015610b29576040805160e560020a62461bcd02815260206004820152601760248201527f4c6f673220696e70757420697320746f6f20736d616c6c000000000000000000604482015290519081900360640190fd5b60005b6402000000008310610b4a5760029092049164010000000001610b2c565b60005b602060ff82161015610b90576401000000008480020493506402000000008410610b88576002938490049360ff601f83900316900a91909101905b600101610b4d565b5092915050565b600080602060ff1660019060020a0290506000816fde1bc4d19efcac82445da75b00000000029050602060ff16848302908060020a82049150509150816fde1bc4d19efcb00000000000000000000281019050602060ff16848302908060020a82049150509150816f6f0de268cf7e580000000000000000000281019050602060ff16848302908060020a82049150509150816f2504a0cd9a7f720000000000000000000281019050602060ff16848302908060020a82049150509150816f09412833669fdc8000000000000000000281019050602060ff16848302908060020a82049150509150816f01d9d4d714865f5000000000000000000281019050602060ff16848302908060020a82049150509150816e4ef8ce836bba8c00000000000000000281019050602060ff16848302908060020a82049150509150816e0b481d807d1aa680000000000000000281019050602060ff16848302908060020a82049150509150816e016903b00fa354d0000000000000000281019050602060ff16848302908060020a82049150509150816d281cdaac677b34000000000000000281019050602060ff16848302908060020a82049150509150816d0402e2aad725eb800000000000000281019050602060ff16848302908060020a82049150509150816c5d5a6c9f31fe240000000000000281019050602060ff16848302908060020a82049150509150816c07c7890d442a830000000000000281019050602060ff16848302908060020a82049150509150816b9931ed5403452800000000000281019050602060ff16848302908060020a82049150509150816b0af147cf24ce1500000000000281019050602060ff16848302908060020a82049150509150816abac08546b867d0000000000281019050602060ff16848302908060020a82049150509150816a0bac08546b867d000000000281019050602060ff16848302908060020a820491505091508169afc441338061b80000000281019050602060ff16848302908060020a82049150509150816909c3cabbc0056e0000000281019050602060ff16848302908060020a820491505091508168839168328705c800000281019050602060ff16848302908060020a8204915050915081680694120286c04a00000281019050602060ff16848302908060020a82049150509150816750319e98b3d2c4000281019050602060ff16848302908060020a82049150509150816703a52a1e36b820200281019050602060ff16848302908060020a820491505091508166289286e0fce0020281019050602060ff16848302908060020a82049150509150816601b0c59eb534000281019050602060ff16848302908060020a820491505091508165114f95b554000281019050602060ff16848302908060020a820491505091508164aa7210d2000281019050602060ff16848302908060020a82049150509150816406501396000281019050602060ff16848302908060020a82049150509150816339b78e800281019050602060ff16848302908060020a82049150509150816301fd80800281019050602060ff16848302908060020a82049150509150816210fbc00281019050602060ff16848302908060020a8204915050915081618c400281019050602060ff16848302908060020a82049150509150816104620281019050602060ff16848302908060020a8204915050915081602202810190506fde1bc4d19efcac82445da75b00000000818161109857fe5b0494935050505056fe4f776e61626c653a206e6577206f776e657220697320746865207a65726f2061646472657373204d75737420696e707574203020666f722063616c6c206f7074696f6e206f72203120666f7220707574206f7074696f6ea265627a7a7231582028f6332c2ac125f5f70b54ff9f948f9b60504c7ac208fa2a0c1f4fdb9afe77ac64736f6c63430005100032",
  "source": "pragma solidity =0.5.16;\r\nimport \"../optionsPrice.sol\";\r\ncontract OptionsPriceTest is OptionsPrice{\r\n    constructor (address ivContract) OptionsPrice(ivContract) public{\r\n    }\r\n        /**\r\n     * @dev calculate option's price using B_S formulas\r\n     * @param currentPrice current underlying price.\r\n     * @param strikePrice option's strike price.\r\n     * @param expiration option's expiration left time. Equal option's expiration timestamp - now.\r\n     * @param underlying option's underlying id, 1 for BTC, 2 for ETH.\r\n     * @param optType option's type, 0 for CALL, 2 for PUT.\r\n     */\r\n    function getOptionsPrice(uint256 currentPrice, uint256 strikePrice, uint256 expiration,uint32 underlying,uint8 optType)public view returns (uint256){\r\n        expiration = expiration * 4000;\r\n        return OptionsPrice.getOptionsPrice(currentPrice,strikePrice,expiration,underlying,optType);\r\n    }\r\n    /**\r\n     * @dev calculate option's price using B_S formulas with user input iv.\r\n     * @param currentPrice current underlying price.\r\n     * @param strikePrice option's strike price.\r\n     * @param expiration option's expiration left time. Equal option's expiration timestamp - now.\r\n     * @param ivNumerator user input iv numerator.\r\n     * @param optType option's type, 0 for CALL, 2 for PUT.\r\n     */\r\n    function getOptionsPrice_iv(uint256 currentPrice, uint256 strikePrice, uint256 expiration,\r\n            uint256 ivNumerator,uint8 optType)public pure returns (uint256){\r\n                expiration = expiration * 4000;\r\n        return OptionsPrice.getOptionsPrice_iv(currentPrice,strikePrice,expiration,ivNumerator,optType);\r\n    }\r\n}\r\n",
  "sourcePath": "C:\\work\\solidity\\finnexusOptions_V2.1\\contracts\\test\\optionsPriceTest.sol",
  "compiler": {
    "name": "solc",
    "version": "0.5.16+commit.9c3226ce.Emscripten.clang"
  },
  "schemaVersion": "3.1.0",
  "updatedAt": "2020-10-24T10:45:23.526Z",
  "devdoc": {
    "methods": {
      "getOptionsPrice(uint256,uint256,uint256,uint32,uint8)": {
        "details": "calculate option's price using B_S formulas",
        "params": {
          "currentPrice": "current underlying price.",
          "expiration": "option's expiration left time. Equal option's expiration timestamp - now.",
          "optType": "option's type, 0 for CALL, 2 for PUT.",
          "strikePrice": "option's strike price.",
          "underlying": "option's underlying id, 1 for BTC, 2 for ETH."
        }
      },
      "getOptionsPrice_iv(uint256,uint256,uint256,uint256,uint8)": {
        "details": "calculate option's price using B_S formulas with user input iv.",
        "params": {
          "currentPrice": "current underlying price.",
          "expiration": "option's expiration left time. Equal option's expiration timestamp - now.",
          "ivNumerator": "user input iv numerator.",
          "optType": "option's type, 0 for CALL, 2 for PUT.",
          "strikePrice": "option's strike price."
        }
      },
      "isOwner()": {
        "details": "Returns true if the caller is the current owner."
      },
      "owner()": {
        "details": "Returns the address of the current owner."
      },
      "renounceOwnership()": {
        "details": "Leaves the contract without owner. It will not be possible to call `onlyOwner` functions anymore. Can only be called by the current owner.      * NOTE: Renouncing ownership will leave the contract without an owner, thereby removing any functionality that is only available to the owner."
      },
      "transferOwnership(address)": {
        "details": "Transfers ownership of the contract to a new account (`newOwner`). Can only be called by the current owner."
      }
    }
  },
  "userdoc": {
    "methods": {}
  }
}