{
  "contractName": "OptionsData",
  "abi": [
    {
      "anonymous": false,
      "inputs": [
        {
          "indexed": true,
          "internalType": "address",
          "name": "owner",
          "type": "address"
        },
        {
          "indexed": true,
          "internalType": "uint256",
          "name": "optionID",
          "type": "uint256"
        },
        {
          "indexed": false,
          "internalType": "uint256",
          "name": "amount",
          "type": "uint256"
        }
      ],
      "name": "BurnOption",
      "type": "event"
    },
    {
      "anonymous": false,
      "inputs": [
        {
          "indexed": true,
          "internalType": "address",
          "name": "owner",
          "type": "address"
        },
        {
          "indexed": true,
          "internalType": "uint256",
          "name": "optionID",
          "type": "uint256"
        },
        {
          "indexed": false,
          "internalType": "uint8",
          "name": "optType",
          "type": "uint8"
        },
        {
          "indexed": false,
          "internalType": "uint32",
          "name": "underlying",
          "type": "uint32"
        },
        {
          "indexed": false,
          "internalType": "uint256",
          "name": "expiration",
          "type": "uint256"
        },
        {
          "indexed": false,
          "internalType": "uint256",
          "name": "strikePrice",
          "type": "uint256"
        },
        {
          "indexed": false,
          "internalType": "uint256",
          "name": "amount",
          "type": "uint256"
        }
      ],
      "name": "CreateOption",
      "type": "event"
    },
    {
      "anonymous": false,
      "inputs": [
        {
          "indexed": false,
          "internalType": "uint256",
          "name": "id",
          "type": "uint256"
        },
        {
          "indexed": false,
          "internalType": "uint256",
          "name": "value1",
          "type": "uint256"
        },
        {
          "indexed": false,
          "internalType": "uint256",
          "name": "value2",
          "type": "uint256"
        }
      ],
      "name": "DebugEvent",
      "type": "event"
    },
    {
      "anonymous": false,
      "inputs": [
        {
          "indexed": true,
          "internalType": "address",
          "name": "previousOwner",
          "type": "address"
        },
        {
          "indexed": true,
          "internalType": "address",
          "name": "newOwner",
          "type": "address"
        }
      ],
      "name": "OwnershipTransferred",
      "type": "event"
    },
    {
      "constant": false,
      "inputs": [
        {
          "internalType": "address",
          "name": "addAddress",
          "type": "address"
        }
      ],
      "name": "addOperator",
      "outputs": [],
      "payable": false,
      "stateMutability": "nonpayable",
      "type": "function"
    },
    {
      "constant": false,
      "inputs": [
        {
          "internalType": "uint32",
          "name": "underlying",
          "type": "uint32"
        }
      ],
      "name": "addUnderlyingAsset",
      "outputs": [],
      "payable": false,
      "stateMutability": "nonpayable",
      "type": "function"
    },
    {
      "constant": true,
      "inputs": [],
      "name": "getInputAmountRange",
      "outputs": [
        {
          "internalType": "uint256",
          "name": "",
          "type": "uint256"
        },
        {
          "internalType": "uint256",
          "name": "",
          "type": "uint256"
        }
      ],
      "payable": false,
      "stateMutability": "view",
      "type": "function"
    },
    {
      "constant": true,
      "inputs": [
        {
          "internalType": "uint256",
          "name": "item",
          "type": "uint256"
        }
      ],
      "name": "getItemTimeLimitation",
      "outputs": [
        {
          "internalType": "uint256",
          "name": "",
          "type": "uint256"
        }
      ],
      "payable": false,
      "stateMutability": "view",
      "type": "function"
    },
    {
      "constant": true,
      "inputs": [],
      "name": "getManager",
      "outputs": [
        {
          "internalType": "address",
          "name": "",
          "type": "address"
        }
      ],
      "payable": false,
      "stateMutability": "view",
      "type": "function"
    },
    {
      "constant": true,
      "inputs": [],
      "name": "getOperator",
      "outputs": [
        {
          "internalType": "address[]",
          "name": "",
          "type": "address[]"
        }
      ],
      "payable": false,
      "stateMutability": "view",
      "type": "function"
    },
    {
      "constant": true,
      "inputs": [],
      "name": "getOptionsPriceAddress",
      "outputs": [
        {
          "internalType": "address",
          "name": "",
          "type": "address"
        }
      ],
      "payable": false,
      "stateMutability": "view",
      "type": "function"
    },
    {
      "constant": true,
      "inputs": [],
      "name": "getOracleAddress",
      "outputs": [
        {
          "internalType": "address",
          "name": "",
          "type": "address"
        }
      ],
      "payable": false,
      "stateMutability": "view",
      "type": "function"
    },
    {
      "constant": true,
      "inputs": [],
      "name": "getTimeLimitation",
      "outputs": [
        {
          "internalType": "uint256",
          "name": "",
          "type": "uint256"
        }
      ],
      "payable": false,
      "stateMutability": "view",
      "type": "function"
    },
    {
      "constant": true,
      "inputs": [],
      "name": "getUnderlyingAssets",
      "outputs": [
        {
          "internalType": "uint32[]",
          "name": "",
          "type": "uint32[]"
        }
      ],
      "payable": false,
      "stateMutability": "view",
      "type": "function"
    },
    {
      "constant": true,
      "inputs": [],
      "name": "getVolatilityAddress",
      "outputs": [
        {
          "internalType": "address",
          "name": "",
          "type": "address"
        }
      ],
      "payable": false,
      "stateMutability": "view",
      "type": "function"
    },
    {
      "constant": true,
      "inputs": [
        {
          "internalType": "uint32",
          "name": "underlying",
          "type": "uint32"
        }
      ],
      "name": "isEligibleUnderlyingAsset",
      "outputs": [
        {
          "internalType": "bool",
          "name": "",
          "type": "bool"
        }
      ],
      "payable": false,
      "stateMutability": "view",
      "type": "function"
    },
    {
      "constant": true,
      "inputs": [
        {
          "internalType": "uint256",
          "name": "Amount",
          "type": "uint256"
        }
      ],
      "name": "isInputAmountInRange",
      "outputs": [
        {
          "internalType": "bool",
          "name": "",
          "type": "bool"
        }
      ],
      "payable": false,
      "stateMutability": "view",
      "type": "function"
    },
    {
      "constant": true,
      "inputs": [],
      "name": "isOwner",
      "outputs": [
        {
          "internalType": "bool",
          "name": "",
          "type": "bool"
        }
      ],
      "payable": false,
      "stateMutability": "view",
      "type": "function"
    },
    {
      "constant": true,
      "inputs": [],
      "name": "owner",
      "outputs": [
        {
          "internalType": "address",
          "name": "",
          "type": "address"
        }
      ],
      "payable": false,
      "stateMutability": "view",
      "type": "function"
    },
    {
      "constant": false,
      "inputs": [
        {
          "internalType": "address",
          "name": "removeAddress",
          "type": "address"
        }
      ],
      "name": "removeOperator",
      "outputs": [
        {
          "internalType": "bool",
          "name": "",
          "type": "bool"
        }
      ],
      "payable": false,
      "stateMutability": "nonpayable",
      "type": "function"
    },
    {
      "constant": false,
      "inputs": [
        {
          "internalType": "uint32",
          "name": "removeUnderlying",
          "type": "uint32"
        }
      ],
      "name": "removeUnderlyingAssets",
      "outputs": [
        {
          "internalType": "bool",
          "name": "",
          "type": "bool"
        }
      ],
      "payable": false,
      "stateMutability": "nonpayable",
      "type": "function"
    },
    {
      "constant": false,
      "inputs": [],
      "name": "renounceOwnership",
      "outputs": [],
      "payable": false,
      "stateMutability": "nonpayable",
      "type": "function"
    },
    {
      "constant": false,
      "inputs": [
        {
          "internalType": "uint256",
          "name": "_minAmount",
          "type": "uint256"
        },
        {
          "internalType": "uint256",
          "name": "_maxAmount",
          "type": "uint256"
        }
      ],
      "name": "setInputAmountRange",
      "outputs": [],
      "payable": false,
      "stateMutability": "nonpayable",
      "type": "function"
    },
    {
      "constant": false,
      "inputs": [
        {
          "internalType": "address",
          "name": "managerAddress",
          "type": "address"
        }
      ],
      "name": "setManager",
      "outputs": [],
      "payable": false,
      "stateMutability": "nonpayable",
      "type": "function"
    },
    {
      "constant": false,
      "inputs": [
        {
          "internalType": "uint256",
          "name": "index",
          "type": "uint256"
        },
        {
          "internalType": "address",
          "name": "addAddress",
          "type": "address"
        }
      ],
      "name": "setOperator",
      "outputs": [],
      "payable": false,
      "stateMutability": "nonpayable",
      "type": "function"
    },
    {
      "constant": false,
      "inputs": [
        {
          "internalType": "address[]",
          "name": "operators",
          "type": "address[]"
        }
      ],
      "name": "setOperators",
      "outputs": [],
      "payable": false,
      "stateMutability": "nonpayable",
      "type": "function"
    },
    {
      "constant": false,
      "inputs": [
        {
          "internalType": "address",
          "name": "optionsPrice",
          "type": "address"
        }
      ],
      "name": "setOptionsPriceAddress",
      "outputs": [],
      "payable": false,
      "stateMutability": "nonpayable",
      "type": "function"
    },
    {
      "constant": false,
      "inputs": [
        {
          "internalType": "address",
          "name": "oracle",
          "type": "address"
        }
      ],
      "name": "setOracleAddress",
      "outputs": [],
      "payable": false,
      "stateMutability": "nonpayable",
      "type": "function"
    },
    {
      "constant": false,
      "inputs": [
        {
          "internalType": "uint256",
          "name": "_limitation",
          "type": "uint256"
        }
      ],
      "name": "setTimeLimitation",
      "outputs": [],
      "payable": false,
      "stateMutability": "nonpayable",
      "type": "function"
    },
    {
      "constant": false,
      "inputs": [
        {
          "internalType": "address",
          "name": "volatility",
          "type": "address"
        }
      ],
      "name": "setVolatilityAddress",
      "outputs": [],
      "payable": false,
      "stateMutability": "nonpayable",
      "type": "function"
    },
    {
      "constant": false,
      "inputs": [
        {
          "internalType": "address",
          "name": "newOwner",
          "type": "address"
        }
      ],
      "name": "transferOwnership",
      "outputs": [],
      "payable": false,
      "stateMutability": "nonpayable",
      "type": "function"
    }
  ],
  "bytecode": "0x60806040819052610e106003556c0c9f2c9cd04674edea40000000600455606460055560008054600160a060020a0319163317808255600160a060020a0316917f8be0079c531659141344cd1fd0a4f28419497f9722a3daafe3b4186f6b6457e0908290a361132e806100736000396000f3fe608060405234801561001057600080fd5b50600436106101c6576000357c0100000000000000000000000000000000000000000000000000000000900480639ab91a3511610116578063d5009584116100b4578063ddf71cd51161008e578063ddf71cd51461048f578063e7a1c1c014610532578063e7f43c681461055e578063f2fde38b14610566576101c6565b8063d500958414610441578063d6d1401214610449578063db6ad2bd1461046c576101c6565b8063afec82fc116100f0578063afec82fc146103cf578063b18b78dd146103f2578063bc9abed2146103fa578063d0ebdbe71461041b576101c6565b80639ab91a3514610360578063a093e2d014610383578063ac8a584a146103a9576101c6565b80635ca4b73b116101835780638da5cb5b1161015d5780638da5cb5b1461030d5780638f32d59b146103155780639783cbd91461031d5780639870d7fe1461033a576101c6565b80635ca4b73b146102cc578063715018a6146102d4578063813b5d4b146102dc576101c6565b80632967eafe146101cb5780632a75ee42146101f35780633582d7891461022257806342e5479d1461027a5780634688d5d61461029e5780634c69c00f146102a6575b600080fd5b6101f1600480360360208110156101e157600080fd5b5035600160a060020a031661058c565b005b6102106004803603602081101561020957600080fd5b50356105f8565b60408051918252519081900360200190f35b61022a61060f565b60408051602080825283518183015283519192839290830191858101910280838360005b8381101561026657818101518382015260200161024e565b505050509050019250505060405180910390f35b610282610694565b60408051600160a060020a039092168252519081900360200190f35b6102106106a3565b6101f1600480360360208110156102bc57600080fd5b5035600160a060020a03166106a9565b610282610715565b6101f1610724565b6102f9600480360360208110156102f257600080fd5b50356107b8565b604080519115158252519081900360200190f35b6102826107d4565b6102f96107e3565b6101f16004803603602081101561033357600080fd5b50356107f4565b6101f16004803603602081101561035057600080fd5b5035600160a060020a0316610843565b6101f16004803603604081101561037657600080fd5b50803590602001356108a1565b6101f16004803603602081101561039957600080fd5b5035600160a060020a03166108f6565b6102f9600480360360208110156103bf57600080fd5b5035600160a060020a0316610962565b6101f1600480360360208110156103e557600080fd5b503563ffffffff166109bf565b610282610a1a565b610402610a29565b6040805192835260208301919091528051918290030190f35b6101f16004803603602081101561043157600080fd5b5035600160a060020a0316610a33565b610282610a9f565b6102f96004803603602081101561045f57600080fd5b503563ffffffff16610aae565b6102f96004803603602081101561048257600080fd5b503563ffffffff16610b0b565b6101f1600480360360208110156104a557600080fd5b8101906020810181356401000000008111156104c057600080fd5b8201836020820111156104d257600080fd5b803590602001918460208302840111640100000000831117156104f457600080fd5b919080806020026020016040519081016040528093929190818152602001838360200280828437600092019190915250929550610b9c945050505050565b6101f16004803603604081101561054857600080fd5b5080359060200135600160a060020a0316610bfd565b61022a610c87565b6101f16004803603602081101561057c57600080fd5b5035600160a060020a0316610ce8565b6105946107e3565b6105d6576040805160e560020a62461bcd02815260206004820181905260248201526000805160206112da833981519152604482015290519081900360640190fd5b60088054600160a060020a031916600160a060020a0392909216919091179055565b600354600091825260026020526040909120540190565b6060600180548060200260200160405190810160405280929190818152602001828054801561068957602002820191906000526020600020906000905b82829054906101000a900463ffffffff1663ffffffff168152602001906004019060208260030104928301926001038202915080841161064c5790505b505050505090505b90565b600854600160a060020a031690565b60035490565b6106b16107e3565b6106f3576040805160e560020a62461bcd02815260206004820181905260248201526000805160206112da833981519152604482015290519081900360640190fd5b60078054600160a060020a031916600160a060020a0392909216919091179055565b600954600160a060020a031690565b61072c6107e3565b61076e576040805160e560020a62461bcd02815260206004820181905260248201526000805160206112da833981519152604482015290519081900360640190fd5b60008054604051600160a060020a03909116907f8be0079c531659141344cd1fd0a4f28419497f9722a3daafe3b4186f6b6457e0908390a360008054600160a060020a0319169055565b600081600454101580156107ce57508160055411155b92915050565b600054600160a060020a031690565b600054600160a060020a0316331490565b6107fc6107e3565b61083e576040805160e560020a62461bcd02815260206004820181905260248201526000805160206112da833981519152604482015290519081900360640190fd5b600355565b61084b6107e3565b61088d576040805160e560020a62461bcd02815260206004820181905260248201526000805160206112da833981519152604482015290519081900360640190fd5b61089e600a8263ffffffff610d3b16565b50565b6108a96107e3565b6108eb576040805160e560020a62461bcd02815260206004820181905260248201526000805160206112da833981519152604482015290519081900360640190fd5b600591909155600455565b6108fe6107e3565b610940576040805160e560020a62461bcd02815260206004820181905260248201526000805160206112da833981519152604482015290519081900360640190fd5b60098054600160a060020a031916600160a060020a0392909216919091179055565b600061096c6107e3565b6109ae576040805160e560020a62461bcd02815260206004820181905260248201526000805160206112da833981519152604482015290519081900360640190fd5b6107ce600a8363ffffffff610dd316565b6109c76107e3565b610a09576040805160e560020a62461bcd02815260206004820181905260248201526000805160206112da833981519152604482015290519081900360640190fd5b61089e60018263ffffffff610ec116565b600754600160a060020a031690565b6005546004549091565b610a3b6107e3565b610a7d576040805160e560020a62461bcd02815260206004820181905260248201526000805160206112da833981519152604482015290519081900360640190fd5b60068054600160a060020a031916600160a060020a0392909216919091179055565b600654600160a060020a031690565b6000610ab86107e3565b610afa576040805160e560020a62461bcd02815260206004820181905260248201526000805160206112da833981519152604482015290519081900360640190fd5b6107ce60018363ffffffff610f8816565b60006107ce826001805480602002602001604051908101604052809291908181526020018280548015610b8957602002820191906000526020600020906000905b82829054906101000a900463ffffffff1663ffffffff1681526020019060040190602082600301049283019260010382029150808411610b4c5790505b505050505061107890919063ffffffff16565b610ba46107e3565b610be6576040805160e560020a62461bcd02815260206004820181905260248201526000805160206112da833981519152604482015290519081900360640190fd5b8051610bf990600a9060208401906111b3565b5050565b610c056107e3565b610c47576040805160e560020a62461bcd02815260206004820181905260248201526000805160206112da833981519152604482015290519081900360640190fd5b80600a8381548110610c5557fe5b9060005260206000200160006101000a815481600160a060020a030219169083600160a060020a031602179055505050565b6060600a80548060200260200160405190810160405280929190818152602001828054801561068957602002820191906000526020600020905b8154600160a060020a03168152600190910190602001808311610cc1575050505050905090565b610cf06107e3565b610d32576040805160e560020a62461bcd02815260206004820181905260248201526000805160206112da833981519152604482015290519081900360640190fd5b61089e816110c1565b610d9e82805480602002602001604051908101604052809291908181526020018280548015610d9357602002820191906000526020600020905b8154600160a060020a03168152600190910190602001808311610d75575b505050505082611164565b610bf9578154600181018355600083815260209020018054600160a060020a038316600160a060020a03199091161790555050565b8154600090815b81811015610e205783600160a060020a0316858281548110610df857fe5b600091825260209091200154600160a060020a03161415610e1857610e20565b600101610dda565b81811015610eb657600182038114610e9a57846001830381548110610e4157fe5b9060005260206000200160009054906101000a9004600160a060020a0316858281548110610e6b57fe5b9060005260206000200160006101000a815481600160a060020a030219169083600160a060020a031602179055505b8454610eaa866000198301611218565b506001925050506107ce565b506000949350505050565b610f4682805480602002602001604051908101604052809291908181526020018280548015610f3b57602002820191906000526020600020906000905b82829054906101000a900463ffffffff1663ffffffff1681526020019060040190602082600301049283019260010382029150808411610efe5790505b505050505082611078565b610bf9578154600181018355600092835260209092206008830401805460079093166004026101000a63ffffffff818102199094169290931692909202179055565b8154600090815b81811015610fe1578363ffffffff16858281548110610faa57fe5b6000918252602090912060088204015460079091166004026101000a900463ffffffff161415610fd957610fe1565b600101610f8f565b81811015610eb6576001820381146110685784600183038154811061100257fe5b90600052602060002090600891828204019190066004029054906101000a900463ffffffff1685828154811061103457fe5b90600052602060002090600891828204019190066004026101000a81548163ffffffff021916908363ffffffff1602179055505b8454610eaa866000198301611241565b8151600090815b81811015610eb6578363ffffffff1685828151811061109a57fe5b602002602001015163ffffffff1614156110b9576001925050506107ce565b60010161107f565b600160a060020a0381166111095760405160e560020a62461bcd0281526004018080602001828103825260268152602001806112b46026913960400191505060405180910390fd5b60008054604051600160a060020a03808516939216917f8be0079c531659141344cd1fd0a4f28419497f9722a3daafe3b4186f6b6457e091a360008054600160a060020a031916600160a060020a0392909216919091179055565b8151600090815b81811015610eb65783600160a060020a031685828151811061118957fe5b6020026020010151600160a060020a031614156111ab576001925050506107ce565b60010161116b565b828054828255906000526020600020908101928215611208579160200282015b828111156112085782518254600160a060020a031916600160a060020a039091161782556020909201916001909101906111d3565b50611214929150611275565b5090565b81548183558181111561123c5760008381526020902061123c918101908301611299565b505050565b81548183558181111561123c57600701600890048160070160089004836000526020600020918201910161123c9190611299565b61069191905b80821115611214578054600160a060020a031916815560010161127b565b61069191905b80821115611214576000815560010161129f56fe4f776e61626c653a206e6577206f776e657220697320746865207a65726f20616464726573734f776e61626c653a2063616c6c6572206973206e6f7420746865206f776e6572a265627a7a72315820434688a55fdec33aa1bfc8e5920ac6255834896dc1068aa2d64ddcb42d48354764736f6c63430005100032",
  "source": "pragma solidity =0.5.16;\r\nimport \"../modules/Managerable.sol\";\r\nimport \"../interfaces/IFNXOracle.sol\";\r\nimport \"../modules/underlyingAssets.sol\";\r\nimport \"../interfaces/IVolatility.sol\";\r\nimport \"../interfaces/IOptionsPrice.sol\";\r\nimport \"../modules/Operator.sol\";\r\nimport \"../modules/ImputRange.sol\";\r\nimport \"../modules/timeLimitation.sol\";\r\ncontract OptionsData is UnderlyingAssets,timeLimitation,ImputRange,Managerable,ImportOracle,ImportVolatility,ImportOptionsPrice,Operator{\r\n\r\n        // store option info\r\n    struct OptionsInfo {\r\n        address     owner;      // option's owner\r\n        uint8   \toptType;    //0 for call, 1 for put\r\n        uint32\t\tunderlying; // underlying ID, 1 for BTC,2 for ETH\r\n\r\n        uint64\t\texpiration; // Expiration timestamp//64+32+160 expiration + underlyingPrice rate + settlement\r\n        uint64     iv;\r\n        uint128     amount;         // amount(<<128)\tfullPrice(<<64)\tivNumerator\r\n\r\n        uint128     strikePrice;    //timePrice(<<128)    strike price\t\t\r\n        uint128     underlyingPrice;    //timePrice(<<128)    strike price\t\t\r\n\r\n        uint128     optionsPrice;\r\n        uint128     settlePrice;\r\n    }\r\n    address internal collateral;\r\n    //all options information list\r\n    OptionsInfo[] internal allOptions;\r\n    //user options balances\r\n    mapping(address=>uint64[]) internal optionsBalances;\r\n    //expiration whitelist\r\n    uint32[] internal expirationList;\r\n    \r\n    // first option position which is needed calculate.\r\n    uint256 internal netWorthFirstOption;\r\n    // options latest networth balance. store all options's net worth share started from first option.\r\n    int256 internal optionsLatestNetWorth;\r\n\r\n    // first option position which is needed calculate.\r\n    uint256 internal occupiedFirstOption; \r\n    //latest calcutated Options Occupied value.\r\n    uint256 internal callOccupied;\r\n    uint256 internal putOccupied;\r\n    //latest Options volatile occupied value when bought or selled options.\r\n    int256 internal callLatestOccupied;\r\n    int256 internal putLatestOccupied;\r\n\r\n    /**\r\n     * @dev Emitted when `owner` create a new option. \r\n     * @param owner new option's owner\r\n     * @param optionID new option's id\r\n     * @param optionID new option's type \r\n     * @param underlying new option's underlying \r\n     * @param expiration new option's expiration timestamp\r\n     * @param strikePrice  new option's strikePrice\r\n     * @param amount  new option's amount\r\n     */\r\n    event CreateOption(address indexed owner,uint256 indexed optionID,uint8 optType,uint32 underlying,uint256 expiration,uint256 strikePrice,uint256 amount);\r\n    /**\r\n     * @dev Emitted when `owner` burn `amount` his option which id is `optionID`. \r\n     */    \r\n    event BurnOption(address indexed owner,uint256 indexed optionID,uint amount);\r\n    event DebugEvent(uint256 id,uint256 value1,uint256 value2);\r\n}\r\n/*\r\ncontract OptionsDataV2 is OptionsData{\r\n        // store option info\r\n    struct OptionsInfoV2 {\r\n        uint64     optionID;    //an increasing nubmer id, begin from one.\r\n        uint64\t\texpiration; // Expiration timestamp\r\n        uint128     strikePrice;    //strike price\r\n        uint8   \toptType;    //0 for call, 1 for put\r\n        uint32\t\tunderlying; // underlying ID, 1 for BTC,2 for ETH\r\n        address     owner;      // option's owner\r\n        uint256     amount;         // mint amount\r\n    }\r\n    // store option extra info\r\n    struct OptionsInfoExV2 {\r\n        address      settlement;    //user's settlement paying for option. \r\n        uint128      tokenTimePrice; //option's buying price based on settlement, used for options share calculation\r\n        uint128      underlyingPrice;//underlying price when option is created.\r\n        uint128      fullPrice;      //option's buying price.\r\n        uint128      ivNumerator;   // option's iv numerator when option is created.\r\n//        uint256      ivDenominator;// option's iv denominator when option is created.\r\n    }\r\n        //all options information list\r\n    OptionsInfoV2[] internal allOptionsV2;\r\n    // all option's extra information map\r\n    mapping(uint256=>OptionsInfoExV2) internal optionExtraMapV2;\r\n        //user options balances\r\n//    mapping(address=>uint64[]) internal optionsBalancesV2;\r\n}\r\n*/",
  "sourcePath": "C:\\work\\solidity\\finnexusOptions_V2.1\\contracts\\OptionsPool\\OptionsData.sol",
  "compiler": {
    "name": "solc",
    "version": "0.5.16+commit.9c3226ce.Emscripten.clang"
  },
  "schemaVersion": "3.1.0",
  "updatedAt": "2020-10-24T10:45:23.130Z",
  "devdoc": {
    "methods": {
      "addOperator(address)": {
        "details": "add a new operator by owner.       "
      },
      "addUnderlyingAsset(uint32)": {
        "details": "Implementation of add an eligible underlying into the underlyingAssets.",
        "params": {
          "underlying": "new eligible underlying."
        }
      },
      "getInputAmountRange()": {
        "details": "get the valid range of input amount"
      },
      "getItemTimeLimitation(uint256)": {
        "details": "Retrieve user's start time for burning. ",
        "params": {
          "item": "item key."
        }
      },
      "getManager()": {
        "details": "get manager address.       "
      },
      "getOperator()": {
        "details": "get all operators.       "
      },
      "getUnderlyingAssets()": {
        "details": "Implementation of getting the eligible underlyingAssets."
      },
      "isEligibleUnderlyingAsset(uint32)": {
        "details": "Implementation of testing whether the input underlying is eligible.",
        "params": {
          "underlying": "input underlying for testing."
        }
      },
      "isInputAmountInRange(uint256)": {
        "details": "Determine whether the input amount is within the valid range",
        "params": {
          "Amount": "Test value which is user input"
        }
      },
      "isOwner()": {
        "details": "Returns true if the caller is the current owner."
      },
      "owner()": {
        "details": "Returns the address of the current owner."
      },
      "removeOperator(address)": {
        "details": "remove operator by owner.       "
      },
      "removeUnderlyingAssets(uint32)": {
        "details": "Implementation of revoke an invalid underlying from the underlyingAssets.",
        "params": {
          "removeUnderlying": "revoked underlying."
        }
      },
      "renounceOwnership()": {
        "details": "Leaves the contract without owner. It will not be possible to call `onlyOwner` functions anymore. Can only be called by the current owner.      * NOTE: Renouncing ownership will leave the contract without an owner, thereby removing any functionality that is only available to the owner."
      },
      "setInputAmountRange(uint256,uint256)": {
        "details": "set the valid range of input amount",
        "params": {
          "_maxAmount": "the maximum input amount limit",
          "_minAmount": "the minimum input amount limit"
        }
      },
      "setManager(address)": {
        "details": "set manager by owner.       "
      },
      "setOperator(uint256,address)": {
        "details": "modify indexed operator by owner.       "
      },
      "setOperators(address[])": {
        "details": "set all operators by owner.       "
      },
      "setTimeLimitation(uint256)": {
        "details": "set time limitation, only owner can invoke. ",
        "params": {
          "_limitation": "new time limitation."
        }
      },
      "transferOwnership(address)": {
        "details": "Transfers ownership of the contract to a new account (`newOwner`). Can only be called by the current owner."
      }
    }
  },
  "userdoc": {
    "methods": {}
  }
}