{
  "contractName": "OptionsNetWorthCal",
  "abi": [
    {
      "anonymous": false,
      "inputs": [
        {
          "indexed": true,
          "internalType": "address",
          "name": "owner",
          "type": "address"
        },
        {
          "indexed": true,
          "internalType": "uint256",
          "name": "optionID",
          "type": "uint256"
        },
        {
          "indexed": false,
          "internalType": "uint256",
          "name": "amount",
          "type": "uint256"
        }
      ],
      "name": "BurnOption",
      "type": "event"
    },
    {
      "anonymous": false,
      "inputs": [
        {
          "indexed": true,
          "internalType": "address",
          "name": "owner",
          "type": "address"
        },
        {
          "indexed": true,
          "internalType": "uint256",
          "name": "optionID",
          "type": "uint256"
        },
        {
          "indexed": false,
          "internalType": "uint8",
          "name": "optType",
          "type": "uint8"
        },
        {
          "indexed": false,
          "internalType": "uint32",
          "name": "underlying",
          "type": "uint32"
        },
        {
          "indexed": false,
          "internalType": "uint256",
          "name": "expiration",
          "type": "uint256"
        },
        {
          "indexed": false,
          "internalType": "uint256",
          "name": "strikePrice",
          "type": "uint256"
        },
        {
          "indexed": false,
          "internalType": "uint256",
          "name": "amount",
          "type": "uint256"
        }
      ],
      "name": "CreateOption",
      "type": "event"
    },
    {
      "anonymous": false,
      "inputs": [
        {
          "indexed": false,
          "internalType": "uint256",
          "name": "id",
          "type": "uint256"
        },
        {
          "indexed": false,
          "internalType": "uint256",
          "name": "value1",
          "type": "uint256"
        },
        {
          "indexed": false,
          "internalType": "uint256",
          "name": "value2",
          "type": "uint256"
        }
      ],
      "name": "DebugEvent",
      "type": "event"
    },
    {
      "anonymous": false,
      "inputs": [
        {
          "indexed": true,
          "internalType": "address",
          "name": "previousOwner",
          "type": "address"
        },
        {
          "indexed": true,
          "internalType": "address",
          "name": "newOwner",
          "type": "address"
        }
      ],
      "name": "OwnershipTransferred",
      "type": "event"
    },
    {
      "constant": false,
      "inputs": [
        {
          "internalType": "uint32",
          "name": "expiration",
          "type": "uint32"
        }
      ],
      "name": "addExpiration",
      "outputs": [],
      "payable": false,
      "stateMutability": "nonpayable",
      "type": "function"
    },
    {
      "constant": false,
      "inputs": [
        {
          "internalType": "address",
          "name": "addAddress",
          "type": "address"
        }
      ],
      "name": "addOperator",
      "outputs": [],
      "payable": false,
      "stateMutability": "nonpayable",
      "type": "function"
    },
    {
      "constant": false,
      "inputs": [
        {
          "internalType": "uint32",
          "name": "underlying",
          "type": "uint32"
        }
      ],
      "name": "addUnderlyingAsset",
      "outputs": [],
      "payable": false,
      "stateMutability": "nonpayable",
      "type": "function"
    },
    {
      "constant": true,
      "inputs": [
        {
          "internalType": "uint32",
          "name": "expiration",
          "type": "uint32"
        },
        {
          "internalType": "uint32",
          "name": "underlying",
          "type": "uint32"
        }
      ],
      "name": "buyOptionCheck",
      "outputs": [],
      "payable": false,
      "stateMutability": "view",
      "type": "function"
    },
    {
      "constant": true,
      "inputs": [
        {
          "internalType": "uint256",
          "name": "lastOption",
          "type": "uint256"
        },
        {
          "internalType": "uint256",
          "name": "beginOption",
          "type": "uint256"
        },
        {
          "internalType": "uint256",
          "name": "endOption",
          "type": "uint256"
        }
      ],
      "name": "calculatePhaseOccupiedCollateral",
      "outputs": [
        {
          "internalType": "uint256",
          "name": "",
          "type": "uint256"
        },
        {
          "internalType": "uint256",
          "name": "",
          "type": "uint256"
        },
        {
          "internalType": "uint256",
          "name": "",
          "type": "uint256"
        },
        {
          "internalType": "bool",
          "name": "",
          "type": "bool"
        }
      ],
      "payable": false,
      "stateMutability": "view",
      "type": "function"
    },
    {
      "constant": true,
      "inputs": [
        {
          "internalType": "uint256",
          "name": "optionID",
          "type": "uint256"
        },
        {
          "internalType": "uint256",
          "name": "amount",
          "type": "uint256"
        }
      ],
      "name": "getBurnedFullPay",
      "outputs": [
        {
          "internalType": "uint256",
          "name": "",
          "type": "uint256"
        }
      ],
      "payable": false,
      "stateMutability": "view",
      "type": "function"
    },
    {
      "constant": true,
      "inputs": [],
      "name": "getCallTotalOccupiedCollateral",
      "outputs": [
        {
          "internalType": "uint256",
          "name": "",
          "type": "uint256"
        }
      ],
      "payable": false,
      "stateMutability": "view",
      "type": "function"
    },
    {
      "constant": true,
      "inputs": [
        {
          "internalType": "uint256",
          "name": "optionsId",
          "type": "uint256"
        },
        {
          "internalType": "uint256",
          "name": "amount",
          "type": "uint256"
        }
      ],
      "name": "getExerciseWorth",
      "outputs": [
        {
          "internalType": "uint256",
          "name": "",
          "type": "uint256"
        }
      ],
      "payable": false,
      "stateMutability": "view",
      "type": "function"
    },
    {
      "constant": true,
      "inputs": [],
      "name": "getExpirationList",
      "outputs": [
        {
          "internalType": "uint32[]",
          "name": "",
          "type": "uint32[]"
        }
      ],
      "payable": false,
      "stateMutability": "view",
      "type": "function"
    },
    {
      "constant": true,
      "inputs": [],
      "name": "getInputAmountRange",
      "outputs": [
        {
          "internalType": "uint256",
          "name": "",
          "type": "uint256"
        },
        {
          "internalType": "uint256",
          "name": "",
          "type": "uint256"
        }
      ],
      "payable": false,
      "stateMutability": "view",
      "type": "function"
    },
    {
      "constant": true,
      "inputs": [
        {
          "internalType": "uint256",
          "name": "item",
          "type": "uint256"
        }
      ],
      "name": "getItemTimeLimitation",
      "outputs": [
        {
          "internalType": "uint256",
          "name": "",
          "type": "uint256"
        }
      ],
      "payable": false,
      "stateMutability": "view",
      "type": "function"
    },
    {
      "constant": true,
      "inputs": [],
      "name": "getManager",
      "outputs": [
        {
          "internalType": "address",
          "name": "",
          "type": "address"
        }
      ],
      "payable": false,
      "stateMutability": "view",
      "type": "function"
    },
    {
      "constant": true,
      "inputs": [],
      "name": "getOccupiedCalInfo",
      "outputs": [
        {
          "internalType": "uint256",
          "name": "",
          "type": "uint256"
        },
        {
          "internalType": "int256",
          "name": "",
          "type": "int256"
        },
        {
          "internalType": "int256",
          "name": "",
          "type": "int256"
        }
      ],
      "payable": false,
      "stateMutability": "view",
      "type": "function"
    },
    {
      "constant": true,
      "inputs": [],
      "name": "getOperator",
      "outputs": [
        {
          "internalType": "address[]",
          "name": "",
          "type": "address[]"
        }
      ],
      "payable": false,
      "stateMutability": "view",
      "type": "function"
    },
    {
      "constant": true,
      "inputs": [],
      "name": "getOptionInfoLength",
      "outputs": [
        {
          "internalType": "uint256",
          "name": "",
          "type": "uint256"
        }
      ],
      "payable": false,
      "stateMutability": "view",
      "type": "function"
    },
    {
      "constant": true,
      "inputs": [
        {
          "internalType": "uint256",
          "name": "from",
          "type": "uint256"
        },
        {
          "internalType": "uint256",
          "name": "size",
          "type": "uint256"
        }
      ],
      "name": "getOptionInfoList",
      "outputs": [
        {
          "internalType": "address[]",
          "name": "",
          "type": "address[]"
        },
        {
          "internalType": "uint256[]",
          "name": "",
          "type": "uint256[]"
        },
        {
          "internalType": "uint256[]",
          "name": "",
          "type": "uint256[]"
        },
        {
          "internalType": "uint256[]",
          "name": "",
          "type": "uint256[]"
        },
        {
          "internalType": "uint256[]",
          "name": "",
          "type": "uint256[]"
        }
      ],
      "payable": false,
      "stateMutability": "view",
      "type": "function"
    },
    {
      "constant": true,
      "inputs": [
        {
          "internalType": "uint256[]",
          "name": "ids",
          "type": "uint256[]"
        }
      ],
      "name": "getOptionInfoListFromID",
      "outputs": [
        {
          "internalType": "address[]",
          "name": "",
          "type": "address[]"
        },
        {
          "internalType": "uint256[]",
          "name": "",
          "type": "uint256[]"
        },
        {
          "internalType": "uint256[]",
          "name": "",
          "type": "uint256[]"
        },
        {
          "internalType": "uint256[]",
          "name": "",
          "type": "uint256[]"
        },
        {
          "internalType": "uint256[]",
          "name": "",
          "type": "uint256[]"
        }
      ],
      "payable": false,
      "stateMutability": "view",
      "type": "function"
    },
    {
      "constant": true,
      "inputs": [
        {
          "internalType": "uint256",
          "name": "optionsId",
          "type": "uint256"
        }
      ],
      "name": "getOptionsById",
      "outputs": [
        {
          "internalType": "uint256",
          "name": "",
          "type": "uint256"
        },
        {
          "internalType": "address",
          "name": "",
          "type": "address"
        },
        {
          "internalType": "uint8",
          "name": "",
          "type": "uint8"
        },
        {
          "internalType": "uint32",
          "name": "",
          "type": "uint32"
        },
        {
          "internalType": "uint256",
          "name": "",
          "type": "uint256"
        },
        {
          "internalType": "uint256",
          "name": "",
          "type": "uint256"
        },
        {
          "internalType": "uint256",
          "name": "",
          "type": "uint256"
        }
      ],
      "payable": false,
      "stateMutability": "view",
      "type": "function"
    },
    {
      "constant": true,
      "inputs": [
        {
          "internalType": "uint256",
          "name": "optionsId",
          "type": "uint256"
        }
      ],
      "name": "getOptionsLimitTimeById",
      "outputs": [
        {
          "internalType": "uint256",
          "name": "",
          "type": "uint256"
        }
      ],
      "payable": false,
      "stateMutability": "view",
      "type": "function"
    },
    {
      "constant": true,
      "inputs": [],
      "name": "getOptionsPriceAddress",
      "outputs": [
        {
          "internalType": "address",
          "name": "",
          "type": "address"
        }
      ],
      "payable": false,
      "stateMutability": "view",
      "type": "function"
    },
    {
      "constant": true,
      "inputs": [],
      "name": "getOracleAddress",
      "outputs": [
        {
          "internalType": "address",
          "name": "",
          "type": "address"
        }
      ],
      "payable": false,
      "stateMutability": "view",
      "type": "function"
    },
    {
      "constant": true,
      "inputs": [],
      "name": "getPutTotalOccupiedCollateral",
      "outputs": [
        {
          "internalType": "uint256",
          "name": "",
          "type": "uint256"
        }
      ],
      "payable": false,
      "stateMutability": "view",
      "type": "function"
    },
    {
      "constant": true,
      "inputs": [],
      "name": "getTimeLimitation",
      "outputs": [
        {
          "internalType": "uint256",
          "name": "",
          "type": "uint256"
        }
      ],
      "payable": false,
      "stateMutability": "view",
      "type": "function"
    },
    {
      "constant": true,
      "inputs": [],
      "name": "getTotalOccupiedCollateral",
      "outputs": [
        {
          "internalType": "uint256",
          "name": "",
          "type": "uint256"
        }
      ],
      "payable": false,
      "stateMutability": "view",
      "type": "function"
    },
    {
      "constant": true,
      "inputs": [],
      "name": "getUnderlyingAssets",
      "outputs": [
        {
          "internalType": "uint32[]",
          "name": "",
          "type": "uint32[]"
        }
      ],
      "payable": false,
      "stateMutability": "view",
      "type": "function"
    },
    {
      "constant": true,
      "inputs": [
        {
          "internalType": "address",
          "name": "user",
          "type": "address"
        }
      ],
      "name": "getUserOptionsID",
      "outputs": [
        {
          "internalType": "uint64[]",
          "name": "",
          "type": "uint64[]"
        }
      ],
      "payable": false,
      "stateMutability": "view",
      "type": "function"
    },
    {
      "constant": true,
      "inputs": [
        {
          "internalType": "address",
          "name": "user",
          "type": "address"
        },
        {
          "internalType": "uint256",
          "name": "from",
          "type": "uint256"
        },
        {
          "internalType": "uint256",
          "name": "size",
          "type": "uint256"
        }
      ],
      "name": "getUserOptionsID",
      "outputs": [
        {
          "internalType": "uint64[]",
          "name": "",
          "type": "uint64[]"
        }
      ],
      "payable": false,
      "stateMutability": "view",
      "type": "function"
    },
    {
      "constant": true,
      "inputs": [],
      "name": "getVolatilityAddress",
      "outputs": [
        {
          "internalType": "address",
          "name": "",
          "type": "address"
        }
      ],
      "payable": false,
      "stateMutability": "view",
      "type": "function"
    },
    {
      "constant": false,
      "inputs": [],
      "name": "initialize",
      "outputs": [],
      "payable": false,
      "stateMutability": "nonpayable",
      "type": "function"
    },
    {
      "constant": true,
      "inputs": [
        {
          "internalType": "uint32",
          "name": "underlying",
          "type": "uint32"
        }
      ],
      "name": "isEligibleUnderlyingAsset",
      "outputs": [
        {
          "internalType": "bool",
          "name": "",
          "type": "bool"
        }
      ],
      "payable": false,
      "stateMutability": "view",
      "type": "function"
    },
    {
      "constant": true,
      "inputs": [
        {
          "internalType": "uint256",
          "name": "Amount",
          "type": "uint256"
        }
      ],
      "name": "isInputAmountInRange",
      "outputs": [
        {
          "internalType": "bool",
          "name": "",
          "type": "bool"
        }
      ],
      "payable": false,
      "stateMutability": "view",
      "type": "function"
    },
    {
      "constant": true,
      "inputs": [],
      "name": "isOwner",
      "outputs": [
        {
          "internalType": "bool",
          "name": "",
          "type": "bool"
        }
      ],
      "payable": false,
      "stateMutability": "view",
      "type": "function"
    },
    {
      "constant": true,
      "inputs": [],
      "name": "owner",
      "outputs": [
        {
          "internalType": "address",
          "name": "",
          "type": "address"
        }
      ],
      "payable": false,
      "stateMutability": "view",
      "type": "function"
    },
    {
      "constant": false,
      "inputs": [
        {
          "internalType": "uint32",
          "name": "removeExpiration",
          "type": "uint32"
        }
      ],
      "name": "removeExpirationList",
      "outputs": [
        {
          "internalType": "bool",
          "name": "",
          "type": "bool"
        }
      ],
      "payable": false,
      "stateMutability": "nonpayable",
      "type": "function"
    },
    {
      "constant": false,
      "inputs": [
        {
          "internalType": "address",
          "name": "removeAddress",
          "type": "address"
        }
      ],
      "name": "removeOperator",
      "outputs": [
        {
          "internalType": "bool",
          "name": "",
          "type": "bool"
        }
      ],
      "payable": false,
      "stateMutability": "nonpayable",
      "type": "function"
    },
    {
      "constant": false,
      "inputs": [
        {
          "internalType": "uint32",
          "name": "removeUnderlying",
          "type": "uint32"
        }
      ],
      "name": "removeUnderlyingAssets",
      "outputs": [
        {
          "internalType": "bool",
          "name": "",
          "type": "bool"
        }
      ],
      "payable": false,
      "stateMutability": "nonpayable",
      "type": "function"
    },
    {
      "constant": false,
      "inputs": [],
      "name": "renounceOwnership",
      "outputs": [],
      "payable": false,
      "stateMutability": "nonpayable",
      "type": "function"
    },
    {
      "constant": false,
      "inputs": [
        {
          "internalType": "uint256",
          "name": "totalCallOccupied",
          "type": "uint256"
        },
        {
          "internalType": "uint256",
          "name": "totalPutOccupied",
          "type": "uint256"
        },
        {
          "internalType": "uint256",
          "name": "beginOption",
          "type": "uint256"
        },
        {
          "internalType": "int256",
          "name": "latestCallOccpied",
          "type": "int256"
        },
        {
          "internalType": "int256",
          "name": "latestPutOccpied",
          "type": "int256"
        }
      ],
      "name": "setCollateralPhase",
      "outputs": [],
      "payable": false,
      "stateMutability": "nonpayable",
      "type": "function"
    },
    {
      "constant": false,
      "inputs": [
        {
          "internalType": "uint256",
          "name": "_minAmount",
          "type": "uint256"
        },
        {
          "internalType": "uint256",
          "name": "_maxAmount",
          "type": "uint256"
        }
      ],
      "name": "setInputAmountRange",
      "outputs": [],
      "payable": false,
      "stateMutability": "nonpayable",
      "type": "function"
    },
    {
      "constant": false,
      "inputs": [
        {
          "internalType": "address",
          "name": "managerAddress",
          "type": "address"
        }
      ],
      "name": "setManager",
      "outputs": [],
      "payable": false,
      "stateMutability": "nonpayable",
      "type": "function"
    },
    {
      "constant": false,
      "inputs": [],
      "name": "setOccupiedCollateral",
      "outputs": [],
      "payable": false,
      "stateMutability": "nonpayable",
      "type": "function"
    },
    {
      "constant": false,
      "inputs": [
        {
          "internalType": "uint256",
          "name": "index",
          "type": "uint256"
        },
        {
          "internalType": "address",
          "name": "addAddress",
          "type": "address"
        }
      ],
      "name": "setOperator",
      "outputs": [],
      "payable": false,
      "stateMutability": "nonpayable",
      "type": "function"
    },
    {
      "constant": false,
      "inputs": [
        {
          "internalType": "address[]",
          "name": "operators",
          "type": "address[]"
        }
      ],
      "name": "setOperators",
      "outputs": [],
      "payable": false,
      "stateMutability": "nonpayable",
      "type": "function"
    },
    {
      "constant": false,
      "inputs": [
        {
          "internalType": "address",
          "name": "optionsPrice",
          "type": "address"
        }
      ],
      "name": "setOptionsPriceAddress",
      "outputs": [],
      "payable": false,
      "stateMutability": "nonpayable",
      "type": "function"
    },
    {
      "constant": false,
      "inputs": [
        {
          "internalType": "address",
          "name": "oracle",
          "type": "address"
        }
      ],
      "name": "setOracleAddress",
      "outputs": [],
      "payable": false,
      "stateMutability": "nonpayable",
      "type": "function"
    },
    {
      "constant": false,
      "inputs": [
        {
          "internalType": "uint256",
          "name": "_limitation",
          "type": "uint256"
        }
      ],
      "name": "setTimeLimitation",
      "outputs": [],
      "payable": false,
      "stateMutability": "nonpayable",
      "type": "function"
    },
    {
      "constant": false,
      "inputs": [
        {
          "internalType": "address",
          "name": "volatility",
          "type": "address"
        }
      ],
      "name": "setVolatilityAddress",
      "outputs": [],
      "payable": false,
      "stateMutability": "nonpayable",
      "type": "function"
    },
    {
      "constant": false,
      "inputs": [
        {
          "internalType": "address",
          "name": "newOwner",
          "type": "address"
        }
      ],
      "name": "transferOwnership",
      "outputs": [],
      "payable": false,
      "stateMutability": "nonpayable",
      "type": "function"
    },
    {
      "constant": true,
      "inputs": [],
      "name": "getNetWrothCalInfo",
      "outputs": [
        {
          "internalType": "uint256",
          "name": "",
          "type": "uint256"
        },
        {
          "internalType": "int256",
          "name": "",
          "type": "int256"
        }
      ],
      "payable": false,
      "stateMutability": "view",
      "type": "function"
    },
    {
      "constant": true,
      "inputs": [],
      "name": "getNetWrothLatestWorth",
      "outputs": [
        {
          "internalType": "int256",
          "name": "",
          "type": "int256"
        }
      ],
      "payable": false,
      "stateMutability": "view",
      "type": "function"
    },
    {
      "constant": false,
      "inputs": [
        {
          "internalType": "uint256",
          "name": "newFirstOption",
          "type": "uint256"
        },
        {
          "internalType": "int256",
          "name": "latestNetWorth",
          "type": "int256"
        }
      ],
      "name": "setSharedState",
      "outputs": [],
      "payable": false,
      "stateMutability": "nonpayable",
      "type": "function"
    },
    {
      "constant": true,
      "inputs": [
        {
          "internalType": "uint256",
          "name": "lastOption",
          "type": "uint256"
        },
        {
          "internalType": "uint256",
          "name": "begin",
          "type": "uint256"
        },
        {
          "internalType": "uint256",
          "name": "end",
          "type": "uint256"
        }
      ],
      "name": "calRangeSharedPayment",
      "outputs": [
        {
          "internalType": "int256",
          "name": "",
          "type": "int256"
        },
        {
          "internalType": "uint256",
          "name": "",
          "type": "uint256"
        },
        {
          "internalType": "uint256",
          "name": "",
          "type": "uint256"
        }
      ],
      "payable": false,
      "stateMutability": "view",
      "type": "function"
    },
    {
      "constant": true,
      "inputs": [
        {
          "internalType": "uint256",
          "name": "lastOption",
          "type": "uint256"
        },
        {
          "internalType": "uint256",
          "name": "begin",
          "type": "uint256"
        },
        {
          "internalType": "uint256",
          "name": "end",
          "type": "uint256"
        }
      ],
      "name": "calculatePhaseOptionsFall",
      "outputs": [
        {
          "internalType": "int256",
          "name": "",
          "type": "int256"
        }
      ],
      "payable": false,
      "stateMutability": "view",
      "type": "function"
    }
  ],
  "bytecode": "0x60806040819052610e106003556c0c9f2c9cd04674edea40000000600455606460055560008054600160a060020a0319163317808255600160a060020a0316917f8be0079c531659141344cd1fd0a4f28419497f9722a3daafe3b4186f6b6457e0908290a3620000776401000000006200007d810204565b620002de565b6200009064010000000062000186810204565b620000fc57604080517f08c379a000000000000000000000000000000000000000000000000000000000815260206004820181905260248201527f4f776e61626c653a2063616c6c6572206973206e6f7420746865206f776e6572604482015290519081900360640190fd5b60408051610100810182526201518081526202a30060208201526203f4809181019190915262093a806060820152620d2f0060808201526213c68060a0820152621a5e0060c082015262278d0060e08201526200015e90600e90600862000198565b506040805180820190915260018082526002602083018190526200018392906200024d565b50565b600054600160a060020a031633145b90565b828054828255906000526020600020906007016008900481019282156200023b5791602002820160005b838211156200020757835183826101000a81548163ffffffff021916908362ffffff1602179055509260200192600401602081600301049283019260010302620001c2565b8015620002395782816101000a81549063ffffffff021916905560040160208160030104928301926001030262000207565b505b5062000249929150620002ba565b5090565b828054828255906000526020600020906007016008900481019282156200023b5791602002820160005b838211156200020757835183826101000a81548163ffffffff021916908360ff160217905550926020019260040160208160030104928301926001030262000277565b6200019591905b808211156200024957805463ffffffff19168155600101620002c1565b613e4d80620002ee6000396000f3fe608060405234801561001057600080fd5b5060043610610344576000357c0100000000000000000000000000000000000000000000000000000000900480638da5cb5b116101d5578063bc9abed211610121578063de897ec9116100bf578063e7f43c6811610099578063e7f43c6814610bc9578063f2fde38b14610bd1578063f504e2f014610bf7578063f7de192314610bff57610344565b8063de897ec914610b54578063e7a1c1c014610b77578063e7c5681514610ba357610344565b8063d5009584116100fb578063d500958414610a63578063d6d1401214610a6b578063db6ad2bd14610a8e578063ddf71cd514610ab157610344565b8063bc9abed214610a2d578063bec3107f14610a35578063d0ebdbe714610a3d57610344565b8063a093e2d01161018e578063ac8a584a11610168578063ac8a584a146109d4578063aef890be146109fa578063afec82fc14610a02578063b18b78dd14610a2557610344565b8063a093e2d014610958578063a67931cc1461097e578063a85504081461099f57610344565b80638da5cb5b146108da5780638f32d59b146108e25780639052d5f8146108ea5780639783cbd9146108f25780639870d7fe1461090f5780639ab91a351461093557610344565b80634ad9c384116102945780636d84e2e31161024d57806373a3d4241161022757806373a3d424146108915780637b05fce1146108995780638129fc1c146108a1578063813b5d4b146108a957610344565b80636d84e2e314610843578063715018a61461086057806371cee39e1461086857610344565b80634ad9c384146107895780634c69c00f146107ac578063597ce900146107d25780635ca4b73b146107f5578063604ecf22146107fd57806367b8ceb91461082057610344565b8063354af3601161030157806342e5479d116102db57806342e5479d146106d05780634457dee3146106f45780634688d5d61461071d57806348ee201d1461072557610344565b8063354af360146105cd5780633582d789146106705780633e77dfd9146106c857610344565b80630438d4901461034957806309057622146104d45780630973598e146104fa5780630c372571146105275780632967eafe146105785780632a75ee421461059e575b600080fd5b61036c6004803603604081101561035f57600080fd5b5080359060200135610c31565b60405180806020018060200180602001806020018060200186810386528b818151815260200191508051906020019060200280838360005b838110156103bc5781810151838201526020016103a4565b5050505090500186810385528a818151815260200191508051906020019060200280838360005b838110156103fb5781810151838201526020016103e3565b50505050905001868103845289818151815260200191508051906020019060200280838360005b8381101561043a578181015183820152602001610422565b50505050905001868103835288818151815260200191508051906020019060200280838360005b83811015610479578181015183820152602001610461565b50505050905001868103825287818151815260200191508051906020019060200280838360005b838110156104b85781810151838201526020016104a0565b505050509050019a505050505050505050505060405180910390f35b6104dc610f3f565b60408051938452602084019290925282820152519081900360600190f35b6105256004803603604081101561051057600080fd5b5063ffffffff81358116916020013516610f4d565b005b6105506004803603606081101561053d57600080fd5b50803590602081013590604001356110da565b6040805194855260208501939093528383019190915215156060830152519081900360800190f35b6105256004803603602081101561058e57600080fd5b5035600160a060020a031661115a565b6105bb600480360360208110156105b457600080fd5b50356111c6565b60408051918252519081900360200190f35b61036c600480360360208110156105e357600080fd5b8101906020810181356401000000008111156105fe57600080fd5b82018360208201111561061057600080fd5b8035906020019184602083028401116401000000008311171561063257600080fd5b9190808060200260200160405190810160405280939291908181526020018383602002808284376000920191909152509295506111dd945050505050565b6106786114dd565b60408051602080825283518183015283519192839290830191858101910280838360005b838110156106b457818101518382015260200161069c565b505050509050019250505060405180910390f35b6105bb611562565b6106d86115ec565b60408051600160a060020a039092168252519081900360200190f35b6105bb6004803603606081101561070a57600080fd5b50803590602081013590604001356115fb565b6105bb61167b565b6107426004803603602081101561073b57600080fd5b5035611681565b60408051978852600160a060020a03909616602088015260ff9094168686015263ffffffff9092166060860152608085015260a084015260c0830152519081900360e00190f35b6105256004803603602081101561079f57600080fd5b503563ffffffff16611774565b610525600480360360208110156107c257600080fd5b5035600160a060020a03166117d2565b6105bb600480360360408110156107e857600080fd5b508035906020013561183e565b6106d86118d6565b6105256004803603604081101561081357600080fd5b50803590602001356118e5565b6105bb6004803603604081101561083657600080fd5b50803590602001356119d7565b6105bb6004803603602081101561085957600080fd5b5035611bb0565b610525611c20565b6104dc6004803603606081101561087e57600080fd5b5080359060208101359060400135611cb4565b6105bb611d2e565b6105bb611d46565b610525611d4c565b6108c6600480360360208110156108bf57600080fd5b5035611e19565b604080519115158252519081900360200190f35b6106d8611e31565b6108c6611e40565b610678611e51565b6105256004803603602081101561090857600080fd5b5035611eae565b6105256004803603602081101561092557600080fd5b5035600160a060020a0316611efd565b6105256004803603604081101561094b57600080fd5b5080359060200135611f58565b6105256004803603602081101561096e57600080fd5b5035600160a060020a0316611fad565b610986612019565b6040805192835260208301919091528051918290030190f35b610525600480360360a08110156109b557600080fd5b5080359060208101359060408101359060608101359060800135612023565b6108c6600480360360208110156109ea57600080fd5b5035600160a060020a031661224b565b6105bb6122a8565b61052560048036036020811015610a1857600080fd5b503563ffffffff1661231d565b6106d8612378565b610986612387565b6105bb612391565b61052560048036036020811015610a5357600080fd5b5035600160a060020a0316612397565b6106d8612403565b6108c660048036036020811015610a8157600080fd5b503563ffffffff16612412565b6108c660048036036020811015610aa457600080fd5b503563ffffffff1661246f565b61052560048036036020811015610ac757600080fd5b810190602081018135640100000000811115610ae257600080fd5b820183602082011115610af457600080fd5b80359060200191846020830284011164010000000083111715610b1657600080fd5b9190808060200260200160405190810160405280939291908181526020018383602002808284376000920191909152509295506124d9945050505050565b6108c660048036036020811015610b6a57600080fd5b503563ffffffff16612536565b61052560048036036040811015610b8d57600080fd5b5080359060200135600160a060020a0316612593565b61067860048036036020811015610bb957600080fd5b5035600160a060020a031661261d565b6106786126bd565b61052560048036036020811015610be757600080fd5b5035600160a060020a031661271e565b610525612771565b61067860048036036060811015610c1557600080fd5b50600160a060020a038135169060208101359060400135612832565b600c546060908190819081908190808810610c96576040805160e560020a62461bcd02815260206004820152601660248201527f696e7075742066726f6d206973206f766572666c6f7700000000000000000000604482015290519081900360640190fd5b60008711610cee576040805160e560020a62461bcd02815260206004820152601260248201527f696e7075742073697a65206973207a65726f0000000000000000000000000000604482015290519081900360640190fd5b808789011115610cfe5787810396505b606087604051908082528060200260200182016040528015610d2a578160200160208202803883390190505b509050606088604051908082528060200260200182016040528015610d59578160200160208202803883390190505b509050606089604051908082528060200260200182016040528015610d88578160200160208202803883390190505b50905060608a604051908082528060200260200182016040528015610db7578160200160208202803883390190505b50905060608b604051908082528060200260200182016040528015610de6578160200160208202803883390190505b50905060005b8c811015610f2a576000818f0190506000600c8281548110610e0a57fe5b6000918252602090912060049091020180548951919250600160a060020a031690899085908110610e3757fe5b600160a060020a0392909216602092830291909101909101528054875160a060020a820460ff1660a860020a90920463ffffffff90811662010000029290920190911690889085908110610e8757fe5b60209081029190910101526001810154865167ffffffffffffffff90911690879085908110610eb257fe5b6020908102919091010152600281015485516001608060020a0390911690869085908110610edc57fe5b6020026020010181815250508060010160109054906101000a90046001608060020a03166001608060020a0316848481518110610f1557fe5b60209081029190910101525050600101610dec565b50939c929b5090995097509095509350505050565b601154601454601554909192565b610fdc816001805480602002602001604051908101604052809291908181526020018280548015610fc957602002820191906000526020600020906000905b82829054906101000a900463ffffffff1663ffffffff1681526020019060040190602082600301049283019260010382029150808411610f8c5790505b50505050506129fe90919063ffffffff16565b611030576040805160e560020a62461bcd02815260206004820152601f60248201527f756e6465726c79696e6720697320756e737570706f7274656420617373657400604482015290519081900360640190fd5b61109882600e805480602002602001604051908101604052809291908181526020018280548015610fc9576000918252602091829020805463ffffffff168452908202830192909160049101808411610f8c57905050505050506129fe90919063ffffffff16565b6110d65760405160e560020a62461bcd028152600401808060200182810382526021815260200180613daa6021913960400191505060405180910390fd5b5050565b6000806000806011548610156110f05760115495505b86861061110857506000925082915081905080611151565b8685111561111857869450611133565b60115485101561113357506000925082915081905080611151565b60008060006111428989612a52565b91985096509450600193505050505b93509350935093565b611162611e40565b6111a4576040805160e560020a62461bcd0281526020600482018190526024820152600080516020613d35833981519152604482015290519081900360640190fd5b60088054600160a060020a031916600160a060020a0392909216919091179055565b600354600091825260026020526040909120540190565b606080606080606060008651905060008111611243576040805160e560020a62461bcd02815260206004820152601860248201527f696e7075742069647320617272617920697320656d7074790000000000000000604482015290519081900360640190fd5b600c54604080518381526020808502820101909152606090838015611272578160200160208202803883390190505b5090506060836040519080825280602002602001820160405280156112a1578160200160208202803883390190505b5090506060846040519080825280602002602001820160405280156112d0578160200160208202803883390190505b5090506060856040519080825280602002602001820160405280156112ff578160200160208202803883390190505b50905060608660405190808252806020026020018201604052801561132e578160200160208202803883390190505b50905060005b87811015610f2a57600060018f838151811061134c57fe5b60200260200101510390508781106113ae576040805160e560020a62461bcd02815260206004820152601860248201527f696e7075742069647320617272617920697320656d7074790000000000000000604482015290519081900360640190fd5b6000600c82815481106113bd57fe5b6000918252602090912060049091020180548951919250600160a060020a0316908990859081106113ea57fe5b600160a060020a0392909216602092830291909101909101528054875160a060020a820460ff1660a860020a90920463ffffffff9081166201000002929092019091169088908590811061143a57fe5b60209081029190910101526001810154865167ffffffffffffffff9091169087908590811061146557fe5b6020908102919091010152600281015485516001608060020a039091169086908590811061148f57fe5b6020026020010181815250508060010160109054906101000a90046001608060020a03166001608060020a03168484815181106114c857fe5b60209081029190910101525050600101611334565b6060600180548060200260200160405190810160405280929190818152602001828054801561155757602002820191906000526020600020906000905b82829054906101000a900463ffffffff1663ffffffff168152602001906004019060208260030104928301926001038202915080841161151a5790505b505050505090505b90565b600080601454126115bf57601454601254908101908110156115b85760405160e560020a62461bcd02815260040180806020018281038252602a815260200180613def602a913960400191505060405180910390fd5b905061155f565b600060145460000390508060125411156115de5760125403905061155f565b600091505061155f565b5090565b600854600160a060020a031690565b6000838310158061160d5750600f5482105b1561161a57506000611674565b83821115611626578391505b600f54831161163557600f5492505b606061163f612c00565b9050600061164e858584612c9f565b600b5490915061166690600160a060020a0316612e12565b818161166e57fe5b05925050505b9392505050565b60035490565b6000806000806000806000611694613a5f565b61169d89612ecf565b60408051610140810182528254600160a060020a03811680835260a060020a820460ff166020840181905260a860020a90920463ffffffff16938301849052600185015467ffffffffffffffff808216606086018190526801000000000000000083049091166080860152608060020a918290046001608060020a0390811660a08701819052600289015480831660c0890181905290859004831660e08901526003909901548083166101008901529390930416610120909501949094529d9e909d919c50929a5090985091965090945092505050565b61177c611e40565b6117be576040805160e560020a62461bcd0281526020600482018190526024820152600080516020613d35833981519152604482015290519081900360640190fd5b6117cf600e8263ffffffff612f5b16565b50565b6117da611e40565b61181c576040805160e560020a62461bcd0281526020600482018190526024820152600080516020613d35833981519152604482015290519081900360640190fd5b60078054600160a060020a031916600160a060020a0392909216919091179055565b6000818060045410156118855760405160e560020a62461bcd028152600401808060200182810382526024815260200180613dcb6024913960400191505060405180910390fd5b6000600c600186038154811061189757fe5b600091825260209091206003600490920201908101549091506001608060020a03608060020a8204811691168502816118cc57fe5b0495945050505050565b600954600160a060020a031690565b600a5460009015801590611922575033600160a060020a0316600a828154811061190b57fe5b600091825260209091200154600160a060020a0316145b6119605760405160e560020a62461bcd02815260040180806020018281038252602d815260200180613d7d602d913960400191505060405180910390fd5b600c548311156119ba576040805160e560020a62461bcd02815260206004820152601e60248201527f6e657746697273744f7074696f6e2063616c63756c617465204572726f720000604482015290519081900360640190fd5b600f548311156119ca57600f8390555b5060108054909101905550565b60006119e1613a5f565b6119ea84612ecf565b60408051610140810182528254600160a060020a038116825260ff60a060020a820416602083015263ffffffff60a860020a9091041691810191909152600182015467ffffffffffffffff8082166060840181905268010000000000000000830490911660808401526001608060020a03608060020a92839004811660a0850152600285015480821660c0860152839004811660e08501526003909401548085166101008501529190910490921661012082015291504210611af6576040805160e560020a62461bcd02815260206004820152601160248201527f6f7074696f6e2069732065787069726564000000000000000000000000000000604482015290519081900360640190fd5b828160a001516001608060020a03161015611b5b576040805160e560020a62461bcd02815260206004820152601d60248201527f6f7074696f6e20616d6f756e7420697320696e73756666696369656e74000000604482015290519081900360640190fd5b6000611b70826040015163ffffffff16613022565b90506000611b9083602001518460c001516001608060020a03168461308c565b905080611ba35760009350505050611baa565b8402925050505b92915050565b60008082118015611bc35750600c548211155b611c17576040805160e560020a62461bcd02815260206004820152601660248201527f6f7074696f6e206964206973206e6f7420657869737400000000000000000000604482015290519081900360640190fd5b611baa826111c6565b611c28611e40565b611c6a576040805160e560020a62461bcd0281526020600482018190526024820152600080516020613d35833981519152604482015290519081900360640190fd5b60008054604051600160a060020a03909116907f8be0079c531659141344cd1fd0a4f28419497f9722a3daafe3b4186f6b6457e0908390a360008054600160a060020a0319169055565b60008060008585101580611cc95750600f5484105b15611cdc57506000915081905080611d25565b85841115611ce8578593505b600080611cf587876130c0565b9150915080871015611d1b576000611d0d888361320b565b95509193509150611d259050565b6000945090925090505b93509350939050565b6000611d386122a8565b611d40611562565b01905090565b60105490565b611d54611e40565b611d96576040805160e560020a62461bcd0281526020600482018190526024820152600080516020613d35833981519152604482015290519081900360640190fd5b60408051610100810182526201518081526202a30060208201526203f4809181019190915262093a806060820152620d2f0060808201526213c68060a0820152621a5e0060c082015262278d0060e0820152611df690600e906008613ab3565b506040805180820190915260018082526002602083018190526117cf9290613b5d565b60008160045410158015611baa575050600554111590565b600054600160a060020a031690565b600054600160a060020a0316331490565b6060600e805480602002602001604051908101604052809291908181526020018280548015611557576000918252602091829020805463ffffffff16845290820283019290916004910180841161151a5790505050505050905090565b611eb6611e40565b611ef8576040805160e560020a62461bcd0281526020600482018190526024820152600080516020613d35833981519152604482015290519081900360640190fd5b600355565b611f05611e40565b611f47576040805160e560020a62461bcd0281526020600482018190526024820152600080516020613d35833981519152604482015290519081900360640190fd5b6117cf600a8263ffffffff6132e116565b611f60611e40565b611fa2576040805160e560020a62461bcd0281526020600482018190526024820152600080516020613d35833981519152604482015290519081900360640190fd5b600591909155600455565b611fb5611e40565b611ff7576040805160e560020a62461bcd0281526020600482018190526024820152600080516020613d35833981519152604482015290519081900360640190fd5b60098054600160a060020a031916600160a060020a0392909216919091179055565b600f546010549091565b600a5460019081108015612060575033600160a060020a0316600a828154811061204957fe5b600091825260209091200154600160a060020a0316145b61209e5760405160e560020a62461bcd02815260040180806020018281038252602d815260200180613d7d602d913960400191505060405180910390fd5b600c548411156120f8576040805160e560020a62461bcd02815260206004820152601b60248201527f626567696e4f7074696f6e2063616c63756c617465204572726f720000000000604482015290519081900360640190fd5b6011548411156121085760118490555b6012869055601385905574446c3b15f9926687d2c40534fdb563ffffffffffff19831280159061214d575074446c3b15f9926687d2c40534fdb5640000000000008313155b6121a1576040805160e560020a62461bcd02815260206004820152601c60248201527f6f7074696f6e732066616c6c2063616c63756c617465206572726f7200000000604482015290519081900360640190fd5b74446c3b15f9926687d2c40534fdb563ffffffffffff1982121580156121dc575074446c3b15f9926687d2c40534fdb5640000000000008213155b612230576040805160e560020a62461bcd02815260206004820152601c60248201527f6f7074696f6e732066616c6c2063616c63756c617465206572726f7200000000604482015290519081900360640190fd5b50601480549290920390915560158054919091039055505050565b6000612255611e40565b612297576040805160e560020a62461bcd0281526020600482018190526024820152600080516020613d35833981519152604482015290519081900360640190fd5b611baa600a8363ffffffff61337916565b600080601554126122fe57601554601354908101908110156115b85760405160e560020a62461bcd02815260040180806020018281038252602a815260200180613def602a913960400191505060405180910390fd5b600060155460000390508060135411156115de5760135403905061155f565b612325611e40565b612367576040805160e560020a62461bcd0281526020600482018190526024820152600080516020613d35833981519152604482015290519081900360640190fd5b6117cf60018263ffffffff612f5b16565b600754600160a060020a031690565b6005546004549091565b600c5490565b61239f611e40565b6123e1576040805160e560020a62461bcd0281526020600482018190526024820152600080516020613d35833981519152604482015290519081900360640190fd5b60068054600160a060020a031916600160a060020a0392909216919091179055565b600654600160a060020a031690565b600061241c611e40565b61245e576040805160e560020a62461bcd0281526020600482018190526024820152600080516020613d35833981519152604482015290519081900360640190fd5b611baa60018363ffffffff61345c16565b6000611baa826001805480602002602001604051908101604052809291908181526020018280548015610fc9576000918252602091829020805463ffffffff168452908202830192909160049101808411610f8c57905050505050506129fe90919063ffffffff16565b6124e1611e40565b612523576040805160e560020a62461bcd0281526020600482018190526024820152600080516020613d35833981519152604482015290519081900360640190fd5b80516110d690600a906020840190613bc7565b6000612540611e40565b612582576040805160e560020a62461bcd0281526020600482018190526024820152600080516020613d35833981519152604482015290519081900360640190fd5b611baa600e8363ffffffff61345c16565b61259b611e40565b6125dd576040805160e560020a62461bcd0281526020600482018190526024820152600080516020613d35833981519152604482015290519081900360640190fd5b80600a83815481106125eb57fe5b9060005260206000200160006101000a815481600160a060020a030219169083600160a060020a031602179055505050565b600160a060020a0381166000908152600d60209081526040918290208054835181840281018401909452808452606093928301828280156126b157602002820191906000526020600020906000905b82829054906101000a900467ffffffffffffffff1667ffffffffffffffff168152602001906008019060208260070104928301926001038202915080841161266c5790505b50505050509050919050565b6060600a80548060200260200160405190810160405280929190818152602001828054801561155757602002820191906000526020600020905b8154600160a060020a031681526001909101906020018083116126f7575050505050905090565b612726611e40565b612768576040805160e560020a62461bcd0281526020600482018190526024820152600080516020613d35833981519152604482015290519081900360640190fd5b6117cf8161354c565b600a54600190811080156127ae575033600160a060020a0316600a828154811061279757fe5b600091825260209091200154600160a060020a0316145b6127ec5760405160e560020a62461bcd02815260040180806020018281038252602d815260200180613d7d602d913960400191505060405180910390fd5b601454601554600c5460115460009081908190819061280d908690816110da565b93509350935093508015612828576128288484848a8a612023565b5050505050505050565b600160a060020a0383166000908152600d602052604090205460609083106128a4576040805160e560020a62461bcd02815260206004820152601660248201527f696e7075742066726f6d206973206f766572666c6f7700000000000000000000604482015290519081900360640190fd5b600082116128fc576040805160e560020a62461bcd02815260206004820152601260248201527f696e7075742073697a65206973207a65726f0000000000000000000000000000604482015290519081900360640190fd5b606082604051908082528060200260200182016040528015612928578160200160208202803883390190505b50600160a060020a0386166000908152600d6020526040902054909150848401111561296d57600160a060020a0385166000908152600d602052604090205484900392505b60005b838110156129f557600160a060020a0386166000908152600d60205260409020805486830190811061299e57fe5b90600052602060002090600491828204019190066008029054906101000a900467ffffffffffffffff168282815181106129d457fe5b67ffffffffffffffff90921660209283029190910190910152600101612970565b50949350505050565b8151600090815b81811015612a47578363ffffffff16858281518110612a2057fe5b602002602001015163ffffffff161415612a3f57600192505050611baa565b600101612a05565b506000949350505050565b600080600080612a6586601154876135ef565b90965090506060612a74612c00565b90506000805b87891015612bf0576000612ab7600c8b81548110612a9457fe5b600091825260209091206004909102015460a860020a900463ffffffff1661368f565b90506000612ba7600c8c81548110612acb57fe5b600091825260209182902060408051610140810182526004939093029091018054600160a060020a038116845260a060020a810460ff169484019490945260a860020a90930463ffffffff1690820152600182015467ffffffffffffffff8082166060840152680100000000000000008204166080830152608060020a908190046001608060020a0390811660a0840152600284015480821660c0850152829004811660e0840152600390930154808416610100840152049091166101208201528651879085908110612b9a57fe5b6020026020010151613720565b9050600c8b81548110612bb657fe5b600091825260209091206004909102015460a060020a900460ff16612bde5792830192612be3565b918201915b5050600190980197612a7a565b9095509350909150509250925092565b600154604080518281526020808402820101909152606091908290828015612c32578160200160208202803883390190505b50905060005b82811015612c9857612c7960018281548110612c5057fe5b6000918252602090912060088204015460079091166004026101000a900463ffffffff16613022565b828281518110612c8557fe5b6020908102919091010152600101612c38565b5091505090565b6000805b83851015612e0a576000600c8681548110612cba57fe5b600091825260209091206004909102016001810154909150608060020a81046001608060020a0316904267ffffffffffffffff9091161080612cfa575080155b15612d06575050612dff565b8154600090612d219060a860020a900463ffffffff1661368f565b60408051610140810182528554600160a060020a038116825260ff60a060020a820416602083015263ffffffff60a860020a9091041691810191909152600185015467ffffffffffffffff80821660608401526801000000000000000082041660808301526001608060020a03608060020a91829004811660a0840152600287015480821660c0850152829004811660e0840152600387015480821661010085015291909104166101208201528751919250600091612df6919085908a9086908110612de957fe5b60200260200101516137d2565b90940393505050505b600190940193612ca3565b949350505050565b600754604080517f41976e09000000000000000000000000000000000000000000000000000000008152600160a060020a0384811660048301529151600093849316916341976e09916024808301926020929190829003018186803b158015612e7a57600080fd5b505afa158015612e8e573d6000803e3d6000fd5b505050506040513d6020811015612ea457600080fd5b5051905060648110801590612ec657506c0c9f2c9cd04674edea400000008111155b611baa57600080fd5b60008082118015612ee25750600c548211155b612f36576040805160e560020a62461bcd02815260206004820152601660248201527f6f7074696f6e206964206973206e6f7420657869737400000000000000000000604482015290519081900360640190fd5b600c6001830381548110612f4657fe5b90600052602060002090600402019050919050565b612fe082805480602002602001604051908101604052809291908181526020018280548015612fd557602002820191906000526020600020906000905b82829054906101000a900463ffffffff1663ffffffff1681526020019060040190602082600301049283019260010382029150808411612f985790505b5050505050826129fe565b6110d6578154600181018355600092835260209092206008830401805460079093166004026101000a63ffffffff818102199094169290931692909202179055565b600754604080517fda6632570000000000000000000000000000000000000000000000000000000081526004810184905290516000928392600160a060020a039091169163da66325791602480820192602092909190829003018186803b158015612e7a57600080fd5b600060ff84161582841114156130a457506000611674565b60ff8416156130b5578183036130b9565b8282035b9050611674565b600080600080600090506130d786600f54876135ef565b90965091505b84861015613201576000600c87815481106130f457fe5b6000918252602082206004919091020160028101546001820154825492945061314e92608060020a8084046001608060020a039081169481169367ffffffffffffffff811693929004169060a060020a900460ff166138e1565b60038301549091506001608060020a03168110156131f457600382015460018301546001608060020a038083169390930392608060020a928390048116929091041682028161319957fe5b049050701d6329f1c35ca4bfabb9f56100000000008111156131ef5760405160e560020a62461bcd028152600401808060200182810382526028815260200180613d556028913960400191505060405180910390fd5b918201915b50506001909501946130dd565b9590945092505050565b6000805b82841015611674576000600c858154811061322657fe5b600091825260209091206004909102016001810154909150608060020a90046001608060020a031680156132d45760038201546000906001608060020a03608060020a82048116911683028161327857fe5b049050701d6329f1c35ca4bfabb9f56100000000008111156132ce5760405160e560020a62461bcd028152600401808060200182810382526028815260200180613d556028913960400191505060405180910390fd5b92909201915b505060019093019261320f565b6133448280548060200260200160405190810160405280929190818152602001828054801561333957602002820191906000526020600020905b8154600160a060020a0316815260019091019060200180831161331b575b5050505050826139af565b6110d6578154600181018355600083815260209020018054600160a060020a038316600160a060020a03199091161790555050565b8154600090815b818110156133c65783600160a060020a031685828154811061339e57fe5b600091825260209091200154600160a060020a031614156133be576133c6565b600101613380565b81811015612a4757600182038114613440578460018303815481106133e757fe5b9060005260206000200160009054906101000a9004600160a060020a031685828154811061341157fe5b9060005260206000200160006101000a815481600160a060020a030219169083600160a060020a031602179055505b8454613450866000198301613c28565b50600192505050611baa565b8154600090815b818110156134b5578363ffffffff1685828154811061347e57fe5b6000918252602090912060088204015460079091166004026101000a900463ffffffff1614156134ad576134b5565b600101613463565b81811015612a475760018203811461353c578460018303815481106134d657fe5b90600052602060002090600891828204019190066004029054906101000a900463ffffffff1685828154811061350857fe5b90600052602060002090600891828204019190066004026101000a81548163ffffffff021916908363ffffffff1602179055505b8454613450866000198301613c51565b600160a060020a0381166135945760405160e560020a62461bcd028152600401808060200182810382526026815260200180613d0f6026913960400191505060405180910390fd5b60008054604051600160a060020a03808516939216917f8be0079c531659141344cd1fd0a4f28419497f9722a3daafe3b4186f6b6457e091a360008054600160a060020a031916600160a060020a0392909216919091179055565b6000808380861115613605578592509050613687565b8095505b8386101561367f576000600c878154811061362057fe5b6000918252602090912060049091020160018101549091504267ffffffffffffffff909116108061366357506001810154608060020a90046001608060020a0316155b1561366e5750613674565b5061367f565b600190950194613609565b858692509250505b935093915050565b6000611baa82600180548060200260200160405190810160405280929190818152602001828054801561370d57602002820191906000526020600020906000905b82829054906101000a900463ffffffff1663ffffffff16815260200190600401906020826003010492830192600103820291508084116136d05790505b50505050506139fe90919063ffffffff16565b6000808360a001516001608060020a0316905042846060015167ffffffffffffffff1611158061374e575080155b1561375d576000915050611baa565b60008161377c86602001518760c001516001608060020a031687613a41565b029050701d6329f1c35ca4bfabb9f5610000000000811115612e0a5760405160e560020a62461bcd02815260040180806020018281038252602a815260200180613ce5602a913960400191505060405180910390fd5b600042846060015167ffffffffffffffff161115806137ef575082155b156137fc57506000611674565b60008361381b86602001518760c001516001608060020a03168661308c565b02905060008461384a87602001518860c001516001608060020a03168960e001516001608060020a031661308c565b029050808203701d6329f1c35ca4bfabb9f560ffffffffff1981128015906138835750701d6329f1c35ca4bfabb9f56100000000008113155b6138d7576040805160e560020a62461bcd02815260206004820152601c60248201527f6f7074696f6e732066616c6c2063616c63756c617465206572726f7200000000604482015290519081900360640190fd5b9695505050505050565b6000428411156139a257600954604080517f62df80ce000000000000000000000000000000000000000000000000000000008152600481018990526024810188905242870360448201526064810186905260ff851660848201529051600160a060020a03909216916362df80ce9160a480820192602092909190829003018186803b15801561396f57600080fd5b505afa158015613983573d6000803e3d6000fd5b505050506040513d602081101561399957600080fd5b505190506139a6565b5060005b95945050505050565b8151600090815b81811015612a475783600160a060020a03168582815181106139d457fe5b6020026020010151600160a060020a031614156139f657600192505050611baa565b6001016139b6565b8151600090815b81811015612e0a578363ffffffff16858281518110613a2057fe5b602002602001015163ffffffff161415613a3957612e0a565b600101613a05565b600060ff8416158284111415613a58575081611674565b5080611674565b6040805161014081018252600080825260208201819052918101829052606081018290526080810182905260a0810182905260c0810182905260e08101829052610100810182905261012081019190915290565b82805482825590600052602060002090600701600890048101928215613b515791602002820160005b83821115613b1f57835183826101000a81548163ffffffff021916908362ffffff1602179055509260200192600401602081600301049283019260010302613adc565b8015613b4f5782816101000a81549063ffffffff0219169055600401602081600301049283019260010302613b1f565b505b506115e8929150613c85565b82805482825590600052602060002090600701600890048101928215613b515791602002820160005b83821115613b1f57835183826101000a81548163ffffffff021916908360ff1602179055509260200192600401602081600301049283019260010302613b86565b828054828255906000526020600020908101928215613c1c579160200282015b82811115613c1c5782518254600160a060020a031916600160a060020a03909116178255602090920191600190910190613be7565b506115e8929150613ca6565b815481835581811115613c4c57600083815260209020613c4c918101908301613cca565b505050565b815481835581811115613c4c576007016008900481600701600890048360005260206000209182019101613c4c9190613cca565b61155f91905b808211156115e857805463ffffffff19168155600101613c8b565b61155f91905b808211156115e8578054600160a060020a0319168155600101613cac565b61155f91905b808211156115e85760008155600101613cd056fe4f7074696f6e20636f6c6c61746572616c206f636375706965642063616c63756c617465206572726f724f776e61626c653a206e6577206f776e657220697320746865207a65726f20616464726573734f776e61626c653a2063616c6c6572206973206e6f7420746865206f776e65726f7074696f6e2074696d65207368617265642076616c75652063616c63756c617465206572726f724f70657261746f723a2063616c6c6572206973206e6f742074686520656c696769626c65204f70657261746f7265787069726174696f6e2076616c7565206973206e6f7420737570706f72746564696e70757420616d6f756e74206973206c6172676572207468616e206d6178696d69756d546f74616c4f63637570696564436f6c6c61746572616c2063616c63756c617465206f766572666c6f77a265627a7a72315820bd1b1dab1714c58130e59e3a7e2ed87684bcd8302a069ef3ce6fc7c9364e15c664736f6c63430005100032",
  "source": "pragma solidity =0.5.16;\r\nimport \"./OptionsOccupiedCal.sol\";\r\n/**\r\n * @title Options net worth calculation contract for finnexus proposal v2.\r\n * @dev A Smart-contract for net worth calculation.\r\n *\r\n */\r\ncontract OptionsNetWorthCal is OptionsOccupiedCal {\r\n    /**\r\n     * @dev retrieve all information for net worth calculation. \r\n     */ \r\n    function getNetWrothCalInfo()public view returns(uint256,int256){\r\n        return ( netWorthFirstOption,optionsLatestNetWorth);\r\n    }\r\n    /**\r\n     * @dev retrieve latest options net worth which paid in settlement coin. \r\n     */ \r\n    function getNetWrothLatestWorth()public view returns(int256){\r\n        return optionsLatestNetWorth;\r\n    }\r\n    /**\r\n     * @dev set latest options net worth balance, only manager contract can modify database.\r\n     * @param newFirstOption new first valid option position.\r\n     * @param latestNetWorth latest options net worth.\r\n     */ \r\n    function setSharedState(uint256 newFirstOption,int256  latestNetWorth ) public onlyOperatorIndex(0){\r\n        require(newFirstOption <= allOptions.length, \"newFirstOption calculate Error\");\r\n        if (newFirstOption >  netWorthFirstOption){\r\n             netWorthFirstOption = newFirstOption;\r\n        }\r\n        optionsLatestNetWorth  += latestNetWorth;\r\n    }\r\n    /**\r\n     * @dev calculate options time shared value,from begin to end in the alloptionsList.\r\n     * @param lastOption the last option position.\r\n     * @param begin the begin options position.\r\n     * @param end the end options position.\r\n     */\r\n    function calRangeSharedPayment(uint256 lastOption,uint256 begin,uint256 end)\r\n            public view returns(int256,uint256,uint256){\r\n        if (begin>=lastOption || end <  netWorthFirstOption){\r\n            return(0,0,0);\r\n        }\r\n        if (end>lastOption) {\r\n            end = lastOption;\r\n        }\r\n        (uint256 sharedBalance,uint256 _firstOption) = _calculateSharedPayment(begin,end);\r\n        if (begin < _firstOption){\r\n            int256 newNetworth = calculateExpiredPayment(begin,_firstOption);\r\n            return (newNetworth,sharedBalance,_firstOption);\r\n        }\r\n        \r\n        return (0,sharedBalance,_firstOption);\r\n    }\r\n    /**\r\n     * @dev subfunction, calculate options time shared value,from begin to end in the alloptionsList.\r\n     * @param begin the begin options position.\r\n     * @param end the end options position.\r\n     */\r\n    function _calculateSharedPayment(uint256 begin,uint256 end)\r\n            internal view returns(uint256,uint256){\r\n        uint256 newFirstOption;\r\n        uint256 totalSharedPayment = 0;\r\n        (begin,newFirstOption) = getFirstOption(begin, netWorthFirstOption,end); \r\n        for (;begin<end;begin++){\r\n            OptionsInfo storage info = allOptions[begin];\r\n            uint256 timeValue = _calculateCurrentPrice(info.underlyingPrice,info.strikePrice,info.expiration,\r\n                info.amount,info.optType);\r\n            if (timeValue<info.optionsPrice){\r\n                timeValue = info.optionsPrice - timeValue;\r\n                timeValue = timeValue*info.amount/info.settlePrice;\r\n                require(timeValue<=1e40,\"option time shared value calculate error\");\r\n                totalSharedPayment += timeValue;\r\n            }\r\n        }\r\n        return (totalSharedPayment,newFirstOption);\r\n    }\r\n    /**\r\n     * @dev subfunction, calculate expired options shared value,from begin to end in the alloptionsList.\r\n     * @param begin the begin options position.\r\n     * @param end the end options position.\r\n     */\r\n    function calculateExpiredPayment(uint256 begin,uint256 end)internal view returns(int256){\r\n        int256 totalExpiredPayment = 0;\r\n        for (;begin<end;begin++){\r\n            OptionsInfo storage info = allOptions[begin];\r\n            uint256 amount = info.amount;\r\n            if (amount>0){\r\n                uint256 timeValue = info.optionsPrice*amount/info.settlePrice;\r\n                require(timeValue<=1e40,\"option time shared value calculate error\");\r\n                totalExpiredPayment += int256(timeValue);\r\n            }\r\n        }\r\n        return totalExpiredPayment;\r\n    }\r\n    /**\r\n     * @dev calculate options payback fall value,from begin to end in the alloptionsList.\r\n     * @param lastOption the last option position.\r\n     * @param begin the begin options position.\r\n     * @param end the end options position.\r\n     */\r\n    function calculatePhaseOptionsFall(uint256 lastOption,uint256 begin,uint256 end) public view returns(int256){\r\n        if (begin>=lastOption || end <  netWorthFirstOption){\r\n            return 0;\r\n        }\r\n        if (end>lastOption) {\r\n            end = lastOption;\r\n        }\r\n        if (begin <=  netWorthFirstOption) {\r\n            begin =  netWorthFirstOption;\r\n        }\r\n        uint256[] memory prices = getUnderlyingPrices();\r\n        int256 OptionsFallBalance = _calRangeOptionsFall(begin,end,prices);\r\n            OptionsFallBalance = OptionsFallBalance/(int256(oraclePrice(collateral)));\r\n        return OptionsFallBalance;\r\n    }\r\n    /**\r\n     * @dev subfunction, calculate options payback fall value,from begin to lastOption in the alloptionsList.\r\n     * @param begin the begin option position.\r\n     * @param lastOption the last option position.\r\n     * @param prices eligible underlying price list.\r\n     */\r\n    function _calRangeOptionsFall(uint256 begin,uint256 lastOption,uint256[] memory prices)\r\n                 internal view returns(int256 ){\r\n        int256 OptionsFallBalance = 0;\r\n        for (;begin<lastOption;begin++){\r\n            OptionsInfo storage info = allOptions[begin];\r\n            uint256 amount = info.amount;\r\n            if(info.expiration<now || amount == 0){\r\n                continue;\r\n            }\r\n            uint256 index = _getEligibleUnderlyingIndex(info.underlying);\r\n            int256 curValue = _calCurtimeCallateralFall(info,amount,prices[index]);\r\n                OptionsFallBalance -= curValue;\r\n        }\r\n        return OptionsFallBalance;\r\n    }\r\n    /**\r\n     * @dev subfunction, calculate option payback fall value.\r\n     * @param info the option information.\r\n     * @param amount the option amount to calculate.\r\n     * @param curPrice current underlying price.\r\n     */\r\n    function _calCurtimeCallateralFall(OptionsInfo memory info,uint256 amount,uint256 curPrice) internal view returns(int256){\r\n        if (info.expiration<=now || amount == 0){\r\n            return 0;\r\n        }\r\n        uint256 newFall = _getOptionsPayback(info.optType,info.strikePrice,curPrice)*amount;\r\n        uint256 OriginFall = _getOptionsPayback(info.optType,info.strikePrice,info.underlyingPrice)*amount;\r\n        int256 curValue = int256(newFall) - int256(OriginFall);\r\n        require(curValue>=-1e40 && curValue<=1e40,\"options fall calculate error\");\r\n        return curValue;\r\n    }\r\n    /**\r\n     * @dev set burn option net worth change.\r\n     * @param info the option information.\r\n     * @param amount the option amount to calculate.\r\n     * @param underlyingPrice underlying price when option is created.\r\n     * @param currentPrice current underlying price.\r\n     */\r\n    function _burnOptionsNetworth(OptionsInfo memory info,uint256 amount,uint256 underlyingPrice,uint256 currentPrice) internal {\r\n        int256 curValue = _calCurtimeCallateralFall(info,amount,underlyingPrice);\r\n        uint256 timeWorth = info.optionsPrice>currentPrice ? info.optionsPrice-currentPrice : 0;\r\n        timeWorth = timeWorth*amount/info.settlePrice;\r\n        curValue = curValue / int256(oraclePrice(collateral));\r\n        int256 value = curValue - int256(timeWorth);\r\n        optionsLatestNetWorth += value;\r\n    }\r\n    /**\r\n     * @dev An anxiliary function, calculate time shared current option price.\r\n     * @param curprice underlying price when option is created.\r\n     * @param strikePrice the option strikePrice.\r\n     * @param expiration option time expiration time left, equal option.expiration - now.\r\n     * @param ivNumerator Implied valotility numerator when option is created.\r\n     */\r\n    function _calculateCurrentPrice(uint256 curprice,uint256 strikePrice,uint256 expiration,uint256 ivNumerator,uint8 optType)internal view returns (uint256){\r\n        if (expiration > now){\r\n            return _optionsPrice.getOptionsPrice_iv(curprice,strikePrice,expiration-now,ivNumerator,\r\n                optType);\r\n        }\r\n        return 0;\r\n    }\r\n}",
  "sourcePath": "C:\\work\\solidity\\finnexusOptions_V2.1\\contracts\\OptionsPool\\OptionsNetWorthCal.sol",
  "compiler": {
    "name": "solc",
    "version": "0.5.16+commit.9c3226ce.Emscripten.clang"
  },
  "schemaVersion": "3.1.0",
  "updatedAt": "2020-10-24T10:45:23.320Z",
  "devdoc": {
    "details": "A Smart-contract for net worth calculation.  ",
    "methods": {
      "addExpiration(uint32)": {
        "details": "Implementation of add an eligible expiration into the expirationList.",
        "params": {
          "expiration": "new eligible expiration."
        }
      },
      "addOperator(address)": {
        "details": "add a new operator by owner.       "
      },
      "addUnderlyingAsset(uint32)": {
        "details": "Implementation of add an eligible underlying into the underlyingAssets.",
        "params": {
          "underlying": "new eligible underlying."
        }
      },
      "buyOptionCheck(uint32,uint32)": {
        "details": "check option's underlying and expiration.",
        "params": {
          "expiration": "option's expiration",
          "underlying": "option's underlying"
        }
      },
      "calRangeSharedPayment(uint256,uint256,uint256)": {
        "details": "calculate options time shared value,from begin to end in the alloptionsList.",
        "params": {
          "begin": "the begin options position.",
          "end": "the end options position.",
          "lastOption": "the last option position."
        }
      },
      "calculatePhaseOccupiedCollateral(uint256,uint256,uint256)": {
        "details": "calculate collateral occupied value.",
        "params": {
          "beginOption": "begin option's poisiton.",
          "endOption": "end option's poisiton.",
          "lastOption": "last option's position."
        }
      },
      "calculatePhaseOptionsFall(uint256,uint256,uint256)": {
        "details": "calculate options payback fall value,from begin to end in the alloptionsList.",
        "params": {
          "begin": "the begin options position.",
          "end": "the end options position.",
          "lastOption": "the last option position."
        }
      },
      "getBurnedFullPay(uint256,uint256)": {
        "details": "calculate `amount` number of Option's full price when option is burned.",
        "params": {
          "amount": "option's amount",
          "optionID": "option's optionID"
        }
      },
      "getCallTotalOccupiedCollateral()": {
        "details": "get call options total collateral occupied value."
      },
      "getExerciseWorth(uint256,uint256)": {
        "details": "calculate option's exercise worth.",
        "params": {
          "amount": "option's amount",
          "optionsId": "option's id"
        }
      },
      "getExpirationList()": {
        "details": "Implementation of getting the eligible expirationList."
      },
      "getInputAmountRange()": {
        "details": "get the valid range of input amount"
      },
      "getItemTimeLimitation(uint256)": {
        "details": "Retrieve user's start time for burning. ",
        "params": {
          "item": "item key."
        }
      },
      "getManager()": {
        "details": "get manager address.       "
      },
      "getNetWrothCalInfo()": {
        "details": "retrieve all information for net worth calculation. "
      },
      "getNetWrothLatestWorth()": {
        "details": "retrieve latest options net worth which paid in settlement coin. "
      },
      "getOccupiedCalInfo()": {
        "details": "retrieve collateral occupied calculation information."
      },
      "getOperator()": {
        "details": "get all operators.       "
      },
      "getOptionInfoLength()": {
        "details": "retrieve all option list length. "
      },
      "getOptionInfoList(uint256,uint256)": {
        "details": "retrieve `size` number of options' information. ",
        "params": {
          "from": "all option list begin positon.",
          "size": "retrieve size."
        }
      },
      "getOptionInfoListFromID(uint256[])": {
        "details": "retrieve given `ids` options' information. ",
        "params": {
          "ids": "retrieved options' id."
        }
      },
      "getOptionsById(uint256)": {
        "details": "retrieve given `optionsId` option's information. ",
        "params": {
          "optionsId": "retrieved option's id."
        }
      },
      "getOptionsLimitTimeById(uint256)": {
        "details": "retrieve given `optionsId` option's burned limit timestamp. ",
        "params": {
          "optionsId": "retrieved option's id."
        }
      },
      "getPutTotalOccupiedCollateral()": {
        "details": "get put options total collateral occupied value."
      },
      "getTotalOccupiedCollateral()": {
        "details": "get real total collateral occupied value."
      },
      "getUnderlyingAssets()": {
        "details": "Implementation of getting the eligible underlyingAssets."
      },
      "getUserOptionsID(address)": {
        "details": "retrieve user's options' id. ",
        "params": {
          "user": "user's account."
        }
      },
      "getUserOptionsID(address,uint256,uint256)": {
        "details": "retrieve user's `size` number of options' id. ",
        "params": {
          "from": "user's option list begin positon.",
          "size": "retrieve size.",
          "user": "user's account."
        }
      },
      "isEligibleUnderlyingAsset(uint32)": {
        "details": "Implementation of testing whether the input underlying is eligible.",
        "params": {
          "underlying": "input underlying for testing."
        }
      },
      "isInputAmountInRange(uint256)": {
        "details": "Determine whether the input amount is within the valid range",
        "params": {
          "Amount": "Test value which is user input"
        }
      },
      "isOwner()": {
        "details": "Returns true if the caller is the current owner."
      },
      "owner()": {
        "details": "Returns the address of the current owner."
      },
      "removeExpirationList(uint32)": {
        "details": "Implementation of revoke an invalid expiration from the expirationList.",
        "params": {
          "removeExpiration": "revoked expiration."
        }
      },
      "removeOperator(address)": {
        "details": "remove operator by owner.       "
      },
      "removeUnderlyingAssets(uint32)": {
        "details": "Implementation of revoke an invalid underlying from the underlyingAssets.",
        "params": {
          "removeUnderlying": "revoked underlying."
        }
      },
      "renounceOwnership()": {
        "details": "Leaves the contract without owner. It will not be possible to call `onlyOwner` functions anymore. Can only be called by the current owner.      * NOTE: Renouncing ownership will leave the contract without an owner, thereby removing any functionality that is only available to the owner."
      },
      "setCollateralPhase(uint256,uint256,uint256,int256,int256)": {
        "details": "set collateral occupied value, only foundation operator can modify database.",
        "params": {
          "beginOption": "new first valid option's positon.",
          "latestCallOccpied": "latest call options' occupied value when operater invoke collateral occupied calculation.",
          "latestPutOccpied": "latest put options' occupied value when operater invoke collateral occupied calculation.",
          "totalCallOccupied": "new call options occupied collateral calculation result.",
          "totalPutOccupied": "new put options occupied collateral calculation result."
        }
      },
      "setInputAmountRange(uint256,uint256)": {
        "details": "set the valid range of input amount",
        "params": {
          "_maxAmount": "the maximum input amount limit",
          "_minAmount": "the minimum input amount limit"
        }
      },
      "setManager(address)": {
        "details": "set manager by owner.       "
      },
      "setOccupiedCollateral()": {
        "details": "calculate collateral occupied value, and modify database, only foundation operator can modify database."
      },
      "setOperator(uint256,address)": {
        "details": "modify indexed operator by owner.       "
      },
      "setOperators(address[])": {
        "details": "set all operators by owner.       "
      },
      "setSharedState(uint256,int256)": {
        "details": "set latest options net worth balance, only manager contract can modify database.",
        "params": {
          "latestNetWorth": "latest options net worth.",
          "newFirstOption": "new first valid option position."
        }
      },
      "setTimeLimitation(uint256)": {
        "details": "set time limitation, only owner can invoke. ",
        "params": {
          "_limitation": "new time limitation."
        }
      },
      "transferOwnership(address)": {
        "details": "Transfers ownership of the contract to a new account (`newOwner`). Can only be called by the current owner."
      }
    },
    "title": "Options net worth calculation contract for finnexus proposal v2."
  },
  "userdoc": {
    "methods": {}
  }
}