{
  "contractName": "OptionsManagerV2",
  "abi": [
    {
      "inputs": [
        {
          "internalType": "address",
          "name": "oracleAddr",
          "type": "address"
        },
        {
          "internalType": "address",
          "name": "optionsPriceAddr",
          "type": "address"
        },
        {
          "internalType": "address",
          "name": "optionsPoolAddr",
          "type": "address"
        },
        {
          "internalType": "address",
          "name": "collateralPoolAddr",
          "type": "address"
        },
        {
          "internalType": "address",
          "name": "FPTCoinAddr",
          "type": "address"
        }
      ],
      "payable": false,
      "stateMutability": "nonpayable",
      "type": "constructor"
    },
    {
      "anonymous": false,
      "inputs": [
        {
          "indexed": true,
          "internalType": "address",
          "name": "from",
          "type": "address"
        },
        {
          "indexed": false,
          "internalType": "uint256",
          "name": "amount",
          "type": "uint256"
        },
        {
          "indexed": false,
          "internalType": "uint256",
          "name": "tokenAmount",
          "type": "uint256"
        }
      ],
      "name": "AddCollateral",
      "type": "event"
    },
    {
      "anonymous": false,
      "inputs": [
        {
          "indexed": true,
          "internalType": "address",
          "name": "from",
          "type": "address"
        },
        {
          "indexed": true,
          "internalType": "uint256",
          "name": "optionId",
          "type": "uint256"
        },
        {
          "indexed": false,
          "internalType": "uint256",
          "name": "optionPrice",
          "type": "uint256"
        },
        {
          "indexed": false,
          "internalType": "uint256",
          "name": "settlementAmount",
          "type": "uint256"
        },
        {
          "indexed": false,
          "internalType": "uint256",
          "name": "optionAmount",
          "type": "uint256"
        }
      ],
      "name": "BuyOption",
      "type": "event"
    },
    {
      "anonymous": false,
      "inputs": [
        {
          "indexed": false,
          "internalType": "uint256",
          "name": "id",
          "type": "uint256"
        },
        {
          "indexed": false,
          "internalType": "uint256",
          "name": "value1",
          "type": "uint256"
        },
        {
          "indexed": false,
          "internalType": "uint256",
          "name": "value2",
          "type": "uint256"
        }
      ],
      "name": "DebugEvent",
      "type": "event"
    },
    {
      "anonymous": false,
      "inputs": [
        {
          "indexed": true,
          "internalType": "address",
          "name": "from",
          "type": "address"
        },
        {
          "indexed": true,
          "internalType": "uint256",
          "name": "optionId",
          "type": "uint256"
        },
        {
          "indexed": false,
          "internalType": "uint256",
          "name": "amount",
          "type": "uint256"
        },
        {
          "indexed": false,
          "internalType": "uint256",
          "name": "sellValue",
          "type": "uint256"
        }
      ],
      "name": "ExerciseOption",
      "type": "event"
    },
    {
      "anonymous": false,
      "inputs": [
        {
          "indexed": true,
          "internalType": "address",
          "name": "previousOwner",
          "type": "address"
        },
        {
          "indexed": true,
          "internalType": "address",
          "name": "newOwner",
          "type": "address"
        }
      ],
      "name": "OwnershipTransferred",
      "type": "event"
    },
    {
      "anonymous": false,
      "inputs": [
        {
          "indexed": true,
          "internalType": "address",
          "name": "from",
          "type": "address"
        },
        {
          "indexed": false,
          "internalType": "uint256",
          "name": "allRedeem",
          "type": "uint256"
        }
      ],
      "name": "RedeemCollateral",
      "type": "event"
    },
    {
      "anonymous": false,
      "inputs": [
        {
          "indexed": true,
          "internalType": "address",
          "name": "from",
          "type": "address"
        },
        {
          "indexed": true,
          "internalType": "uint256",
          "name": "optionId",
          "type": "uint256"
        },
        {
          "indexed": false,
          "internalType": "uint256",
          "name": "amount",
          "type": "uint256"
        },
        {
          "indexed": false,
          "internalType": "uint256",
          "name": "sellValue",
          "type": "uint256"
        }
      ],
      "name": "SellOption",
      "type": "event"
    },
    {
      "constant": false,
      "inputs": [
        {
          "internalType": "uint256",
          "name": "amount",
          "type": "uint256"
        }
      ],
      "name": "addCollateral",
      "outputs": [],
      "payable": true,
      "stateMutability": "payable",
      "type": "function"
    },
    {
      "constant": false,
      "inputs": [
        {
          "internalType": "address",
          "name": "addAddress",
          "type": "address"
        }
      ],
      "name": "addWhiteList",
      "outputs": [],
      "payable": false,
      "stateMutability": "nonpayable",
      "type": "function"
    },
    {
      "constant": true,
      "inputs": [
        {
          "internalType": "address",
          "name": "spender",
          "type": "address"
        }
      ],
      "name": "allowance",
      "outputs": [
        {
          "internalType": "uint256",
          "name": "",
          "type": "uint256"
        }
      ],
      "payable": false,
      "stateMutability": "view",
      "type": "function"
    },
    {
      "constant": false,
      "inputs": [
        {
          "internalType": "address",
          "name": "spender",
          "type": "address"
        },
        {
          "internalType": "uint256",
          "name": "amount",
          "type": "uint256"
        }
      ],
      "name": "approve",
      "outputs": [],
      "payable": false,
      "stateMutability": "nonpayable",
      "type": "function"
    },
    {
      "constant": true,
      "inputs": [
        {
          "internalType": "uint256",
          "name": "strikePrice",
          "type": "uint256"
        },
        {
          "internalType": "uint256",
          "name": "underlyingPrice",
          "type": "uint256"
        },
        {
          "internalType": "uint256",
          "name": "amount",
          "type": "uint256"
        },
        {
          "internalType": "uint8",
          "name": "optType",
          "type": "uint8"
        }
      ],
      "name": "calOptionsOccupied",
      "outputs": [
        {
          "internalType": "uint256",
          "name": "",
          "type": "uint256"
        }
      ],
      "payable": false,
      "stateMutability": "view",
      "type": "function"
    },
    {
      "constant": true,
      "inputs": [
        {
          "internalType": "address",
          "name": "tmpAddress",
          "type": "address"
        },
        {
          "internalType": "uint256",
          "name": "state",
          "type": "uint256"
        }
      ],
      "name": "checkAddressPermission",
      "outputs": [
        {
          "internalType": "bool",
          "name": "",
          "type": "bool"
        }
      ],
      "payable": false,
      "stateMutability": "view",
      "type": "function"
    },
    {
      "constant": true,
      "inputs": [
        {
          "internalType": "address",
          "name": "spender",
          "type": "address"
        },
        {
          "internalType": "uint256",
          "name": "amount",
          "type": "uint256"
        }
      ],
      "name": "checkAllowance",
      "outputs": [
        {
          "internalType": "bool",
          "name": "",
          "type": "bool"
        }
      ],
      "payable": false,
      "stateMutability": "view",
      "type": "function"
    },
    {
      "constant": true,
      "inputs": [],
      "name": "getAvailableCollateral",
      "outputs": [
        {
          "internalType": "uint256",
          "name": "",
          "type": "uint256"
        }
      ],
      "payable": false,
      "stateMutability": "view",
      "type": "function"
    },
    {
      "constant": true,
      "inputs": [],
      "name": "getCollateralPoolAddress",
      "outputs": [
        {
          "internalType": "address",
          "name": "",
          "type": "address"
        }
      ],
      "payable": false,
      "stateMutability": "view",
      "type": "function"
    },
    {
      "constant": true,
      "inputs": [],
      "name": "getFPTCoinAddress",
      "outputs": [
        {
          "internalType": "address",
          "name": "",
          "type": "address"
        }
      ],
      "payable": false,
      "stateMutability": "view",
      "type": "function"
    },
    {
      "constant": true,
      "inputs": [],
      "name": "getInputAmountRange",
      "outputs": [
        {
          "internalType": "uint256",
          "name": "",
          "type": "uint256"
        },
        {
          "internalType": "uint256",
          "name": "",
          "type": "uint256"
        }
      ],
      "payable": false,
      "stateMutability": "view",
      "type": "function"
    },
    {
      "constant": true,
      "inputs": [],
      "name": "getLeftCollateral",
      "outputs": [
        {
          "internalType": "uint256",
          "name": "",
          "type": "uint256"
        }
      ],
      "payable": false,
      "stateMutability": "view",
      "type": "function"
    },
    {
      "constant": true,
      "inputs": [],
      "name": "getNetWorthBalance",
      "outputs": [
        {
          "internalType": "uint256",
          "name": "",
          "type": "uint256"
        }
      ],
      "payable": false,
      "stateMutability": "view",
      "type": "function"
    },
    {
      "constant": true,
      "inputs": [],
      "name": "getOccupiedCollateral",
      "outputs": [
        {
          "internalType": "uint256",
          "name": "",
          "type": "uint256"
        }
      ],
      "payable": false,
      "stateMutability": "view",
      "type": "function"
    },
    {
      "constant": true,
      "inputs": [],
      "name": "getOptionsPoolAddress",
      "outputs": [
        {
          "internalType": "address",
          "name": "",
          "type": "address"
        }
      ],
      "payable": false,
      "stateMutability": "view",
      "type": "function"
    },
    {
      "constant": true,
      "inputs": [],
      "name": "getOptionsPriceAddress",
      "outputs": [
        {
          "internalType": "address",
          "name": "",
          "type": "address"
        }
      ],
      "payable": false,
      "stateMutability": "view",
      "type": "function"
    },
    {
      "constant": true,
      "inputs": [],
      "name": "getOracleAddress",
      "outputs": [
        {
          "internalType": "address",
          "name": "",
          "type": "address"
        }
      ],
      "payable": false,
      "stateMutability": "view",
      "type": "function"
    },
    {
      "constant": true,
      "inputs": [],
      "name": "getRealBalance",
      "outputs": [
        {
          "internalType": "int256",
          "name": "",
          "type": "int256"
        }
      ],
      "payable": false,
      "stateMutability": "view",
      "type": "function"
    },
    {
      "constant": true,
      "inputs": [],
      "name": "getTokenNetworth",
      "outputs": [
        {
          "internalType": "uint256",
          "name": "",
          "type": "uint256"
        }
      ],
      "payable": false,
      "stateMutability": "view",
      "type": "function"
    },
    {
      "constant": true,
      "inputs": [],
      "name": "getTotalCollateral",
      "outputs": [
        {
          "internalType": "uint256",
          "name": "",
          "type": "uint256"
        }
      ],
      "payable": false,
      "stateMutability": "view",
      "type": "function"
    },
    {
      "constant": true,
      "inputs": [],
      "name": "getUnlockedCollateral",
      "outputs": [
        {
          "internalType": "uint256",
          "name": "",
          "type": "uint256"
        }
      ],
      "payable": false,
      "stateMutability": "view",
      "type": "function"
    },
    {
      "constant": true,
      "inputs": [
        {
          "internalType": "address",
          "name": "account",
          "type": "address"
        }
      ],
      "name": "getUserTotalWorth",
      "outputs": [
        {
          "internalType": "uint256",
          "name": "",
          "type": "uint256"
        }
      ],
      "payable": false,
      "stateMutability": "view",
      "type": "function"
    },
    {
      "constant": true,
      "inputs": [],
      "name": "getWhiteList",
      "outputs": [
        {
          "internalType": "address[]",
          "name": "",
          "type": "address[]"
        }
      ],
      "payable": false,
      "stateMutability": "view",
      "type": "function"
    },
    {
      "constant": true,
      "inputs": [
        {
          "internalType": "address",
          "name": "tmpAddress",
          "type": "address"
        }
      ],
      "name": "isEligibleAddress",
      "outputs": [
        {
          "internalType": "bool",
          "name": "",
          "type": "bool"
        }
      ],
      "payable": false,
      "stateMutability": "view",
      "type": "function"
    },
    {
      "constant": true,
      "inputs": [
        {
          "internalType": "uint256",
          "name": "Amount",
          "type": "uint256"
        }
      ],
      "name": "isInputAmountInRange",
      "outputs": [
        {
          "internalType": "bool",
          "name": "",
          "type": "bool"
        }
      ],
      "payable": false,
      "stateMutability": "view",
      "type": "function"
    },
    {
      "constant": true,
      "inputs": [],
      "name": "isOwner",
      "outputs": [
        {
          "internalType": "bool",
          "name": "",
          "type": "bool"
        }
      ],
      "payable": false,
      "stateMutability": "view",
      "type": "function"
    },
    {
      "constant": false,
      "inputs": [
        {
          "internalType": "address",
          "name": "addAddress",
          "type": "address"
        },
        {
          "internalType": "uint256",
          "name": "permission",
          "type": "uint256"
        }
      ],
      "name": "modifyPermission",
      "outputs": [],
      "payable": false,
      "stateMutability": "nonpayable",
      "type": "function"
    },
    {
      "constant": true,
      "inputs": [],
      "name": "owner",
      "outputs": [
        {
          "internalType": "address",
          "name": "",
          "type": "address"
        }
      ],
      "payable": false,
      "stateMutability": "view",
      "type": "function"
    },
    {
      "constant": false,
      "inputs": [
        {
          "internalType": "uint256",
          "name": "tokenAmount",
          "type": "uint256"
        },
        {
          "internalType": "address",
          "name": "collateral",
          "type": "address"
        }
      ],
      "name": "redeemCollateral",
      "outputs": [],
      "payable": false,
      "stateMutability": "nonpayable",
      "type": "function"
    },
    {
      "constant": false,
      "inputs": [
        {
          "internalType": "address",
          "name": "removeAddress",
          "type": "address"
        }
      ],
      "name": "removeWhiteList",
      "outputs": [
        {
          "internalType": "bool",
          "name": "",
          "type": "bool"
        }
      ],
      "payable": false,
      "stateMutability": "nonpayable",
      "type": "function"
    },
    {
      "constant": false,
      "inputs": [],
      "name": "renounceOwnership",
      "outputs": [],
      "payable": false,
      "stateMutability": "nonpayable",
      "type": "function"
    },
    {
      "constant": false,
      "inputs": [
        {
          "internalType": "address",
          "name": "collateralPool",
          "type": "address"
        }
      ],
      "name": "setCollateralPoolAddress",
      "outputs": [],
      "payable": false,
      "stateMutability": "nonpayable",
      "type": "function"
    },
    {
      "constant": false,
      "inputs": [
        {
          "internalType": "address",
          "name": "FPTCoinAddr",
          "type": "address"
        }
      ],
      "name": "setFPTCoinAddress",
      "outputs": [],
      "payable": false,
      "stateMutability": "nonpayable",
      "type": "function"
    },
    {
      "constant": false,
      "inputs": [
        {
          "internalType": "bool",
          "name": "halt",
          "type": "bool"
        }
      ],
      "name": "setHalt",
      "outputs": [],
      "payable": false,
      "stateMutability": "nonpayable",
      "type": "function"
    },
    {
      "constant": false,
      "inputs": [
        {
          "internalType": "uint256",
          "name": "_minAmount",
          "type": "uint256"
        },
        {
          "internalType": "uint256",
          "name": "_maxAmount",
          "type": "uint256"
        }
      ],
      "name": "setInputAmountRange",
      "outputs": [],
      "payable": false,
      "stateMutability": "nonpayable",
      "type": "function"
    },
    {
      "constant": false,
      "inputs": [
        {
          "internalType": "address",
          "name": "optionsPool",
          "type": "address"
        }
      ],
      "name": "setOptionsPoolAddress",
      "outputs": [],
      "payable": false,
      "stateMutability": "nonpayable",
      "type": "function"
    },
    {
      "constant": false,
      "inputs": [
        {
          "internalType": "address",
          "name": "optionsPrice",
          "type": "address"
        }
      ],
      "name": "setOptionsPriceAddress",
      "outputs": [],
      "payable": false,
      "stateMutability": "nonpayable",
      "type": "function"
    },
    {
      "constant": false,
      "inputs": [
        {
          "internalType": "address",
          "name": "oracle",
          "type": "address"
        }
      ],
      "name": "setOracleAddress",
      "outputs": [],
      "payable": false,
      "stateMutability": "nonpayable",
      "type": "function"
    },
    {
      "constant": false,
      "inputs": [
        {
          "internalType": "bool",
          "name": "_bValid",
          "type": "bool"
        }
      ],
      "name": "setValid",
      "outputs": [],
      "payable": false,
      "stateMutability": "nonpayable",
      "type": "function"
    },
    {
      "constant": false,
      "inputs": [
        {
          "internalType": "address",
          "name": "newOwner",
          "type": "address"
        }
      ],
      "name": "transferOwnership",
      "outputs": [],
      "payable": false,
      "stateMutability": "nonpayable",
      "type": "function"
    },
    {
      "constant": false,
      "inputs": [],
      "name": "initialize",
      "outputs": [],
      "payable": false,
      "stateMutability": "nonpayable",
      "type": "function"
    },
    {
      "constant": false,
      "inputs": [],
      "name": "update",
      "outputs": [],
      "payable": false,
      "stateMutability": "nonpayable",
      "type": "function"
    },
    {
      "constant": true,
      "inputs": [],
      "name": "getPriceRateRange",
      "outputs": [
        {
          "internalType": "uint256",
          "name": "",
          "type": "uint256"
        },
        {
          "internalType": "uint256",
          "name": "",
          "type": "uint256"
        }
      ],
      "payable": false,
      "stateMutability": "view",
      "type": "function"
    },
    {
      "constant": false,
      "inputs": [
        {
          "internalType": "uint256",
          "name": "_minPriceRate",
          "type": "uint256"
        },
        {
          "internalType": "uint256",
          "name": "_maxPriceRate",
          "type": "uint256"
        }
      ],
      "name": "setPriceRateRange",
      "outputs": [],
      "payable": false,
      "stateMutability": "nonpayable",
      "type": "function"
    },
    {
      "constant": false,
      "inputs": [
        {
          "internalType": "uint256",
          "name": "settlementAmount",
          "type": "uint256"
        },
        {
          "internalType": "uint256",
          "name": "strikePrice",
          "type": "uint256"
        },
        {
          "internalType": "uint32",
          "name": "underlying",
          "type": "uint32"
        },
        {
          "internalType": "uint256",
          "name": "expiration",
          "type": "uint256"
        },
        {
          "internalType": "uint256",
          "name": "amount",
          "type": "uint256"
        },
        {
          "internalType": "uint8",
          "name": "optType",
          "type": "uint8"
        }
      ],
      "name": "buyOption",
      "outputs": [],
      "payable": true,
      "stateMutability": "payable",
      "type": "function"
    },
    {
      "constant": false,
      "inputs": [
        {
          "internalType": "uint256",
          "name": "optionsId",
          "type": "uint256"
        },
        {
          "internalType": "uint256",
          "name": "amount",
          "type": "uint256"
        }
      ],
      "name": "sellOption",
      "outputs": [],
      "payable": false,
      "stateMutability": "nonpayable",
      "type": "function"
    },
    {
      "constant": false,
      "inputs": [
        {
          "internalType": "uint256",
          "name": "optionsId",
          "type": "uint256"
        },
        {
          "internalType": "uint256",
          "name": "amount",
          "type": "uint256"
        }
      ],
      "name": "exerciseOption",
      "outputs": [],
      "payable": false,
      "stateMutability": "nonpayable",
      "type": "function"
    },
    {
      "constant": true,
      "inputs": [
        {
          "internalType": "uint256",
          "name": "underlyingPrice",
          "type": "uint256"
        },
        {
          "internalType": "uint256",
          "name": "strikePrice",
          "type": "uint256"
        },
        {
          "internalType": "uint256",
          "name": "expiration",
          "type": "uint256"
        },
        {
          "internalType": "uint32",
          "name": "underlying",
          "type": "uint32"
        },
        {
          "internalType": "uint256",
          "name": "amount",
          "type": "uint256"
        },
        {
          "internalType": "uint8",
          "name": "optType",
          "type": "uint8"
        }
      ],
      "name": "getOptionsPrice",
      "outputs": [
        {
          "internalType": "uint256",
          "name": "",
          "type": "uint256"
        }
      ],
      "payable": false,
      "stateMutability": "view",
      "type": "function"
    }
  ],
  "bytecode": "0x60806040526000805460ff199081169091556c0c9f2c9cd04674edea4000000060019081556064600255600380548316905560078054909216179055611388600c556105dc600e556101f4600f5534801561005957600080fd5b506040516200473338038062004733833981810160405260a081101561007e57600080fd5b508051602082015160408084015160608501516080909501516000805461010033810261010060a860020a03199092169190911780835594519697959693959492939204600160a060020a0316917f8be0079c531659141344cd1fd0a4f28419497f9722a3daafe3b4186f6b6457e0908290a360088054600160a060020a03968716600160a060020a031991821617909155600b8054958716958216959095179094556009805493861693851693909317909255600a8054918516919093161790915560078054919092166101000261010060a860020a03199091161790556145c6806200016d6000396000f3fe6080604052600436106102975760003560e060020a900480638f32d59b1161015e578063cd405819116100c5578063e28a327d1161007e578063e28a327d14610943578063e7122ffd14610958578063e7cd4a041461098b578063ef828b91146109be578063f2fde38b14610a0f578063f495438714610a4257610297565b8063cd4058191461087b578063d160352914610890578063d1892904146108d4578063d6eb591014610904578063d7e5799214610919578063dab551291461092e57610297565b8063b18b78dd11610117578063b18b78dd146107d1578063bc9abed2146107e6578063bcc46e83146107fb578063c040725a14610818578063c219043b1461082d578063c5e5a3ed1461086657610297565b80638f32d59b146106f25780639ab91a3514610707578063a093e2d014610737578063a20a80451461076a578063a2e6204514610656578063aec62806146107a357610297565b80634cbf6302116102025780637c9c6712116101bb5780637c9c6712146106265780638129fc1c14610656578063813b5d4b1461066b578063817bf86d146106955780638da5cb5b146106c85780638f10ad94146106dd57610297565b80634cbf6302146105525780635bf5d8971461058b5780635ca4b73b146105bb5780636c64edee146105d05780636f1d7b33146105fc578063715018a61461061157610297565b8063251e2fe311610254578063251e2fe31461041057806332c82a5f146104415780633daba0d7146104805780633e5beab9146104b9578063447dbeac146104ec5780634c69c00f1461051f57610297565b8063095ea7b31461029c57806309a9d76c146102d75780630aaf38321461033c5780631730b3cb146103635780631a5a3fce146103965780632042e5c2146103c9575b600080fd5b3480156102a857600080fd5b506102d5600480360360408110156102bf57600080fd5b50600160a060020a038135169060200135610a6e565b005b3480156102e357600080fd5b506102ec610ad4565b60408051602080825283518183015283519192839290830191858101910280838360005b83811015610328578181015183820152602001610310565b505050509050019250505060405180910390f35b34801561034857600080fd5b50610351610b37565b60408051918252519081900360200190f35b34801561036f57600080fd5b506102d56004803603602081101561038657600080fd5b5035600160a060020a0316610b56565b3480156103a257600080fd5b506102d5600480360360208110156103b957600080fd5b5035600160a060020a0316610bcf565b3480156103d557600080fd5b506103fc600480360360208110156103ec57600080fd5b5035600160a060020a0316610c48565b604080519115158252519081900360200190f35b34801561041c57600080fd5b50610425610cc4565b60408051600160a060020a039092168252519081900360200190f35b34801561044d57600080fd5b506103516004803603608081101561046457600080fd5b508035906020810135906040810135906060013560ff16610cd3565b34801561048c57600080fd5b506103fc600480360360408110156104a357600080fd5b50600160a060020a038135169060200135610d05565b3480156104c557600080fd5b50610351600480360360208110156104dc57600080fd5b5035600160a060020a0316610d39565b3480156104f857600080fd5b506103516004803603602081101561050f57600080fd5b5035600160a060020a0316610d54565b34801561052b57600080fd5b506102d56004803603602081101561054257600080fd5b5035600160a060020a0316610e95565b34801561055e57600080fd5b506103fc6004803603604081101561057557600080fd5b50600160a060020a038135169060200135610f0e565b34801561059757600080fd5b506102d5600480360360408110156105ae57600080fd5b5080359060200135610f2f565b3480156105c757600080fd5b50610425610f84565b3480156105dc57600080fd5b506102d5600480360360208110156105f357600080fd5b50351515610f93565b34801561060857600080fd5b50610351610ff0565b34801561061d57600080fd5b506102d561107f565b34801561063257600080fd5b506102d56004803603604081101561064957600080fd5b5080359060200135611125565b34801561066257600080fd5b506102d5611778565b34801561067757600080fd5b506103fc6004803603602081101561068e57600080fd5b50356117c4565b3480156106a157600080fd5b506103fc600480360360208110156106b857600080fd5b5035600160a060020a03166117dc565b3480156106d457600080fd5b5061042561184b565b3480156106e957600080fd5b5061035161185f565b3480156106fe57600080fd5b506103fc6118bd565b34801561071357600080fd5b506102d56004803603604081101561072a57600080fd5b50803590602001356118d3565b34801561074357600080fd5b506102d56004803603602081101561075a57600080fd5b5035600160a060020a0316611928565b34801561077657600080fd5b506102d56004803603604081101561078d57600080fd5b5080359060200135600160a060020a03166119a1565b3480156107af57600080fd5b506107b8611de3565b6040805192835260208301919091528051918290030190f35b3480156107dd57600080fd5b50610425611ded565b3480156107f257600080fd5b506107b8611dfc565b6102d56004803603602081101561081157600080fd5b5035611e06565b34801561082457600080fd5b50610425612291565b34801561083957600080fd5b506102d56004803603604081101561085057600080fd5b50600160a060020a0381351690602001356122a0565b34801561087257600080fd5b50610351612306565b34801561088757600080fd5b506103516123c7565b6102d5600480360360c08110156108a657600080fd5b50803590602081013590604081013563ffffffff169060608101359060808101359060a0013560ff16612458565b3480156108e057600080fd5b506102d5600480360360408110156108f757600080fd5b5080359060200135612825565b34801561091057600080fd5b50610351612cf0565b34801561092557600080fd5b50610425612dbc565b34801561093a57600080fd5b50610351612dd0565b34801561094f57600080fd5b50610351612e5f565b34801561096457600080fd5b506102d56004803603602081101561097b57600080fd5b5035600160a060020a0316612e6c565b34801561099757600080fd5b506102d5600480360360208110156109ae57600080fd5b5035600160a060020a0316612eeb565b3480156109ca57600080fd5b50610351600480360360c08110156109e157600080fd5b50803590602081013590604081013590606081013563ffffffff169060808101359060a0013560ff16612f66565b348015610a1b57600080fd5b506102d560048036036020811015610a3257600080fd5b5035600160a060020a0316613269565b348015610a4e57600080fd5b506102d560048036036020811015610a6557600080fd5b503515156132bf565b610a766118bd565b610ab8576040805160e560020a62461bcd0281526020600482018190526024820152600080516020614503833981519152604482015290519081900360640190fd5b600160a060020a03909116600090815260066020526040902055565b60606004805480602002602001604051908101604052809291908181526020018280548015610b2c57602002820191906000526020600020905b8154600160a060020a03168152600190910190602001808311610b0e575b505050505090505b90565b6000610b51610b44612cf0565b610b4c6123c7565b61331c565b905090565b610b5e6118bd565b610ba0576040805160e560020a62461bcd0281526020600482018190526024820152600080516020614503833981519152604482015290519081900360640190fd5b600a805473ffffffffffffffffffffffffffffffffffffffff1916600160a060020a0392909216919091179055565b610bd76118bd565b610c19576040805160e560020a62461bcd0281526020600482018190526024820152600080516020614503833981519152604482015290519081900360640190fd5b6009805473ffffffffffffffffffffffffffffffffffffffff1916600160a060020a0392909216919091179055565b6000610c526118bd565b610c94576040805160e560020a62461bcd0281526020600482018190526024820152600080516020614503833981519152604482015290519081900360640190fd5b600160a060020a038216600090815260056020526040812055610cbe60048363ffffffff61333216565b92915050565b600a54600160a060020a031690565b60008060ff8316158587111415610ced5750848302610cf2565b508383025b610cfb81613420565b9695505050505050565b60075460009060ff161580610d325750600160a060020a0383166000908152600660205260409020548211155b9392505050565b600160a060020a031660009081526006602052604090205490565b600754604080517f07e77aa0000000000000000000000000000000000000000000000000000000008152600160a060020a0384811660048301529151600093610cbe9361010090910416916307e77aa0916024808301926020929190829003018186803b158015610dc457600080fd5b505afa158015610dd8573d6000803e3d6000fd5b505050506040513d6020811015610dee57600080fd5b50516007546040805160e060020a6370a08231028152600160a060020a0387811660048301529151610e89936101009004909216916370a0823191602480820192602092909190829003018186803b158015610e4957600080fd5b505afa158015610e5d573d6000803e3d6000fd5b505050506040513d6020811015610e7357600080fd5b5051610e7d612306565b9063ffffffff61343816565b9063ffffffff61349116565b610e9d6118bd565b610edf576040805160e560020a62461bcd0281526020600482018190526024820152600080516020614503833981519152604482015290519081900360640190fd5b6008805473ffffffffffffffffffffffffffffffffffffffff1916600160a060020a0392909216919091179055565b600160a060020a039190911660009081526005602052604090205481161490565b610f376118bd565b610f79576040805160e560020a62461bcd0281526020600482018190526024820152600080516020614503833981519152604482015290519081900360640190fd5b600f91909155600e55565b600b54600160a060020a031690565b610f9b6118bd565b610fdd576040805160e560020a62461bcd0281526020600482018190526024820152600080516020614503833981519152604482015290519081900360640190fd5b6007805460ff1916911515919091179055565b600a54604080517f6f1d7b330000000000000000000000000000000000000000000000000000000081529051600092600160a060020a031691636f1d7b33916004808301926020929190829003018186803b15801561104e57600080fd5b505afa158015611062573d6000803e3d6000fd5b505050506040513d602081101561107857600080fd5b5051905090565b6110876118bd565b6110c9576040805160e560020a62461bcd0281526020600482018190526024820152600080516020614503833981519152604482015290519081900360640190fd5b60008054604051610100909104600160a060020a0316907f8be0079c531659141344cd1fd0a4f28419497f9722a3daafe3b4186f6b6457e0908390a36000805474ffffffffffffffffffffffffffffffffffffffff0019169055565b60005460ff161561113557600080fd5b6000805460ff1916600117905560035460ff161561118b576040805160e560020a62461bcd0281526020600482015260176024820152600080516020614572833981519152604482015290519081900360640190fd5b8080600154101580156111a057508060025411155b6111de5760405160e560020a62461bcd0281526004018080602001828103825260298152602001806144986029913960400191505060405180910390fd5b600954604080517f67b8ceb900000000000000000000000000000000000000000000000000000000815260048101869052602481018590529051600092600160a060020a0316916367b8ceb9916044808301926020929190829003018186803b15801561124a57600080fd5b505afa15801561125e573d6000803e3d6000fd5b505050506040513d602081101561127457600080fd5b50519050806112cd576040805160e560020a62461bcd02815260206004820152601b60248201527f54686973206f7074696f6e2063616e6e6f742065786572636973650000000000604482015290519081900360640190fd5b600954604080517f48ee201d000000000000000000000000000000000000000000000000000000008152600481018790529051600092839283928392600160a060020a0316916348ee201d9160248083019260e0929190829003018186803b15801561133857600080fd5b505afa15801561134c573d6000803e3d6000fd5b505050506040513d60e081101561136257600080fd5b5060408101516060820151608083015160a09093015191965094509092509050611392824263ffffffff6134ec16565b915060006113a58463ffffffff16613547565b600b546040805160e260020a6312df639702815260048101849052602481018690526044810187905263ffffffff8816606482015260ff891660848201529051929350600092600160a060020a0390921691634b7d8e5c9160a480820192602092909190829003018186803b15801561141d57600080fd5b505afa158015611431573d6000803e3d6000fd5b505050506040513d602081101561144757600080fd5b5051600b546040805160e260020a6312df639702815260048101869052602481018790526044810188905263ffffffff8916606482015260ff8a1660848201529051929350600160a060020a0390911691634b7d8e5c9160a480820192602092909190829003018186803b1580156114be57600080fd5b505afa1580156114d2573d6000803e3d6000fd5b505050506040513d60208110156114e857600080fd5b5050600954604080517f6ed82ec9000000000000000000000000000000000000000000000000000000008152336004820152602481018d9052604481018c9052606481018490529051600160a060020a0390921691636ed82ec99160848082019260009290919082900301818387803b15801561156457600080fd5b505af1158015611578573d6000803e3d6000fd5b5050600954604080517f597ce900000000000000000000000000000000000000000000000000000000008152600481018f9052602481018e9052905160009450600160a060020a03909216925063597ce900916044808301926020929190829003018186803b1580156115ea57600080fd5b505afa1580156115fe573d6000803e3d6000fd5b505050506040513d602081101561161457600080fd5b5051600a54604080517f74c43e57000000000000000000000000000000000000000000000000000000008152600481018490529051929350600160a060020a03909116916374c43e579160248082019260009290919082900301818387803b15801561167f57600080fd5b505af1158015611693573d6000803e3d6000fd5b5050600a54604080517f9f5fdc9f000000000000000000000000000000000000000000000000000000008152336004820152602481018d9052600260448201529051600160a060020a039092169350639f5fdc9f925060648082019260009290919082900301818387803b15801561170a57600080fd5b505af115801561171e573d6000803e3d6000fd5b5050604080518d8152602081018c905281518f94503393507fc939d87d6a5458cd262393bdb2c5408330b7647ca14b752229b0301858a29972929181900390910190a350506000805460ff19169055505050505050505050565b6117806118bd565b6117c2576040805160e560020a62461bcd0281526020600482018190526024820152600080516020614503833981519152604482015290519081900360640190fd5b565b60008160015410158015610cbe575050600254111590565b6000610cbe82600480548060200260200160405190810160405280929190818152602001828054801561183857602002820191906000526020600020905b8154600160a060020a0316815260019091019060200180831161181a575b505050505061360690919063ffffffff16565b6000546101009004600160a060020a031690565b600a54604080517f8f10ad940000000000000000000000000000000000000000000000000000000081529051600092600160a060020a031691638f10ad94916004808301926020929190829003018186803b15801561104e57600080fd5b6000546101009004600160a060020a0316331490565b6118db6118bd565b61191d576040805160e560020a62461bcd0281526020600482018190526024820152600080516020614503833981519152604482015290519081900360640190fd5b600291909155600155565b6119306118bd565b611972576040805160e560020a62461bcd0281526020600482018190526024820152600080516020614503833981519152604482015290519081900360640190fd5b600b805473ffffffffffffffffffffffffffffffffffffffff1916600160a060020a0392909216919091179055565b60005460ff16156119b157600080fd5b6000805460ff1916600117905560035460ff1615611a07576040805160e560020a62461bcd0281526020600482015260176024820152600080516020614572833981519152604482015290519081900360640190fd5b818060015410158015611a1c57508060025411155b611a5a5760405160e560020a62461bcd0281526004018080602001828103825260298152602001806144986029913960400191505060405180910390fd5b611a65826010610f0e565b611ab9576040805160e560020a62461bcd02815260206004820152601f60248201527f736574746c656d656e7420697320756e737570706f7274656420746f6b656e00604482015290519081900360640190fd5b600754604080517f5935573600000000000000000000000000000000000000000000000000000000815233600482015290516000926101009004600160a060020a0316916359355736916024808301926020929190829003018186803b158015611b2257600080fd5b505afa158015611b36573d6000803e3d6000fd5b505050506040513d6020811015611b4c57600080fd5b50516007546040805160e060020a6370a082310281523360048201529051929350869284926101009004600160a060020a0316916370a08231916024808301926020929190829003018186803b158015611ba557600080fd5b505afa158015611bb9573d6000803e3d6000fd5b505050506040513d6020811015611bcf57600080fd5b5051011015611c28576040805160e560020a62461bcd02815260206004820152601e60248201527f53436f696e2062616c616e636520697320696e73756666696369656e74210000604482015290519081900360640190fd5b6000611c32610b37565b600754604080517f35f0c4fa0000000000000000000000000000000000000000000000000000000081523360048201526024810189905260448101849052815193945060009384936101009004600160a060020a0316926335f0c4fa926064808201939182900301818787803b158015611cab57600080fd5b505af1158015611cbf573d6000803e3d6000fd5b505050506040513d6040811015611cd557600080fd5b508051602090910151909250905081871115611d335791829003918315611d0b57838711611d04576000611d08565b8387035b96505b600080611d188986613655565b90925090508115611d2c5781935080830192505b5050611d38565b600091505b611d4181613734565b8115611dd057600754604080517f9dc29fac000000000000000000000000000000000000000000000000000000008152336004820152602481018590529051610100909204600160a060020a031691639dc29fac9160448082019260009290919082900301818387803b158015611db757600080fd5b505af1158015611dcb573d6000803e3d6000fd5b505050505b50506000805460ff191690555050505050565b600f54600e549091565b600854600160a060020a031690565b6002546001549091565b60005460ff1615611e1657600080fd5b6000805460ff1916600117905560035460ff1615611e6c576040805160e560020a62461bcd0281526020600482015260176024820152600080516020614572833981519152604482015290519081900360640190fd5b611e7581613822565b600a54604080517f29a4541a00000000000000000000000000000000000000000000000000000000815260048101849052600360248201529051929350600092600160a060020a03909216916329a4541a9160448082019260209290919082900301818787803b158015611ee857600080fd5b505af1158015611efc573d6000803e3d6000fd5b505050506040513d6020811015611f1257600080fd5b5051600d549281900392909150600090611f3490600160a060020a0316613b58565b600a54604080517f42049a720000000000000000000000000000000000000000000000000000000081523360048201819052915193945086850293611fe7936305f5e100928692600160a060020a03909216916342049a7291602480820192602092909190829003018186803b158015611fad57600080fd5b505afa158015611fc1573d6000803e3d6000fd5b505050506040513d6020811015611fd757600080fd5b50510181611fe157fe5b04610d05565b6120255760405160e560020a62461bcd02815260040180806020018281038252602e815260200180614544602e913960400191505060405180910390fd5b600061202f612306565b828161203757fe5b600a54604080517ff97cf555000000000000000000000000000000000000000000000000000000008152600481018a90529051939092049350600160a060020a03169163f97cf5559160248082019260009290919082900301818387803b1580156120a157600080fd5b505af11580156120b5573d6000803e3d6000fd5b5050600a54604080517faa68e11e000000000000000000000000000000000000000000000000000000008152336004820152602481018a90529051600160a060020a03909216935063aa68e11e925060448082019260009290919082900301818387803b15801561212557600080fd5b505af1158015612139573d6000803e3d6000fd5b5050600a54604080517f74c43e57000000000000000000000000000000000000000000000000000000008152600481018a90529051600160a060020a0390921693506374c43e57925060248082019260009290919082900301818387803b1580156121a357600080fd5b505af11580156121b7573d6000803e3d6000fd5b5050604080518881526020810185905281513394507fe3f4fa74d049cf7d64965afd6ce83c826cd313cec824ecfb9aacf36886090b4993509081900390910190a2600754604080517f40c10f19000000000000000000000000000000000000000000000000000000008152336004820152602481018490529051610100909204600160a060020a0316916340c10f199160448082019260009290919082900301818387803b15801561226857600080fd5b505af115801561227c573d6000803e3d6000fd5b50506000805460ff1916905550505050505050565b600954600160a060020a031690565b6122a86118bd565b6122ea576040805160e560020a62461bcd0281526020600482018190526024820152600080516020614503833981519152604482015290519081900360640190fd5b600160a060020a03909116600090815260056020526040902055565b600080600760019054906101000a9004600160a060020a0316600160a060020a03166318160ddd6040518163ffffffff1660e060020a02815260040160206040518083038186803b15801561235a57600080fd5b505afa15801561236e573d6000803e3d6000fd5b505050506040513d602081101561238457600080fd5b505190508061239a576305f5e100915050610b34565b6000816123a5612dd0565b816123ac57fe5b049050606481116123be5760646123c0565b805b9250505090565b600080600960009054906101000a9004600160a060020a0316600160a060020a03166373a3d4246040518163ffffffff1660e060020a02815260040160206040518083038186803b15801561241b57600080fd5b505afa15801561242f573d6000803e3d6000fd5b505050506040513d602081101561244557600080fd5b5051905061245281613420565b91505090565b60005460ff161561246857600080fd5b6000805460ff1916600117905560035460ff16156124be576040805160e560020a62461bcd0281526020600482015260176024820152600080516020614572833981519152604482015290519081900360640190fd5b8180600154101580156124d357508060025411155b6125115760405160e560020a62461bcd0281526004018080602001828103825260298152602001806144986029913960400191505060405180910390fd5b600954604080517f3ad2fb570000000000000000000000000000000000000000000000000000000081526004810187905263ffffffff881660248201529051600160a060020a0390921691633ad2fb5791604480820192600092909190829003018186803b15801561258257600080fd5b505afa158015612596573d6000803e3d6000fd5b50505050700100000000000000000000000000000000840263ffffffff861668010000000000000000810260ff85160191909101906000906125d790613547565b90506125e38882613bc0565b60006125f1828a8888613c30565b600b546040805160e260020a6312df639702815260048101869052602481018d9052604481018b905263ffffffff8c16606482015260ff891660848201529051929350600092600160a060020a0390921691634b7d8e5c9160a480820192602092909190829003018186803b15801561266957600080fd5b505afa15801561267d573d6000803e3d6000fd5b505050506040513d602081101561269357600080fd5b5051600d549091506000906126b090600160a060020a0316613b58565b9050600960009054906101000a9004600160a060020a0316600160a060020a031663a05a8b7433878e888d876040518763ffffffff1660e060020a0281526004018087600160a060020a0316600160a060020a03168152602001868152602001856fffffffffffffffffffffffffffffffff166fffffffffffffffffffffffffffffffff168152602001846fffffffffffffffffffffffffffffffff166fffffffffffffffffffffffffffffffff168152602001836fffffffffffffffffffffffffffffffff166fffffffffffffffffffffffffffffffff168152602001826fffffffffffffffffffffffffffffffff166fffffffffffffffffffffffffffffffff1681526020019650505050505050600060405180830381600087803b1580156127da57600080fd5b505af11580156127ee573d6000803e3d6000fd5b505064010000000093850293909304925061280d90508c838d8b613eeb565b50506000805460ff1916905550505050505050505050565b60005460ff161561283557600080fd5b6000805460ff1916600117905560035460ff161561288b576040805160e560020a62461bcd0281526020600482015260176024820152600080516020614572833981519152604482015290519081900360640190fd5b8080600154101580156128a057508060025411155b6128de5760405160e560020a62461bcd0281526004018080602001828103825260298152602001806144986029913960400191505060405180910390fd5b600954604080517f48ee201d000000000000000000000000000000000000000000000000000000008152600481018690529051600092839283928392600160a060020a0316916348ee201d9160248083019260e0929190829003018186803b15801561294957600080fd5b505afa15801561295d573d6000803e3d6000fd5b505050506040513d60e081101561297357600080fd5b5060408101516060820151608083015160a090930151919650945090925090506129a3824263ffffffff6134ec16565b915060006129b68463ffffffff16613547565b600b546040805160e260020a6312df639702815260048101849052602481018690526044810187905263ffffffff8816606482015260ff891660848201529051929350600092600160a060020a0390921691634b7d8e5c9160a480820192602092909190829003018186803b158015612a2e57600080fd5b505afa158015612a42573d6000803e3d6000fd5b505050506040513d6020811015612a5857600080fd5b5051600954604080517f6ed82ec9000000000000000000000000000000000000000000000000000000008152336004820152602481018d9052604481018c9052606481018490529051929350600160a060020a0390911691636ed82ec99160848082019260009290919082900301818387803b158015612ad757600080fd5b505af1158015612aeb573d6000803e3d6000fd5b5050600954604080517f597ce900000000000000000000000000000000000000000000000000000000008152600481018e9052602481018d90529051858d02945060009350600160a060020a039092169163597ce90091604480820192602092909190829003018186803b158015612b6257600080fd5b505afa158015612b76573d6000803e3d6000fd5b505050506040513d6020811015612b8c57600080fd5b5051600a54604080517f74c43e57000000000000000000000000000000000000000000000000000000008152600481018490529051929350600160a060020a03909116916374c43e579160248082019260009290919082900301818387803b158015612bf757600080fd5b505af1158015612c0b573d6000803e3d6000fd5b5050600a54604080517f9f5fdc9f00000000000000000000000000000000000000000000000000000000815233600482015260248101879052600160448201529051600160a060020a039092169350639f5fdc9f925060648082019260009290919082900301818387803b158015612c8257600080fd5b505af1158015612c96573d6000803e3d6000fd5b5050604080518d81526020810186905281518f94503393507f4d6194525a1265d47b1d6b65f640509c7a2a8aa847fd0654fac933032e1348ac929181900390910190a350506000805460ff19169055505050505050505050565b600080600a60009054906101000a9004600160a060020a0316600160a060020a0316636f1d7b336040518163ffffffff1660e060020a02815260040160206040518083038186803b158015612d4457600080fd5b505afa158015612d58573d6000803e3d6000fd5b505050506040513d6020811015612d6e57600080fd5b505190506000811315612dae57600d54600090612d9390600160a060020a0316613b58565b9050612da5818363ffffffff6141dc16565b92505050610b34565b6000915050610b34565b5090565b6007546101009004600160a060020a031690565b6000610b51612ddd612cf0565b600760019054906101000a9004600160a060020a0316600160a060020a031663dad3eb746040518163ffffffff1660e060020a02815260040160206040518083038186803b158015612e2e57600080fd5b505afa158015612e42573d6000803e3d6000fd5b505050506040513d6020811015612e5857600080fd5b505161331c565b6000610b51610b44612dd0565b612e746118bd565b612eb6576040805160e560020a62461bcd0281526020600482018190526024820152600080516020614503833981519152604482015290519081900360640190fd5b60078054600160a060020a039092166101000274ffffffffffffffffffffffffffffffffffffffff0019909216919091179055565b612ef36118bd565b612f35576040805160e560020a62461bcd0281526020600482018190526024820152600080516020614503833981519152604482015290519081900360640190fd5b612f4660048263ffffffff61423516565b600160a060020a0316600090815260056020526040902063ffffffff9055565b600080612f7587898686610cd3565b905080612f80612e5f565b1015612fd6576040805160e560020a62461bcd02815260206004820152601b60248201527f636f6c6c61746572616c20697320696e73756666696369656e74210000000000604482015290519081900360640190fd5b600b546040805160e260020a6312df6397028152600481018b9052602481018a90526044810189905263ffffffff8816606482015260ff861660848201529051600092600160a060020a031691634b7d8e5c9160a4808301926020929190829003018186803b15801561304857600080fd5b505afa15801561305c573d6000803e3d6000fd5b505050506040513d602081101561307257600080fd5b50519050600060ff85161561310357600960009054906101000a9004600160a060020a0316600160a060020a031663aef890be6040518163ffffffff1660e060020a02815260040160206040518083038186803b1580156130d257600080fd5b505afa1580156130e6573d6000803e3d6000fd5b505050506040513d60208110156130fc57600080fd5b5051613181565b600960009054906101000a9004600160a060020a0316600160a060020a0316633e77dfd96040518163ffffffff1660e060020a02815260040160206040518083038186803b15801561315457600080fd5b505afa158015613168573d6000803e3d6000fd5b505050506040513d602081101561317e57600080fd5b50515b90508261318d82613420565b01905060008361319b6123c7565b01905060006131a8612dd0565b600b54604080517ff22f25430000000000000000000000000000000000000000000000000000000081526004810187905260248101869052604481018490529051929350600092600160a060020a039092169163f22f254391606480820192602092909190829003018186803b15801561322157600080fd5b505afa158015613235573d6000803e3d6000fd5b505050506040513d602081101561324b57600080fd5b50516401000000009502949094049c9b505050505050505050505050565b6132716118bd565b6132b3576040805160e560020a62461bcd0281526020600482018190526024820152600080516020614503833981519152604482015290519081900360640190fd5b6132bc816142da565b50565b6132c76118bd565b613309576040805160e560020a62461bcd0281526020600482018190526024820152600080516020614503833981519152604482015290519081900360640190fd5b6003805460ff1916911515919091179055565b600081831161332c576000610d32565b50900390565b8154600090815b8181101561337f5783600160a060020a031685828154811061335757fe5b600091825260209091200154600160a060020a031614156133775761337f565b600101613339565b81811015613415576001820381146133f9578460018303815481106133a057fe5b9060005260206000200160009054906101000a9004600160a060020a03168582815481106133ca57fe5b9060005260206000200160006101000a815481600160a060020a030219169083600160a060020a031602179055505b845461340986600019830161440b565b50600192505050610cbe565b506000949350505050565b60006103e882600c54028161343157fe5b0492915050565b60008115806134535750508082028282828161345057fe5b04145b610cbe5760405160e560020a62461bcd0281526004018080602001828103825260218152602001806144e26021913960400191505060405180910390fd5b80820182811015610cbe576040805160e560020a62461bcd02815260206004820152601b60248201527f536166654d6174683a206164646974696f6e206f766572666c6f770000000000604482015290519081900360640190fd5b80820382811115610cbe576040805160e560020a62461bcd02815260206004820181905260248201527f536166654d6174683a20737562737472616374696f6e20756e646572666c6f77604482015290519081900360640190fd5b600854604080517fda6632570000000000000000000000000000000000000000000000000000000081526004810184905290516000928392600160a060020a039091169163da66325791602480820192602092909190829003018186803b1580156135b157600080fd5b505afa1580156135c5573d6000803e3d6000fd5b505050506040513d60208110156135db57600080fd5b50519050606481108015906135fd57506c0c9f2c9cd04674edea400000008111155b610cbe57600080fd5b8151600090815b818110156134155783600160a060020a031685828151811061362b57fe5b6020026020010151600160a060020a0316141561364d57600192505050610cbe565b60010161360d565b6000806000613662612306565b90508481028481111561372657600082868161367a57fe5b600754604080517f4b91a07b00000000000000000000000000000000000000000000000000000000815233600482015293909204808b03602485018190528781026044860152925190945086850293610100909204600160a060020a031691634b91a07b91606480830192600092919082900301818387803b1580156136ff57600080fd5b505af1158015613713573d6000803e3d6000fd5b5094985092965061372d95505050505050565b8593509150505b9250929050565b8061373e576132bc565b60408051828152905133917f925b1add21f66e1e2c8c9e9fffb3e0f4105df02dbd05c280f2fe4d19f5c50be5919081900360200190a2600d5460009061378c90600160a060020a0316613b58565b600a54909150600160a060020a0316639f5fdc9f338385816137aa57fe5b0460046040518463ffffffff1660e060020a0281526004018084600160a060020a0316600160a060020a031681526020018381526020018281526020019350505050600060405180830381600087803b15801561380657600080fd5b505af115801561381a573d6000803e3d6000fd5b505050505050565b600d54600090600160a060020a031661387b57600a54604051349350600160a060020a0390911690819084156108fc029085906000818181858888f19350505050158015613874573d6000803e3d6000fd5b5050613b11565b8115613b1157600d546040805160e060020a6370a082310281523060048201529051600160a060020a039092169160009183916370a0823191602480820192602092909190829003018186803b1580156138d457600080fd5b505afa1580156138e8573d6000803e3d6000fd5b505050506040513d60208110156138fe57600080fd5b5051604080517f23b872dd000000000000000000000000000000000000000000000000000000008152336004820152306024820152604481018790529051919250600160a060020a038416916323b872dd916064808201926020929091908290030181600087803b15801561397257600080fd5b505af1158015613986573d6000803e3d6000fd5b505050506040513d602081101561399c57600080fd5b50506040805160e060020a6370a082310281523060048201529051600091600160a060020a038516916370a0823191602480820192602092909190829003018186803b1580156139eb57600080fd5b505afa1580156139ff573d6000803e3d6000fd5b505050506040513d6020811015613a1557600080fd5b505190508181038514613a72576040805160e560020a62461bcd02815260206004820181905260248201527f736574746c656d656e7420746f6b656e207472616e73666572206572726f7221604482015290519081900360640190fd5b600a54604080517fa9059cbb000000000000000000000000000000000000000000000000000000008152600160a060020a0392831660048201526024810188905290519185169163a9059cbb916044808201926020929091908290030181600087803b158015613ae157600080fd5b505af1158015613af5573d6000803e3d6000fd5b505050506040513d6020811015613b0b57600080fd5b50505050505b613b1a826117c4565b612db85760405160e560020a62461bcd0281526004018080602001828103825260298152602001806144986029913960400191505060405180910390fd5b600854604080517f41976e09000000000000000000000000000000000000000000000000000000008152600160a060020a0384811660048301529151600093849316916341976e09916024808301926020929190829003018186803b1580156135b157600080fd5b816103e8600e54830281613bd057fe5b0410158015613bee5750816103e8600f54830281613bea57fe5b0411155b613c2c5760405160e560020a62461bcd0281526004018080602001828103825260218152602001806144c16021913960400191505060405180910390fd5b5050565b600080613c3b612dd0565b90506000600760019054906101000a9004600160a060020a0316600160a060020a031663dad3eb746040518163ffffffff1660e060020a02815260040160206040518083038186803b158015613c9057600080fd5b505afa158015613ca4573d6000803e3d6000fd5b505050506040513d6020811015613cba57600080fd5b5051905080821015613d16576040805160e560020a62461bcd02815260206004820152601b60248201527f636f6c6c61746572616c20697320696e73756666696369656e74210000000000604482015290519081900360640190fd5b9081900390600060ff85161588881114613d3257858802613d36565b8587025b90506000600960009054906101000a9004600160a060020a0316600160a060020a0316633e77dfd96040518163ffffffff1660e060020a02815260040160206040518083038186803b158015613d8b57600080fd5b505afa158015613d9f573d6000803e3d6000fd5b505050506040513d6020811015613db557600080fd5b5051600954604080517faef890be0000000000000000000000000000000000000000000000000000000081529051929350600092600160a060020a039092169163aef890be91600480820192602092909190829003018186803b158015613e1b57600080fd5b505afa158015613e2f573d6000803e3d6000fd5b505050506040513d6020811015613e4557600080fd5b5051600c549091506103e883830185018202819004918560ff8b1615613e6b5784613e6d565b855b010281613e7657fe5b04935080861015613ed1576040805160e560020a62461bcd02815260206004820152601b60248201527f636f6c6c61746572616c20697320696e73756666696369656e74210000000000604482015290519081900360640190fd5b613edc848288614395565b9b9a5050505050505050505050565b613ef484613822565b93508281026305f5e1008104838281613f0957fe5b0491506000600a60009054906101000a9004600160a060020a0316600160a060020a03166329a4541a8460006040518363ffffffff1660e060020a0281526004018083815260200182815260200192505050602060405180830381600087803b158015613f7557600080fd5b505af1158015613f89573d6000803e3d6000fd5b505050506040513d6020811015613f9f57600080fd5b50519050828101871015613fe75760405160e560020a62461bcd0281526004018080602001828103825260218152602001806145236021913960400191505060405180910390fd5b82810190960395861561407957600a54604080517f26dd86ee000000000000000000000000000000000000000000000000000000008152336004820152602481018a90529051600160a060020a03909216916326dd86ee9160448082019260009290919082900301818387803b15801561406057600080fd5b505af1158015614074573d6000803e3d6000fd5b505050505b600954604080517fbec3107f0000000000000000000000000000000000000000000000000000000081529051600092600160a060020a03169163bec3107f916004808301926020929190829003018186803b1580156140d757600080fd5b505afa1580156140eb573d6000803e3d6000fd5b505050506040513d602081101561410157600080fd5b5051600754604080517f8399d9f3000000000000000000000000000000000000000000000000000000008152336004820152602481018790529051929350610100909104600160a060020a031691638399d9f39160448082019260009290919082900301818387803b15801561417657600080fd5b505af115801561418a573d6000803e3d6000fd5b5050604080518a81526020810188905280820189905290518493503392507f0c7755f31ec76f1a382ae15027362d367e85aa80376bcadbbe0afe3c5dc8bee59181900360600190a35050505050505050565b60008115806141f7575050808202828282816141f457fe5b05145b610cbe5760405160e560020a62461bcd02815260040180806020018281038252602381526020018061444f6023913960400191505060405180910390fd5b6142988280548060200260200160405190810160405280929190818152602001828054801561428d57602002820191906000526020600020905b8154600160a060020a0316815260019091019060200180831161426f575b505050505082613606565b613c2c578154600181018355600083815260209020018054600160a060020a03831673ffffffffffffffffffffffffffffffffffffffff199091161790555050565b600160a060020a0381166143225760405160e560020a62461bcd0281526004018080602001828103825260268152602001806144726026913960400191505060405180910390fd5b60008054604051600160a060020a038085169361010090930416917f8be0079c531659141344cd1fd0a4f28419497f9722a3daafe3b4186f6b6457e091a360008054600160a060020a039092166101000274ffffffffffffffffffffffffffffffffffffffff0019909216919091179055565b60008284600202116143ad5750640100000000610d32565b6000836401000000008602816143bf57fe5b04638000000001905060008385816143d357fe5b049050602060026003848402026801000000000000000060029390930a91900404808002020464010000000001925050509392505050565b81548183558181111561442f5760008381526020902061442f918101908301614434565b505050565b610b3491905b80821115612db8576000815560010161443a56fe53616665496e743235363a206d756c7469706c69636174696f6e206f766572666c6f774f776e61626c653a206e6577206f776e657220697320746865207a65726f2061646472657373696e70757420616d6f756e74206973206f7574206f6620696e70757420616d6f756e742072616e6765737472696b655072696365206973206f7574206f662070726963652072616e6765536166654d6174683a206d756c7469706c69636174696f6e206f766572666c6f774f776e61626c653a2063616c6c6572206973206e6f7420746865206f776e6572736574746c656d656e7420617373657420697320696e73756666696369656e7421416c6c6f77616e636573203a2075736572277320616c6c6f77616e636520697320756e73756666696369656e74215468697320636f6e74726163742069732068616c746564000000000000000000a265627a7a723158208fa84681e4691e25f5db16da2f3a8253dc6d70cd40197a7288f7f654d524cfbc64736f6c63430005100032",
  "source": "pragma solidity =0.5.16;\r\nimport \"../modules/SafeMath.sol\";\r\nimport \"./CollateralCal.sol\";\r\nimport \"../modules/tuple64.sol\";\r\n/**\r\n * @title Options manager contract for finnexus proposal v2.\r\n * @dev A Smart-contract to manage Options pool, collatral pool, mine pool, FPTCoin, etc.\r\n *\r\n */\r\ncontract OptionsManagerV2 is CollateralCal {\r\n    using SafeMath for uint256;\r\n\r\n    /**\r\n    * @dev Options manager constructor. set other contract address\r\n    * @param oracleAddr fnx oracle contract address.\r\n    * @param optionsPriceAddr options price contract address\r\n    * @param optionsPoolAddr optoins pool contract address\r\n    * @param FPTCoinAddr FPTCoin contract address\r\n    */\r\n    constructor (address oracleAddr,address optionsPriceAddr,address optionsPoolAddr,address collateralPoolAddr,address FPTCoinAddr) public{\r\n        _oracle = IFNXOracle(oracleAddr);\r\n        _optionsPrice = IOptionsPrice(optionsPriceAddr);\r\n        _optionsPool = IOptionsPool(optionsPoolAddr);\r\n        _collateralPool = ICollateralPool(collateralPoolAddr);\r\n        _FPTCoin = IFPTCoin(FPTCoinAddr);\r\n    }\r\n    function initialize() onlyOwner public {\r\n        \r\n    }\r\n    function update() onlyOwner public {\r\n        \r\n    }\r\n    /**\r\n    * @dev retrieve input price valid range rate, thousandths.\r\n    */ \r\n    function getPriceRateRange() public view returns(uint256,uint256) {\r\n        return (minPriceRate,maxPriceRate);\r\n    }\r\n    /**\r\n    * @dev set input price valid range rate, thousandths.\r\n    */ \r\n    function setPriceRateRange(uint256 _minPriceRate,uint256 _maxPriceRate) public onlyOwner{\r\n        minPriceRate = _minPriceRate;\r\n        maxPriceRate = _maxPriceRate;\r\n    }\r\n    /**\r\n    * @dev check user input price is in valid range.\r\n    * @param strikePrice user input strikePrice\r\n    * @param underlyingPrice current underlying price.\r\n    */ \r\n    function checkStrikePrice(uint256 strikePrice,uint256 underlyingPrice)internal view{\r\n        require(underlyingPrice*maxPriceRate/1000>=strikePrice && underlyingPrice*minPriceRate/1000<=strikePrice,\r\n                \"strikePrice is out of price range\");\r\n    }\r\n    /**\r\n    * @dev user buy option and create new option.\r\n    * @param settlementAmount amount of settlement user want fo pay.\r\n    * @param strikePrice user input option's strike price\r\n    * @param underlying user input option's underlying id, 1 for BTC,2 for ETH\r\n    * @param expiration user input expiration,time limit from now\r\n    * @param amount user input amount of new option user want to buy.\r\n    * @param optType user input option type\r\n    */ \r\n    function buyOption(uint256 settlementAmount, uint256 strikePrice,uint32 underlying,\r\n                uint256 expiration,uint256 amount,uint8 optType) nonReentrant notHalted InRange(amount) public payable{\r\n        _optionsPool.buyOptionCheck(expiration,underlying);\r\n        uint256 type_ly_expiration = optType+(uint256(underlying)<<64)+(expiration<<128);\r\n        uint256 underlyingPrice = oracleUnderlyingPrice(underlying);\r\n        checkStrikePrice(strikePrice,underlyingPrice);\r\n        uint256 optRate = _getOptionsPriceRate(underlyingPrice,strikePrice,amount,optType);\r\n        uint256 optPrice = _optionsPrice.getOptionsPrice(underlyingPrice,strikePrice,expiration,underlying,optType);\r\n        uint256 settlePrice = oraclePrice(collateral);\r\n        _optionsPool.createOptions(msg.sender,type_ly_expiration,uint128(strikePrice),uint128(underlyingPrice),uint128(amount),uint128(settlePrice));\r\n        optPrice = (optPrice*optRate)>>32;\r\n        buyOption_sub(settlementAmount,optPrice,strikePrice,amount);\r\n    }\r\n    /**\r\n    * @dev subfunction of buy option.\r\n    * @param settlementAmount amount of settlement user want fo pay.\r\n    * @param optionPrice new option's price\r\n    * @param amount user input amount of new option user want to buy.\r\n    */ \r\n    function buyOption_sub(uint256 settlementAmount,\r\n            uint256 optionPrice,uint256 settlePrice,uint256 amount)internal{\r\n        settlementAmount = getPayableAmount(settlementAmount);\r\n        uint256 allPay = amount*optionPrice;\r\n        uint256 allPayUSd = allPay/1e8;\r\n        allPay = allPay/settlePrice;\r\n        uint256 fee = _collateralPool.addTransactionFee(allPay,0);\r\n        require(settlementAmount>=allPay+fee,\"settlement asset is insufficient!\");\r\n        settlementAmount = settlementAmount-(allPay+fee);\r\n        if (settlementAmount > 0){\r\n            _collateralPool.transferPayback(msg.sender,settlementAmount);\r\n        }\r\n        uint256 id =_optionsPool.getOptionInfoLength();\r\n        _FPTCoin.addMinerBalance(msg.sender,allPayUSd);\r\n        emit BuyOption(msg.sender,id,optionPrice,allPay,amount); \r\n    }\r\n    /**\r\n    * @dev User sell option.\r\n    * @param optionsId option's ID which was wanted to sell, must owned by user\r\n    * @param amount user input amount of option user want to sell.\r\n    */ \r\n    function sellOption(uint256 optionsId,uint256 amount) nonReentrant notHalted InRange(amount) public{\r\n        (,,uint8 optType,uint32 underlying,uint256 expiration,uint256 strikePrice,) = _optionsPool.getOptionsById(optionsId);\r\n        expiration = expiration.sub(now);\r\n        uint256 currentPrice = oracleUnderlyingPrice(underlying);\r\n        uint256 optPrice = _optionsPrice.getOptionsPrice(currentPrice,strikePrice,expiration,underlying,optType);\r\n        _optionsPool.burnOptions(msg.sender,optionsId,amount,optPrice);\r\n        uint256 allPay = optPrice*amount;\r\n        uint256 fullPay = _optionsPool.getBurnedFullPay(optionsId,amount);\r\n        _collateralPool.addNetWorthBalance(int256(fullPay));\r\n        _collateralPool.transferPaybackAndFee(msg.sender,allPay,1);\r\n        emit SellOption(msg.sender,optionsId,amount,allPay);\r\n    }\r\n    /**\r\n    * @dev User exercise option.\r\n    * @param optionsId option's ID which was wanted to exercise, must owned by user\r\n    * @param amount user input amount of option user want to exercise.\r\n    */ \r\n    function exerciseOption(uint256 optionsId,uint256 amount) nonReentrant notHalted InRange(amount) public{\r\n        uint256 allPay = _optionsPool.getExerciseWorth(optionsId,amount);\r\n        require(allPay > 0,\"This option cannot exercise\");\r\n        (,,uint8 optType,uint32 underlying,uint256 expiration,uint256 strikePrice,) = _optionsPool.getOptionsById(optionsId);\r\n        expiration = expiration.sub(now);\r\n        uint256 currentPrice = oracleUnderlyingPrice(underlying);\r\n        uint256 optPrice = _optionsPrice.getOptionsPrice(currentPrice,strikePrice,expiration,underlying,optType);\r\n        _optionsPrice.getOptionsPrice(currentPrice,strikePrice,expiration,underlying,optType);\r\n        _optionsPool.burnOptions(msg.sender,optionsId,amount,optPrice);\r\n        uint256 fullPay = _optionsPool.getBurnedFullPay(optionsId,amount);\r\n        _collateralPool.addNetWorthBalance(int256(fullPay));\r\n        _collateralPool.transferPaybackAndFee(msg.sender,allPay,2);\r\n        emit ExerciseOption(msg.sender,optionsId,amount,allPay);\r\n    }\r\n    function getOptionsPrice(uint256 underlyingPrice, uint256 strikePrice, uint256 expiration,\r\n                    uint32 underlying,uint256 amount,uint8 optType) public view returns(uint256){  \r\n        uint256 buyOccupied = calOptionsOccupied(strikePrice,underlyingPrice,amount,optType);\r\n        require(getAvailableCollateral()>=buyOccupied,\"collateral is insufficient!\");\r\n        uint256 optPrice = _optionsPrice.getOptionsPrice(underlyingPrice,strikePrice,expiration,underlying,optType);\r\n        uint256 selfOccupied = optType == 0 ? _optionsPool.getCallTotalOccupiedCollateral() : _optionsPool.getPutTotalOccupiedCollateral();\r\n        selfOccupied = calculateCollateral(selfOccupied) + buyOccupied;\r\n        uint256 totalOccupied = getOccupiedCollateral() + buyOccupied;\r\n        uint256 totalCollateral = getUnlockedCollateral();\r\n        uint256 ratio = _optionsPrice.calOptionsPriceRatio(selfOccupied,totalOccupied,totalCollateral);\r\n        return (optPrice*ratio)>>32;\r\n    }\r\n    function _getOptionsPriceRate(uint256 underlyingPrice, uint256 strikePrice,uint256 amount,uint8 optType) internal view returns(uint256){\r\n        uint256 totalCollateral = getUnlockedCollateral();\r\n        uint256 lockedWorth = _FPTCoin.getTotalLockedWorth();\r\n        require(totalCollateral>=lockedWorth,\"collateral is insufficient!\");\r\n        totalCollateral = totalCollateral - lockedWorth;\r\n        uint256 buyOccupied = ((optType == 0) == (strikePrice>underlyingPrice)) ? strikePrice*amount:underlyingPrice*amount;\r\n        uint256 callCollateral = _optionsPool.getCallTotalOccupiedCollateral();\r\n        uint256 putCollateral = _optionsPool.getPutTotalOccupiedCollateral();\r\n        uint256 totalOccupied = (callCollateral + putCollateral + buyOccupied)*collateralRate/1000;\r\n        buyOccupied = ((optType == 0 ? callCollateral : putCollateral) + buyOccupied)*collateralRate/1000;\r\n        require(totalCollateral>=totalOccupied,\"collateral is insufficient!\");\r\n        return calOptionsPriceRatio(buyOccupied,totalOccupied,totalCollateral);\r\n    }\r\n    function calOptionsPriceRatio(uint256 selfOccupied,uint256 totalOccupied,uint256 totalCollateral) internal pure returns (uint256){\r\n        //r1 + 0.5\r\n        if (selfOccupied*2<=totalOccupied){\r\n            return 4294967296;\r\n        }\r\n        uint256 r1 = (selfOccupied<<32)/totalOccupied+2147483648;\r\n        uint256 r2 = totalOccupied/totalCollateral;\r\n        //r1*r2*1.5\r\n        r1 = (r1*r2*3/2)>>32;\r\n        return ((r1*r1*r1)>>64)+4294967296;\r\n    //        return SmallNumbers.pow(r1,r2);\r\n    }\r\n}\r\n",
  "sourcePath": "C:\\work\\solidity\\finnexusOptions_V2.1\\contracts\\OptionsManager\\OptionsManagerV2.sol",
  "compiler": {
    "name": "solc",
    "version": "0.5.16+commit.9c3226ce.Emscripten.clang"
  },
  "schemaVersion": "3.1.0",
  "updatedAt": "2020-10-24T10:45:23.302Z",
  "devdoc": {
    "details": "A Smart-contract to manage Options pool, collatral pool, mine pool, FPTCoin, etc.  ",
    "methods": {
      "addCollateral(uint256)": {
        "details": "Deposit collateral in this pool from user.",
        "params": {
          "amount": "the amount of collateral to deposit."
        }
      },
      "addWhiteList(address)": {
        "details": "Implementation of add an eligible address into the whitelist.",
        "params": {
          "addAddress": "new eligible address."
        }
      },
      "buyOption(uint256,uint256,uint32,uint256,uint256,uint8)": {
        "details": "user buy option and create new option.",
        "params": {
          "amount": "user input amount of new option user want to buy.",
          "expiration": "user input expiration,time limit from now",
          "optType": "user input option type",
          "settlementAmount": "amount of settlement user want fo pay.",
          "strikePrice": "user input option's strike price",
          "underlying": "user input option's underlying id, 1 for BTC,2 for ETH"
        }
      },
      "calOptionsOccupied(uint256,uint256,uint256,uint8)": {
        "details": "The auxiliary function for calculate option occupied. ",
        "params": {
          "amount": "option's amount",
          "optType": "option's type, 0 for call, 1 for put.",
          "strikePrice": "option's strike price",
          "underlyingPrice": "option's underlying price"
        }
      },
      "constructor": {
        "details": "Options manager constructor. set other contract address",
        "params": {
          "FPTCoinAddr": "FPTCoin contract address",
          "optionsPoolAddr": "optoins pool contract address",
          "optionsPriceAddr": "options price contract address",
          "oracleAddr": "fnx oracle contract address."
        }
      },
      "exerciseOption(uint256,uint256)": {
        "details": "User exercise option.",
        "params": {
          "amount": "user input amount of option user want to exercise.",
          "optionsId": "option's ID which was wanted to exercise, must owned by user"
        }
      },
      "getAvailableCollateral()": {
        "details": "Retrieve the available collateral worth, the worth of collateral which can used for buy options, priced in USD. "
      },
      "getInputAmountRange()": {
        "details": "get the valid range of input amount"
      },
      "getLeftCollateral()": {
        "details": "Retrieve the left collateral worth, the worth of collateral which can used for redeem collateral, priced in USD. "
      },
      "getOccupiedCollateral()": {
        "details": "Retrieve the occupied collateral worth, multiplied by minimum collateral rate, priced in USD. "
      },
      "getPriceRateRange()": {
        "details": "retrieve input price valid range rate, thousandths."
      },
      "getRealBalance()": {
        "details": "Retrieve the balance of collateral, the auxiliary function for the total collateral calculation. "
      },
      "getTokenNetworth()": {
        "details": "Retrieve FPTCoin's net worth, priced in USD."
      },
      "getTotalCollateral()": {
        "details": "Retrieve the total collateral worth, priced in USD. "
      },
      "getUnlockedCollateral()": {
        "details": "Retrieve the unlocked collateral worth, the worth of collateral which currently used for options, priced in USD. "
      },
      "getUserTotalWorth(address)": {
        "details": "Retrieve user's current total worth, priced in USD.",
        "params": {
          "account": "input retrieve account"
        }
      },
      "getWhiteList()": {
        "details": "Implementation of getting the eligible whitelist."
      },
      "isEligibleAddress(address)": {
        "details": "Implementation of testing whether the input address is eligible.",
        "params": {
          "tmpAddress": "input address for testing."
        }
      },
      "isInputAmountInRange(uint256)": {
        "details": "Determine whether the input amount is within the valid range",
        "params": {
          "Amount": "Test value which is user input"
        }
      },
      "isOwner()": {
        "details": "Returns true if the caller is the current owner."
      },
      "owner()": {
        "details": "Returns the address of the current owner."
      },
      "redeemCollateral(uint256,address)": {
        "details": "redeem collateral from this pool, user can input the prioritized collateral,he will get this coin, if this coin is unsufficient, he will get others collateral which in whitelist.",
        "params": {
          "tokenAmount": "the amount of FPTCoin want to redeem."
        }
      },
      "removeWhiteList(address)": {
        "details": "Implementation of revoke an invalid address from the whitelist.",
        "params": {
          "removeAddress": "revoked address."
        }
      },
      "renounceOwnership()": {
        "details": "Leaves the contract without owner. It will not be possible to call `onlyOwner` functions anymore. Can only be called by the current owner.      * NOTE: Renouncing ownership will leave the contract without an owner, thereby removing any functionality that is only available to the owner."
      },
      "sellOption(uint256,uint256)": {
        "details": "User sell option.",
        "params": {
          "amount": "user input amount of option user want to sell.",
          "optionsId": "option's ID which was wanted to sell, must owned by user"
        }
      },
      "setInputAmountRange(uint256,uint256)": {
        "details": "set the valid range of input amount",
        "params": {
          "_maxAmount": "the maximum input amount limit",
          "_minAmount": "the minimum input amount limit"
        }
      },
      "setPriceRateRange(uint256,uint256)": {
        "details": "set input price valid range rate, thousandths."
      },
      "transferOwnership(address)": {
        "details": "Transfers ownership of the contract to a new account (`newOwner`). Can only be called by the current owner."
      }
    },
    "title": "Options manager contract for finnexus proposal v2."
  },
  "userdoc": {
    "methods": {
      "approve(address,uint256)": {
        "notice": "     * Requirements:      * - `spender` cannot be the zero address."
      },
      "setHalt(bool)": {
        "notice": "function Emergency situation that requires contribution period to stop or not."
      }
    }
  }
}