{
  "contractName": "OptionsPriceOld",
  "abi": [
    {
      "inputs": [
        {
          "internalType": "address",
          "name": "ivContract",
          "type": "address"
        }
      ],
      "payable": false,
      "stateMutability": "nonpayable",
      "type": "constructor"
    },
    {
      "anonymous": false,
      "inputs": [
        {
          "indexed": true,
          "internalType": "address",
          "name": "previousOwner",
          "type": "address"
        },
        {
          "indexed": true,
          "internalType": "address",
          "name": "newOwner",
          "type": "address"
        }
      ],
      "name": "OwnershipTransferred",
      "type": "event"
    },
    {
      "constant": true,
      "inputs": [],
      "name": "getVolatilityAddress",
      "outputs": [
        {
          "internalType": "address",
          "name": "",
          "type": "address"
        }
      ],
      "payable": false,
      "stateMutability": "view",
      "type": "function"
    },
    {
      "constant": true,
      "inputs": [],
      "name": "isOwner",
      "outputs": [
        {
          "internalType": "bool",
          "name": "",
          "type": "bool"
        }
      ],
      "payable": false,
      "stateMutability": "view",
      "type": "function"
    },
    {
      "constant": true,
      "inputs": [],
      "name": "owner",
      "outputs": [
        {
          "internalType": "address",
          "name": "",
          "type": "address"
        }
      ],
      "payable": false,
      "stateMutability": "view",
      "type": "function"
    },
    {
      "constant": false,
      "inputs": [],
      "name": "renounceOwnership",
      "outputs": [],
      "payable": false,
      "stateMutability": "nonpayable",
      "type": "function"
    },
    {
      "constant": false,
      "inputs": [
        {
          "internalType": "address",
          "name": "volatility",
          "type": "address"
        }
      ],
      "name": "setVolatilityAddress",
      "outputs": [],
      "payable": false,
      "stateMutability": "nonpayable",
      "type": "function"
    },
    {
      "constant": false,
      "inputs": [
        {
          "internalType": "address",
          "name": "newOwner",
          "type": "address"
        }
      ],
      "name": "transferOwnership",
      "outputs": [],
      "payable": false,
      "stateMutability": "nonpayable",
      "type": "function"
    },
    {
      "constant": true,
      "inputs": [],
      "name": "getRate",
      "outputs": [
        {
          "internalType": "int256",
          "name": "",
          "type": "int256"
        },
        {
          "internalType": "int256",
          "name": "",
          "type": "int256"
        }
      ],
      "payable": false,
      "stateMutability": "view",
      "type": "function"
    },
    {
      "constant": false,
      "inputs": [
        {
          "internalType": "int256",
          "name": "numerator",
          "type": "int256"
        },
        {
          "internalType": "int256",
          "name": "denominator",
          "type": "int256"
        }
      ],
      "name": "setRate",
      "outputs": [],
      "payable": false,
      "stateMutability": "nonpayable",
      "type": "function"
    },
    {
      "constant": true,
      "inputs": [],
      "name": "getRatioR2",
      "outputs": [
        {
          "internalType": "int256",
          "name": "",
          "type": "int256"
        },
        {
          "internalType": "int256",
          "name": "",
          "type": "int256"
        }
      ],
      "payable": false,
      "stateMutability": "view",
      "type": "function"
    },
    {
      "constant": false,
      "inputs": [
        {
          "internalType": "int256",
          "name": "numerator",
          "type": "int256"
        },
        {
          "internalType": "int256",
          "name": "denominator",
          "type": "int256"
        }
      ],
      "name": "setRatioR2",
      "outputs": [],
      "payable": false,
      "stateMutability": "nonpayable",
      "type": "function"
    },
    {
      "constant": true,
      "inputs": [
        {
          "internalType": "uint256",
          "name": "currentPrice",
          "type": "uint256"
        },
        {
          "internalType": "uint256",
          "name": "strikePrice",
          "type": "uint256"
        },
        {
          "internalType": "uint256",
          "name": "expiration",
          "type": "uint256"
        },
        {
          "internalType": "uint32",
          "name": "underlying",
          "type": "uint32"
        },
        {
          "internalType": "uint8",
          "name": "optType",
          "type": "uint8"
        }
      ],
      "name": "getOptionsPrice",
      "outputs": [
        {
          "internalType": "uint256",
          "name": "",
          "type": "uint256"
        }
      ],
      "payable": false,
      "stateMutability": "view",
      "type": "function"
    },
    {
      "constant": true,
      "inputs": [
        {
          "internalType": "uint256",
          "name": "currentPrice",
          "type": "uint256"
        },
        {
          "internalType": "uint256",
          "name": "strikePrice",
          "type": "uint256"
        },
        {
          "internalType": "uint256",
          "name": "expiration",
          "type": "uint256"
        },
        {
          "internalType": "uint256",
          "name": "ivNumerator",
          "type": "uint256"
        },
        {
          "internalType": "uint8",
          "name": "optType",
          "type": "uint8"
        }
      ],
      "name": "getOptionsPrice_iv",
      "outputs": [
        {
          "internalType": "uint256",
          "name": "",
          "type": "uint256"
        }
      ],
      "payable": false,
      "stateMutability": "view",
      "type": "function"
    },
    {
      "constant": true,
      "inputs": [
        {
          "internalType": "uint256",
          "name": "selfOccupied",
          "type": "uint256"
        },
        {
          "internalType": "uint256",
          "name": "totalOccupied",
          "type": "uint256"
        },
        {
          "internalType": "uint256",
          "name": "totalCollateral",
          "type": "uint256"
        }
      ],
      "name": "calOptionsPriceRatio",
      "outputs": [
        {
          "internalType": "uint256",
          "name": "",
          "type": "uint256"
        },
        {
          "internalType": "uint256",
          "name": "",
          "type": "uint256"
        }
      ],
      "payable": false,
      "stateMutability": "view",
      "type": "function"
    }
  ],
  "bytecode": "0x600060808190526103e860a0819052600291909155600355610100604052600460c0819052600160e081905290805560055534801561003d57600080fd5b5060405162001c3938038062001c398339818101604052602081101561006257600080fd5b505160008054600160a060020a0319163317808255604051600160a060020a039190911691907f8be0079c531659141344cd1fd0a4f28419497f9722a3daafe3b4186f6b6457e0908290a36100bf816401000000006100c5810204565b50610174565b6100d6640100000000610163810204565b61014157604080517f08c379a000000000000000000000000000000000000000000000000000000000815260206004820181905260248201527f4f776e61626c653a2063616c6c6572206973206e6f7420746865206f776e6572604482015290519081900360640190fd5b60018054600160a060020a031916600160a060020a0392909216919091179055565b600054600160a060020a0316331490565b611ab580620001846000396000f3fe608060405234801561001057600080fd5b50600436106100ec576000357c010000000000000000000000000000000000000000000000000000000090048063715018a6116100a9578063ad66ba7611610083578063ad66ba7614610235578063bfe402f41461023d578063f22f254314610260578063f2fde38b14610289576100ec565b8063715018a6146102095780638da5cb5b146102115780638f32d59b14610219576100ec565b80632967eafe146100f157806342e5479d146101195780634b7d8e5c1461013d5780634d6d21001461018d57806362df80ce146101b0578063679aefce146101e8575b600080fd5b6101176004803603602081101561010757600080fd5b5035600160a060020a03166102af565b005b610121610328565b60408051600160a060020a039092168252519081900360200190f35b61017b600480360360a081101561015357600080fd5b50803590602081013590604081013590606081013563ffffffff16906080013560ff16610337565b60408051918252519081900360200190f35b610117600480360360408110156101a357600080fd5b50803590602001356104ce565b61017b600480360360a08110156101c657600080fd5b508035906020810135906040810135906060810135906080013560ff16610523565b6101f06105fe565b6040805192835260208301919091528051918290030190f35b610117610608565b6101216106a9565b6102216106b8565b604080519115158252519081900360200190f35b6101f06106c9565b6101176004803603604081101561025357600080fd5b50803590602001356106d3565b6101f06004803603606081101561027657600080fd5b5080359060208101359060400135610728565b6101176004803603602081101561029f57600080fd5b5035600160a060020a03166107cf565b6102b76106b8565b6102f9576040805160e560020a62461bcd0281526020600482018190526024820152600080516020611a30833981519152604482015290519081900360640190fd5b6001805473ffffffffffffffffffffffffffffffffffffffff1916600160a060020a0392909216919091179055565b600154600160a060020a031690565b600154604080517f185d123200000000000000000000000000000000000000000000000000000000815263ffffffff8516600482015260ff8416602482015260448101869052606481018890526084810187905290516000928392600160a060020a039091169163185d12329160a480820192602092909190829003018186803b1580156103c457600080fd5b505afa1580156103d8573d6000803e3d6000fd5b505050506040513d60208110156103ee57600080fd5b505190506103fa6119c2565b50604080518082019091528181526305f5e100602082015260ff841661044a5760408051808201909152600254815260035460208201526104419089908990899085610825565b925050506104c5565b8360ff166001141561047d57604080518082019091526002548152600354602082015261044190899089908990856108f9565b60028460ff16106104c25760405160e560020a62461bcd028152600401808060200182810382526031815260200180611a506031913960400191505060405180910390fd5b50505b95945050505050565b6104d66106b8565b610518576040805160e560020a62461bcd0281526020600482018190526024820152600080516020611a30833981519152604482015290519081900360640190fd5b600491909155600555565b600061052d6119c2565b50604080518082019091528381526305f5e100602082015260ff831661057c5760408051808201909152600254815260035460208201526105749088908890889085610825565b9150506104c5565b8260ff16600114156105af57604080518082019091526002548152600354602082015261057490889088908890856108f9565b60028360ff16106105f45760405160e560020a62461bcd028152600401808060200182810382526031815260200180611a506031913960400191505060405180910390fd5b5095945050505050565b6002546003549091565b6106106106b8565b610652576040805160e560020a62461bcd0281526020600482018190526024820152600080516020611a30833981519152604482015290519081900360640190fd5b60008054604051600160a060020a03909116907f8be0079c531659141344cd1fd0a4f28419497f9722a3daafe3b4186f6b6457e0908390a36000805473ffffffffffffffffffffffffffffffffffffffff19169055565b600054600160a060020a031690565b600054600160a060020a0316331490565b6004546005549091565b6106db6106b8565b61071d576040805160e560020a62461bcd0281526020600482018190526024820152600080516020611a30833981519152604482015290519081900360640190fd5b600291909155600355565b600080838560020211610740575060019050806107c7565b6107486119c2565b50604080518082019091526002808702860182528502602082015261076b6119c2565b6040805180820182526004548152600554602080830191909152825180840190935288835282018790526107a5919063ffffffff6109b716565b90506107b7828263ffffffff6109d816565b8051602090910151909450925050505b935093915050565b6107d76106b8565b610819576040805160e560020a62461bcd0281526020600482018190526024820152600080516020611a30833981519152604482015290519081900360640190fd5b610822816109fd565b50565b600061082f6119c2565b6108376119c2565b6108448888888888610aad565b9150915061085182610be2565b915061085c81610be2565b825189028352805188028152855190915061088857610881828263ffffffff610e3616565b91506108de565b604080518082019091528681526301e1338060208201526108b090869063ffffffff6109b716565b94506108db6108ce6108c187610e4b565b839063ffffffff610eac16565b839063ffffffff610e3616565b91505b60208201518251816108ec57fe5b0598975050505050505050565b60006109036119c2565b61090b6119c2565b6109188888888888610aad565b9150915061092582610be2565b915061093081610be2565b8251602080850151919091038a0284528151908201510388028152855190915061096457610881818363ffffffff610e3616565b604080518082019091528681526301e13380602082015261098c90869063ffffffff6109b716565b94506108db826109ab61099e88610e4b565b849063ffffffff610eac16565b9063ffffffff610e3616565b6109bf6119c2565b6109d16109cc8484610ec1565b610eef565b9392505050565b6109e06119c2565b6109f26109ec84610fa6565b836109b7565b92506109d183610e4b565b600160a060020a038116610a455760405160e560020a62461bcd028152600401808060200182810382526026815260200180611a0a6026913960400191505060405180910390fd5b60008054604051600160a060020a03808516939216917f8be0079c531659141344cd1fd0a4f28419497f9722a3daafe3b4186f6b6457e091a36000805473ffffffffffffffffffffffffffffffffffffffff1916600160a060020a0392909216919091179055565b610ab56119c2565b610abd6119c2565b610ac56119c2565b868814610ae657610ae1610ad888610ff3565b6109ab8a610ff3565b610afe565b60405180604001604052806000815260200160018152505b9050610b086119c2565b610b18858063ffffffff6109b716565b60208101805160020290529050610b35818763ffffffff61102d16565b9050610b6260405180604001604052808981526020016301e13380815250826109b790919063ffffffff16565b9050610b74828263ffffffff61102d16565b9150610bae856040518060400160405280610b958b6402540be40002611042565b8152632178ddce6020909101529063ffffffff6109b716565b9050610bc0828263ffffffff610eac16565b9150610bd2828263ffffffff610e3616565b9199919850909650505050505050565b610bea6119c2565b6000610bf583611079565b90508015610c0957610c068361108c565b92505b60008360200151846000015181610c1c57fe5b059050600a811315610c6a5781610c49576040518060400160405280600181526020016001815250610c61565b60405180604001604052806000815260200160018152505b92505050610e31565b610c726119dc565b506040805160e0810182526301e7566960a082019081526305f5e10060c0830152815281518083018352631540bb45198152633b9aca0060208281018290528084019290925283518085018552636a2f323181528083018290528385015283518085018552636c8e292919815280830182905260608401528351808501909452634f4a607d8452908301526080810191909152610d0d6119c2565b610d31866040518060400160405280622358838152602001629896808152506109b7565b602081015181510181529050610d46816110c3565b9050610d5286876109b7565b6020810180516001190290529550610d6986610e4b565b9550610d9b6040518060400160405280680229a4c508a92ae7d1815260200168056bc75e2d63100000815250876109b7565b9550610da56119c2565b50604080518082019091526000815260016020820152610dc36119c2565b508160005b6005811015610e0a57610df483610def878460058110610de457fe5b6020020151856109b7565b61102d565b9250610e0082856109b7565b9150600101610dc8565b50610e1588836109b7565b975085610e2757875160208901510388525b8796505050505050505b919050565b610e3e6119c2565b6109d16109cc84846110e9565b610e536119c2565b6000610e5e83611079565b90508015610e7257610e6f8361108c565b92505b610e7b83610eef565b80516401000000000281529250610e9183611125565b92508015610ea557610ea2836110c3565b92505b5090919050565b610eb46119c2565b6109d16109cc84846111f8565b610ec96119c2565b506040805180820190915281518351028152602091820151928201519092029082015290565b610ef76119c2565b60008083600001511215610f0f578251600003610f12565b82515b905060008084602001511215610f2f578360200151600003610f35565b83602001515b905081811315610f7e576f01000000000000000000000000000000811315610f79576050815b60029190910a6000808312900391821804189150610c618483611226565b610f9e565b6f01000000000000000000000000000000821315610f9e57605082610f5b565b509192915050565b610fae6119c2565b60208201518251600091906401000000000281610fc757fe5b0590506040518060400160405280610fde836112be565b81526401000000006020909101529392505050565b610ffb6119c2565b604080518082019091526401000000009092029180611019846112be565b815264010000000060209091015292915050565b6110356119c2565b6109d16109cc8484611344565b80600260018201045b818110156110735780915060028182858161106257fe5b04018161106b57fe5b04905061104b565b50919050565b6020810151905160009182139113141590565b6110946119c2565b8151600013156110a657815160000382525b6000826020015112156110bf5760208201805160000390525b5090565b6110cb6119c2565b50604080518082019091526020808301518252825190820152919050565b6110f16119c2565b5060408051808201909152602080840180518451858401805188519290930291909202038452519051029082015292915050565b61112d6119c2565b6000826020015183600001518161114057fe5b05905064386bfdba298111156111cd576111586119c2565b6040518060400160405280600286600001518161117157fe5b05815260208681015191015290506111876119c2565b506040805180820190915281518551038152602080860151908201526111ac82611125565b91506111b781611125565b90506111c382826109b7565b9350505050610e31565b60405180604001604052806111e18361137d565b81526401000000006020909101529150610e319050565b6112006119c2565b506040805180820190915260208281015184510282529151928201519092029082015290565b61122e6119c2565b81836020015113611289576040805160e560020a62461bcd02815260206004820152601b60248201527f6672616374696f6e206e756d626572206973206f766572666c6f770000000000604482015290519081900360640190fd5b6040518060400160405280838560000151816112a157fe5b058152602001838560200151816112b457fe5b0590529392505050565b600064010000000082101561131d576040805160e560020a62461bcd02815260206004820181905260248201527f6c6f67652066756e6374696f6e20696e70757420697320746f6f20736d616c6c604482015290519081900360640190fd5b6000611328836113eb565b67010000000000000066b17217f7d1cf78909102049392505050565b61134c6119c2565b5060408051808201909152602080840180518451858401805188510291909202018452519051029082015292915050565b600064386bfdba298211156113dc576040805160e560020a62461bcd02815260206004820152601e60248201527f6578702066756e6374696f6e20696e707574206973206f766572666c6f770000604482015290519081900360640190fd5b6113e5826114b8565b92915050565b600064010000000082101561144a576040805160e560020a62461bcd02815260206004820152601760248201527f4c6f673220696e70757420697320746f6f20736d616c6c000000000000000000604482015290519081900360640190fd5b60005b640200000000831061146b576002909204916401000000000161144d565b60005b602060ff821610156114b15764010000000084800204935064020000000084106114a9576002938490049360ff601f83900316900a91909101905b60010161146e565b5092915050565b600080602060ff1660019060020a0290506000816fde1bc4d19efcac82445da75b00000000029050602060ff16848302908060020a82049150509150816fde1bc4d19efcb00000000000000000000281019050602060ff16848302908060020a82049150509150816f6f0de268cf7e580000000000000000000281019050602060ff16848302908060020a82049150509150816f2504a0cd9a7f720000000000000000000281019050602060ff16848302908060020a82049150509150816f09412833669fdc8000000000000000000281019050602060ff16848302908060020a82049150509150816f01d9d4d714865f5000000000000000000281019050602060ff16848302908060020a82049150509150816e4ef8ce836bba8c00000000000000000281019050602060ff16848302908060020a82049150509150816e0b481d807d1aa680000000000000000281019050602060ff16848302908060020a82049150509150816e016903b00fa354d0000000000000000281019050602060ff16848302908060020a82049150509150816d281cdaac677b34000000000000000281019050602060ff16848302908060020a82049150509150816d0402e2aad725eb800000000000000281019050602060ff16848302908060020a82049150509150816c5d5a6c9f31fe240000000000000281019050602060ff16848302908060020a82049150509150816c07c7890d442a830000000000000281019050602060ff16848302908060020a82049150509150816b9931ed5403452800000000000281019050602060ff16848302908060020a82049150509150816b0af147cf24ce1500000000000281019050602060ff16848302908060020a82049150509150816abac08546b867d0000000000281019050602060ff16848302908060020a82049150509150816a0bac08546b867d000000000281019050602060ff16848302908060020a820491505091508169afc441338061b80000000281019050602060ff16848302908060020a82049150509150816909c3cabbc0056e0000000281019050602060ff16848302908060020a820491505091508168839168328705c800000281019050602060ff16848302908060020a8204915050915081680694120286c04a00000281019050602060ff16848302908060020a82049150509150816750319e98b3d2c4000281019050602060ff16848302908060020a82049150509150816703a52a1e36b820200281019050602060ff16848302908060020a820491505091508166289286e0fce0020281019050602060ff16848302908060020a82049150509150816601b0c59eb534000281019050602060ff16848302908060020a820491505091508165114f95b554000281019050602060ff16848302908060020a820491505091508164aa7210d2000281019050602060ff16848302908060020a82049150509150816406501396000281019050602060ff16848302908060020a82049150509150816339b78e800281019050602060ff16848302908060020a82049150509150816301fd80800281019050602060ff16848302908060020a82049150509150816210fbc00281019050602060ff16848302908060020a8204915050915081618c400281019050602060ff16848302908060020a82049150509150816104620281019050602060ff16848302908060020a8204915050915081602202810190506fde1bc4d19efcac82445da75b0000000081816119b957fe5b04949350505050565b604051806040016040528060008152602001600081525090565b6040518060a001604052806005905b6119f36119c2565b8152602001906001900390816119eb579050509056fe4f776e61626c653a206e6577206f776e657220697320746865207a65726f20616464726573734f776e61626c653a2063616c6c6572206973206e6f7420746865206f776e6572204d75737420696e707574203020666f722063616c6c206f7074696f6e206f72203120666f7220707574206f7074696f6ea265627a7a723158200b148c540370cfeb10bdf9edea6ba83d4bf2871ea711f2b8caf79f25a0f30e5664736f6c63430005100032",
  "source": "pragma solidity =0.5.16;\r\n\r\nimport \"./modules/Ownable.sol\";\r\nimport \"./modules/Fraction.sol\";\r\nimport \"./interfaces/IVolatility.sol\";\r\n/**\r\n * @title Options price calculation contract.\r\n * @dev calculate options' price, using B-S formulas.\r\n *\r\n */\r\ncontract OptionsPriceOld is ImportVolatility{\r\n    using Fraction for Fraction.fractionNumber;\r\n    // one year seconds\r\n    int256 constant internal Year = 365 days;\r\n    // constant value in B-S formulas.\r\n    int256 constant internal YearSqrt = 561569230;\r\n    // rate in B-S formulas.\r\n    Fraction.fractionNumber internal rate = Fraction.fractionNumber(0,1000);\r\n\r\n    Fraction.fractionNumber internal ratioR2 = Fraction.fractionNumber(4,1);\r\n    /**\r\n     * @dev constructor function , setting contract address.\r\n     * @param ivContract implied volatility contract address\r\n     */  \r\n    constructor (address ivContract) public{\r\n        setVolatilityAddress(ivContract);\r\n    }\r\n\r\n    /**\r\n     * @dev get B_S formulas r\r\n     */\r\n    function getRate()public view returns(int256,int256){\r\n        return (rate.numerator,rate.denominator);\r\n    }\r\n    /**\r\n     * @dev set B_S formulas r\r\n     */\r\n    function setRate(int256 numerator,int256 denominator)public onlyOwner{\r\n        rate.numerator = numerator;\r\n        rate.denominator = denominator;\r\n    }\r\n        /**\r\n     * @dev get options price ratio for R2\r\n     */\r\n    function getRatioR2()public view returns(int256,int256){\r\n        return (ratioR2.numerator,ratioR2.denominator);\r\n    }\r\n    /**\r\n     * @dev set options price ratio for R2\r\n     */\r\n    function setRatioR2(int256 numerator,int256 denominator)public onlyOwner{\r\n        ratioR2.numerator = numerator;\r\n        ratioR2.denominator = denominator;\r\n    }\r\n    /**\r\n     * @dev calculate option's price using B_S formulas\r\n     * @param currentPrice current underlying price.\r\n     * @param strikePrice option's strike price.\r\n     * @param expiration option's expiration left time. Equal option's expiration timestamp - now.\r\n     * @param underlying option's underlying id, 1 for BTC, 2 for ETH.\r\n     * @param optType option's type, 0 for CALL, 2 for PUT.\r\n     */\r\n    function getOptionsPrice(uint256 currentPrice, uint256 strikePrice, uint256 expiration,uint32 underlying,uint8 optType)public view returns (uint256){\r\n        uint256 ivNumerator = _volatility.calculateIv(underlying,optType,expiration,currentPrice,strikePrice);\r\n        Fraction.fractionNumber memory _iv = Fraction.fractionNumber(int256(ivNumerator),1e8);\r\n        if (optType == 0) {\r\n            return callOptionsPrice(currentPrice,strikePrice,expiration,rate,_iv);\r\n        }else if (optType == 1){\r\n            return putOptionsPrice(currentPrice,strikePrice,expiration,rate,_iv);\r\n        }else{\r\n            require(optType<2,\" Must input 0 for call option or 1 for put option\");\r\n        }\r\n    }\r\n    /**\r\n     * @dev calculate option's price using B_S formulas with user input iv.\r\n     * @param currentPrice current underlying price.\r\n     * @param strikePrice option's strike price.\r\n     * @param expiration option's expiration left time. Equal option's expiration timestamp - now.\r\n     * @param ivNumerator user input iv numerator.\r\n     * @param optType option's type, 0 for CALL, 2 for PUT.\r\n     */\r\n    function getOptionsPrice_iv(uint256 currentPrice, uint256 strikePrice, uint256 expiration,\r\n            uint256 ivNumerator,uint8 optType)public view returns (uint256){\r\n        Fraction.fractionNumber memory _iv = Fraction.fractionNumber(int256(ivNumerator),1e8);\r\n        if (optType == 0) {\r\n            return callOptionsPrice(currentPrice,strikePrice,expiration,rate,_iv);\r\n        }else if (optType == 1){\r\n            return putOptionsPrice(currentPrice,strikePrice,expiration,rate,_iv);\r\n        }else{\r\n            require(optType<2,\" Must input 0 for call option or 1 for put option\");\r\n        }\r\n    }\r\n    /**\r\n     * @dev An auxiliary function, calculate parameter d1 and d2 in B_S formulas.\r\n     * @param currentPrice current underlying price.\r\n     * @param strikePrice option's strike price.\r\n     * @param expiration option's expiration left time. Equal option's expiration timestamp - now.\r\n     * @param r parameter r in B_S formulas.\r\n     * @param derta implied volatility value in B-S formulas.\r\n     */\r\n    function calculateD1D2(uint256 currentPrice, uint256 strikePrice, uint256 expiration,\r\n         Fraction.fractionNumber memory r, Fraction.fractionNumber memory derta) \r\n            internal pure returns (Fraction.fractionNumber memory, Fraction.fractionNumber memory) {\r\n        Fraction.fractionNumber memory d1 = (currentPrice == strikePrice) ? Fraction.fractionNumber(0,1) :\r\n            Fraction.ln(currentPrice).sub(Fraction.ln(strikePrice));\r\n        Fraction.fractionNumber memory derta2 = derta.mul(derta);\r\n        derta2.denominator = derta2.denominator*2;\r\n        derta2 = derta2.add(r);\r\n        derta2 = derta2.mul(Fraction.fractionNumber(int256(expiration),Year));\r\n        d1 = d1.add(derta2);\r\n        derta2 = Fraction.fractionNumber(int256(Fraction.sqrt(expiration*1e10)),YearSqrt).mul(derta);\r\n        d1 = d1.div(derta2);\r\n        derta2 = d1.sub(derta2);\r\n        return (d1, derta2);\r\n    }\r\n    /**\r\n     * @dev An auxiliary function, calculate put option price using B_S formulas.\r\n     * @param currentPrice current underlying price.\r\n     * @param strikePrice option's strike price.\r\n     * @param expiration option's expiration left time. Equal option's expiration timestamp - now.\r\n     * @param r parameter r in B_S formulas.\r\n     * @param derta implied volatility value in B-S formulas.\r\n     */\r\n    //L*pow(e,-rT)*(1-N(d2)) - S*(1-N(d1))\r\n    function putOptionsPrice(uint256 currentPrice, uint256 strikePrice, uint256 expiration,\r\n            Fraction.fractionNumber memory r, Fraction.fractionNumber memory derta) \r\n                internal pure returns (uint256) {\r\n       (Fraction.fractionNumber memory d1, Fraction.fractionNumber memory d2) = calculateD1D2(currentPrice, strikePrice, expiration, r, derta);\r\n        d1 = d1.normsDist();\r\n        d2 = d2.normsDist();\r\n        d1.numerator = (d1.denominator - d1.numerator)*int256(currentPrice);\r\n        d2.numerator = (d2.denominator - d2.numerator)*int256(strikePrice);\r\n        if (r.numerator == 0){\r\n            d1 = d2.sub(d1);\r\n        }else{\r\n            r = r.mul(Fraction.fractionNumber(int256(expiration),Year));\r\n    //        r = r.exp().invert();\r\n            d1 = d2.div(r.exp()).sub(d1);\r\n        }\r\n        return uint256(d1.numerator/d1.denominator);\r\n    }\r\n    /**\r\n     * @dev An auxiliary function, calculate call option price using B_S formulas.\r\n     * @param currentPrice current underlying price.\r\n     * @param strikePrice option's strike price.\r\n     * @param expiration option's expiration left time. Equal option's expiration timestamp - now.\r\n     * @param r parameter r in B_S formulas.\r\n     * @param derta implied volatility value in B-S formulas.\r\n     */\r\n    //S*N(d1)-L*pow(e,-rT)*N(d2)\r\n    function callOptionsPrice(uint256 currentPrice, uint256 strikePrice, uint256 expiration,\r\n            Fraction.fractionNumber memory r, Fraction.fractionNumber memory derta) \r\n                internal pure returns (uint256) {\r\n       (Fraction.fractionNumber memory d1, Fraction.fractionNumber memory d2) = calculateD1D2(currentPrice, strikePrice, expiration, r, derta);\r\n        d1 = d1.normsDist();\r\n        d2 = d2.normsDist();\r\n        d1.numerator = d1.numerator*int256(currentPrice);\r\n        d2.numerator = d2.numerator*int256(strikePrice);\r\n//        r = r.exp().invert();\r\n        if (r.numerator == 0){\r\n            d1 = d1.sub(d2);\r\n        }else{\r\n            r = r.mul(Fraction.fractionNumber(int256(expiration),Year));\r\n    //        r = r.exp().invert();\r\n            d1 = d1.sub(d2.div(r.exp()));\r\n        }\r\n        return uint256(d1.numerator/d1.denominator);\r\n    }\r\n    function calOptionsPriceRatio(uint256 selfOccupied,uint256 totalOccupied,uint256 totalCollateral) public view returns (uint256,uint256){\r\n        //r1 + 0.5\r\n        if (selfOccupied*2<=totalOccupied){\r\n            return(1,1);\r\n        }\r\n        //r1 + 0.5\r\n        Fraction.fractionNumber memory r1 = Fraction.fractionNumber(int256(selfOccupied*2+totalOccupied),int256(totalOccupied*2));\r\n        Fraction.fractionNumber memory r2 = Fraction.fractionNumber(int256(totalOccupied),int256(totalCollateral)).mul(ratioR2);\r\n        //pow(r1,r2)\r\n        r1 = r1.pow(r2);\r\n        return (uint256(r1.numerator),uint256(r1.denominator));\r\n    }\r\n}",
  "sourcePath": "C:\\work\\solidity\\finnexusOptions_V2.1\\contracts\\optionsPriceOld.sol",
  "compiler": {
    "name": "solc",
    "version": "0.5.16+commit.9c3226ce.Emscripten.clang"
  },
  "schemaVersion": "3.1.0",
  "updatedAt": "2020-10-24T10:45:23.512Z",
  "devdoc": {
    "details": "calculate options' price, using B-S formulas.  ",
    "methods": {
      "constructor": {
        "details": "constructor function , setting contract address.",
        "params": {
          "ivContract": "implied volatility contract address"
        }
      },
      "getOptionsPrice(uint256,uint256,uint256,uint32,uint8)": {
        "details": "calculate option's price using B_S formulas",
        "params": {
          "currentPrice": "current underlying price.",
          "expiration": "option's expiration left time. Equal option's expiration timestamp - now.",
          "optType": "option's type, 0 for CALL, 2 for PUT.",
          "strikePrice": "option's strike price.",
          "underlying": "option's underlying id, 1 for BTC, 2 for ETH."
        }
      },
      "getOptionsPrice_iv(uint256,uint256,uint256,uint256,uint8)": {
        "details": "calculate option's price using B_S formulas with user input iv.",
        "params": {
          "currentPrice": "current underlying price.",
          "expiration": "option's expiration left time. Equal option's expiration timestamp - now.",
          "ivNumerator": "user input iv numerator.",
          "optType": "option's type, 0 for CALL, 2 for PUT.",
          "strikePrice": "option's strike price."
        }
      },
      "getRate()": {
        "details": "get B_S formulas r"
      },
      "getRatioR2()": {
        "details": "get options price ratio for R2"
      },
      "isOwner()": {
        "details": "Returns true if the caller is the current owner."
      },
      "owner()": {
        "details": "Returns the address of the current owner."
      },
      "renounceOwnership()": {
        "details": "Leaves the contract without owner. It will not be possible to call `onlyOwner` functions anymore. Can only be called by the current owner.      * NOTE: Renouncing ownership will leave the contract without an owner, thereby removing any functionality that is only available to the owner."
      },
      "setRate(int256,int256)": {
        "details": "set B_S formulas r"
      },
      "setRatioR2(int256,int256)": {
        "details": "set options price ratio for R2"
      },
      "transferOwnership(address)": {
        "details": "Transfers ownership of the contract to a new account (`newOwner`). Can only be called by the current owner."
      }
    },
    "title": "Options price calculation contract."
  },
  "userdoc": {
    "methods": {}
  }
}