{
  "contractName": "OptionsOccupiedCal",
  "abi": [
    {
      "anonymous": false,
      "inputs": [
        {
          "indexed": true,
          "internalType": "address",
          "name": "owner",
          "type": "address"
        },
        {
          "indexed": true,
          "internalType": "uint256",
          "name": "optionID",
          "type": "uint256"
        },
        {
          "indexed": false,
          "internalType": "uint256",
          "name": "amount",
          "type": "uint256"
        }
      ],
      "name": "BurnOption",
      "type": "event"
    },
    {
      "anonymous": false,
      "inputs": [
        {
          "indexed": true,
          "internalType": "address",
          "name": "owner",
          "type": "address"
        },
        {
          "indexed": true,
          "internalType": "uint256",
          "name": "optionID",
          "type": "uint256"
        },
        {
          "indexed": false,
          "internalType": "uint8",
          "name": "optType",
          "type": "uint8"
        },
        {
          "indexed": false,
          "internalType": "uint32",
          "name": "underlying",
          "type": "uint32"
        },
        {
          "indexed": false,
          "internalType": "uint256",
          "name": "expiration",
          "type": "uint256"
        },
        {
          "indexed": false,
          "internalType": "uint256",
          "name": "strikePrice",
          "type": "uint256"
        },
        {
          "indexed": false,
          "internalType": "uint256",
          "name": "amount",
          "type": "uint256"
        }
      ],
      "name": "CreateOption",
      "type": "event"
    },
    {
      "anonymous": false,
      "inputs": [
        {
          "indexed": false,
          "internalType": "uint256",
          "name": "id",
          "type": "uint256"
        },
        {
          "indexed": false,
          "internalType": "uint256",
          "name": "value1",
          "type": "uint256"
        },
        {
          "indexed": false,
          "internalType": "uint256",
          "name": "value2",
          "type": "uint256"
        }
      ],
      "name": "DebugEvent",
      "type": "event"
    },
    {
      "anonymous": false,
      "inputs": [
        {
          "indexed": true,
          "internalType": "address",
          "name": "previousOwner",
          "type": "address"
        },
        {
          "indexed": true,
          "internalType": "address",
          "name": "newOwner",
          "type": "address"
        }
      ],
      "name": "OwnershipTransferred",
      "type": "event"
    },
    {
      "constant": false,
      "inputs": [
        {
          "internalType": "uint32",
          "name": "expiration",
          "type": "uint32"
        }
      ],
      "name": "addExpiration",
      "outputs": [],
      "payable": false,
      "stateMutability": "nonpayable",
      "type": "function"
    },
    {
      "constant": false,
      "inputs": [
        {
          "internalType": "address",
          "name": "addAddress",
          "type": "address"
        }
      ],
      "name": "addOperator",
      "outputs": [],
      "payable": false,
      "stateMutability": "nonpayable",
      "type": "function"
    },
    {
      "constant": false,
      "inputs": [
        {
          "internalType": "uint32",
          "name": "underlying",
          "type": "uint32"
        }
      ],
      "name": "addUnderlyingAsset",
      "outputs": [],
      "payable": false,
      "stateMutability": "nonpayable",
      "type": "function"
    },
    {
      "constant": true,
      "inputs": [
        {
          "internalType": "uint32",
          "name": "expiration",
          "type": "uint32"
        },
        {
          "internalType": "uint32",
          "name": "underlying",
          "type": "uint32"
        }
      ],
      "name": "buyOptionCheck",
      "outputs": [],
      "payable": false,
      "stateMutability": "view",
      "type": "function"
    },
    {
      "constant": true,
      "inputs": [
        {
          "internalType": "uint256",
          "name": "optionID",
          "type": "uint256"
        },
        {
          "internalType": "uint256",
          "name": "amount",
          "type": "uint256"
        }
      ],
      "name": "getBurnedFullPay",
      "outputs": [
        {
          "internalType": "uint256",
          "name": "",
          "type": "uint256"
        }
      ],
      "payable": false,
      "stateMutability": "view",
      "type": "function"
    },
    {
      "constant": true,
      "inputs": [
        {
          "internalType": "uint256",
          "name": "optionsId",
          "type": "uint256"
        },
        {
          "internalType": "uint256",
          "name": "amount",
          "type": "uint256"
        }
      ],
      "name": "getExerciseWorth",
      "outputs": [
        {
          "internalType": "uint256",
          "name": "",
          "type": "uint256"
        }
      ],
      "payable": false,
      "stateMutability": "view",
      "type": "function"
    },
    {
      "constant": true,
      "inputs": [],
      "name": "getExpirationList",
      "outputs": [
        {
          "internalType": "uint32[]",
          "name": "",
          "type": "uint32[]"
        }
      ],
      "payable": false,
      "stateMutability": "view",
      "type": "function"
    },
    {
      "constant": true,
      "inputs": [],
      "name": "getInputAmountRange",
      "outputs": [
        {
          "internalType": "uint256",
          "name": "",
          "type": "uint256"
        },
        {
          "internalType": "uint256",
          "name": "",
          "type": "uint256"
        }
      ],
      "payable": false,
      "stateMutability": "view",
      "type": "function"
    },
    {
      "constant": true,
      "inputs": [
        {
          "internalType": "uint256",
          "name": "item",
          "type": "uint256"
        }
      ],
      "name": "getItemTimeLimitation",
      "outputs": [
        {
          "internalType": "uint256",
          "name": "",
          "type": "uint256"
        }
      ],
      "payable": false,
      "stateMutability": "view",
      "type": "function"
    },
    {
      "constant": true,
      "inputs": [],
      "name": "getManager",
      "outputs": [
        {
          "internalType": "address",
          "name": "",
          "type": "address"
        }
      ],
      "payable": false,
      "stateMutability": "view",
      "type": "function"
    },
    {
      "constant": true,
      "inputs": [],
      "name": "getOperator",
      "outputs": [
        {
          "internalType": "address[]",
          "name": "",
          "type": "address[]"
        }
      ],
      "payable": false,
      "stateMutability": "view",
      "type": "function"
    },
    {
      "constant": true,
      "inputs": [],
      "name": "getOptionInfoLength",
      "outputs": [
        {
          "internalType": "uint256",
          "name": "",
          "type": "uint256"
        }
      ],
      "payable": false,
      "stateMutability": "view",
      "type": "function"
    },
    {
      "constant": true,
      "inputs": [
        {
          "internalType": "uint256",
          "name": "from",
          "type": "uint256"
        },
        {
          "internalType": "uint256",
          "name": "size",
          "type": "uint256"
        }
      ],
      "name": "getOptionInfoList",
      "outputs": [
        {
          "internalType": "address[]",
          "name": "",
          "type": "address[]"
        },
        {
          "internalType": "uint256[]",
          "name": "",
          "type": "uint256[]"
        },
        {
          "internalType": "uint256[]",
          "name": "",
          "type": "uint256[]"
        },
        {
          "internalType": "uint256[]",
          "name": "",
          "type": "uint256[]"
        },
        {
          "internalType": "uint256[]",
          "name": "",
          "type": "uint256[]"
        }
      ],
      "payable": false,
      "stateMutability": "view",
      "type": "function"
    },
    {
      "constant": true,
      "inputs": [
        {
          "internalType": "uint256[]",
          "name": "ids",
          "type": "uint256[]"
        }
      ],
      "name": "getOptionInfoListFromID",
      "outputs": [
        {
          "internalType": "address[]",
          "name": "",
          "type": "address[]"
        },
        {
          "internalType": "uint256[]",
          "name": "",
          "type": "uint256[]"
        },
        {
          "internalType": "uint256[]",
          "name": "",
          "type": "uint256[]"
        },
        {
          "internalType": "uint256[]",
          "name": "",
          "type": "uint256[]"
        },
        {
          "internalType": "uint256[]",
          "name": "",
          "type": "uint256[]"
        }
      ],
      "payable": false,
      "stateMutability": "view",
      "type": "function"
    },
    {
      "constant": true,
      "inputs": [
        {
          "internalType": "uint256",
          "name": "optionsId",
          "type": "uint256"
        }
      ],
      "name": "getOptionsById",
      "outputs": [
        {
          "internalType": "uint256",
          "name": "",
          "type": "uint256"
        },
        {
          "internalType": "address",
          "name": "",
          "type": "address"
        },
        {
          "internalType": "uint8",
          "name": "",
          "type": "uint8"
        },
        {
          "internalType": "uint32",
          "name": "",
          "type": "uint32"
        },
        {
          "internalType": "uint256",
          "name": "",
          "type": "uint256"
        },
        {
          "internalType": "uint256",
          "name": "",
          "type": "uint256"
        },
        {
          "internalType": "uint256",
          "name": "",
          "type": "uint256"
        }
      ],
      "payable": false,
      "stateMutability": "view",
      "type": "function"
    },
    {
      "constant": true,
      "inputs": [
        {
          "internalType": "uint256",
          "name": "optionsId",
          "type": "uint256"
        }
      ],
      "name": "getOptionsLimitTimeById",
      "outputs": [
        {
          "internalType": "uint256",
          "name": "",
          "type": "uint256"
        }
      ],
      "payable": false,
      "stateMutability": "view",
      "type": "function"
    },
    {
      "constant": true,
      "inputs": [],
      "name": "getOptionsPriceAddress",
      "outputs": [
        {
          "internalType": "address",
          "name": "",
          "type": "address"
        }
      ],
      "payable": false,
      "stateMutability": "view",
      "type": "function"
    },
    {
      "constant": true,
      "inputs": [],
      "name": "getOracleAddress",
      "outputs": [
        {
          "internalType": "address",
          "name": "",
          "type": "address"
        }
      ],
      "payable": false,
      "stateMutability": "view",
      "type": "function"
    },
    {
      "constant": true,
      "inputs": [],
      "name": "getTimeLimitation",
      "outputs": [
        {
          "internalType": "uint256",
          "name": "",
          "type": "uint256"
        }
      ],
      "payable": false,
      "stateMutability": "view",
      "type": "function"
    },
    {
      "constant": true,
      "inputs": [],
      "name": "getUnderlyingAssets",
      "outputs": [
        {
          "internalType": "uint32[]",
          "name": "",
          "type": "uint32[]"
        }
      ],
      "payable": false,
      "stateMutability": "view",
      "type": "function"
    },
    {
      "constant": true,
      "inputs": [
        {
          "internalType": "address",
          "name": "user",
          "type": "address"
        }
      ],
      "name": "getUserOptionsID",
      "outputs": [
        {
          "internalType": "uint64[]",
          "name": "",
          "type": "uint64[]"
        }
      ],
      "payable": false,
      "stateMutability": "view",
      "type": "function"
    },
    {
      "constant": true,
      "inputs": [
        {
          "internalType": "address",
          "name": "user",
          "type": "address"
        },
        {
          "internalType": "uint256",
          "name": "from",
          "type": "uint256"
        },
        {
          "internalType": "uint256",
          "name": "size",
          "type": "uint256"
        }
      ],
      "name": "getUserOptionsID",
      "outputs": [
        {
          "internalType": "uint64[]",
          "name": "",
          "type": "uint64[]"
        }
      ],
      "payable": false,
      "stateMutability": "view",
      "type": "function"
    },
    {
      "constant": true,
      "inputs": [],
      "name": "getVolatilityAddress",
      "outputs": [
        {
          "internalType": "address",
          "name": "",
          "type": "address"
        }
      ],
      "payable": false,
      "stateMutability": "view",
      "type": "function"
    },
    {
      "constant": false,
      "inputs": [],
      "name": "initialize",
      "outputs": [],
      "payable": false,
      "stateMutability": "nonpayable",
      "type": "function"
    },
    {
      "constant": true,
      "inputs": [
        {
          "internalType": "uint32",
          "name": "underlying",
          "type": "uint32"
        }
      ],
      "name": "isEligibleUnderlyingAsset",
      "outputs": [
        {
          "internalType": "bool",
          "name": "",
          "type": "bool"
        }
      ],
      "payable": false,
      "stateMutability": "view",
      "type": "function"
    },
    {
      "constant": true,
      "inputs": [
        {
          "internalType": "uint256",
          "name": "Amount",
          "type": "uint256"
        }
      ],
      "name": "isInputAmountInRange",
      "outputs": [
        {
          "internalType": "bool",
          "name": "",
          "type": "bool"
        }
      ],
      "payable": false,
      "stateMutability": "view",
      "type": "function"
    },
    {
      "constant": true,
      "inputs": [],
      "name": "isOwner",
      "outputs": [
        {
          "internalType": "bool",
          "name": "",
          "type": "bool"
        }
      ],
      "payable": false,
      "stateMutability": "view",
      "type": "function"
    },
    {
      "constant": true,
      "inputs": [],
      "name": "owner",
      "outputs": [
        {
          "internalType": "address",
          "name": "",
          "type": "address"
        }
      ],
      "payable": false,
      "stateMutability": "view",
      "type": "function"
    },
    {
      "constant": false,
      "inputs": [
        {
          "internalType": "uint32",
          "name": "removeExpiration",
          "type": "uint32"
        }
      ],
      "name": "removeExpirationList",
      "outputs": [
        {
          "internalType": "bool",
          "name": "",
          "type": "bool"
        }
      ],
      "payable": false,
      "stateMutability": "nonpayable",
      "type": "function"
    },
    {
      "constant": false,
      "inputs": [
        {
          "internalType": "address",
          "name": "removeAddress",
          "type": "address"
        }
      ],
      "name": "removeOperator",
      "outputs": [
        {
          "internalType": "bool",
          "name": "",
          "type": "bool"
        }
      ],
      "payable": false,
      "stateMutability": "nonpayable",
      "type": "function"
    },
    {
      "constant": false,
      "inputs": [
        {
          "internalType": "uint32",
          "name": "removeUnderlying",
          "type": "uint32"
        }
      ],
      "name": "removeUnderlyingAssets",
      "outputs": [
        {
          "internalType": "bool",
          "name": "",
          "type": "bool"
        }
      ],
      "payable": false,
      "stateMutability": "nonpayable",
      "type": "function"
    },
    {
      "constant": false,
      "inputs": [],
      "name": "renounceOwnership",
      "outputs": [],
      "payable": false,
      "stateMutability": "nonpayable",
      "type": "function"
    },
    {
      "constant": false,
      "inputs": [
        {
          "internalType": "uint256",
          "name": "_minAmount",
          "type": "uint256"
        },
        {
          "internalType": "uint256",
          "name": "_maxAmount",
          "type": "uint256"
        }
      ],
      "name": "setInputAmountRange",
      "outputs": [],
      "payable": false,
      "stateMutability": "nonpayable",
      "type": "function"
    },
    {
      "constant": false,
      "inputs": [
        {
          "internalType": "address",
          "name": "managerAddress",
          "type": "address"
        }
      ],
      "name": "setManager",
      "outputs": [],
      "payable": false,
      "stateMutability": "nonpayable",
      "type": "function"
    },
    {
      "constant": false,
      "inputs": [
        {
          "internalType": "uint256",
          "name": "index",
          "type": "uint256"
        },
        {
          "internalType": "address",
          "name": "addAddress",
          "type": "address"
        }
      ],
      "name": "setOperator",
      "outputs": [],
      "payable": false,
      "stateMutability": "nonpayable",
      "type": "function"
    },
    {
      "constant": false,
      "inputs": [
        {
          "internalType": "address[]",
          "name": "operators",
          "type": "address[]"
        }
      ],
      "name": "setOperators",
      "outputs": [],
      "payable": false,
      "stateMutability": "nonpayable",
      "type": "function"
    },
    {
      "constant": false,
      "inputs": [
        {
          "internalType": "address",
          "name": "optionsPrice",
          "type": "address"
        }
      ],
      "name": "setOptionsPriceAddress",
      "outputs": [],
      "payable": false,
      "stateMutability": "nonpayable",
      "type": "function"
    },
    {
      "constant": false,
      "inputs": [
        {
          "internalType": "address",
          "name": "oracle",
          "type": "address"
        }
      ],
      "name": "setOracleAddress",
      "outputs": [],
      "payable": false,
      "stateMutability": "nonpayable",
      "type": "function"
    },
    {
      "constant": false,
      "inputs": [
        {
          "internalType": "uint256",
          "name": "_limitation",
          "type": "uint256"
        }
      ],
      "name": "setTimeLimitation",
      "outputs": [],
      "payable": false,
      "stateMutability": "nonpayable",
      "type": "function"
    },
    {
      "constant": false,
      "inputs": [
        {
          "internalType": "address",
          "name": "volatility",
          "type": "address"
        }
      ],
      "name": "setVolatilityAddress",
      "outputs": [],
      "payable": false,
      "stateMutability": "nonpayable",
      "type": "function"
    },
    {
      "constant": false,
      "inputs": [
        {
          "internalType": "address",
          "name": "newOwner",
          "type": "address"
        }
      ],
      "name": "transferOwnership",
      "outputs": [],
      "payable": false,
      "stateMutability": "nonpayable",
      "type": "function"
    },
    {
      "constant": true,
      "inputs": [],
      "name": "getOccupiedCalInfo",
      "outputs": [
        {
          "internalType": "uint256",
          "name": "",
          "type": "uint256"
        },
        {
          "internalType": "int256",
          "name": "",
          "type": "int256"
        },
        {
          "internalType": "int256",
          "name": "",
          "type": "int256"
        }
      ],
      "payable": false,
      "stateMutability": "view",
      "type": "function"
    },
    {
      "constant": false,
      "inputs": [],
      "name": "setOccupiedCollateral",
      "outputs": [],
      "payable": false,
      "stateMutability": "nonpayable",
      "type": "function"
    },
    {
      "constant": true,
      "inputs": [
        {
          "internalType": "uint256",
          "name": "lastOption",
          "type": "uint256"
        },
        {
          "internalType": "uint256",
          "name": "beginOption",
          "type": "uint256"
        },
        {
          "internalType": "uint256",
          "name": "endOption",
          "type": "uint256"
        }
      ],
      "name": "calculatePhaseOccupiedCollateral",
      "outputs": [
        {
          "internalType": "uint256",
          "name": "",
          "type": "uint256"
        },
        {
          "internalType": "uint256",
          "name": "",
          "type": "uint256"
        },
        {
          "internalType": "uint256",
          "name": "",
          "type": "uint256"
        },
        {
          "internalType": "bool",
          "name": "",
          "type": "bool"
        }
      ],
      "payable": false,
      "stateMutability": "view",
      "type": "function"
    },
    {
      "constant": false,
      "inputs": [
        {
          "internalType": "uint256",
          "name": "totalCallOccupied",
          "type": "uint256"
        },
        {
          "internalType": "uint256",
          "name": "totalPutOccupied",
          "type": "uint256"
        },
        {
          "internalType": "uint256",
          "name": "beginOption",
          "type": "uint256"
        },
        {
          "internalType": "int256",
          "name": "latestCallOccpied",
          "type": "int256"
        },
        {
          "internalType": "int256",
          "name": "latestPutOccpied",
          "type": "int256"
        }
      ],
      "name": "setCollateralPhase",
      "outputs": [],
      "payable": false,
      "stateMutability": "nonpayable",
      "type": "function"
    },
    {
      "constant": true,
      "inputs": [],
      "name": "getCallTotalOccupiedCollateral",
      "outputs": [
        {
          "internalType": "uint256",
          "name": "",
          "type": "uint256"
        }
      ],
      "payable": false,
      "stateMutability": "view",
      "type": "function"
    },
    {
      "constant": true,
      "inputs": [],
      "name": "getPutTotalOccupiedCollateral",
      "outputs": [
        {
          "internalType": "uint256",
          "name": "",
          "type": "uint256"
        }
      ],
      "payable": false,
      "stateMutability": "view",
      "type": "function"
    },
    {
      "constant": true,
      "inputs": [],
      "name": "getTotalOccupiedCollateral",
      "outputs": [
        {
          "internalType": "uint256",
          "name": "",
          "type": "uint256"
        }
      ],
      "payable": false,
      "stateMutability": "view",
      "type": "function"
    }
  ],
  "bytecode": "0x60806040819052610e106003556c0c9f2c9cd04674edea40000000600455606460055560008054600160a060020a0319163317808255600160a060020a0316917f8be0079c531659141344cd1fd0a4f28419497f9722a3daafe3b4186f6b6457e0908290a3620000776401000000006200007d810204565b620002de565b6200009064010000000062000186810204565b620000fc57604080517f08c379a000000000000000000000000000000000000000000000000000000000815260206004820181905260248201527f4f776e61626c653a2063616c6c6572206973206e6f7420746865206f776e6572604482015290519081900360640190fd5b60408051610100810182526201518081526202a30060208201526203f4809181019190915262093a806060820152620d2f0060808201526213c68060a0820152621a5e0060c082015262278d0060e08201526200015e90600e90600862000198565b506040805180820190915260018082526002602083018190526200018392906200024d565b50565b600054600160a060020a031633145b90565b828054828255906000526020600020906007016008900481019282156200023b5791602002820160005b838211156200020757835183826101000a81548163ffffffff021916908362ffffff1602179055509260200192600401602081600301049283019260010302620001c2565b8015620002395782816101000a81549063ffffffff021916905560040160208160030104928301926001030262000207565b505b5062000249929150620002ba565b5090565b828054828255906000526020600020906007016008900481019282156200023b5791602002820160005b838211156200020757835183826101000a81548163ffffffff021916908360ff160217905550926020019260040160208160030104928301926001030262000277565b6200019591905b808211156200024957805463ffffffff19168155600101620002c1565b61358f80620002ee6000396000f3fe608060405234801561001057600080fd5b50600436106102bd576000357c0100000000000000000000000000000000000000000000000000000000900480639052d5f811610184578063d0ebdbe7116100eb578063e7a1c1c0116100a4578063e7a1c1c014610a6b578063e7c5681514610a97578063e7f43c6814610abd578063f2fde38b14610ac5578063f504e2f014610aeb578063f7de192314610af3576102bd565b8063d0ebdbe714610931578063d500958414610957578063d6d140121461095f578063db6ad2bd14610982578063ddf71cd5146109a5578063de897ec914610a48576102bd565b8063ac8a584a1161013d578063ac8a584a146108af578063aef890be146108d5578063afec82fc146108dd578063b18b78dd14610900578063bc9abed214610908578063bec3107f14610929576102bd565b80639052d5f8146107e65780639783cbd9146107ee5780639870d7fe1461080b5780639ab91a3514610831578063a093e2d014610854578063a85504081461087a576102bd565b80634ad9c38411610228578063715018a6116101e1578063715018a61461078d57806373a3d424146107955780638129fc1c1461079d578063813b5d4b146107a55780638da5cb5b146107d65780638f32d59b146107de576102bd565b80634ad9c384146106d95780634c69c00f146106fc578063597ce900146107225780635ca4b73b1461074557806367b8ceb91461074d5780636d84e2e314610770576102bd565b8063354af3601161027a578063354af360146105465780633582d789146105e95780633e77dfd91461064157806342e5479d146106495780634688d5d61461066d57806348ee201d14610675576102bd565b80630438d490146102c2578063090576221461044d5780630973598e146104735780630c372571146104a05780632967eafe146104f15780632a75ee4214610517575b600080fd5b6102e5600480360360408110156102d857600080fd5b5080359060200135610b25565b60405180806020018060200180602001806020018060200186810386528b818151815260200191508051906020019060200280838360005b8381101561033557818101518382015260200161031d565b5050505090500186810385528a818151815260200191508051906020019060200280838360005b8381101561037457818101518382015260200161035c565b50505050905001868103845289818151815260200191508051906020019060200280838360005b838110156103b357818101518382015260200161039b565b50505050905001868103835288818151815260200191508051906020019060200280838360005b838110156103f25781810151838201526020016103da565b50505050905001868103825287818151815260200191508051906020019060200280838360005b83811015610431578181015183820152602001610419565b505050509050019a505050505050505050505060405180910390f35b610455610e33565b60408051938452602084019290925282820152519081900360600190f35b61049e6004803603604081101561048957600080fd5b5063ffffffff81358116916020013516610e41565b005b6104c9600480360360608110156104b657600080fd5b5080359060208101359060400135610fce565b6040805194855260208501939093528383019190915215156060830152519081900360800190f35b61049e6004803603602081101561050757600080fd5b5035600160a060020a031661104e565b6105346004803603602081101561052d57600080fd5b50356110ba565b60408051918252519081900360200190f35b6102e56004803603602081101561055c57600080fd5b81019060208101813564010000000081111561057757600080fd5b82018360208201111561058957600080fd5b803590602001918460208302840111640100000000831117156105ab57600080fd5b9190808060200260200160405190810160405280939291908181526020018383602002808284376000920191909152509295506110d1945050505050565b6105f16113d1565b60408051602080825283518183015283519192839290830191858101910280838360005b8381101561062d578181015183820152602001610615565b505050509050019250505060405180910390f35b610534611456565b6106516114e0565b60408051600160a060020a039092168252519081900360200190f35b6105346114ef565b6106926004803603602081101561068b57600080fd5b50356114f5565b60408051978852600160a060020a03909616602088015260ff9094168686015263ffffffff9092166060860152608085015260a084015260c0830152519081900360e00190f35b61049e600480360360208110156106ef57600080fd5b503563ffffffff166115f5565b61049e6004803603602081101561071257600080fd5b5035600160a060020a0316611653565b6105346004803603604081101561073857600080fd5b50803590602001356116bf565b610651611764565b6105346004803603604081101561076357600080fd5b5080359060200135611773565b6105346004803603602081101561078657600080fd5b5035611959565b61049e6119c9565b610534611a5d565b61049e611a75565b6107c2600480360360208110156107bb57600080fd5b5035611b42565b604080519115158252519081900360200190f35b610651611b5a565b6107c2611b69565b6105f1611b7a565b61049e6004803603602081101561080457600080fd5b5035611bd7565b61049e6004803603602081101561082157600080fd5b5035600160a060020a0316611c26565b61049e6004803603604081101561084757600080fd5b5080359060200135611c81565b61049e6004803603602081101561086a57600080fd5b5035600160a060020a0316611cd6565b61049e600480360360a081101561089057600080fd5b5080359060208101359060408101359060608101359060800135611d42565b6107c2600480360360208110156108c557600080fd5b5035600160a060020a0316611f6a565b610534611fc7565b61049e600480360360208110156108f357600080fd5b503563ffffffff1661203c565b610651612097565b6109106120a6565b6040805192835260208301919091528051918290030190f35b6105346120b0565b61049e6004803603602081101561094757600080fd5b5035600160a060020a03166120b6565b610651612122565b6107c26004803603602081101561097557600080fd5b503563ffffffff16612131565b6107c26004803603602081101561099857600080fd5b503563ffffffff1661218e565b61049e600480360360208110156109bb57600080fd5b8101906020810181356401000000008111156109d657600080fd5b8201836020820111156109e857600080fd5b80359060200191846020830284011164010000000083111715610a0a57600080fd5b9190808060200260200160405190810160405280939291908181526020018383602002808284376000920191909152509295506121f8945050505050565b6107c260048036036020811015610a5e57600080fd5b503563ffffffff16612255565b61049e60048036036040811015610a8157600080fd5b5080359060200135600160a060020a03166122b2565b6105f160048036036020811015610aad57600080fd5b5035600160a060020a031661233c565b6105f16123dc565b61049e60048036036020811015610adb57600080fd5b5035600160a060020a031661243d565b61049e612490565b6105f160048036036060811015610b0957600080fd5b50600160a060020a038135169060208101359060400135612551565b600c546060908190819081908190808810610b8a576040805160e560020a62461bcd02815260206004820152601660248201527f696e7075742066726f6d206973206f766572666c6f7700000000000000000000604482015290519081900360640190fd5b60008711610be2576040805160e560020a62461bcd02815260206004820152601260248201527f696e7075742073697a65206973207a65726f0000000000000000000000000000604482015290519081900360640190fd5b808789011115610bf25787810396505b606087604051908082528060200260200182016040528015610c1e578160200160208202803883390190505b509050606088604051908082528060200260200182016040528015610c4d578160200160208202803883390190505b509050606089604051908082528060200260200182016040528015610c7c578160200160208202803883390190505b50905060608a604051908082528060200260200182016040528015610cab578160200160208202803883390190505b50905060608b604051908082528060200260200182016040528015610cda578160200160208202803883390190505b50905060005b8c811015610e1e576000818f0190506000600c8281548110610cfe57fe5b6000918252602090912060049091020180548951919250600160a060020a031690899085908110610d2b57fe5b600160a060020a0392909216602092830291909101909101528054875160a060020a820460ff1660a860020a90920463ffffffff90811662010000029290920190911690889085908110610d7b57fe5b60209081029190910101526001810154865167ffffffffffffffff90911690879085908110610da657fe5b6020908102919091010152600281015485516001608060020a0390911690869085908110610dd057fe5b6020026020010181815250508060010160109054906101000a90046001608060020a03166001608060020a0316848481518110610e0957fe5b60209081029190910101525050600101610ce0565b50939c929b5090995097509095509350505050565b601154601454601554909192565b610ed0816001805480602002602001604051908101604052809291908181526020018280548015610ebd57602002820191906000526020600020906000905b82829054906101000a900463ffffffff1663ffffffff1681526020019060040190602082600301049283019260010382029150808411610e805790505b505050505061271f90919063ffffffff16565b610f24576040805160e560020a62461bcd02815260206004820152601f60248201527f756e6465726c79696e6720697320756e737570706f7274656420617373657400604482015290519081900360640190fd5b610f8c82600e805480602002602001604051908101604052809291908181526020018280548015610ebd576000918252602091829020805463ffffffff168452908202830192909160049101808411610e80579050505050505061271f90919063ffffffff16565b610fca5760405160e560020a62461bcd0281526004018080602001828103825260218152602001806134ec6021913960400191505060405180910390fd5b5050565b600080600080601154861015610fe45760115495505b868610610ffc57506000925082915081905080611045565b8685111561100c57869450611027565b60115485101561102757506000925082915081905080611045565b60008060006110368989612773565b91985096509450600193505050505b93509350935093565b611056611b69565b611098576040805160e560020a62461bcd028152602060048201819052602482015260008051602061349f833981519152604482015290519081900360640190fd5b60088054600160a060020a031916600160a060020a0392909216919091179055565b600354600091825260026020526040909120540190565b606080606080606060008651905060008111611137576040805160e560020a62461bcd02815260206004820152601860248201527f696e7075742069647320617272617920697320656d7074790000000000000000604482015290519081900360640190fd5b600c54604080518381526020808502820101909152606090838015611166578160200160208202803883390190505b509050606083604051908082528060200260200182016040528015611195578160200160208202803883390190505b5090506060846040519080825280602002602001820160405280156111c4578160200160208202803883390190505b5090506060856040519080825280602002602001820160405280156111f3578160200160208202803883390190505b509050606086604051908082528060200260200182016040528015611222578160200160208202803883390190505b50905060005b87811015610e1e57600060018f838151811061124057fe5b60200260200101510390508781106112a2576040805160e560020a62461bcd02815260206004820152601860248201527f696e7075742069647320617272617920697320656d7074790000000000000000604482015290519081900360640190fd5b6000600c82815481106112b157fe5b6000918252602090912060049091020180548951919250600160a060020a0316908990859081106112de57fe5b600160a060020a0392909216602092830291909101909101528054875160a060020a820460ff1660a860020a90920463ffffffff9081166201000002929092019091169088908590811061132e57fe5b60209081029190910101526001810154865167ffffffffffffffff9091169087908590811061135957fe5b6020908102919091010152600281015485516001608060020a039091169086908590811061138357fe5b6020026020010181815250508060010160109054906101000a90046001608060020a03166001608060020a03168484815181106113bc57fe5b60209081029190910101525050600101611228565b6060600180548060200260200160405190810160405280929190818152602001828054801561144b57602002820191906000526020600020906000905b82829054906101000a900463ffffffff1663ffffffff168152602001906004019060208260030104928301926001038202915080841161140e5790505b505050505090505b90565b600080601454126114b357601454601254908101908110156114ac5760405160e560020a62461bcd02815260040180806020018281038252602a815260200180613531602a913960400191505060405180910390fd5b9050611453565b600060145460000390508060125411156114d257601254039050611453565b6000915050611453565b5090565b600854600160a060020a031690565b60035490565b60008060008060008060006115086131c9565b6115118961292e565b60408051610140810182528254600160a060020a03811680835260a060020a820460ff166020840181905260a860020a90920463ffffffff16938301849052600185015467ffffffffffffffff808216606086018190526801000000000000000083049091166080860152700100000000000000000000000000000000918290046001608060020a0390811660a08701819052600289015480831660c0890181905290859004831660e08901526003909901548083166101008901529390930416610120909501949094529d9e909d919c50929a5090985091965090945092505050565b6115fd611b69565b61163f576040805160e560020a62461bcd028152602060048201819052602482015260008051602061349f833981519152604482015290519081900360640190fd5b611650600e8263ffffffff6129ba16565b50565b61165b611b69565b61169d576040805160e560020a62461bcd028152602060048201819052602482015260008051602061349f833981519152604482015290519081900360640190fd5b60078054600160a060020a031916600160a060020a0392909216919091179055565b6000818060045410156117065760405160e560020a62461bcd02815260040180806020018281038252602481526020018061350d6024913960400191505060405180910390fd5b6000600c600186038154811061171857fe5b600091825260209091206003600490920201908101549091506001608060020a0370010000000000000000000000000000000082048116911685028161175a57fe5b0495945050505050565b600954600160a060020a031690565b600061177d6131c9565b6117868461292e565b60408051610140810182528254600160a060020a038116825260ff60a060020a820416602083015263ffffffff60a860020a9091041691810191909152600182015467ffffffffffffffff8082166060840181905268010000000000000000830490911660808401526001608060020a0370010000000000000000000000000000000092839004811660a0850152600285015480821660c0860152839004811660e0850152600390940154808516610100850152919091049092166101208201529150421061189f576040805160e560020a62461bcd02815260206004820152601160248201527f6f7074696f6e2069732065787069726564000000000000000000000000000000604482015290519081900360640190fd5b828160a001516001608060020a03161015611904576040805160e560020a62461bcd02815260206004820152601d60248201527f6f7074696f6e20616d6f756e7420697320696e73756666696369656e74000000604482015290519081900360640190fd5b6000611919826040015163ffffffff16612a81565b9050600061193983602001518460c001516001608060020a031684612b40565b90508061194c5760009350505050611953565b8402925050505b92915050565b6000808211801561196c5750600c548211155b6119c0576040805160e560020a62461bcd02815260206004820152601660248201527f6f7074696f6e206964206973206e6f7420657869737400000000000000000000604482015290519081900360640190fd5b611953826110ba565b6119d1611b69565b611a13576040805160e560020a62461bcd028152602060048201819052602482015260008051602061349f833981519152604482015290519081900360640190fd5b60008054604051600160a060020a03909116907f8be0079c531659141344cd1fd0a4f28419497f9722a3daafe3b4186f6b6457e0908390a360008054600160a060020a0319169055565b6000611a67611fc7565b611a6f611456565b01905090565b611a7d611b69565b611abf576040805160e560020a62461bcd028152602060048201819052602482015260008051602061349f833981519152604482015290519081900360640190fd5b60408051610100810182526201518081526202a30060208201526203f4809181019190915262093a806060820152620d2f0060808201526213c68060a0820152621a5e0060c082015262278d0060e0820152611b1f90600e90600861321d565b5060408051808201909152600180825260026020830181905261165092906132c7565b60008160045410158015611953575050600554111590565b600054600160a060020a031690565b600054600160a060020a0316331490565b6060600e80548060200260200160405190810160405280929190818152602001828054801561144b576000918252602091829020805463ffffffff16845290820283019290916004910180841161140e5790505050505050905090565b611bdf611b69565b611c21576040805160e560020a62461bcd028152602060048201819052602482015260008051602061349f833981519152604482015290519081900360640190fd5b600355565b611c2e611b69565b611c70576040805160e560020a62461bcd028152602060048201819052602482015260008051602061349f833981519152604482015290519081900360640190fd5b611650600a8263ffffffff612b7416565b611c89611b69565b611ccb576040805160e560020a62461bcd028152602060048201819052602482015260008051602061349f833981519152604482015290519081900360640190fd5b600591909155600455565b611cde611b69565b611d20576040805160e560020a62461bcd028152602060048201819052602482015260008051602061349f833981519152604482015290519081900360640190fd5b60098054600160a060020a031916600160a060020a0392909216919091179055565b600a5460019081108015611d7f575033600160a060020a0316600a8281548110611d6857fe5b600091825260209091200154600160a060020a0316145b611dbd5760405160e560020a62461bcd02815260040180806020018281038252602d8152602001806134bf602d913960400191505060405180910390fd5b600c54841115611e17576040805160e560020a62461bcd02815260206004820152601b60248201527f626567696e4f7074696f6e2063616c63756c617465204572726f720000000000604482015290519081900360640190fd5b601154841115611e275760118490555b6012869055601385905574446c3b15f9926687d2c40534fdb563ffffffffffff198312801590611e6c575074446c3b15f9926687d2c40534fdb5640000000000008313155b611ec0576040805160e560020a62461bcd02815260206004820152601c60248201527f6f7074696f6e732066616c6c2063616c63756c617465206572726f7200000000604482015290519081900360640190fd5b74446c3b15f9926687d2c40534fdb563ffffffffffff198212158015611efb575074446c3b15f9926687d2c40534fdb5640000000000008213155b611f4f576040805160e560020a62461bcd02815260206004820152601c60248201527f6f7074696f6e732066616c6c2063616c63756c617465206572726f7200000000604482015290519081900360640190fd5b50601480549290920390915560158054919091039055505050565b6000611f74611b69565b611fb6576040805160e560020a62461bcd028152602060048201819052602482015260008051602061349f833981519152604482015290519081900360640190fd5b611953600a8363ffffffff612c0c16565b6000806015541261201d57601554601354908101908110156114ac5760405160e560020a62461bcd02815260040180806020018281038252602a815260200180613531602a913960400191505060405180910390fd5b600060155460000390508060135411156114d257601354039050611453565b612044611b69565b612086576040805160e560020a62461bcd028152602060048201819052602482015260008051602061349f833981519152604482015290519081900360640190fd5b61165060018263ffffffff6129ba16565b600754600160a060020a031690565b6005546004549091565b600c5490565b6120be611b69565b612100576040805160e560020a62461bcd028152602060048201819052602482015260008051602061349f833981519152604482015290519081900360640190fd5b60068054600160a060020a031916600160a060020a0392909216919091179055565b600654600160a060020a031690565b600061213b611b69565b61217d576040805160e560020a62461bcd028152602060048201819052602482015260008051602061349f833981519152604482015290519081900360640190fd5b61195360018363ffffffff612cef16565b6000611953826001805480602002602001604051908101604052809291908181526020018280548015610ebd576000918252602091829020805463ffffffff168452908202830192909160049101808411610e80579050505050505061271f90919063ffffffff16565b612200611b69565b612242576040805160e560020a62461bcd028152602060048201819052602482015260008051602061349f833981519152604482015290519081900360640190fd5b8051610fca90600a906020840190613331565b600061225f611b69565b6122a1576040805160e560020a62461bcd028152602060048201819052602482015260008051602061349f833981519152604482015290519081900360640190fd5b611953600e8363ffffffff612cef16565b6122ba611b69565b6122fc576040805160e560020a62461bcd028152602060048201819052602482015260008051602061349f833981519152604482015290519081900360640190fd5b80600a838154811061230a57fe5b9060005260206000200160006101000a815481600160a060020a030219169083600160a060020a031602179055505050565b600160a060020a0381166000908152600d60209081526040918290208054835181840281018401909452808452606093928301828280156123d057602002820191906000526020600020906000905b82829054906101000a900467ffffffffffffffff1667ffffffffffffffff168152602001906008019060208260070104928301926001038202915080841161238b5790505b50505050509050919050565b6060600a80548060200260200160405190810160405280929190818152602001828054801561144b57602002820191906000526020600020905b8154600160a060020a03168152600190910190602001808311612416575050505050905090565b612445611b69565b612487576040805160e560020a62461bcd028152602060048201819052602482015260008051602061349f833981519152604482015290519081900360640190fd5b61165081612ddf565b600a54600190811080156124cd575033600160a060020a0316600a82815481106124b657fe5b600091825260209091200154600160a060020a0316145b61250b5760405160e560020a62461bcd02815260040180806020018281038252602d8152602001806134bf602d913960400191505060405180910390fd5b601454601554600c5460115460009081908190819061252c90869081610fce565b93509350935093508015612547576125478484848a8a611d42565b5050505050505050565b600160a060020a0383166000908152600d602052604090205460609083106125c3576040805160e560020a62461bcd02815260206004820152601660248201527f696e7075742066726f6d206973206f766572666c6f7700000000000000000000604482015290519081900360640190fd5b6000821161261b576040805160e560020a62461bcd02815260206004820152601260248201527f696e7075742073697a65206973207a65726f0000000000000000000000000000604482015290519081900360640190fd5b606082604051908082528060200260200182016040528015612647578160200160208202803883390190505b50600160a060020a0386166000908152600d6020526040902054909150848401111561268c57600160a060020a0385166000908152600d602052604090205484900392505b60005b8381101561271457600160a060020a0386166000908152600d6020526040902080548683019081106126bd57fe5b90600052602060002090600491828204019190066008029054906101000a900467ffffffffffffffff168282815181106126f357fe5b67ffffffffffffffff9092166020928302919091019091015260010161268f565b5090505b9392505050565b8151600090815b81811015612768578363ffffffff1685828151811061274157fe5b602002602001015163ffffffff16141561276057600192505050611953565b600101612726565b506000949350505050565b6000806000806127868660115487612e82565b90965090506060612795612f2f565b90506000805b8789101561291e5760006127d8600c8b815481106127b557fe5b600091825260209091206004909102015460a860020a900463ffffffff16612fce565b905060006128d5600c8c815481106127ec57fe5b600091825260209182902060408051610140810182526004939093029091018054600160a060020a038116845260a060020a810460ff169484019490945260a860020a90930463ffffffff1690820152600182015467ffffffffffffffff8082166060840152680100000000000000008204166080830152700100000000000000000000000000000000908190046001608060020a0390811660a0840152600284015480821660c0850152829004811660e08401526003909301548084166101008401520490911661012082015286518790859081106128c857fe5b602002602001015161305f565b9050600c8b815481106128e457fe5b600091825260209091206004909102015460a060020a900460ff1661290c5792830192612911565b918201915b505060019098019761279b565b9095509350909150509250925092565b600080821180156129415750600c548211155b612995576040805160e560020a62461bcd02815260206004820152601660248201527f6f7074696f6e206964206973206e6f7420657869737400000000000000000000604482015290519081900360640190fd5b600c60018303815481106129a557fe5b90600052602060002090600402019050919050565b612a3f82805480602002602001604051908101604052809291908181526020018280548015612a3457602002820191906000526020600020906000905b82829054906101000a900463ffffffff1663ffffffff16815260200190600401906020826003010492830192600103820291508084116129f75790505b50505050508261271f565b610fca578154600181018355600092835260209092206008830401805460079093166004026101000a63ffffffff818102199094169290931692909202179055565b600754604080517fda6632570000000000000000000000000000000000000000000000000000000081526004810184905290516000928392600160a060020a039091169163da66325791602480820192602092909190829003018186803b158015612aeb57600080fd5b505afa158015612aff573d6000803e3d6000fd5b505050506040513d6020811015612b1557600080fd5b5051905060648110801590612b3757506c0c9f2c9cd04674edea400000008111155b61195357600080fd5b600060ff8416158284111415612b5857506000612718565b60ff841615612b6957818303612b6d565b8282035b9050612718565b612bd782805480602002602001604051908101604052809291908181526020018280548015612bcc57602002820191906000526020600020905b8154600160a060020a03168152600190910190602001808311612bae575b505050505082613119565b610fca578154600181018355600083815260209020018054600160a060020a038316600160a060020a03199091161790555050565b8154600090815b81811015612c595783600160a060020a0316858281548110612c3157fe5b600091825260209091200154600160a060020a03161415612c5157612c59565b600101612c13565b8181101561276857600182038114612cd357846001830381548110612c7a57fe5b9060005260206000200160009054906101000a9004600160a060020a0316858281548110612ca457fe5b9060005260206000200160006101000a815481600160a060020a030219169083600160a060020a031602179055505b8454612ce3866000198301613392565b50600192505050611953565b8154600090815b81811015612d48578363ffffffff16858281548110612d1157fe5b6000918252602090912060088204015460079091166004026101000a900463ffffffff161415612d4057612d48565b600101612cf6565b8181101561276857600182038114612dcf57846001830381548110612d6957fe5b90600052602060002090600891828204019190066004029054906101000a900463ffffffff16858281548110612d9b57fe5b90600052602060002090600891828204019190066004026101000a81548163ffffffff021916908363ffffffff1602179055505b8454612ce38660001983016133bb565b600160a060020a038116612e275760405160e560020a62461bcd0281526004018080602001828103825260268152602001806134796026913960400191505060405180910390fd5b60008054604051600160a060020a03808516939216917f8be0079c531659141344cd1fd0a4f28419497f9722a3daafe3b4186f6b6457e091a360008054600160a060020a031916600160a060020a0392909216919091179055565b6000808380861115612e98578592509050612f27565b8095505b83861015612f1f576000600c8781548110612eb357fe5b6000918252602090912060049091020160018101549091504267ffffffffffffffff9091161080612f035750600181015470010000000000000000000000000000000090046001608060020a0316155b15612f0e5750612f14565b50612f1f565b600190950194612e9c565b858692509250505b935093915050565b600154604080518281526020808402820101909152606091908290828015612f61578160200160208202803883390190505b50905060005b82811015612fc757612fa860018281548110612f7f57fe5b6000918252602090912060088204015460079091166004026101000a900463ffffffff16612a81565b828281518110612fb457fe5b6020908102919091010152600101612f67565b5091505090565b600061195382600180548060200260200160405190810160405280929190818152602001828054801561304c57602002820191906000526020600020906000905b82829054906101000a900463ffffffff1663ffffffff168152602001906004019060208260030104928301926001038202915080841161300f5790505b505050505061316890919063ffffffff16565b6000808360a001516001608060020a0316905042846060015167ffffffffffffffff1611158061308d575080155b1561309c576000915050611953565b6000816130bb86602001518760c001516001608060020a0316876131ab565b029050701d6329f1c35ca4bfabb9f56100000000008111156131115760405160e560020a62461bcd02815260040180806020018281038252602a81526020018061344f602a913960400191505060405180910390fd5b949350505050565b8151600090815b818110156127685783600160a060020a031685828151811061313e57fe5b6020026020010151600160a060020a0316141561316057600192505050611953565b600101613120565b8151600090815b81811015613111578363ffffffff1685828151811061318a57fe5b602002602001015163ffffffff1614156131a357613111565b60010161316f565b600060ff84161582841114156131c2575081612718565b5080612718565b6040805161014081018252600080825260208201819052918101829052606081018290526080810182905260a0810182905260c0810182905260e08101829052610100810182905261012081019190915290565b828054828255906000526020600020906007016008900481019282156132bb5791602002820160005b8382111561328957835183826101000a81548163ffffffff021916908362ffffff1602179055509260200192600401602081600301049283019260010302613246565b80156132b95782816101000a81549063ffffffff0219169055600401602081600301049283019260010302613289565b505b506114dc9291506133ef565b828054828255906000526020600020906007016008900481019282156132bb5791602002820160005b8382111561328957835183826101000a81548163ffffffff021916908360ff16021790555092602001926004016020816003010492830192600103026132f0565b828054828255906000526020600020908101928215613386579160200282015b828111156133865782518254600160a060020a031916600160a060020a03909116178255602090920191600190910190613351565b506114dc929150613410565b8154818355818111156133b6576000838152602090206133b6918101908301613434565b505050565b8154818355818111156133b65760070160089004816007016008900483600052602060002091820191016133b69190613434565b61145391905b808211156114dc57805463ffffffff191681556001016133f5565b61145391905b808211156114dc578054600160a060020a0319168155600101613416565b61145391905b808211156114dc576000815560010161343a56fe4f7074696f6e20636f6c6c61746572616c206f636375706965642063616c63756c617465206572726f724f776e61626c653a206e6577206f776e657220697320746865207a65726f20616464726573734f776e61626c653a2063616c6c6572206973206e6f7420746865206f776e65724f70657261746f723a2063616c6c6572206973206e6f742074686520656c696769626c65204f70657261746f7265787069726174696f6e2076616c7565206973206e6f7420737570706f72746564696e70757420616d6f756e74206973206c6172676572207468616e206d6178696d69756d546f74616c4f63637570696564436f6c6c61746572616c2063616c63756c617465206f766572666c6f77a265627a7a72315820ad004bae09f1905a8d3cf8b283ef7e7fb6d9b1331c0ea9f7f1ffc82a0d8a026664736f6c63430005100032",
  "source": "pragma solidity =0.5.16;\r\nimport \"./Optionsbase.sol\";\r\n/**\r\n * @title Options collateral occupied calculation contract for finnexus proposal v2.\r\n * @dev A Smart-contract for collateral occupied calculation.\r\n *\r\n */\r\ncontract OptionsOccupiedCal is OptionsBase {\r\n\r\n    /**\r\n     * @dev retrieve collateral occupied calculation information.\r\n     */    \r\n    function getOccupiedCalInfo()public view returns(uint256,int256,int256){\r\n        return (occupiedFirstOption,callLatestOccupied,putLatestOccupied);\r\n    }\r\n    /**\r\n     * @dev calculate collateral occupied value, and modify database, only foundation operator can modify database.\r\n     */  \r\n    function setOccupiedCollateral() public onlyOperatorIndex(1) {\r\n        int256 latestCallOccupied = callLatestOccupied;\r\n        int256 latestPutOccupied = putLatestOccupied;\r\n        uint256 lastOption = allOptions.length;\r\n        (uint256 totalCallOccupied,uint256 totalPutOccupied,uint256 beginOption,bool success) = calculatePhaseOccupiedCollateral(lastOption, occupiedFirstOption,lastOption);\r\n        if (success){\r\n            setCollateralPhase(totalCallOccupied,totalPutOccupied,beginOption,latestCallOccupied,latestPutOccupied);\r\n        }\r\n    }\r\n    /**\r\n     * @dev calculate collateral occupied value.\r\n     * @param lastOption last option's position.\r\n     * @param beginOption begin option's poisiton.\r\n     * @param endOption end option's poisiton.\r\n     */  \r\n    function calculatePhaseOccupiedCollateral(uint256 lastOption,uint256 beginOption,uint256 endOption) public view returns(uint256,uint256,uint256,bool){\r\n        if (beginOption <  occupiedFirstOption){\r\n            beginOption =  occupiedFirstOption;\r\n        }\r\n        if (beginOption>=lastOption){\r\n            return (0,0,0,false);\r\n        }\r\n        if (endOption>lastOption) {\r\n            endOption = lastOption;\r\n        }else if(endOption <  occupiedFirstOption){\r\n            return (0,0,0,false);\r\n        }\r\n        (uint256 totalCallOccupied,uint256 totalPutOccupied,uint256 newFirstOption) = _calculateOccupiedCollateral(beginOption,endOption);\r\n        return (totalCallOccupied,totalPutOccupied,newFirstOption,true);\r\n    }\r\n    /**\r\n     * @dev subfunction, calculate collateral occupied value.\r\n     * @param begin begin option's poisiton.\r\n     * @param end end option's poisiton.\r\n     */  \r\n    function _calculateOccupiedCollateral(uint256 begin,uint256 end)internal view returns(uint256,uint256,uint256){\r\n        uint256 newFirstOption;\r\n        (begin,newFirstOption) = getFirstOption(begin, occupiedFirstOption,end);\r\n        uint256[] memory prices = getUnderlyingPrices();\r\n        uint256 totalCallOccupied = 0;\r\n        uint256 totalPutOccupied = 0;\r\n        for (;begin<end;begin++){\r\n            uint256 index = _getEligibleUnderlyingIndex(allOptions[begin].underlying);\r\n            uint256 value = calOptionsCollateral(allOptions[begin],prices[index]);\r\n            if (allOptions[begin].optType == 0){\r\n                totalCallOccupied += value;\r\n            }else{\r\n                totalPutOccupied += value;\r\n            }\r\n        }\r\n        return (totalCallOccupied,totalPutOccupied,newFirstOption);\r\n    }\r\n    /**\r\n     * @dev set collateral occupied value, only foundation operator can modify database.\r\n     * @param totalCallOccupied new call options occupied collateral calculation result.\r\n     * @param totalPutOccupied new put options occupied collateral calculation result.\r\n     * @param beginOption new first valid option's positon.\r\n     * @param latestCallOccpied latest call options' occupied value when operater invoke collateral occupied calculation.\r\n     * @param latestPutOccpied latest put options' occupied value when operater invoke collateral occupied calculation.\r\n     */  \r\n    function setCollateralPhase(uint256 totalCallOccupied,uint256 totalPutOccupied,uint256 beginOption,\r\n            int256 latestCallOccpied,int256 latestPutOccpied) public onlyOperatorIndex(1){\r\n        require(beginOption <= allOptions.length, \"beginOption calculate Error\");\r\n        if (beginOption >  occupiedFirstOption){\r\n             occupiedFirstOption = beginOption;\r\n        }\r\n        callOccupied = totalCallOccupied;\r\n        putOccupied = totalPutOccupied;\r\n        require(latestCallOccpied>=-1e50 && latestCallOccpied<=1e50,\"options fall calculate error\");\r\n        require(latestPutOccpied>=-1e50 && latestPutOccpied<=1e50,\"options fall calculate error\");\r\n        callLatestOccupied -= latestCallOccpied;\r\n        putLatestOccupied -= latestPutOccpied;\r\n    }\r\n\r\n    /**\r\n     * @dev get call options total collateral occupied value.\r\n     */ \r\n    function getCallTotalOccupiedCollateral() public view returns (uint256) {\r\n        if (callLatestOccupied>=0){\r\n            uint256 result = callOccupied+uint256(callLatestOccupied);\r\n            require(result>=callOccupied,\"TotalOccupiedCollateral calculate overflow\");\r\n            return result;\r\n        }else{\r\n            uint256 latestOccupied = uint256(-callLatestOccupied);\r\n            if (callOccupied>latestOccupied){\r\n                return callOccupied - latestOccupied;\r\n            }else{\r\n                return 0;\r\n            }\r\n        }\r\n    }\r\n        /**\r\n     * @dev get put options total collateral occupied value.\r\n     */ \r\n    function getPutTotalOccupiedCollateral() public view returns (uint256) {\r\n        if (putLatestOccupied>=0){\r\n            uint256 result = putOccupied+uint256(putLatestOccupied);\r\n            require(result>=putOccupied,\"TotalOccupiedCollateral calculate overflow\");\r\n            return result;\r\n        }else{\r\n            uint256 latestOccupied = uint256(-putLatestOccupied);\r\n            if (putOccupied>latestOccupied){\r\n                return putOccupied - latestOccupied;\r\n            }else{\r\n                return 0;\r\n            }\r\n        }\r\n    }\r\n    /**\r\n     * @dev get real total collateral occupied value.\r\n     */ \r\n    function getTotalOccupiedCollateral() public view returns (uint256) {\r\n        return getCallTotalOccupiedCollateral() + getPutTotalOccupiedCollateral();\r\n    }\r\n    /**\r\n     * @dev add new option collateral occupied value when user create a new option.\r\n     * @param optionID new option's ID.\r\n     */ \r\n    function _addOptionsCollateral(uint256 optionID) internal {\r\n        OptionsInfo memory info = allOptions[optionID-1];\r\n//        OptionsInfoEx storage infoEx =  optionExtraMap[optionID-1];\r\n        uint256 newOccupied = calOptionsCollateral(info,info.underlyingPrice);\r\n        if (info.optType == 0){\r\n            callLatestOccupied += int256(newOccupied);\r\n        }else{\r\n            putLatestOccupied += int256(newOccupied);\r\n        }\r\n    }\r\n    /**\r\n     * @dev deduct burned option collateral occupied value when user burn option.\r\n     * @param info burned option's information.\r\n     * @param amount burned option's amount.\r\n     * @param underlyingPrice current underlying price.\r\n     */ \r\n    function _burnOptionsCollateral(OptionsInfo memory info,uint256 amount,uint256 underlyingPrice) internal {\r\n        uint256 newOccupied = _getOptionsWorth(info.optType,info.strikePrice,underlyingPrice)*amount;\r\n        require(newOccupied<=1e40,\"Option collateral occupied calculate error\");\r\n        if (info.optType == 0){\r\n            callLatestOccupied -= int256(newOccupied);\r\n        }else{\r\n            putLatestOccupied -= int256(newOccupied);\r\n        }\r\n    }\r\n\r\n}",
  "sourcePath": "C:\\work\\solidity\\finnexusOptions_V2.1\\contracts\\OptionsPool\\OptionsOccupiedCal.sol",
  "compiler": {
    "name": "solc",
    "version": "0.5.16+commit.9c3226ce.Emscripten.clang"
  },
  "schemaVersion": "3.1.0",
  "updatedAt": "2020-10-24T10:45:23.331Z",
  "devdoc": {
    "details": "A Smart-contract for collateral occupied calculation.  ",
    "methods": {
      "addExpiration(uint32)": {
        "details": "Implementation of add an eligible expiration into the expirationList.",
        "params": {
          "expiration": "new eligible expiration."
        }
      },
      "addOperator(address)": {
        "details": "add a new operator by owner.       "
      },
      "addUnderlyingAsset(uint32)": {
        "details": "Implementation of add an eligible underlying into the underlyingAssets.",
        "params": {
          "underlying": "new eligible underlying."
        }
      },
      "buyOptionCheck(uint32,uint32)": {
        "details": "check option's underlying and expiration.",
        "params": {
          "expiration": "option's expiration",
          "underlying": "option's underlying"
        }
      },
      "calculatePhaseOccupiedCollateral(uint256,uint256,uint256)": {
        "details": "calculate collateral occupied value.",
        "params": {
          "beginOption": "begin option's poisiton.",
          "endOption": "end option's poisiton.",
          "lastOption": "last option's position."
        }
      },
      "getBurnedFullPay(uint256,uint256)": {
        "details": "calculate `amount` number of Option's full price when option is burned.",
        "params": {
          "amount": "option's amount",
          "optionID": "option's optionID"
        }
      },
      "getCallTotalOccupiedCollateral()": {
        "details": "get call options total collateral occupied value."
      },
      "getExerciseWorth(uint256,uint256)": {
        "details": "calculate option's exercise worth.",
        "params": {
          "amount": "option's amount",
          "optionsId": "option's id"
        }
      },
      "getExpirationList()": {
        "details": "Implementation of getting the eligible expirationList."
      },
      "getInputAmountRange()": {
        "details": "get the valid range of input amount"
      },
      "getItemTimeLimitation(uint256)": {
        "details": "Retrieve user's start time for burning. ",
        "params": {
          "item": "item key."
        }
      },
      "getManager()": {
        "details": "get manager address.       "
      },
      "getOccupiedCalInfo()": {
        "details": "retrieve collateral occupied calculation information."
      },
      "getOperator()": {
        "details": "get all operators.       "
      },
      "getOptionInfoLength()": {
        "details": "retrieve all option list length. "
      },
      "getOptionInfoList(uint256,uint256)": {
        "details": "retrieve `size` number of options' information. ",
        "params": {
          "from": "all option list begin positon.",
          "size": "retrieve size."
        }
      },
      "getOptionInfoListFromID(uint256[])": {
        "details": "retrieve given `ids` options' information. ",
        "params": {
          "ids": "retrieved options' id."
        }
      },
      "getOptionsById(uint256)": {
        "details": "retrieve given `optionsId` option's information. ",
        "params": {
          "optionsId": "retrieved option's id."
        }
      },
      "getOptionsLimitTimeById(uint256)": {
        "details": "retrieve given `optionsId` option's burned limit timestamp. ",
        "params": {
          "optionsId": "retrieved option's id."
        }
      },
      "getPutTotalOccupiedCollateral()": {
        "details": "get put options total collateral occupied value."
      },
      "getTotalOccupiedCollateral()": {
        "details": "get real total collateral occupied value."
      },
      "getUnderlyingAssets()": {
        "details": "Implementation of getting the eligible underlyingAssets."
      },
      "getUserOptionsID(address)": {
        "details": "retrieve user's options' id. ",
        "params": {
          "user": "user's account."
        }
      },
      "getUserOptionsID(address,uint256,uint256)": {
        "details": "retrieve user's `size` number of options' id. ",
        "params": {
          "from": "user's option list begin positon.",
          "size": "retrieve size.",
          "user": "user's account."
        }
      },
      "isEligibleUnderlyingAsset(uint32)": {
        "details": "Implementation of testing whether the input underlying is eligible.",
        "params": {
          "underlying": "input underlying for testing."
        }
      },
      "isInputAmountInRange(uint256)": {
        "details": "Determine whether the input amount is within the valid range",
        "params": {
          "Amount": "Test value which is user input"
        }
      },
      "isOwner()": {
        "details": "Returns true if the caller is the current owner."
      },
      "owner()": {
        "details": "Returns the address of the current owner."
      },
      "removeExpirationList(uint32)": {
        "details": "Implementation of revoke an invalid expiration from the expirationList.",
        "params": {
          "removeExpiration": "revoked expiration."
        }
      },
      "removeOperator(address)": {
        "details": "remove operator by owner.       "
      },
      "removeUnderlyingAssets(uint32)": {
        "details": "Implementation of revoke an invalid underlying from the underlyingAssets.",
        "params": {
          "removeUnderlying": "revoked underlying."
        }
      },
      "renounceOwnership()": {
        "details": "Leaves the contract without owner. It will not be possible to call `onlyOwner` functions anymore. Can only be called by the current owner.      * NOTE: Renouncing ownership will leave the contract without an owner, thereby removing any functionality that is only available to the owner."
      },
      "setCollateralPhase(uint256,uint256,uint256,int256,int256)": {
        "details": "set collateral occupied value, only foundation operator can modify database.",
        "params": {
          "beginOption": "new first valid option's positon.",
          "latestCallOccpied": "latest call options' occupied value when operater invoke collateral occupied calculation.",
          "latestPutOccpied": "latest put options' occupied value when operater invoke collateral occupied calculation.",
          "totalCallOccupied": "new call options occupied collateral calculation result.",
          "totalPutOccupied": "new put options occupied collateral calculation result."
        }
      },
      "setInputAmountRange(uint256,uint256)": {
        "details": "set the valid range of input amount",
        "params": {
          "_maxAmount": "the maximum input amount limit",
          "_minAmount": "the minimum input amount limit"
        }
      },
      "setManager(address)": {
        "details": "set manager by owner.       "
      },
      "setOccupiedCollateral()": {
        "details": "calculate collateral occupied value, and modify database, only foundation operator can modify database."
      },
      "setOperator(uint256,address)": {
        "details": "modify indexed operator by owner.       "
      },
      "setOperators(address[])": {
        "details": "set all operators by owner.       "
      },
      "setTimeLimitation(uint256)": {
        "details": "set time limitation, only owner can invoke. ",
        "params": {
          "_limitation": "new time limitation."
        }
      },
      "transferOwnership(address)": {
        "details": "Transfers ownership of the contract to a new account (`newOwner`). Can only be called by the current owner."
      }
    },
    "title": "Options collateral occupied calculation contract for finnexus proposal v2."
  },
  "userdoc": {
    "methods": {}
  }
}