{
  "contractName": "OptionsPrice",
  "abi": [
    {
      "inputs": [
        {
          "internalType": "address",
          "name": "ivContract",
          "type": "address"
        }
      ],
      "payable": false,
      "stateMutability": "nonpayable",
      "type": "constructor"
    },
    {
      "anonymous": false,
      "inputs": [
        {
          "indexed": true,
          "internalType": "address",
          "name": "previousOwner",
          "type": "address"
        },
        {
          "indexed": true,
          "internalType": "address",
          "name": "newOwner",
          "type": "address"
        }
      ],
      "name": "OwnershipTransferred",
      "type": "event"
    },
    {
      "constant": true,
      "inputs": [],
      "name": "FIXED_ONE",
      "outputs": [
        {
          "internalType": "int256",
          "name": "",
          "type": "int256"
        }
      ],
      "payable": false,
      "stateMutability": "view",
      "type": "function"
    },
    {
      "constant": true,
      "inputs": [],
      "name": "getVolatilityAddress",
      "outputs": [
        {
          "internalType": "address",
          "name": "",
          "type": "address"
        }
      ],
      "payable": false,
      "stateMutability": "view",
      "type": "function"
    },
    {
      "constant": true,
      "inputs": [],
      "name": "isOwner",
      "outputs": [
        {
          "internalType": "bool",
          "name": "",
          "type": "bool"
        }
      ],
      "payable": false,
      "stateMutability": "view",
      "type": "function"
    },
    {
      "constant": true,
      "inputs": [],
      "name": "owner",
      "outputs": [
        {
          "internalType": "address",
          "name": "",
          "type": "address"
        }
      ],
      "payable": false,
      "stateMutability": "view",
      "type": "function"
    },
    {
      "constant": false,
      "inputs": [],
      "name": "renounceOwnership",
      "outputs": [],
      "payable": false,
      "stateMutability": "nonpayable",
      "type": "function"
    },
    {
      "constant": false,
      "inputs": [
        {
          "internalType": "address",
          "name": "volatility",
          "type": "address"
        }
      ],
      "name": "setVolatilityAddress",
      "outputs": [],
      "payable": false,
      "stateMutability": "nonpayable",
      "type": "function"
    },
    {
      "constant": false,
      "inputs": [
        {
          "internalType": "address",
          "name": "newOwner",
          "type": "address"
        }
      ],
      "name": "transferOwnership",
      "outputs": [],
      "payable": false,
      "stateMutability": "nonpayable",
      "type": "function"
    },
    {
      "constant": true,
      "inputs": [
        {
          "internalType": "uint256",
          "name": "currentPrice",
          "type": "uint256"
        },
        {
          "internalType": "uint256",
          "name": "strikePrice",
          "type": "uint256"
        },
        {
          "internalType": "uint256",
          "name": "expiration",
          "type": "uint256"
        },
        {
          "internalType": "uint32",
          "name": "underlying",
          "type": "uint32"
        },
        {
          "internalType": "uint8",
          "name": "optType",
          "type": "uint8"
        }
      ],
      "name": "getOptionsPrice",
      "outputs": [
        {
          "internalType": "uint256",
          "name": "",
          "type": "uint256"
        }
      ],
      "payable": false,
      "stateMutability": "view",
      "type": "function"
    },
    {
      "constant": true,
      "inputs": [
        {
          "internalType": "uint256",
          "name": "currentPrice",
          "type": "uint256"
        },
        {
          "internalType": "uint256",
          "name": "strikePrice",
          "type": "uint256"
        },
        {
          "internalType": "uint256",
          "name": "expiration",
          "type": "uint256"
        },
        {
          "internalType": "uint256",
          "name": "_iv",
          "type": "uint256"
        },
        {
          "internalType": "uint8",
          "name": "optType",
          "type": "uint8"
        }
      ],
      "name": "getOptionsPrice_iv",
      "outputs": [
        {
          "internalType": "uint256",
          "name": "",
          "type": "uint256"
        }
      ],
      "payable": false,
      "stateMutability": "pure",
      "type": "function"
    },
    {
      "constant": true,
      "inputs": [
        {
          "internalType": "uint256",
          "name": "selfOccupied",
          "type": "uint256"
        },
        {
          "internalType": "uint256",
          "name": "totalOccupied",
          "type": "uint256"
        },
        {
          "internalType": "uint256",
          "name": "totalCollateral",
          "type": "uint256"
        }
      ],
      "name": "calOptionsPriceRatio",
      "outputs": [
        {
          "internalType": "uint256",
          "name": "",
          "type": "uint256"
        }
      ],
      "payable": false,
      "stateMutability": "pure",
      "type": "function"
    }
  ],
  "bytecode": "0x608060405264040000000060025534801561001957600080fd5b506040516112533803806112538339818101604052602081101561003c57600080fd5b505160008054600160a060020a0319163317808255604051600160a060020a039190911691907f8be0079c531659141344cd1fd0a4f28419497f9722a3daafe3b4186f6b6457e0908290a36100998164010000000061009f810204565b5061014e565b6100b064010000000061013d810204565b61011b57604080517f08c379a000000000000000000000000000000000000000000000000000000000815260206004820181905260248201527f4f776e61626c653a2063616c6c6572206973206e6f7420746865206f776e6572604482015290519081900360640190fd5b60018054600160a060020a031916600160a060020a0392909216919091179055565b600054600160a060020a0316331490565b6110f68061015d6000396000f3fe608060405234801561001057600080fd5b50600436106100bb576000357c0100000000000000000000000000000000000000000000000000000000900480638da5cb5b116100835780638da5cb5b1461019c5780638f32d59b146101a4578063f0ead170146101c0578063f22f2543146101c8578063f2fde38b146101f1576100bb565b80632967eafe146100c057806342e5479d146100e85780634b7d8e5c1461010c57806362df80ce1461015c578063715018a614610194575b600080fd5b6100e6600480360360208110156100d657600080fd5b5035600160a060020a0316610217565b005b6100f06102a2565b60408051600160a060020a039092168252519081900360200190f35b61014a600480360360a081101561012257600080fd5b50803590602081013590604081013590606081013563ffffffff16906080013560ff166102b1565b60408051918252519081900360200190f35b61014a600480360360a081101561017257600080fd5b508035906020810135906040810135906060810135906080013560ff166103f0565b6100e661046a565b6100f061051d565b6101ac61052c565b604080519115158252519081900360200190f35b61014a61053d565b61014a600480360360608110156101de57600080fd5b5080359060208101359060400135610546565b6100e66004803603602081101561020757600080fd5b5035600160a060020a03166105bd565b61021f61052c565b610273576040805160e560020a62461bcd02815260206004820181905260248201527f4f776e61626c653a2063616c6c6572206973206e6f7420746865206f776e6572604482015290519081900360640190fd5b6001805473ffffffffffffffffffffffffffffffffffffffff1916600160a060020a0392909216919091179055565b600154600160a060020a031690565b600154604080517f185d123200000000000000000000000000000000000000000000000000000000815263ffffffff8516600482015260ff8416602482015260448101869052606481018890526084810187905290516000928392600160a060020a039091169163185d12329160a480820192602092909190829003018186803b15801561033e57600080fd5b505afa158015610352573d6000803e3d6000fd5b505050506040513d602081101561036857600080fd5b5051905060ff83166103885761038087878784610625565b9150506103e7565b8260ff16600114156103a05761038087878784610689565b60028360ff16106103e55760405160e560020a62461bcd0281526004018080602001828103825260318152602001806110916031913960400191505060405180910390fd5b505b95945050505050565b600060ff821661040d5761040686868686610625565b90506103e7565b8160ff16600114156104255761040686868686610689565b60028260ff16106103e75760405160e560020a62461bcd0281526004018080602001828103825260318152602001806110916031913960400191505060405180910390fd5b61047261052c565b6104c6576040805160e560020a62461bcd02815260206004820181905260248201527f4f776e61626c653a2063616c6c6572206973206e6f7420746865206f776e6572604482015290519081900360640190fd5b60008054604051600160a060020a03909116907f8be0079c531659141344cd1fd0a4f28419497f9722a3daafe3b4186f6b6457e0908390a36000805473ffffffffffffffffffffffffffffffffffffffff19169055565b600054600160a060020a031690565b600054600160a060020a0316331490565b64010000000081565b600082846002021161055e57506401000000006105b6565b60008364010000000086028161057057fe5b046380000000019050600083858161058457fe5b049050602060026003848402026801000000000000000060029390930a91900404808002020464010000000001925050505b9392505050565b6105c561052c565b610619576040805160e560020a62461bcd02815260206004820181905260248201527f4f776e61626c653a2063616c6c6572206973206e6f7420746865206f776e6572604482015290519081900360640190fd5b610622816106d6565b50565b600080600061063687878787610786565b9150915061064382610817565b915061064e81610817565b90508581028783020391506000821361066857600061067e565b6401000000006000808412900380841891909104185b979650505050505050565b600080600061069a87878787610786565b915091506106a782610817565b91506106b281610817565b6401000000009283038802920386029182039190506000821361066857600061067e565b600160a060020a03811661071e5760405160e560020a62461bcd02815260040180806020018281038252602681526020018061106b6026913960400191505060405180910390fd5b60008054604051600160a060020a03808516939216917f8be0079c531659141344cd1fd0a4f28419497f9722a3daafe3b4186f6b6457e091a36000805473ffffffffffffffffffffffffffffffffffffffff1916600160a060020a0392909216919091179055565b60008080858711156107b2576107ab866401000000008902816107a557fe5b04610961565b90506107d3565b858710156107d3576107cd876401000000008802816107a557fe5b60000390505b6301e1338064020000000085800204860204908101906107f5600282026109e7565b90508064010000000083028161080757fe5b0598908903975095505050505050565b60008082128015610829578260000392505b640600000000831315610851578061084657640100000000610849565b60005b91505061095c565b633b4ce231600064010000000085830282811283039081188290041801680100000000000000008161087f57fe5b05905064020000000085800205945061089785610a25565b67662114cf00000000816108a757fe5b6801000000000000000060006401548cdd6f640100000000868002838112840390811882900418808802848112850390811883900418808902858112860390811884900418808a028681128703908118949094049093189384026401d23dd4ee199093026401c80ef026909102635b47c396199092026351c2fcea8a02019190910101019490930484028181129091039081189190910418965090846109535764010000000096909603955b86955050505050505b919050565b60006401000000008210156109c0576040805160e560020a62461bcd02815260206004820181905260248201527f6c6f67652066756e6374696f6e20696e70757420697320746f6f20736d616c6c604482015290519081900360640190fd5b60006109cb83610a93565b67010000000000000066b17217f7d1cf78909102049392505050565b6401000000000280600260018201045b81811015610a1f57809150600281828581610a0e57fe5b040181610a1757fe5b0490506109f7565b50919050565b600064386bfdba29821115610a84576040805160e560020a62461bcd02815260206004820152601e60248201527f6578702066756e6374696f6e20696e707574206973206f766572666c6f770000604482015290519081900360640190fd5b610a8d82610b60565b92915050565b6000640100000000821015610af2576040805160e560020a62461bcd02815260206004820152601760248201527f4c6f673220696e70757420697320746f6f20736d616c6c000000000000000000604482015290519081900360640190fd5b60005b6402000000008310610b135760029092049164010000000001610af5565b60005b602060ff82161015610b59576401000000008480020493506402000000008410610b51576002938490049360ff601f83900316900a91909101905b600101610b16565b5092915050565b600080602060ff1660019060020a0290506000816fde1bc4d19efcac82445da75b00000000029050602060ff16848302908060020a82049150509150816fde1bc4d19efcb00000000000000000000281019050602060ff16848302908060020a82049150509150816f6f0de268cf7e580000000000000000000281019050602060ff16848302908060020a82049150509150816f2504a0cd9a7f720000000000000000000281019050602060ff16848302908060020a82049150509150816f09412833669fdc8000000000000000000281019050602060ff16848302908060020a82049150509150816f01d9d4d714865f5000000000000000000281019050602060ff16848302908060020a82049150509150816e4ef8ce836bba8c00000000000000000281019050602060ff16848302908060020a82049150509150816e0b481d807d1aa680000000000000000281019050602060ff16848302908060020a82049150509150816e016903b00fa354d0000000000000000281019050602060ff16848302908060020a82049150509150816d281cdaac677b34000000000000000281019050602060ff16848302908060020a82049150509150816d0402e2aad725eb800000000000000281019050602060ff16848302908060020a82049150509150816c5d5a6c9f31fe240000000000000281019050602060ff16848302908060020a82049150509150816c07c7890d442a830000000000000281019050602060ff16848302908060020a82049150509150816b9931ed5403452800000000000281019050602060ff16848302908060020a82049150509150816b0af147cf24ce1500000000000281019050602060ff16848302908060020a82049150509150816abac08546b867d0000000000281019050602060ff16848302908060020a82049150509150816a0bac08546b867d000000000281019050602060ff16848302908060020a820491505091508169afc441338061b80000000281019050602060ff16848302908060020a82049150509150816909c3cabbc0056e0000000281019050602060ff16848302908060020a820491505091508168839168328705c800000281019050602060ff16848302908060020a8204915050915081680694120286c04a00000281019050602060ff16848302908060020a82049150509150816750319e98b3d2c4000281019050602060ff16848302908060020a82049150509150816703a52a1e36b820200281019050602060ff16848302908060020a820491505091508166289286e0fce0020281019050602060ff16848302908060020a82049150509150816601b0c59eb534000281019050602060ff16848302908060020a820491505091508165114f95b554000281019050602060ff16848302908060020a820491505091508164aa7210d2000281019050602060ff16848302908060020a82049150509150816406501396000281019050602060ff16848302908060020a82049150509150816339b78e800281019050602060ff16848302908060020a82049150509150816301fd80800281019050602060ff16848302908060020a82049150509150816210fbc00281019050602060ff16848302908060020a8204915050915081618c400281019050602060ff16848302908060020a82049150509150816104620281019050602060ff16848302908060020a8204915050915081602202810190506fde1bc4d19efcac82445da75b00000000818161106157fe5b0494935050505056fe4f776e61626c653a206e6577206f776e657220697320746865207a65726f2061646472657373204d75737420696e707574203020666f722063616c6c206f7074696f6e206f72203120666f7220707574206f7074696f6ea265627a7a7231582091c805b6919c11c590a099a8c5d13b2cb6ebfbd6d18b1698f689f502fd83601f64736f6c63430005100032",
  "source": "pragma solidity =0.5.16;\r\n\r\nimport \"./modules/Ownable.sol\";\r\nimport \"./interfaces/IVolatility.sol\";\r\nimport \"./modules/SmallNumbers.sol\";\r\n/**\r\n * @title Options price calculation contract.\r\n * @dev calculate options' price, using B-S formulas.\r\n *\r\n */\r\ncontract OptionsPrice is ImportVolatility{\r\n    // one year seconds\r\n    uint256 constant internal Year = 365 days;\r\n    int256 constant public FIXED_ONE = 1 << 32; // 0x100000000\r\n    uint256 internal ratioR2 = 4<<32;\r\n    \r\n    /**\r\n     * @dev constructor function , setting contract address.\r\n     */  \r\n    constructor (address ivContract) public{\r\n        setVolatilityAddress(ivContract);\r\n    }\r\n\r\n    /**\r\n     * @dev calculate option's price using B_S formulas\r\n     * @param currentPrice current underlying price.\r\n     * @param strikePrice option's strike price.\r\n     * @param expiration option's expiration left time. Equal option's expiration timestamp - now.\r\n     * @param underlying option's underlying id, 1 for BTC, 2 for ETH.\r\n     * @param optType option's type, 0 for CALL, 2 for PUT.\r\n     */\r\n    function getOptionsPrice(uint256 currentPrice, uint256 strikePrice, uint256 expiration,uint32 underlying,uint8 optType)public view returns (uint256){\r\n         uint256 _iv = _volatility.calculateIv(underlying,optType,expiration,currentPrice,strikePrice);\r\n        if (optType == 0) {\r\n            return callOptionsPrice(currentPrice,strikePrice,expiration,_iv);\r\n        }else if (optType == 1){\r\n            return putOptionsPrice(currentPrice,strikePrice,expiration,_iv);\r\n        }else{\r\n            require(optType<2,\" Must input 0 for call option or 1 for put option\");\r\n        }\r\n    }\r\n    /**\r\n     * @dev calculate option's price using B_S formulas with user input iv.\r\n     * @param currentPrice current underlying price.\r\n     * @param strikePrice option's strike price.\r\n     * @param expiration option's expiration left time. Equal option's expiration timestamp - now.\r\n     * @param _iv user input iv numerator.\r\n     * @param optType option's type, 0 for CALL, 2 for PUT.\r\n     */\r\n    function getOptionsPrice_iv(uint256 currentPrice, uint256 strikePrice, uint256 expiration,\r\n            uint256 _iv,uint8 optType)public pure returns (uint256){\r\n        if (optType == 0) {\r\n            return callOptionsPrice(currentPrice,strikePrice,expiration,_iv);\r\n        }else if (optType == 1){\r\n            return putOptionsPrice(currentPrice,strikePrice,expiration,_iv);\r\n        }else{\r\n            require(optType<2,\" Must input 0 for call option or 1 for put option\");\r\n        }\r\n    }\r\n    /**\r\n     * @dev An auxiliary function, calculate parameter d1 and d2 in B_S formulas.\r\n     * @param currentPrice current underlying price.\r\n     * @param strikePrice option's strike price.\r\n     * @param expiration option's expiration left time. Equal option's expiration timestamp - now.\r\n     * @param derta implied volatility value in B-S formulas.\r\n     */\r\n    function calculateD1D2(uint256 currentPrice, uint256 strikePrice, uint256 expiration, uint256 derta) \r\n            internal pure returns (int256,int256) {\r\n        int256 d1 = 0;\r\n        if (currentPrice > strikePrice){\r\n            d1 = int256(SmallNumbers.fixedLoge((currentPrice<<32)/strikePrice));\r\n        }else if (currentPrice<strikePrice){\r\n            d1 = -int256(SmallNumbers.fixedLoge((strikePrice<<32)/currentPrice));\r\n        }\r\n        uint256 derta2 = (derta*derta)>>33;//0.5*derta^2\r\n        derta2 = derta2*expiration/Year;\r\n        d1 = d1+int256(derta2);\r\n        derta2 = SmallNumbers.sqrt(derta2*2);\r\n        d1 = (d1<<32)/int256(derta2);\r\n        return (d1, d1 - int256(derta2));\r\n    }\r\n    /**\r\n     * @dev An auxiliary function, calculate put option price using B_S formulas.\r\n     * @param currentPrice current underlying price.\r\n     * @param strikePrice option's strike price.\r\n     * @param expiration option's expiration left time. Equal option's expiration timestamp - now.\r\n     * @param derta implied volatility value in B-S formulas.\r\n     */\r\n    //L*pow(e,-rT)*(1-N(d2)) - S*(1-N(d1))\r\n    function putOptionsPrice(uint256 currentPrice, uint256 strikePrice, uint256 expiration, uint256 derta) \r\n                internal pure returns (uint256) {\r\n       (int256 d1, int256 d2) = calculateD1D2(currentPrice, strikePrice, expiration, derta);\r\n        d1 = SmallNumbers.normsDist(d1);\r\n        d2 = SmallNumbers.normsDist(d2);\r\n        d1 = (FIXED_ONE - d1)*int256(currentPrice);\r\n        d2 = (FIXED_ONE - d2)*int256(strikePrice);\r\n        d1 = d2 - d1;\r\n        return (d1>0) ? uint256(d1>>32) : 0;\r\n    }\r\n    /**\r\n     * @dev An auxiliary function, calculate call option price using B_S formulas.\r\n     * @param currentPrice current underlying price.\r\n     * @param strikePrice option's strike price.\r\n     * @param expiration option's expiration left time. Equal option's expiration timestamp - now.\r\n     * @param derta implied volatility value in B-S formulas.\r\n     */\r\n    //S*N(d1)-L*pow(e,-rT)*N(d2)\r\n    function callOptionsPrice(uint256 currentPrice, uint256 strikePrice, uint256 expiration, uint256 derta) \r\n                internal pure returns (uint256) {\r\n       (int256 d1, int256 d2) = calculateD1D2(currentPrice, strikePrice, expiration, derta);\r\n        d1 = SmallNumbers.normsDist(d1);\r\n        d2 = SmallNumbers.normsDist(d2);\r\n        d1 = d1*int256(currentPrice)-d2*int256(strikePrice);\r\n        return (d1>0) ? uint256(d1>>32) : 0;\r\n    }\r\n    function calOptionsPriceRatio(uint256 selfOccupied,uint256 totalOccupied,uint256 totalCollateral) public pure returns (uint256){\r\n        //r1 + 0.5\r\n        if (selfOccupied*2<=totalOccupied){\r\n            return 4294967296;\r\n        }\r\n        uint256 r1 = (selfOccupied<<32)/totalOccupied+2147483648;\r\n        uint256 r2 = totalOccupied/totalCollateral;\r\n        //r1*r2*1.5\r\n        r1 = (r1*r2*3/2)>>32;\r\n        return ((r1*r1*r1)>>64)+4294967296;\r\n//        return SmallNumbers.pow(r1,r2);\r\n    }\r\n}",
  "sourcePath": "C:\\work\\solidity\\finnexusOptions_V2.1\\contracts\\optionsPrice.sol",
  "compiler": {
    "name": "solc",
    "version": "0.5.16+commit.9c3226ce.Emscripten.clang"
  },
  "schemaVersion": "3.1.0",
  "updatedAt": "2020-10-24T10:45:23.503Z",
  "devdoc": {
    "details": "calculate options' price, using B-S formulas.  ",
    "methods": {
      "constructor": {
        "details": "constructor function , setting contract address."
      },
      "getOptionsPrice(uint256,uint256,uint256,uint32,uint8)": {
        "details": "calculate option's price using B_S formulas",
        "params": {
          "currentPrice": "current underlying price.",
          "expiration": "option's expiration left time. Equal option's expiration timestamp - now.",
          "optType": "option's type, 0 for CALL, 2 for PUT.",
          "strikePrice": "option's strike price.",
          "underlying": "option's underlying id, 1 for BTC, 2 for ETH."
        }
      },
      "getOptionsPrice_iv(uint256,uint256,uint256,uint256,uint8)": {
        "details": "calculate option's price using B_S formulas with user input iv.",
        "params": {
          "_iv": "user input iv numerator.",
          "currentPrice": "current underlying price.",
          "expiration": "option's expiration left time. Equal option's expiration timestamp - now.",
          "optType": "option's type, 0 for CALL, 2 for PUT.",
          "strikePrice": "option's strike price."
        }
      },
      "isOwner()": {
        "details": "Returns true if the caller is the current owner."
      },
      "owner()": {
        "details": "Returns the address of the current owner."
      },
      "renounceOwnership()": {
        "details": "Leaves the contract without owner. It will not be possible to call `onlyOwner` functions anymore. Can only be called by the current owner.      * NOTE: Renouncing ownership will leave the contract without an owner, thereby removing any functionality that is only available to the owner."
      },
      "transferOwnership(address)": {
        "details": "Transfers ownership of the contract to a new account (`newOwner`). Can only be called by the current owner."
      }
    },
    "title": "Options price calculation contract."
  },
  "userdoc": {
    "methods": {}
  }
}