{
  "contractName": "oracleBridge",
  "abi": [
    {
      "inputs": [],
      "payable": false,
      "stateMutability": "nonpayable",
      "type": "constructor"
    },
    {
      "anonymous": false,
      "inputs": [
        {
          "indexed": true,
          "internalType": "address",
          "name": "previousOwner",
          "type": "address"
        },
        {
          "indexed": true,
          "internalType": "address",
          "name": "newOwner",
          "type": "address"
        }
      ],
      "name": "OwnershipTransferred",
      "type": "event"
    },
    {
      "constant": true,
      "inputs": [],
      "name": "getFnxPriceDbAddress",
      "outputs": [
        {
          "internalType": "address",
          "name": "",
          "type": "address"
        }
      ],
      "payable": false,
      "stateMutability": "view",
      "type": "function"
    },
    {
      "constant": true,
      "inputs": [],
      "name": "isOwner",
      "outputs": [
        {
          "internalType": "bool",
          "name": "",
          "type": "bool"
        }
      ],
      "payable": false,
      "stateMutability": "view",
      "type": "function"
    },
    {
      "constant": true,
      "inputs": [],
      "name": "owner",
      "outputs": [
        {
          "internalType": "address",
          "name": "",
          "type": "address"
        }
      ],
      "payable": false,
      "stateMutability": "view",
      "type": "function"
    },
    {
      "constant": false,
      "inputs": [],
      "name": "renounceOwnership",
      "outputs": [],
      "payable": false,
      "stateMutability": "nonpayable",
      "type": "function"
    },
    {
      "constant": false,
      "inputs": [
        {
          "internalType": "address",
          "name": "priceAddr",
          "type": "address"
        }
      ],
      "name": "setFnxPriceDbAddress",
      "outputs": [],
      "payable": false,
      "stateMutability": "nonpayable",
      "type": "function"
    },
    {
      "constant": false,
      "inputs": [
        {
          "internalType": "address",
          "name": "newOwner",
          "type": "address"
        }
      ],
      "name": "transferOwnership",
      "outputs": [],
      "payable": false,
      "stateMutability": "nonpayable",
      "type": "function"
    },
    {
      "constant": true,
      "inputs": [
        {
          "internalType": "address",
          "name": "asset",
          "type": "address"
        }
      ],
      "name": "getPrice",
      "outputs": [
        {
          "internalType": "uint256",
          "name": "",
          "type": "uint256"
        }
      ],
      "payable": false,
      "stateMutability": "view",
      "type": "function"
    },
    {
      "constant": true,
      "inputs": [
        {
          "internalType": "uint256",
          "name": "underlying",
          "type": "uint256"
        }
      ],
      "name": "getUnderlyingPrice",
      "outputs": [
        {
          "internalType": "uint256",
          "name": "",
          "type": "uint256"
        }
      ],
      "payable": false,
      "stateMutability": "view",
      "type": "function"
    }
  ],
  "bytecode": "0x608060405234801561001057600080fd5b5060008054600160a060020a0319163317808255604051600160a060020a039190911691907f8be0079c531659141344cd1fd0a4f28419497f9722a3daafe3b4186f6b6457e0908290a360408051808201909152600381527f57414e00000000000000000000000000000000000000000000000000000000006020808301918252600080526002905290516100c6917fac33ff75c19e70fe83507db0d683fd3465c996598dc972688b7ace676c89077b9161022b565b5060408051808201909152600381527f464e580000000000000000000000000000000000000000000000000000000000602080830191825273df228001e053641fad2bd84986413af3bed03e0b600052600290529051610147917f7643740f0f7064d71d9bd52550b620ac699b9764c980a1a3899dfc24732db07e9161022b565b506040805180820190915260038082527f4254430000000000000000000000000000000000000000000000000000000000602080840191825260016000529190915290516101b6917fa15bc60c955c405d20d9149c709e2460f1c2d9a497496a7f46004d1772c3054c9161022b565b506040805180820190915260038082527f455448000000000000000000000000000000000000000000000000000000000060208084019182526002600052919091529051610225917fc3a24b0501bd2c13a7e57f2db4369ec4c223447539fc0724a9d55ac4a06ebd4d9161022b565b506102c6565b828054600181600116156101000203166002900490600052602060002090601f016020900481019282601f1061026c57805160ff1916838001178555610299565b82800160010185558215610299579182015b8281111561029957825182559160200191906001019061027e565b506102a59291506102a9565b5090565b6102c391905b808211156102a557600081556001016102af565b90565b61092d806102d56000396000f3fe608060405234801561001057600080fd5b50600436106100a5576000357c0100000000000000000000000000000000000000000000000000000000900480639436bfff116100785780639436bfff1461012c578063c891ea1514610134578063da6632571461015a578063f2fde38b14610177576100a5565b806341976e09146100aa578063715018a6146100e25780638da5cb5b146100ec5780638f32d59b14610110575b600080fd5b6100d0600480360360208110156100c057600080fd5b5035600160a060020a031661019d565b60408051918252519081900360200190f35b6100ea610400565b005b6100f46104b3565b60408051600160a060020a039092168252519081900360200190f35b6101186104c2565b604080519115158252519081900360200190f35b6100f46104d3565b6100ea6004803603602081101561014a57600080fd5b5035600160a060020a03166104e2565b6100d06004803603602081101561017057600080fd5b503561056d565b6100ea6004803603602081101561018d57600080fd5b5035600160a060020a03166107ba565b600160a060020a0381166000908152600260208181526040808420805482516001821615610100026000190190911694909404601f81018490048402850184019092528184526060939290919083018282801561023b5780601f106102105761010080835404028352916020019161023b565b820191906000526020600020905b81548152906001019060200180831161021e57829003601f168201915b50505050509050600081511161029b576040805160e560020a62461bcd02815260206004820152601760248201527f4173736574206973206e6f7420737570706f7274656421000000000000000000604482015290519081900360640190fd5b6001546040517f524f3889000000000000000000000000000000000000000000000000000000008152602060048201818152845160248401528451600094600160a060020a03169363524f3889938793928392604401918501908083838b5b838110156103125781810151838201526020016102fa565b50505050905090810190601f16801561033f5780820380516001836020036101000a031916815260200191505b509250505060206040518083038186803b15801561035c57600080fd5b505afa158015610370573d6000803e3d6000fd5b505050506040513d602081101561038657600080fd5b505190506064811180156103a1575067100000000000000081105b6103f5576040805160e560020a62461bcd02815260206004820152601a60248201527f417373657420707269636520697320676f74206661696c656421000000000000604482015290519081900360640190fd5b600a90049392505050565b6104086104c2565b61045c576040805160e560020a62461bcd02815260206004820181905260248201527f4f776e61626c653a2063616c6c6572206973206e6f7420746865206f776e6572604482015290519081900360640190fd5b60008054604051600160a060020a03909116907f8be0079c531659141344cd1fd0a4f28419497f9722a3daafe3b4186f6b6457e0908390a36000805473ffffffffffffffffffffffffffffffffffffffff19169055565b600054600160a060020a031690565b600054600160a060020a0316331490565b600154600160a060020a031690565b6104ea6104c2565b61053e576040805160e560020a62461bcd02815260206004820181905260248201527f4f776e61626c653a2063616c6c6572206973206e6f7420746865206f776e6572604482015290519081900360640190fd5b6001805473ffffffffffffffffffffffffffffffffffffffff1916600160a060020a0392909216919091179055565b600081815260036020908152604080832080548251601f600260001961010060018616150201909316929092049182018590048502810185019093528083526060938301828280156106005780601f106105d557610100808354040283529160200191610600565b820191906000526020600020905b8154815290600101906020018083116105e357829003601f168201915b505050505090506000815111610660576040805160e560020a62461bcd02815260206004820152601760248201527f4173736574206973206e6f7420737570706f7274656421000000000000000000604482015290519081900360640190fd5b6001546040517f524f3889000000000000000000000000000000000000000000000000000000008152602060048201818152845160248401528451600094600160a060020a03169363524f3889938793928392604401918501908083838b5b838110156106d75781810151838201526020016106bf565b50505050905090810190601f1680156107045780820380516001836020036101000a031916815260200191505b509250505060206040518083038186803b15801561072157600080fd5b505afa158015610735573d6000803e3d6000fd5b505050506040513d602081101561074b57600080fd5b50519050606481118015610766575067100000000000000081105b6103f5576040805160e560020a62461bcd02815260206004820152601f60248201527f756e6465726c79696e6720707269636520697320676f74206661696c65642100604482015290519081900360640190fd5b6107c26104c2565b610816576040805160e560020a62461bcd02815260206004820181905260248201527f4f776e61626c653a2063616c6c6572206973206e6f7420746865206f776e6572604482015290519081900360640190fd5b61081f81610822565b50565b600160a060020a03811661086a5760405160e560020a62461bcd0281526004018080602001828103825260268152602001806108d36026913960400191505060405180910390fd5b60008054604051600160a060020a03808516939216917f8be0079c531659141344cd1fd0a4f28419497f9722a3daafe3b4186f6b6457e091a36000805473ffffffffffffffffffffffffffffffffffffffff1916600160a060020a039290921691909117905556fe4f776e61626c653a206e6577206f776e657220697320746865207a65726f2061646472657373a265627a7a7231582082c7c74ee85c548edfb3e365a09a379df13ab6793002aa28d3c0819ed5ce482c64736f6c63430005100032",
  "source": "pragma solidity =0.5.16;\r\nimport \"./interfaces/IFnxPriceDb.sol\";\r\ncontract oracleBridge is ImportFnxPriceDb {\r\n    mapping (address=>string) private assetsMap;\r\n    mapping (uint256=>string) private underlyingsMap;\r\n    uint256 constant private maxPrice = 1<<60;\r\n    uint256 constant private minPrice = 100;\r\n    constructor () public{\r\n        assetsMap[address(0)] = \"WAN\";\r\n        assetsMap[0xdF228001e053641FAd2BD84986413Af3BeD03E0B] = \"FNX\";\r\n        underlyingsMap[1] = \"BTC\";\r\n        underlyingsMap[2] = \"ETH\";\r\n    }\r\n    function getPrice(address asset) public view returns (uint256) {\r\n        string memory symbol = assetsMap[asset];\r\n        require(bytes(symbol).length > 0,\"Asset is not supported!\");\r\n        uint256 price = _FnxPriceDb.getPrice(symbol);\r\n        require(price > minPrice && price < maxPrice,\"Asset price is got failed!\");\r\n        return price / 10;\r\n\r\n    }\r\n    function getUnderlyingPrice(uint256 underlying) public view returns (uint256) {\r\n        string memory symbol = underlyingsMap[underlying];\r\n        require(bytes(symbol).length > 0,\"Asset is not supported!\");\r\n        uint256 price = _FnxPriceDb.getPrice(symbol);\r\n        require(price > minPrice && price < maxPrice,\"underlying price is got failed!\");\r\n        return price / 10;\r\n    }\r\n}\r\n",
  "sourcePath": "C:\\work\\solidity\\finnexusOptions_V2.1\\contracts\\oracleBridge.sol",
  "compiler": {
    "name": "solc",
    "version": "0.5.16+commit.9c3226ce.Emscripten.clang"
  },
  "schemaVersion": "3.1.0",
  "updatedAt": "2020-10-24T10:45:23.520Z",
  "devdoc": {
    "methods": {
      "isOwner()": {
        "details": "Returns true if the caller is the current owner."
      },
      "owner()": {
        "details": "Returns the address of the current owner."
      },
      "renounceOwnership()": {
        "details": "Leaves the contract without owner. It will not be possible to call `onlyOwner` functions anymore. Can only be called by the current owner.      * NOTE: Renouncing ownership will leave the contract without an owner, thereby removing any functionality that is only available to the owner."
      },
      "transferOwnership(address)": {
        "details": "Transfers ownership of the contract to a new account (`newOwner`). Can only be called by the current owner."
      }
    }
  },
  "userdoc": {
    "methods": {}
  }
}