{
  "contractName": "SmallNumbers",
  "abi": [
    {
      "constant": true,
      "inputs": [],
      "name": "FIXED_64",
      "outputs": [
        {
          "internalType": "int256",
          "name": "",
          "type": "int256"
        }
      ],
      "payable": false,
      "stateMutability": "view",
      "type": "function"
    },
    {
      "constant": true,
      "inputs": [],
      "name": "FIXED_ONE",
      "outputs": [
        {
          "internalType": "uint256",
          "name": "",
          "type": "uint256"
        }
      ],
      "payable": false,
      "stateMutability": "view",
      "type": "function"
    }
  ],
  "bytecode": "0x60c7610025600b82828239805160001a60731461001857fe5b30600052607381538281f3fe73000000000000000000000000000000000000000030146080604052600436106059577c01000000000000000000000000000000000000000000000000000000006000350463dc3fe83e8114605e578063f0ead170146076575b600080fd5b6064607c565b60408051918252519081900360200190f35b60646089565b6801000000000000000081565b6401000000008156fea265627a7a72315820981255952bf8ac8878848a6c0bd035b22ae1417f03439b9bf52ce115f57aaa7564736f6c63430005100032",
  "source": "pragma solidity =0.5.16;\r\n    /**\r\n     * @dev Implementation of a Fraction number operation library.\r\n     */\r\nlibrary SmallNumbers {\r\n//    using Fraction for fractionNumber;\r\n    int256 constant private sqrtNum = 1<<120;\r\n    int256 constant private shl = 80;\r\n    uint8 constant private PRECISION   = 32;  // fractional bits\r\n    uint256 constant public FIXED_ONE = uint256(1) << PRECISION; // 0x100000000\r\n    int256 constant public FIXED_64 = 1 << 64; // 0x100000000\r\n    uint256 constant private FIXED_TWO = uint256(2) << PRECISION; // 0x200000000\r\n    int256 constant private FIXED_SIX = int256(6) << PRECISION; // 0x200000000\r\n    uint256 constant private MAX_VAL   = uint256(1) << (256 - PRECISION); // 0x0000000100000000000000000000000000000000000000000000000000000000\r\n\r\n    /**\r\n     * @dev Standard normal cumulative distribution function\r\n     */\r\n    function normsDist(int256 xNum) internal pure returns (int256) {\r\n        bool _isNeg = xNum<0;\r\n        if (_isNeg) {\r\n            xNum = -xNum;\r\n        }\r\n        if (xNum > FIXED_SIX){\r\n            return _isNeg ? 0 : int256(FIXED_ONE);\r\n        } \r\n        // constant int256 b1 = 1371733226;\r\n        // constant int256 b2 = -1531429783;\r\n        // constant int256 b3 = 7651389478;\r\n        // constant int256 b4 = -7822234863;\r\n        // constant int256 b5 = 5713485167;\r\n        //t = 1.0/(1.0 + p*x);\r\n        int256 p = 994894385;\r\n        int256 t = FIXED_64/(((p*xNum)>>PRECISION)+int256(FIXED_ONE));\r\n        //double val = 1 - (1/(Math.sqrt(2*Math.PI))  * Math.exp(-1*Math.pow(a, 2)/2)) * (b1*t + b2 * Math.pow(t,2) + b3*Math.pow(t,3) + b4 * Math.pow(t,4) + b5 * Math.pow(t,5) );\r\n        //1.0 - (-x * x / 2.0).exp()/ (2.0*pi()).sqrt() * t * (a1 + t * (-0.356563782 + t * (1.781477937 + t * (-1.821255978 + t * 1.330274429)))) ;\r\n        xNum=xNum*xNum/int256(FIXED_TWO);\r\n        xNum = int256(7359186145390886912/fixedExp(uint256(xNum)));\r\n        int256 tt = t;\r\n        int256 All = 1371733226*tt;\r\n        tt = (tt*t)>>PRECISION;\r\n        All += -1531429783*tt;\r\n        tt = (tt*t)>>PRECISION;\r\n        All += 7651389478*tt;\r\n        tt = (tt*t)>>PRECISION;\r\n        All += -7822234863*tt;\r\n        tt = (tt*t)>>PRECISION;\r\n        All += 5713485167*tt;\r\n        xNum = (xNum*All)>>64;\r\n        if (!_isNeg) {\r\n            xNum = uint64(FIXED_ONE) - xNum;\r\n        }\r\n        return xNum;\r\n    }\r\n    function pow(uint256 _x,uint256 _y) internal pure returns (uint256){\r\n        _x = (ln(_x)*_y)>>PRECISION;\r\n        return fixedExp(_x);\r\n    }\r\n\r\n    //This is where all your gas goes, sorry\r\n    //Not sorry, you probably only paid 1 gwei\r\n    function sqrt(uint x) internal pure returns (uint y) {\r\n        x = x << PRECISION;\r\n        uint z = (x + 1) / 2;\r\n        y = x;\r\n        while (z < y) {\r\n            y = z;\r\n            z = (x / z + z) / 2;\r\n        }\r\n    }\r\n    function ln(uint256 _x)  internal pure returns (uint256) {\r\n        return fixedLoge(_x);\r\n    }\r\n        /**\r\n        input range: \r\n            [0x100000000,uint256_max]\r\n        output range:\r\n            [0, 0x9b43d4f8d6]\r\n\r\n        This method asserts outside of bounds\r\n\r\n    */\r\n    function fixedLoge(uint256 _x) internal pure returns (uint256 logE) {\r\n        /*\r\n        Since `fixedLog2_min` output range is max `0xdfffffffff` \r\n        (40 bits, or 5 bytes), we can use a very large approximation\r\n        for `ln(2)`. This one is used since it’s the max accuracy \r\n        of Python `ln(2)`\r\n\r\n        0xb17217f7d1cf78 = ln(2) * (1 << 56)\r\n        \r\n        */\r\n        //Cannot represent negative numbers (below 1)\r\n        require(_x >= FIXED_ONE,\"loge function input is too small\");\r\n\r\n        uint256 _log2 = fixedLog2(_x);\r\n        logE = (_log2 * 0xb17217f7d1cf78) >> 56;\r\n    }\r\n\r\n    /**\r\n        Returns log2(x >> 32) << 32 [1]\r\n        So x is assumed to be already upshifted 32 bits, and \r\n        the result is also upshifted 32 bits. \r\n        \r\n        [1] The function returns a number which is lower than the \r\n        actual value\r\n\r\n        input-range : \r\n            [0x100000000,uint256_max]\r\n        output-range: \r\n            [0,0xdfffffffff]\r\n\r\n        This method asserts outside of bounds\r\n\r\n    */\r\n    function fixedLog2(uint256 _x) internal pure returns (uint256) {\r\n        // Numbers below 1 are negative. \r\n        require( _x >= FIXED_ONE,\"Log2 input is too small\");\r\n\r\n        uint256 hi = 0;\r\n        while (_x >= FIXED_TWO) {\r\n            _x >>= 1;\r\n            hi += FIXED_ONE;\r\n        }\r\n\r\n        for (uint8 i = 0; i < PRECISION; ++i) {\r\n            _x = (_x * _x) / FIXED_ONE;\r\n            if (_x >= FIXED_TWO) {\r\n                _x >>= 1;\r\n                hi += uint256(1) << (PRECISION - 1 - i);\r\n            }\r\n        }\r\n\r\n        return hi;\r\n    }\r\n    function exp(int256 _x)internal pure returns (uint256){\r\n        bool _isNeg = _x<0;\r\n        if (_isNeg) {\r\n            _x = -_x;\r\n        }\r\n        uint256 value = fixedExp(uint256(_x));\r\n        if (_isNeg){\r\n            return uint256(FIXED_64) / value;\r\n        }\r\n        return value;\r\n    }\r\n    /**\r\n        fixedExp is a ‘protected’ version of `fixedExpUnsafe`, which \r\n        asserts instead of overflows\r\n    */\r\n    function fixedExp(uint256 _x) internal pure returns (uint256) {\r\n        require(_x <= 0x386bfdba29,\"exp function input is overflow\");\r\n        return fixedExpUnsafe(_x);\r\n    }\r\n       /**\r\n        fixedExp \r\n        Calculates e^x according to maclauren summation:\r\n\r\n        e^x = 1+x+x^2/2!...+x^n/n!\r\n\r\n        and returns e^(x>>32) << 32, that is, upshifted for accuracy\r\n\r\n        Input range:\r\n            - Function ok at    <= 242329958953 \r\n            - Function fails at >= 242329958954\r\n\r\n        This method is is visible for testcases, but not meant for direct use. \r\n \r\n        The values in this method been generated via the following python snippet: \r\n\r\n        def calculateFactorials():\r\n            “”\"Method to print out the factorials for fixedExp”“”\r\n\r\n            ni = []\r\n            ni.append( 295232799039604140847618609643520000000) # 34!\r\n            ITERATIONS = 34\r\n            for n in range( 1,  ITERATIONS,1 ) :\r\n                ni.append(math.floor(ni[n - 1] / n))\r\n            print( “\\n        “.join([“xi = (xi * _x) >> PRECISION;\\n        res += xi * %s;” % hex(int(x)) for x in ni]))\r\n\r\n    */\r\n    function fixedExpUnsafe(uint256 _x) internal pure returns (uint256) {\r\n    \r\n        uint256 xi = FIXED_ONE;\r\n        uint256 res = 0xde1bc4d19efcac82445da75b00000000 * xi;\r\n\r\n        xi = (xi * _x) >> PRECISION;\r\n        res += xi * 0xde1bc4d19efcb0000000000000000000;\r\n        xi = (xi * _x) >> PRECISION;\r\n        res += xi * 0x6f0de268cf7e58000000000000000000;\r\n        xi = (xi * _x) >> PRECISION;\r\n        res += xi * 0x2504a0cd9a7f72000000000000000000;\r\n        xi = (xi * _x) >> PRECISION;\r\n        res += xi * 0x9412833669fdc800000000000000000;\r\n        xi = (xi * _x) >> PRECISION;\r\n        res += xi * 0x1d9d4d714865f500000000000000000;\r\n        xi = (xi * _x) >> PRECISION;\r\n        res += xi * 0x4ef8ce836bba8c0000000000000000;\r\n        xi = (xi * _x) >> PRECISION;\r\n        res += xi * 0xb481d807d1aa68000000000000000;\r\n        xi = (xi * _x) >> PRECISION;\r\n        res += xi * 0x16903b00fa354d000000000000000;\r\n        xi = (xi * _x) >> PRECISION;\r\n        res += xi * 0x281cdaac677b3400000000000000;\r\n        xi = (xi * _x) >> PRECISION;\r\n        res += xi * 0x402e2aad725eb80000000000000;\r\n        xi = (xi * _x) >> PRECISION;\r\n        res += xi * 0x5d5a6c9f31fe24000000000000;\r\n        xi = (xi * _x) >> PRECISION;\r\n        res += xi * 0x7c7890d442a83000000000000;\r\n        xi = (xi * _x) >> PRECISION;\r\n        res += xi * 0x9931ed540345280000000000;\r\n        xi = (xi * _x) >> PRECISION;\r\n        res += xi * 0xaf147cf24ce150000000000;\r\n        xi = (xi * _x) >> PRECISION;\r\n        res += xi * 0xbac08546b867d000000000;\r\n        xi = (xi * _x) >> PRECISION;\r\n        res += xi * 0xbac08546b867d00000000;\r\n        xi = (xi * _x) >> PRECISION;\r\n        res += xi * 0xafc441338061b8000000;\r\n        xi = (xi * _x) >> PRECISION;\r\n        res += xi * 0x9c3cabbc0056e000000;\r\n        xi = (xi * _x) >> PRECISION;\r\n        res += xi * 0x839168328705c80000;\r\n        xi = (xi * _x) >> PRECISION;\r\n        res += xi * 0x694120286c04a0000;\r\n        xi = (xi * _x) >> PRECISION;\r\n        res += xi * 0x50319e98b3d2c400;\r\n        xi = (xi * _x) >> PRECISION;\r\n        res += xi * 0x3a52a1e36b82020;\r\n        xi = (xi * _x) >> PRECISION;\r\n        res += xi * 0x289286e0fce002;\r\n        xi = (xi * _x) >> PRECISION;\r\n        res += xi * 0x1b0c59eb53400;\r\n        xi = (xi * _x) >> PRECISION;\r\n        res += xi * 0x114f95b55400;\r\n        xi = (xi * _x) >> PRECISION;\r\n        res += xi * 0xaa7210d200;\r\n        xi = (xi * _x) >> PRECISION;\r\n        res += xi * 0x650139600;\r\n        xi = (xi * _x) >> PRECISION;\r\n        res += xi * 0x39b78e80;\r\n        xi = (xi * _x) >> PRECISION;\r\n        res += xi * 0x1fd8080;\r\n        xi = (xi * _x) >> PRECISION;\r\n        res += xi * 0x10fbc0;\r\n        xi = (xi * _x) >> PRECISION;\r\n        res += xi * 0x8c40;\r\n        xi = (xi * _x) >> PRECISION;\r\n        res += xi * 0x462;\r\n        xi = (xi * _x) >> PRECISION;\r\n        res += xi * 0x22;\r\n\r\n        return res / 0xde1bc4d19efcac82445da75b00000000;\r\n    }  \r\n}",
  "sourcePath": "C:\\work\\solidity\\finnexusOptions_V2.1\\contracts\\modules\\SmallNumbers.sol",
  "compiler": {
    "name": "solc",
    "version": "0.5.16+commit.9c3226ce.Emscripten.clang"
  },
  "schemaVersion": "3.1.0",
  "updatedAt": "2020-10-24T10:45:23.487Z",
  "devdoc": {
    "details": "Implementation of a Fraction number operation library.",
    "methods": {}
  },
  "userdoc": {
    "methods": {}
  }
}