{
  "contractName": "timeLimitation",
  "abi": [
    {
      "anonymous": false,
      "inputs": [
        {
          "indexed": true,
          "internalType": "address",
          "name": "previousOwner",
          "type": "address"
        },
        {
          "indexed": true,
          "internalType": "address",
          "name": "newOwner",
          "type": "address"
        }
      ],
      "name": "OwnershipTransferred",
      "type": "event"
    },
    {
      "constant": true,
      "inputs": [],
      "name": "isOwner",
      "outputs": [
        {
          "internalType": "bool",
          "name": "",
          "type": "bool"
        }
      ],
      "payable": false,
      "stateMutability": "view",
      "type": "function"
    },
    {
      "constant": true,
      "inputs": [],
      "name": "owner",
      "outputs": [
        {
          "internalType": "address",
          "name": "",
          "type": "address"
        }
      ],
      "payable": false,
      "stateMutability": "view",
      "type": "function"
    },
    {
      "constant": false,
      "inputs": [],
      "name": "renounceOwnership",
      "outputs": [],
      "payable": false,
      "stateMutability": "nonpayable",
      "type": "function"
    },
    {
      "constant": false,
      "inputs": [
        {
          "internalType": "address",
          "name": "newOwner",
          "type": "address"
        }
      ],
      "name": "transferOwnership",
      "outputs": [],
      "payable": false,
      "stateMutability": "nonpayable",
      "type": "function"
    },
    {
      "constant": false,
      "inputs": [
        {
          "internalType": "uint256",
          "name": "_limitation",
          "type": "uint256"
        }
      ],
      "name": "setTimeLimitation",
      "outputs": [],
      "payable": false,
      "stateMutability": "nonpayable",
      "type": "function"
    },
    {
      "constant": true,
      "inputs": [],
      "name": "getTimeLimitation",
      "outputs": [
        {
          "internalType": "uint256",
          "name": "",
          "type": "uint256"
        }
      ],
      "payable": false,
      "stateMutability": "view",
      "type": "function"
    },
    {
      "constant": true,
      "inputs": [
        {
          "internalType": "uint256",
          "name": "item",
          "type": "uint256"
        }
      ],
      "name": "getItemTimeLimitation",
      "outputs": [
        {
          "internalType": "uint256",
          "name": "",
          "type": "uint256"
        }
      ],
      "payable": false,
      "stateMutability": "view",
      "type": "function"
    }
  ],
  "bytecode": "0x60806040819052610e1060025560008054600160a060020a0319163317808255600160a060020a0316917f8be0079c531659141344cd1fd0a4f28419497f9722a3daafe3b4186f6b6457e0908290a36104278061005d6000396000f3fe608060405234801561001057600080fd5b506004361061009a576000357c0100000000000000000000000000000000000000000000000000000000900480638da5cb5b116100785780638da5cb5b146100e05780638f32d59b146101045780639783cbd914610120578063f2fde38b1461013d5761009a565b80632a75ee421461009f5780634688d5d6146100ce578063715018a6146100d6575b600080fd5b6100bc600480360360208110156100b557600080fd5b5035610163565b60408051918252519081900360200190f35b6100bc61017a565b6100de610180565b005b6100e8610233565b60408051600160a060020a039092168252519081900360200190f35b61010c610242565b604080519115158252519081900360200190f35b6100de6004803603602081101561013657600080fd5b5035610253565b6100de6004803603602081101561015357600080fd5b5035600160a060020a03166102b4565b600254600091825260016020526040909120540190565b60025490565b610188610242565b6101dc576040805160e560020a62461bcd02815260206004820181905260248201527f4f776e61626c653a2063616c6c6572206973206e6f7420746865206f776e6572604482015290519081900360640190fd5b60008054604051600160a060020a03909116907f8be0079c531659141344cd1fd0a4f28419497f9722a3daafe3b4186f6b6457e0908390a36000805473ffffffffffffffffffffffffffffffffffffffff19169055565b600054600160a060020a031690565b600054600160a060020a0316331490565b61025b610242565b6102af576040805160e560020a62461bcd02815260206004820181905260248201527f4f776e61626c653a2063616c6c6572206973206e6f7420746865206f776e6572604482015290519081900360640190fd5b600255565b6102bc610242565b610310576040805160e560020a62461bcd02815260206004820181905260248201527f4f776e61626c653a2063616c6c6572206973206e6f7420746865206f776e6572604482015290519081900360640190fd5b6103198161031c565b50565b600160a060020a0381166103645760405160e560020a62461bcd0281526004018080602001828103825260268152602001806103cd6026913960400191505060405180910390fd5b60008054604051600160a060020a03808516939216917f8be0079c531659141344cd1fd0a4f28419497f9722a3daafe3b4186f6b6457e091a36000805473ffffffffffffffffffffffffffffffffffffffff1916600160a060020a039290921691909117905556fe4f776e61626c653a206e6577206f776e657220697320746865207a65726f2061646472657373a265627a7a72315820e72952a16ecd134937033638d09ddde6432e643b0725230b698d9cbc636cfe9164736f6c63430005100032",
  "source": "pragma solidity =0.5.16;\r\nimport './Ownable.sol';\r\n\r\ncontract timeLimitation is Ownable {\r\n    \r\n    /**\r\n     * @dev FPT has burn time limit. When user's balance is moved in som coins, he will wait `timeLimited` to burn FPT. \r\n     * latestTransferIn is user's latest time when his balance is moved in.\r\n     */\r\n    mapping(uint256=>uint256) internal itemTimeMap;\r\n    uint256 internal limitation = 1 hours;\r\n    /**\r\n     * @dev set time limitation, only owner can invoke. \r\n     * @param _limitation new time limitation.\r\n     */ \r\n    function setTimeLimitation(uint256 _limitation) public onlyOwner {\r\n        limitation = _limitation;\r\n    }\r\n    function setItemTimeLimitation(uint256 item) internal{\r\n        itemTimeMap[item] = now;\r\n    }\r\n    function getTimeLimitation() public view returns (uint256){\r\n        return limitation;\r\n    }\r\n    /**\r\n     * @dev Retrieve user's start time for burning. \r\n     * @param item item key.\r\n     */ \r\n    function getItemTimeLimitation(uint256 item) public view returns (uint256){\r\n        return itemTimeMap[item]+limitation;\r\n    }\r\n    modifier OutLimitation(uint256 item) {\r\n        require(itemTimeMap[item]+limitation<now,\"Time limitation is not expired!\");\r\n        _;\r\n    }    \r\n}",
  "sourcePath": "C:\\work\\solidity\\finnexusOptions_V2.1\\contracts\\modules\\timeLimitation.sol",
  "compiler": {
    "name": "solc",
    "version": "0.5.16+commit.9c3226ce.Emscripten.clang"
  },
  "schemaVersion": "3.1.0",
  "updatedAt": "2020-10-24T10:45:23.151Z",
  "devdoc": {
    "methods": {
      "getItemTimeLimitation(uint256)": {
        "details": "Retrieve user's start time for burning. ",
        "params": {
          "item": "item key."
        }
      },
      "isOwner()": {
        "details": "Returns true if the caller is the current owner."
      },
      "owner()": {
        "details": "Returns the address of the current owner."
      },
      "renounceOwnership()": {
        "details": "Leaves the contract without owner. It will not be possible to call `onlyOwner` functions anymore. Can only be called by the current owner.      * NOTE: Renouncing ownership will leave the contract without an owner, thereby removing any functionality that is only available to the owner."
      },
      "setTimeLimitation(uint256)": {
        "details": "set time limitation, only owner can invoke. ",
        "params": {
          "_limitation": "new time limitation."
        }
      },
      "transferOwnership(address)": {
        "details": "Transfers ownership of the contract to a new account (`newOwner`). Can only be called by the current owner."
      }
    }
  },
  "userdoc": {
    "methods": {}
  }
}