{
  "contractName": "UnderlyingAssets",
  "abi": [
    {
      "anonymous": false,
      "inputs": [
        {
          "indexed": true,
          "internalType": "address",
          "name": "previousOwner",
          "type": "address"
        },
        {
          "indexed": true,
          "internalType": "address",
          "name": "newOwner",
          "type": "address"
        }
      ],
      "name": "OwnershipTransferred",
      "type": "event"
    },
    {
      "constant": true,
      "inputs": [],
      "name": "isOwner",
      "outputs": [
        {
          "internalType": "bool",
          "name": "",
          "type": "bool"
        }
      ],
      "payable": false,
      "stateMutability": "view",
      "type": "function"
    },
    {
      "constant": true,
      "inputs": [],
      "name": "owner",
      "outputs": [
        {
          "internalType": "address",
          "name": "",
          "type": "address"
        }
      ],
      "payable": false,
      "stateMutability": "view",
      "type": "function"
    },
    {
      "constant": false,
      "inputs": [],
      "name": "renounceOwnership",
      "outputs": [],
      "payable": false,
      "stateMutability": "nonpayable",
      "type": "function"
    },
    {
      "constant": false,
      "inputs": [
        {
          "internalType": "address",
          "name": "newOwner",
          "type": "address"
        }
      ],
      "name": "transferOwnership",
      "outputs": [],
      "payable": false,
      "stateMutability": "nonpayable",
      "type": "function"
    },
    {
      "constant": false,
      "inputs": [
        {
          "internalType": "uint32",
          "name": "underlying",
          "type": "uint32"
        }
      ],
      "name": "addUnderlyingAsset",
      "outputs": [],
      "payable": false,
      "stateMutability": "nonpayable",
      "type": "function"
    },
    {
      "constant": false,
      "inputs": [
        {
          "internalType": "uint32",
          "name": "removeUnderlying",
          "type": "uint32"
        }
      ],
      "name": "removeUnderlyingAssets",
      "outputs": [
        {
          "internalType": "bool",
          "name": "",
          "type": "bool"
        }
      ],
      "payable": false,
      "stateMutability": "nonpayable",
      "type": "function"
    },
    {
      "constant": true,
      "inputs": [],
      "name": "getUnderlyingAssets",
      "outputs": [
        {
          "internalType": "uint32[]",
          "name": "",
          "type": "uint32[]"
        }
      ],
      "payable": false,
      "stateMutability": "view",
      "type": "function"
    },
    {
      "constant": true,
      "inputs": [
        {
          "internalType": "uint32",
          "name": "underlying",
          "type": "uint32"
        }
      ],
      "name": "isEligibleUnderlyingAsset",
      "outputs": [
        {
          "internalType": "bool",
          "name": "",
          "type": "bool"
        }
      ],
      "payable": false,
      "stateMutability": "view",
      "type": "function"
    }
  ],
  "bytecode": "0x6080604081905260008054600160a060020a0319163317808255600160a060020a0316917f8be0079c531659141344cd1fd0a4f28419497f9722a3daafe3b4186f6b6457e0908290a3610860806100576000396000f3fe608060405234801561001057600080fd5b50600436106100a5576000357c010000000000000000000000000000000000000000000000000000000090048063afec82fc11610078578063afec82fc1461014c578063d6d140121461016f578063db6ad2bd14610192578063f2fde38b146101b5576100a5565b80633582d789146100aa578063715018a6146101025780638da5cb5b1461010c5780638f32d59b14610130575b600080fd5b6100b26101db565b60408051602080825283518183015283519192839290830191858101910280838360005b838110156100ee5781810151838201526020016100d6565b505050509050019250505060405180910390f35b61010a610260565b005b610114610301565b60408051600160a060020a039092168252519081900360200190f35b610138610310565b604080519115158252519081900360200190f35b61010a6004803603602081101561016257600080fd5b503563ffffffff16610321565b6101386004803603602081101561018557600080fd5b503563ffffffff1661037f565b610138600480360360208110156101a857600080fd5b503563ffffffff166103e2565b61010a600480360360208110156101cb57600080fd5b5035600160a060020a0316610473565b6060600180548060200260200160405190810160405280929190818152602001828054801561025557602002820191906000526020600020906000905b82829054906101000a900463ffffffff1663ffffffff16815260200190600401906020826003010492830192600103820291508084116102185790505b505050505090505b90565b610268610310565b6102aa576040805160e560020a62461bcd028152602060048201819052602482015260008051602061080c833981519152604482015290519081900360640190fd5b60008054604051600160a060020a03909116907f8be0079c531659141344cd1fd0a4f28419497f9722a3daafe3b4186f6b6457e0908390a36000805473ffffffffffffffffffffffffffffffffffffffff19169055565b600054600160a060020a031690565b600054600160a060020a0316331490565b610329610310565b61036b576040805160e560020a62461bcd028152602060048201819052602482015260008051602061080c833981519152604482015290519081900360640190fd5b61037c60018263ffffffff6104c616565b50565b6000610389610310565b6103cb576040805160e560020a62461bcd028152602060048201819052602482015260008051602061080c833981519152604482015290519081900360640190fd5b6103dc60018363ffffffff61058e16565b92915050565b60006103dc82600180548060200260200160405190810160405280929190818152602001828054801561046057602002820191906000526020600020906000905b82829054906101000a900463ffffffff1663ffffffff16815260200190600401906020826003010492830192600103820291508084116104235790505b505050505061069590919063ffffffff16565b61047b610310565b6104bd576040805160e560020a62461bcd028152602060048201819052602482015260008051602061080c833981519152604482015290519081900360640190fd5b61037c816106de565b61054b8280548060200260200160405190810160405280929190818152602001828054801561054057602002820191906000526020600020906000905b82829054906101000a900463ffffffff1663ffffffff16815260200190600401906020826003010492830192600103820291508084116105035790505b505050505082610695565b61058a5781546001810183556000838152602090206008820401805460079092166004026101000a63ffffffff81810219909316928416029190911790555b5050565b8154600090815b818110156105e7578363ffffffff168582815481106105b057fe5b6000918252602090912060088204015460079091166004026101000a900463ffffffff1614156105df576105e7565b600101610595565b8181101561068a5760018203811461066e5784600183038154811061060857fe5b90600052602060002090600891828204019190066004029054906101000a900463ffffffff1685828154811061063a57fe5b90600052602060002090600891828204019190066004026101000a81548163ffffffff021916908363ffffffff1602179055505b845461067e86600019830161078e565b506001925050506103dc565b506000949350505050565b8151600090815b8181101561068a578363ffffffff168582815181106106b757fe5b602002602001015163ffffffff1614156106d6576001925050506103dc565b60010161069c565b600160a060020a0381166107265760405160e560020a62461bcd0281526004018080602001828103825260268152602001806107e66026913960400191505060405180910390fd5b60008054604051600160a060020a03808516939216917f8be0079c531659141344cd1fd0a4f28419497f9722a3daafe3b4186f6b6457e091a36000805473ffffffffffffffffffffffffffffffffffffffff1916600160a060020a0392909216919091179055565b8154818355818111156107c25760070160089004816007016008900483600052602060002091820191016107c291906107c7565b505050565b61025d91905b808211156107e157600081556001016107cd565b509056fe4f776e61626c653a206e6577206f776e657220697320746865207a65726f20616464726573734f776e61626c653a2063616c6c6572206973206e6f7420746865206f776e6572a265627a7a723158200f461a8982e886098179561a031a4b0b8450e0950c7b2448a8efa75e5ee0ad0564736f6c63430005100032",
  "source": "pragma solidity =0.5.16;\r\nimport './Ownable.sol';\r\nimport \"./whiteList.sol\";\r\n    /**\r\n     * @dev Implementation of a underlyingAssets filters a eligible underlying.\r\n     */\r\ncontract UnderlyingAssets is Ownable {\r\n    using whiteListUint32 for uint32[];\r\n    // The eligible underlying list\r\n    uint32[] internal underlyingAssets;\r\n    /**\r\n     * @dev Implementation of add an eligible underlying into the underlyingAssets.\r\n     * @param underlying new eligible underlying.\r\n     */\r\n    function addUnderlyingAsset(uint32 underlying)public onlyOwner{\r\n        underlyingAssets.addWhiteListUint32(underlying);\r\n    }\r\n    /**\r\n     * @dev Implementation of revoke an invalid underlying from the underlyingAssets.\r\n     * @param removeUnderlying revoked underlying.\r\n     */\r\n    function removeUnderlyingAssets(uint32 removeUnderlying)public onlyOwner returns(bool) {\r\n        return underlyingAssets.removeWhiteListUint32(removeUnderlying);\r\n    }\r\n    /**\r\n     * @dev Implementation of getting the eligible underlyingAssets.\r\n     */\r\n    function getUnderlyingAssets()public view returns (uint32[] memory){\r\n        return underlyingAssets;\r\n    }\r\n    /**\r\n     * @dev Implementation of testing whether the input underlying is eligible.\r\n     * @param underlying input underlying for testing.\r\n     */    \r\n    function isEligibleUnderlyingAsset(uint32 underlying) public view returns (bool){\r\n        return underlyingAssets.isEligibleUint32(underlying);\r\n    }\r\n    function _getEligibleUnderlyingIndex(uint32 underlying) internal view returns (uint256){\r\n        return underlyingAssets._getEligibleIndexUint32(underlying);\r\n    }\r\n}",
  "sourcePath": "C:\\work\\solidity\\finnexusOptions_V2.1\\contracts\\modules\\underlyingAssets.sol",
  "compiler": {
    "name": "solc",
    "version": "0.5.16+commit.9c3226ce.Emscripten.clang"
  },
  "schemaVersion": "3.1.0",
  "updatedAt": "2020-10-24T10:45:23.154Z",
  "devdoc": {
    "details": "Implementation of a underlyingAssets filters a eligible underlying.",
    "methods": {
      "addUnderlyingAsset(uint32)": {
        "details": "Implementation of add an eligible underlying into the underlyingAssets.",
        "params": {
          "underlying": "new eligible underlying."
        }
      },
      "getUnderlyingAssets()": {
        "details": "Implementation of getting the eligible underlyingAssets."
      },
      "isEligibleUnderlyingAsset(uint32)": {
        "details": "Implementation of testing whether the input underlying is eligible.",
        "params": {
          "underlying": "input underlying for testing."
        }
      },
      "isOwner()": {
        "details": "Returns true if the caller is the current owner."
      },
      "owner()": {
        "details": "Returns the address of the current owner."
      },
      "removeUnderlyingAssets(uint32)": {
        "details": "Implementation of revoke an invalid underlying from the underlyingAssets.",
        "params": {
          "removeUnderlying": "revoked underlying."
        }
      },
      "renounceOwnership()": {
        "details": "Leaves the contract without owner. It will not be possible to call `onlyOwner` functions anymore. Can only be called by the current owner.      * NOTE: Renouncing ownership will leave the contract without an owner, thereby removing any functionality that is only available to the owner."
      },
      "transferOwnership(address)": {
        "details": "Transfers ownership of the contract to a new account (`newOwner`). Can only be called by the current owner."
      }
    }
  },
  "userdoc": {
    "methods": {}
  }
}